:020000040800F2
:10000000684A002045010008170300080F03000894
:1000100013030008EB010008AD0700080000000012
:10002000000000000000000000000000350500088E
:10003000EF01000800000000110500084B07000850
:100040005F0100085F0100085F0100085F01000810
:100050005F0100085F0100085F0100085F01000800
:100060005F0100085F0100085F0100085F010008F0
:100070005F0100085F0100085F0100085F010008E0
:100080005F0100085F0100085F0100085F010008D0
:100090005F0100085F0100085F0100085F010008C0
:1000A0005F0100085F0100085F0100085F010008B0
:1000B0005F0100085F0100085F0100085F010008A0
:1000C0005F0100085F0100085F0100085F01000890
:1000D0005F0100085F0100085F0100085F01000880
:1000E0005F0100085F0100085F0100085F01000870
:1000F0005F0100085F0100085F0100085F01000860
:100100005F0100085F0100085F0100085F0100084F
:100110005F0100085F0100085F0100085F0100083F
:100120005F0100085F0100085F0100085F0100082F
:10013000DFF80CD000F018F800480047E508000888
:10014000684A00200648804706480047FEE7FEE769
:10015000FEE7FEE7FEE7FEE7FEE7FEE7FEE7FEE777
:100160004D07000831010008064C074D06E0E06825
:1001700040F0010394E8070098471034AC42F6D3EE
:10018000FFF7DAFF700900089009000870B58D18B4
:1001900010F8014B14F0030201D110F8012B2311C8
:1001A00006D110F8013B03E010F8016B01F8016B78
:1001B000521EF9D1ABB110F8012B04F00C048A1ACD
:1001C0000C2C03D0A2EB84129B1C08E010F8014B0E
:1001D000A2EB0422F8E712F8014B01F8014B5B1E79
:1001E000F9D5A942D4D3002070BD00BFFEE7704707
:1001F0002DE9F041024600250026002000230024BE
:10020000002791F803C00CF00F0591F803C00CF023
:10021000100CBCF1000F03D091F802C04CEA0505A8
:1002200091F800C0BCF1000F31D0146800202BE021
:100230004FF0010C0CFA00F3B1F800C00CEA030611
:100240009E4220D183004FF00F0C0CFA03F7BC4301
:1002500005FA03FC4CEA040491F803C0BCF1280F32
:1002600006D14FF0010C0CFA00FCC2F814C00AE0F1
:1002700091F803C0BCF1480F05D14FF0010C0CFA06
:1002800000FCC2F810C0401C0828D1D31460B1F89B
:1002900000C0BCF1FF0F34DD546800202EE000F1F7
:1002A000080C4FF0010808FA0CF3B1F800C00CEA92
:1002B00003069E4221D183004FF00F0C0CFA03F786
:1002C000BC4305FA03FC4CEA040491F803C0BCF1FA
:1002D000280F05D100F1080C08FA0CF8C2F81480B8
:1002E00091F803C0BCF1480F07D100F1080C4FF0A2
:1002F000010808FA0CF8C2F81080401C0828CED378
:100300005460BDE8F081416170470161704700BFF2
:10031000FEE700BFFEE7704709E041F6132100BF8A
:100320000A1EA1F1010399B2FAD1421E90B200282F
:10033000F3D1704770B50646002419E004F1B0010E
:10034000C8B2002100F0ACF80021084600F0A8F87F
:100350000021102000F0A4F8002505E0012130461E
:1003600000F09EF8681CC5B2802DF7DB601CC4B29B
:10037000082CE3DB70BD000010B500F04DF84FF421
:1003800080512448FFF7C1FF4FF480412148FFF717
:10039000BAFF3220FFF7C0FF4FF480411D48FFF73E
:1003A000B4FF002000F013F9802000F0FAF83F209D
:1003B00000F025F9002000F0FFF8002000F03DF9E2
:1003C000042000F0C3F8022000F0B5F8012000F08E
:1003D0002CF9082000F0D2F8102000F0C3F8CF204C
:1003E00000F0D4F8F12000F015F9402000F0A2F957
:1003F000002000F0F4F8002000F0F9F8012000F0EF
:10040000E6F80020FFF796FF0021084600F032F8DA
:1004100010BD0000000C014008B50121082000F0CB
:1004200079F84FF48050ADF8000010208DF80300EB
:1004300003208DF8020069460D48FFF7D9FE4FF4FE
:100440000050ADF8000069460948FFF7D1FE4FF4AF
:100450008040ADF8000069460548FFF7C9FE4FF43B
:100460000040ADF8000069460148FFF7C1FE08BD35
:10047000000C014070B504460D4605F1B001C8B24C
:10048000002100F00DF8102141EA1410002100F0C5
:1004900007F804F00F00002100F002F870BD000022
:1004A00070B504460E462EB14FF400411748FFF7D1
:1004B0002CFF04E04FF400411448FFF724FF00250F
:1004C0001BE04FF480511148FFF71DFF04F080003E
:1004D00028B14FF400510D48FFF717FF04E04FF427
:1004E00000510A48FFF70FFF4FF480510748FFF70C
:1004F0000CFF6006040E681CC5B2082DE1DB4FF44A
:1005000000410248FFF701FF70BD0000000C0140F0
:100510007047000029B1064A92690243044B9A6170
:1005200004E0034A92698243014B9A6170470000DC
:1005300000100240704710B5044600212020FFF74C
:10054000AFFF00212046FFF7ABFF10BD10B50446FA
:1005500000218D20FFF7A4FF44F010000021FFF7D9
:100560009FFF10BD10B504460021DA20FFF798FF69
:1005700044F002000021FFF793FF10BD10B50446C0
:1005800044F0C0000021FFF78BFF10BD10B50446FA
:1005900000218120FFF784FF00212046FFF780FF24
:1005A00010BD10B504460021D520FFF779FF0021CA
:1005B0002046FFF775FF10BD10B504460021D3207B
:1005C000FFF76EFF00212046FFF76AFF10BD10B550
:1005D000044644F0AE000021FFF762FF10BD10B5E5
:1005E000044644F0A4000021FFF75AFF10BD10B5E7
:1005F000044644F0A6000021FFF752FF10BD10B5DD
:1006000004460021A820FFF74BFF00212046FFF7FA
:1006100047FF10BD10B504460021D920FFF740FF69
:1006200000212046FFF73CFF10BD10B5044644F002
:10063000A0000021FFF734FF10BD10B5044644F0C0
:1006400040000021FFF72CFF10BD10B500F002F8AC
:1006500010BD00000CB500200190009033480068E8
:1006600040F480303149086000BF3048006800F431
:10067000003000900198401C0190009818B9019832
:10068000B0F5A06FF1D12948006800F4003010B136
:100690000120009001E0002000900098012843D143
:1006A0002348006840F010002149086008460068AF
:1006B00020F0030008600846006840F0020008606F
:1006C0001A4840681949486008464068486008462A
:1006D000406840F4806048600846406820F47C1020
:1006E00048600846406840F4E810486008460068E2
:1006F00040F08070086000BF0C48006800F0007097
:100700000028F9D00948406820F0030007494860F4
:100710000846406840F00200486000BF0348406857
:1007200000F00C000828F9D10CBD000000100240B8
:100730000020024010B504460021DB20FFF7B0FE88
:1007400000212046FFF7ACFE10BD704710B51348DE
:10075000006840F0010011490860084640681049EF
:1007600008400E494860084600680E4908400B4999
:1007700008600846006820F4802008600846406849
:1007800020F4FE0048604FF41F008860FFF75DFF13
:100790004FF000600449086010BD000000100240E6
:1007A0000000FFF8FFFFF6FE08ED00E000BFFEE7E7
:1007B00002E008C8121F08C1002AFAD1704770472A
:1007C000002001E001C1121F002AFBD17047000088
:1007D0002DE9F347002600270024002542F6F829DA
:1007E0004FF0A00A9DF804109DF80000FFF742FEAC
:1007F00070E03B48005D98B13948005DFF280FD09C
:1008000076B96FB901AA6946284600F085F83449DF
:10081000085D0121FFF744FE6D1C681E641C59E051
:100820002F48005DFF2804D11EB917B9641C0127A9
:1008300050E02B48005D20B91EB917B9641C012691
:1008400048E0012E22D14FF0000818E001AA6946C5
:10085000284600F061F801210020FFF721FE6D1C01
:10086000681EC11700EB91518912A0EB812111B9CB
:10087000484600F047F808F1010000F0FF0818486A
:10088000005D4045E2DC641C002623E0012F21D1FD
:100890004FF0000818E001AA6946284600F03CF82D
:1008A0000121FF20FFF7FCFD6D1C681EC11700EB46
:1008B00091518912A0EB812111B9484600F022F82C
:1008C00008F1010000F0FF080548005D4045E2DC4A
:1008D000641C0027B5EB8A2F8BDDBDE8FC87000088
:1008E000000000204FF480710548FFF70CFDFFF772
:1008F00043FD03E000210846FFF76AFFFAE7000026
:100900000014014004E0C82100BF4A1E111EFCD1A2
:10091000421E101EF7D1704770B504460E461546AC
:10092000E21704EB5262D211A4EBC2127AB9E217B9
:1009300004EB92529212A4EB822242B12A78521C0A
:10094000D2B22A7011463078FFF794FD0FE0E1171C
:1009500004EB91518912A4EB812141B9012C06D0FD
:1009600000202870307029783078FFF783FD70BD43
:100970009009000800000020644600008C01000877
:10098000C83B00086446002004040000C0070008BB
:1009900010120015FF50E0000301002BFF51002F43
:1009A000FF501F0510184F0F0030FF4EFD0031FFA4
:1009B0004CF8F0FF01E0C0C080002DFF552321045A
:1009C00020073D800042FF3E04100FFC0041FF3F26
:1009D000F00040FF3CE30101010810053DFCE08010
:1009E00007101641F8F0C0003CFF45FCE0C000389D
:1009F000FF381FC7FB3F0F0335600D353F07000170
:100A000006010046FF34F8011378184530063DF81A
:100A1000F8F0F06710073BFF46FEFCF8465004353F
:100A2000FF4B04134EFE121151300A3901071F3FCC
:100A3000FF3381010120300044D0F0FF05EFBFFFFC
:100A40002C07004AFF127F3F1FFF1BBF83FF0203DB
:100A5000004A06FF11FDFCFCFF1FC7C08080004557
:100A600080C0F0FCFF38432016E0003A80E0F0FC44
:100A7000FEFF42C0003480E0F8FEFF48F8800130FD
:100A800009002CE0FCFF5300426110042A8F03018F
:100A90001026004FD8F8FF043F3FFF257880005113
:100AA000FF060002F0FF247C0052017FFF02C3E139
:100AB000F8FF23F9FBFF02B3100480004D3C200730
:100AC00032F8004680C052300B35FEE00041C0FED7
:100AD000FF3DFE0110160038E0F8FF363FFF0EF82C
:100AE000004C03FF257F0F07070056131417221F22
:100AF00003005960FF23E0E0E0005A82FF02F8FCA7
:100B0000FF20FCFC061532125094100BFCFF2D0048
:100B10004C3E7FFF32FC2212E01512456614062877
:100B20003FFF0DC7481280D120052A010001561051
:100B30002448010002C0FF217F0E005C0303071F51
:100B40007FFF1CFDF00061C0C1C7FF1C3F20005AA1
:100B5000E0F0F8FCF1121AAD12F7AC12565B141764
:100B6000FF27C00053061FBFFF20FDFDFF08FCFC50
:100B7000FC7C18004EC02F200A7F070002FF0BE00C
:100B8000004B601407220004FF0CFCC7240F4E0129
:100B9000C1F1F9FDFF1D3F0F0701005B7C1404FF4D
:100BA0001A872020086343FF1A80005F6112FE61EC
:100BB00016F0F926584D151B3014FEF8E00055C309
:100BC000FF1E1FFF0CF80050C0F0FEFF1EAE115AB2
:100BD0002523122167100A0E800053010F0F8FCFBB
:100BE000A7215914075D060F0FFF17C5100A0065EE
:100BF00004FF17FE006480581005FF17F1E0621033
:100C000006C0C0F0FF1E542011800059E0F9FF0615
:100C10003F7FFF1DFCF0800052A712095D140820E1
:100C2000F880004CC0F07D10102E7FFF01F00055C1
:100C3000070F0FCFFF1A7F1F5830135F0207071FE0
:100C4000FF153F0F006907FF14FE0066E0AF1615A1
:100C500024100C2070F0F0FF1CFEFC18005DFE302C
:100C6000090703FF19F8C00057A21007080780FF03
:100C70001BFEFD135140BD1A0C4B1404E1005C5CDB
:100C8000161B2328066418FF157F80100966DFFFF6
:100C9000128F03006A94181313FEFCFCF0006430FA
:100CA00070F0FF19FEFEBC0C0060021706002B134B
:100CB00015FEAA2A5A82101709E080FF18FEF86074
:100CC0000055048EFF097FDFFBFF1C70005F9D1A3B
:100CD000175238161F006601033FFF123F1E1C18F3
:100CE000006830FEFF114F0069501314FE5A126362
:100CF000861A018C200A18FEFC8C0060FF03E0AF0E
:100D00002E146C0314055DFF093F1F141417FEF821
:100D100040005AFCFF057F0FE3FF1B7D005F30F8AA
:100D2000F831015109101AFEFF090067030F1FFF78
:100D300012FD736301006BFF12006BC0E0F0FF1245
:100D4000B91265A01A7F11140516FCFC84D21EFE90
:100D50004503240580F0FF1A0128075B303F3F7FE1
:100D6000989D480D70005C070FFF207F0060187C85
:100D7000DC1D9703154C154E38050A0068017C1CD4
:100D800011101E18006DFEFF0F01006C80C0F8FFEF
:100D9000120C03180D6780F1FF120FFF05F70062B8
:100DA00080C3300614E003FF06B96C0F60FF221EFB
:100DB0000060079FFF1DEF0061F00F041004F0F0CA
:100DC000F00461BC159C1E679403100D0FFF11C742
:100DD0000703006C0103FF0F5A15F81C04FEFF0EF9
:100DE00013042C0F0068C0F3FF107F3FFF04FE8E3A
:100DF0000062E703280513F8FF07B510075F3D7F82
:100E0000FF20045F1005FF17E70F205005E0006189
:100E1000FCB242FC676D7F041C0A006901337B7FD2
:100E2000FF0F1FA1041C0B6ECFFF0DFE60006A8038
:100E300080C1031E0EE9031AFE121C096780F9FF28
:100E40000F7F070603042663911E12250326061B47
:100E50002C14607FFF15F8C00F7FFF06E60060C30B
:100E6000FF16FEF8E13F04400502F900645E2DD252
:100E70000419BD2FC0C0C1031DDC04180480006923
:100E8000F011B01E0F6E0510056B7FFF0E7241CB87
:100E90002D3D0314046780F23A223F5C21CC216986
:100EA0001D6C04180508006003451808F81FFF07AB
:100EB000700060FB100516FCF3CF076405017C0091
:100EC00066E015341EF0260441062809C0006A6752
:100ED00073FF101FFD10086C0CFF0E01006EB52A89
:100EE0000F2C180A69E0FF047F0FFF10FD932E629C
:100EF0003D031606EB100913F8006123FF1D1E6960
:100F00001D3D03154C4007188F010067F00111B813
:100F100021BB3D83041D05061006006A07CFEFA420
:100F20002DCD0514096C01FF0DF703006F751E0D23
:100F3000B1051D5C041B6A02AE1FF1C0BB032DE5A9
:100F40000319EB200B20006131FF1C0F00627C595C
:100F500010060FE7FF15FB9E72F05C210A3AF8A815
:100F60001587136B07FC10040F77675A1F20FEE7E5
:100F70000427006E6D140410FEFC371A68EF280574
:100F80000FFF0FE0A9100EFF061F0001E0FF11FC8C
:100F9000E00062FDD01C0F1FC1F8FF133F0100618C
:100FA0001C3F1F0F839905140616FCC00066C24142
:100FB00001310842E0691005F0006A016615ED1E76
:100FC000CFB8031C086EF3FF0E39006D65032AFDD0
:100FD0004D11661007F0FC3F8FFF15C218096380A2
:100FE000FF03FEFF05BFC12D76041E5F78061D5A64
:100FF0000313FF17661C09021F1FE7F3FCFF16BF50
:101000000560046560E0CB31CA3D66031DAB063167
:101010006614061FFF0F7B237C1EFCF6041E6E6801
:101020000315832AFE022E6618033406108707FF75
:1010300004851D9B051214D32D31051C055F01038A
:1010400003BE05540EF9006381E3FF181F7F7F1074
:1010500000647A2945258A55961C05006A031F0DF0
:101060000411C6100A07006E03FF0D7F006DE71D17
:101070002F05160D4A1F0068C2041C07FDFF1582CC
:101080000063B7032F1BFE8A0710075F03073FFFAC
:101090001D5A13C1FBE03C09830F1F3F7F7C006298
:1010A00023044D730351C325F319FF1F0767100372
:1010B0001E0FC5031C066E81CFFF0C11031E6B4370
:1010C00007158C2D750514046780E02F2C0ABF03CB
:1010D00063FF058000632010032AC0A82E05760355
:1010E0001F610FAF041FE08709041C0604FC0062A7
:1010F000F113031FF0C173043F3F3ECF053D1103C1
:101100004D0903559C5A80513E7F03061E6A2F05E8
:101110002D130311CA19013D04082C0468E0FB13C8
:10112000033C0404EF1F15031D40045D15031F61FC
:10113000075A05129F771C061F00620FBF21036C20
:101140000AF9E38F3F3F1E0067FC99045D170355C2
:10115000FA217A1C06006607C7E763052DEA031C1F
:1011600007690177FF0FE7A70419812004FF0FFB30
:101170006B1AB83B2C04FEFCC8A70419521805C30F
:1011800003FF07141C045C2078B0061C06FE9800C0
:101190005B1E64076C060F0700617C9B04253B45C2
:1011A000938EE04E0411131DD4041D45081DD50572
:1011B0001F033F2507119D1C0D143F3E3C0067F89F
:1011C000FF15070068C7051DD305252C1F6338A22E
:1011D000081F1EF60A051C055CC0FF1880092E7F3B
:1011E000BA041C05800055802F071E1945082C04E1
:1011F00003FF0ACA044F5D7865057D72054D7305CE
:101200001F0CFCFC051FF0F997071C077F7F3F00B0
:101210005D033D031C0A1C7F7E7C70005D40FC4F1B
:10122000061DF8041C073F00631F1FE0FC072C0984
:1012300015CF010065F8FF1A66042DEC08125D1D3C
:101240002C061FDFFF0AFEBD081E54B6081EF0352F
:10125000031F80005D051205B93A08F3125D1751AE
:10126000DD1D24041E0584063E8026061DD8032DA0
:101270004A041260701D87071E1B6B032361027BEB
:101280001C07800064E7FF0250082C041700603E32
:101290000812140E1D74071C07011F1F010047814F
:1012A000035EF4DE051C0880000CE1FF19F09703D3
:1012B0002C06E0703000478D033209DE2004FF2643
:1012C000F88F3E67FB052D0509226F982DBC082C71
:1012D00004FEFF0B000A1DFD031F2C7F5E071D92FD
:1012E000051C0765193FFF19FC1A06196F196C5088
:1012F00007017FC0004A80AF1DE409120E0B1C06D7
:10130000FCFF113F7F86031D83071C0402004B2F47
:10131000031A7FA3AEFE65061EFCBD051D36031E27
:10132000E09007140579FF26FD923E6BB6053DD38C
:101330000952707D43FF0EFA16383E1181130113D6
:10134000F51E176303117A32127A5404004E70921C
:101350001DA9041004000C205A2C06FCFF10F303F6
:10136000FC071C04005003890864061F1F9FFF0729
:10137000BA1D12032D92042C044000510C071E11BB
:101380006E051215794669692DAD0A2F03802E046A
:101390001DB50922F97B1D7E061366FCF41DA2070C
:1013A0001D60071E2782041DFB032409FF03F3F7BA
:1013B000FF1000501A1F06FC4D031C048000093466
:1013C000071D56041FF02072081C040300518C07EF
:1013D000140407078FE11DA107117342FC731E520D
:1013E000270843121F714DD205617129031EF06950
:1013F000031D2C0418040066407E1D42052264452E
:1014000031711DDD03100503F3FF0C063C04800061
:10141000503D092304FE7727000A473C05FF1030A2
:10142000008E0B1251301D35041ADF413D1808257E
:101430005F1D0E0A300AC00055E0FF26F1C101E62B
:10144000255F21E839881E6C8C0B25882E10FE0440
:101450001C056570FF1B84051E63050511E81E1839
:1014600007032D970B22107D1405E3FF0E3FE522A5
:1014700070F3154B217B1E0975031DB80320069FD1
:101480001F610055A91D3C0A36096211761B000434
:10149000E41C0555F1FF246C031FC303A8095F6812
:1014A000F827077EE077041E68140C4D190B3610E0
:1014B000E110056338FF1CF542627E1F19F05C0ADB
:1014C0004DA4041C0980000D013FFF03E7A4042C78
:1014D00008FF0300507EFF0AF20B2E0616072807AE
:1014E000F0FF109F3F636111FD11B710040707E77C
:1014F000851D6F093D5E0A1C095AF0FF25FCFE861A
:1015000006290B2F671C410321FA55761F006675CB
:10151000063D870A22147510047EFF1EFA1660BB72
:101520001E33620A191B1DB206412D15641D150AD2
:101530001C0803EFEFFF13005090083E0A890D12BC
:10154000039B100980C0FBFF10BF7FE377196C304D
:101550000652010383F37D1FFF1793031C0558C038
:10156000FF11CE091C0814F8FC0C0E060690071794
:10157000808F966EFCD30711EF3D060D2DCC031D19
:101580002A091E082A0912F87F217E1F1CFEAF0BB4
:101590006EE0D0041D4C031E08950A1C0704EFFFE3
:1015A000150050DE093E0AA3032A01722F01804A6A
:1015B000053007FF018F08071D811FC1F9F70B1CBC
:1015C00005E00100579B071D1809116D2C0718181D
:1015D0001C0C0061630356E1196D5E031D22041D9E
:1015E000060C2E1C060A1C075C043FFF22F862074B
:1015F0003C073B7FFF1F005076034EFED7082C06AA
:10160000E0000503275A042E4FB307417C1C050355
:10161000C1FF13CA031C0901BC00010719030F0312
:101620000C1DBD071D1F042D670B1E01590D1C0449
:1016300080FF287309200760703038005E7A1973C4
:101640001EF3080369001DAF0C3DC4042E1D950B4D
:101650001F5B02490C2E2247051F11192D0A1DA8D8
:101660000C4D6E041D8D071A00073C07FF1DF0008E
:10167000500739042E0891041C058081FF14120ABA
:101680001C09F9010F33471F0053770C1F22FCDDA3
:101690000621F11E0B260E3E1966035007E07070FE
:1016A00010005C7A1FF1F7C20551F6217A2DD7069A
:1016B000131DFEF540045B031F7A1A564B1F193D9C
:1016C000100D3A510E1E087C0A300402032F7A2EA8
:1016D00001A50735B61C0BC080C3FF17F9031F77A0
:1016E0008FD00D1E52A80D1C0E22F8C1071F0057E7
:1016F00078FF0A7F1FCFB50C1DAE0A12E0792DB41A
:10170000053DB50571781EF0680561781D2F092328
:101710005C03F11EF8E30C2DF6031202F571792C2F
:1017200005FC00020123081D7C0E9203793005C7D9
:10173000FF17F3791F00532A0A21781C041E005753
:10174000EF0B50043F0FEF7892607811EF66FEE5E3
:101750002F0060680D1FFF1DAE052D380D1E2209DC
:101760000C117736056A1D130E4D850D16076A1F7D
:101770000203660464041D00516A2D06061C0CCF8A
:10178000FF1771073F670F3C0053680F417621ED4B
:101790009307F7EE2E5CE3091FE0E00C0535E071DE
:1017A000EE35E0295B14065B067FFF23DF18075C3C
:1017B000012333FF21473EC0A3091D81073D2108B6
:1017C00012F0F31D550A38051E004F016035E42064
:1017D0000680DFFF17617B1C04380052640F1C0673
:1017E00023FDE1070CAF0F317D2D030661F3225A73
:1017F0007D5BE7EF5B295C217C3280F42E1CB60711
:101800001F5B0880041EF02F0F1405030347676851
:101810001D050F8EF8920D1D32091D300D1D150D81
:10182000116F2005FE004F07805EFD5D031C0E9FBB
:10183000FF1730071F330F1C0052F1FD4B0F200420
:10184000F1030E82260B741E1A39072D3A071D3B31
:10185000072C0559878FDFF2035D740A2D5F044D55
:10186000590311822E1BC207335C38FE3E5B1F05F5
:101870001EC75D031D58042D59063D85051D4D11DC
:101880001E0352062C05FF041F0FA1082C08F800A8
:101890004F047FFF0C200819811C04FF02E74A0D4A
:1018A0003C0812871F070F370E4E061EE7060A1E5A
:1018B000FE31071404FB870E0F3C05FEFF27F807D7
:1018C0000415898C0520005603C5072D2A084DAB49
:1018D000113E6167112A1BBF1004005CFE8A197E4D
:1018E0002DA7051D0D071C041E0061E90912067ACB
:1018F0002E9F640D3C0503A3004EF6035DB909203D
:101900000AF0000807FF027F8FC1CA1C040FF08194
:101910004407280402004D1F4DE30521E92C0480F3
:10192000FF01390B1C0D01030E1C08005401E1FDE1
:10193000FF2571102D810E1D0C043EFE3A073D68F7
:10194000042C05E1F3FF1F3A081E5B5E081C04C06F
:101950000059960B11011E3FD4111E1EF50C120BDF
:10196000FE1DDB051DAA0B2F0ECF46081FFB82C0F4
:101970000A1C041FFF02B6081EE0FA0D1D97061F81
:10198000F0C0A80D7E484A0C1C0600120187F8D84A
:101990000C4C07F48000447CFE40096D670C51013B
:1019A0001C06FF1987FF03F3103D93039EE0BD0B58
:1019B0002D200359004DEA122D870921D4361F2FFF
:1019C0001C065EF0FDFF21A30348055B1FFF2536C3
:1019D0001DC20716EF071D64091EC8E50F1BFEFF99
:1019E0000612029D1E07A813240A01039FFF0FFD84
:1019F000FBE64D541D1A071E0729053D620C121403
:101A0000B229F01F0007D7102D3F0B4FE018D1046B
:101A1000AD08107D08053DB7111E1CE20F26603E83
:101A20004E5AAC081C06FF1F1F005FCC051F037F2A
:101A3000570A1D71101F141F0B0A1D34033E7F4DE2
:101A4000112C060701E7FF111A041D281123101C91
:101A50008C1E0B45064F00708B037D430C3404F045
:101A6000006BFF1C0511006B3FE308200512006CA2
:101A70000606136E31D11C040787C77B0A1C0500BC
:101A80006F0FFD620F1F006F2D091C04006D038C8A
:101A9000103E5640101D690A1D2E112D9D074DD375
:101AA0000E81015D2C0E2D94092E0898101657B941
:101AB0002C047FFF255E113E10D9031D98081D815F
:101AC000142DAA0D3725FEFE1E08330D1D3F0F2EC7
:101AD000441B0B121DCF1DA80F5D1B0C15561C04BB
:101AE00009004881032D63052207E91F1F1F981372
:101AF0001203D02E07B3091D4E081D9B041EF1676B
:101B00000C2E6B0C0C1E128A111DBE0B4F00496A65
:101B100008110121FA32FF027EFB280B3DD9081C77
:101B200004007078270D3C04006F01F909296C113D
:101B3000061130512E1EF578074D07048DB4031F92
:101B40006D1C83112F006E1004399C118DA1614E04
:101B500074E7048D900F2D530E1E12650E1C056B3D
:101B600001672F680C2E0B3C0D5F00741315219339
:101B70003EF6D20B6DA20C5D56151A6BB113137E97
:101B80003541F51E082E1540040F1B303811C73E95
:101B9000FA93091D230D2E73750F3E0D51041C057C
:101BA000E0006A3F5A0F600407006CF721D2219DC4
:101BB000213256EEF45D240C31FD1F6C3CCD0E1C21
:101BC00007E0006818180B16113C07107F1F0F0064
:101BD0006D8C0A31011D5515216B8EF3FE0D1D68AC
:101BE0000B2D3E143170350C2E6719071F137F5CC7
:101BF0000F1E6A9C052DAB0325B82512113E1E064B
:101C0000EC0325451E7C88104A6FBF6D120D1DBD6B
:101C1000035D5D0E2F0069F90C3E68B8071D3D039A
:101C2000220AE894040300731F36771F7D6D12317A
:101C3000B92E6B36051E143C0F1E6761112F157FE0
:101C40001F0E4D8303520F01491D25908E73F30320
:101C500021C13E6E140D4D450A380767FF187F00FD
:101C6000685721B92D35034D4803461F33313D21B7
:101C7000F65E713415360D671D1410600510FF18DF
:101C8000833A41B53DE8034004010071B81ECC4AD7
:101C900005D1011005FF2A002BA421013D0D174A93
:101CA00020021C060101F1F9F9870D1E1D65161DA4
:101CB00049056101D20F011D4E1247004D082D1A32
:101CC000143D13071DD70B2D67171C0480001484C7
:101CD000121F004DC30E330016CD3F004F14081DD8
:101CE000800541CC6C0600760100D0F205CEFE9C4A
:101CF0000E2D01111F3E1E760A1F0602B407472251
:101D0000FE63BC046000080F051D35172C063FFF5D
:101D10002900088B113DA110360A951D5B181A2267
:101D2000FE1E0D7D171E0D9C073E7FC9052D441319
:101D30001DF511111C1C0621C0001703210B1E2BC1
:101D4000D7073DCD0B1D830C3D630C32F8153E2C9F
:101D5000EF0C1D4A0E5E22A718019EA24F3330835E
:101D60000D640C2902031313133333131303D13EF1
:101D7000417E053D3E0428041F00348B1D480C1F86
:101D8000F3808619A32880013404004604B8A1E337
:101D90005DD11155DC4D9B131E06DD095611006DFA
:101DA00067154D0D0C15393227351D16195E27E0C4
:101DB000193C0F55002C089BDB9F9FFF4F002BF811
:101DC000787D03395B21F11A467713000E092C0A3E
:101DD000440034040408080005CB081E1FF50B4D11
:101DE000AB0361B6610151121C053FBFFF0D5F19C6
:101DF000A1011C06002501040F47101C0CBFDFFFCA
:101E000004007D01093B004341097EF024122D9717
:101E1000192E25430E8C07818182CE002B74113D33
:101E200041126D71111D960885DB6EFCD70351437D
:101E30001C042060643C0D1E09391A1DCF031C09C7
:101E4000060C0C0E1F9F3FBFF60B1C08390035080F
:101E50001800025F0D2D87099014DFBFBFFF35000A
:101E6000381871636304000C07FF36004BBB2D84E8
:101E70000451081DA20C10152B08001E081818107C
:101E8000303070606464C4CC8C0C0E1E015C053E66
:101E90003E3E1E1E053D2E04D1012D34061DFF03BE
:101EA000322CD62F0021911A4DB715696D35CC2CE7
:101EB0000644FF16FBF2511A2E2ED40F1806050207
:101EC000438383F6360B593D81092D52152E1E1E74
:101ED0000E2C09C2C2868E0E1C3D7D831A4D661AD9
:101EE0003C042BFF0535062E09D40A1E0A46193E6E
:101EF0001719102C09024040C6C466EEEF98091568
:101F00000811264D880E5D070F3E04F5071D0507D5
:101F10001E02AC0A2E18020C1F01BF68171D6D159A
:101F200051C711051C048FFF027C034E127A091958
:101F30004B1E046D041C0908800013010014E013FB
:101F40000F1E2BF5041E3FA2092E04CD0F2DCD052B
:101F50002C05023E1C00D61A2005E0C0C181391DA7
:101F6000060621992E0457194E010D051D6C1C3EC5
:101F700029C21B1E2BE30F3E0BBF041C050B0100E7
:101F800063E4193DA60F3DB106700558FF29FE74A4
:101F900048044EFF23562D1F053E07CA081FF04078
:101FA000451C1C08208101000A41E7CF062C051FB3
:101FB000001C209D038FFEFCFA0C3DC40534090F64
:101FC0001F3320001B0B3F243E2E9D0A1C04800063
:101FD0001F26113C042BFF30D21A2E049A0B1D59D8
:101FE000102E02EC1A2C043DFF2B9E171D630F3D93
:101FF000C1084205AF2F003EB919197A15A51E3345
:1020000075051D8C046F20FE52101D541B2D7B0482
:102010004EFC730A1E4C26141D4D085D31033D1AFB
:1020200003157311B12D19142C0443FF21290C1D24
:10203000BF101F181C69131D68062244E64DEF1CD3
:102040002E0334081D700A2C0447FF30331A5C0835
:102050004DFF337E100006B40B1D3105223C843D3C
:10206000E40C2F35C0B6032E1F53103D801C322CBC
:10207000CE3E29980921901E4F671C598A1C050FD6
:102080001F3C78511C1C054DFF22C3CA101AC12EDB
:102090003D010513F2207A6F24FEFD15217E2D22CD
:1020A000162E027F1B2C0546FF2FF0D503100600CD
:1020B00049FF30E04C3E16830E880480000FDB2D74
:1020C000730611A8561D9E3F2F80190542259027A3
:1020D0000028D91C0CFF2BFEFC7C4C0C0050FF256B
:1020E000DC151607E23E0A6C132E479E093D6A0D69
:1020F0001C058000070455111C04011F040E1E1E40
:102100003036171E056C0B13FF33AC1E16871B2EC3
:102110000DF505157F2D6B091A019B5E01AE092196
:102120005B6F0FDF550370080E0C181000070E963A
:102130007F001CE30A2519112B4D0A1645A915BE6F
:102140005C042D030390081D910325C635C76D91CE
:10215000122C0753FF277F3F17E71C12080E1E495A
:102160001614214610050B1F3F189A6E2B3F1A1CA0
:102170000570001DC0420D1D081F1E3232081E1EB4
:102180000A15295A1D7F1EEE1FFB032DFD131D6E20
:10219000181E0D25031E14C608511E3D25136E0181
:1021A000E1051D541D6E1517073F81837408100546
:1021B0008F9F9F9F332E13B01D6E2D480A4D0B0924
:1021C0001D2A052E2B621C7DC61A3D2D032D9E1F38
:1021D0002628755A25B01F0640561E164C924120DF
:1021E0003D0A041F060F721E1B1F08F82C052FFC4A
:1021F000001B340F1C04380C0C040F2D090324049D
:10220000C00006301E1357103E31E21F631B8FC4FF
:102210001DD6153D8409358915C63C058181830786
:10222000AA0A1D9B0C120E2A531AF9644F001AEECB
:10223000051C043E7E7C23171DA11611902E241729
:10224000152C0A7878684080001C012391092A0720
:10225000292FE3C1E00420063E7F7F0010092D8670
:10226000143C0701820203C7CF6B0428052C00141D
:10227000061919381C0406060702071D5A054004F2
:102280000E1C1F1C1F7830B1032D21162D39041E82
:10229000008A1A2DC0062D30091E0155055FF8FC75
:1022A0006004100400191C015DAE201C0422CF8FB5
:1022B000E60E1EDF8F1755A13D01092DBF162E1A00
:1022C000C9031D460352F1C21C0A0C0F0F1E1E1C2F
:1022D0003C3C7DC6161C052BFF26CFE61E2C0806AF
:1022E0000C7878001006BA0E1DA50C19D72D7F1397
:1022F00019BB1C04031E3EE30811011E039B136E51
:102300002B210661011D140514071F0783E0F078D7
:10231000E16C1004000E1011212103031333232755
:102320002707450B1DB2056E01B0063DE10B7D246C
:102330001C90050360F0E1011DEE101E406D1E1E95
:1023400053E31D1DE0133D1716A1011D0A143DC0E6
:10235000033D381D8FF8FCD1192D0A174DAF211EF2
:1023600023151F1ECF05102E9FDF1B6D97071D5ACB
:102370000E3E1EA8086D46041D2D0A2C050E0E0CDF
:102380001C82141D13081C12F9F0F0810F0E0007B7
:1023900030F0E06020303030F193156D8C0631E282
:1023A00019D11C070FC4E0F87E3C320739298C0490
:1023B00027672FFC074D2F072DAD035E0B22114D14
:1023C00077105DD60D2005E1E1F9F1011DAF176C25
:1023D00004818181CC086E069E151D5C061C052BB0
:1023E000FF34FD0A141EF8E2188E09BC094DB91D10
:1023F0007EFEA70819F21D5B083DB9045DA2074ED9
:102400002289042C05F8303040AC06340506060E4F
:102410000CEB290D2C0728FEFE6001814115130CE1
:102420000C1A473E7EAC25EC301213F1F3F3F3C3E4
:10243000C3E3E3C3C3C787872767E7012C05C7C189
:102440000406700F119B2C0580818382FB063DAD35
:10245000063E02DA051D74162D4E032E32DD052EC2
:10246000F961079D5F1E3D880A9208A82D372372E7
:1024700027AA28047FFF24611C05FEFC98986405A8
:1024800011A62D8A102DC006CA17481D6B221C07E5
:102490007F3F8CE07838A0051C040300023A0466F4
:1024A0002F6529C02E11AA0371774D40115D0209D5
:1024B0001DFC0E7DE7095D83101DED20D20F922DCE
:1024C000CD231628402D8E0429B721961E27041BE4
:1024D000300B306000030282860F9FDF961C051AC6
:1024E000CFCFDF94041A9F3811072C08BFBF9F2756
:1024F000301C043B0419FF9D5D0C2DCF102D2403CF
:102500001D79172D6A0F1D69131DA0093DA1086DC6
:102510009C092D1718021112841DC203527F854396
:10252000FF25841ECC58181C050302860625122E92
:102530002167041007EFCFCFCF8FCF84235FDF8CCD
:102540002C058F03180EB4244F020B940F5D6F05FA
:102550001DB10E41811C050BFCFCFDC41D7D190A3B
:102560001D6C17021313794E1FDF0951FD2004283B
:10257000FEEC7838058382061F4B20041AEFEF79B2
:10258000117B10048F4FDF011805C7110C06579CF3
:1025900004808303E60551762E2F7F187E06A41B48
:1025A0000311FF14703C05263F1F5F84035ABF04CC
:1025B000180427FEF401300601410327EF712B199F
:1025C000F7781006E7C7C78FAF7B2C08EFCFE781FE
:1025D0008C8782C9091F80852A031DED1731012DC3
:1025E0005F1E215F2E2F7D213D401B0311FF166EC4
:1025F0003E257D0E25B62C04BFFF2619032D5F1343
:102600001FE008620420066123E7FF236F4804F3FC
:10261000F3F7EB1AC7F31C07EFE7E38487C3DD1179
:10262000600903C0C0C1838783836E329F6E3E2ED4
:10263000EB212D620D0211176D2E242A0BD16E1283
:10264000F66D50040461216D1E186403516D32A7AC
:102650006E2C05C18483C1D5171DFA061D57065D72
:10266000FD0C1DB91A92156D3D7804F16C45B73516
:1026700048316C1D69061C05FCE4C0104806500476
:10268000E163276E154A47C7C7BE25C35006C781F9
:102690008C86806D5E0190103549316E4D7F173DFF
:1026A000301B0614174A2D080729A02D250D1C08DC
:1026B00024FCFCD898302000034006028607CFDFB8
:1026C000DE11644E9F2603310738058F12180CA2C5
:1026D00035B08D240331702E22230319A01D7D1ED9
:1026E00079A54D121A0E1115A30331F32C0CFBF82A
:1026F000B033C1C00002040C0D381431739C05BF07
:10270000BFBF3F7B061C041F0C30491E1E02622700
:102710001E2F751F7D820D3A7F1D1E1E410C1EFD52
:102720007B232D81165EF462237D0D1D1D051F0187
:102730001679700C25F2F02163C100030D191B7787
:10274000CDA5041C063F0C603010610811793E2EA7
:102750005A077DA10421784E1C5F107D78173181C6
:102760009C04E0F0F48A0E2DF6190113F916267078
:102770002A2D4B1806FDF89811619818040C0D1DB0
:102780005E3D29031D0504923F01231F24FC1D3BD0
:102790000F3D92039DE6064E14E8091DEB263E050B
:1027A0001F101D42069D2E0E21FC0E14FCAB032DA6
:1027B00094042DAF055D94041DAE0537CC88F41F3D
:1027C000868652143D1E045D94043F9F1F1F054CD6
:1027D000059F87101C950415F17D950425802D9586
:1027E000041E2395042DBE148E03A1202D261D0D3D
:1027F0001396041FBF3FDD14463F442DA7031C045E
:1028000029E6E4E90A3C06034143068F0E052A1B2C
:10281000DC23E7E77F3DA1043C05C38C86833D1E96
:102820002D470349DA3D24042DF3045E3024040AC5
:1028300014FC5C1F289F55062D9204439FBFD52F83
:102840002AF222041D92041E33671E1DF10E6FFF33
:102850001BB7034D25041C05E7E3C18624042D5C4A
:102860000E2DCA215E8326043C04078F8FDB054EA4
:1028700031B01F0913C81A2E973D6A151C060707A9
:10288000676F4F681D319F1EFA15201F0538461EC1
:102890003F033778092E2192044DB4033F8F8F7D7B
:1028A000051C0483090C372A2D78051F80806F1DB5
:1028B0005D05052D2D042DAB151E05922A1E392D03
:1028C000085DDF15455A3D8C180D114B032E34A3BE
:1028D0000A4DED152C0427676F581D1E2BB2291DBC
:1028E000A9043C08000840C07078782307CE2985E9
:1028F000071C0D7F3F0E061008000708181B1BA3BE
:10290000118DE00F3DE70C4D56116EFA7C114D0410
:10291000227C04C080E49A255D1F150E11C0D903E6
:102920005F367F930919D52DC1051C0733FBFBF9D1
:10293000F830531111DB3E93B1063C0638F07000BD
:102940000480119E3D58114E3F090C1F2EF9470976
:102950002C08F3E3E3FBF3E3C1232A1E0235225DD7
:1029600098141DC10C3EE1B90F3F010F771911E515
:10297000297A1D52052DB5081C07030005F8FF4EE6
:10298000EC0B964F1B1E3324052DB0041D96293FDA
:102990005FDF50061F35FB9D085C050C060623FF14
:1029A000101E1055131E08171312F370216E217399
:1029B0003D9C061D0F1E3FC0DF0F0C2F039FE12A19
:1029C0003D04151D0F281A0EC82DBB142D4E251DB4
:1029D000270B2DA50D87000CBE2D18051DE7221E07
:1029E00034AB0C5E345B2C4E38AB09200633EFE77A
:1029F000C301471DC8292D6D061E3537291D8C09B9
:102A00005F031BD104818A12F3851F0180AA1E5E19
:102A1000039B1E37C0CEC45303DF891E0FE3071D7F
:102A2000CC271E1FB403523383B20D831D48083DCB
:102A3000770E7633953DDB222DDB091C04F7F3F38B
:102A400021101DB31842F7861E7832115C04030171
:102A500009410C45101C061FFF28FDF92F0B1EC055
:102A6000E2242EF044173FC0801014211D4204843C
:102A70001E07E124450E1185021232851607081241
:102A8000F01B81863E357F19250C1C0532F3F97148
:102A900023083C0483C3F30C073C05337F3E1885B1
:102AA000114F01067E0852BF881D9B063DFC101D7C
:102AB000FD221D772D2D42202D590592FB891D0BDE
:102AC0002B1D8927221F8B1A1F13618A1E09BE1115
:102AD000F5951E32751162328C2D8B04318C1A31B2
:102AE000A012208D3004C1E37B8D1E3112161D3AD9
:102AF000287D4C072D920A120762118B3DC31F1DC2
:102B0000A9112D890A4D9C0C311E3513100504079F
:102B100007CF88563F13363198B00507000903895F
:102B2000159C1DAC08111E224F22618A1DCD192152
:102B3000895008F3F979000583C3881405327F3F73
:102B40001C151DE60E5DFA042D880A3607763E2513
:102B5000AA1125151D1F115D1126B2F98B1E0F5BE1
:102B60002B5515118D52308DF20A8D1D112D20051A
:102B700030004FFE2255A31D450D318D2C04E7F387
:102B8000E34C131D7A082DD3043804337C30289E7F
:102B90000D140B1F087F33151B25FD281EF0BC14D8
:102BA00019282D192A2DDA1662F78B1DF5162D44DA
:102BB000221DBC252D3C281D7C1D70043FFF2F8B42
:102BC000111CF601A31E305E119E30C1034C06306D
:102BD000DFCFC783C1031D1C1E318A1DCA114C04DF
:102BE00006033305082D09072F083FFF281C05247D
:102BF000F3F3F172121E01C01D3DC1033D370336D0
:102C0000EF3451891DF41D2ECF820F2D93291DCB3A
:102C100006B18AD5A3218A1E2F212FC22F8A1ECF4B
:102C2000F4111F0103FD24518A1D4A041C04080CE1
:102C300007030D4E3F0209118A15121E24BA046EB5
:102C4000C14A045D49043D2E07400404EF076B357B
:102C5000111187159D1DC82D1E124C043E02800ABD
:102C60004D4F1A01119015A610042E005204C519DB
:102C70002D2C0C1D4F043E9FF50F2E32D9042C0530
:102C80000607033B3E0E651A1E1F2429151A3EE156
:102C9000DA043D22211D4D0452C48E72038E563F2C
:102CA000A02DF4161D6B1F1D4D052D8423418AF2A6
:102CB000018B1E2D55127A2D303D50075F2FEFDD11
:102CC000042E07D21F3D420E49303E1F8C154D2E5B
:102CD00008518F2D5D112D0E1D25AD3DCB2A4EE0E7
:102CE000B3065305036F1D331135192DD9101E1F5F
:102CF0003B11218E32038EE18F1D731012042122AD
:102D000054254DF0053DE8042D05101E2FE8041A4A
:102D100061C11E83E80421912C05317F3C10ED0E2A
:102D20005E04DE0C35202FBF1F1C313F22FD4825DD
:102D30004EF0B5103D2B2442F7923DA91329A62D44
:102D4000BE1F39BF330EBF95622B951F0B039C0A24
:102D50002D440FC93E12FC2291963D6C0431961C05
:102D600004FBF9F96C04300581C1F37B962E30E445
:102D7000039F0702FF0C1609864E3FF4152DE00352
:102D80005EF8E0035DD1092A058235251DFB113E61
:102D90000F5E2C1DDE1D2E9F391B71901D090792A1
:102DA000019149CE20042B0055B5318F3E32FB12E4
:102DB0001D4F274D2E121E3057324C083C0007C0C5
:102DC000F0787CB1071E7C8D055E098B081DD00450
:102DD0004E0D77043C04FF28F10B154F02E09906D5
:102DE00025BF2D13203FE5EF17132DAF101E1BD06D
:102DF0000F2F0333510C7E2E20071EFFEB14230CE4
:102E0000FD701DBB092E87480A1D831AD34001019E
:102E10001D0D1A15CA1E2988337F3B7F4F033E3391
:102E2000C41E1D64333D32132D190D3D77141C044F
:102E3000337E3E9F182C040C000953282EFB4718A4
:102E40003DB7141D04161D050B1D32302F06029BC5
:102E5000178A02262A0BA21E344A2D1E2702331D72
:102E6000A6333D83172405F8D00003601DAC135D25
:102E700035281D5D182E40D1084E3CEB0F1D9727BD
:102E80002D2E171D091311D01E5249341DDC131E9F
:102E90001F8E181E08B4262D06112C0836EFC78386
:102EA0008380C1ED0D2E15DC113E31731F4D71165F
:102EB0001D4F1F4C0406000EE31E2EFC410A1DCAC6
:102EC000101DE22F7DA12F4C06E0000C181F821D63
:102ED0001DA2341F4218A4176E38C4091E01A51B79
:102EE0001E39BB181E11161712328D4D5E231C049D
:102EF0000005C0C3311C0403FEC0C4341F3CE7F905
:102F0000161DA4347D371D1DD9212D05171DDA345A
:102F10003E2983155D4B11560EE85D821B113A2F39
:102F2000248FFB113C08E0400001184860B9281DBF
:102F30007D0D4D53185D02172E3E3A1B1C0578007F
:102F40000308E0295D7B1A4D9E2B5D95194D6C178A
:102F50001DCC171C042EFF52DC2120042CFF54E052
:102F60003F428F4A1F3D58261D212C3C042BFF4019
:102F7000960F9DE9203DCA2F8DC30F3D4F0D4DA3E8
:102F8000103E16AB20217C3E3190331C070301819B
:102F9000000140230A2E02E32E3DF4162DAA1B5EEB
:102FA00003A8204DAA172C0401003A30331D9E17A8
:102FB0001EEF80033C040202FB48238EF860218D43
:102FC0005B215D0C0E2D47302D661D1EE747087FE7
:102FD000E1EF31042DEA0F4E4748224D8A216EFE63
:102FE0008A13354B5DA0191D212B51A61D32364E7B
:102FF00021EF1925492D6C063D4D3031A44DF508C2
:103000004E1FED203D1B201C06010034FF21A307AD
:103010002C05E0C08E047C042EE4B3285D2B1861DF
:10302000016EC067224D4D293D51111DA20A0C04AD
:1030300011BFFF286E0C4E29D8215DB9203D4017E5
:1030400015412D9520322B982DEF212203EA5F03A5
:10305000C07B36420798853B19552F20F9DA092C99
:1030600007C0803EFCCC09750943040798C1994DFF
:10307000663065B91E2ABC284F041FBB0D1DB81C45
:103080004DF41DDE233011421CFB3D8710AE83380A
:10309000066D53138D841C2DCA202E0808212D4F38
:1030A0000F1EFA641B1C0401C1C0071D2D982D5F63
:1030B000E4E0E51D6D3F373E0F1B37500431FF3E06
:1030C000149EE09E2455341A24433DE5223E2ACB2B
:1030D000101DB3191E046D0825434F27F2CA303E58
:1030E000F92F12021055B2254F3E7F180A3E1C30B0
:1030F000271D29293DA7213D30051DEE1F2D7E05E9
:10310000BAFE316D1F122F1F7FD1203D121B3E3F93
:10311000ED053C041AE783FA154D88240E152FF7A8
:10312000103C051C8F87877D1E1DDF0A4E2F781BE4
:103130002D2B1B3C040347E7A3053E243B0501124E
:10314000704D0B192D6B0E3E3722123F2087431511
:103150008D552E11152DF6133E1F4D214C042F00B9
:1031600030360359C3B00544003D01111D141E4DF6
:103170004F1C41221D98053E598A056DCB031DB792
:103180002B4D56221D482E5E795A243E02FE203CCD
:1031900006602000770134247D31242DF4224E0373
:1031A000181D3C0701006F07076FE1036E1F5424D1
:1031B0003E7BE00D41BF8DE2216D72242D48244EEF
:1031C0007FE3233D6E309F63F815221E1226312EB9
:1031D0003FA8215D91036D9A15215F3D5C2D4DEF58
:1031E000235A74B01C04C00072B5382D1B363D2F15
:1031F00026936D0F301D691D5D26045DEA224DE2A8
:10320000351E0B1A1A3F0072FF162DD71D1D4429BB
:103210003C04030E0EDD223E64F51D6EE0EF0E3120
:10322000354E64E72C2E06F0058D4F1F2D47223CAE
:103230000802005E4060607322232D1F1C7F76020F
:1032400063236D4F034D0B361EE03E261D75345E25
:1032500006CE033DC10D2E693E2F1E065F311C06B2
:1032600073203CFF02B9102C04050075C5061DAC87
:10327000171D2C062DD1246C04F930700A171F007D
:103280007598392C0AFF06FB7810006F1E1E4B2420
:103290001C08FF0727070075F0E02511051C040A2C
:1032A000007488071D16041F0210030A1C0A070079
:1032B000F9800077081C3E87352C043C00760B38DB
:1032C0001C04FEFECCB2231DC0372D521E21FB1E56
:1032D00084CB371F0075DA181C04C00073C50A1FA1
:1032E0007F3F76231F637FDA3950040200F1B82D47
:1032F0008E051408007607FF09CF86631EFC88241C
:103300001D61282EF3DB3231371E72EE091C09FDD8
:10331000FF0AC00074FF0C74252D28241EDFCA107C
:103320001D2D246C053000F3480D2929411D9F30C7
:103330001E72CA0F2F09F3A2042D2F271E0B3A1657
:103340001C067F38006B3098321F0EF0B0252C0C15
:10335000FF0CC0007180FF0EC00070CC261D8E36A1
:103360003C04800076CE251DC8301C04740C7CAA59
:10337000281C0709FE0C0073C0C62A4DA11D1F6E34
:10338000E0EF061F7910F0302D7E271D7A261D36BE
:10339000151EFDFE291F006F763A40080FC0006D14
:1033A000E0FF12442D3A262F7558D22E1D892C1974
:1033B000361DC2123D2B051C07006D30FF0F73C474
:1033C000361240431F0F3185342C040307C3CF2727
:1033D0002DE7342F006DF9372D68251DB6343ED00A
:1033E0004F311C0972042C7C7EFF0B263E251D4D9F
:1033F000392D9E1D1D783511851DB7352F6A200288
:10340000301278871E01DD2D430DF8851F006F30C7
:1034100028637880C71C0473086C521C34050AFCAE
:103420003C080E4E0AE11D1DF6341D8C3610050FAA
:10343000006B38B71FFE08762711411F0100843941
:103440001D6D3B1E6F9F2F12E0433D043622A044AA
:103450001D5D2F1F0BFC401C4C0671C0FF0AF1E6DE
:1034600006140440006D511D062B1C06006EEEFF75
:103470000B671C1D91261D6A21154B1EC032371D7E
:103480006B271406FF12F8007D473F04DC25031D5F
:1034900021274C0572FF0BF9C0291E6E50194EE30F
:1034A000713722F73D1DDD123D26261F6AC0383BCD
:1034B00015941D503122E0C85EF834263280871CF6
:1034C000047202679E181004FA7020215F0BFBA99A
:1034D0001E2C066D86FF10E7B0371D852B1C040ED1
:1034E000182115041804FF0DF0751D7F3221431FAC
:1034F00011FE34264D261B2DD61A4F726289172DC8
:10350000AC356E671C281C04F1FF0CD50D2D5D3009
:103510002D2B324D87151C07FF11E781006C4C35B0
:103520003FE1817D27115F320E9915EB2EC0A8284F
:103530005E72C42725A62C050070067658341DB887
:103540001F1E18492C2D8A084D901C2DE92B16C0E2
:103550009B5DA2323C045A387EDB268E7FED1B1D1C
:10356000B4271D95031C06688040303CEE1E1EC724
:10357000D20926039C199F38066FE0FF10F811123C
:10358000F86D2D10323EA026293E10241B3DBA2D89
:103590002E18CA2D3DED312E0BAB0B230EE1655CD1
:1035A0000458C0F9D13112FE6E8C07153F1E04007D
:1035B0005509051F0AC7A62B2C0407FF0CFD162C66
:1035C000051E00690CF7261AF03C3680F61DCF2741
:1035D0001D843C2E1314373DDB085FF6F446222E83
:1035E0006D4A351C05FF0F2F0196281EC337041D99
:1035F0003A031DF51F2E5018247E1E9A166DDC0806
:103600005DC8091C05FF147E3EC6206E0F31189D53
:10361000BF242E033A2D1D8B0310056610183E8E15
:103620001C081107006DF0FF1147341DE63A261300
:10363000B03C04C0D0D8733211972DFF2B3DE83930
:103640002DC43A112C1C04DC005B3E156EC0B7394A
:103650005DAF251D3B2C1DC4371D26351E705E0633
:103660005D291E4D21081C0CF3FF15E381006983C1
:10367000FF16380D391D1F3D1F6780E3312DC7141C
:103680001D02383C048080D8E6293D51371E70C9A0
:103690003D1DA9373C0400690661091D2839258BA9
:1036A0001C0404FBFB32361E40F9313D5D341D35F0
:1036B000251D3F394F6008081F1C057FBFFF187B81
:1036C000331F6218651F1F1AF17A3D1D3E322D2FE0
:1036D000357C071F7F006B2060AF332F7260763B15
:1036E0002D41172F0067DC311D90321E13AD1416CB
:1036F0006C6B1C0A6CC0FF12F3006810386E341D2E
:1037000067371DFE3E1C04180065A52D2DB20A2D3D
:1037100026041D47042E79D6373D3F1A3D202E1E24
:103720006742251E186D1E1F12FEB5341D4B3A3D13
:103730008D3C1DD92A1D81342D2F3E2E18C33E1DD0
:10374000373E1DF3292F5F8EB4122DAF1F2F171F89
:103750009A3B2F007A33085EFC67342DE00513682E
:10376000104B1DAB2A114A126DF111FC2D8A3F1D21
:10377000262B1D2B365E5F0D2B1D023F1D022E2CAE
:103780000458F8FE84201D803B1C09F1FF19060037
:1037900055080E01244F0203D13A1E041B107C046D
:1037A0006AE0E05B272F72609C3B2DDC3A1DD32A38
:1037B0002405080C1E0E151F103903181E6B0C3241
:1037C0002E10A72C5D8D0A6DFA3915561E1851372B
:1037D0001FE07CAC104D3C242DB82A1DD90F2D962E
:1037E000344C04540100240F1C0808301C06CF7F01
:1037F0007F902B1C070F006AFF1407910461751D51
:1038000091031EB0802B2DEC251D6B331DAF3D2D7C
:103810005F091D163E2EC7ED3ECD632D9D1B2D2944
:103820007B1E50EA334DB30A1E01143BAE7F842742
:103830001C049FFF12D4102E5948232A0D9B1EF101
:10384000603E1C0530180CDE22371D6C3B2C06FF39
:1038500011C100752A035D1A352E5908222D47150E
:103860002FC8E8C5214DCE2F2E5227157C051C1CD4
:103870003EFC342B2D00182D60251DF0351C041244
:103880001F079F311DE92A3DA30C4E0582172C0608
:10389000FF13030058D7251C05010183E39D1C1F5E
:1038A000677E6D341DD03A1D202D2C04190063A9AC
:1038B000071DE63F1C057F0F005931152230712D81
:1038C000A11E5C04F8FCE496361E5A5430196A4D69
:1038D00027241F1C1C51224EFD27362F58E0AC0810
:1038E0004D7E0B1C0433FF141B302E58080E4D8CDC
:1038F000093DEC1A1DA53B1D813C1DC1403E17949E
:10390000383DA3381F038F113D1DDB0419F41D3909
:103910003C1EF88B284E6E4D0C2EECC8102D983D99
:103920003D142C1D0F403E12303B2E5726032DD147
:10393000372E05BD151DCD391C04EF0057453E1629
:10394000DF881C080780C0C1CFFF16D7362C048043
:10395000C0F1272E3D84281C041B0054A6175E01CD
:10396000F72D1D313A2DC52E1EE4F8301D8D401C5B
:1039700007181E0703081E48421D42395DEE0A164D
:1039800018674DFA3C1DF7413C041E005823161DD4
:10399000801F1C042100547A0D1E0A8D345E4ABD1E
:1039A000041D06251D91301E090C252D390B4DD007
:1039B0001A1E4A273C100407BF0F283C0421004C64
:1039C00019315E051E21212F1D6C321EC191135A23
:1039D00060F82D150A3DCF2D2F005B821011631C5E
:1039E000055570787C2E201D691F1C044B0FFF337A
:1039F000184E097B2E11B65C040044803A2E1FFF3E
:103A000003B10E1E0EA1321DDB0A1C061900450172
:103A1000018D2B2E0790242E0CE3311D29032E49F6
:103A2000493D3D5A304D300E2DF70B1E210A431EE5
:103A3000FBAF156E5D902F4E14D82D252C1D411017
:103A40003D1B0C3C052300520C17251DB30D1E4DCC
:103A5000B320117E1DCB351D7C1F4E44142D2DA788
:103A60001A1C0502F8000CE6413D85176246791ED6
:103A70000A8F3B2DC6031DF0423DFA2F3D52374DB4
:103A8000773D113E1E4D0F375E31ED035D850F4DC5
:103A9000191F5DA6271D0E341D853A22FCFE100756
:103AA000787878F87CFCFE2C0546041E7FE3411DE7
:103AB000AD271ECF922B5E42362F2D961D1D443A08
:103AC00043FF05811DB42A2DF70A1F07F7DA262CBC
:103AD000050AE0FF06B20511862E47392A357A4DD0
:103AE00057371EFC320D1E4D56061E31FA413D5B06
:103AF000371E1B4A425DBB2F1EF85D362E56191F1E
:103B00003D65201E4D5A411DEF412DED061E07F368
:103B1000363C0444207882352C060010FF06CFACDA
:103B20001D2C04150046ED0C2F07FB92251C050CDF
:103B3000C0FF072D443E167C3045EA51F73D040591
:103B40001E20BD3411BD2E2E24082DDC054EC0DFF5
:103B5000052DCE2E2C06110049C080F2442E14DB18
:103B6000101DED241A18381D993D2E02A1454E1640
:103B700050272DD6172E0F762B4D80332D5A291F07
:103B8000C0004A052C040E00437A041D12341C06A2
:103B90008F001DFF0983331D7D252E48D53E2D84C2
:103BA000334D43291DBA253D393C1D053A111D3EB3
:103BB0004EA0277E7F91345D7321000A0016001607
:083BC0001A00010000000000E2
:0400000508000131BD
:00000001FF
