:020000040800F2
:10000000F00D002045010008D11A000891100008E9
:10001000CD1A0008970B0008FF3000080000000010
:100020000000000000000000000000006D1F00083C
:10003000E10D000800000000591B000881200008A5
:100040005F0100085F0100085F0100085F01000810
:100050005F0100085F0100085F0100085F01000800
:100060005F0100085F0100085F0100085F010008F0
:100070005F0100085F0100085F0100085F010008E0
:100080005F0100085F0100085F0100085F010008D0
:100090005F0100085F0100085F0100085F010008C0
:1000A0005F0100085F0100085F0100085F010008B0
:1000B0005F0100085F010008E52000085F010008FB
:1000C0005F0100085F0100085F0100085F01000890
:1000D0005F010008E52C00086D2D00085F01000895
:1000E0005F0100085F0100085F0100085F01000870
:1000F0005F0100085F0100085F0100085F01000860
:100100005F0100085F0100085F0100085F0100084F
:100110005F0100085F0100085F0100085F0100083F
:100120005F0100085F0100085F0100085F0100082F
:10013000DFF80CD000F07AFC00480047296800087E
:10014000F00D00200648804706480047FEE7FEE71E
:10015000FEE7FEE7FEE7FEE7FEE7FEE7FEE7FEE777
:10016000852000083101000830B505462A460B46B7
:1001700012F8010B13F8014B08B1A042F8D01CB1E2
:10018000002802D06D1CF1E7284630BD421C10F853
:10019000011B0029FBD1801A7047F0B480EA0102EC
:1001A000D40F4200B2EB410F02D20246084611467C
:1001B0004A0042D0C30DDDB2C1F3C752AD1A202DA3
:1001C00035DAC1F3160141F4000204B15242C5F11F
:1001D000200602FA06F12A411044B3EBD05F23D087
:1001E000C4B1012DA0EBC35009DCF0BC4FF00042BC
:1001F00002EAC352DBB200F5000000F09BB94000F8
:1002000000F1807000EBC350A0F1807040EAD17023
:10021000490009E0490841EAC071A0EBC35000F56C
:100220000000400800EBC350F0BC00F07AB9614216
:10023000012202EB4101001BF6E7F0BC704781F0A0
:100240000041AAE780F00040A7E780EA010210B56C
:1002500002F00043400022D04A001FD0010E01EB03
:100260001261C0F35600C2F3560240F4000042F49B
:100270000002A0FB022000047F39140400D0401CBF
:1002800050EA124001D44000491EC2B20C0604EBF1
:10029000D010401C4008802A02D003E0002010BD8E
:1002A00020F00100002900DA0020184310BD30B40E
:1002B00080EA010202F0004530F0004221F00040E7
:1002C00013D090B1C30DD40DC2F31601C0F31600C4
:1002D000E41A41F4000140F400027D34914201D35C
:1002E000641C00E04900002C02DA30BC002070479A
:1002F0004FF400000023914201D3891A03434008C0
:100300004FEA4101F7D151B1914202D14FF0004182
:1003100005E002D24FF0010101E06FF0010103EBB3
:10032000C450284430BC00F0FCB8C10F80EAE07033
:100330000844CA079623002100F0FCB89623002247
:10034000114600F0F7B80EB540F23341029100219A
:10035000CDE900110A460B4600F029F903B000BDB3
:1003600000F0004220F00040C10DC0F3160040F440
:1003700000007F2901DA00207047962903DCC1F1D3
:100380009601C84001E096398840002AF4D04042E6
:10039000704720F00040C10DC0F3160040F400008B
:1003A0007F2901DA00207047962903DCC1F196010C
:1003B000C8407047963988407047C1F30A5210B55B
:1003C000C1F3130140F2FF3341F480119A4201DA84
:1003D000002010BD40F233439A42A2F2334203DCC4
:1003E000524200F08EF810BD904010BD00F0004267
:1003F00030F000400AD0C10D01F56071C0F3160065
:1004000042EA0151C20840071143704700200146EB
:100410007047000030B5041E71F1000404DB4FF09A
:100420000044404264EB0101141E73F1000405DB3B
:100430001C464FF00043524263EB04038B4208BF5B
:10044000824230BD30B5041E71F1000404DB4FF070
:100450000044404264EB0101141E73F1000405DB0B
:100460001C464FF00043524263EB0403994208BF1D
:10047000904230BD30B50B460146002020220124B9
:1004800009E021FA02F59D4205D303FA02F5491B62
:1004900004FA02F52844151EA2F10102F1DC30BD78
:1004A0002DE9F05F0546002092469B4688460646A9
:1004B000814640241BE0284641464746224600F03C
:1004C00020F853465A46C01A914110D31146184697
:1004D000224600F0BDFA2D1A67EB01084F4622466E
:1004E0000120002100F0B4FA17EB00094E41201E54
:1004F000A4F10104DFDC484631462A464346BDE804
:10050000F09F202A04DB203A21FA02F000217047F4
:1005100021FA02F3D040C2F120029140084319466B
:1005200070470029A8BF7047401C490008BF20F051
:100530000100704710B4B0FA80FC00FA0CF050EAE9
:10054000010404BF10BC704749B1CCF1200421FA6A
:1005500004F411FA0CF118BF012121430843A3EB65
:100560000C01CB1D4FEA00614FEA102042BF002072
:1005700010BC704700EBC35010440029A4BF10BC4E
:100580007047401C490008BF20F0010010BC7047B4
:1005900010B5141E73F1000408DA401C41F100018B
:1005A00092185B411A4301D120F0010010BD2DE9E2
:1005B000F04D92469B4611B1B1FA81F202E0B0FAD9
:1005C00080F22032904600F043FA04460F4640EA9B
:1005D0000A0041EA0B0153465A46084313D011461C
:1005E00053EA010019D0C8F140025046FFF789FFD5
:1005F00005460E4650465946424600F029FA084341
:1006000005D0012004E020463946BDE8F08D0020E9
:10061000054346EAE0762C4337430A986305E40A2B
:10062000A0EB08000022FD0A44EA47540A3002D534
:1006300000200146E9E7010510196941DDE9084597
:1006400000196941BDE8F04DA2E72DE9FE4F804653
:1006500081EA0300C00F0C46009021F0004123F016
:100660000045B8EB0200A94105D24046214690461C
:100670001C460B46024623F00040104347D0270D8E
:10068000C7F30A00C3F30A510290401A01904028B0
:100690006BDAC3F3130040F4801B0098924620B13C
:1006A0000023D2EB030A63EB0B0B01985946C0F110
:1006B0004002504600F0CCF906460D4650465946D9
:1006C000019A00F0D4F910EB08006141002487EA98
:1006D000115284EAE7731A4340D0009A62B3019A38
:1006E000012A4FEA075215DC001B61EB02014FF0B3
:1006F000004202EA0752CDE90042001C41F5801198
:1007000032462B46FFF753FF03B0BDE8F08F40465B
:100710002146F9E7001B61EB0201001C41F5801343
:1007200000185B412018A2F5001747EB030140EACF
:10073000D570B6196D4111E06D084FEA360645EAED
:10074000C0754FEA0752001B61EB0201001C41F526
:10075000801149084FEA30000019514132462B46BA
:1007600003B0BDE8F04FFFF713BF0098012240002F
:100770000023D0EB020263EBE073009821464FEABE
:10078000E074B8EB000061EB0401E9E783F000439B
:100790005BE781F0004158E72DE9FE4F81EA030451
:1007A00004F0004421F0004100944FF0000B23F0CE
:1007B000004350EA01045ED052EA03045BD0C3F365
:1007C0000A54C1F30A552C44A4F2F3340194A0FB5B
:1007D0000254C1F3130141F48011C3F3130343F432
:1007E000801301FB024400FB034E840A970A44EA8B
:1007F000815447EA8357A4FB076802958D0A05FBDD
:1008000007854FEA932C04FB0C542705029D4FEA01
:10081000065847EA1637B5EB08056EEB070C870E4E
:10082000920E47EA811742EA8312A7FB0201B6EB58
:100830000B0164EB00042B0D43EA0C335E1844EB10
:100840001C50DA465146E7FB0201C5F313044FEA98
:100850000B3343EA14534FEA0432019C43EA060384
:10086000A4F10C040294009CCDE900B4FFF79FFEB4
:1008700003B0BDE8F08F00200146F9E72DE9F04D07
:1008800081EA030404F0004B21F0004514464FF0C8
:10089000000A23F0004150EA050220D054EA010288
:1008A0001DD0C5F30A570246C5F31303C1F3130065
:1008B000C1F30A5640F4801543F48013A7EB0608F1
:1008C000101BD64608F2FD3873EB050002D308F181
:1008D000010801E092185B41B8F1000F03DA002033
:1008E0000146BDE8F08D00204FF480110646844695
:1008F0000EE0171B73EB050705D3121B63EB050313
:1009000006434CEA010C49084FEA300092185B415B
:1009100050EA0107EDD152EA030012D082EA040046
:1009200083EA0501084305D0101BAB4106D2012222
:10093000002306E000224FF0004302E06FF00102C6
:1009400053101AEB06004CEB085110EB0A0041EB78
:100950000B01BDE8F04DFFF71BBE2DE9F04D002364
:100960001A461B1A8A4103DB00200146BDE8F08DC0
:10097000C1F30A52C1F3130141F480154FF0000B8B
:10098000D10702D100186D41521E0027044640F2E3
:10099000FF11384601EB620A3E46804602460020BF
:1009A0004FF48011FFF7ADFDC2197141BB1846EB42
:1009B0000100B4EB030C75EB000C04D3E41A65EBF7
:1009C000000517460E46241908F101006D418046C6
:1009D0003428E3DDF91946EB0600091BA84103D2D0
:1009E0004FF0FF32134601E0002213461BEB0700D5
:1009F00046EB0A51BDE8F04DFFF7CABDC1F30A52FC
:100A0000C1F3130140F2FF3341F480119A4202DA3C
:100A100000200146704740F233439A42A2F233422B
:100A200002DC5242FFF76DBD00F012B8064C074DD4
:100A300006E0E06840F0010394E8070098471034AE
:100A4000AC42F6D3FFF778FB6C4702088C470208EC
:100A5000202A04DB203A00FA02F10020704791407E
:100A6000C2F1200320FA03F3194390407047202A73
:100A700006DBCB17203A41FA02F043EAE07306E0C6
:100A800041FA02F3D040C2F12002914008431946D6
:100A9000704710B500F0FEFA10BD2DE9F041074691
:100AA0000C460026002509E036023919491B491E6B
:100AB00088B200F008F80644681CC5B2A542F3DB12
:100AC0003046BDE8F08170B50446002600F04AFBD0
:100AD0002546E11704EB11610912A02202EB410146
:100AE000C8B200F011FB00F06BFBE11704EB1161E1
:100AF0000912A4EB0121C8B200F006FB00F060FB74
:100B000000F030FBA12000F0FFFA00F059FB00F0EC
:100B1000D7FA064600F042FB304670BD2DE9F041A1
:100B200005460E461746002409E0E20026FA02F2C6
:100B3000D1B22A1990B200F006F8601CC4B2BC42CF
:100B4000F3DBBDE8F08170B504460E4600F00AFB09
:100B50002546E11704EB11610912A02202EB4101C5
:100B6000C8B200F0D1FA00F02BFBE11704EB1161E1
:100B70000912A4EB0121C8B200F0C6FA00F020FB74
:100B8000304600F0C1FA00F01BFB00F007FB0A2022
:100B900005F008FD70BD00BFFEE7000038B515A0E8
:100BA00002F0B0FA00250020009000240BE004F5CC
:100BB00020010122684601F059F99DF800002844FF
:100BC000C5B21148044411488442F0D3922D01D19A
:100BD000012000E000200E4908760846007E01282A
:100BE00003D10CA002F08EFA02E00DA002F08AFA06
:100BF00038BD000047424BD7D6BFE220B2E2CAD48C
:100C00002E2E2E0A0000000040420F0000845D00DE
:100C1000D6010020D7D6BFE2BFC9D3C30D00000064
:100C200020B4EDCEF3A3ACD7D6BFE2B2BBBFC9D3DD
:100C3000C3210D0021B1026842F00102026004E00C
:100C400002684FF6FE731A400260704701684FF663
:100C5000FE72114001600021016041608160C1604D
:100C60004B49884208D14A490839496841F00F0187
:100C7000474A083A51608AE045491431884208D110
:100C800043490839496841F0F001414A083A516046
:100C90007DE03F492831884208D13D4908394968FB
:100CA00041F470613A4A083A516070E038493C3189
:100CB000884208D136490839496841F47041344ABC
:100CC000083A516063E032495031884208D13049D6
:100CD0000839496841F470212D4A083A516056E0BC
:100CE0002B496431884208D129490839496841F4BF
:100CF0007001274A083A516049E025497831884215
:100D000008D123490839496841F07061204A083AFE
:100D100051603CE01F49884206D1011F096841F03B
:100D20000F01021F116032E01A491431884208D1C4
:100D30001849091F096841F0F001164A121F116095
:100D400025E014492831884208D11249091F096851
:100D500041F470610F4A121F116018E00D493C31D7
:100D6000884208D10B49091F096841F47041094ABA
:100D7000121F11600BE007495031884207D1054925
:100D8000091F096841F47021024A121F116070475F
:100D900008000240080402400146486880B27047DB
:100DA00010B50022026847F6F0739A430C6A8B680C
:100DB00023430C6923434C6923438C692343CC6947
:100DC00023434C6A23438C6A23431A430260CB6853
:100DD00043600B6883604B68C36010BD416070471F
:100DE00070472DE9F041024600250026002000232F
:100DF0000024002791F803C00CF00F0591F803C000
:100E00000CF0100CBCF1000F03D091F802C04CEABA
:100E1000050591F800C0BCF1000F31D01468002026
:100E20002BE04FF0010C0CFA00F3B1F800C00CEA13
:100E300003069E4220D183004FF00F0C0CFA03F7FB
:100E4000BC4305FA03FC4CEA040491F803C0BCF16E
:100E5000280F06D14FF0010C0CFA00FCC2F814C0A8
:100E60000AE091F803C0BCF1480F05D14FF0010C26
:100E70000CFA00FCC2F810C0401C0828D1D3146042
:100E8000B1F800C0BCF1FF0F34DD546800202EE043
:100E900000F1080C4FF0010808FA0CF3B1F800C09B
:100EA0000CEA03069E4221D183004FF00F0C0CFA8E
:100EB00003F7BC4305FA03FC4CEA040491F803C0B1
:100EC000BCF1280F05D100F1080C08FA0CF8C2F8A3
:100ED000148091F803C0BCF1480F07D100F1080C51
:100EE0004FF0010808FA0CF8C2F81080401C0828DE
:100EF000CED35460BDE8F081F0B50A46002300244B
:100F00000021002500F00046B6F1004F02D11D4E31
:100F1000F16901E01B4E7168C0F3034583B200F430
:100F20004016B6F5401F08D121F07061154E766865
:100F300026F07066134F7E6012E000F48016B6F55E
:100F4000801F06D1032606FA05F4A14341F0706123
:100F500006E0460D360103FA06F6B14341F0706132
:100F600022B1460D360103FA06F6314300F0004681
:100F7000B6F1004F02D1034EF16101E0014E716004
:100F8000F0BD0000000001400246002093680B40C5
:100F90000BB1012000E000207047016170470000A4
:100FA0002DE9F0478246884614462046E21704EBB6
:100FB0005272D2102146E31704EB5373DB10A4EBFB
:100FC000C3030BB1012300E000231A44624302F083
:100FD000FF099AF800600AF1010082460578812E27
:100FE00005DB402D03DBFF2D01D0FF2E0AD10020B1
:100FF00004E0002108F8011B411CC8B24845F8DB99
:10100000BDE8F0877F2D03DAA5F14000C5B202E00C
:10101000A5F14100C5B2A6F18100C6B2BE2000FB19
:10102000065000FB09F70C2C06D0102C0BD0182C06
:1010300012D0202C22D118E04A4607F52001404664
:1010400000F014FF1AE04A4607F520000D4901445C
:10105000404600F00BFF11E04A4607F520000A4920
:101060000144404600F002FF08E04A4607F5200030
:1010700006490144404600F0F9FE00BF00BF00BF32
:10108000BEE7000060C40800E074140000C22E0037
:1010900000BFFEE708B50121102000F08FFD4FF4DE
:1010A000C050ADF8000014208DF8030003208DF827
:1010B000020069460148FFF794FE08BD0010014098
:1010C00070B50024002518E06006040E4FF480502F
:1010D0000C490861022005F08BFA0A48806800F488
:1010E000006008B1601CC4B24FF4805005494861EB
:1010F000022005F07DFA681CC5B2082DE4DB20460D
:1011000070BD00000010014070B50446002524E0C9
:1011100004F0800020B14FF400601149086103E041
:101120004FF400600E494861022005F061FA4FF467
:1011300080500B490861022005F05AFA4FF48050A4
:1011400007494861072D01D1401008616006040E6F
:10115000022005F04DFA681CC5B2082DD8DB70BD21
:101160000010014010B54FF400600B4908614000C9
:101170000861042005F03CFA4FF40060064948611C
:10118000042005F035FA4FF48050034948610420EB
:1011900005F02EFA10BD00000010014010B54FF40C
:1011A00000600649486140000861042005F020FA0B
:1011B0004FF400600149086110BD000000100140BB
:1011C00010B54FF400600E490861012005F010FAD7
:1011D0004FF480500A490861012005F009FA0848D7
:1011E000806800F4006008B1012400E000244FF49E
:1011F000805003494861012005F0FAF9204610BDEE
:101200000010014008B50121142000F0D7FC012195
:101210001148FFF771FE4FF40040ADF80000482080
:101220008DF8030069460D48FFF7DBFD2020ADF87F
:10123000000048208DF8030069460948FFF7D1FDFA
:101240000120ADF8000028208DF80300694603480E
:10125000FFF7C7FD08BD0000000230000008014094
:101260000010014010B5044614B101202449087053
:101270002348007868B320212248FFF785FE58B143
:101280004FF400412048FFF77FFE28B101211E489E
:10129000FFF77AFE01281CD10A2005F083F900200F
:1012A0001749087020211748FFF76EFE08B9012082
:1012B00010BD4FF400411448FFF766FE08B9022044
:1012C000F6E701211048FFF75FFE012815D1032042
:1012D000EEE720210B48FFF757FE01280DD1C1038F
:1012E0000948FFF751FE012807D101210648FFF701
:1012F0004BFE10B90120024908700020D8E7000019
:1013000032000020001001400008014070B5064680
:1013100000240B4805884088454300231A46194697
:10132000184600F009FB0649088900F08BFB00BF56
:1013300003E0304600F074FB641CAC42F9D370BD8E
:10134000C80100202DE9F04304460D4616461F460D
:10135000DDF81C80701C001B791C491B00FB01F987
:101360003B4632462946204600F0E6FA4FF48070AC
:101370000B4908614000486106E00A48C0F8008057
:101380008020074948610861B9F10000A9F101090D
:10139000F3D14FF4007002490861BDE8F08300000A
:1013A000001001400C0C014010B5034600240BB1A5
:1013B000032B0DD100201A498871F02008804FF4CA
:1013C000A07048802C2008812A2048812B20888109
:1013D000052B01D0062B0DD10120114988714FF446
:1013E000A0700880F02048802C2008812A204881A5
:1013F0002B20888103B900BF032B01D144F0C00426
:10140000052B01D144F06004062B01D144F0A00467
:10141000362000F017FB44F0080000F001FB10BD7F
:10142000C80100202DE9FF4F84B081468A46002084
:10143000029083460698A0EB09050798A0EB0A06E0
:10144000CDF80490CDF800A0002D01DD012705E0C6
:101450000DB9002702E04FF0FF376D42002E02DD8C
:101460004FF0010806E016B94FF0000802E04FF017
:10147000FF387642B54201DD2C4600E034460020BC
:1014800003901EE0009A91B2019A90B2119A00F076
:101490001FF8029828440290B3440298A04205DD48
:1014A0000298001B0290019838440190A34504DD86
:1014B000ABEB040B0098404400900398401C80B2B2
:1014C0000390611C03988842DCDD08B0BDE8F08F12
:1014D00070B504460D461646681C83B2601C82B285
:1014E0002946204600F028FA304600F099FA70BDEF
:1014F0002DE9F04706460F4690469A460024454699
:101500000320A0EB480944E07A1B91B2321990B253
:101510005246FFF7DDFF3A1B91B2721990B2524664
:10152000FFF7D6FF3A1991B2721990B25246FFF7FF
:10153000CFFF7A1991B2321990B25246FFF7C8FF25
:101540007A1991B2321B90B25246FFF7C1FF3A1995
:1015500091B2721B90B25246FFF7BAFF7A1B91B25A
:10156000321B90B25246FFF7B3FF3A1B91B2721B87
:1015700090B25246FFF7ACFF641CB9F1000F03DADA
:10158000A000801D814404E0601B80000A3081447B
:101590006D1EAC42B8DDBDE8F08700001CB501212E
:1015A000192000F00BFB0121C548FFF7A5FC4FF403
:1015B000F860ADF8040010208DF8070003208DF8C6
:1015C000060001A9BF48FFF70CFC4FF4F861BD48C5
:1015D000FFF7E3FC4FF6FF70ADF8040001A9BA482D
:1015E000FFF7FFFB4FF6FF71B748FFF7D6FC32203D
:1015F00004F0D8FF0121002000F036FA322004F078
:10160000D1FF002000F090F9B0498880084680881A
:10161000FF280ADB084680884FF6FF71884204D015
:10162000AA488088B0F5134F19D1D32000F00AFAE8
:1016300000F050F900F04EF900F04CF9A349888011
:10164000084680884FF6FF7101EA00209F49888094
:1016500000F040F99D49898808439C4988809B484F
:10166000808849F24131884200D01CBDCF2000F073
:10167000E9F9002000F0D4F9C12000F0D1F93020C0
:1016800000F0CEF9ED2000F0DDF9642000F0C8F99B
:10169000032000F0C5F9122000F0C2F9812000F00B
:1016A000BFF9E82000F0CEF9852000F0B9F910204C
:1016B00000F0B6F97A2000F0B3F9CB2000F0C2F9BF
:1016C000392000F0ADF92C2000F0AAF9002000F03C
:1016D000A7F9342000F0A4F9022000F0A1F9F720C6
:1016E00000F0B0F9202000F09BF9EA2000F0AAF900
:1016F000002000F095F9002000F092F9C02000F0E1
:10170000A1F91B2000F08CF9C12000F09BF9012009
:1017100000F086F9C52000F095F9302000F080F93E
:10172000302000F07DF9C72000F08CF9B72000F0E0
:1017300077F9362000F086F9482000F071F93A2058
:1017400000F080F9552000F06BF9B12000F07AF933
:10175000002000F065F91A2000F062F9B62000F0D0
:1017600071F90A2000F05CF9A22000F059F9F2208A
:1017700000F068F9002000F053F9262000F062F92B
:10178000012000F04DF9E02000F05CF90F2000F09E
:1017900047F92A2000F044F9282000F041F90820F8
:1017A00000F03EF90E2000F03BF9082000F038F977
:1017B000542000F035F9A92000F032F9432000F060
:1017C0002FF90A2000F02CF90F2000F029F9002051
:1017D00000F026F9002000F023F9002000F020F9A5
:1017E000002000F01DF9E12000F02CF9002000F0AD
:1017F00017F9152000F014F9172000F011F907204F
:1018000000F00EF9112000F00BF9062000F008F9A5
:101810002B2000F005F9562000F002F93C2000F0E2
:10182000FFF8052000F0FCF8102000F0F9F80F2078
:1018300000F0F6F83F2000F0F3F83F2000F0F0F859
:101840000F2000F0EDF82B2000F0FCF8002000F055
:10185000E7F8002000F0E4F8012000F0E1F83F2074
:1018600000F0DEF82A2000F0EDF8002000F0D8F8B3
:10187000002000F0D5F8002000F0D2F8EF2000F0B2
:10188000CFF8112000F0DEF8782004F08BFE29203C
:1018900000F0D8F80020FFF787FD002000900B48EB
:1018A0004088401E83B209480088401E82B2002151
:1018B0000846FFF747FD01200549086000BFD4E650
:1018C0000002300000100140000C0140C80100205F
:1018D000A80122424FF08831114A1160121D116097
:1018E00000210F4A0C32116091150E4A1161490016
:1018F0005161402151610A490831096888B240218B
:101900001161C90011614FF03331054A1160121D98
:1019100011604FF6FF71024A0C32116070470000EF
:10192000000C01400010014000B50346184600F0CD
:1019300089F8FFF7CFFF00BD70B504460D46164687
:101940001249488900F07EF8201200F069F8E0B2F0
:1019500000F066F8301200F063F8F0B200F060F8C2
:101960000A49888900F06EF8281200F059F8E8B2A8
:1019700000F056F8181200F053F8D8B200F050F802
:101980000249088900F05EF870BD0000C80100201F
:101990002DE9FC4706460F4615461C46DDE90A8937
:1019A000B2460C2C06D0102C04D0182C02D0202CBF
:1019B00000D018242CE019480088001BB04202DA3D
:1019C0005646381987B215484088001BB84201DADC
:1019D000BDE8FC8728787F280FDACDE900892A78CE
:1019E00023463946304604F029FE6D1C204604EBA0
:1019F000D07106EB61018EB20AE023462A463946D1
:101A00003046CDE9008904F0A9FEAD1C301986B23C
:101A100028780028CFD100BFDAE70000C8010020F5
:101A20004FF48071054A1161490051610449086011
:101A300080215161116189001161704700100140DE
:101A40000C0C01404FF48071054A5161490051610D
:101A5000044908608021516111618900116170475A
:101A6000001001400C0C014010B504460B46204606
:101A7000FFF7E8FF1846FFF7D3FF10BD08B50121B7
:101A8000242000F09BF84FF48070ADF80000102087
:101A90008DF8030003208DF8020069460948FFF71E
:101AA000A0F94FF480710748FFF777FA0420ADF8EA
:101AB000000069460448FFF794F904210248FFF743
:101AC0006CFA08BD000801400014014000BFFEE7A9
:101AD0007047000070B5002100230F22C47804B3C2
:101AE000154C246804F4E064C4F5E064210AC1F1F3
:101AF0000403CA40447804FA03F184781440214373
:101B000009010E4C0678A155047804F01F05012444
:101B1000AC4005786D11AD0005F1E025C5F8004138
:101B200009E0047804F01F050124AC40044D067858
:101B3000761145F8264070BD0CED00E000E400E0B1
:101B400080E100E002490143024A11607047000051
:101B50000000FA050CED00E07047000029B1064ACC
:101B600052690243044B5A6104E0034A52698243BA
:101B7000014B5A61704700000010024029B1064A2B
:101B8000D2690243044BDA6104E0034AD26982431A
:101B9000014BDA61704700000010024029B1064A8B
:101BA00012690243044B1A6104E0034A126982433A
:101BB000014B1A61704700000010024029B1064A2B
:101BC00092690243044B9A6104E0034A926982439A
:101BD000014B9A61704700000010024029B1064A8B
:101BE000D2680243044BDA6004E0034AD2688243BD
:101BF000014BDA60704700000010024030B5002150
:101C00000022002400232D4D6D6805F00C0121B148
:101C1000042905D0082923D105E0294D056022E0DB
:101C2000274D05601FE0254D6D6805F47012234DAA
:101C30006D6805F48034022505EB92421CB9214DF4
:101C4000554305600BE01D4D6D6805F400351DB171
:101C50001C4D5543056002E0194D5543056002E0F7
:101C6000174D056000BF00BF144D6D6805F0F00111
:101C70000909154D6B5C0568DD4045600F4D6D68C9
:101C800005F4E061090A104D6B5C4568DD40856034
:101C90000A4D6D6805F46051C90A0B4D6B5C4568CF
:101CA000DD40C560054D6D6805F44041890B074D69
:101CB0006B5CC568B5FBF3F5056130BD00100240F3
:101CC00000127A0000093D001400002024000020CA
:101CD00000B587B0012141F20400FFF76FFF042037
:101CE000ADF8180010208DF81B0003208DF81A00A5
:101CF00006A92B48FFF775F82020ADF8180018202A
:101D00008DF81B0003208DF81A0006A92448FFF760
:101D100068F84020ADF8180018208DF81B0003204B
:101D20008DF81A0006A91E48FFF75BF88020ADF871
:101D3000180018208DF81B0003208DF81A0006A942
:101D40001748FFF74EF804211548FFF726F9002041
:101D5000ADF804004FF48270ADF806000020ADF835
:101D600008000220ADF80A000120ADF80C00400286
:101D7000ADF80E003820ADF810000020ADF81200CC
:101D80000720ADF8140001A9064800F0D1F80121A0
:101D9000044800F045F8FF2000F006F807B000BD49
:101DA000000801400030014070B50546002405E000
:101DB000601CC4B2C82C01DD002070BD02210E4899
:101DC00000F0A8F80028F3D029460B4800F0AEF840
:101DD000002405E0601CC4B2C82C01DD0020ECE743
:101DE0000121054800F096F80028F3D0024800F0E1
:101DF0009AF8C0B2E1E700000030014010B586B0AB
:101E00000446ADF8104001A9044800F091F8012102
:101E1000024800F005F806B010BD00000030014097
:101E200021B1028842F04002028004E002884FF6AD
:101E3000BF731A400280704710B50020084908702F
:101E40000120087607490860FFF742FF0020FFF7EE
:101E5000D5FF00F033F804490880FEF79FFE10BD5F
:101E6000D601002088012142340000202DE9F041F4
:101E700006460C46174600200F4908600320FFF76E
:101E800093FFC4F30740FFF78FFFC4F30720FFF76A
:101E90008BFFE0B2FFF788FF002505E0FF20FFF78A
:101EA00083FF7055681C85B2BD42F7DB01200249F3
:101EB0000860BDE8F08100008801214270B500246F
:101EC000002500260020104908609020FFF76CFFD5
:101ED0000020FFF769FF0020FFF766FF0020FFF7F3
:101EE00063FFFF20FFF760FF0546FF20FFF75CFF61
:101EF000064646EA052401200449C1F88801044940
:101F00000870204670BD0000880121420000214277
:101F1000D60100200246002013890B400BB101209E
:101F200000E0002070470146888970478181704732
:101F300010B50022028802F441520B884C882343DA
:101F40008C882343CC8823430C8923434C89234327
:101F50008C892343CC8923431A430280838B4FF21D
:101F6000FF74234083830B8A038210BD704710B532
:101F700000F002F810BD00000CB5002001900090A8
:101F80003348006840F480303149086000BF304871
:101F9000006800F4003000900198401C0190009807
:101FA00018B90198B0F5A06FF1D12948006800F484
:101FB000003010B10120009001E000200090009856
:101FC000012843D12348006840F0100021490860EF
:101FD0000846006820F0030008600846006840F0EA
:101FE000020008601A48406819494860084640687D
:101FF00048600846406840F4806048600846406891
:1020000020F47C1048600846406840F4E8104860BE
:102010000846006840F08070086000BF0C48006807
:1020200000F000700028F9D00948406820F0030053
:10203000074948600846406840F00200486000BF19
:102040000348406800F00C000828F9D10CBD0000DE
:102050000010024000200240042808D14FF0E02187
:10206000096941F004014FF0E022116107E04FF0EF
:10207000E021096921F004014FF0E022116170476D
:102080007047000010B51348006840F00100114986
:10209000086008464068104908400E4948600846F4
:1020A00000680E4908400B4908600846006820F4A3
:1020B000802008600846406820F4FE0048604FF425
:1020C0001F008860FFF753FF4FF00060044908606D
:1020D00010BD0000001002400000FFF8FFFFF6FEF8
:1020E00008ED00E010B50121084800F062F860B189
:1020F0000748008840F40040054908800121034852
:1021000000F048F8002000F031F810BD0008004051
:10211000360000207FB505460C4601210420FFF75C
:102120002DFDADF80450ADF800400020ADF80600DC
:10213000ADF8020069460C4800F058F8012211463B
:10214000094800F047F81E208DF80C0001208DF89A
:102150000D0002208DF80E0001208DF80F0003A85D
:10216000FFF7B8FC7FBD00000008004010B5044632
:1021700044B10021064800F036F80121044800F07F
:102180000CF803E00021024800F007F810BD000041
:1021900000080040CA430282704721B1028842F021
:1021A0000102028004E002884FF6FE731A400280AA
:1021B000704730B50246002000230024158A05EA46
:1021C0000103958905EA010413B10CB1012000E077
:1021D000002030BD1AB183890B43838102E08389DB
:1021E0008B438381704781847047000000220288FE
:1021F0001D4B98420ED01D4B98420BD0B0F1804F32
:1022000008D01B4B984205D01A4B984202D01A4B6B
:10221000984204D14FF68F731A404B881A43174BDC
:10222000984207D0164B984204D04FF6FF431A400D
:10223000CB881A4302808B8883850B8803850A4BE1
:1022400098420BD0094B984208D00E4B984205D0CB
:102250000D4B984202D00D4B984201D10B7A038668
:102260000123838270470000002C014000340140AC
:102270000004004000080040000C00400010004036
:10228000001400400040014000440140004801406B
:10229000F0B505AC94E8F010F0BD00002DE9F04F6A
:1022A0008BB00024002006904FF6FF70FFF72EF849
:1022B00000204FF6FF711023CDE90010FA482821C5
:1022C00002680846FFF764FB4FF478421421084681
:1022D00000F02EFA0020F54981F8200048621FE244
:1022E00000BFF248416801208847F04890F820007C
:1022F00000F0C00040287DD100200690EB4890F807
:10230000200020F04000E94981F82000084680893B
:1023100007A921F82400E548C08A01EB8401488020
:10232000601CC4B2012C06D0022C14D0032C25D082
:10233000042C0FD138E04FF6FF721421084600F04C
:10234000F7F9DB490988143988B24FF4784214212F
:1023500000F0EEF9D4E1D6490988143988B24FF675
:10236000FF72142100F0E4F9D1484088143881B29A
:102370004FF47842142000F0DBF9C1E1CC484088EA
:10238000143881B24FF6FF72142000F0D1F9C84A18
:102390005288143A91B2C64A1288143A90B24FF455
:1023A000784200F0C5F9ABE10024D0E0C14911F852
:1023B000241007AA32F82110BE4A02EB8402527898
:1023C00007AB33F82220881A002801DB014600E021
:1023D00041420D46B74911F8241007AA02EB8101CA
:1023E0004988B44A02EB8402527807AB03EB8202BD
:1023F000528800E085E1881A002801DB014600E0F0
:1024000041420E466D437643A819FDF79CFFCDE986
:10241000020104F026FACDE90401FDF7CEFF1FFA10
:1024200080F8A44901EB8401897807AA32F82110C9
:10243000A04A02EB8402D27807AB33F82220881A34
:10244000002801DB014600E041420D46994901EBBD
:102450008401897807AA02EB81014988954A02EB39
:102460008402D27807AB03EB82025288881A0028D4
:1024700001DB014600E041420E466D437643A81958
:10248000FDF761FFCDE9020104F0EBF9CDE90401AC
:10249000FDF793FF1FFA80F94846FDF74FFF074607
:1024A0004046FDF74BFF83463946FDF700FF824665
:1024B0005046FDF79BFF4FF066327F4BCDE904019C
:1024C000FDF7A8FF0FD35046FDF790FF7B4A7C4BEA
:1024D000CDE90401FDF7B6FF05D3B8F1000F02D036
:1024E000B9F1000F31D10024714A5288143A91B2E7
:1024F0006F4A1288143A90B24FF6FF7200F018F942
:102500004FF478421421084600F012F96D49504604
:10251000FDF79BFE8346FDF73CFF87B2BDF82A100E
:10252000BDF82800BDF8262002AB83C30192BDF898
:1025300024000090BDF82230BDF82020BDF81E1008
:10254000BDF81C00FFF7A4FECBE6601CC4B2032C50
:10255000FFF62CAFBDF82010BDF81C20881AFDF73F
:10256000E4FE074652490988A1F12800FDF7DDFE87
:1025700083463946FDF79BFE4C494862BDF8201062
:10258000BDF81C208818FDF7D0FE03904748416A2B
:102590000398FDF75AFE464905900888FDF7CEFEE0
:1025A00004900599FDF74BFE83464FF08041FDF7FF
:1025B0007EFE0746FDF7D4FE00B23C498885BDF893
:1025C0002610BDF81E20881AFDF7AFFE07463849D1
:1025D0004988A1F12800FDF7A8FE83463946FDF79A
:1025E00066FE32498862BDF82610BDF81E208818A4
:1025F000FDF79BFE03902D48816A0398FDF725FEA9
:1026000083462B494888FDF799FE59460490FDF70B
:1026100016FE4FF080410590FDF749FE0746FDF795
:102620009FFE00B22149C885486AFDF799FEB0F1C6
:10263000000B01DB584601E0CBF1000002280ADC68
:102640001A49886AFDF78CFE071E01DB384600E058
:102650007842022843DD0024154A5288143A91B288
:10266000134A1288143A90B24FF6FF7200F060F8E5
:102670004FF478421421084600F05AF80B4890F8BD
:10268000300008B9012000E00020084981F830003E
:10269000084690F83000D8B190200B490870D0203F
:1026A0000A4908701AE0000070000020380000207D
:1026B000C8010020F24502086666EE3FCDCCCCCCC6
:1026C000CCCCF03F0000C8426C0000206D00002020
:1026D000D0201549087090201449087020E04FF66A
:1026E000FF70FEF713FE4FF47A7003F05BFF00F00B
:1026F000E1F94FF6FF70FEF709FE0BB0BDE8F08F71
:1027000000BF0A2003F04EFF0698401C80B20690DE
:102710000698B0F57A7F02DD00F046F801E000BFD0
:10272000DEE500BF00BFE8E76C0000206D00002080
:10273000F8B504460D46164604F10D018AB2193962
:1027400088B22B4629460096FEF76CFE05F10D0077
:1027500083B2193881B2224620460096FEF762FE07
:102760006A1C91B2621C90B23246FEF7B1FE6A1C3E
:1027700091B2621E90B23246FEF7AAFE6A1E91B274
:10278000621C90B23246FEF7A3FE6A1E91B2621E30
:1027900090B23246FEF79CFE33460622294620467A
:1027A000FEF7A6FEF8BD000070B53520FEF78BF9E8
:1027B00004460A2C42D104212820FEF76EF9054672
:1027C0002846FDF7B2FD06461D49FDF770FD1D497F
:1027D000486204212C20FEF760F905462846FDF7E3
:1027E000A4FD06461649FDF762FD164988620221DE
:1027F0003020FEF752F900B21249888502213220BA
:10280000FEF74BF900B20F49C8853420FEF75BF99B
:102810000C4981F83000084690F8300030B1902023
:1028200009490870D0200949087005E0D020064900
:102830000870902005490870012070BD0020FCE759
:1028400020BCBE4C380000206C0000206D00002031
:1028500008B501211120FFF7B1F942F20900ADF8E6
:10286000000010208DF8030003208DF80200694657
:102870001248FEF7B6FA0620ADF8000048208DF8A1
:10288000030069460D48FEF7ACFA0D49A1F10A00B4
:1028900000F098F8FEF7FDF8FFF786FF08B100207A
:1028A00008BD4FF6FF70FEF731FDFFF7F7FC00F0B3
:1028B00001F9FFF779FF0120F2E700000010014065
:1028C0004E00002070B506460025002400201D495A
:1028D00008601D49C1F88C011A493431086030463E
:1028E00000F0ACF9062003F083FE00201649C1F881
:1028F0008001012003F07CFE0120124908600020C5
:102900001149C1F8800100BF12E04FF6FF7000EAE4
:10291000440400200B49086001200B49C1F88001E4
:1029200008487838006808B1601C84B2681CC5B2D9
:10293000102DEADB241101200249343108602046C1
:1029400070BD000080012242000022422DE9FE43BA
:1029500080460027002406E04046FFF7B3FF2DF82D
:102960001400601C84B2052CF6DB002416E0601C09
:1029700085B20FE03DF814003DF81510884207DDE0
:102980003DF814603DF815002DF814002DF8156081
:10299000681C85B2052DEDDB601C84B2042CE6DBDF
:1029A0000027012405E03DF81400384487B2601C7C
:1029B00084B2042CF7DB032097FBF0F086B230469C
:1029C000BDE8FE832DE9F04104460D460748007836
:1029D000FFF7BCFF064606480078FFF7B7FF07463B
:1029E00026802F800120BDE8F08100006C000020CF
:1029F0006D0000207FB504460D4602A903A8FFF72D
:102A0000E1FF064616B9002004B070BD694601A872
:102A1000FFF7D8FF06460EB90020F5E7BDF8040021
:102A2000BDF80C10884206DCBDF80C10BDF804009F
:102A3000323081420CDBBDF80C00BDF80410884236
:102A400036DCBDF80410BDF80C00323081422FDABC
:102A5000BDF80000BDF80810884206DCBDF808107B
:102A6000BDF80000323081420CDBBDF80800BDF833
:102A7000001088421CDCBDF80010BDF808003230A0
:102A8000814215DABDF80C10BDF80420881800EB5F
:102A9000D071C1F34F012180BDF80810BDF80020AE
:102AA000881800EBD071C1F34F0129800120ABE7FA
:102AB0000020A9E770B51B49486A1B49FDF7C5FB13
:102AC0000546FDF74DFC0446042221462820FEF76A
:102AD00025F81449886A1449FDF7B7FB0546FDF748
:102AE0003FFC0446042221462C20FEF717F80D482F
:102AF000B0F92C1002223020FEF710F80948B0F986
:102B00002E1002223220FEF709F8064890F8301005
:102B10003420FEF718F80A2421463520FEF713F872
:102B200070BD00003800002020BCBE4C2DE9F041F3
:102B3000044640480068002856D12CB13E49A1F116
:102B40000A00FFF757FF3DE03B49A1F10A00FFF7FC
:102B500051FFB8B338491639B1F92C00FDF7E5FB40
:102B60000746354916398889FDF7E8FB8046324823
:102B70001638416A4046FDF768FB06463946FDF7C0
:102B80000CFB0546FDF705FC2B4916398881B1F988
:102B90002E00FDF7CAFB074627491639C88AFDF7FC
:102BA000CDFB804624481638816A4046FDF74DFB30
:102BB00006463946FDF7F1FA0546FDF7EAFB1E49E0
:102BC0001639C8821C48163890F8200000F08000A2
:102BD00038BBC0201849163981F820000846818981
:102BE0008182C18AC1831CE01348163890F8200006
:102BF00000F0800050B11048163890F8200020F006
:102C000080000D49163981F820000AE000210A48A9
:102C100016388182C1834FF6FF70074916398881C3
:102C2000C8820548163890F8200000F08000BDE802
:102C3000F0810000040122424E000020002100BF6C
:102C400015E000F080021AB101220A4B1A6002E07E
:102C50000022084B1A604206100E0022054B0C3B66
:102C60001A600122044BC3F880214A1CD1B2082902
:102C7000E7DB70478C0122420000224270B58CB025
:102C800006460C46154601210846FEF767FF30460A
:102C9000FDF7DCFF019402951020039000200490C2
:102CA00005908020069000200790089009904FF42E
:102CB00080500A9000200B9001A93046FEF770F872
:102CC0000CB070BD70B504460D4600212046FDF7DE
:102CD000B1FF29462046FEF781F801212046FDF785
:102CE000A9FF70BD10B540F225511D4800F046F90E
:102CF00010B31B4800F0FEF9C4B21A48008800F473
:102D00000040C8B91748008800F4804060B10A2C20
:102D100003D000201349088020E01248008840F4C6
:102D200000401049088019E00D2C06D10D4800889C
:102D300040F480400B49088010E00A480088C0F346
:102D40000D0009490C5407480088401C05490880BB
:102D500008460088C72801DD0020088010BD00005B
:102D600000380140300000200001002010B540F282
:102D70002551134800F002F908B3114800F0BAF9E0
:102D8000C4B210480088B0F5806F12DA00210E48F6
:102D9000FFF729FA0B48008810B90120FFF7E6F980
:102DA000084801880088401C064A1080074844549F
:102DB00005E00448008840F400400249088010BD46
:102DC000004400403600002000080040F0050020CC
:102DD00010B586B0044601210420FEF7EFFE012164
:102DE0004804FEF7CBFE2E4800F07AF80420ADF838
:102DF000100003208DF8120018208DF8130004A98C
:102E00002848FDF7EEFF0820ADF8100004208DF8EB
:102E1000130004A92348FDF7E4FF00940020ADF857
:102E20000400ADF80600ADF80800ADF80C000C2069
:102E3000ADF80A0069461A4800F0F0F80122802136
:102E4000174800F043F8184A1549091D1748FFF7BD
:102E500015FF0121124800F02DF8012240F2255102
:102E60000F4800F0B5F826208DF8140002208DF8E8
:102E7000150003208DF8160001208DF8170005A815
:102E8000FEF728FE41F61F4140F2E730FFF742F916
:102E9000002007490880FFF769F906B010BD00005F
:102EA0000044004000080140F00100208000024082
:102EB0003600002021B1828942F40052828104E070
:102EC00082894DF6FF731A40828170471AB1838A56
:102ED0000B43838202E0838A8B4383827047000026
:102EE00010B504462048844209D101218803FEF729
:102EF00075FE00214FF48040FEF770FE32E01B4863
:102F0000844209D101214804FEF748FE00214FF414
:102F10000030FEF743FE25E01548844209D1012127
:102F20008804FEF73BFE00214FF48020FEF736FEBA
:102F300018E01048844209D10121C804FEF72EFE92
:102F400000214FF40020FEF729FE0BE00A488442DE
:102F500008D101210805FEF721FE00214FF4801061
:102F6000FEF71CFE10BD0000003801400044004088
:102F700000480040004C00400050004070B5024640
:102F8000002400230025002040F66A16B14200D13B
:102F900000BFC1F3421501F01F03012606FA03F337
:102FA000012D02D19689334006E0022D02D1168A06
:102FB000334001E0968A33400C12012606FA04F4ED
:102FC0001688344013B10CB1012000E0002070BD20
:102FD000F0B50346002400260025002040F66A17BD
:102FE000B94200D100BF1846C1F3421401F01F06D8
:102FF000012707FA06F5012C01D10C3004E0022C60
:1030000001D1103000E014301AB107682F43076077
:1030100002E00768AF430760F0BD00002DE9F0470C
:1030200086B005460E460024A24600BFA1460027F2
:10303000B08900B100BF2F462C8A4CF6FF700440C7
:10304000F08804432C82AC894EF6F3100440B0881B
:1030500031890843718908430443AC81AC8A4FF637
:10306000FF400440B0890443AC8201A8FEF7C6FDCE
:103070001F48874202D1DDF810A001E0DDF80CA066
:10308000A88900F4004040B10AEBCA0000EB0A1026
:1030900031684900B0FBF1F807E00AEBCA0000EB29
:1030A0000A1031688900B0FBF1F86420B8FBF0F039
:1030B00004012009642101FB1089A88900F4004063
:1030C00040B1322000EBC900B0FBF1F000F0070086
:1030D000044308E0322000EB09106421B0FBF1F05A
:1030E00000F00F0004432C8106B0BDE8F08700001B
:1030F0000038014001468888C0F30800704700BFCF
:10310000FEE700000FB4054B10B503A9044A02986E
:1031100000F006F910BC5DF814FB00000D68000813
:103120002C0000200FB4084B10B504A902AA039884
:1031300000F0F6F8044602A9002000F088FC2046C2
:1031400010BC5DF814FB00004F3A000837B5144678
:103150000846064B6A46214600F0E2F804466946F6
:10316000002000F074FC20463EBD00004F3A0008ED
:1031700002E008C8121F08C1002AFAD17047704740
:10318000002001E001C1121F002AFBD1704700009E
:103190000149086070470000FC0000202DE9FF5F36
:1031A00082B00021DDE90430020DDDF840B00343B8
:1031B00018D044F61050A2F2FF3242431514119871
:1031C00001281FD0A5EB0B00401C5FEA000A4FF05E
:1031D00000064E4FDFF83891B046504615D5CAF17B
:1031E000000413E0119801244AA3012801D16FEAD9
:1031F0000B010298119AC0E90031C0E9024206B001
:10320000BDE8F09FCBF10000DFE704460021404A13
:10321000491842EB0450CDE9001012E0E00707D056
:1032200032463B4640464946FDF7B6FA8046894657
:1032300032463B4610461946FDF7AEFA06460F46A3
:103240006410002CEAD1DDE90401DDE90023BAF1C4
:10325000000F06DAFDF7A0FA42464B46FDF79CFA4E
:1032600005E0FDF70BFB42464B46FDF707FB044626
:103270000E460022284BFDF7E5F803D84FF0FF304B
:10328000014607E00022254B20463146FDF7DDF9D7
:10329000FDF7B4FB102409E0002C0ADB0A2200230E
:1032A000FDF7FEF8039B30321A55641E50EA010206
:1032B000F2D1641C039AC4F111031444119A012A37
:1032C00003D0012208430DD10AE0084304D00020B6
:1032D0004FF0110B119072E7A3EB0B056D1E0DE083
:1032E0005B4504DD4FF0000205F1010504E003DA5F
:1032F0004FF00002A5F10105002AECD002981199C7
:10330000C0E90231C0E9004579E70000000014403F
:103310000000F03F300000000000F0430000E03FFC
:103320002DE9FF4F95B09B468946064600250FE2E2
:10333000252877D100242746F84A0121059400E08A
:10334000044316F8013F203B01FA03F01042F7D185
:1033500030782A2811D06FF02F033078A0F1300296
:10336000092A16D8059A44F0020402EB820203EB04
:1033700042021044761C0590EFE759F8042B0592A1
:10338000002A03DA504244F40054059044F0020449
:10339000761C30782E2816D116F8010F44F004045C
:1033A0002A280DD06FF02F023078A0F13003092BBE
:1033B00009D807EB870302EB4303C718761CF3E732
:1033C00059F8047B761C30786C280FD006DC4C282A
:1033D00017D068280DD06A2814D104E0742810D0C2
:1033E0007A280FD10DE044F400140AE044F480146C
:1033F00001E044F440147278824202D104F5801452
:10340000761C761C307866280BD013DC582877D0D1
:1034100009DC002875D04528F6D04628F4D0472886
:103420001AD19DE118E0632835D0642879D0652849
:1034300012D195E1702873D008DC6728F1D0692893
:103440006FD06E280DD06F2806D1B5E073282CD030
:10345000752875D0782874D05A46179990476D1CF6
:1034600075E1C4F30250022809D003280DD0D9F821
:10347000001004280DD00D6009F1040967E1D9F8A6
:103480000010EA17C1E90052F6E7D9F800100D80E4
:10349000F2E70D70F0E719F8041B8DF8001000201A
:1034A0008DF80100EA46012003E059F804AB4FF023
:1034B000FF3061074FF0000102D40DE008F1010177
:1034C0008846B9420FDA8045F8DB1AF8081000295F
:1034D000F4D108E008F1010188468142FADB1AF8CC
:1034E00008100029F6D105985B46A0EB0807214695
:1034F0003846179A00F094FA284400EB080507E0D4
:103500004DE029E10DE01AF8010B5A461799904752
:10351000B8F10108F7D25B4621463846179A13E105
:1035200042E00A220092C4F302524FF0000A022A3B
:1035300008D059F804CB032A4FEAEC710AD00DE009
:1035400029E02AE009F1070121F00702F2E802C1AF
:10355000914609E00FFA8CFC4FEAEC71042A03D182
:103560004FFA8CFC4FEAEC71002907DA0A46002179
:10357000DCF1000C61EB02012D2202E0220504D5F2
:103580002B228DF80420012203E0E20701D0202243
:10359000F7E7904659E00A2102E010220DE01021E1
:1035A0004FF0000A00910BE010224FF0000A44F0A7
:1035B00004040827009203E008224FF0000A00925A
:1035C000C4F30252022A05D059F804CB0021032A81
:1035D00008D009E009F1070121F00702F2E802C171
:1035E000914605E01FFA8CFC042A01D10CF0FF0C77
:1035F0004FF00008220728D5702806D0009B83F0E2
:10360000100353EA0A0305D00EE040228DF804208F
:10361000012208E05CEA010206D030228DF8042085
:103620008DF8050002229046009B83F0080353EAC0
:103630000A030AD15CEA010201D1620705D53022F2
:103640008DF804204FF001087F1E582804D034A0C4
:1036500003900EA802900DE036A0F9E753466046AD
:10366000009AFCF71DFF84460398825C0298401E76
:10367000029002705CEA0100F0D1029806A9081AD3
:1036800000F1200A600702D524F4803400E001270D
:10369000574502DDA7EB0A0000E0002000EB0A011D
:1036A000009005984144401A0590E00306D45B461B
:1036B0002146179A059800F0B3F90544002706E063
:1036C00001A85A46C05D179990476D1C7F1C47455D
:1036D000F6DBE0030CD55B462146179A059800F00F
:1036E0009FF9054404E030205A46179990476D1C15
:1036F0000099481E00900029F5DC08E00298029924
:103700005A460078491C0291179990476D1CBAF1EE
:103710000001AAF1010AF1DC65E1000009280100BD
:103720003031323334353637383961626364656637
:1037300000000000303132333435363738394142F9
:10374000434445460000000000F058F90544761C4B
:10375000307800287FF4ECAD19B02846BDE8F08F32
:10376000620700D4062709F1070222F0070CFCE8E3
:103770000223E14603F000485FEA080C02D00FF292
:10378000702C0DE05FEA045C02D50FF2682C07E0B4
:103790005FEAC47C02D00FF2602C01E0AFF2700C43
:1037A0004FF0FF3823F00043CDF850C065280CD00F
:1037B00006DC452809D046281DD047283DD13DE0EC
:1037C000662818D067287ED138E00021112F01DB50
:1037D000112000E0781CCDE9000106A90EA8FFF732
:1037E000DDFCDDE90F010E9A03910021009207F143
:1037F000010A04914DE04FF000400097CDE901101F
:1038000006A90EA8FFF7CAFCDDE90F0203920E9B82
:1038100011990022DDF80CA00093049211B9791CD3
:1038200000EB010AB7EB0A0004D4C0F1FF3007F146
:10383000010A0490AAEB0700019044E0012F00DA8E
:1038400001270021112F01DD112000E03846CDE9CC
:10385000000106A90EA8FFF7A1FCDDE90F010E9AF1
:103860000391002104910092BA4621070CD40399D8
:10387000514500DA8A46BAF1010F05DD009AAAF136
:103880000101515C302908D0B84202DA10F1040F6E
:1038900006DA0121CDE9011015E0AAF10101E9E7FD
:1038A000002805DC049901440491AAEB000102E020
:1038B000411C514500DD8A460499401A401C019084
:1038C0004FF000400290200704D40198504501DBDE
:1038D000CDF8048000208DF84F0002980DF14F07BD
:1038E000B0F1004F25D02B200E9002984FF0020827
:1038F00000280CDA404202902D200E9007E00A21A9
:103900000298FCF7B7FD3031029007F8011DB8F1BD
:103910000001A8F10108F2DC02980028EFD1791E1D
:103920000E980870307800F0200040F0450007F84D
:10393000020D12A8C01B00F107081498007800B10E
:10394000012000EB0A01019801EBE0710598414468
:10395000401A401E0590E00306D45B462146179AA4
:10396000059800F05DF805441498007818B15A469F
:10397000179990476D1CE00324D55B462146179AA2
:10398000059800F04DF805441CE00498002807DB7A
:10399000DDE90301884203DD0098405C179901E0EE
:1039A000179930205A469047049805F10105401CAC
:1039B00004900198401E019004D12E205A46179978
:1039C00090476D1CBAF10001AAF1010ADDDC05E0A7
:1039D00017F8010B5A46179990476D1CB8F1000172
:1039E000A8F10108F4DC5B462146179A0598ABE67E
:1039F0002D0000002B000000200000002DE9F04108
:103A0000044600251E461746880404D405E03946BE
:103A10002020B0476D1C641EF9D52846BDE8F08112
:103A20002DE9F041044600251E469046C80301D505
:103A3000302700E02027880404D505E041463846B9
:103A4000B0476D1C641EF9D52846BDE8F0810A68B0
:103A5000531C0B60107070472DE9F04F87B00026A3
:103A6000002740F2E7354FF0000A4FF000084FF012
:103A700000093222EEA1EFA001F0BCFBF048036880
:103A8000F048F1A102680298FFF74CFB6A1CE8A11C
:103A9000029801F0AFFBF2480368F248F2A1026815
:103AA0000298FFF73FFB6A1CF4A1029801F0A2FB09
:103AB00000BF1422F4A1F6A001F09CFB0028F8D16D
:103AC00000BF1422F5A1F2A001F094FB0028F8D168
:103AD0004FF6FF70FDF71AFC00204FF6FF71102320
:103AE000F0A2CDE900101E210846FDF751FF322259
:103AF000CFA1F2A001F07EFB4FF4FA7002F052FD6C
:103B0000F148F2A102680298FFF70CFB3222C8A12B
:103B1000029801F06FFB4FF4FA7002F043FD32227D
:103B2000C3A1EFA001F066FB00BFF1481E210268AF
:103B3000322001F013FA044604F0020000284BD0B2
:103B40004FF6FF70FDF7E2FB00204FF6FF711023E8
:103B5000E8A2CDE900101E21FDF71AFF00204FF664
:103B6000FF711023E9A2CDE9001032211E20FDF7DC
:103B70000FFF03ABD448EDA10268EEA000F0FCFCFF
:103B800000B1D2E7D04803AAF0A103680298FFF77A
:103B9000C9FA4FF6FF70FDF7B9FB00204FF6FF7131
:103BA0001023D4A2CDE900101E21FDF7F1FE002064
:103BB0004FF6FF711023D5A2CDE9001032211E204F
:103BC000FDF7E6FEC8229AA1029801F013FB2046F9
:103BD00000F090FE04465FE004F00100002857D09A
:103BE0004FF6FF70FDF792FB00204FF6FF71102398
:103BF000DDA2CDE900101E21FDF7CAFE00204FF620
:103C0000FF711023C1A2CDE9001032211E20FDF763
:103C1000BFFEDB4850F8241003ABAB480268D9A0C4
:103C200000F0AAFC00B180E7A74803AADAA1036864
:103C30000298FFF777FA1FE04FF6FF70FDF766FB7B
:103C400000204FF6FF711023DAA2CDE900102821E1
:103C5000FDF79EFE00204FF6FF711023D9A2CDE99B
:103C6000001050211E20FDF793FE0020FDF7FAFA08
:103C70000646032E00D158E7C8226DA1029801F034
:103C8000B9FA0028D8D1204600F034FE044603E0FB
:103C9000204600F02FFE04464FF6FF70FDF736FB7E
:103CA00000204FF6FF711023CBA2CDE900101E219A
:103CB000FDF76EFE00204FF6FF71102393A2CDE9B1
:103CC000001032210F20FDF763FE4FF6FF703E23F8
:103CD000EF22322100900F20FDF734FB00204FF639
:103CE000FF711023C3A2CDE900103221FDF750FE71
:103CF0004FF6FF705C23EF22502100900F20FDF75C
:103D000021FB41210F2000F01BFB00204FF6FF712B
:103D10001023C2A2CDE900105F210F20FDF738FE6D
:103D200000204FF6FF711023BFA2CDE900106E21D5
:103D30000F20FDF72DFE00204FF6FF711023BDA2CE
:103D4000CDE900106E218720FDF722FE00204FF6FE
:103D5000FF711023B9A2CDE900107D210F20FDF7DE
:103D600017FE00204FF6FF711023B7A2CDE9001017
:103D70008C210F20FDF70CFE39480068B549096811
:103D8000CDE900103748B4A2C32103680F2001F029
:103D90005BFF00204FF6FF71CDE9001004F0030037
:103DA000774951F8202010236E213F20FDF7F0FDC8
:103DB00000204FF6FF71CDE900102011704951F835
:103DC000202010236E21B120FDF7E2FD0020A8493C
:103DD000088021E20020FDF745FA0646032E02D1B5
:103DE0004FF0000A19E2012E21D10A2095FBF0FBC9
:103DF0005A46A0A10298FFF795F900204FF6FF71EF
:103E00001023CDE900107D214520029AFDF7C0FD69
:103E1000C82207A19EA001F0EDF9C82002F0C2FB64
:103E2000642203A1029801F029FA64275DE137E1D9
:103E30004F4B000041542B43574D4F44453D3300F9
:103E40008C0000208400002041542B4357534150E4
:103E50003D222573222C222573222C312C34000084
:103E6000800000207800002041542B43574A4150E5
:103E70003D222573222C22257322000057494649F2
:103E800020474F54204950005354414950000000EE
:103E900041542B43494653520000000041504950C1
:103EA0000000000041544B2D4553502041502B53EE
:103EB0005441C4A3CABDB2E2CAD4000041542B434A
:103EC00049504D55583D31007400002041542B435A
:103ED00049505345525645523D312C257300000040
:103EE00041542B43495053544F3D31323030000040
:103EF0009000002041544B2D4553502057494649CE
:103F00002D535441B2E2CAD400000000D5FDD4DAEA
:103F1000C5E4D6C341544B2D455350C4A3BFE92C2F
:103F2000C7EBC9D4B5C82E2E2E000000554450C48E
:103F3000A3CABD00574946492D535441D4B6B6CB08
:103F4000554450204950C9E8D6C3000041542B4382
:103F5000495053544152543D302C22554450222C48
:103F6000222573222C25730041544B2D455350209C
:103F7000574946492D53544120B2E2CAD4000000AB
:103F80009C000020574946492D53544120D4B6B6D1
:103F9000CB4950C9E8D6C30041542B434950535430
:103FA0004152543D302C22544350222C222573225E
:103FB0002C257300574B5F55503AB7B5BBD8D6D8B0
:103FC000D1A1000041544B2D45535020C1ACBDD36D
:103FD000554450CAA7B0DC0041544B2D45535020E6
:103FE000574946492D5354412B415020B2E2CAD47F
:103FF00000000000574B5F55503ACDCBB3F6204B35
:104000004559303A494430B7A2CBCD204B455931C0
:104010003A494431B7A2CBCD00000000C1ACBDD3BA
:10402000D7B4CCAC3A000000535441C4A3CABD3A43
:10403000000000004150C4A3CABD3A00B7A2CBCDD6
:10404000CAFDBEDD3A000000BDD3CAD5CAFDBEDD43
:104050003A0000007C000020C7EBC9E8D6C3C2B715
:10406000D3C9C6F7CEDECFDFB2CECAFDCEAA3A00A4
:104070003600002041544B2D38323636C4A3BFE9F8
:10408000494430B7A2CAFDBEDD253032640D0A00B6
:1040900041542B43495053454E443D302C3235005A
:1040A000022E22D10A2095FBF0FB5A465DA1029810
:1040B000FFF738F800204FF6FF711023CDE900100C
:1040C0007D214520029AFDF763FCC822AFF2A021B2
:1040D0005BA001F08FF8C82002F064FA6422AFF20E
:1040E000B021029801F0CAF864270FB1781EC7B258
:1040F000012F08D14FF6FF707A23EF227D21009027
:104100005420FDF71FF9681C85B20A2002F04AFA14
:104110004F48008800F40040002842D04C480088F6
:10412000C0F30E0800204B4901F808004AA0FEF732
:10413000E9FF424649A10298FEF7F4FF4FF6FF70EF
:104140008223EF228C2100904520FDF7FBF8002010
:104150004FF6FF711023CDE900108C214520029A03
:10416000FDF716FC4FF6FF7040F23F13EF229B2144
:1041700000900F20FDF7E6F800204FF6FF711023A6
:10418000344ACDE900109B210F20FDF701FC0020EF
:104190002F490880B9F12B0F02D04FF47A7500E057
:1041A0000025B5F57A7F26D14FF6FF708A23EF22DE
:1041B0007D2100904520FDF7C5F800F09FF881466D
:1041C000B9F12B0F0BD100204FF6FF71102328A25D
:1041D000CDE900105F214520FDF7DAFB0AE0002061
:1041E0004FF6FF71102325A2CDE900105F21452075
:1041F000FDF7CEFB0025142095FBF0F100FB1150DC
:1042000038B92148006808B9012000E000201E49A3
:104210000860012000F03AF8DCE500BF504607B026
:10422000BDE8F08F41544B2D38323636C4A3BFE978
:10423000494431B7A2CAFDBEDD253032640D0A0003
:1042400041542B43495053454E443D312C323500A7
:1042500036000020F005002025730000CAD5B5BD4A
:104260002564D7D6BDDA2CC4DAC8DDC8E7CFC200D2
:10427000C1ACBDD3B3C9B9A600000000C1ACBDD369
:10428000CAA7B0DC00000000A001214210B504461E
:104290000A48008800F4004070B1002007490988EE
:1042A000C1F30E01064A5054114606A0FEF72AFF3C
:1042B00014B100200149088010BD00003600002024
:1042C000F00500202573000070B50446002509485C
:1042D000008800F4004058B1002006490988C1F365
:1042E0000E01054A505421461046FBF73DFF054696
:1042F000284670BD36000020F005002070B500F0A3
:1043000041FF08B1002070BD322205A105A000F0D8
:1043100071FF08A0FFF7D8FF05462C782046F2E78A
:104320003A00000041542B434950535441545553D3
:10433000000000002B4349505354415455533A0058
:104340002DE9FC4781460F46322226A126A000F027
:1043500051FF18B1002088F8000040E025A0FFF7C9
:10436000B3FF044625A1A01DFBF7FEFE05462E4621
:104370000020287004F106082148424621A1036864
:104380005046FEF7CFFE00204FF6FF711023524635
:10439000CDE9001039464846FDF7FAFA1EA1701C17
:1043A000FBF7E2FE044615A1E01DFBF7DDFE054626
:1043B0000020287004F107081148424618A103683C
:1043C0005046FEF7AFFE00204FF6FF711023524615
:1043D000CDE9001007F10F014846FDF7D9FABDE815
:1043E000FC8700004F4B000041542B434946535279
:1043F00000000000415049502C2200002200000023
:104400007400002041502049503A257320B6CBBF9C
:10441000DA3A25730000000053544149502C220021
:104420005354412049503A257320B6CBBFDA3A2580
:10443000730000002DE9F041074688460026374802
:10444000416800208847354890F8200000F080003F
:10445000002850D000244BE0002529E02F48818916
:1044600005EB850007EB0010503081421EDA2B4827
:10447000808905EB850107EB0111884216DD27488D
:10448000C18AC4EBC40008EB80001C3081420DDA05
:104490002248C08AC4EBC40108EB8101884205DDD3
:1044A00004EB44002844401CC6B203E0681C85B2FB
:1044B000032DD3DB00BFCEB119480078B04201D143
:1044C000002612E016480078401EC2B20023414682
:1044D000384600F01DF9124806700078401EC2B23E
:1044E00001234146384600F013F903E0601C84B212
:1044F000052CB1DB0EE00A48007858B10848007876
:10450000401EC2B200234146384600F001F90020A7
:10451000034908703046BDE8F081000038000020F3
:10452000F800002070B5054632220DA10DA000F064
:1045300061FE10B10020287070BD0DA0FFF7C4FE11
:1045400004460BA1601CFBF70FFE064600203070EE
:10455000621C08A12846FEF7E5FD00BFECE700005D
:104560004F4B000041542B4349465352000000007A
:1045700022000000257300002DE9FC5F07468846F5
:1045800092461E464FF0000BD94600254FF6FF70AD
:10459000FCF7BCFE00204FF6FF7110233A46CDE930
:1045A00000101E21FDF7F4F900204FF6FF711023D3
:1045B00049A2CDE900105A211E20FDF7E9F900209B
:1045C0004FF6FF71102347A2CDE900106E211E2087
:1045D000FDF7DEF900204FF6FF71102343A2CDE96D
:1045E000001082211E20FDF7D3F942A04349086044
:1045F00043A04860B421002000F026F900204FF6C7
:10460000FF7110234246CDE900105A216620FDF7C4
:10461000BFF900204FF6FF7110235246CDE900107C
:1046200082214620FDF7B4F9002030704EE0B4211D
:104630000020FFF7FFFE04468CB30C2C0BDA0F2D85
:1046400017DA601E304951F8200002782846691CAC
:10465000CDB232540DE00D2C02D10DB1681EC5B2A1
:104660000E2C01D105B132E00F2C02D14FF0010B1D
:104670002DE0002070554FF6FF707E23EF226E2153
:1046800000905620FCF75EFE00204FF6FF711023CD
:104690003246CDE900106E215620FDF779F909F177
:1046A000010000F0FF09B9F1140F09D14FF0000922
:1046B0001648006808B9012000E00020134908608E
:1046C0000A2001F06FFF0120FFF7E0FDAFE700BF18
:1046D0005846BDE8FC9F0000B9A4D7F7C4A3CABDE3
:1046E0003A0000004950B5D8D6B73A00B6CBBFDA89
:1046F0003A000000C1ACBDD300000000F000002073
:10470000B7B5BBD800000000BC000020A0012142CA
:104710002DE9FC4704460D4690469946032098FB38
:10472000F0F086B2032098FBF0F100FB118087B215
:10473000B8F10F0F01DDBDE8FC87B9F1000F25D0FE
:104740004FF4FC60C6EBC60C05EB8C0C0CF11A0C9C
:104750001FFA8CF307EB870C04EB0C1C0CF14E0CCE
:104760001FFA8CF2C6EBC60C05EB8C0C0CF1010C9D
:104770001FFA8CF107EB870C04EB0C1C0CF1010CFD
:1047800000901FFA8CF0FCF7DDFD24E04FF6FF707F
:10479000C6EBC60C05EB8C0C0CF11A0C1FFA8CF353
:1047A00007EB870C04EB0C1C0CF14E0C1FFA8CF27F
:1047B000C6EBC60C05EB8C0C0CF1010C1FFA8CF14E
:1047C00007EB870C04EB0C1C0CF1010C00901FFA9A
:1047D0008CF0FCF7B7FDDFB1032E19DD00204FF69A
:1047E000FF71A8F10D03DFF858C0CDE900105CF8A7
:1047F0002320AB1D4FF01C0C0CFB063399B207EBCA
:10480000870304EB031398B21023FDF7C1F815E0FA
:1048100000204FF6FF710B4BCDE9001053F8282014
:10482000AB1D4FF01C0C0CFB063399B207EB870352
:1048300004EB031398B21023FDF7AAF800BF7AE740
:10484000F0000020BC0000202DE9FC4105460E468A
:10485000002446E00D2C20DA032094FBF0F1B01D7B
:104860001C2202FB010087B2032094FBF0F100FB45
:10487000114000EB800005EB00101FFA80F80020CB
:104880004FF6FF71CDE90010184850F8242010238E
:1048900039464046FDF77CF821E0032094FBF0F117
:1048A000B01D1C2202FB010087B2032094FBF0F133
:1048B00000FB114000EB800005EB00101FFA80F8B0
:1048C00000204FF6FF71CDE90010A4F10D0008495A
:1048D00051F82020102339464046FDF759F8601C56
:1048E00084B20F2CB6DBBDE8FC810000BC000020C8
:1048F000F000002030B587B0044600BF50481E21AC
:104900004268322000F02AFB44EA0010C4B204F0EE
:10491000200000282ED04FF6FF70FCF7F7FC201186
:10492000484A52F8201003AB4748026847A0FFF7F7
:1049300023FE00B1E2E704F0030038B1424803AAC5
:1049400048A103683046FEF7EDFB06E03E4803AAA7
:104950004BA103683046FEF7E5FBC82001F022FEBC
:104960004FF6FF70FCF7D2FCC8224CA1304600F095
:1049700041FC62E004F0100000285ED04FF6FF70AA
:10498000FCF7C4FC00204FF6FF71102344A2CDE9D0
:1049900000101E21FCF7FCFF00204FF6FF711023D2
:1049A00045A2CDE9001032211E20FCF7F1FF2011B5
:1049B000244A52F8201003AB2348026846A0FFF7B0
:1049C000DBFD00B19AE704F0030038B11E4803AAEA
:1049D00046A103683046FEF7A5FB06E01A4803AA85
:1049E00049A103683046FEF79DFB1FE04FF6FF70BC
:1049F000FCF78CFC00204FF6FF71102349A2CDE993
:104A000000102821FCF7C4FF00204FF6FF7110238F
:104A100048A2CDE9001050211E20FCF7B9FF00206C
:104A2000FCF720FC0546032D00D167E7C8221BA137
:104A3000304600F0DFFB0028D8D1204607B030BD5B
:104A4000900000209C000020740000205749464937
:104A50002D4150D4B6B6CB554450204950C9E8D664
:104A6000C300000041542B43495053544152543D1C
:104A7000312C22554450222C222573222C257300E0
:104A800041542B43495053544152543D302C2255EC
:104A90004450222C222573222C2573004F4B0000FA
:104AA00041544B2D45535020574946492D535441AD
:104AB00020B2E2CAD4000000D5FDD4DAC5E4D6C3E2
:104AC00041544B2D455350C4A3BFE92CC7EBC9D467
:104AD000B5C82E2E2E000000574946492D415020C2
:104AE000D4B6B6CB4950C9E8D6C3000041542B43D5
:104AF000495053544152543D312C22544350222C9E
:104B0000222573222C25730041542B4349505354C2
:104B10004152543D302C22544350222C22257322E2
:104B20002C257300574B5F55503AB7B5BBD8D6D834
:104B3000D1A1000041544B2D45535020C1ACBDD3F1
:104B400054435020534552564552CAA7B0DC00008A
:104B50002DE9FC4707460C46914614228FA190A0F0
:104B600000F048FB14228DA190A000F043FB4FF40D
:104B70007A7001F017FD4FF47A7001F013FD4FF4D5
:104B80007A7001F00FFD4FF47A7001F00BFD894847
:104B90000368894889A102682846FEF7C3FA4FF4E2
:104BA0007A727EA1284600F025FBB9F1000F7DD175
:104BB00014227AA187A000F01DFB88A0FFF784FBD8
:104BC00005468AA105F10C00FBF7CEFA0646002047
:104BD00030704FF6FF71102385A2CDE900102146F9
:104BE0003846FCF7D5FE00204FF6FF71CDE90010E6
:104BF00007F1480188B2102305F10C022146FCF7A9
:104C0000C7FE14227DA180A000F0F4FA7AA0FFF77D
:104C10005BFB054600204FF6FF71CDE9001004F163
:104C2000100081B210237BA23846FCF7B1FE0020B1
:104C30004FF6FF71CDE900106B78313BDFF8E0C132
:104C40005CF8232004F1100399B207F1480398B2ED
:104C50001023FCF79DFE142272A174A000F0CAFA82
:104C600075A0FFF731FB054673A1681CFBF77CFAC2
:104C70000646B046002030704FF6FF71CDE90010B7
:104C800004F1200081B210236CA23846FCF780FEAC
:104C900000204FF6FF7104F12002CDE9001091B21F
:104CA00007F1380290B210236A1C00E073E0FCF7B1
:104CB0006FFE61A108F10100FBF756FA05465EA1FF
:104CC000681CFBF751FA0646B046002030704FF6DC
:104CD000FF71CDE9001004F1300081B2102359A218
:104CE0003846FCF755FE00204FF6FF7104F1300204
:104CF000CDE9001091B207F1280290B210236A1C8E
:104D0000FCF746FE51A108F10100FBF72DFA05461C
:104D10004EA1681CFBF728FA0646002030704FF6BB
:104D2000FF71CDE9001004F1400081B2102348A2C8
:104D30003846FCF72DFE00204FF6FF7104F14002CB
:104D4000CDE9001091B207F1380290B210236A1C2D
:104D5000FCF71EFE00204FF6FF71CDE9001004F1B4
:104D6000500081B210233CA23846FCF711FE00200F
:104D70004FF6FF71CDE900107378303BDFF8E4C0E7
:104D80005CF8232004F1500399B207F1480398B26C
:104D90001023FCF7FDFDBDE8FC8700004F4B000031
:104DA00041542B43574D4F44453D320041542B5203
:104DB000535400008C0000208400002041542B43F9
:104DC000575341503D222573222C222573222C312A
:104DD0002C34000041542B474D52000053444B20CB
:104DE00076657273696F6E3A00000000280000005B
:104DF000B9CCBCFEB0E6B1BE3A0000002B43574D23
:104E00004F44453A0000000041542B43574D4F4456
:104E1000453F0000CDF8C2E7C4A3CABD3A00000078
:104E2000900000202B43575341503A0041542B43EC
:104E3000575341503F0000002200000053534944A3
:104E4000BAC53A00C3DCC2EB3A0000002C000000F7
:104E5000CDA8B5C0BAC53A00BCD3C3DCB7BDCABD86
:104E60003A000000A80000207CB505460C464FF62D
:104E7000FF70FCF74BFA00204FF6FF71102321A2C0
:104E8000CDE900102146FCF783FD00204FF6FF71AD
:104E9000CDE9001004F1190081B2102320A22846A8
:104EA000FCF776FD00204FF6FF71CDE9001004F10C
:104EB0002D0081B210231CA22846FCF769FD0020BA
:104EC0004FF6FF71CDE9001004F1410081B21023CB
:104ED0001AA22846FCF75CFD00204FF6FF71CDE9D1
:104EE000001004F1550081B2102318A22846FCF7E7
:104EF0004FFD04F17D0081B200222846FFF728FE15
:104F00007CBD000041544B5F45535038323636204B
:104F100057494649C4A3BFE9B2E2CAD40000000021
:104F2000C7EBD1A1D4F13A004B4559303A57494625
:104F300049205354412B4150000000004B4559314A
:104F40003A5749464920535441000000574B5F559A
:104F5000503A574946492041500000002DE9FC478E
:104F600006460C4690460027B94600254FF6FF70CE
:104F7000FCF7CCF9424669A15046FEF7D3F8002071
:104F80004FF6FF7110235246CDE900102146FCF781
:104F9000FFFC00204FF6FF71CDE9001004F11E0068
:104FA00081B2102361A23046FCF7F2FC00204FF6DC
:104FB000FF71CDE9001004F1320081B210235EA22E
:104FC0003046FCF7E5FC00204FF6FF71CDE90010FC
:104FD00004F1460081B210235AA23046FCF7D8FCF7
:104FE00000204FF6FF71CDE9001004F1640081B29A
:104FF000102357A23046FCF7CBFC00204FF6FF7180
:1050000004F17802CDE9001091B206F1100290B2DD
:10501000102351A2FCF7BCFC00204FF6FF7104F1F5
:105020008C02CDE9001091B206F1100290B210236B
:105030004CA2FCF7ADFC00204FF6FF7104F1A0027A
:10504000CDE9001091B206F1100290B2102348A2EF
:10505000FCF79EFC00204FF6FF71CDE9001004F133
:10506000780081B2102344A23046FCF791FC50E056
:105070000020FCF7F7F80746AFB3032F00D149E053
:1050800000204FF6FF7105EB8502CDE9001004F119
:10509000780000EB820081B2102338A23046FCF782
:1050A00077FC012F06D1022D02DA681CC5B209E097
:1050B000002507E0022F05D1002D02DD681EC5B2D4
:1050C00000E0022500204FF6FF7105EB8502CDE9D7
:1050D000001004F1780000EB820081B2102326A2B8
:1050E0003046FCF755FC0A2001F05CFA0120FFF77E
:1050F000CDF84846411C01F0FF09142809D14FF0B2
:1051000000091F48006808B9012000E000201C4980
:105110000860ADE700BF2846BDE8FC87257320B9CD
:10512000A4D7F7C4A3CABDD1A1D4F1004B455930CF
:105130003ACFC2D2BBB8F6004B4559313AC9CFD2AB
:10514000BBB8F600574B5F55503AC8B7B6A8000039
:10515000C7EBD1A1D4F13A00544350B7FECEF1C60B
:10516000F7000000544350BFCDBBA7B6CB000000F2
:10517000554450C4A3CABD00A1FA0000202000007D
:10518000A001214210B500BF1748008800F0400080
:105190000028F9D02B201449091D08800F2001F0A8
:1051A00001FA00BF1048008800F040000028F9D044
:1051B0002B200D49091D08800F2001F0F3F900BFD5
:1051C0000948008800F040000028F9D02B2006494B
:1051D000091D08804FF4FA7001F0E4F9142203A1CC
:1051E00003A000F007F810BD004400404F4B000042
:1051F000415400002DE9F04106460D4614460027B3
:10520000002015490880314614A001F051FB3146B9
:1052100014A0FDF777FFE5B1DCB113E00A2001F03F
:10522000C1F90D48008800F4004058B12846FFF746
:105230004BF820B129460EA0FDF764FF06E00020E0
:1052400005490880601E80B2041EE7D100BF04B982
:1052500001273846BDE8F0813600002025730D0A8D
:1052600000000000434D443A25730D0A0000000081
:1052700061636B3A25730D0A000000002DE9F041CF
:1052800006460D4614460027002011490880314685
:1052900010A001F00DFBC5B1BCB10FE00A2001F078
:1052A00081F90B48008800F4004038B12846FFF728
:1052B0000BF800B106E0002005490880601E80B2AE
:1052C000041EEBD100BF04B901273846BDE8F081C8
:1052D00036000020257300001CB500204FF6FF713A
:1052E00010234EA2CDE900101E211420FCF750FB24
:1052F00020E0FFF747FFC8224FA150A0FFF77AFF39
:1053000000204FF6FF71102350A2CDE90010372185
:105310002820FCF73DFB4FF4487001F043F90020D2
:105320004FF6FF7110234DA2CDE900103721282040
:10533000FCF72EFB142240A14CA0FFF75BFF0028D6
:10534000D7D100BF14223CA149A0FFF753FF00288A
:10535000F8D11E212020FFF787FD5DE00A2001F033
:1053600021F90120FEF792FF0020FBF77BFF0446A6
:10537000002C41D04FF6FF70FBF7C8FF012C04D082
:10538000022C19D0042C31D12DE000204FF6FF71F2
:10539000102339A2CDE900101E21FCF7F9FA0020F4
:1053A0004FF6FF7110233BA2CDE900103221FCF72C
:1053B000EFFAFEF751FB19E000204FF6FF711023C2
:1053C0003DA2CDE900101E21FCF7E2FA00204FF6C5
:1053D000FF7110232FA2CDE900103221FCF7D8FA7B
:1053E00000F0AAFC02E000F075F800BF00BF1E212B
:1053F0002020FFF739FD0025142095FBF0F100FB7C
:10540000115038B93248006808B9012000E0002086
:105410002F490860681CC5B2A0E7000041544B2D1D
:10542000455350383236362057494649C4A3BFE960
:10543000B2E2CAD4000000004F4B000041542B439D
:1054400049504D4F44453D3000000000CEB4BCEC07
:10545000B2E2B5BDC4A3BFE921212100B3A2CAD4E1
:10546000C1ACBDD3C4A3BFE92E2E2E004154000011
:10547000415445300000000041544B2D455350200D
:10548000574946492D41502B53544120B2E2CAD4CA
:1054900000000000D5FDD4DAC5E4D6C341544B2D3D
:1054A00045535038323636C4A3BFE9A3ACC7EBC965
:1054B000D4B5C82E2E2E000041544B2D45535020FC
:1054C000574946492D53544120B2E2CAD400000046
:1054D000A00121422DE9F04F87B00024002740F2BF
:1054E000E735A246A046A14600BFFB481E21426800
:1054F0003220FFF733FD044604F0020000283DD0BF
:105500004FF6FF70FBF702FF00204FF6FF711023EC
:10551000F2A2CDE900101E21FCF73AFA00204FF666
:10552000FF711023F3A2CDE9001032211E20FCF7F9
:105530002FFAF84850F8241003ABF7480268F7A098
:10554000FFF71AF800B1D0E7F34803AAF9A10368FE
:105550000298FDF7E7FD6422FDA1FEA0FFF74AFED9
:105560004FF6FF70FBF7D2FE00BF4FF4FA72F8A1BE
:105570000298FFF73FFE0028F7D18AE004F001000F
:1055800000285DD04FF6FF70FBF7C0FE00204FF6FD
:10559000FF711023D1A2CDE900101E21FCF7F8F90C
:1055A00000204FF6FF711023D2A2CDE90010322166
:1055B0001E20FCF7EDF9D74850F8241003ABD6486D
:1055C0000268E7A0FEF7D8FF00B18EE71422E0A141
:1055D000E0A0FFF70FFED04803AAE6A103680298F7
:1055E000FDF7A0FD1FE04FF6FF70FBF78FFE0020D8
:1055F0004FF6FF711023E6A2CDE900102821FCF739
:10560000C7F900204FF6FF711023E5A2CDE9001085
:1056100050211E20FCF7BCF90020FBF723FE0646B4
:10562000032E00D161E7C822C9A10298FFF7E2FD6D
:105630000028D8D1C822C6A1DEA0FFF7DBFD28E0F4
:105640004FF6FF70FBF762FE00204FF6FF7110234C
:10565000A2A2CDE900101E21FCF79AF900204FF616
:10566000FF711023A3A2CDE9001032211E20FCF708
:105670008FF91422B6A1D3A0FFF7BCFDA648D4A190
:1056800002680298FDF74EFD1422B1A10298FFF7BF
:10569000B1FD4FF6FF70FBF739FE00204FF6FF71AA
:1056A00010238EA2CDE900101E21FCF771F9002015
:1056B0004FF6FF7110238FA2CDE9001032211E207A
:1056C000FCF766F94FF6FF703E23EF22322100907F
:1056D0001E20FBF737FE00204FF6FF711023C1A2FA
:1056E000CDE9001032211E20FCF752F9C82000F04D
:1056F00059FF00204FF6FF711023C0A2CDE9001022
:1057000032211E20FCF744F94FF6FF705C23EF2294
:10571000502100901E20FBF715FE03A8FEF702FFA4
:105720007D4803AABDA103680298FDF7FBFC002099
:105730004FF6FF711023CDE9001041211E20029A7F
:10574000FCF726F900204FF6FF711023B8A2CDE92F
:10575000001050211E20FCF71BF900204FF6FF71AE
:105760001023B5A2CDE9001050217820FCF710F9E4
:1057700000204FF6FF711023B1A2CDE90010642183
:105780001E20FCF705F900204FF6FF711023AFA291
:10579000CDE9001073211E20FCF7FAF8AE4800682E
:1057A000AE490968CDE90010AD48AEA2B421036846
:1057B0001E2000F049FA00204FF6FF71CDE90010DD
:1057C000544850F82420102350219620FCF7E0F88C
:1057D0000020AA49088015E20020FBF743FD064699
:1057E000032E09D14FF0000AFFF7CCFC142258A178
:1057F000A3A0FFF7FFFC06E2012E27D1032C01D066
:10580000022C24D10A2095FBF0FB424850F82420BA
:105810005B469FA10298FDF785FC00204FF6FF71C3
:105820001023CDE9001064215420029AFCF7B0F84F
:10583000C82247A19CA0FFF7DDFCC82000F0B2FE03
:10584000642243A10298FFF719FD64274AE1012C65
:1058500022D1FFF797FC14223DA197A0FFF7CAFCC5
:105860000A2095FBF0FB2B4850F824205B4688A1CA
:105870000298FDF757FC00204FF6FF711023CDE989
:10588000001064215420029AFCF782F88DA002993E
:1058900001F00EF8642725E10A2095FBF0FB1D4876
:1058A00050F824205B467AA10298FDF73BFC0020CB
:1058B0004FF6FF711023CDE9001064215420029AA5
:1058C000FCF766F8C82222A17FA0FFF793FCC8204E
:1058D00000F068FE6422FFE09000002041544B2D50
:1058E00045535020574946492D415020B2E2CAD471
:1058F00000000000D5FDD4DAC5E4D6C341544B2DD9
:10590000455350C4A3BFE92CC7EBC9D4B5C82E2E4C
:105910002E0000009C0000207400002057494649DA
:105920002D415020D4B6B6CB554450204950C9E83B
:10593000D6C3000041542B43495053544152543D67
:1059400022554450222C222573222C25730000005E
:105950004F4B000041542B4349504D55583D3000AA
:10596000574946492D415020D4B6B6CB4950C9E8D5
:10597000D6C3000041542B43495053544152543D27
:1059800022544350222C222573222C257300000020
:10599000574B5F55503AB7B5BBD8D6D8D1A1000008
:1059A00041544B2D45535020C1ACBDD3544350CA34
:1059B000A7B0DC0041542B4349504D4F44453D3185
:1059C0000000000041542B4349504D55583D3100D3
:1059D00041542B4349505345525645523D312C2595
:1059E00073000000C5E4D6C341544B2D455350C449
:1059F000A3BFE9B3C9B9A62100000000574B5F550A
:105A0000503ACDCBB3F6B2E2CAD420204B45593040
:105A10003AB7A2CBCDCAFDBEDD0000004950B5D8D3
:105A2000D6B73A257320B6CBBFDA3A25730000000B
:105A3000D7B4CCAC3A000000C4A3CABD3A00000001
:105A4000B7A2CBCDCAFDBEDD3A000000BDD3CAD59A
:105A5000CAFDBEDD3A0000008C0000208800002056
:105A600084000020C7EBD3C3C9E8B1B8C1ACBDD333
:105A700057494649C8C8B5E33A000000360000203F
:105A800041542B4349504D4F44453D3000000000E8
:105A900041544B2D383236362573B2E2CAD4253004
:105AA00032640D0A0000000041542B434950534515
:105AB0004E443D323500000041542B43495053457C
:105AC0004E4400002573000041542B434950534578
:105AD0004E443D302C323500AFF28C110298FFF766
:105AE000CDFB64270FB1781EC7B2012F08D14FF646
:105AF000FF707023EF22642100905420FBF722FCFA
:105B0000681C85B2052000F04DFD4148008800F476
:105B10000040E8B33E480088C0F30E0800203D492D
:105B200001F80800AFF26400FDF7ECFA42463AA132
:105B30000298FDF7F7FA4FF6FF708223EF227321E8
:105B400000905420FBF7FEFB00204FF6FF7110235E
:105B5000CDE9001073215420029AFBF719FF4FF68C
:105B6000FF7040F23F13EF22822100901E20FBF7CE
:105B7000E9FB00204FF6FF711023264ACDE9001003
:105B800082211E20FBF704FF00202149088000E04D
:105B900006E0B9F12B0F02D04FF47A7500E0002532
:105BA000B5F57A7F1DD1FEF7A9FB8146B9F12B0F20
:105BB0000BD100204FF6FF7110231CA2CDE900107D
:105BC00050213C20FBF7E4FE0AE000204FF6FF7175
:105BD000102319A2CDE9001050213C20FBF7D8FE7C
:105BE0000025142095FBF0F100FB115038B9154841
:105BF000006808B9012000E0002012490860012077
:105C0000FEF744FBE8E500BF504607B0BDE8F08F63
:105C100036000020F0050020CAD5B5BD2564D7D6D2
:105C2000BDDA2CC4DAC8DDC8E7CFC200C1ACBDD331
:105C3000B3C9B9A600000000C1ACBDD3CAA7B0DC8F
:105C400000000000A00121422DE9FC4705460C465A
:105C500017461E46DDE90A8900204FF6FF71102322
:105C60003A46CDE9001021462846FBF791FE002078
:105C70004FF6FF71CDE9001004F1140081B210233A
:105C800026A22846FBF784FE00204FF6FF71CDE9DF
:105C9000001004F1240081B2102322A22846FBF751
:105CA00077FE00204FF6FF71CDE9001004F13400BB
:105CB00081B210231EA22846FBF76AFE00204FF691
:105CC000FF7104F11402CDE9001091B205F11E023A
:105CD00090B210233246FBF75BFE00204FF6FF71B7
:105CE00004F12402CDE9001091B205F1360290B220
:105CF00010234246FBF74CFE00204FF6FF7104F1E3
:105D00003402CDE9001091B205F11E0290B21023C9
:105D10004A46FBF73DFEBDE8FC870000535349446B
:105D20003A000000BCD3C3DCB7BDCABD3A000000D6
:105D3000C3DCC2EB3A0000002DE9F04786B0002634
:105D400040F2E7344FF0000900274FF000083222FC
:105D5000FDA1FEA0FFF74EFA1422FBA1FEA0FFF763
:105D600049FA601C00F01EFC601C00F01BFC601C6B
:105D700000F018FC601C00F015FCF9480368F948B5
:105D8000F9A102685846FDF7CDF900BF4FF49672AD
:105D9000FAA15846FFF72EFA0028F7D100BFFA48BB
:105DA0001E2102683220FFF7D9F8F8490978084324
:105DB000F64908700846007800F00200002845D037
:105DC0004FF6FF70FBF7A2FA00204FF6FF71102389
:105DD000EFA2CDE900101E21FBF7DAFD00204FF6FF
:105DE000FF711023F0A2CDE9001032211E20FBF735
:105DF000CFFDF548E54A127850F8221002ABF3487F
:105E00000268F3A0FEF7B8FB00B1C8E7EF4802AAAA
:105E1000F5A103685846FDF785F9C82000F0C2FBDC
:105E20001422C9A1F7A0FFF7E5F9C82000F0BAFBDA
:105E30004FF6FF70FBF76AFA00BF4FF4FA72C2A187
:105E40005846FFF7D7F90028F7D18EE0CF48007801
:105E500000F0010000285FD04FF6FF70FBF756FA04
:105E600000204FF6FF711023C9A2CDE900101E21BA
:105E7000FBF78EFD00204FF6FF711023CAA2CDE97B
:105E8000001032211E20FBF783FDCF48BF4A127855
:105E900050F8221002ABCD480268DDA0FEF76CFB83
:105EA00000B17CE71422A8A1D6A0FFF7A3F9C74848
:105EB00002AADCA103685846FDF734F91FE04FF64B
:105EC000FF70FBF723FA00204FF6FF711023DCA2CE
:105ED000CDE900102821FBF75BFD00204FF6FF7194
:105EE0001023DBA2CDE9001050211E20FBF750FD4E
:105EF0000020FBF7B7F90546032D00D14FE7C82274
:105F000091A15846FFF776F90028D8D1C8228EA172
:105F1000D4A0FFF76FF928E04FF6FF70FBF7F6F912
:105F200000204FF6FF71102399A2CDE900101E2129
:105F3000FBF72EFD00204FF6FF7110239AA2CDE94A
:105F4000001032211E20FBF723FD14227EA1C9A0E0
:105F5000FFF750F99D48CAA102685846FDF7E2F8DC
:105F6000322279A15846FFF745F94FF6FF70FBF74B
:105F7000CDF900204FF6FF71102385A2CDE9001066
:105F80001E21FBF705FD00204FF6FF71102386A2AE
:105F9000CDE9001032211E20FBF7FAFC4FF6FF700E
:105FA0003E23EF22322100901E20FBF7CBF9002088
:105FB0004FF6FF711023B7A2CDE9001032211E2049
:105FC000FBF7E6FC4FF6FF705C23EF2250210090B8
:105FD0001E20FBF7B7F902A8FEF7A4FA7B4802AA35
:105FE000B4A103685846FDF79DF800204FF6FF71F5
:105FF00010235A46CDE9001041211E20FBF7C8FCB2
:1060000000204FF6FF711023AFA2CDE90010502100
:106010001E20FBF7BDFC00204FF6FF711023ACA241
:10602000CDE9001050217820FBF7B2FC00204FF69C
:10603000FF711023A8A2CDE9001064211E20FBF7F8
:10604000A7FC00204FF6FF711023A6A2CDE9001097
:1060500073211E20FBF79CFC41480068A449096895
:10606000CDE900103F48A3A2B42103681E20FFF72A
:10607000EBFD00204FF6FF71CDE900105248434977
:10608000097850F82120102350219620FBF780FC3E
:1060900000209E49088029E20020FBF7E3F805462E
:1060A000032D09D14FF00009FFF76CF8142226A147
:1060B00097A0FFF79FF81AE2012D2DD13348007801
:1060C000032803D031480078022826D10A2094FB07
:1060D000F0FA3D482D49097850F82120534690A107
:1060E0005846FDF71FF800204FF6FF7110235A465F
:1060F000CDE9001064215420FBF74AFCC82212A10C
:106100008DA0FFF777F8C82000F04CFA64220EA1AA
:106110005846FFF7B3F864265AE11C480078012876
:1061200010D1FFF72FF8142207A187A0FFF762F81C
:106130000A2094FBF0FA24481449097850F82120E9
:10614000534607E11BE100004F4B000041542B4335
:10615000574D4F44453D310041542B52535400009C
:10616000800000207800002041542B43574A4150C2
:106170003D222573222C22257322000057494649CF
:1061800020474F542049500090000020F900002083
:1061900041544B2D45535020574946492D535441A6
:1061A00020B2E2CAD4000000D5FDD4DAC5E4D6C3DB
:1061B00041544B2D455350C4A3BFE92CC7EBC9D460
:1061C000B5C82E2E2E0000009C0000207400002078
:1061D000574946492D53544120D4B6B6CB55445067
:1061E000204950C9E8D6C30041542B434950535469
:1061F0004152543D22554450222C222573222C25F5
:106200007300000041542B4349504D55583D300018
:10621000574946492D53544120D4B6B6CB4950C9AD
:10622000E8D6C30041542B43495053544152543D86
:1062300022544350222C222573222C257300000067
:10624000574B5F55503AB7B5BBD8D6D8D1A100004F
:1062500041544B2D45535020C1ACBDD3544350CA7B
:10626000A7B0DC0041542B4349504D4F44453D31CC
:106270000000000041542B4349504D55583D31001A
:1062800041542B4349505345525645523D312C25DC
:1062900073000000574B5F55503ACDCBB3F6B2E2D6
:1062A000CAD420204B4559303AB7A2CBCDCAFDBE47
:1062B000DD0000004950B5D8D6B73A257320B6CBDB
:1062C000BFDA3A2573000000D7B4CCAC3A00000026
:1062D000C4A3CABD3A000000B7A2CBCDCAFDBEDD43
:1062E0003A000000BDD3CAD5CAFDBEDD3A000000A9
:1062F0007C000020C7EBC9E8D6C3C2B7D3C9C6F734
:10630000CEDECFDFB2CECAFDCEAA3A0036000020E4
:1063100041542B4349504D4F44453D30000000004F
:1063200041544B2D383236362573B2E2CAD425306B
:1063300032640D0A0000000041542B43495053457C
:106340004E443D323500000041542B4349505345E3
:106350004E44000068A15846FCF7E4FE00204FF6CA
:10636000FF7110235A46CDE9001064215420FBF739
:106370000FFB594665A000F09BFA642628E00A202E
:1063800094FBF0FA62486349097850F8212053469B
:10639000AFF274015846FCF7C5FE00204FF6FF71BE
:1063A00010235A46CDE9001064215420FBF7F0FA7F
:1063B000C822AFF26C2158A0FEF71CFFC82000F0E5
:1063C000F1F86422AFF280215846FEF757FF6426A9
:1063D0000EB1701EC6B2012E08D14FF6FF707023A9
:1063E000EF22642100905420FAF7ACFF601C84B2C5
:1063F0000A2000F0D7F84C48008800F40040E8B3C9
:1064000049480088C0F30E0700204849C8553FA0FE
:10641000FCF778FE3A4646A15846FCF783FE4FF655
:10642000FF708223EF22732100905420FAF78AFF35
:1064300000204FF6FF7110235A46CDE9001073215A
:106440005420FBF7A5FA4FF6FF7040F23F13EF22FE
:10645000822100901E20FAF775FF00204FF6FF7191
:106460001023324ACDE9001082211E20FBF790FA5A
:1064700000202D490880B8F12B0F00E004E002D085
:106480004FF47A7400E00024B4F57A7F1DD1FDF753
:1064900035FF8046B8F12B0F0BD100204FF6FF716E
:1064A000102328A2CDE9001050213C20FBF770FA00
:1064B0000AE000204FF6FF71102325A2CDE900105D
:1064C00050213C20FBF764FA0024142094FBF0F1E7
:1064D00000FB114038B92148006808B9012000E0EC
:1064E00000201E4908600120FDF7D0FED4E500BF62
:1064F000484606B0BDE8F08741544B2D3832363659
:106500002573B2E2CAD425640D0A00002573000089
:106510009C000020F900002041542B434950534572
:106520004E443D302C32350036000020F00500206E
:10653000CAD5B5BD2564D7D6BDDA2CC4DAC8DDC846
:10654000E7CFC200C1ACBDD3B3C9B9A600000000FB
:10655000C1ACBDD3CAA7B0DC00000000A00121423D
:1065600010B56FF00400FBF777FD0A4800680A4990
:10657000B0FBF1F0094908700846007800EB4001D3
:10658000C1EBC0104FF6FF7101EAC000044908805A
:1065900010BD00000000002000127A00280000203A
:1065A0002A0000200146114A12884A434FF0E02396
:1065B0005A6100229A611A46126942F001021A6178
:1065C00000BF4FF0E022106900F001021AB100F4A0
:1065D0008032002AF5D04FF0E022126922F0010249
:1065E0004FF0E0231A6100229A6170472A000020D0
:1065F0000146114A12784A434FF0E0235A610022C3
:106600009A611A46126942F001021A6100BF4FF006
:10661000E022106900F001021AB100F48032002A71
:10662000F5D04FF0E022126922F001024FF0E02392
:106630001A6100229A617047280000202DE9F84F66
:1066400080460F4615461C46BA462046E31704EB23
:106650005373DB102146E61704EB5676F610A4EBD5
:10666000C6060EB1012600E000263344224604EBA4
:10667000D2767610734303F0FF0BA5F12000C5B26C
:1066800000265CE00C2C07D105EB45002E4901EB00
:10669000800010F806901BE0102C05D12B4800EB71
:1066A000051010F8069013E0182C07D105EBC50073
:1066B000274901EB800010F8069009E0202C05D155
:1066C000244800EB851010F8069001E0BDE8F88F33
:1066D000002000902DE009F0800030B10A9882B2CD
:1066E00039464046FAF7F4FE05E00B9882B2394687
:1066F0004046FAF7EDFE4FEA49604FEA1069781C10
:1067000087B215484088B84200DCDFE7A7EB0A00F3
:10671000A0420AD1574608F101001FFA80F80E483E
:106720000088404500DCD1E706E00098401CC0B27C
:10673000009000980828CEDB00BF701CC6B25E45F2
:10674000A0DB00BFC2E70000526A0008C66E000866
:10675000B674000812820008C80100202DE9F04F2D
:10676000A1B007460D4690461C46A9462046E217B2
:1067700004EB5272D2102146E31704EB5373DB1083
:10678000A4EBC3030BB1012300E000231A446243CE
:1067900002F0FF0A224669464046FAF701FC00264D
:1067A0002EE01DF8060020904FF0000B22E020980C
:1067B00000F0800030B12A9882B229463846FAF7B4
:1067C00087FE05E02B9882B229463846FAF780FE0C
:1067D00020984006000E2090681C85B2A5EB0900A9
:1067E000A04203D14D46781C87B206E00BF10100B0
:1067F00000F0FF0BBBF1080FD9DB00BF701CC6B265
:106800005645CEDB21B0BDE8F08F000000BF054A41
:10681000128802F04002002AF9D0C2B2014B1B1DBF
:106820001A8070470038014010B5FFF799FE4FF409
:10683000A060FBF787F94FF4165000F059F84FF4B9
:106840001650FCF7C5FAFBF719F9FAF7DBFCFBF772
:10685000F3FAFAF7A3FEFBF7FBFFFEF73DFD00207E
:1068600010BD2DE9F04106460F46FAF776F8041EF2
:106870000D4618BF0120284320F00040C0F17F6082
:1068800000F1E040C00F0ED0301C18BF012038438B
:1068900020F00040C0F17F6000F1E040C00F04BF75
:1068A0000120FCF775FC20462946BDE8F081000078
:1068B0000FB438B505A800900B48009A0499FCF76E
:1068C00045FC0020009000BF0848FAF765FA002850
:1068D000FAD10548F9F75AFCC4B221460348FCF73F
:1068E000F1F938BC5DF814FBF00100208000024093
:1068F00010B586B00446012144F20400FBF75EF9AE
:106900004FF40070ADF8140003208DF81600182025
:106910008DF8170005A91C48FAF763FA4FF4806058
:10692000ADF8140004208DF8170005A91648FAF7F1
:1069300058FA25208DF8000003208DF801008DF80D
:10694000020001208DF803006846FBF7C3F80194AC
:106950000020ADF80800ADF80A00ADF80C00ADF865
:1069600010000C20ADF80E0001A90848FCF756FBFA
:10697000012240F225510548FCF72AFB012103487A
:10698000FCF798FA06B010BD00080140003801403D
:10699000800080008000FC1F40004000FF7F20003E
:1069A0001000F00F000800046002800100020004E3
:1069B000000104020800E83F01020202020208028C
:1069C000C83F04020702040204020402F47F00002C
:1069D0000000F80F08080808F80F08080808F80F62
:1069E0002002222224222812280A2002FF7F0000EF
:1069F0000000FC1F0000000000000000FF7F80007E
:106A0000800088088810842082408140A0004000D7
:106A1000400080008000FF7F200020002000E00F69
:106A200020082008200810081008080804050202A1
:106A30008000FE3F02202000FF7F10047802C00388
:106A40003C1C8000FF7FA00290048C1883608000B3
:106A50000000000000000000000000000000000036
:106A600000003F4000000000000000003000400037
:106A700030004000000009000BC03D000BC03D008D
:106A8000090018C024407FE0224031800000180037
:106A900024C01B000D803240018003801C40274031
:106AA0001C80074000401000600000000000000053
:106AB00000000000000000001F8020404020000077
:106AC000402020401F8000000000090006001F80B9
:106AD000060009000000040004003F8004000400D8
:106AE0000000001000600000000000000000040032
:106AF0000400040004000400000000000040000046
:106B0000000000000000002001C006003800400026
:106B100000001F802040204020401F800000000017
:106B200010403FC000400000000018C0214022403B
:106B300024401840000010802040244024401B8046
:106B4000000002000D0011003FC0014000003C8029
:106B5000244024402440238000001F8024402440FF
:106B60003440038000003000200027C0380020009F
:106B700000001B802440244024401B8000001C0097
:106B800022C0224022401F80000000000000084078
:106B90000000000000000000000004600000000091
:106BA0000000000004000A0011002080404009009D
:106BB0000900090009000900000000004040208091
:106BC00011000A00040018002000234024001800CF
:106BD00000001F802040274029401F400000004047
:106BE00007C039000F0001C0004020403FC02440D2
:106BF00024401B8000001F80204020402040308027
:106C0000000020403FC0204020401F800000204066
:106C10003FC024402E4030C0000020403FC02440F0
:106C20002E00300000000F001080204022403380F2
:106C3000020020403FC0040004003FC0204020402C
:106C400020403FC020402040000000602020202045
:106C50003FC02000200020403FC024400B0030C037
:106C6000204020403FC020400040004000C03FC0C6
:106C70003C0003C03C003FC0000020403FC00C402F
:106C800023003FC020001F802040204020401F8064
:106C9000000020403FC024402400180000001F8056
:106CA0002140214020E01FA0000020403FC02440A0
:106CB000260019C0004018C02440244022403180E2
:106CC0000000300020403FC0204030000000200085
:106CD0003F80004000403F80200020003E0001C077
:106CE000070038002000380007C03C0007C038000B
:106CF0000000204039C0060039C0204000002000BC
:106D0000384007C0384020000000304021C02640F5
:106D1000384020C00000000000007FE040204020FC
:106D20000000000070000C00038000400000000024
:106D3000402040207FE000000000000020004000D4
:106D400020000000000000100010001000100010D3
:106D500000100000000040000000000000000000E3
:106D600002800540054003C0004020003FC00440B1
:106D700004400380000000000380044004400640FB
:106D8000000000000380044024403FC00040000099
:106D900003800540054003400000000004401FC080
:106DA000244024402000000002E005500550065019
:106DB000042020403FC00440040003C00040000005
:106DC000044027C000400000000000100010041024
:106DD00027E00000000020403FC00140070004C041
:106DE0000440204020403FC000400040000007C059
:106DF000040007C0040003C00000044007C00440B2
:106E0000040003C0004000000380044004400380ED
:106E10000000041007F0045004400380000000004C
:106E200003800440045007F00010044007C00240F3
:106E3000040004000000000006400540054004C0B6
:106E40000000000004001F80044000400000040017
:106E500007800040044007C000400400070004C051
:106E6000018006000400060001C0070001C0060002
:106E70000000044006C0010006C0044000000410E9
:106E8000071004E00180060004000000044005C073
:106E90000640044000000000000004007BE04020A9
:106EA0000000000000000000FFF0000000000000F3
:106EB00040207BE004000000000040008000400013
:106EC0002000200040000000000000000000000042
:106ED0000000000000000000000000001FCC000CBB
:106EE0000000000000000000080030006000080002
:106EF000300060000000022003FC1E20022003FC82
:106F00001E200220000000000E1811043FFF108414
:106F10000C78000000000F0010840F3800C00778C4
:106F200018840078000000780F8410C411240E9893
:106F300000E4008400080800680070000000000001
:106F400000000000000000000000000007E018182A
:106F5000200440020000000040022004181807E04E
:106F60000000000000000240024001800FF001809C
:106F70000240024000000080008000800FF8008086
:106F80000080008000000001000D000E00000000E5
:106F900000000000000000000080008000800080F1
:106FA0000080008000800000000C000C0000000049
:106FB00000000000000000000006001800600180D2
:106FC000060018002000000007F008081004100454
:106FD000080807F000000000080408041FFC000473
:106FE00000040000000000000E0C101410241044D7
:106FF00011840E0C000000000C1810041104110480
:1070000012880C700000000000E003200424082413
:107010001FFC0024000000001F98108411041104BC
:10702000108810700000000007F008881104110497
:1070300018880070000000001C00100010FC1300F5
:107040001C001000000000000E3811441084108451
:1070500011440E38000000000700088C1044104452
:10706000088807F00000000000000000030C030C7B
:107070000000000000000000000000010106000008
:107080000000000000000000008001400220041009
:107090000808100400000220022002200220022022
:1070A0000220022000000000100408080410022042
:1070B00001400080000000000E001200100C106C57
:1070C00010800F00000003E00C1813E4142417C410
:1070D000082807D000000004003C03C41C400740FF
:1070E00000E4001C000410041FFC1104110411042E
:1070F0000E880070000003E00C1810041004100447
:1071000010081C10000010041FFC100410041004D0
:10711000080807F0000010041FFC1104110417C434
:1071200010040818000010041FFC1104110017C0FF
:1071300010000800000003E00C18100410041044B4
:107140001C780040000010041FFC108400800080A8
:1071500010841FFC10040000100410041FFC100415
:1071600010040000000000030001100110011FFEC8
:1071700010001000000010041FFC110403801464B0
:10718000181C1004000010041FFC1004000400046C
:107190000004000C000010041FFC1F0000FC1F0076
:1071A0001FFC1004000010041FFC0C04030000E08E
:1071B00010181FFC100007F0080810041004100439
:1071C000080807F0000010041FFC108410801080D5
:1071D00010800F00000007F0081810241024101C65
:1071E000080A07F2000010041FFC1104110011C06E
:1071F00011300E0C000400000E1C110410841084C9
:1072000010441C3800001800100010041FFC10046B
:1072100010001800000010001FF810040004000403
:1072200010041FF8100010001E0011E0001C007078
:1072300013801C0010001FC0103C00E01F0000E085
:10724000103C1FC000001004180C163401C001C00F
:107250001634180C100410001C00130400FC130456
:107260001C00100000000804101C1064108413049B
:107270001C04101800000000000000007FFE400207
:10728000400240020000000030000C00038000605B
:10729000001C0003000000004002400240027FFE8C
:1072A000000000000000000000002000400040003E
:1072B0004000200000000001000100010001000169
:1072C000000100010001000040004000200000001B
:1072D0000000000000000000009801240144014467
:1072E000014400FC000410001FFC0088010401049C
:1072F0000088007000000000007000880104010494
:1073000001040088000000000070008801040104EE
:1073100011081FFC0004000000F80144014401446E
:10732000014400C800000000010401040FFC110426
:10733000110411001800000000D6012901290129BB
:1073400001C90106000010041FFC008401000100B7
:10735000010400FC000400000104190419FC0004ED
:1073600000040000000000000003000101011901F9
:1073700019FE0000000010041FFC0024004001B4AE
:10738000010C010400000000100410041FFC0004A4
:10739000000400000000010401FC0104010001FCE4
:1073A0000104010000FC010401FC00840100010053
:1073B000010400FC0004000000F8010401040104C1
:1073C000010400F80000010101FF0085010401042F
:1073D00000880070000000000070008801040104B3
:1073E000010501FF00010104010401FC0084010406
:1073F000010001800000000000CC012401240124D0
:1074000001240198000000000100010007F80104B8
:10741000010400000000010001F800040004000461
:10742000010801FC0004010001800170000C001043
:1074300001600180010001F0010C003001C000304A
:10744000010C01F0010000000104018C00740170C6
:10745000018C01040000010101810171000E00187E
:1074600001600180010000000184010C013401442D
:107470000184010C00000000000000000000010079
:107480003EFC400240020000000000000000FFFF40
:107490000000000000000000400240023EFC01002D
:1074A000000000000000000060008000800040003C
:1074B000400020002000000000000000000000004C
:1074C00000000000000000000000000000000000BC
:1074D00000000000000000000000000000000000AC
:1074E0000000000000000000000F80380FFE380F81
:1074F00080380000000000000000000000000000D4
:10750000000000000100000600000C000038000030
:107510003100000600000C000038000030000000C0
:1075200000000000000061800067F807F98000613A
:10753000800061800061800061800067F807F98049
:1075400000618000000000000000000001C0E003B6
:10755000E0F00630080418081FFFFE040E08078735
:10756000F00381E000000000000001F000060C00C4
:10757000040408060C7001F9C0000E00003BE00096
:10758000EC18070808040C180003E00000000001D4
:10759000E00007F003F818041C0804170807E1D0FE
:1075A00003C0E00023B0003C0800200800001000E9
:1075B00000000000000100003100003200001C004B
:1075C00000000000000000000000000000000000BB
:1075D00000000000000000000000000000000000AB
:1075E0000000000000007F0001FFC00780F00C00D9
:1075F000181000042000020000000000002000021B
:107600001000040C00180780F001FFC0007F00008C
:10761000000000000000000000000000000000006A
:1076200000004200006600006600003C00001800F8
:1076300003FFC0001800003C000066000066000068
:1076400042000000000008000008000008000008D8
:107650000000080001FFC00008000008000008004A
:1076600000080000080000000000000100003100D8
:10767000003200001C0000000000000000000000BC
:1076800000000000000000000000000000000800F2
:1076900000080000080000080000080000080000C2
:1076A00008000008000008000008000000000000BA
:1076B0000000000000003800003800003800000022
:1076C00000000000000000000000000000000000BA
:1076D000000000000000000600001C000070000117
:1076E00080000E0000380000C0000700001C0000F1
:1076F000300000000000000000007F8001FFE00378
:1077000080700600180400080400080600180380B2
:107710007001FFE0007F800000000000000000001A
:1077200001000801000801000803FFF807FFF80046
:107730000008000008000008000000000000000031
:107740000001C03802C0580400980401180402184F
:10775000040418061C1803F81801E0F800000000E3
:10776000000000000001C0E003C0F00400080408AD
:107770000804080806180803F41801E7F00001E0FF
:10778000000000000000000000000300000D0000E9
:10779000110000610000810803010807FFF80FFFD6
:1077A000F80001080001080000000000000000E0EF
:1077B00007FCD00608080610080610080610080680
:1077C0001838060FF00607C0000000000000000097
:1077D00000003F8001FFE003843002081804100815
:1077E000041008041008071810030FF00007C00069
:1077F000000000000000000003C0000700000600B9
:10780000000600F80607F806180006E0000700006A
:1078100006000000000000000001E1E003F7F006B0
:107820003410041808041808040C08040C08061680
:107830001803F3F001C1E000000000000000F800B0
:1078400003FC30030638040208040208040208049A
:1078500004100308F001FFC0007F000000000000DA
:107860000000000000000000000000000000703870
:1078700000703800703800000000000000000000B8
:1078800000000000000000000000000000000000F8
:107890000000301A00301C00000000000000000052
:1078A00000000000000000000000000000080000D0
:1078B000140000220000410000808001004002000E
:1078C0002004001008000800000000000000210053
:1078D0000021000021000021000021000021000003
:1078E0002100002100002100002100000000000014
:1078F0000000000008000804001002002001004001
:1079000000808000410000220000140000080000F8
:10791000000000000003C00004C0000400000800D4
:1079200038080F380808380810000C300007E0004D
:1079300003C000000000000000003F8000FFE003E3
:107940008070020F1006708804C088048308047FCA
:107950008802C09003012000FE40000008000018CB
:107960000001F8003E0801C20007020007E2000023
:10797000FE00001FC80001F80000380000080400E5
:107980000807FFF807FFF8040808040808040808B7
:1079900004080806180803F41801E7F00001E000E5
:1079A0000000000000003F8001FFE0038070020043
:1079B0001804000804000804000804001006002051
:1079C0000780C000000004000807FFF807FFF80464
:1079D00000080400080400080400180200100380D6
:1079E0007001FFE0007F8000000004000807FFF83E
:1079F00007FFF80408080408080408080408080435
:107A00003E080400080600180100600000000400A1
:107A10000807FFF807FFF804080804080004080036
:107A2000040800043E00060000060000018000007B
:107A30000000000000003F8001FFE00380700600AE
:107A4000180400080402080402080203F00783F087
:107A500000020000020004000807FFF807FFF80416
:107A600008080008000008000008000008000408DA
:107A70000807FFF807FFF8040008000000000000F6
:107A800004000804000804000807FFF807FFF804D2
:107A900000080400080400080000000000000000C6
:107AA00000000006000007000001040001040001BE
:107AB00004000307FFFE07FFFC04000004000004AD
:107AC000000004000807FFF807FFF8040C0800187E
:107AD00000003E0004C7800503C80600F804003813
:107AE00004001800000804000807FFF807FFF80466
:107AF000000800000800000800000800000800005E
:107B00000800001800006000000004000807FFF8EB
:107B100007800807FC00007FC00003F80007C000D2
:107B2000780007800807FFF807FFF8040008040042
:107B30000807FFF807000803C00000E00000380055
:107B4000001E000007000001C00400F007FFF80459
:107B50000000000000007F8001FFE003807006004D
:107B60001804000804000806001803003001FFE0B4
:107B7000007F8000000004000807FFF807FFF804FA
:107B80000408040400040400040400040400060CB7
:107B90000003F80001F000000000000000007F80FA
:107BA00001FFE00380700600880400880400C80616
:107BB000003C03003E01FFE6007F8400000004005B
:107BC0000807FFF807FFF8040808040800040C0081
:107BD000040F00040BC00610F003F03801E00800A9
:107BE000000800000001E0F803F03006301004182F
:107BF00008041808040C08040C080206180207F010
:107C00000781E0000000018000060000040000047D
:107C1000000004000807FFF807FFF804000804004C
:107C20000004000006000001800004000007FFE0DF
:107C300007FFF0040018000008000008000008001A
:107C4000000800000804001007FFE0040000040022
:107C50000006000007E00007FE00041FE00001F836
:107C60000000380001E0043E0007C00006000004E8
:107C7000000004000007E00007FFC0041FF8000731
:107C8000C007F80007FF80043FF80007C004F800B1
:107C900007000004000000000004000806001807A8
:107CA000C07805F1C8003E00001F800463E807802B
:107CB000F806001804000800000004000006000098
:107CC00007800007E008047C08001FF80007F800A0
:107CD000180804E008070000060000040000000087
:107CE000000100080600380400F80403E8040F0847
:107CF000047C0805F00807C00807001804006000AD
:107D00000000000000000000000000000000000073
:107D1000003FFFFE2000022000022000022000029F
:107D20002000020000000000000000000800000722
:107D3000000000C0000038000006000001C0000084
:107D40003000000E000001000000000000000000F4
:107D50002000022000022000022000022000023F3A
:107D6000FFFE000000000000000000000000000016
:107D700000000000000000080000100000300000BB
:107D8000200000300000100000080000000000008B
:107D900000000000010000010000010000010000DF
:107DA00001000001000001000001000001000001CD
:107DB00000000100000100000000000000000020A1
:107DC0000000200000100000100000000000000073
:107DD000000000000000000000000000000000F0B3
:107DE0000019F8001B1800220800260800240800CB
:107DF0002410003FF8001FF80000080000180000E1
:107E00000004000007FFF80FFFF00018180010082A
:107E1000002008002008003018001FF0000FC000EC
:107E200000000000000007C0001FF0001830002014
:107E300008002008002008003C08001C100000601A
:107E40000000000000000000000007C0001FF0005C
:107E5000381800200800200800200804101007FF30
:107E6000F80FFFF00000100000000000000000000C
:107E70000007C0001FF00012300022180022080086
:107E80002208003208001E10000E20000000000032
:107E90000000200000200800200801FFF803FFF880
:107EA0000620080420080420080720000300000022
:107EB000000000000000000E000E6E001FF30031F5
:107EC000B10020B10020B1003191001F13002E1E1F
:107ED00000200E00300000000004000807FFF80F2B
:107EE000FFF8001008002000002000002008003FDC
:107EF000F8001FF80000080000000000000000006B
:107F0000002008002008002008063FF8063FF8007F
:107F10000008000008000008000000000000000049
:107F20000000000000000300000300200100200109
:107F3000002003063FFE063FFC000000000000009A
:107F4000000000000004000807FFF80FFFF8000120
:107F500088000300002FC00038F8002038002008F7
:107F600000000800000000000000000004000804F9
:107F7000000804000807FFF80FFFF80000080000E1
:107F800008000008000000000000002008003FF882
:107F9000003FF8001008002000003FF8003FF80004
:107FA0001008002000003FF8003FF8000008000023
:107FB00000002008003FF8003FF800100800100003
:107FC000002000002008003FF8001FF80000080013
:107FD00000000000000007C0000FF0001830003063
:107FE00008002008002008003008001830000FF0BA
:107FF0000007C0000000000000002001003FFF005B
:108000003FFF001011002009002008002008003068
:1080100038001FF0000FC00000000000000007C083
:10802000001FF00038180020080020080020090078
:108030001011001FFF003FFF0000010000000020A2
:1080400008002008002008003FF8003FF80008085A
:108050000010080020080020000030000030000060
:108060000000000000000000000C78001E18003323
:10807000080023080021080021880021980030F022
:108080000038600000000000000020000020000018
:10809000200000FFF003FFF8002008002008002067
:1080A0000800003000000000000000000000200078
:1080B000003FF0007FF800001800000800000800F2
:1080C0002010003FF8007FF00000100000000000CA
:1080D00000002000003000003C00003F800023F042
:1080E000000078000070002380003C000030000099
:1080F0002000002000003C00003FE00023F80000CA
:10810000E0002700003E00003FE00021F80001E011
:10811000003E0000200000000000200800200800B1
:108120003838003E680027800003C8002CF800386B
:108130003800201800200800000000000000200087
:10814000003003003C01003F830023EC000070007E
:108150002380003C00002000002000000000000000
:10816000000000000038080020380020F80023E854
:10817000002F88003E08003808002018000070001A
:1081800000000000000000000000000000000000EF
:10819000000008000014001FF7FC30000620000259
:1081A00000000000000000000000000000000000CF
:1081B0000000000000000000FFFFFF0000000000C2
:1081C00000000000000000000000000000000000AF
:1081D0002000023000061FF7FC0014000008000019
:1081E000000000000000000000000000000000008F
:1081F0000018000060000040000040000020000067
:108200001000000800000400000400000C00001032
:10821000000000000000000000000000000000005E
:10822000000000000000000000000000000000004E
:10823000000000000000000000000000000000003E
:10824000000000000000000000000000000000002E
:10825000000000000000000000000000000000001E
:108260000000000000000000000007F000C007FF51
:10827000E1E007F001E0000000C0000000000000A5
:1082800000000000000000000000000000000000EE
:10829000000000000000000000000020000001C0FD
:1082A0000000078000001F0000001E0000001C20CE
:1082B000000001C00000078000001F0000001E0039
:1082C00000001C0000000000000000000000000092
:1082D00000000000000000180C0000180C0000183E
:1082E0000FE0001FFC0003F80C0000180C00001841
:1082F0000C0000180C0000180C0000180FE0001F04
:10830000FC0003F80C0000180C0000180C00000022
:10831000000000000000000000000000078000785E
:1083200007C000FC0640010E0020030700200203E6
:1083300080200FFFFFFC0201C0200200E06001303E
:10834000704001F03F8000F01F00000000000000BE
:10835000000000FE000001FF000003018000020099
:108360008060030181C001FF070000FE18000000CB
:10837000E0000003BF00000CFFC00071806001C17D
:108380000020030180600000FFC000003F000000EB
:10839000000000001F0000007FC000FCC0C001FF03
:1083A00080600303E0200202782002061E2003FC06
:1083B000074001F00380000103C000011C600001C0
:1083C000E0200001002000010040000001800000CA
:1083D000000000000000002000001C6000001C40A5
:1083E00000001F8000000F000000000000000000DF
:1083F000000000000000000000000000000000007D
:10840000000000000000000000000000000000006C
:10841000000000000000000000000000000000005C
:108420000000000000000000000000000000000745
:10843000F800003FFF00007807C001C000E0030023
:1084400000300400000808000004100000020000D2
:1084500000000000000010000002080000040400FA
:1084600000080300003001C000E0007807C0003FB2
:10847000FF000007F80000000000000000000000FE
:1084800000000000000000000000000000000000EC
:1084900000000000000000000000000C1800000EAA
:1084A0003800000E38000006300000036000006154
:1084B000438000FFFF80006143000003600000066E
:1084C0003000000E3800000E3800000C18000000CC
:1084D000000000000000000000000000800000001C
:1084E000800000008000000080000000800000008C
:1084F0008000007FFF00000080000000800000007E
:10850000800000008000000080000000800000006B
:1085100000000000000000000001000000E3000077
:1085200000E2000000FC00000078000000000000F5
:10853000000000000000000000000000000000003B
:10854000000000000000000000000000000000002B
:10855000000000000000000080000000800000001B
:10856000800000008000000080000000800000000B
:1085700080000000800000008000000080000000FB
:1085800080000000800000008000000080000000EB
:1085900000000000000000000000000000C000001B
:1085A00001E0000001E0000000C000000000000049
:1085B00000000000000000000000000000000000BB
:1085C00000000000000000000000000000000000AB
:1085D0000000000000000000000C00000038000057
:1085E00000E00000038000000E00000038000000E2
:1085F000E00000038000000E00000038000000E0F2
:108600000000038000000E000000180000000000C1
:1086100000000000000000000000000FF800007FD4
:10862000FF0000F00780018000C00300006002002E
:1086300000200200002002000020030000600180F2
:1086400000C000E00380007FFF00000FF800000082
:10865000000000000000000000000000000000809A
:10866000002000800020008000200080006001FFCA
:10867000FFE003FFFFE000000060000000200000BA
:1086800000200000002000000000000000000000AA
:1086900000000000000000000000007800E00098EA
:1086A0000160010002600200046002000860020034
:1086B00010600200206002004060030080600183BF
:1086C000006001FE00E0007C078000000000000068
:1086D0000000000000000000000000F0078001F032
:1086E00007C001000040020000200201002002013A
:1086F000002002010020030380200186804001FC4D
:10870000C0C000787F8000001E0000000000000054
:108710000000000000000000080000003800000019
:1087200048000001880000060800000C0810003016
:1087300008100040081001FFFFF003FFFFF003FFE7
:10874000FFF00000081000000810000008100000F2
:108750000000000000000000000000000780001F73
:10876000864003E1002003020020030400200304EC
:10877000002003040020030400200306004003033C
:1087800001C00301FF8003007E0000000000000024
:10879000000000000000000000000007FC00003F97
:1087A000FF000070C380008180C0010100600302EF
:1087B0000020020200200202002002020020020328
:1087C000004001C180C000C0FF8000007E000000AA
:1087D0000000000000000000000000F0000003C0E6
:1087E00000000380000003000000030007E0030016
:1087F0003FE00301C000030600000318000003600F
:1088000000000380000003000000000000000000E2
:1088100000000000000000001F0000783F8000FC06
:1088200060C0018EC04003078020020300200201C7
:108830008020020180200201C0200301E040018667
:1088400070C000FC3F8000781F00000000000000A6
:10885000000000000000003F000000FF81C001C0D8
:10886000C1C0010060200200202002002020020080
:10887000202002002060020040C00100C18000C131
:108880008F00007FFE00001FF000000000000000CD
:1088900000000000000000000000000000000000D8
:1088A00000000000000000000000000300C00007FE
:1088B00081E0000781E0000300C00000000000002C
:1088C00000000000000000000000000000000000A8
:1088D0000000000000000000000000000000000098
:1088E0000000000000000000000000060066000616
:1088F0000078000000000000000000000000000000
:108900000000000000000000000000000000000067
:1089100000000000000000000000000080000001D6
:10892000C0000003600000063000000C18000018B2
:108930000C00003006000060030000C00180010050
:1089400000400200002004000010000000000000B1
:1089500000000000000000041000000410000004EB
:1089600010000004100000041000000410000004B7
:1089700010000004100000041000000410000004A7
:10898000100000041000000410000004100000009B
:1089900000000000000000000000040000100200C1
:1089A00000200100004000C0018000600300003092
:1089B000060000180C00000C180000063000000330
:1089C00060000001C0000000800000000000000006
:1089D000000000000000000000000078000001F826
:1089E00000000238000002000000040000C0040083
:1089F00079E0040081E0040100C0040300000202E9
:108A000000000306000001FC000000F80000000068
:108A1000000000000000000FF800003FFE000070A2
:108A2000078000C000C00101F8400307FC20021EBF
:108A300004200230082002203020023FFC20013FA9
:108A4000044001800CC000E03180001FC200000023
:108A500000000000002000000060000003E00000B3
:108A60003E200003E020003E200003E020000380C1
:108A7000200007FC2000003FE0000003FE20000073
:108A80003FE0000001E000000020000000200000A6
:108A9000000000000000020000200200002003FF90
:108AA000FFE003FFFFE002010020020100200201BD
:108AB00000200201002002010020030300200186A3
:108AC000806001FCC0C000F87F8000001F00000033
:108AD0000000000000000007F800003FFF000070E9
:108AE000078000C000C00100004003000020020019
:108AF00000200200002002000020020000200100EF
:108B00000040018000C003C001800030060000006A
:108B1000000000000000020000200200002003FF0F
:108B2000FFE003FFFFE0020000200200002002003F
:108B300000200200002003000060010000400180CE
:108B400000C000F00780007FFE00000FF80000006A
:108B5000000000000000020000200200002003FFCF
:108B6000FFE003FFFFE002010020020100200201FC
:108B70000020020100200201002002038020020FD9
:108B8000E0200300006003C000E00060030000007C
:108B9000000000000000020000200200002003FF8F
:108BA000FFE003FFFFE002010020020100200201BC
:108BB00000000201000002010000020100000203A7
:108BC0008000030FE0000300000003C0000000600D
:108BD0000000000000000007F800003FFE000070E9
:108BE000078001C001C00100004003000020020016
:108BF00000200200002002000020010020200100CF
:108C0000204003C03F8000303F8000002000000073
:108C10002000020000200200002003FFFFE003FF0D
:108C2000FFE00200802002008020000080000000A1
:108C3000800000008000020080200200802003FFEE
:108C4000FFE003FFFFE00200002002000020000020
:108C50000000000000000000000000000000020012
:108C6000002002000020020000200200002003FF7C
:108C7000FFE003FFFFE002000020020000200200EE
:108C800000200200002000000000000000000000A2
:108C90000000000000000000000E0000000F0000B7
:108CA000000F0000000102000001020000010200AC
:108CB00000030200000603FFFFFC03FFFFF80200B1
:108CC000000002000000020000000200000000009E
:108CD000000000000000020000200200002003FF4E
:108CE000FFE003FFFFE00200C020020100200007B8
:108CF0008000000FE0000030F80002603E2003809A
:108D00000F20030003E0020000E00200002000004A
:108D1000002000000000020000200200002003FFED
:108D2000FFE003FFFFE0020000200200002000003F
:108D300000200000002000000020000000200000B3
:108D4000002000000060000000E0000003000000C0
:108D50000000020000200200002003FFFFE003E00B
:108D6000002003FF0020001FF0000001FF80000032
:108D70000FE000001E000003E000003E002003E0C2
:108D8000002003FFFFE003FFFFE0020000200200DD
:108D90000020020000200200002003FFFFE003800B
:108DA000002003F0002000FC0000001F000000076E
:108DB000C0000001F00000007C0002001F800200E3
:108DC00007E003FFFFE002000000020000000000D7
:108DD000000000000000000FF800003FFE0000F05F
:108DE0000780018000C00100004002000020020056
:108DF000002002000020020000200100004001804D
:108E000000C000F00380003FFE00000FF8000000EB
:108E1000000000000000020000200200002003FF0C
:108E2000FFE003FFFFE0020080200200802002003C
:108E30008000020080000200800002008000030128
:108E400080000183000000FE0000007C00000000A4
:108E5000000000000000000FF800007FFF0000F09D
:108E60000380018001C001000640020004200200CE
:108E7000042002000620020003E0010000F8018047
:108E8000005C00E0038C003FFF0C000FFC180000AA
:108E9000000000000000020000200200002003FF8C
:108EA000FFE003FFFFE002010020020100200201B9
:108EB00080000201E0000201FC0003033F80018604
:108EC00007E001FC00E000F80020000000200000A6
:108ED000000000000000000000000078060000FE16
:108EE00001E0018600C003030040020300200201EC
:108EF0008020020180200201C0200200C020010069
:108F0000E060018070C003E03F8000001F000000AF
:108F1000000000000000006000000380000003006B
:108F2000000002000000020000200200002003FFF9
:108F3000FFE003FFFFE0020000200200002002002B
:108F40000000020000000380000000E000000000BC
:108F50000000020000000200000003FFFF0003FF0A
:108F6000FFC002000040020000600000002000007E
:108F7000002000000020000000200200004002004D
:108F8000008003FFFF00020000000200000000005C
:108F9000000000000000020000000200000003C00A
:108FA000000003FC0000023FC0000003F8000000C6
:108FB0007F80000007E000000780000078000203C7
:108FC000C000023C000003C00000020000000200DC
:108FD00000000200000003C0000003FF8000023F09
:108FE000FE0002007FE000000F000200F00003EF2F
:108FF000000003FF8000020FFE0000003FE00000C1
:109000001F000207E00003F8000003000000020058
:109010000000000000000200002002000020038089
:1090200000E003F0032002FC0C20021F30000007C8
:10903000C0000007F00002187C0002601F200380BF
:1090400003E0020000E00200002000000020000019
:10905000000000000000020000000300000003C048
:10906000000003F80000023E0020020FC0200001B3
:10907000FFE000007FE000038020021C002002705F
:109080000000038000000200000002000000000059
:1090900000000000000000000020006000E00380ED
:1090A00003E003000FA002003E200200F8200203AC
:1090B000E020020F8020023E00200278002003E022
:1090C0000060038000E002000300000000000000D8
:1090D0000000000000000000000000000000000090
:1090E000000000000000000000001FFFFFFC100057
:1090F0000004100000041000000410000004100020
:109100000004100000041000000400000000000033
:109110000000000000000000000000000000070048
:10912000000003C0000000780000001E00000003E3
:10913000C0000000F00000001E00000007800000DA
:1091400000F00000003C00000006000000000000ED
:1091500000000000000000000000100000041000EB
:1091600000041000000410000004100000041000AF
:109170000004100000041FFFFFFC000000000000BE
:1091800000000000000000000000000000000000DF
:1091900000000000000000000000000000000000CF
:1091A0000000020000000400000008000000180099
:1091B000000010000000180000001800000004006B
:1091C000000002000000000000000000000000009D
:1091D000000000000001000000010000000100008C
:1091E000000100000001000000010000000100007B
:1091F000000100000001000000010000000100006B
:10920000000100000001000000010000000100005A
:10921000000100000000000000000000000010003D
:1092200000001000000010000000180000000800FE
:10923000000004000000000000000000000000002A
:10924000000000000000000000000000000000001E
:109250000000000000000000038000018FC0000338
:109260008C60000618200004102000041020000468
:10927000202000042040000620400003FFC0000121
:10928000FFE00000002000000020000000C00000FF
:10929000000000000000020000000200000003FFC8
:1092A000FFE007FFFFC0000180C000020060000275
:1092B000002000040020000400200004002000061C
:1092C0000040000300C00001FF800000FE0000001D
:1092D0000000000000000000000000007E0000010F
:1092E000FF80000381C0000200400006002000044F
:1092F00000200004002000040020000600200003DD
:10930000C0400001C0800000030000000000000019
:109310000000000000000000000000007E000001CE
:10932000FF80000380C000060060000400200004ED
:10933000002000040020020400400202008003FF1D
:10934000FFE007FFFFC000000040000000400000F9
:109350000000000000000000000000007E0000018E
:10936000FF80000311C000021040000410600004E0
:10937000102000041020000410200006102000031C
:1093800010400001F0C0000071000000000000006B
:1093900000000000000000000000000400000004C5
:1093A00000200004002000040020007FFFE001FFF7
:1093B000FFE0010400200304002002040020020456
:1093C0000020020400000200000001C0000001C0F3
:1093D000000000000000000000000000001C000071
:1093E000E33E0003FFC200020CC3000404C10004FA
:1093F00004C1000404C1000404C100060CC1000340
:10940000F8C30005F0620006007E0006003C000084
:10941000000000000000020000200200002003FF06
:10942000FFE007FFFFE0000100200002002000062F
:1094300000000004000000040000000400200006FA
:1094400000200003FFE00001FFE00000002000001A
:1094500000200000000000000000000000000004E8
:1094600000200004002000040020000400200387E6
:10947000FFE0038FFFE003800020000000200000D9
:10948000002000000020000000000000000000009C
:1094900000000000000000000000000000000000CC
:1094A00000060000000700000001000000010004A9
:1094B000000100040001000400030004000603870B
:1094C000FFFC038FFFF80380000000000000000095
:1094D000000000000000020000200200002003FF46
:1094E000FFE007FFFFE00000082000001020000060
:1094F00030000000FC0000058E00000707A00006F9
:1095000001E0000400E00004002000000020000052
:109510000000000000000000000000000000020049
:10952000002002000020020000200200002003FFB3
:10953000FFE007FFFFE00000002000000020000027
:1095400000200000002000000000000000000000DB
:10955000000000000000000400200007FFE0000FF2
:10956000FFE00002002000040000000400200007CB
:10957000FFE00003FFE00002002000040000000400
:1095800000200007FFE00003FFE0000000200000D3
:10959000000000000000000400200004002000077C
:1095A000FFE0000FFFE000010020000200200002A9
:1095B0000000000400000004000000040020000679
:1095C00000200003FFE00001FFE000000020000099
:1095D0000020000000000000000000007E000000ED
:1095E000FF80000381C0000200400006002000044C
:1095F00000200004002000040020000600200002DB
:109600000040000381C00001FF8000007E000000D8
:109610000000000000000004000100040001000739
:10962000FFFF000FFFFF000100C100020041000426
:109630000020000400200004002000040020000698
:109640000040000301C00001FF8000007E00000018
:109650000000000000000000000000007E0000018B
:10966000FF80000380C000020060000400200004AE
:10967000002000040020000400200002004100033C
:1096800000C10003FFFF0007FFFF00000001000012
:10969000000100000000000400200004002000047D
:1096A000002000040020000FFFE0000FFFE000009A
:1096B000C02000010020000200200006002000045D
:1096C000000000040000000700000003000000008C
:1096D00000000000000000000000000003E00001A6
:1096E000C0E00003E0400006302000043020000409
:1096F0001820000418200004182000040C20000288
:109700000C60000307C00007838000000000000019
:109710000000000000000000000000040000000441
:10972000000000040000000C0000001FFF8000FF8C
:10973000FFC00004006000040020000400200004BA
:109740000020000400400000018000000000000034
:1097500000000000000000040000000400000007FA
:10976000FF80000FFFC0000000600000002000002C
:109770000020000000200000002000040040000441
:1097800000800007FFE0000FFFC000000040000065
:10979000004000000000000400000004000000077A
:1097A00080000007F0000004FE0000041FC000005D
:1097B00003E00000038000001C00000460000007BC
:1097C000800000060000000400000000000000000F
:1097D000000000040000000600000007C0000007B1
:1097E000FC0000043F80000003E000040F8000063E
:1097F000F0000007F0000007FF8000040FE0000009
:10980000038000043C000007C000000600000004C4
:109810000000000000000000002000040020000400
:109820000060000700E0000783200007E600000456
:10983000F80000003C0000045E20000587A0000640
:1098400001E000040060000400200000002000008F
:1098500000000000000000040000000400030007F6
:1098600000030007E0010004F80100041F020000EB
:1098700007FC000000E000000700000438000007BB
:10988000C00000060000000400000004000000000A
:1098900000000000000000000000000780600006DB
:1098A00000E0000403E0000407A000040E20000410
:1098B0003C20000470200005E02000078020000705
:1098C0000060000400E000000380000000000000D1
:1098D0000000000000000000000000000000000088
:1098E0000000000000000000000000000000000078
:1098F0008000000080000001400007FE3FF80800E3
:10990000000410000002100000020000000000002F
:109910000000000000000000000000000000000047
:109920000000000000000000000000000000000037
:109930000000FFFFFFFF000000000000000000002B
:109940000000000000000000000000000000000017
:1099500000000000000000000000100000021000E5
:1099600000020800000407FE3FF80001400000006C
:1099700080000000800000000000000000000000E7
:1099800000000000000000000000000000000000D7
:10999000000000000000180000003000000040003F
:1099A00000004000000040000000200000003000E7
:1099B0000000080000000400000002000000020097
:1099C0000000020000000C00000018000000000071
:1099D0000000000000000000000000000000000087
:1099E0000000000000000000000000000000000077
:1099F0000000000000000000000000000000000067
:109A00000000000000000000000000000000000056
:109CF00000000000000000000000FFFF0000000066
:109D00000000000000000000000000000000000053
:109D10000000000000000000000000000000000043
:109D20000000000000000000000000000000000033
:109D30000000000000000000000000000000000023
:109D40000000000000000000000000000000000013
:109D50000000000000000000000000000000000003
:109D600000000000000000000000000000000000F3
:109D70000000FFFF000000000000000000000000E5
:109D800000000000000000000000000000000000D3
:109D900000000000000000000000000000000000C3
:109DA00000000000000000000000000000000000B3
:109DB00000000000000000000000000000000000A3
:109DC0000000000000000000000000000000000093
:109DD0000000000000000000000000000000000083
:109DE00000000000000000000000FFFFFFFF000077
:109DF0000000000000000000000000000000000063
:109E00000000000000000000000000000000000052
:109E10000000000000000000000000000000000042
:109E20000000000000000000000000000000000032
:109E30000000FFFFFFFFFFFFFFFFFFFFFFFF694A7B
:109E40000000000000000000000000000000000012
:109E50000000000000000000000000000000000002
:109E60000000FFFFFFFFFFFF0000000000000000F8
:109E700000000000000000000000000000000000E2
:109E800000000000000000000000000000000000D2
:109E900000000000000000000000000000000000C2
:109EA0000000FFFFFFFFFFFFFFFFFFFFFFFFFFFFC0
:109EB000FFFFFFFFFFFFFFFFFFFFFFFFFFFFF7BDFC
:109EC0000000000000000000000000000000000092
:109ED00000000000000000000000FFFFFFFFFFFF88
:109EE0000000000000000000000000000000000072
:109EF0000000000000000000000000000000000062
:109F00000000000000000000000000000000000051
:109F1000000000000000FFFFFFFFFFFFFFFFFFFF4B
:109F2000FFFFFFFFFFFFFFFFFFFFFFFFFFFFFFFF41
:109F3000FFFFFFFFFFFFFFFFFFFFFFFF000000002D
:109F40000000000000000000000000000000000011
:109F50000000FFFFFFFFFFFFFFFFFFFFFFFFFFFF0F
:109F600000000000000000000000000000000000F1
:109F700000000000000000000000000000000000E1
:109F800000000000000000000000FFFFFFFFFFFFD7
:109F9000FFFFFFFFFFFFFFFFFFFFFFFFFFFFFFFFD1
:109FA000FFFFFFFFFFFFFFFFFFFFFFFFFFFFFFFFC1
:109FB000FFFFFFFFFFFFFFFF0000000000000000A9
:109FC000000000000000D39CFFFFFFFFFFFFFFFF2A
:109FD000FFFFFFFF00000000000000000000000085
:109FE0000000000000000000000000000000000071
:109FF0000000000000000000000000000000FFFF63
:10A00000FFFFFFFFFFFFFFFFFFFFFFFFFFFFFFFF60
:10A01000FFFFFFFFFFFFFFFFFFFFFFFFFFFFFFFF50
:10A02000FFFFFFFFFFFFFFFFFFFFFFFFFFFFFFFF40
:10A03000FFFF00000000000000000000FFFFFFFF26
:10A04000FFFFFFFFFFFFFFFFFFFF0000000000001A
:10A050000000000000000000000000000000000000
:10A0600000000000000000000000000000000000F0
:10A0700000000000FFFFFFFFFFFFFFFFFFFFFFFFEC
:10A08000FFFFFFFFFFFFFFFFFFFFFFFFFFFFFFFFE0
:10A09000FFFFFFFFFFFFFFFFFFFFFFFFFFFFFFFFD0
:10A0A000FFFFFFFFFFFFFFFFFFFFFFFFFFFFFFFFC0
:10A0B000FFFFFFFFFFFFFFFFFFFFFFFFFFFFFFFFB0
:10A0C000FFFFD39C00000000000000000000000023
:10A0D0000000000000000000000000000000000080
:10A0E00000000000000000000000FFFFFFFFFFFF76
:10A0F000FFFFFFFFFFFFFFFFFFFFFFFFFFFFFFFF70
:10A10000FFFFFFFFFFFFFFFFFFFFFFFFFFFFFFFF5F
:10A11000FFFFFFFFFFFFFFFFFFFFFFFFFFFFFFFF4F
:10A12000FFFFFFFF00000000FFFFFFFFFFFFFFFF3B
:10A13000FFFFFFFFFFFFFFFFFFFF00000000000029
:10A14000000000000000000000000000000000000F
:10A1500000000000000000000000000000000000FF
:10A16000FFFFFFFFFFFFFFFFFFFFFFFFFFFFFFFFFF
:10A17000FFFFFFFFFFFFFFFFFFFFFFFFFFFFFFFFEF
:10A18000FFFFFFFFFFFFFFFFFFFFFFFFFFFFFFFFDF
:10A19000FFFFFFFFFFFFFFFFFFFFFFFFFFFF0000CD
:10A1A0000000FFFFFFFFFFFFFFFFFFFFFFFFFFFFBD
:10A1B000FFFF0000000000000000000000000000A1
:10A1C000000000000000000000000000000000008F
:10A1D000000000000000FFFFFFFFFFFFFFFFFFFF89
:10A1E000FFFFFFFFFFFFFFFFFFFFFFFFFFFFFFFF7F
:10A1F000FFFFFFFFFFFFFFFFFFFFFFFFFFFFFFFF6F
:10A20000FFFFFFFFFFFFFFFFFFFFFFFFFFFFFFFF5E
:10A21000FFFFFFFFFFFFFFFFFFFFFFFF6D6BFFFF74
:10A22000FFFFFFFFFFFFFFFF000000000000000036
:10A23000000000000000000000000000000000001E
:10A24000000000000000000000000000FFFFFFFF12
:10A25000FFFFFFFFFFFFFFFFFFFFFFFFFFFFFFFF0E
:10A26000FFFFFFFFFFFFFFFF0000000000000000F6
:10A270000000000000000000FFFFFFFFFFFFFFFFE6
:10A28000FFFFFFFFFFFFFFFFFFFFFFFFFFFFFFFFDE
:10A29000FFFF00005DEFFFFFFFFFFFFF000000007A
:10A2A00000000000000000000000000000000000AE
:10A2B000000000000000000000000000000000009E
:10A2C0000000FFFFFFFFFFFFFFFFFFFFFFFFFFFF9C
:10A2D000FFFFFFFFFFFFFFFFFFFFFFFFFFFF00008C
:10A2E000000000000000000000000000000000006E
:10A2F000000000000000000000000000EB5AFFFF1B
:10A30000FFFF000000000000000000000000FFFF51
:10A31000FFFFFFFF00000000000000000000000041
:10A32000000000000000000000000000000000002D
:10A3300000000000000000000000FFFFFFFFFFFF23
:10A34000FFFFFFFFFFFFFFFFFFFFFFFFFFFFFFFF1D
:10A35000FFFFFFFF00000000000000000000000001
:10A3600000000000000000000000000000000000ED
:10A3700000000000000000000000000000000000DD
:10A380000000000000000000FFFFFFFF00000000D1
:10A3900000000000000000000000000000000000BD
:10A3A00000000000000000000000000000000000AD
:10A3B000FFFFFFFFFFFFFFFFFFFFFFFFFFFFFFFFAD
:10A3C000FFFFFFFFFFFFFFFFFFFF00000000000097
:10A3D000000000000000000000000000000000007D
:10A3E000000000000000000000000000000000006D
:10A3F000000000000000000000000000000000005D
:10A40000FFFFFFFF00000000000000000000000050
:10A41000000000000000000000000000000000003C
:10A420000000000000000000FFFFFFFFFFFFFFFF34
:10A43000FFFFFFFFFFFFFFFFFFFFFFFFFFFFFFFF2C
:10A44000BEF7000000000000000000000000FFFF59
:10A45000FFFFFFFF00000000000000000000000000
:10A4600000000000000000000000000000000000EC
:10A4700000000000000000000000FFFF00000000DE
:10A4800000000000000000000000000000000000CC
:10A490000000000000000000000000000000FFFFBE
:10A4A000FFFFFFFFFFFFFFFFFFFFFFFFFFFFFFFFBC
:10A4B000FFFFFFFFFFFFFFFF0000000000000000A4
:10A4C0000000A631FFFFFFFFFFFFFFFFFFFF0000BF
:10A4D000000000000000000000000000000000007C
:10A4E000000000000000000000000000000000006C
:10A4F0000000FFFFFFFF0000000000000000000060
:10A50000000000000000000000000000000000004B
:10A51000000000000000FFFFFFFFFFFFFFFFFFFF45
:10A52000FFFFFFFFFFFFFFFFFFFFFFFFFFFFFFFF3B
:10A53000FFFFFFFFFFFF0000FFFFFFFFFFFFFFFF29
:10A54000FFFFFFFFFFFF0000000000000000000011
:10A55000000000000000FFFFFFFFFFFF0000000001
:10A56000000000000000000000000000FFFFFFFFEF
:10A5700000000000000000000000000000000000DB
:10A580000000000000000000000000000000FFFFCD
:10A59000FFFFFFFFFFFFFFFFFFFFFFFFFFFFFFFFCB
:10A5A000FFFFFFFFFFFFFFFFFFFFFFFFFFFFFFFFBB
:10A5B000FFFFFFFFFFFFFFFFFFFFFFFFFFFFFFFFAB
:10A5C00000000000000000000000FFFFFFFFFFFF91
:10A5D000FFFF00000000000000000000000000007D
:10A5E00000000000FFFFFFFFFFFF00000000000071
:10A5F000000000000000000000000000000000005B
:10A6000000000000FFFFFFFFFFFFFFFFFFFFFFFF56
:10A61000FFFFFFFFFFFFFFFFFFFFFFFFFFFFFFFF4A
:10A62000FFFFFFFFFFFFFFFFFFFFFFFFFFFFFFFF3A
:10A63000FFFFFFFFFFFFFFFFFFFFFFFFFFFFFFFF2A
:10A64000FFFFFFFFFFFFFFFF494A0000000000007F
:10A65000000000000000FFFFFFFF0000FFFFFFFF02
:10A66000FFFFFFFF000000000000000000000000EE
:10A67000000000000000000000000000FFFFFFFFDE
:10A68000FFFFFFFFFFFFFFFFFFFFFFFFFFFFFFFFDA
:10A69000FFFFFFFFFFFFFFFFFFFFFFFFFFFFFFFFCA
:10A6A000FFFFFFFFFFFFFFFFFFFFFFFFFFFFFFFFBA
:10A6B000FFFFFFFFFFFFFFFFFFFFFFFFFFFFFFFFAA
:10A6C000000000000000000000000000FFFFFFFF8E
:10A6D000FFFFFFFFFFFFFFFFFFFFFFFFFFFF000088
:10A6E000000000000000000000000000000000006A
:10A6F00000000000FFFFFFFFFFFFFFFFFFFFFFFF66
:10A70000FFFFFFFFFFFFFFFFFFFFFFFFFFFFFFFF59
:10A71000FFFFFFFFFFFFFFFFFFFFFFFFFFFFFFFF49
:10A72000FFFFFFFFFFFFFFFFFFFFFFFFFFFFFFFF39
:10A73000FFFFFFFFFFFF000000000000000000001F
:10A740000000FFFFFFFFFFFFFFFFFFFF0000FFFF15
:10A75000FFFFFFFFFFFFFFFF000000000000000001
:10A76000000000000000000000000000FFFFFFFFED
:10A77000FFFFFFFFFFFFFFFFFFFFFFFFFFFFFFFFE9
:10A78000FFFFFFFFFFFFFFFFFFFFFFFFFFFFFFFFD9
:10A79000FFFFFFFFFFFFFFFFFFFFFFFFFFFFFFFFC9
:10A7A000FFFFFFFFFFFFFFFFFFFFFFFF00000000B5
:10A7B0000000000000000000FFFFFFFFFFFFFFFFA1
:10A7C000FFFFFFFFFFFFFFFFFFFFFFFFFFFFFFFF99
:10A7D000FFFF00000000000000000000000000007B
:10A7E00000000000FFFFFFFFFFFFFFFFFFFFFFFF75
:10A7F000FFFFFFFFFFFFFFFFFFFFFFFFFFFFFFFF69
:10A80000FFFFFFFFFFFFFFFFFFFFFFFFFFFFFFFF58
:10A81000FFFFFFFFFFFFFFFFFFFFFFFFFFFFFFFF48
:10A82000FFFF00000000000000000000000000002A
:10A8300000000000E739FFFFFFFFFFFFFFFF000000
:10A840000000FFFFFFFFFFFFFFFFFFFF0000000012
:10A85000000000000000000000000000FFFFFFFFFC
:10A86000FFFFFFFFFFFFFFFFFFFFFFFFFFFFFFFFF8
:10A87000FFFFFFFFFFFFFFFFFFFFFFFFFFFFFFFFE8
:10A88000FFFFFFFFFFFFFFFFFFFFFFFFFFFFFFFFD8
:10A89000FFFFFFFFFFFFFFFFFFFF000000000000C2
:10A8A00000000000000000000000000000000000A8
:10A8B0000000000000000000000000000000FFFF9A
:10A8C000FFFFFFFFFFFF61080000FFFFFFFFFFFF2B
:10A8D00000000000FFFFFFFFFFFFFFFFFFFFFFFF84
:10A8E000FFFFFFFFFFFFFFFFFFFFFFFFFFFFFFFF78
:10A8F000FFFFFFFFFFFFFFFFFFFFFFFFFFFFFFFF68
:10A90000FFFFFFFFFFFFFFFFFFFFFFFFFFFFFFFF57
:10A91000FFFF000000000000000000000000000039
:10A920000000000000000000000000000000FFFF29
:10A93000FFFF000000000000FFFFFFFFFFFFFFFF21
:10A94000FFFF00000000000000000000FFFFFFFF0D
:10A95000FFFFFFFFFFFFFFFFFFFFFFFFFFFFFFFF07
:10A96000FFFFFFFFFFFFFFFFFFFFFFFFFFFFFFFFF7
:10A97000FFFFFFFFFFFFFFFFFFFFFFFFFFFFFFFFE7
:10A98000FFFFFFFFFFFFFFFFFFFFDFFF00000000F3
:10A9900000000000000000000000000000000000B7
:10A9A000000000000000FFFFFFFFFFFF00000000AD
:10A9B0000000000055AD0000000000000000000095
:10A9C00000000000FFFFFFFFFFFFFFFFFFFFFFFF93
:10A9D000FFFFFFFFFFFFFFFFFFFFFFFFFFFFFFFF87
:10A9E000FFFFFFFFFFFFFFFFFFFFFFFFFFFFFFFF77
:10A9F000FFFFFFFFFFFFFFFFFFFFFFFFFFFFFFFF67
:10AA0000FFFFFFFFFFFF000000000000000000004C
:10AA10000000000000000000000000000000FFFF38
:10AA2000FFFFFFFF0000000000000000000000002A
:10AA3000000000000000000000000000FFFFFFFF1A
:10AA4000FFFFFFFFFFFFFFFFFFFFFFFFFFFFFFFF16
:10AA5000FFFFFFFFFFFFFFFFFFFFFFFFFFFFAA5208
:10AA600000000000FFFFFFFFFFFFFFFF0000FFFFF0
:10AA7000FFFFFFFFFFFFFFFF0000000000000000DE
:10AA800000000000000000000000000000000000C6
:10AA9000000000000000FFFFFFFFFFFF00000000BC
:10AAA00000000000000000000000000000000000A6
:10AAB00000000000FFFFFFFFFFFFFFFFFFFFFFFFA2
:10AAC000FFFFFFFFFFFFFFFFFFFFFFFF18C60000B4
:10AAD0000000000000000000000000000000000076
:10AAE0000000000000000000000059CEFFFFFFFF43
:10AAF000FFFFFFFFFFFFFFFFFFFFFFFFFFFFFFFF66
:10AB0000FFFF00000000000000000000FFFFFFFF4B
:10AB1000FFFF000000000000000000000000000037
:10AB2000000000000000000000000000FFFFFFFF29
:10AB3000FFFFFFFFFFFFFFFFFFFFFFFFFFFFFFFF25
:10AB4000FFFF0000D39C0000000000000000000098
:10AB5000000000000000000000000000FFFFFFFFF9
:10AB6000FFFFFFFFFFFFFFFFFFFFFFFFFFFFFFFFF5
:10AB7000FFFFFFFFFFFFFFFF0000000000000000DD
:10AB800000000000FFFF00000000000000000000C7
:10AB900000000000000000000000000000000000B5
:10ABA000000000000000FFFFFFFFFFFFFFFFFFFFAF
:10ABB000FFFFFFFFFFFFFFFFFFFF0000000000009F
:10ABC0000000000000000000000000000000FFFF87
:10ABD000FFFFFFFFFFFFFFFFFFFFFFFFFFFFFFFF85
:10ABE000FFFFFFFFFFFFFFFFFFFFFFFFFFFF000073
:10ABF00000000000000000000000FFFF0000000057
:10AC00000000000000000000000000000000000044
:10AC10000000000000000000000000000000FFFF36
:10AC2000FFFFFFFFFFFFFFFFFFFFFFFFFFFFFFFF34
:10AC3000FFFFFFFFFFFF000000000000000000001A
:10AC400000000000FFFFFFFFFFFFFFFFFFFFFFFF10
:10AC5000FFFFFFFFFFFFFFFFFFFFFFFFFFFF000002
:10AC60000000FBDE00000000000000000000FFFF0D
:10AC7000FFFFFFFF000000000000000000000000D8
:10AC800000000000000000000000000000000000C4
:10AC90000000000000009EF7FFFFFFFFFFFFFFFF27
:10ACA000FFFFFFFFFFFFFFFFFFFFFFFF00000000B0
:10ACB0000000000000000000FFFFFFFFFFFFFFFF9C
:10ACC000FFFFFFFFFFFFFFFFFFFFFFFFFFFFFFFF94
:10ACD000FFFFFFFFFFFFFFFF00000000000000007C
:10ACE0000000FFFFFFFFFFFFFFFF0000000000006C
:10ACF0000000000000000000000000000000000054
:10AD00000000000000000000000000000000000043
:10AD1000FFFFFFFFFFFFFFFFFFFFFFFFFFFFFFFF43
:10AD2000FFFFFFFFFFFF00000000FFFFFFFFFFFF2F
:10AD3000FFFFFFFFFFFFFFFFFFFFFFFFFFFFFFFF23
:10AD4000FFFFFFFFFFFFFFFFFFFFFFFF000000000F
:10AD5000000000000000FFFFFFFFFFFFFFFFFFFFFD
:10AD6000FFFF0000000000000000000000000000E5
:10AD700000000000000000000000000000000000D3
:10AD80000000000000000000FFFFFFFFFFFFFFFFCB
:10AD9000FFFFFFFFFFFFFFFFFFFFFFFFFFFFFFFFC3
:10ADA000FFFFFFFFFFFFFFFFFFFFFFFFFFFFFFFFB3
:10ADB000FFFFFFFFFFFFFFFFFFFFFFFFFFFFFFFFA3
:10ADC000FFFFFFFF000000000000FFFFFFFFFFFF8D
:10ADD000FFFFFFFFFFFFFFFF00000000000000007B
:10ADE0000000000000000000000000000000000063
:10ADF0000000000000000000000000000000000053
:10AE00000000FFFFFFFFFFFFFFFFFFFFFFFFFFFF50
:10AE1000FFFFFFFFFFFFFFFFFFFFFFFFFFFFFFFF42
:10AE2000FFFFFFFFFFFFFFFFFFFFFFFFFFFFFFFF32
:10AE3000FFFFFFFF00000000000000000000000016
:10AE4000FFFFFFFFFFFFFFFFFFFFFFFFFFFFFFFF12
:10AE500000000000000000000000000000000000F2
:10AE600000000000000000000000000000000000E2
:10AE7000000000000000000000000000FFFFFFFFD6
:10AE8000FFFFFFFFFFFFFFFFFFFFFFFFFFFFFFFFD2
:10AE9000FFFFFFFFFFFFFFFFFFFFFFFFFFFFFFFFC2
:10AEA000FFFFFFFFFFFFFFFFFFFFFFFFFFFF0000B0
:10AEB000000000000000FFFFFFFFFFFFFFFFFFFF9C
:10AEC000FFFFFFFFFFFF0000000000000000000088
:10AED0000000000000000000000000000000000072
:10AEE0000000000000000000000000000000000062
:10AEF00000000000FFFFFFFFFFFFFFFFFFFFFFFF5E
:10AF0000FFFFFFFFFFFFFFFFFFFFFFFFFFFFFFFF51
:10AF1000FFFFFFFFFFFFFFFFFFFFFFFFFFFFFFFF41
:10AF2000FFFFFFFF000000000000FFFFFFFFFFFF2B
:10AF3000FFFFFFFFFFFFFFFFFFFFFFFF000000001D
:10AF40000000000000000000000000000000000001
:10AF500000000000000000000000000000000000F1
:10AF60000000000000000000000000000000FFFFE3
:10AF7000FFFFFFFFFFFFFFFFFFFFFFFFFFFFFFFFE1
:10AF8000FFFFFFFFFFFFFFFFFFFFFFFFFFFFFFFFD1
:10AF9000FFFFFFFFFFFFFFFFFFFFFFFFFFFFFFFFC1
:10AFA000FFFFFFFFFFFFFFFFFFFFFFFFFFFFFFFFB1
:10AFB000FFFF4D6B000000000000000000000000DB
:10AFC0000000000000000000000000000000000081
:10AFD0000000000000000000000000000000000071
:10AFE0000000000000000000FFFFFFFFFFFFFFFF69
:10AFF000FFFFFFFFFFFFFFFFFFFFFFFFFFFFFFFF61
:10B00000FFFFFFFFFFFFFFFFFFFFFFFFFFFFFFFF50
:10B01000FFFFFFFFFFFFFFFFFFFFFFFFFFFFFFFF40
:10B02000FFFFFFFFFFFFFFFFFFFF0000000000002A
:10B030000000000000000000000000000000000010
:10B040000000000000000000000000000000000000
:10B0500000000000000000000000000000000000F0
:10B060000000FFFFFFFFFFFFFFFFFFFFFFFFFFFFEE
:10B07000FFFFFFFFFFFFFFFFFFFFFFFFFFFFFFFFE0
:10B08000FFFFFFFFFFFFFFFFFFFFFFFFFFFFFFFFD0
:10B09000FFFFFFFFFFFFFFFFFFFFFFFFFFFFFFFFC0
:10B0A00000000000000000000000000000000000A0
:10B0B0000000000000000000000000000000000090
:10B0C0000000000000000000000000000000000080
:10B0D000000000000000000000000000FFFFFFFF74
:10B0E000FFFFFFFFFFFFFFFFFFFFFFFFFFFFFFFF70
:10B0F000FFFFFFFFFFFFFFFFFFFFFFFFFFFFFFFF60
:10B10000FFFFFFFFFFFFFFFFFFFFFFFFFFFFFFFF4F
:10B11000FFFFFFFF00000000000000000000000033
:10B12000000000000000000000000000000000001F
:10B13000000000000000000000000000000000000F
:10B1400000000000000000000000000000000000FF
:10B15000000000000000B6B5FFFFFFFFFFFFFFFF8C
:10B16000FFFFFFFFFFFFFFFFFFFFFFFFFFFFFFFFEF
:10B17000FFFFFFFFFFFFFFFFFFFFFFFFFFFFFFFFDF
:10B18000FFFFFFFFFFFFFFFFFFFF000000000000C9
:10B1900000000000000000000000000000000000AF
:10B1A000000000000000000000000000000000009F
:10B1B000000000000000000000000000000000008F
:10B1C000000000000000000000000000000000007F
:10B1D0000000FFFFFFFFFFFFFFFFFFFFFFFFFFFF7D
:10B1E000FFFFFFFFFFFFFFFFFFFFFFFFFFFFFFFF6F
:10B1F000FFFFFFFFFFFFFFFFFFFFFFFFFFFFEB5A18
:10B20000000000000000000000000000000000003E
:10B21000000000000000000000000000000000002E
:10B22000000000000000000000000000000000001E
:10B23000000000000000000000000000000000000E
:10B240000000000000000000000000000000FFFF00
:10B25000FFFFFFFFFFFFFFFFFFFFFFFFFFFFFFFFFE
:10B26000FFFFFFFFFFFFFFFFFFFFFFFFFFFFFFFFEE
:10B27000FFFFFFFF000000000000000000000000D2
:10B2800000000000000000000000000000000000BE
:10B2900000000000000000000000000000000000AE
:10B2A000000000000000000000000000000000009E
:10B2B000000000000000000000000000000000008E
:10B2C000000000000000000000000000FFFFFFFF82
:10B2D000FFFFFFFFFFFFFFFFFFFFFFFFFFFFFFFF7E
:10B2E000FFFFFFFFFFFF0000000000000000000064
:10B2F000000000000000000000000000000000004E
:10B30000000000000000000000000000000000003D
:10B31000000000000000000000000000000000002D
:10B32000000000000000000000000000000000001D
:10B5F000000020002000200020002000200020006B
:10B60000200020002000200020002000200020003A
:10B6100020002008200820082008200820082008F2
:10B6200020002008200820082008200820082008E2
:10B630002008000800082008000801080008200869
:10B640002008400840082008000000000100000019
:10B6500000000000000000100008200800000008A2
:10B6600001080000200000082010200840084008C1
:10B670002008200820082008200040002000200882
:10B6800020082008200800080008200020002000D2
:10B6900020002008000800080008200020002008E2
:10B6A00020080008200820002000000800082008CA
:10B6B00000002000200000002000200020002000CA
:10B6C000200020002000200020002000200020007A
:10B6D0002000200020002000200020082008200852
:10B6E0002008200820082008200020082008200822
:10B6F000200820082008200000000008000820087A
:10B7000000080008000820002000200000000010B1
:10B7100001100B620B6289518951474906390010AB
:10B7200000100010E961F3B3519BCA5923200008AF
:10B7300000080008400840082008200820082008C9
:10B7400020004000200020082008200820080008D1
:10B750000008200020002000200020082008000809
:10B7600020082000200020082008200820082000B1
:10B7700020000008000820002000200020002000F9
:10B7800020002000200020002000200020002000B9
:10B790002000200020002000200020082008200891
:10B7A0002008200820082008200820082008200859
:10B7B0002000200820082008200820082008200059
:10B7C00000002008000820082008000800002000D1
:10B7D0002000200000086438D3BB16D417DC17E41F
:10B7E000F7E395DBD2BA12AB02280E92F6DB56E3F2
:10B7F00016DB18E458DCF4AB011000082008000840
:10B8000020082008200820082008400040002008C8
:10B810002008200820002008200820002000200008
:10B8200020082008200800082008200040002000F0
:10B830002000200820082008200000080000200028
:10B8400020002000200020002000200020002000F8
:10B8500020002000200020002000200020002000E8
:10B8600020002008200820082008200820082008A0
:10B870002008200820082008200020082008200890
:10B880002008200820082000200020082000200098
:10B89000200020002000200020000000A43035D42B
:10B8A00033CB52C2B4D253D233D290C1D1C152BAE7
:10B8B000F4CA35DB2EA951C192C914CAD5C2BAE463
:10B8C0001DF6063900080108210820082008200874
:10B8D0002008200020002008200820002000200848
:10B8E0002008200020002008200820082008000848
:10B8F0002008200040002000200020002008200810
:10B900002008000800002000200020002000200067
:10B910002000200020002000200020002000200027
:10B9200020002000200020082008200820082008EF
:10B9300020082008200820082008200820082008C7
:10B9400020002008200820082008200820082008BF
:10B95000200820002000200040004000200020009F
:10B960000008001023380FB2B0C195E234DAB3D129
:10B97000D3D972D192D10FB158F399FB50B972C992
:10B98000B4D176D217DB57CBFBECDFFE0F83010877
:10B9900000002008200820082008200020002000A7
:10B9A0002000200040002000200820002000200867
:10B9B0000000200020002008200820002000200097
:10B9C000200020002000200820082008200020005F
:10B9D0002000200020002000000020002000200087
:10B9E000200020002000200020002000200020084F
:10B9F0002008200820082008200820082008200807
:10BA000020082008200820082000200820082008FE
:10BA1000200020002000200820002000200020001E
:10BA20004000200020000008000800080338CFB9BB
:10BA3000D2D9D3D9D4D993D1B3D972D972D935E265
:10BA40007AFBB7F272C9D4D993D176DA38E3FAEB3C
:10BA50009BF43CF55EF664180000200820082008DE
:10BA60002008200020002008200040004000200086
:10BA7000200040082008200820082000200020087E
:10BA800020082000200020002000200020002008A6
:10BA90002008200820002000200020002000200096
:10BAA00000002000200020002000200020002000B6
:10BAB000200020082008200820082008200820084E
:10BAC0002008200820082008200820082008200836
:10BAD000200020082008200820082000200020083E
:10BAE000200020002000200020002008200800085E
:10BAF000000800084440F0B950C9B2D1B3D1B3D165
:10BB000073D172C9B3D118F339FB76EAB3D952D1E4
:10BB1000D3E175E2F6E21BF45BECFCF43FFE508BE4
:10BB2000000820082008200020002000200820080D
:10BB30002008200820002000200020002008000805
:10BB400020082000200020082008200820082008C5
:10BB500020002008200820082008200800080000F5
:10BB6000200800002000200000002000200020000D
:10BB700020002000200020002000200820082008AD
:10BB80002008200820082008200820082008200875
:10BB9000200820082008200820002008200820086D
:10BBA000200820082008200020002000200000009D
:10BBB000000820080008000800080008243851C2C6
:10BBC00030C9B2D1F3E192D935EA93D1B3D176E25B
:10BBD00035E277F273D9B3E1B2D953DA77F3B9EB3F
:10BBE0003BF4FDFCBDFD2B6A00080008200820087E
:10BBF0000008000800080008000800080008000805
:10BC000000080008000800080008200820002000A4
:10BC100020002008200820082008200820082008EC
:10BC2000200820080008000820080000200020004C
:10BC30000000200020002000200020002000200024
:10BC400020002008200820082008200820082000C4
:10BC500020002008200820002000200820082008BC
:10BC600000002000200820082008200820082008C4
:10BC70002000000020080008000800080008200834
:10BC8000000800082438B3DAB2D950D172D952D999
:10BC900093E153D994E1D5E174D1B5E132D152D1D8
:10BCA00074E216DBB8E377EBF9F39BFCF2B2011810
:10BCB00022188739010800080008C4302220000833
:10BCC000011047418C7299D5F2A3CA598428010802
:10BCD0000008000820082000200000002000400884
:10BCE00000000008200820082000200800000008AC
:10BCF0000008200820002000200020002000200054
:10BD0000200020002000200020002008200820081B
:10BD100020082008200820082000200820082008EB
:10BD200020002008200820082000200820082008E3
:10BD3000200820082008200820082008000000080B
:10BD40000008000800080000000000088A71B3DA4B
:10BD500030D151D151D192E111D153E1B5E953D94B
:10BD600013D133D953D915EADAFB9CFC7EFD97E356
:10BD700018F458E4E960012013A4DEF60E7B0118E4
:10BD80004F93B9EDF2AB843854B41CF65EFE9BF5CC
:10BD9000DDFD5EFE39DD7193EA51000800002108E7
:10BDA000200020004008000020082008200820086B
:10BDB00020002000200000000008000020002000DB
:10BDC000200020002000200020002000200020086B
:10BDD0002008200820082008200820082008200823
:10BDE0002000200020082008200820082008200823
:10BDF0002008200820082008200820082008200803
:10BE0000200820000000400800000000000020087A
:10BE100020100010D0A293DAEFC851D131D152D9FD
:10BE200052D9D4E952D932D912D953D9F5E992D994
:10BE300038FBDAF33EFDFBFC32B3022001188648E2
:10BE4000DCFD3ADD3EFE32AB1AF519FD2E9A6F9AF3
:10BE5000BCFDDAEC79E439E47AEC79EC38D437C417
:10BE60009BE55CEEA84900080000000800080000FF
:10BE700000002008200820082000200020000000EA
:10BE800020002000200020002000200020002000B2
:10BE9000200020002000200820082008200820087A
:10BEA000200820082008200820082000200820085A
:10BEB0002008200820002008200820002000200062
:10BEC0002000200020002000200020002000200072
:10BED0000000400820080000000801202E9A32D2FD
:10BEE00051D151D114EA31D9B3E110D193E1F1D05C
:10BEF00032D932D9D0C851D1D7F279EBBCFC12ABD0
:10BF0000012001100010B4BBD6D3D7CB1CFDDFFD40
:10BF100054CB17E48D99D6DBFBFC19F4F5D278E30A
:10BF2000B9E3B8DBB4B25DFD9DF5BBEDBFFE1BE62A
:10BF3000A951C53000080008000820082008200882
:10BF40002008200020002000200020000000000029
:10BF500000002000200020002000200820002008F1
:10BF60002008200820082008200820082008200891
:10BF70002008200020082008200820082000200891
:10BF800020082000200020002000200020002000A9
:10BF900020002000200000002000200800002008D1
:10BFA0000010012895D336EB55EAB3D936F293E168
:10BFB000D4E951D9F3E992E131D992E110D130D1EC
:10BFC000F7FABAF31DFD6E8A00180010012037DC65
:10BFD000D8E35BFC97DB19E47DFD96D375CB39F490
:10BFE000B8EB95D2D6DA17E378E35BF41AE45DFD9B
:10BFF0009ADCFBE45BEDFDFD9FFEDFFEAD820010F1
:10C000000008200820002008200820002000200030
:10C010002000200000000000000020002000200080
:10C0200020002008200820082008200820082008D8
:10C0300020082008200820082008200020002008D0
:10C0400020082008200020002008200020002008D0
:10C0500020082008200820002000200020002000C8
:10C0600020080000000820080010A860D8EB13D2B8
:10C07000D3D9F5E194D993E152D9F3E9D3E9D3E9DE
:10C0800031D130D9EFD0EFC875EAB9F3FCF4E74805
:10C09000001800180759F7E3DAF3F7DA37DBD9E3CA
:10C0A0009FFD97DBF8EB77E398EBD6E234D2BAF357
:10C0B000D9E3FAE33AE49BEC1DFD1DF5FCF4FBF437
:10C0C00079EC12BB31AB8959000820082000200808
:10C0D0000008200820002000200020002000000090
:10C0E0000000200020002008200820082008200848
:10C0F0002008200820082008200820082008200800
:10C10000200820082000200020082008200020000F
:10C1100020082000200020082008200820082000F7
:10C120000008000800002000200000002108000096
:10C130000118F6E3F6EAD2D114E2F5E994D993D9DD
:10C1400093D9B3D993D973E173E152D951D930D985
:10C1500013DA1AFC95C3011800100020AB89D8F33C
:10C16000D7E295D237DB37DBB4CAD1B936E374D224
:10C17000BDFCF2B978EBD9E3BCFC3AEC7BF4BCFC37
:10C180007BF4DDFC7CF4FAF3D5D231BA0FA28A71CC
:10C1900000100008400020080008200820080008BF
:10C1A00020080000200020000000200020002000C7
:10C1B0002008200820082008200820002000200057
:10C1C000200820082008200820082008200020003F
:10C1D000200820080000200020002000200020006F
:10C1E0000000000000000008000800080008200807
:10C1F00020000000010800106A61F8F358FB34E2E7
:10C20000D4E194D973D9F5E9B4D9D4D956EA53D93C
:10C2100032D931D951D90FD174EADBFC0E8200102A
:10C2200000180140B1C277F355DA38E357E378EBF1
:10C2300012C274DA54DA33D237F3D6DAFDFC19ECD1
:10C240009BF49BF419EC5BF43AF43BF41BF458EBCD
:10C25000D5E2F1C1EB9008710128000840002000F0
:10C2600020002008200800082008000020002000EE
:10C27000200020082000200020002008200820089E
:10C28000200820002000200040080008000040088E
:10C290002000000040082000200020082008200086
:10C2A00000002000000020082008000000002008F6
:10C2B00000080008000800082008200000080220EC
:10C2C00095BB3BFC18F3B6F2F3E1D4E1F5E994E158
:10C2D00016EAD4D956EAB3E193E131E131E10FD165
:10C2E000F5F278EC4538011000202A99D4F233E2B7
:10C2F000F7EADAFBD6DAD6DAF6E254DA54E214DAFE
:10C3000013D217EBB9F3AFA959F47BFC1AEC3AEC52
:10C310005BF4B9EB17E395DAD1C12DA9CA9029795D
:10C3200002300010200020002000200820082008F3
:10C330000000200020002000200020082000200015
:10C3400020002008200820082008200020002000CD
:10C3500020002008400820000000400820002000A5
:10C3600020002008000000002008200040080000F5
:10C3700020080000210000080008211000082010FB
:10C38000000800000010F09A7AECDAF339F376EA4C
:10C39000B3D9D3E135F2B3D935E21CFCF3D992D944
:10C3A00092E131E151E9EFD015F3B4CB0128001847
:10C3B0000348EEC9F1E913DA58FB17E399F395DA6C
:10C3C00034DAD1D154E2B2D196EA99FB33CA2DA125
:10C3D00055E3FCFCD8EB19ECD9EB57EBF6E2B5DAF8
:10C3E000B0B9EC984880E880234800102000200075
:10C3F0002000200820082008000020002000200045
:10C40000200020082000200020002008200820080C
:10C410002008400800002008200800082008200804
:10C420004008000020082008200020080008001014
:10C43000000800002000200020002008000800085C
:10C44000000800002008000800080010012077DC28
:10C4500019F454CAB7EA76EAF4E115EAD3D974DAE2
:10C46000FAFBDAFBDAFBF6FA50E10FD92FD90FD13C
:10C47000F5F2B5CB01300040CBB12CC1F0E1B5E213
:10C4800078EBB9EBFAF3D7EAF3D9F2D9F1D933DA89
:10C4900037FBB5EAD2C92EB98FB975E3B6EB77EBA6
:10C4A000D6DA74DA13CA4FA90D99CB98A988A78058
:10C4B0004358001820082000200000082008200809
:10C4C00000000000200020002000200820002000A4
:10C4D000200020082008200800080008000800109C
:10C4E0000008200840082008000000082008200854
:10C4F000000020080000000800084008200040005C
:10C500002000000000002008200820000000000893
:10C510000118885914C4B9FC3AFC17EB55DA35E216
:10C5200076EAD3D195DAB8F397EB53D2F2D1EDC0D6
:10C53000ACC80ED9EED0CEC8D4EAB4CB00306588F2
:10C5400029C1CBC093F277F31AFC98E337E334E2C6
:10C55000B2D9D1E1B0D916F337FB96EAF3D950C17D
:10C560006FC150CAD3D2D5DA99FBB5EA2FB94EA91B
:10C570004DA1EB982BA1667864580018200820087C
:10C58000200800080008200800000000000020002B
:10C59000200020082000200020002008200820087B
:10C5A0002008000820100008000840082000200093
:10C5B0004108000020080000210800002000600859
:10C5C0002000200020000000210841080000000099
:10C5D00000002000000000100851F1AADAFC56EB20
:10C5E00074D2FBFBF8E234D295DAB9EB3BFC5AFC8F
:10C5F000F8F377EB77F336FB0EC96CC8CDD8EDD0E6
:10C6000096FB6E9A003808B187C0ABC893F277EBFF
:10C610009CFC58E399FBB2D1D2E90ED9D1E9F6FAE4
:10C62000B6EAF4D9D7F24FC1F1D1D0C1F0C1F5E2E9
:10C6300054D2F2D1EEB82EB10DA92CA9A9906678EA
:10C64000435800182008200820080008200820006F
:10C650002000200000000000200020082000200012
:10C6600020002008200820082008200800080008D2
:10C670002008200020002008000000080008010811
:10C680000008000800080008000800080108011060
:10C69000011000080000211000080008001069596E
:10C6A000BCFD1CFD97F337FB74DA7DFCF7DA95DAF5
:10C6B00057F31AFC7BFC16E393D2D5E2D5E236FBA6
:10C6C000B8FB36FB8BB88BC017FC0568026029C924
:10C6D00027C0ABC873EA3AFC7BF438E334D2B2D952
:10C6E00091E9EDD8CDC858FB34DAF4D155DAF2C966
:10C6F000F1C911D22EB157EB78F3B5EAB1C9D1C95E
:10C700002EB18A986888A7806450001020082008FD
:10C710002008000820082000200020002000200021
:10C7200020002008200820002000200820082000E9
:10C7300020002000000040082000200040080008E1
:10C74000000800080010A4302C72F092D4B3FCFD55
:10C750005AF56A7110A330A30018001000080008F1
:10C7600000100120AE8A1EFE3CFDB7FB32E294EAC7
:10C7700013DA95D21BFCF6DA3AFC16F353EAF3E926
:10C7800055F274F213E2D3D995EADCFCB7FB69B831
:10C7900050FAC9A8049026C006C0AFE177FB98E321
:10C7A00058DBD6D296E210D130E1ECD02DD195EA0B
:10C7B000B6E276DA96DAD6DAF1C1F5EA0DB1FAFB2D
:10C7C00017E374DA94E232D2D0C10BA1678086708D
:10C7D0000248001020082008200800082000200837
:10C7E0002000200020002000200020082008200831
:10C7F00020082008200820002000200020004008F9
:10C8000000004108000001102B620128EE929EFEFC
:10C81000DDFDBDFD7DFDDAF43BFD9DFD78E457DCDB
:10C8200052B34D82D2A3EB695093DBF5BCFD1CF5EE
:10C830003AFCF0D98BC012E236FBF9FB57EBF6E27B
:10C8400037FBF1E92FD930E911E1CFD092E9F4E9D2
:10C8500055EAF9FBBBFC2CD18DE92AC9A8C066D0EA
:10C8600006C06EC9B8FBD9F3F6D274CA38FBEFD054
:10C87000ADD849C010EA54E296DAD6DA18E3D6DA2F
:10C8800057EB73DACCA0D9FBD6DA37EBD5E2B4EAB2
:10C8900011D2EFB94B99E8804450001020082008CD
:10C8A00020082000200020082008000000000000D0
:10C8B0002000200820080000200820082000400058
:10C8C0002000200040000000000000080108719BCB
:10C8D0003EFE94C333C37AF4FDFCFCFCBBECDBFCF2
:10C8E000BBF4BBF45DFD1CF55DFD5DFDBEFDDEFD35
:10C8F0009DFD1BF5DBF45AF435EB6DD169C02CC1FD
:10C90000DBFCB3E252DAB5F254F24FE10EE10FE98B
:10C91000CFE010E9CFD8F0D8D3E9D5F2F4F2F0E1C6
:10C92000CAC82BD946C046D026B8F4EAD9FB78E36A
:10C93000FAFB95E254EACCD08AD048C051F2D5EA4D
:10C9400017DB16D3B9E317E3D6E2F0C98FB91AFCA7
:10C9500098EB37E353D22EB10CB14CA94BA1E89020
:10C9600048810018200060082000200800002000F6
:10C9700040002000000000000000200820084008BF
:10C980000000000820082000400820004000400867
:10C99000000800088D7A5BF538E47AF456E395D206
:10C9A000BAF39DFCDDFC1AECDCFC5EFD1DFDBCFC5D
:10C9B0007AFC5AFCB4D2FCFCFCFCFCFC7AF477EB6D
:10C9C00056FB90F247B0AAB81BFDB5FB6DB132E241
:10C9D0002FD10ED9ACD8EDE0ADE0ADE0AEE0CFE0C8
:10C9E00071F10FD1D0E152F2AEE14BE105C005C0CB
:10C9F00047B8B7FB3AFC58E3B9FBB2D1D1E16AC002
:10CA000089C868C0CFD957F337DB19EC36CBD6D2FB
:10CA1000B6DA90B92DA93AFC77DBD4CAF1B9F1C9DD
:10CA20004EB968888888C89808818751000020001E
:10CA30002000000020002000000020002000200036
:10CA4000200040080000400820080000400840087E
:10CA5000000020002000200800088538B7D496D3B5
:10CA6000B4CA16D3D6DA36E2F6D95AEBDBEBBAEB18
:10CA7000B8E33CFD5CFD55E3ECA8AED14DC1CEC999
:10CA800079FCDBFCDBFC7AFCD3F22EDAE9B88AB85D
:10CA9000CFD1BCFD32D314E3D0C990D98CC84AD0D1
:10CAA0006BE06BE04AE06BE0CDE84FE92ED973FA1A
:10CAB00071FA4BE126C0C9C8CED998F3FAEB78EBEE
:10CAC000D6EA91D90ED907B0EDE92CD151EAF6E2B8
:10CAD00017D377DB9BFC1AF433C2EEA0D5DA3EFD08
:10CAE0009BFCF8DB14CBCB9869902780478088901B
:10CAF0008A91423000080008000020082008000049
:10CB0000200820002000200020002000200800082D
:10CB100040084008200800004008400820000008A5
:10CB20000008C75094C3F4D237E377E395D2B4C971
:10CB3000B4D1D8DA18DB59EBB8EBD7DB7DFDF8FBC5
:10CB40008AA8F3FA6DD128B0AED971D295F310DA74
:10CB5000EBC037FCD1F28FE14EC977FC19FD34DB15
:10CB6000F8FBF5FA4ED949C069D049D869E049E0E7
:10CB700029D8ACE82EE912F231F20BD927B828B047
:10CB8000D7FBF9F3FAEB37E374E250D9EDC80EDACC
:10CB900009B128A873F278F378DB78DBF9E3FAEBD4
:10CBA00017DB74D2D9FB5BFC9BF49AEC9EFD71BA47
:10CBB0004880C990C8904BA94DAA223000080008AF
:10CBC000200820080000200800002000200020008D
:10CBD0002000200820082008000000002000000895
:10CBE00000080000000000080010086195D373CA17
:10CBF0003BFC7EFD1CFD3AF437DBD6DA54CA75DA0D
:10CC000096DAD6DAB9F35AFCB3D2B6FB50E268C86A
:10CC100048C028A8F3FACBD049C892FAF4FAF1E94F
:10CC2000F5FAD3D237FC91DAB3EA15FB15FB4CC900
:10CC300027B027C048D028D828D88AE8ECE84FE1A8
:10CC400052FA4CE12BD1CBB8B8FBBDFC3BFC17F33F
:10CC500070D12FD1B4F278FC11DB08A093F237EB3E
:10CC6000B9E3FAE33BECFAEB99F32FB178F3D9F39C
:10CC7000D8EBBBFCDBFCB9FC4B9187802A992AA13D
:10CC80002CAAA44000002000400000002008200042
:10CC900000002000200020002000200800004008A4
:10CCA0002000400040082008201040080000200814
:10CCB00000100969F3C2D1B1F2B939F41CFD5DFD70
:10CCC0005EFD1AFC58F354D275D2B6DAD6DA16DB0A
:10CCD00036E376F38ED1CAD807C8CEF12CD9CAE094
:10CCE00007C80BE10DD990E112E2F8FBD2E234FB68
:10CCF00055FB31DAF4FA18FC53FB2FF227C007D0AA
:10CD000027D848D88AE0EDD890E98EE1ECC036FB10
:10CD100037E3B9E3D9F3B6F20FC1CCA8F3E2DDFDF6
:10CD2000B4EB2CB915FBB8F33BECFAE35CF478DB1D
:10CD300017DB53D2D5E216E31AF439ECBAF45BFDF3
:10CD4000D8F4098929994A914879001800004000CF
:10CD500000002000400820002000200020002000CB
:10CD600020000008200820082000400000000000EB
:10CD700000000008400800080010875014C394C247
:10CD8000F3C1F3C195D25BFC1AFCD5E2B9FBBDFC43
:10CD900098EBF6DA37E333CAB5E2D5F20DD189D094
:10CDA00048D0ECE02DE969D827D006D089D80FE12A
:10CDB000EED0F0E950EA92F214FBB3F292F2ECB842
:10CDC000CFD1B2EA50EA89C807C826C807C04EE9E1
:10CDD00090E911EA72DAB8EBDDFCBCFC37EB92D1DA
:10CDE00030B9D2C21EFE57FC68A08EC135EB5AFC8A
:10CDF00039E43AEC1AECFAEB57DB16EB32CAB4D250
:10CE0000B7E359E4FAF4BCFD72C3A7808678C6681C
:10CE1000844000102000200040002000000020007E
:10CE2000000000002000200020000008000820086A
:10CE3000000800006639ED720010001000080008BC
:10CE40000010C860D3BAF5D2F7DA76DA34D2B5DAA0
:10CE500078F337EB98F3F9F3DDFC9BFC1AFC37EB26
:10CE6000D5EA75F22FD929C848D069D88AE089D87F
:10CE700026D004D047D0B1F90FD949C0ADE9CFE1F0
:10CE8000F3FA71F230EA31EAF4FA75FB4FDAADD910
:10CE9000A9C84FFAEAD06AD06FE152E256EB7BFCA8
:10CEA000DDFC77F353DA33D216E37CFDBFFE47A0F7
:10CEB00089B051D239FC9AF419E43AEC78DB7BFC66
:10CEC000F5D2B8FBF1C116DB5AFC7EFD5CFDAC89E6
:10CED00045582460A5606340001800080000200049
:10CEE000200020004000000020082000200020003A
:10CEF00020000008200800000008442856BC5FFEFF
:10CF000098D46A6101188D7A01202550F3C294C229
:10CF1000B5D258EBBAFBD7EAB6E216EBD9FBFAF377
:10CF2000FEFCDDFC5BFC5BFCD9FBF4E90FD96AC8B5
:10CF300089D0A9D868D888E026D004C867D0B1F1D4
:10CF400030E1AAD088C8CEE991FA2FF24CD90CD999
:10CF5000EBC833FB53FB13EB13F375FB6DD908C020
:10CF60004DD972DA7AFC3EFD1AFCD6F291C973C231
:10CF7000DFFDDDFDEDC126B0A9B897EB5AF439EC21
:10CF80005AECD9E31BF4D6D299F337EBF6E258E327
:10CF90001BF4B9EB39F4F1BA0348C4502028000857
:10CFA00000080008000800002000200040002000C9
:10CFB0000000200020002000000000080000000801
:10CFC00037BDDCED79DC96CB79EC1BF55BF5B8E48D
:10CFD00036D4B4CBF7E31AF47CFCD9F3D6D2F3C938
:10CFE00017EBDAFB94D274D278EBB9EBF9F319FCB6
:10CFF000D5EAD3E130D9ABC848C847D046D047D8E6
:10D0000005D024D026C8D1F1D1F12BE946C8C9D02A
:10D01000EEF1EEF1EEF1CAD8AAC868A00EC258FC33
:10D0200010CA2DC151FA2CD9ABB8D4DA7EFDF8FB69
:10D03000F4E26FB932CA5CFD1EFE09A967A8C9C037
:10D04000CED9FDFC5AEC3AE45AEC5BF499E3B6D243
:10D0500054CA71B134CA38E318DB59E398E3B5DB3D
:10D06000E768001800102008000000080008000809
:10D0700020002000200020000000200020002000D0
:10D080002000000800087BDE1FFF3BE59AECF8E378
:10D0900077DBD8E319F47AFCFCFC1CFDFBFC9BFC61
:10D0A000BCFCBCFC5CF41AEC9CFCDAFB94EAF7FADE
:10D0B00013DA78F337F316FB12E251D1B2E9ECD868
:10D0C00047C806C826D047D047D004D005C04EE98F
:10D0D000F1F948D806D047C8E9D0CDE9EAD0AAD0BE
:10D0E000A9C050C2BEFDF4F24ED1CCD06EE115FB0A
:10D0F0004EC11CFDB6FBAEC9AAA091BAFEFD7FFED3
:10D10000ECB965A8C8C827A835FB9BFCF9DBBFFDB7
:10D11000B7D357D358E3F7DA55D230A954CA38E316
:10D12000BAEB17E354C293BAF1AA03280008200807
:10D130000000000820082008200020002000000037
:10D1400000000000000000002000000821105294A0
:10D150003FFF1AE5DBF4D8E357E337EBD5DAD6E245
:10D1600098F356DBF9F3D8EB3AFCD9EB1AF49FFDB0
:10D170001AFCF2D191D9F2E1F2D913DA54E294FA1D
:10D18000B2E191D9D2E10DD968D025D004C867D0D9
:10D1900067D004C005C08BD02EE907D005C846C8AB
:10D1A00009D92BD1AAC049B0D3F29EFDBBFCF1D95D
:10D1B0000DD1ABD04EE993FAD4F2B7FB0BA9489846
:10D1C000F2E23EFE7AFD4DC264A044B825B82CC9F7
:10D1D0001AFCFAF37BF4B7D339E436D3B4CA33CAB2
:10D1E00050B1D6DA75CA79EB95CA95D274C294C299
:10D1F00059DC2951010801082008200020002000E6
:10D20000200000000000000000002000200020009E
:10D210000000010000000000F193DFFE57E475E319
:10D220002EA9EDA833D234DA75DA54DA33D237F3D3
:10D2300016E316E377F336F32FC14FD92FD190C9F8
:10D240002FB991D155F292E192E114E233EACDD8AF
:10D2500007C803C004C845D025C846B0B1FAEDD808
:10D26000ACE026C825C8A6D066C048B84DC19BFC16
:10D27000FCFCF5F2CDB8F1D952F26AC8CBD88FE1F7
:10D28000B3FACFD1899095DBDEFD1AFD09B144A830
:10D2900043B003B804B0D0D9B9FBFAF398DB97D305
:10D2A000FDFC77E3D1B18FB990B9DEFCF4C138E36E
:10D2B000D6DA17E399F33BFC18DCE74800080008CE
:10D2C00000002000200020002000000800080000CE
:10D2D0000000200020002000000021002100410863
:10D2E000000891ABB0AA0FBA93E253DA53DA54DADA
:10D2F00054E234E295EAF2D953E273E2B0D1B1D903
:10D30000B0E990E9ACC831DAFDFCF2D154E250C981
:10D3100070D195EA50D10DE107C803C003C004C81D
:10D3200005B8D5FBEFE16BC8CBE026C824C0AAE165
:10D330004AD18AB01DFD7BFC73DA6BB06FD9F4FA69
:10D34000F4FA10F2CBD08FE952F230DA38FC5CFDFF
:10D35000FEFD2BB926B803B001B003B80AD174EAB8
:10D360009AFBFBFB5BFC98DB78DBF5DA0DA92EB9A9
:10D37000EDA830A955CA18E358EBF6E253CA74CAAF
:10D3800071AA433000000008200020002000200087
:10D3900020000008000820000000200020002000DD
:10D3A0002000200800002008000870AB4B892CA941
:10D3B000F0C9D4EA57F3B5E2D6EA53E253E212EAEF
:10D3C000D1E173F211EA2FD9EED870E96FE14EC1C5
:10D3D0007BFC5EFDDCFC56E3F5E2D5F22FD1EDD807
:10D3E00048C802B001B044C805B850F24ED929C8A7
:10D3F000CAE025C06AE132FB75FBB8FBD6E2F2D980
:10D40000ACB82DD992FA31EAB2F291F291FAAEE1CA
:10D4100072E275E37DFD1FFE71CA0BC905B802B843
:10D4200002B805B8F0E9B6EA19EBFBFB78E399E33B
:10D43000D2B16FB90A9870C175E2F8EAB6DA9AF318
:10D4400034CA74D2D4DA93D20EA2823000004008DB
:10D45000000020002000200020000008000820001C
:10D460002000000000000000000020084008000824
:10D47000001030ABEDA10BA90CB18FB9F2C933DAB2
:10D48000B2C9B1C990D1B1E1F1E9B0E12FD9EED87B
:10D49000EED8EDD00ED14FC994E23AF4FCFC3DFD3C
:10D4A0007BFCD9FBF2D92EC90BC945B044B024B8D6
:10D4B00025B8CFE90DD16AC869D067C866B82BB165
:10D4C00056EB17EBB6EACDC0CCD0CFF10FF2EFE9B7
:10D4D00030EAF3FA13FBB2EA14EB9EFD3DFD55EB87
:10D4E0002CB9A9C805C002B803B868C02ED155DA56
:10D4F000BBFBFBFB58E374CAB1C18CA82CA834E277
:10D50000F7F275DA13CA18E370A9B0B90DA1CA9879
:10D510004989466A400800002000200020002000C1
:10D52000200000080008200020000000000000008B
:10D530000000000820080008011877E42FB28EB11F
:10D540002DB14EB950C134DAB2D113E2D2D9EEC8FE
:10D55000EDD02ED10ED96BC8CCD0ECC84ED1CDC8F1
:10D56000B1E138FBB9FB78EB1AFC1AFC7CFC5AFCE5
:10D5700039FC50D246A044B004B04DD98FE9ACD0AC
:10D58000ECE048C0AAB8F8FBFCFC12DA6BB84DD945
:10D5900010FA4CE1EFF1F0F152F211EA10DA97F3E0
:10D5A0007EFDF7FB6DD16DD1CAC826C003C002B0A5
:10D5B00003B0A9C82ED1D3C93DFC99EBD5D290C1F7
:10D5C0006CA80BA071C956EAD4D113D2D2C150A90C
:10D5D0000EA16B90AB98C9982781E77A88730000F9
:10D5E000200020002000200020000000000000009B
:10D5F00020000000000000000000000020080008DB
:10D6000071A3B5D331C2CFB98FC10EB990C971C161
:10D61000D2C9D2D112DAB1C9B0C9F1D9B0D18FD142
:10D620006FC9AFC976FBD1E12FC951C914DAB5E290
:10D6300078F399F33BFCBCFC9BFCDCFC78FC8EE2B1
:10D6400029C16DC92DD1CDC8D0E9D0E911EAD8FBE7
:10D650004EB94AB0AFE18EE1AEE9EFF130F210F22F
:10D66000AFE1F1E135FBBBFC71D269B0AAD0CAD001
:10D6700047C825C803B803B845C069C06FD955DA93
:10D6800018E398EB12CACDB86CB051C9BCFB15DADF
:10D69000B3C930B170B170B18B90CB9869880999DA
:10D6A00026796149E97BE439000020002000200050
:10D6B00020002000200020002000000000000000CA
:10D6C000000021000108001055C434D331CAF0C94C
:10D6D000D0C990D190C912CA74D298F31AFC39EC0F
:10D6E00059EC39F497E3D8EB19FCB8F3D8FB19FCE3
:10D6F00015EB95E271C913E2F2D995EA58F3D9F323
:10D70000B9EB1AFCDCFCFBFCDAFCD6F3D4E253E206
:10D71000B5FA93FA6ED909B0ABC051EAB2FA71FA10
:10D7200010F2F0E910F2CFE9F0E1B4E219FCEBB845
:10D7300048B0A8C0E9D047C026C825C803B803B080
:10D7400045B8A9C80DC974E257F372DA0DB10A9849
:10D7500092D176EAD3C9D4C992B991B98C902DA946
:10D760008A908A90A9880991A4604020A231674AD2
:10D7700020002000200000000000200020002000E9
:10D7800020002000200020002000200000000010C9
:10D79000B2AB13D3B3DA31CA11D24FC170C132CA9E
:10D7A0005FFD16EB98EB9FFD7FFD1EFD3AF49BFCA1
:10D7B0007BFC3AFCD9F339FC5AFCFAFBD6FA0ED1C1
:10D7C00070E170D190C9F6EA58F3FAFBFAF39BF4D2
:10D7D0009AEC9BFC1DFDD9FB4FC1ABB829B0AEE95B
:10D7E00051FAD2FA71EA51F272FAEFE9F0E993FADA
:10D7F000F5FAF7FB50DA07B067C866C066C046C0E6
:10D8000026C004B803B004B866B889C0ECC8F1D12A
:10D81000F5F229986BA013DAF8F235DAF4C931B1D0
:10D82000CEA074D212C28A90CA98CA90A888C7782B
:10D83000224000108010E118600820002000000045
:10D8400020002000200020002000200020002000D8
:10D850002000200000000008C961D5DBD3DA73D2B4
:10D8600053D2D2C9D2C991C1D1C9F2D970C974DA1F
:10D87000B5E2F2D150C1D2B9FAFB74D2B9FBD5DA14
:10D88000F5EA16F336FBB0F1ACD8B0F1B0E170D9DF
:10D89000F3E195EAB5E2B9EB3AF43AF4BBFCF8FBF4
:10D8A000ECB8AFD1B2FAD2FAB2F251EA92FA31F24E
:10D8B000F0E910EA51F2D1D9B3F212FB05A867C81A
:10D8C00005C046C845C026C025B845B824B804B030
:10D8D00005B048B8CBC06EC907880EB116F317EB78
:10D8E00055D256DA31B150B98D9812C28B888988D9
:10D8F000EA98C990C7788558002840188008801099
:10D9000040002000200020082008200020002000E7
:10D91000200020002000000000004008000820082F
:10D92000001811BB14DBB3D253D213D2B1C991C9C1
:10D93000D2D170D170D171C914E251D971D971C1EC
:10D9400099FBF6DA98F316E3F1C1F5EA8FD12DE1F0
:10D950008AD869D00CE1ACD8EDD88FE111E293E21E
:10D96000F5E277EB36EBAFD16DD171F20FE270EAF1
:10D97000B1F271F252F2F0E911F2CFE90DD1B1D961
:10D9800056FB04A044B824C025C825C005B805B876
:10D9900046C045B803A804A826B048B8ABB86BA8E1
:10D9A00011D299FB38F395D234CA92B992C1EEA83C
:10D9B000AC980EA12DA18988A988A780A670834064
:10D9C000001040108008C1108008200000002008CE
:10D9D00020082000200000000000000000000000DF
:10D9E000000020082008201000184550F2CAB3D2C9
:10D9F00032D212D291C971C9B2D1B1D1F2D934DACD
:10DA000054EAB2E1EEC06DA83CFC78E3FEFC97E37B
:10DA100035DB31D2ECC02BE187D805C005C047D03B
:10DA200007C827C089C80BD92CD131E2F4FA4DD1EF
:10DA30000CC9EFE171F2AED971F230EA31EAF0E9E6
:10DA4000AFE92CD9D0F1D1E152F204B063C003B8F0
:10DA500004B804B804B805B886C844B803A824B00C
:10DA600005A806A0CCB874E259FB18F376E295D26B
:10DA700071B171B970B9CC982DA94EA92DA90B9986
:10DA80008880A780E6700018401060106008E218D7
:10DA900002192000200000000000200020000000EB
:10DAA00000000000200020002000000020080008E6
:10DAB00000100120CC8991CA52DA12D2F2D1B1C938
:10DAC00071C9F2D1F2D134DA95EA91D16CA891C141
:10DAD00037E37BF4BCFC5AECBBFCD8FBB3EAC9C00F
:10DAE00046C025C004C004C004C004C004C005C0B2
:10DAF00006C048B8EBC8CBD0CBD06DD992FA6DD95F
:10DB000051F230EA50F250FAAEF1CBD84EE9D1E9F9
:10DB10000CD104B802C003B803B803B003B004B812
:10DB2000A6C844B803B004A805A88AB8F1D938FB40
:10DB30007AFBB8EAD4C9B2B971B150B12FB1EC983F
:10DB4000EC980DA1EC98EB98C888C7784348001072
:10DB50004008A0108010A11064294000200000009F
:10DB60000000200020002008200800002000000005
:10DB700000004000000000082010000803382FB209
:10DB8000F0C911D2B1C991D1F3D9D2D113D2D2D126
:10DB900050C191C154D23BFCFDFCFCF41CF5FDFCD2
:10DBA0009CF41AF4D8F333F32AC968C805C803C033
:10DBB00003B802B803C804C804C805C067C888D041
:10DBC000AAD00CD930FAAFE98EE1AFE1AEE9AEF1FF
:10DBD0002CE1AAD0ECD88AC869C024B803B803B82D
:10DBE00003B804B824B845C0E8D024B804B027B8B6
:10DBF000EDC833EA17F3B7E2B7E235DA72C171B1B3
:10DC000091B92FB10EA9CCA00CA1EB980B99A988C2
:10DC1000C8802669002820186010801080108008B5
:10DC2000C110200020002000200020000000000083
:10DC3000000000002000200020002000400800001C
:10DC4000200800080010C8700FC2F1D190C991D10E
:10DC5000D2D1D2D1B1C991C1D2C116E39CFCFDFC95
:10DC6000DCF4BAECFBF4BBEC9CF47BF47AFC17FC20
:10DC700054FBCEE107B005B045C044C002B804C8AB
:10DC800004C803C003B866C8A8D0CAD06DE94DE186
:10DC90002CD9AEE96DE16DE90CE18AD0AAD089C832
:10DCA00006B804B802B004C004C024C003B0C7D092
:10DCB000E8D087C027B8ACC871D9F4D9FCFB56DAD4
:10DCC00035D293C171B930B12FA92EA90DA1ECA005
:10DCD0000CA14CA1EA908880A668C4482020601856
:10DCE0008018801080088008A110200020002000EB
:10DCF00020002000000000000000000000000000E4
:10DD00000000000800082008000820080010012872
:10DD1000CC99AFC1B0D990C9B1C971C9B1C970B1FD
:10DD2000D9F37BF4DCF4FCFC9AECFBF4FCF4DBECC4
:10DD3000BCF47BF43AF4D8FBB7FBB6FBF3EA4BB97F
:10DD400026A003A023B003B802B802B802B844C0AA
:10DD500066C8C9D089C82CE1EBD8EBD02CD90BD937
:10DD60002CE18AC8AAC847C004B003B802B802C0F0
:10DD700003C004C004B866C846C089C08BC071D94E
:10DD8000D4E1F5D197E235D215CA14CA70B12FA9E2
:10DD90000D99EFA90B91CB90CB90AA90A9886678AA
:10DDA000A56821302018601880108008800880083D
:10DDB000810820002000200020002000200000001A
:10DDC00000002000000000000000000820082000E3
:10DDD00020002008001000108650CEB94EC190C916
:10DDE000B0C970C991D1B1C19CFC3EFDDFFD19ECF9
:10DDF0007AFCDBFCDBFC7EFDFCFCD8F3D8FB37EBCC
:10DE000015E376EBF7FB38FC95FB4FE2EDD9E8C064
:10DE100004B003A804B003B004B847C8EAD8AAD035
:10DE2000AAD069C0CBD00BD9EBD8AAC868C025B09E
:10DE300003B023B802B802C002B824B825B804B0B1
:10DE400047B80DD1AEC052D1B4D156DA15CA15CAF1
:10DE500013C2D2B990B12EA1EC98CEA10FAA07702F
:10DE6000898848806678C67083480020401060101A
:10DE700080088008A008A0104008200000002000B2
:10DE80002000200020000000000000000000200012
:10DE9000200040004000200020000008001000107A
:10DEA000002009896DB96EC16FC94FC970C912D2FE
:10DEB000DDFCF9FBD4D2ACA08B98BBFC1CFD8A988E
:10DEC000CBB04EB9CDA854DAF6F2B5E2B4E277FBA6
:10DED00077FB7BFCD8FB35FBF0D96ED1EBC889C84A
:10DEE00069C828C028C828C8AAD848C889C88AD0FC
:10DEF00007C046C003B002A843B002B002B802B8DF
:10DF000023B803B045B047B029B04FD131D1B3D910
:10DF100015DA7AF37AEBD3C191B9B1B94FB10D9952
:10DF2000AB886EA114D34778678087808570835053
:10DF3000002040188018A010A010C010C010801041
:10DF40002000000800082000200020002000000021
:10DF500000000000000020002000400020004000E1
:10DF6000200000080008000800100340CCA14DB9B3
:10DF70002EC14FC970C92FB932D22EB10EB1CCB853
:10DF80004EC1BBFC6DA969A069B0ABB82AA013E271
:10DF9000D6F294E253DAB5EAB5EA58F3B5E233DAE9
:10DFA00013DA54EA91D9CDC8ACC88BC849C0CBD8D4
:10DFB0008AD048C028C008C0CAD804B003B003A89B
:10DFC00002A802A822B002B002B003A846B089B0ED
:10DFD0002EC971D172D1F4D997E296D213BAD2B9BF
:10DFE000D1B92FA9B0B10D99AB88AB8830B22678E2
:10DFF00025708578A460203020104010A110A0105A
:10E00000E010E010C0104008000000080008000800
:10E0100020002000200000000000000000000000A0
:10E020000000000020080000200020080000400838
:10E0300000080010C658ADB14EC14EC12EC14FC12F
:10E04000EEB850C90EC1ACB08FC110CACBA889B010
:10E0500089B869B008A08FC9B1D190C933E2F2D9AB
:10E0600054E291C974E291D131C992D131C910C938
:10E07000EEC8ACB88BB0EDC8ABC08BC06AC04BC0AB
:10E080008BC869C047B087B004A803A802A802B033
:10E0900003A826B0CAC0ACB84FC90FC114D235D23C
:10E0A00096D234BA78E312C24FA9CC980D99AFA991
:10E0B000F0B1AA808CA1457064706260414020205C
:10E0C0006010400880108008C010C010A010200010
:10E0D0000008000800082000200020002000200088
:10E0E00020000000000000000000200800004008A0
:10E0F0000000200040082000200000080018E980EF
:10E100008DB94DB92EC1EEB80FC1EEC00EC12DC1F3
:10E11000ECB0ECB0CBB0AAB068B068B049A88AA89F
:10E12000F0D1ECB88BA82EC150C990D191D1CEB806
:10E13000B2D976EA11C152D130C92FC1CDB02FC9A1
:10E14000EEC0ACB88BB88DB8F2E9EDC84AB089B86A
:10E150000EE2039824A8029803A027A86AB0CDC0B5
:10E16000EFC092C9F8EA34C296CAD6D2FAF3F5DA09
:10E17000EC980C99698031BA30BA0568E780647010
:10E180004358204081380010C11880108008600872
:10E19000A010C01080080000200800000008200027
:10E1A00020002000200020002000000000000000CF
:10E1B00000002000200020002000200000080008AF
:10E1C0002008200800100138CCA16DB12DC12EC14E
:10E1D000EEC00EC10EB90DC1ECB8CCB88AB08AB091
:10E1E00089A869B028A0AAA88EC12898CBB02EB95A
:10E1F0006FC14EC12EB94FC190C90FB930C131C9DD
:10E2000030C1ADA8EEB80FC1CEB88CB070C92FC95F
:10E2100030C913E270D1EDC828B047A80498029025
:10E2200003902798ABB0CDC0EFC0F4D172B1BAE380
:10E2300095C213BA37E32EA1EC98CB986988EA9877
:10E24000668045780360836862506138202000084A
:10E250008110E22040086008A010A010C01000004B
:10E26000200000000000200020002000200000000E
:10E27000000000000000000000002000200020003E
:10E2800020002008000800082008400800080018A6
:10E290008658ADA18EB90DC12EC10EB92EB90DC1D2
:10E2A000ECB8CBB8AAB0AAB089B069B089A888A8E0
:10E2B0002BB189A0AAA04DB10CA9ABA8ABA8CCB03A
:10E2C0002EB90EB9EFB071C9CFB00FB951C192C913
:10E2D000AFB0EFB8D2D1D2D971C955E292D133EAF9
:10E2E0006FD1EBC088A80280238825886898ABB0DE
:10E2F0006FC971C114C27FFDB5BA33C232C24EA11B
:10E30000CA88898867806578857023602250614853
:10E310002030201800100008611081186010601073
:10E32000A010A010A010200020002000200020003D
:10E330002000200020000000000800000000000075
:10E340000000200020002000200020080008000815
:10E3500020084000200000080120E8708CA96EC948
:10E360004DC94DC10CB90CC10CC1CAB0A9A8CAB0E5
:10E37000A9B0A9B0C9B826A0A8A82AB18890889049
:10E38000489049988AA8CBB0CCA8EDB0B1C90EB9D5
:10E39000EEB02FB1EFA8EFB010B9CFB055E2B3D1C6
:10E3A00073C9F4D914DA34E270D1B1D9AAB00480B7
:10E3B00001704278C588A6904CB1F1C9F3C1B9EBA0
:10E3C000D5CA6FA9AFB18EA10A894678447006718B
:10E3D0000038203000200010201000080008000045
:10E3E0006110A118A0186010C018A010A01060083B
:10E3F00000000000000020002000200000000000BD
:10E400000000000020000000000020082000200084
:10E4100020002008200820082008000040082000D4
:10E42000001002308B89CDB96DB96DB94DC10CC1E9
:10E430000CC12BB9EAB8A9B068B068B006A046B064
:10E4400087B0C8A0C8A005804790289869A8EBB0FD
:10E450004EB90DB10EB14FB9CDA8D2C978FB2FB9C5
:10E4600030B930B935DA11B935DAB3C9F4D171C17F
:10E4700071C991D1AFC9E9A80378417040680168BA
:10E4800045808DB1B3D2F5D2F0B12C99A988AC9961
:10E49000C77803606360424800200010000000005D
:10E4A000200020002000000040106018C12040081B
:10E4B000A010C010801020002000000000002000EC
:10E4C00020002000000000000000000020000000EC
:10E4D0000000000800082000200020082008200874
:10E4E0002008400800002008000800100120C76034
:10E4F000ACA1EDB96CC14CC1CAB8EAB888B068B07B
:10E50000CAC088C067B866B866B086A8C8A8269092
:10E510002690279069A02CB1CBA8CCA8F1D1EDB062
:10E520006BA0EDB0F5EA4B980EB12FB930B971B9C7
:10E53000B2C192B955DAD3C1B2C150C970C90DB9CF
:10E540002688427060684168016804780DC253DB18
:10E550004B99C9886678447002600260025821486D
:10E56000413000082000400020000000400800006A
:10E570004008A11880184008C010C010C1106008E1
:10E5800000002000200020002000200020000008C3
:10E590000008000000000000000000080008200043
:10E5A000200020082008200020000000200800088B
:10E5B000401000080008012002382568C8900BB1FF
:10E5C0000CC10BC12BC90BC9EAC867B805B004A8B8
:10E5D00024A804984698A8A867A0279869986998DD
:10E5E00029908AA0F0D108908BA8EDA8EDA88BA067
:10E5F0002EB950B991C10FB191B951B171B9F2C9E8
:10E6000012CA70C14EB9F0C967902268406841686B
:10E61000427002706580E890047003702370026895
:10E6200002682260636042504138402000080000C8
:10E6300000002000200000004008A010A01060088A
:10E64000A0100119C01820080000000000002000E0
:10E65000200020002000000000000000000000005A
:10E6600000002000200020082008200020002000BA
:10E6700020002008000800082008200800080010DA
:10E6800000100120024051D211E28ED10CC9EBC81A
:10E69000A9C067B825A866A825A004902598059864
:10E6A000A8A848A0AAA8EBA8AAA049982CB18BA812
:10E6B000CCA82EB1EDA88CA02FB9EEB02FB94FB9D0
:10E6C0006FB92FB1ACA00DA90CB1EAA02AA1A790F7
:10E6D00044784270216842702270027002700270A9
:10E6E00023804280027822702270016021582150DC
:10E6F00041486138002000080000210800000000A7
:10E700004008A118E01821192119E118A010801063
:10E710002008000000000000200020002000000071
:10E720000000000000000000000020002008200879
:10E7300020082000200020002000200020082008C1
:10E7400000082000200000000010CB6916DC35EB2B
:10E7500052EA11E2CFD9CAC048B026A866A80498E8
:10E760002598259825980598069827980BB1EBB021
:10E770002CB14898CAA8CCA8ABA84EB9CCA84A9846
:10E78000B0C94EB9EDB0ECB0ECA8CBA8EBA8CAA0CC
:10E79000A790448001680268427042702270237022
:10E7A0000270237823804380438022802280237854
:10E7B000437043684260415841504148824061285B
:10E7C00000080008000020080000C110E018C01078
:10E7D000C0100019A01080100000000000002000F0
:10E7E00020002000200000000000000000000000C9
:10E7F0000000000800082008200020002000200859
:10E8000020004008400820082008200000080110CF
:10E810002D7A78E476E3F5EA73EAD0D1CCB0ABB8E0
:10E8200028A807A047A826A046A087A00698269853
:10E8300026980590069868A04CB9079089A08AA8E8
:10E8400049982CB9EBA848980790EBB0EBB0CAA850
:10E85000AAA0CAA0879045802270216820684170D4
:10E86000417021702270227823802380238823889E
:10E870004488238824882480237823682260426087
:10E8800041584150624882380018000800000000DA
:10E890002000A110E118A01080084221E1186008B2
:10E8A00000002000200020002000200020000000A8
:10E8B00000000000200020002000000800082008C0
:10E8C0002000200020002008000020000000000898
:10E8D00040100008010825383BF597E3B5DAB5E2AA
:10E8E00053E2D0C92DB9CBB06AA8AAB807A048A8EE
:10E8F00047A047A0269847A0269847A0A8A846A0CA
:10E9000088A889A8AAA849A069A048A089A826988B
:10E910002698059867A0479846900580037802706E
:10E92000216820602060206821702170027043807F
:10E9300003802488048825902588048805882588F4
:10E9400045804470226822584258635042484240F1
:10E9500020280008200800000000A110C110C010ED
:10E96000C010E018C010A1102000200020002000DE
:10E9700020002000200000000000000020002000F7
:10E98000200000082000200040004000400020003F
:10E99000200020000008000800080008A638B9EC94
:10E9A00097E3D5DAF6E254DAB1C94FC1EDB88BB0CE
:10E9B000ABB829A848A848A828A068A848A868A86B
:10E9C00068A8A8A8C8B0C9B088A868A828A028A026
:10E9D00028A007A026A025980390049803900388F8
:10E9E00003800270027001682168416861682168D3
:10E9F00041702170638003782488259026980690C2
:10EA000047982798279006880578257844704360B2
:10EA100022584250635042486240855120180000FD
:10EA20002000C110C010C010C010C010A010E1180C
:10EA300040082000200020002000200020000000CE
:10EA400000002000200020002000200020002000E6
:10EA50004000400040002000200000000008210885
:10EA60000008A63898D4D7E336E395DA33D2F2D14A
:10EA700091C92FB92EC1EDB86BB08BB8CBB88AB0A5
:10EA8000EBB869B048B0EBC00BC1EAB8C9B088B008
:10EA900047A847A0079827A027A027A826A025A019
:10EAA00045A003900390049003804380638022700C
:10EAB0002270627062702170217042700270248036
:10EAC00025882798079848A049A02898289048901A
:10EAD000278826782570446043584350435063503C
:10EAE000224041302020000000008008A010C0100B
:10EAF0000019E018C010A110200020002000200004
:10EB00002000200020002000200020002000200005
:10EB100020004000200020002000200020002000D5
:10EB200020004108000001080110F19A58E498E320
:10EB3000D5D2F6E234D2F3D991C9B1C990C90EC188
:10EB4000CDB82EC94ED14DC9ECB8CBB8CBB8ECC0BE
:10EB5000CBB8A9B868B068A868A80798279848A053
:10EB600048A848A027A046A0059804982598059095
:10EB70000490249044902380027843784378227054
:10EB8000227023784480268827908AA84AA04AA029
:10EB90008BA8ECB04998299049906880056824605A
:10EBA000A5684358646002504250A35024490008AD
:10EBB00020006008A010C0102019E010C010A108AB
:10EBC0002000200020002000200020002000200045
:10EBD000200020002000200020004000200000082D
:10EBE0000008200020002008200800004108000044
:10EBF0000218F9E4D7DBD9EB99EB95D233D2F3D1F4
:10EC0000B2D1B1C970C154E22FC90EC90EC9EDC04D
:10EC1000CCB8CCB8F0E14AB0CBB86AB069B007A0C4
:10EC200048A0A9A8CAA848A049A028A048A0069022
:10EC300026980698069806982698049005982588A0
:10EC400024800480037803780480458846884898A7
:10EC5000ABA86AA88CA8ACA88BA06B98ACA0EDB0B0
:10EC600049902780267045684460445884606460F9
:10EC7000025042486238001000006008C0100019BD
:10EC80006121C008C008C1104000200020002008F9
:10EC9000200820002000200040002000200020004C
:10ECA000200020002000000800080008200820089C
:10ECB0002008201000080000C530FCFD99EC76DB30
:10ECC000D5D294D275DAB2C9B2D1F2D191C134E2BF
:10ECD000CEB8B2D90FC9CDB80EC14EC98BB0CCB821
:10ECE0004AB0ABB84AA86AA88AA889A0A9A08AA0F5
:10ECF00069A069A007902CB1289848A028A049A035
:10ED0000CBB0079847986890478825880588059074
:10ED10000690489849A0ABB0ACB0CEB8CDB0EDA845
:10ED2000CCA0EDA88B988BA0499089906778456816
:10ED3000446085600250636043584250623800105E
:10ED400020080000A0102019A2290011E010A0083E
:10ED50006000200020002008200820002000200063
:10ED600040002000200020002000200000000008BB
:10ED700000080008200820002008000800080008FB
:10ED800074AC1DFE79E4B3C236DB57E374D233D2E0
:10ED9000F3D1F3D1B2C9F3D150C10FC1EFC02FC12C
:10EDA0002FC10EC1EDB8CCB0CDB8EDB88BA8ABA8D3
:10EDB000AAA02CA9EAA0899849980890EFD1EBA8BD
:10EDC0000890CBA829A06BA06BA86AA86AA08A9813
:10EDD00069904890289848A029A08BA88CB0EEC0D4
:10EDE00050C92FB94FB96FB12EA92EA98B988B9806
:10EDF0006A98EB98C9886670246044608460636098
:10EE0000435822484240201800080000C118E01072
:10EE10004019E010E010A008C110200020002000E0
:10EE200020002000200040004000200020002000A2
:10EE300020002000200020002000200020004000B2
:10EE40002000200800088320BEFE3AE599EC56D346
:10EE5000B8EB57E3F6DAF7E254D2F3C9B2C1F3D113
:10EE6000B2D192D171C90FB950C12FB9EDB00DB166
:10EE70000EB1CDA8ADA0ECA8EBA0CEC16990AAA020
:10EE80002898ECB02DB969986A98ECB0EDB0ADA8AF
:10EE90000EB98DA8EEB0EDA0AB988A986AA00DB11E
:10EEA000ACA8EEB8EFB050C1B1C1F2C912CA12CAD3
:10EEB00012CA8FB94EB1ABA0ABA0CB98A9908880F5
:10EEC0002570246044606460635843504240622867
:10EED00000080000A1100019C22900110111E11061
:10EEE000E110C11060082000400000002000200058
:10EEF0004000200020002000200000002000200012
:10EF00002000200020004000400000000008D5B490
:10EF10001CF6FAEC55C356CBD5C2B4CA94C2F2B9AA
:10EF2000D2B974CAD2C1D3C9B2C971C151C1D2C98F
:10EF300070C1EEB04FB94EB16FB970B190B9CC9805
:10EF40008EB1CA98A990AAA0AAA829A049A0ABA04E
:10EF5000ECA8CCA80EB950C12FB971C113D22EA9FB
:10EF6000CDA0CDA80EB130B9EFB031C131C171C162
:10EF700095DA94CA73C253CAD5DA52CAF1C1AFB98D
:10EF80000DA9CBA0CB98CA9088806570446064605E
:10EF900043584350224061300010000040082119BE
:10EFA0008221C008E1088000A008E110E110A0085B
:10EFB0000000200000004000200020002000200071
:10EFC0002000200020002000200020002000400021
:10EFD0004000000005317DEE5BE518DCB7D33AE474
:10EFE000B8D357D397E374CAB5D2D6D233C275D249
:10EFF000D2C171C1B2C971B990B991B92FA96FB11C
:10F000002EA14FA90EA12DA90B99EA98C998CAA0C3
:10F01000EBB08BA8CCB00DB14FB970C150C171C964
:10F0200071C192C150B950B92FB12FB9EFB031B9F8
:10F03000F4D152C9B4D9F4D195D2B8E3B8DB77E3AF
:10F04000F5D273CAF1B973D231CA8FB1AB90698866
:10F0500027804670446085606458A45862488238AE
:10F06000001000002000E110E0108000800040004F
:10F0700080000111E010C010E110200020004000CD
:10F080002000200020002000200020002000400060
:10F090002000200020002000200000004B5ABBE58B
:10F0A000B9DC18D4B8D3D8D3B8D3F5C2D4CA36DBB8
:10F0B000B4CA94CA94CAB6D234CA91B934D250B13F
:10F0C00090B1F2C190B190B1D0B10EA14EA92CA1D6
:10F0D0004BA1E990E998CAA0CBA8CDB0EDB04FB94B
:10F0E00090B913D2F3D1F4D131B950B90FA92FB1DE
:10F0F00030B930B992C115D236DAB4D1B4D134DADC
:10F1000016E39BFCDBF455CB7AF414D372C2D3D252
:10F1100072CA31BA2CA10CA1A990667865686458AE
:10F1200023504350424061300008200060008008B6
:10F13000600060004000800080000111001100119B
:10F140000111C1102000000020002000200020003C
:10F1500020002000200020002000200020002000AF
:10F16000200000002739D7CC17CC55B3B7C3F9DB43
:10F1700056CB77D3F5CA53C233C2B4CA94C274C251
:10F1800013BA33CAD2C1F2B9B0B12FA116DB33C260
:10F190002EA16FA9EC980B994B99E988E9904CA99D
:10F1A0000CA9CDA891C134CA95DA55D276DAF4D13A
:10F1B00052C171B970B12FB150B951B9D3C9DCFB8B
:10F1C000B3C115DAB3D1D3D1D5DA9AF4DEFD78E440
:10F1D000FAFC1AFDD6DB12CB0FAA0FB26D994C992F
:10F1E000C990A778856843584350435062408128AE
:10F1F00040108008C108800080006000400080004E
:10F2000080002111611120110009001180004000CF
:10F2100020002000200020002000200020002000EE
:10F22000200020002000200020002108021056BCF1
:10F23000FAE417D4F8D3F4BA35CB52B252BA90A943
:10F2400053C2F1A915CB73BA53BAF2B9D2B953C2AA
:10F25000B0A96FA177E316DBCD986EA94DA1EEB1F1
:10F260000A9146700A910CA1ECA00FB171B9B6DAFF
:10F2700054CA34CAF3C192B992B991B90EA9CEA0B9
:10F2800092C172C993C993B996DA56DA35D2B2C12E
:10F2900032C250A2B09A8E8A59EDD3C3AFAAAB91B5
:10F2A0000981AC91AC914B910989867064602250C0
:10F2B0008350635062408020801001110111A0082A
:10F2C000800060004000600080000009C219200931
:10F2D00020092011001160002000200020002000E3
:10F2E000200020082000000020082000200020002E
:10F2F0004000000000088E7A73B3F3BAF3C291B2F3
:10F3000092BA11B232BAB0A9F1B119EC93BA32B2D1
:10F3100032B212B273C212B2D1B111BAED982EA1AB
:10F32000F1B951BA2C994B910981C9804B992CA103
:10F330004EB1B1C195DAD6DAF2B913BAD1B198F3B8
:10F340000E99B1B1F2C171B971C193D9D4D9D3C9F0
:10F3500075DA96DA95D253CA52BAF5CBCE8A001036
:10F360000018C550E6604350645807714979AB9165
:10F370000881E670A4604250A35083506138A020F9
:10F38000E01000112111C008600060006000400022
:10F39000800041116011801180116011001122194B
:10F3A0002000200020002000200020082008200845
:10F3B000200820002000200040002000000001184C
:10F3C0008E9232BB4FAA70B2EEA16EA1F0B1F1B134
:10F3D000F1B115CB52B232B232B2F1A973C273C2DB
:10F3E000D0A990A98FA94FA172C2F3CA2B89AC9161
:10F3F000E97826606C912D99D1B9F6E2F6E253C214
:10F40000F5D2B0A94E996FA12EA1D0B1D0B170A9FB
:10F410004FB171C954EA75E295DAD6DA37DB77E392
:10F42000B9F450A3E4308010A0180018A3400030B5
:10F430000559066143484879C66884586250424875
:10F440008248A3488130E018001100094111E0080A
:10F45000A00880084000600080004111C21980119E
:10F460008011401140112111600020002000200077
:10F47000000020002000200020002000200040008C
:10F4800040004000000000104330CE9A4D9AEC99A5
:10F49000CDA16D99F0A9AFA172BA52BA52BA72BA9F
:10F4A000F0A9D0A9F1B173C2D0A96FA18FA1B0A961
:10F4B000AFA18C998B894979C7680448AC89AEA102
:10F4C000B3CAB8EBD1B14EA156E36A80EC902DA13E
:10F4D0002DA16EA1CFA98D99056028800DA993DA81
:10F4E00094DA37E357DBD7EBD4CBA2308008001196
:10F4F000E0104010000800100010E4406659065962
:10F50000A448C4504138614081408138A020001196
:10F5100020096011200920090011A0088000600066
:10F52000A0002009C119A0196011A111601140119A
:10F53000800020004000000000002000200020008B
:10F540002000200020002000400020004000000893
:10F5500000100128CA71CB810D9A0EA271BACEA1FA
:10F5600030B2F0A9CFA9CFA9AFA18EA1AFA1F0A9C8
:10F57000AFA18E99AF9996DBAE99CDA16A894871FA
:10F58000444800280D8AD1B2DAFC91BACB80AA880F
:10F590002C9989800B916EA9AB906EA9EFA96B8114
:10F5A0000138256088786988D0B993CA76E354DB3E
:10F5B000A56083392011E008E01040002000000021
:10F5C0000000001020206230001000180441813833
:10F5D000A030E12800214011200960114011601184
:10F5E0004011A00060006000A00060118011C119EE
:10F5F000A1196011A119811920112000200000001B
:10F6000020002000200020082008200820002000E2
:10F6100020004000400000000008000800100649DB
:10F62000CA710E9A8D99CEA10FAACEA1ADA16C99E7
:10F63000CEA1CEA1AE99CE990FA291B22FA270A267
:10F640008C91CCA14A896440001801308E9ACB7904
:10F650000128AC89C9788880CA880B91EB884D99BC
:10F660000D99ED984D99097101280020C658098916
:10F67000A990EA900A916580E470A1416019001197
:10F68000A008400020002000400000000008000802
:10F690000000000000000129E020E018001120090E
:10F6A00040096011601160114011A00880008000C5
:10F6B000E00881198011A019A011C119C119A01168
:10F6C0006111200020002000000020002000200800
:10F6D00020082008200820002000200040004000D2
:10F6E0002000000000080008633049698A81AB8966
:10F6F000AB898B896B89AC910A816B912B896C9159
:10F70000CC9132C38B896FA28FAA0DA2A660222052
:10F7100000100018EA71475900200438CB81A77007
:10F72000AC996B91EA88EA880C990C992C916A71D2
:10F73000012000100018E768A778C778C678C47061
:10F740006369A039801920110111C1100000400027
:10F75000400040004000000040006000A000C010D9
:10F7600020190011201140116011601160118011E9
:10F770006011C00080008000E0084011C119C1196B
:10F780000122011AA011A019A119A008000000006F
:10F790002000200020002000200020002000200069
:10F7A0002000400020000000200040002000000059
:10F7B000000000086328C540075148692871498145
:10F7C000298109890981298929818B89CB918A819C
:10F7D0008E9A2B82012820082000000862282A72B5
:10F7E000012800108430EA79AA81297987700A8972
:10F7F0000A91A988C980E760012001180010002043
:10F800002559E458E3582251C2490132C021001160
:10F81000E01002214008200000000000200040000D
:10F8200020000111411120112011401181192009DE
:10F8300060118011801180196011C0008000A0004B
:10F840000009A019E119A011622A001A212201223F
:10F85000A1194000000040002000200020002000EE
:10F860002000200020002000200020004000200078
:10F8700040000000200040002000200000000008A0
:10F8800000100120E55084488550A560E668C660F8
:10F89000A66028694871855006594A6A0008000028
:10F8A00040000000000800100018000800000010D0
:10F8B0000230C658C760E7700979C770C768275912
:10F8C0000018001000080008602044494341A23994
:10F8D000A0296132823260110011E1184008200035
:10F8E0002000000020002000A0082111200920098C
:10F8F000601161112009A119600960098011A01926
:10F900006011C0008000C0004011A019C019011A88
:10F91000E019C011E019E019C1198321400000006D
:10F9200000002000200020002000200020002000F7
:10F9300020004008000000002000200020000000FF
:10F940002000200800000008201000080008001017
:10F9500000100118001841204120622800180018EA
:10F9600000100008000820002000000020002008EF
:10F97000000020002000200800000008001842308D
:10F98000E5480659E55062280010000041080008CB
:10F990000008A118632120112122612A2022601170
:10F9A0002009E01040002000210020082000200055
:10F9B0000111E00860114009601180116011C11946
:10F9C000801160098011A0196011C000A000E00042
:10F9D0006011022201222122E0116122001A001A84
:10F9E000E121E01020004000200000002000200065
:10F9F0002000200020002000200020002000200007
:10FA0000200800002008200800000000000820084E
:10FA1000000040082000200020000000000000003E
:10FA2000000000002008000800002008200020003E
:10FA300020002000200020002000000020002000E6
:10FA40002000400000000008001001180018000805
:10FA500020084000000020080000400001092001AB
:10FA6000A0114022822A8011401120118000200024
:10FA70000000200000002219001160112009C119A6
:10FA80002001A11180098011801180118011801145
:10FA90004011C000A000C0004009A011E019E01111
:10FAA0004122201A001A4022E121A32940004000EF
:10FAB000200000080000000020002000200020009E
:10FAC0002000200020002000200000000000200076
:10FAD0002000000800082000200020002000200056
:10FAE0002000200020002000200020002000200016
:10FAF00020002000200020004000200020002000E6
:10FB0000200000000000200020002000200020082D
:10FB10000000000800080000200020004000200035
:10FB2000200020006000000940098011E33AE12133
:10FB300040114011C00800000000200040000011EA
:10FB400060116009C11940016009A011A111C1191A
:10FB5000A011C011C019C119200900098000200995
:10FB60008011E019412241224122201AC232E019BB
:10FB70000122832120002000200000080000000056
:10FB80002000200020002000200020002000000095
:10FB900000000000000020002000200020082000BD
:10FBA0002000200020002000200020002000200055
:10FBB0002000200020002000200020002000200045
:10FBC000200020002000200020004008200000002D
:10FBD0002000200020000000200021000000000084
:10FBE00040002000200040006000600080004011C4
:10FBF00002226011A019E1216011401120110000C2
:10FC000020004000C008201140098009C0114001B7
:10FC1000C01960116011E019A011C019A011A1193B
:10FC20002009A000C000C000A019212261224122A9
:10FC30004022A22A001A20222122C32940002000AB
:10FC400040002000000020002000200020002000B4
:10FC500020002000200020002000200020002000A4
:10FC60002000200020002000200020002000200094
:10FC700020002000200020002000000000000000E4
:10FC8000000020002000000000000008000020000C
:10FC9000200000002000200000004000200000089C
:10FCA0000008010001002008000000008000A119E8
:10FCB000632A264B8753A85B8B7404430022E029F8
:10FCC000401160114111000000004000011160115D
:10FCD0006009A011600980116011801980118011E4
:10FCE000C019C019C01981110009C000C00040111D
:10FCF000E121C01941222122822A201A6022612298
:10FD0000412A822100000000200020002000200065
:10FD10002000200020002000200000002000200003
:10FD200020002000200020002000200020002000D3
:10FD300020002000200020002000200020000000E3
:10FD400000000000000000000000000000000000B3
:10FD500000000000000000002000200040004000E3
:10FD6000200020002000000000000000210800000A
:10FD700040000432685B4A640C7D2D850C85EC7C68
:10FD8000AF95CB7C696CE442601160116111600831
:10FD90000000800841118011A011A011A0110122C2
:10FDA0008011C019C019A011E019E019C119A119D9
:10FDB000E000A000C0004009C0190022A232822A3F
:10FDC0004022201AA12A40222122A3212000200023
:10FDD0004000200020002000200020002000200003
:10FDE0002000000000002000200020002000200053
:10FDF0002000200020002000200020002000200003
:10FE00002000000000002000200020002000200032
:10FE100000000000000020000000200000000000A2
:10FE20002000400020000000000000000000200032
:10FE300000000000000061118853CD7CCC7CCB7C9D
:10FE40002D854D85CB74CB742C85CA7C4D8D875305
:10FE500060096009811163214000E0086011A01170
:10FE6000A0118011C019C01101228011A011E01948
:10FE7000C011A011022240110009C0000009C119DF
:10FE800000222022E011001A40228022201AA12AFA
:10FE9000622A6221000000002000200020002000D3
:10FEA0002000200020000000200000002000200092
:10FEB0002000200020002000200020002000200042
:10FEC0002000200020002000200000002000000072
:10FED0002000200020002000200020002000200022
:10FEE0002000200020002000200020002000200012
:10FEF0002000200020002000000040008219C9538B
:10FF0000CC748A6CAB740C85AB7CAB74CB74CB7447
:10FF1000AA748A74EB7CE85BA01180098111053218
:10FF2000200020098011C011C011C019C119C011D1
:10FF3000211AE011C011001AE011E019C11981194C
:10FF4000C000A00020096011E0192022812A81222E
:10FF50006022A02AC12A802A412A2119000000001B
:10FF600020002000200020002000000000000000F1
:10FF70002000200020002000200020002000200081
:10FF800020002000200020000000000000000000F1
:10FF900000000000000000002000200020002000E1
:10FFA0002000200020002000200020002000200051
:10FFB00000000000200800000000000000002000F9
:10FFC000A000642AC8536A6C496C6A6CCB74AB7429
:10FFD0008B74AB74EC7C8B746A6CCB74EB7429649B
:10FFE000801180114011C42940004009A011E0197E
:10FFF000E019E121A011E119A009001A001AE0118D
:020000040801F1
:10000000E011C019A0194009C000E0004011E02132
:100010002022802A6022A12AA12AC12AA02A6022A5
:10002000623200112000200020002000200020006B
:100030002008200800000000200000002000200010
:100040000000000000000000000020002000200050
:1000500020002000200020000000000020002000E0
:100060002000200020002000200020002000200090
:100070002000000020002000200000000000000000
:100080008008E118A00882218953EC74AA6C496C9D
:10009000496CAA74AB6C8B74CB74EC7CCB746B74B2
:1000A0008B748B740C7DAB6C8011801900096221FC
:1000B00040008011C011E011E019E121C119E119DE
:1000C000C011C011001A6222E011C011A119C000B4
:1000D000E000C00081190122602A4022233B402217
:1000E000802A6022A02AC132833260000000000012
:1000F00000000000200020000000000020000000A0
:10010000000020002000200020002000200020000F
:10011000200020002000000000000000000000007F
:100120000000000800002100000000002000200066
:10013000200020004000000040000000200060007F
:10014000001965420B740F958D7CEA63C95B675398
:10015000474B664B095C285CCB74CB6CAA64EB7490
:10016000EB74CA74CB74AB74EC7CAB74CB74CC7C86
:10017000A01160112011A4294000C119A011201A5A
:10018000E011E121C019E121E119E119C011A00933
:10019000E019422A6011C000C000211102228232FF
:1001A000A22A0333201A4022C02AC0328032A13250
:1001B000833A200000000000200000002000200002
:1001C000200020002000200000002000200020004F
:1001D000200020002000200020002000200020001F
:1001E00000002000200020000000000000000000AF
:1001F0000000200020000000200820002000400017
:1002000020002000E431895B6C7C4B74464B222A31
:10021000A0198011C019A011C119C119011A632AAE
:10022000A74BE85308548B6CEB74AA6CCA74CB745C
:100230008A6CAB74CB74CC7CA01940112011A3291B
:1002400040006011E011E011201A21222122C0217A
:10025000C019C011E011011AC011E221A000A000D4
:10026000E1082009A019C011001AE011401AC02AA3
:10027000A02A8032E13A612A8019200000000000A3
:1002800000000000200020002000200020002000AE
:10029000000020002000200020002000200020007E
:1002A00020002000200020002000000000000000AE
:1002B000000020000000200020002000000020009E
:1002C00000000000000040002111A9632A6CC85BF7
:1002D000A753464B8332632A0222C21940112009D8
:1002E000411161116011A1198111232AE642A53A39
:1002F000474BAB74696C8A6C8A6C8A6CAA6C2D85CE
:10030000A01180110009043240008011E119E011B0
:100310000012001AC0112122001AC011011A011A7C
:10032000E1192009C000C000E0086011002220226D
:10033000201A8022401AA02AA02A802AA132843AB8
:10034000A00020000000000000002000200020008D
:10035000200020002000200020002000200020009D
:10036000200020002000200020002000200020008D
:1003700020000000000000002000200000004008D5
:100380002000000020082000000020002000E8528B
:10039000CD84AB7C496C454BE33AA3324222832A9D
:1003A000E221C21961112111C00000094009411167
:1003B00020090009821982218000A75BCB7C6A6C2E
:1003C00069648A6CAA6CEC7CC01160092009011177
:1003D00040000009E119001A20122012401A0012F0
:1003E000E011211A011AA0118111C000E008C0001B
:1003F0002009C019001A6022802A6022C12AE13235
:10040000A02AE132A2328119200020000000000061
:1004100000002000200020002000200020002000FC
:1004200020002000200020002000200020002000CC
:1004300020002000200020002000200020002000BC
:1004400020004000200040000000200800002000A4
:1004500040006119EE8C2A74875B86532543E43A89
:10046000832A632A021AC11181118111811961192C
:10047000411100090009E00801098000C008C00816
:100480008000201186536A6CAA6C89646964AB6C25
:10049000A0116011401101112000C008E221001AD2
:1004A000401A601A000A00120012C011011A02223A
:1004B0000009C000C0006011A011E019612A602A83
:1004C000812A033B4022A02AE132C1328232E00875
:1004D000200000000000000000002000200020009C
:1004E000200020002000200020002000200020000C
:1004F00020002000200020002000200020002000FC
:1005000020002000000020002000400060000000CB
:100510000000200000004000E742ED842A6C054303
:10052000C33A212A001A4222E1198011C119C219C5
:10053000A119E221A119A219A1196011200900092C
:10054000A0006119E3292019E0104019254B4B6CDC
:100550000964E753E753085CA01160110009011119
:10056000200020004111E119001A601A401A611A96
:100570000012C0118011E000C000E00800098011E5
:10058000E019201A40226022A12A4022A12AE13249
:10059000C132C23A80194000000000000000000093
:1005A000000020002000200020002000200020006B
:1005B000200020002000200020002000200020003B
:1005C00020000000000020002000000000000000CB
:1005D0002000200000002000200000004000895B77
:1005E0008C746B6C8B6C4A6C0964A7538753C33251
:1005F000A753C43A0543222AA0190222C221C219D4
:100600008011A01920096009C753E442212A401132
:10061000601902324019E221E642A753E85B875392
:10062000600960110009E010400000002000022A6B
:1006300021222022401A001A001AA0110001C00035
:10064000A000E000A119A011A009E011001A4022A9
:10065000201AA12AE132A02AC132E44280002000FF
:1006600040000000000000000000200020002000EA
:10067000200020002000200020000000200020009A
:10068000200020002000200020002000200020006A
:10069000200020002000200020002000200020005A
:1006A00020004000CA636B6CE85B4964AB746B6C00
:1006B000AC748B74674B664B412A8232454BC01930
:1006C000C019A01902222009E000254B29640C7DE5
:1006D0006964E653E65BE7636019A021633AE121B0
:1006E0006011A019A43AC43A401140090009E01071
:1006F0008008000000004000C0294132412A212228
:100700008011E000A000C000200981118011E111DA
:10071000001A0012401A60226022E132602A803200
:10072000A23A200920002000000000000000000084
:1007300000000000200020002000200020002000F9
:1007400020002000200020000000200020002000C9
:100750000000000000002000000020000000200039
:1007600020000000200020006000484B0A64E8538D
:10077000E753E753864B874BE53A52A68332A432C0
:1007800083328232E021C01921224011601183326C
:10079000296CAC7CE85B4543864B8543A64BE75B05
:1007A000A232202A254BC75B244B00226011212A4C
:1007B000401120092109E008A00800002000213A8A
:1007C000EB94824260194011E008A0002009200942
:1007D00040016009E111E111211A2012A12A601AD9
:1007E0008022401A802A823223322000000020001A
:1007F00000000000000000000000000020002000B9
:100800002000200020002000200000002000200008
:1008100000002000200020002000200020002000F8
:100820000000000020000000000000002000200068
:10083000E742E95B86434543E332C332822A4222E0
:10084000632A4B6C2222E53AC85B422AC0196653E0
:100850004D8D296CC75BAA740864664BA432622272
:100860004543C74BE753275CC653E33A24438553BC
:1008700086530543A33AA442022A2009C000E00897
:1008800080000000864AC873C24A8021E44A4019A9
:10089000800080000009400920016001600180099A
:1008A000C011201A6022601A401A802AA232022A3D
:1008B00040000000200020000000000000000000B8
:1008C0000000200020002000200020002000200048
:1008D0002000000020002000200020002000200038
:1008E0002000200020002000200000002000000048
:1008F000000000000000653A6A6C285C27548643BB
:10090000253BE332822A6222A011C119E1218432FF
:100910000643C0196A74086485534C8D0764454BBF
:100920002543A32A4122C22AC653A64B4443E65379
:10093000844303334543864B2543E642401140112F
:10094000A12120090009E0084000A229075320192D
:10095000C008C042276CC229C008A0084211000983
:10096000610981096001C011E019E011001AC12A72
:10097000812AA332C22120000000200020000000B4
:1009800020000000000000000000200020002000E7
:100990002000200020002000200000002000200077
:1009A0002000200020002000200020002000000067
:1009B0004008000020000000200020002119CD7C0C
:1009C000A64B4333643BE85309540854C74B295C96
:1009D00046432222A11960110001E963254BE75B20
:1009E000EA7C48646964043B822A211AC011A54B41
:1009F000A6534543864B443BC22A2433253B043B44
:100A0000E53A61114000800020110009E0088000F3
:100A1000E429A642C0084019C342024340324019AB
:100A2000800080088000C000000140098009A011FA
:100A3000E0192022612A612A0222A2194000400006
:100A4000000040080000000021000000000000003D
:100A500000002000200020002000200020002000B6
:100A600020000000200020002000200000002000C6
:100A700020002000200000002000000000002000D6
:100A800020008000A95B6543643BE64BE74B66436F
:100A9000253B864366434643053B432A601180114C
:100AA0006011C442A23A2764E65B854B6543053B6F
:100AB0006222411AC011C653C653464BE53AA32AD7
:100AC0000433A743453BC43202228000200080004B
:100AD000C008C008C008C008C00800112011A44206
:100AE000254BA33AA121A008E21000004000A00875
:100AF000E00841098111E121422A2122222AA1197B
:100B0000C00020002000000020000000000041087C
:100B10000000000000000000000020002000200075
:100B200020002000200020002000200020002000C5
:100B300020002000000020002000200020000000F5
:100B400000000000000020004000C53AA853C64B3A
:100B5000E64B443BE332A32AE532A32A6322222256
:100B6000011A40098853C019A7532864654B2764AC
:100B7000C653864B253B8222421A00120012854B37
:100B8000C653E442632A253B6743C42A4222432AD0
:100B9000C00020002000E108C008C008C008E01024
:100BA000A000A0008021C1296019C0008000400081
:100BB00060080000000040008000A0002111A22178
:100BC00020112009A000600020002000000000008B
:100BD00000000000400000000000000000000000D5
:100BE0000000200020000000200020002000200045
:100BF0000000200020000000200020002000200035
:100C00002000000020000000000800080000200074
:100C10004011E853074CC643853BE432253B46432D
:100C2000A42A2322C219A1114009C0190964075C32
:100C3000CA7440226443A54BA64BE43A832A42225D
:100C4000211A211A201AC553844B812A2543253B9A
:100C50008322E111021A2011200020004000C00868
:100C6000E008E0080011201141194121E0102000A6
:100C700020004000200020000000000021080000AB
:100C80008008C0104000C008400040002000400024
:100C900000000000000020002000200000002000D4
:100CA0000000000000000000000020002000000004
:100CB0002000200020002000000020000000000094
:100CC0002000200020002000200020002000000044
:100CD0000008000020004000C53A2854A53B6433BA
:100CE0004533463BE53A832A842A0322A219600948
:100CF0000001E0194964EB7464438022233B033311
:100D0000E332E332E432A3326222001A201A64434F
:100D1000E553033B45438322E211E2198219800027
:100D20004000000000008321C000C00000114119F4
:100D3000001180004000A008800880006000400092
:100D4000000000000000000020004321200060009F
:100D500020004000200020000000000000000000F3
:100D60000000000000000000000000000000000083
:100D700000002000000000002000200020002000D3
:100D800020000000000020002000000000002000E3
:100D900000002000000021000100000040000001D0
:100DA000E853A643233303330333C32A4222021AF0
:100DB000021AA11160094001E011285CAA6CC74B1E
:100DC000A22A001A45436122E3326543243B822A6A
:100DD000822A2022812A065488640433C432221ACB
:100DE000E219A221C0082000200000006000621962
:100DF000E008C000C0088000653A685BC963EA6B20
:100E0000C863A85B885BE54A443AA221C008200079
:100E100020000111011120004000200020002000CE
:100E200000000000000000000000000000000000C2
:100E30000000000000000000000020000000200072
:100E40002000200000002000200000000000200002
:100E50000000000020002000000020000000200012
:100E60000000200040008432A64B0333643B643B07
:100E7000C64BE432C011021AA11180098009E43284
:100E8000E753495CC64B253B011A001AA64B043BAD
:100E9000C332C232822AC32A043B212A212AE33ADE
:100EA000C653411AC011C219E321C00860002000D6
:100EB0002000400062192011C000C000C000C00026
:100EC0008C74AC7CAB74696C896CAA74EB7C8A748E
:100ED0002A6C2A6C885BA5426119200083292000B6
:100EE00020000000200000002000000000000000A2
:100EF00000000000000000000000000000000000F2
:100F00000000200000002000200020000000000061
:100F10002000000000000000000000002000000091
:100F20002000200020000000000020004000A85306
:100F30008643C64B643B85438543053B842AE111C8
:100F400080096001A32A295CC74B6543443BC43236
:100F50006001A22AA74B043B4122401A4122822A67
:100F6000011AA119643A21222443A009C119A31925
:100F7000E1084000400040006119C542274B0009CC
:100F8000C000C0088000853AAD7CC85B285C48641E
:100F900068644864696449646A646A6C6A6C085C81
:100FA000C95BA642C43100000000400040000000C0
:100FB0000000000000000000000000000000000031
:100FC00000000000000000000000200020002000C1
:100FD0002000200000000000200000002000000091
:100FE0000000200020000000200020000000000081
:100FF000200020002111A853443BE32A032BA22AFE
:10100000622262222222E111632A211AE432C753AA
:10101000453B243B8643E43260014543864B043B19
:10102000A22A201AC011011AE2194111E329A119BB
:10103000264BA53A6111A00060008000032A0643F8
:10104000E963C85BA43AE000E008A0006000895BA7
:101050000A64696C6864075C285C4964874B2643B2
:10106000674B464B8753E85B0122A000263A442198
:101070004000000000000000000000000000000030
:101080000000000000000000000000000000000060
:101090000000200020000000200020002000200090
:1010A00020000000200000000000200020000000C0
:1010B00020000000000020002000200065322543B1
:1010C000A22AC32AC222611A211A60094001C11151
:1010D000011AE432864B864B043B043B822AA0096A
:1010E000211A243B243BC332C33262224222021A19
:1010F00040096000200040000432E0084000400049
:101100002011096CAB7C4964E753E85B632AC0009B
:10111000C000A0000009A95BE85B075CE6532864F7
:101120002964C642E00840002000400060000753E8
:101130004000E010053A0000A21060082000000006
:10114000000000000000000000000000000000009F
:10115000000000000000000000002000200000004F
:1011600020002000200020000000000020000000DF
:10117000000020002000000020000000000000000F
:1011800020004000A642C43AA22A8222411AC00985
:10119000A009021A842AE219832A864B243BA22A38
:1011A00061224122411AA0094222253BA22A001AAB
:1011B0006122001AE011A1116109E208200040003B
:1011C0000211A008200061212B746A74075CC653C9
:1011D0008543664BC111E000C0008000032A6753BD
:1011E0004543A64B854B864B0643A0002000E218E2
:1011F000400840080119E331896B043A20002000BF
:101200002000600820000000000000000000000036
:1012100000000000000000000000000000000000CE
:101220000000FFFFFFFFFFFFFFFFFFFFFFFFFFFFCC
:10123000FFFFFFFFFFFFFFFFFFFFFFFFFFFFFFFFBE
:10124000FFFFFFFFFFFFFFFFFFFFFFFFFFFFFFFFAE
:10125000FFFFFFFFFFFFFFFFFFFFFFFFFFFFFFFF9E
:10126000FFFFFFFFFFFFFFFFFFFFFFFFFFFFFFFF8E
:102B4000FFFFFFFFFFFF1CE71CE71CE71CE71CE77C
:102B50003CE71CE71CE71CE71CE71CE71CE71CE73D
:102B60001CE71CE71CE71CE71CE71CE71CE71CE74D
:102B70001CE73CE71CE71CE73CE71CE73CE73CE7BD
:102B80001CE71CE79EF7FFFFFFFFFFFFFFFFFFFFB4
:102B9000FFFFFFFFFFFFFFFFFFFFFFFFFFFFFFFF45
:102BA000FFFFFFFFFFFFFFFF3CE73CE73CE7FBDEEB
:102BB0003CE71CE73CE73CE7FBDEFFFFFFFFFFFFD6
:102BC000FFFFFFFFFFFFFFFFFFFFFFFF3CE71CE7EB
:102BD0003CE71CE71CE71CE73CE71CE73CE71CE77D
:102BE0003CE71CE73CE71CE71CE73CE71CE71CE76D
:102BF0003CE71CE71CE73CE71CE71CE73CE71CE75D
:102C00001CE7FFFFFFFFFFFFFFFF5DEF1CE71CE777
:102C10001CE71CE71CE71CE71CE71CE71CE71CE79C
:102C20001CE71CE73CE7FFFFFFFFFFFFDFFF3CE780
:102C3000FBDE1CE73CE71CE71CE75DEF1CE71CE73D
:102C40001CE71CE73CE7FBDE9EF7FFFFFFFFFFFFF3
:102C5000FFFFFBDE3CE7FBDE3CE71CE71CE75DEF2C
:102C60001CE71CE71CE71CE71CE71CE71CE71CE74C
:102C70001CE71CE71CE71CE71CE71CE71CE71CE73C
:102C80001CE73CE71CE71CE73CE71CE73CE7FBDEF6
:102C9000DFFFFFFFFFFFFFFFFFFFFFFFFFFFFFFF64
:102CA000FFFFFFFFFFFFFFFFFFFFFFFFFFFFFFFF34
:102CB000FFFFFFFFFFFFFFFFFFFFFFFFFFFFFFFF24
:102CC000FFFFFFFFFFFFFFFFFFFFFFFFFFFFFFFF14
:102CD000FFFFFFFFFFFFE3180000000020000000DF
:102CE00000000000000000000000000000000000E4
:102CF00000000000000000000000000000000000D4
:102D000000000000000000000000000000000000C3
:102D1000000000003084FFFFBEF7FFFFFFFFDFFF72
:102D2000FFFFFFFFFFFFFFFFFFFFFFFFFFFFFFFFB3
:102D3000FFFFFFFFFFFFFFFF65290000000000000D
:102D400000000000000000000000BAD6FFFFFFFFF7
:102D5000FFFFFFFFDFFFFFFFFFFFFFFF000000009F
:102D60000000000000000000000000000000000063
:102D70000000000000000000000000000000000053
:102D80000000000000000000000000000000000043
:102D90000000FFFFFFFFFFFFFFFF084200000000F1
:102DA0002000000000000000000000000000000003
:102DB000000000004529FFFFFFFFFFFFFFFF410864
:102DC00000000000000020000000000000000000E3
:102DD0000000000000000000CB5AFFFFFFFFFFFFD4
:102DE000FFFF0000000000000000000020000000C5
:102DF00000000000000000000000000000000000D3
:102E000000000000000000000000000000000000C2
:102E100000000000000000000000000000000000B2
:102E200038C6FFFFFFFFFFFFFFFFFFFFFFFFFFFFB2
:102E3000FFFFFFFFFFFFFFFFFFFFFFFFFFFFFFFFA2
:102E4000FFFFFFFFFFFFFFFFFFFFFFFFFFFFFFFF92
:102E5000FFFFFFFFFFFFFFFFFFFFFFFFFFFFFFFF82
:102E6000FFFFFFFFDFFF65290000000000002000DA
:102E70000000000000000000000000000000000052
:102E80000000000000000000000000000000000042
:102E900000002000000000000000000020000000F2
:102EA000000000009294FFFFFFFFFFFFFFFFFFFF06
:102EB000FFFFFFFFFFFFFFFFFFFFFFFFFFFFFFFF22
:102EC000FFFFFFFFFFFFFFFFC7390000000000000A
:102ED00000000000000020000000DBDEFFFFFFFF1D
:102EE000FFFFFFFFFFFFFFFFFFFFFFFF6108000085
:102EF0000000000000002000000000000000200092
:102F000000000000000000000000000000000000C1
:102F100000000000000000000000000000000000B1
:102F20004108FFFFFFFFFFFFFFFF694A00000000AD
:102F30000000000000000000000000000000000091
:102F4000000000008631FFFFFFFFFFFFFFFFE318D7
:102F50000000000000000000000000000000000071
:102F600000000000000000004D6BFFFFDFFFFFFFCF
:102F7000FFFF000000000000000000000000000053
:102F80000000000000000000000000000000000041
:102F90000000000000000000000000000000000031
:102FA0000000000000000000000000000000000021
:102FB00079CEFFFFFFFFFFFFFFFFFFFFFFFFFFFFD8
:102FC000FFFFFFFFFFFFFFFFFFFFFFFFFFFFFFFF11
:102FD000FFFFFFFFFFFFFFFFFFFFFFFFFFFFFFFF01
:102FE000FFFFFFFFFFFFFFFFFFFFFFFFFFFFFFFFF1
:102FF000FFFFFFFFFFFF4529000000000000000069
:1030000000000000000000000000000000000000C0
:1030100000000000000000000000000000000000B0
:103020000000000000000000000000000000200080
:10303000000000009294FFFFFFFFFFFFDFFFFFFF94
:10304000FFFFFFFFFFFFFFFFFFFFDFFFFFFFFFFFB0
:10305000DFFFFFFFFFFFFFFFC73900000000000098
:1030600020000000000000000000BAD6FFFFFFFFB4
:10307000FFFFFFFFFFFFFFFFFFFFFFFF61080000F3
:103080002000000020000000000000000000000000
:1030900000002000000020000000000000000000F0
:1030A0000000000000000000000000000000000020
:1030B0006108FFFFFFFFFFFFFFFF694A00002000DC
:1030C0000000000000000000000000000000000000
:1030D00000000000C739FFFFFFFFFFFFFFFFE318FD
:1030E00020000000000000000000000000000000C0
:1030F00020000000000000004D6BFFFFFFFFFFFFFE
:10310000FFFF0000000020000000000000000000A1
:1031100000000000000000000000000000000000AF
:10312000000000000000000000000000000000009F
:10313000000000000000000000000000000000008F
:1031400059CEFFFFFFFFFFFFFFFFFFFFFFFFFFFF66
:10315000FFFFFFFFFFFFFFFFFFFFFFFFFFFFFFFF7F
:10316000FFFFFFFFFFFFFFFFFFFFFFFFFFFFFFFF6F
:10317000FFFFFFFFFFFFFFFFFFFFFFFFFFFFFFFF5F
:10318000FFFFFFFFFFFF45290000000000000000D7
:10319000000000000000000000000000000000002F
:1031A000000000000000000000000000000000001F
:1031B00000000000000000000000000020000000EF
:1031C00000000000718CFFFFFFFFFFFFFFFFFFFF0C
:1031D000FFFFFFFFFFFFDFFFFFFFFFFFFFFFFFFF1F
:1031E000FFFFFFFFFFFFFFFF08420000000000009D
:1031F000000000000000000000007DEFFFFFFFFF67
:10320000FFFFFFFFDFFFFFFFFFFFFFFF00000000EA
:10321000000000000000000000000000000020008E
:10322000000000000000000020000000000000007E
:10323000000000000000000000000000000000008E
:103240000000FFFFFFFFFFFFFFFF494A20000000D3
:10325000000000000000000000000000000000006E
:10326000000000004529FFFFFFFFDFFFFFFF2421D3
:10327000000000000000000000000000200000002E
:1032800000000000000000002C63FFFFFFFFDFFFD5
:10329000FFFF000000000000000020000000000010
:1032A000000000000000000000000000000000001E
:1032B000000000000000000000000000000000000E
:1032C00000000000000000000000000000000000FE
:1032D00059CEFFFFFFFFFFFFFFFFFFFFFFFFFFFFD5
:1032E000FFFFFFFFFFFFFFFFFFFFFFFFFFFFFFFFEE
:1032F000FFFFFFFFFFFFFFFFFFFFFFFFFFFFFFFFDE
:10330000FFFFFFFFFFFFFFFFFFFFFFFFFFFFFFFFCD
:10331000FFFFFFFFFFFF652900000000000086316E
:10332000BAD659CE59CE59CE59CE59CE59CE59CEFC
:1033300059CE59CE59CE59CE59CE59CE59CE59CE55
:1033400059CE59CE38C659CE59CE59CE00000000BC
:10335000000000009294FFFFFFFFDFFF9EF745296A
:10336000A631C7394529D7BDFFFFFFFFDFFF5DEF5E
:103370002421A631C739C7396108000000000000C8
:103380000000000000000000000086318631A631F8
:1033900065298E73FFFFFFFFDFFFDFFF79CE38C6A1
:1033A00059CE59CE18C679CE59CE59CE79CE000015
:1033B00000000000000000000000200000000000ED
:1033C0009AD638C659CE38C638C659CE59CE38C620
:1033D00018C68631C73986316529D39C79CE59CE36
:1033E00018C638C638C638C638C638C638C638C60D
:1033F00038C679CE34A56529A631A631A63120007C
:10340000000000000000E739BAD659CE18C6BAD677
:1034100041080000000000002C63FFFFFFFFFFFFDA
:10342000FFFF00000000000000000C639AD679CE78
:1034300038C659CE59CE59CE59CE59CE59CE59CE7D
:1034400059CE38C638C638C638C638C638C638C663
:1034500038C638C659CE34A5200000000000000050
:103460009AD6FFFFFFFFFFFFFFFFFFFFFFFFFFFFFA
:10347000FFFFFFFFFFFFFFFFFFFFFFFFFFFFFFFF5C
:10348000FFFFFFFFFFFFFFFFFFFFFFFFFFFFFFFF4C
:10349000FFFFFFFFFFFFFFFFFFFFFFFFFFFFFFFF3C
:1034A000FFFFFFFFFFFF4529000000000000694A01
:1034B000FFFFFFFFFFFFFFFFFFFFFFFFFFFFFFFF1C
:1034C000FFFFFFFFFFFFFFFFFFFFFFFFFFFFFFFF0C
:1034D000FFFFFFFFFFFFFFFFFFFFFFFF00002000D8
:1034E000000000009294FFFFDFFFFFFFBEF7000027
:1034F00000000000000034A5FFFFFFFFFFFFFBDE20
:1035000000000000000000000000000000000000BB
:1035100000000000000000000000000000000000AB
:1035200000002842FFFFFFFFFFFFFFFFFFFFFFFF3D
:10353000FFFFFFFFFFFFFFFFFFFFFFFFFFFF000099
:10354000000000000000000000000000000000007B
:10355000FFFFFFFFFFFFFFFFFFFFFFFFFFFFFFFF7B
:10356000BEF70000000000000000B6B5FFFFFFFF3F
:10357000FFFFFFFFFFFFFFFFFFFFFFFFFFFFFFFF5B
:10358000FFFFFFFF38C60000000000000000000041
:10359000000000000000694AFFFFFFFFFFFFFFFF80
:1035A00061080000000000004D6BFFFFFFFFDFFF20
:1035B000FFFF00000000000000003084FFFFFFFF5D
:1035C000FFFFFFFFFFFFFFFFFFFFFFFFFFFFFFFF0B
:1035D000FFFFFFFFFFFFFFFFFFFFFFFFFFFFFFFFFB
:1035E000FFFFFFFFFFFF1CE70000000000002000BE
:1035F00038C6FFFFFFFFFFFFFFFFFFFFFFFFFFFFDB
:10360000FFFFFFFFFFFFFFFFFFFFFFFFFFFFFFFFCA
:10361000FFFFFFFFFFFFFFFFFFFFFFFFFFFFFFFFBA
:10362000FFFFFFFFFFFFFFFFFFFFFFFFFFFFFFFFAA
:10363000FFFFFFFFFFFF45290000000000002842B8
:10364000FFFFFFFFFFFFFFFFFFFFFFFFFFFFFFFF8A
:10365000FFFFFFFFFFFFFFFFFFFFFFFFFFFFFFFF7A
:10366000FFFFFFFFFFFFFFFFFFFFFFFF0000000066
:10367000000000009294FFFFFFFFFFFF9EF7000095
:1036800000000000000055ADFFFFFFFFFFFF1CE73B
:10369000000000000000000020000000000000000A
:1036A000000000000000000000000000000000001A
:1036B0000000494AFFFFDFFFFFFFFFFFFFFFFFFFA3
:1036C000FFFFFFFFFFFFFFFFFFFFFFFFFFFF2000E8
:1036D00000000000000000002000000000000000CA
:1036E000FFFFFFFFFFFFFFFFFFFFFFFFFFFFFFFFEA
:1036F0007DEF000000000000000055ADFFFFFFFF60
:10370000FFFFFFFFFFFFFFFFFFFFFFFFFFFFFFFFC9
:10371000FFFFFFFF38C600000000000000000000AF
:103720000000000000008A52FFFFFFFFFFFFFFFFC5
:1037300061080000000000004D6BFFFFFFFFFFFF6E
:10374000FFFF00000000000000001084FFFFFFFFEB
:10375000FFFFFFFFFFFFFFFFFFFFFFFFFFFFFFFF79
:10376000FFFFFFFFFFFFFFFFFFFFFFFFFFFFFFFF69
:10377000FFFFFFFFFFFFBAD60000000000000000BF
:1037800079CEFFFFFFFFFFFFFFFFFFFFFFFFFFFF00
:10379000FFFFFFFFFFFFFFFFFFFFFFFFFFFFFFFF39
:1037A000FFFFFFFFFFFFFFFFFFFFFFFFFFFFFFFF29
:1037B000FFFFFFFFFFFFFFFFFFFFFFFFFFFFFFFF19
:1037C000FFFFFFFFFFFF4529000000000000284227
:1037D000FFFFFFFFFFFFFFFFFFFFFFFFFFFFFFFFF9
:1037E000FFFFFFFFFFFFFFFFFFFFFFFFFFFFFFFFE9
:1037F000FFFFFFFFFFFFFFFFFFFFFFFF00000000D5
:1038000000000000718CFFFFFFFFFFFF7DEF000055
:1038100000000000200055ADFFFFFFFFFFFF3CE769
:103820002000000000000000000000000000000078
:103830000000000000000000000000000000000088
:103840000000694AFFFFFFFFFFFFFFFFFFFFFFFFD1
:10385000FFFFFFFFFFFFDFFFFFFFFFFFFFFF000096
:103860000000000000000000000000000000000058
:10387000FFFFFFFFFFFFFFFFFFFFFFFFFFFFFFFF58
:10388000BEF7000000000000000096B5FFFFFFFF3C
:10389000FFFFFFFFFFFFFFFFFFFFFFFFFFFFFFFF38
:1038A000FFFFFFFF59CE00000000000000000000F5
:1038B000000000000000494AFFFFFFFFFFFFFFFF7D
:1038C00061080000000000004D6BFFFFFFFFFFFFDD
:1038D000FFFF00000000000000001084FFFFFFFF5A
:1038E000FFFFFFFFFFFFFFFFFFFFFFFFFFFFFFFFE8
:1038F000FFFFFFFFFFFFFFFFFFFFFFFFFFFFFFFFD8
:10390000FFFFFFFFFFFFDBDE000000000000000004
:1039100079CEFFFFFFFFFFFFFFFFFFFFFFFFFFFF6E
:10392000FFFFFFFFFFFFFFFFFFFFFFFFFFFFFFFFA7
:10393000FFFFFFFFFFFFFFFFFFFFFFFFFFFFFFFF97
:10394000FFFFFFFFFFFFFFFFFFFFFFFFFFFFFFFF87
:10395000FFFFFFFFFFFF4529000000000000284295
:10396000FFFFFFFFFFFFFFFF18C618C6F7BD38C6F1
:1039700038C618C618C618C618C618C618C618C637
:1039800018C6FBDEFFFFDFFFFFFFFFFF00000000A8
:10399000000000009294FFFFDFFFFFFFDFFF6529BB
:1039A000E739C739A631B29459CEF7BD38C696B5B6
:1039B0008631C739E739E739C739C739C7390842C6
:1039C000A631000000000000000000000000000020
:1039D0000000C73979CEF7BD18C618C618C638C654
:1039E000F7BDF7BDBAD6FFFFFFFFFFFFFFFF0000E7
:1039F000000000002000E3180842E739C739C73942
:103A0000FFFFFFFFFFFFFFFFBAD6F7BD38C6F7BDC8
:103A1000D7BDA631C739C7398631B29418C659CE39
:103A2000F7BD18C618C638C618C618C618C618C6B0
:103A300038C638C614A5A631A6310842C739C739D9
:103A40002842E739A631CF7BFFFFFFFFFFFFFFFFD3
:103A500061080000000000004D6BFFFFFFFFFFFF4B
:103A6000FFFF00000000000000001084FFFFFFFFC8
