:020000040800F2
:10000000901C0020E1040008F9020008FB0200082F
:10001000FF020008030300080703000800000000B7
:100020000000000000000000000000000B030008BA
:100030000D030008000000000F0300081103000872
:10004000FB040008FB040008FB040008FB04000894
:10005000FB040008FB040008FB040008FB04000884
:10006000FB040008FB040008FB040008FB04000874
:10007000FB040008FB040008FB040008FB04000864
:10008000FB040008FB040008FB040008FB04000854
:10009000FB040008FB040008FB040008FB04000844
:1000A000FB040008FB040008FB040008FB04000834
:1000B000FB040008D12F0008FB040008FB04000823
:1000C000FB040008FB040008FB040008FB04000814
:1000D000FB040008FB040008D7220008FB0400080A
:1000E000FB040008FB040008FB04000800F002F811
:1000F00000F041F80AA090E8000C82448344AAF181
:100100000107DA4501D100F036F8AFF2090EBAE87E
:100110000F0013F0010F18BFFB1A43F0010318473B
:1001200094760000B4760000103A24BF78C878C1F5
:10013000FAD8520724BF30C830C144BF04680C60ED
:10014000704700000023002400250026103A28BF35
:1001500078C1FBD8520728BF30C148BF0B60704739
:10016000642906F0F984002070471FB506F0E2FD0F
:100170001FBD10B510BD06F0A7FD1146FFF7F5FF36
:1001800000F008F806F0C5FD03B4FFF7F2FF03BC6A
:1001900002F030F830B5ADF50F7D00254FF4A060CA
:1001A00000F0BEF927214EF6592002F0E9FE01F0D9
:1001B000DFFF02F07CFB02F02AF802F06DFF012065
:1001C00002F0A5FF05461DB926A006F07DFC02E061
:1001D00025A006F079FC002224A101A804F0BDFCB2
:1001E00004460D2C19D122A006F06EFC4FF480536A
:1001F000274A00211DA005F098FE044624B121469F
:1002000024A006F061FC0BE0012218A101A804F073
:10021000A4FC25A006F058FC02E023A006F054FC44
:1002200002F07CF9102329A201210A2002F063FACE
:1002300016E002F016FF012812D1112227A12B4847
:1002400004F0C0FC01212A4801F0D7FA02F066F957
:1002500000BF284800680028FBD1244804F0DDFFD7
:10026000E7E700006F6B00006E6F0000313A00009E
:100270000D0A2D2D2D2D2D2D2D5344BFA8B8F1CABB
:10028000BDBBAFD6D02D2D2D2D2D2D3A0D0A000042
:1002900090000020665F6D6B66735F6572726F72AF
:1002A0003A25640D0A0000000D0A2D2D2D2D2D2D4F
:1002B0002D5344BFA8B3F5CABCBBAFCDEAB3C92D1B
:1002C0002D2D2D2D2D3A0D0A0000000042616420D5
:1002D0004170706C6520546573740000313A746528
:1002E00073742F312E62696E00000000001400202C
:1002F0000004004078000020704700BFFEE700BF08
:10030000FEE700BFFEE700BFFEE77047704770479B
:1003100010B501F05DFF10BD00200021674A126892
:1003200042F48032654B1A6000BF644A126802F4DE
:100330000031401C11B9B0F5A06FF6D15F4A1268C8
:1003400012F4003F01D0012100E00021012942D137
:100350005B4A126842F01002594B1A601A46126842
:1003600022F003021A601A46126842F002021A6072
:10037000524A5268514B5A601A4652685A601A469D
:10038000526842F480625A601A46526822F47C1223
:100390005A601A46526842F4E8125A601A461268C5
:1003A00042F080721A6000BF444A126812F0007F67
:1003B000FAD0424A526822F00302404B5A601A4671
:1003C000526842F002025A6000BF3C4A526802F092
:1003D0000C02082AF9D1704710B5FFF79DFF10BD38
:1003E00010B53648006840F00100344908600846FE
:1003F000406834490840314948600846006832493D
:1004000008402E4908600846006820F480200860F3
:100410000846406820F4FE0048604FF41F008860E2
:10042000FFF7DAFF4FF000602849086010BD10B5F3
:10043000002000210022214B5B6803F00C0020B15A
:10044000042806D0082828D107E0214B214C23603E
:1004500027E01F4B1F4C236023E0184B5B6803F41D
:100460007011164B5B6803F48032022303EB914159
:1004700022B9194B4B43174C23600DE00F4B5B68BF
:1004800013F4003F04D0144B4B43124C236003E0A1
:100490000F4B4B430F4C236003E00D4B0D4C23607F
:1004A00000BF00BF054B5B68C3F303130B4CE05C5C
:1004B000084B1B68C340074C236010BD001002406E
:1004C000002002400000FFF8FFFFF6FE08ED00E00C
:1004D00000127A000000002000093D000400002006
:1004E0000948804709480047FEE7FEE7FEE7FEE7C8
:1004F000FEE7FEE7FEE7FEE7FEE7FEE70448054904
:10050000054A064B70470000E1030008ED000008B3
:1005100090160020901C00209018002090180020B9
:1005200036490143364A1160704770B500210023F7
:100530000F22C4784CB3324C246804F4E064C4F550
:10054000E0644FEA1421C1F1040322FA01F2447875
:1005500004FA03F1847804EA020444EA01014FEA50
:100560000111284C0678A155047804F01F054FF0BE
:10057000010404FA05F405784FEA65154FF0E0260A
:1005800006EB8505C5F8004109E0047804F01F0476
:100590000125A5401C4C0678761144F8265070BD04
:1005A0001A4A0A4002431A4B1A60704741B1194A6D
:1005B000126842EA00024FF0E023C3F8102D07E072
:1005C000144A126822EA00024FF0E023C3F8102D0B
:1005D0007047042808D14FF0E021096941F0040177
:1005E0004FF0E022116107E04FF0E021096921F0AE
:1005F00004014FF0E0221161704700000000FA058D
:100600000CED00E000E400E080E100E080FFFF1F6F
:1006100008ED00E010ED00E010B50446C748844244
:1006200008D10121042000F018FB0021042000F073
:1006300014FB46E0C248844208D10121082000F0A2
:100640000CFB0021082000F008FB3AE0BD48844282
:1006500008D10121102000F000FB0021102000F043
:10066000FCFA2EE0B848844208D10121202000F095
:10067000F4FA0021202000F0F0FA22E0B34884428E
:1006800008D10121402000F0E8FA0021402000F0CC
:10069000E4FA16E0AE48844208D10121802000F03F
:1006A000DCFA0021802000F0D8FA0AE0A948844250
:1006B00007D10121801500F0D0FA0021A01500F02B
:1006C000CCFA10BD10B50121084600F0C6FA002191
:1006D000012000F0C2FA10BD2DE9F04100220023F4
:1006E000002400250026002791F803C00CF00F021B
:1006F00091F803C01CF0100F03D091F802C04CEA2F
:100700000202B1F800C01CF0FF0F31D006680024CF
:100710002BE04FF0010C0CFA04F5B1F800C00CEA24
:100720000503AB4220D1A5004FF00F0C0CFA05F7E2
:10073000BE4302FA05FC4CEA060691F803C0BCF180
:10074000280F06D14FF0010C0CFA04FCC0F814C0BD
:100750000AE091F803C0BCF1480F05D14FF0010C3D
:100760000CFA04FCC0F810C0641C082CD1D306603D
:10077000B1F800C0BCF1FF0F34DD466800242EE064
:1007800004F1080C4FF0010808FA0CF5B1F800C0AC
:100790000CEA0503AB4221D1A5004FF00F0C0CFA77
:1007A00005F7BE4302FA05FC4CEA060691F803C0C1
:1007B000BCF1280F05D104F1080C08FA0CF8C0F8B8
:1007C000148091F803C0BCF1480F07D104F1080C64
:1007D0004FF0010808FA0CF8C0F81080641C082CCF
:1007E000CED34660BDE8F0814FF6FF710180022153
:1007F00081700421C17070470246002093680B424B
:1008000001D0012000E0002070470146886880B2D6
:10081000704702460020D3680B4201D0012000E05F
:10082000002070470146C86880B270470161704778
:10083000416170470AB1016100E041617047C160E8
:1008400070474FF480320A4382618161826182691C
:10085000826970470022404B1A684FF680731A4035
:1008600042EA00120A433C4B1A6070473B49C86198
:100870007047F0B5002200230024002500F0004658
:10088000B6F1004F02D1344EF46901E0324E746883
:10089000C0F3034582B200F44016B6F5401F08D1FC
:1008A00024F070642C4E766826F070662A4F7E60C5
:1008B00012E000F48016B6F5801F06D1032606FA72
:1008C00005F39C4344F0706406E0460D360102FADD
:1008D00006F6B44344F0706421B1460D360102FAC5
:1008E00006F6344300F00046B6F1004F02D11A4E2E
:1008F000F46101E0184E7460F0BD30B500228B0742
:100900001C0F0F2303FA04F2134B08338C1053F817
:10091000244094438D1043F825408C1053F8243024
:100920008C07240F00FA04F423430B4C08348D1079
:1009300044F8253030BD0A4908607047000801407E
:10094000000C01400010014000140140001801405B
:10095000001C014000200140000001400000204236
:10096000DC002042D848006840F00100D649086009
:1009700008464068D5490840D349486008460068A1
:10098000D3490840D04908600846006820F4802018
:1009900008600846406820F4FE0048604FF41F00DD
:1009A00088607047C849096821F48031C64A1160DF
:1009B0001146096821F480211160B0F5803F03D011
:1009C000B0F5802F0ED106E0BF49096841F48031AF
:1009D000BD4A116007E0BC49096841F4A021BA4A48
:1009E000116000E000BF00BF704710B50146002253
:1009F000002300204A11012A02D1B34C236806E0EB
:100A0000022A02D1B04C236A01E0AF4C636A01F0C4
:100A10001F02012494401C4201D0012000E000206C
:100A200010BD70B500240025002600BF3120FFF75F
:100A3000DCFF0646641CB4F5A06F01D0002EF5D093
:100A40003120FFF7D2FF08B1012500E0002528463C
:100A500070BD00219C4A116821F0F80141EAC001F3
:100A6000116070479B49086070470022964B5A6896
:100A700022F47C1240EA01031A43934B5A607047F8
:100A800094490866704700218F4A516821F003019C
:100A90000143516070478C48406800F00C0070477B
:100AA0000021894A516821F0F001014351607047EB
:100AB0000021854A516821F4E0610143516070478B
:100AC0000021814A516821F4605141EAC00151601E
:100AD000704729B17C4A527A02437B4B5A7206E036
:100AE000794A527AC343DBB21A40774B5A72704745
:100AF0007949086070470021734A516821F44041E8
:100B00000143516070470021744A11706E4A82F8A7
:100B10002010012802D0042808D103E001216F4AE7
:100B2000117004E005216D4A117000E000BF00BFA4
:100B300070476B49086070476349096A0143624A1C
:100B40001162704767490860704730B50021002284
:100B5000002300245C4D6D6805F00C0121B10429CF
:100B600005D0082923D105E05F4D056022E05E4DE8
:100B700005601FE0544D6D6805F47012524D6D68AC
:100B800005F48033022505EB92421BB9574D5543BE
:100B900005600BE04C4D6D6815F4003F03D0534DDC
:100BA0005543056002E0504D5543056002E04E4D4F
:100BB000056000BF00BF444D6D6805F0F0010909F4
:100BC0004B4D6C5C0568E54045603F4D6D6805F434
:100BD000E061090A464D6C5C4568E54085603A4D28
:100BE0006D6805F46051C90A414D6C5C4568E5408B
:100BF000C560354D6D6805F44041890B3C4D10359D
:100C00006C5CC568B5FBF4F5056130BD29B12E4AB1
:100C1000526902432C4B5A6104E02B4A52698243C9
:100C2000294B5A61704729B1274A92690243264BE2
:100C30009A6104E0244A92698243234B9A61704787
:100C400029B1214AD26902431F4BDA6104E01E4AEE
:100C5000D26982431C4BDA61704729B11A4AD268C3
:100C60000243194BDA6004E0174AD2688243164BFC
:100C7000DA60704729B1144A12690243124B1A61B3
:100C800004E0114A126982430F4B1A6170471949F7
:100C9000086070470F49C86470470B49C8717047B6
:100CA0000948406A40F08070074948627047014631
:100CB0000020054A92680A4201D0012000E000208D
:100CC0007047014988727047001002400000FFF829
:100CD000FFFFF6FE00004242D800424220100240D0
:100CE000800442423C04424200127A0000093D0066
:100CF000140000204004424210B50446BE4884421D
:100D000008D101218014FFF7A8FF0021A014FFF7EC
:100D1000A4FF16E0B948844208D101210014FFF76E
:100D2000A9FF00212014FFF7A5FF0AE0B448844280
:100D300007D10121C013FFF79DFF0021E013FFF74A
:100D400099FF10BD10B50022028802F441520B88B1
:100D50004C8823438C882343CC8823430C8923432A
:100D60004C8923438C892343CC8923431A43028033
:100D7000838B4FF2FF74234083830B8A038210BD61
:100D80002DE9F04F85B004460D4600260227B046F7
:100D90004FF00109B246B346A08B4FF24001084024
:100DA000A08302202084A68BA868022801D100BF5E
:100DB00038E0A88810B94FF0010901E04FF00209AE
:100DC0008E48844200D100E000BF6846FFF7BDFEB8
:100DD000DDF800B0E888B0F5007F0BD14FEA1B20AA
:100DE00000EB80004000A968B0FBF1F0401D1FFA45
:100DF00080FA0CE04FEA4910BBFBF0F000EB8000FA
:100E00004000A968B0FBF1F0401D1FFA80FA0A20EB
:100E1000BAFBF0FA0AF00108AAEB0800C0F34F078A
:100E20004FEA0828022F01DBFF2F02DD02274FF0D7
:100E30000008E88840EA080038432084A888A98987
:100E40000843698808432988084340F40060064342
:100E5000A68305B0BDE8F08F00210180418081802C
:100E6000C180018141818181C18107210182704757
:100E70000021018041808180C180022181600021A8
:100E80008181704721B1028842F04002028004E073
:100E900002884FF6BF731A400280704721B1828BDF
:100EA00042F48062828304E0828B4FF6FF331A4063
:100EB0008283704770B5002300240B1101259D40EB
:100EC000ACB21AB185882543858004E08588E64365
:100ED000B6B23540858070BD10B51AB183880B431A
:100EE000838004E08388CC43A4B22340838010BD78
:100EF00081817047014688897047A1F57E42FF3A9B
:100F000004D0028842F48072028004E002884FF626
:100F1000FF631A400280704721B1828842F00402C8
:100F2000828004E082884FF6FB731A40828070470B
:100F300002884FF2FF731A40028002880A4302803F
:100F40007047018841F480510180704721B10288C7
:100F500042F40052028004E002884DF6FF731A400A
:100F60000280704702460020012901D0108B00E06A
:100F7000908A70470146088A7047B1F5804F04D1C6
:100F8000028842F48042028004E002884BF6FF733C
:100F90001A40028070470246002013890B4201D09C
:100FA000012000E000207047CA4302817047F0B57D
:100FB0000246002000230024002501F00F0701262F
:100FC000BE40B3B20C110126A640B4B2968806EA20
:100FD000040516891E4202D00DB1012000E0002058
:100FE000F0BD10B5002201F00F040123A3409AB216
:100FF000D343038110BD00000030014000380040A1
:10100000003C004010B50446FF48844208D101214D
:10101000C014FFF722FE0021E014FFF71EFEC4E01B
:10102000B4F1804F08D101210846FFF723FE0021CB
:101030000120FFF71FFEB8E0F448844208D10121E7
:101040000220FFF717FE00210220FFF713FEACE09D
:10105000EF48844208D101210420FFF70BFE002154
:101060000420FFF707FEA0E0EA48844208D10121EE
:101070000820FFF7FFFD00210820FFF7FBFD94E0AB
:10108000E548844208D101211020FFF7F3FD00213B
:101090001020FFF7EFFD88E0E048844208D10121ED
:1010A0002020FFF7E7FD00212020FFF7E3FD7CE093
:1010B000DB48844208D101214014FFF7CEFD002116
:1010C0006014FFF7CAFD70E0D648844209D10121BF
:1010D000C804FFF7C2FD00214FF40020FFF7BDFD5B
:1010E00063E0D148844209D101210805FFF7B5FD2D
:1010F00000214FF48010FFF7B0FD56E0CB4884424A
:1011000009D101214805FFF7A8FD00214FF4001087
:10111000FFF7A3FD49E0C648844208D101214020E1
:10112000FFF7A8FD00214020FFF7A4FD3DE0C148E6
:10113000844208D101218020FFF79CFD00218020FE
:10114000FFF798FD31E0BC48844208D101218015A9
:10115000FFF790FD0021A015FFF78CFD25E0B748B3
:10116000844209D101210804FFF777FD00214FF4E3
:101170008030FFF772FD18E0B148844209D10121A7
:101180004804FFF76AFD00214FF40030FFF765FDCA
:101190000BE0AC48844208D101218804FFF75DFDD3
:1011A00000214FF48020FFF758FD10BD0022028877
:1011B000954B98420ED09A4B98420BD0B0F1804F8D
:1011C00008D0924B984205D0914B984202D0914B57
:1011D000984204D14FF68F731A404B881A438E4BB6
:1011E000984207D08D4B984204D04FF6FF431A40E7
:1011F000CB881A4302808B8883850B880385824BBA
:1012000098420BD0864B984208D08C4B984205D020
:101210008B4B984202D08B4B984201D10B7A0386BC
:1012200001238382704770B5002200230024058CBF
:101230004FF6FE7635400584038C8488028B4FF68A
:101240008F752A40B51E2A400D882A43751E2B40F3
:101250000D892B434D882B436B4DA8420BD0704D0D
:10126000A84208D0754DA84205D0754DA84202D0BD
:10127000744DA84213D14FF6F7752B404D892B437F
:101280004FF6FB752B408D882B434FF6FF652C40A6
:101290004FF6FF552C408D892C43CD892C438480FB
:1012A0000283CD888586038470BD70B5002200233B
:1012B0000024058C4FF6EF7635400584038C848836
:1012C000028B48F6FF752A404FF6FF452A400D88ED
:1012D0002D0642EA15424FF6DF752B400D892D058C
:1012E00043EA15434D882D0543EA1543464DA84270
:1012F00002D04B4DA8421BD14FF67F752B404D8934
:101300002D0543EA15434FF6BF752B408D882D05FB
:1013100043EA15434FF6FF352C404FF2FF752C4042
:101320008D89AD0444EA1544CD89AD0444EA1544E1
:1013300084800283CD880587038470BD70B5002248
:1013400000230024058C4FF6FF6635400584038C8E
:101350008488828B4FF68F752A404FF6FC752A40A1
:101360000D882A434FF6FF552B400D892D0643EA81
:1013700015434D882D0643EA1543234DA84202D05C
:10138000274DA8421BD14FF2FF752B404D892D06EA
:1013900043EA15434FF6FF352B408D882D0643EA6F
:1013A00015434EF6FF752C404DF6FF752C408D8988
:1013B0002D0544EA1544CD892D0544EA1544848061
:1013C0008283CD888587038470BD70B50022002399
:1013D0000024058C4EF6FF7635400584038C848806
:1013E000828B48F6FF752A404FF6FF452A400D884C
:1013F0002D0642EA15424DF6FF752B400D892D074B
:1014000043EA15434D881FE0002C014000040040D2
:1014100000080040000C0040001000400014004094
:1014200000340140004C0140005001400054014094
:1014300000180040001C0040002000400040014017
:1014400000440140004801402D0743EA1543F84D90
:10145000A84202D0F74DA84206D14BF6FF752C40AA
:101460008D89AD0544EA154484808283CD88A0F837
:101470004050038470BD828B4FF2FF331A40828349
:10148000828B0B0642EA134282837047F0B5002438
:1014900000250026078C4EF6FF7C07EA0C07078420
:1014A000848B058C0F073E0C40F6FF473C40170627
:1014B00044EA17441F0744EA1744DD4FB8420ED0F0
:1014C000DC4FB8420BD0B0F1804F08D0DA4FB842B1
:1014D00005D0DA4FB84202D0D94FB84206D14DF606
:1014E000FF773D4046F480573D4305E047F6FF5700
:1014F0003D4041F480573D4384830584F0BD828B99
:101500004FF6F3731A408283828B0A4382837047BB
:10151000F0B5002400250026078C4FF6FF6C07EA83
:101520000C070784848B058C0F063E0C4FF60C7756
:101530003C401F0542EA17473C43BD4FB8420ED01E
:10154000BC4FB8420BD0B0F1804F08D0BA4FB84270
:1015500005D0BA4FB84202D0B94FB84206D14FF6C3
:10156000FF573D4046F480773D4305E04FF2FF577B
:101570003D4041F480773D4384830584F0BD028B78
:101580004FF2FF331A400283028B0B0642EA1342EA
:1015900002837047F0B5002400250026078C4FF623
:1015A000EF7C07EA0C070784048B058C0F053E0CC3
:1015B00040F6FF473C401F0744EA1744170644EA39
:1015C00017449B4FB8420ED09A4FB8420BD0B0F19F
:1015D000804F08D0984FB84205D0984FB84202D0FB
:1015E000974FB84206D14FF6DF773D4046F01007DF
:1015F0003D4305E04FF65F773D4041F010073D4326
:1016000004830584F0BD028B4FF6F3731A40028306
:10161000028B0A4302837047F0B500240025068C34
:101620004FF6FE773E400684048B058C4FF60C7611
:1016300034401E0542EA164634437D4EB0420ED079
:101640007C4EB0420BD0B0F1804F08D07A4EB04201
:1016500005D07A4EB04202D0794EB04206D14FF654
:10166000FD76354041F00106354305E04FF6F5764D
:10167000354041F00106354304830584F0BD70B563
:1016800004460D466A4884420ED06A4884420BD014
:10169000B4F1804F08D06848844205D0674884423E
:1016A00002D06748844200D100E000BF288850B9CA
:1016B0002B89AA8869882046FFF7AEFFE988204673
:1016C000FFF7A1FF25E0288804280AD12B89AA88E2
:1016D00069882046FFF75EFFE9882046FFF74FFF45
:1016E00017E0288808280AD12B89AA88698820460B
:1016F000FFF70EFFE9882046FFF701FF09E02B897D
:10170000AA8869882046FFF7C1FEE9882046FFF7CE
:10171000B2FE70BD2DE9F04104460D4600260127BA
:10172000688808B9022600E00026A888012801D1AF
:10173000022700E001272888A0B92B89AA88698898
:101740002046FFF769FFE9882046FFF75CFF2B89F9
:101750003A4631462046FFF71DFFE9882046FFF74D
:101760000EFF13E02B89AA8869882046FFF712FF35
:10177000E9882046FFF703FF2B893A463146204689
:10178000FFF74AFFE9882046FFF73DFFBDE8F081FB
:101790000A884B881A438B881A43CB881A430B89D3
:1017A0001A434B891A438B891A43A0F84420704787
:1017B0004FF6FF71818000210180C180418001725C
:1017C00070470021018041808180C1800181418179
:1017D0008181C18170470021018041800121818088
:1017E0000021C180018170470021018041808180FA
:1017F000C180018141818181704721B1028842F01D
:101800000102028004E002884FF6FE731A40028053
:10181000704731B1B0F8442042F40042A0F84420AF
:1018200005E0B0F84420C2F30E02A0F8442070474F
:10183000002C01400034014000040040000800403A
:10184000000C004010B51AB183890B43838104E07A
:101850008389CC43A4B22340838110BD8182704729
:1018600041EA0203A0F84830704710B51AB18389E5
:101870000B43838104E08389CC43A4B2234083815A
:1018800010BD01894FF6F8721140018170470022A6
:1018900002894FF68F731A400A430281704730B5B0
:1018A00004460D4629462046FFF7F1FF208940F007
:1018B0000700208130BD2DE9F04104460D46164653
:1018C0001F46602D06D13B46012231462046FFF7D8
:1018D00061FE05E03B46012231462046FFF79CFEB3
:1018E00029462046FFF7D3FF208940F007002081DA
:1018F000BDE8F08130B500240489E4B21D0642EA57
:1019000015450D432C43048130BD2DE9F0410446BB
:101910000D4616469846002743463246294620463D
:10192000FFF7E8FF27894FF6F870074047F00707F1
:101930004FF68F70074047F070072781BDE8F081B0
:10194000F0B504460D4616461F463B46324629462C
:101950002046FFF7CFFF208940F480402081F0BD72
:10196000018582827047002202884FF68F731A40E9
:101970000A4302807047F0B5002400250026048940
:10198000058B068C4FF6F8773C400C434FF6FC472E
:101990003D4040F201173D434FF6DD773E401F05C5
:1019A00042EA17473E43048105830684F0BD0022C6
:1019B000028B4FF68F731A400A430283704700224E
:1019C000028B48F6FF731A400B0642EA1342028369
:1019D00070470022828B4FF68F731A400A4382832E
:1019E00070470022828B48F6FF731A400B0642EACA
:1019F00013428283704721B1028842F08002028044
:101A000004E002884FF67F731A400280704721B1CC
:101A1000828842F00402828004E082884FF6FB73E1
:101A20001A408280704721B1828842F00802828089
:101A300004E082884FF6F7731A408280704721B124
:101A4000828842F00102828004E082884FF6FE73B1
:101A50001A40828070470022028B4FF6F7731A40BB
:101A60000A43028370470022028B4FF2FF731A4031
:101A70000B0642EA1342028370470022828B4FF624
:101A8000F7731A400A43828370470022828B4FF219
:101A9000FF731A400B0642EA13428283704700220A
:101AA000028B4FF6FB731A400A43028370470022F1
:101AB000028B4FF6FF331A400B0642EA13420283B1
:101AC00070470022828B4FF6FB731A400A438283D1
:101AD00070470022828B4FF6FF331A400B0642EA12
:101AE0001342828370470022028B4FF67F731A40A5
:101AF0000A43028370470022028BC2F30E020B06D8
:101B000042EA1342028370470022828B4FF67F73B2
:101B10001A400A43828370470022828BC2F30E026E
:101B20000B0642EA1342828370470022028C4FF672
:101B3000FD731A400A43028470470022028C4FF65C
:101B4000F7731A400A43028470470022028C4FF652
:101B5000DF731A400B0542EA1342028470470022E9
:101B6000028C4FF67F731A400B0542EA134202843F
:101B700070470022028C4FF6FF531A400B0642EAD0
:101B80001342028470470022028C4FF2FF731A4006
:101B90000B0642EA1342028470470022028C4DF683
:101BA000FF731A400B0742EA13420284704730B5B4
:101BB000002301248C40A3B2048CDD43ADB22C4041
:101BC0000484048C02FA01F5ADB22C43048430BDC8
:101BD00030B5002304248C40A3B2048CDD43ADB2A5
:101BE0002C400484048C02FA01F5ADB22C43048429
:101BF00030BD70B500230024034618461833012574
:101C00008D40ACB2058CE643B6B23540058409B1CF
:101C1000082909D103EB61031D6825F070051D60DB
:101C20001D6815431D600CE00D1FADB203EB65038D
:101C30001D6825F4E0451D601D68160645EA164539
:101C40001D6070BD21B1028842F00202028004E0F2
:101C500002884FF6FD731A400280704721B1028856
:101C600042F00402028004E002884FF6FB731A403F
:101C70000280704721B1828842F08002828004E0B5
:101C800082884FF67F731A408280704702884FF631
:101C9000F7731A40028002880A43028070478288E4
:101CA0004FF68F731A40828082880A438280704781
:101CB00002894FF6F8731A40028102890A430281B1
:101CC000704702894FF67F731A40028102890A43E6
:101CD0000281704781847047818570478186704793
:101CE0000187704781877047A0F8401070470288CD
:101CF0004FF6FF431A40028002880A430280704771
:101D00000146888E70470146088F70470146888FCC
:101D100070470146B1F8400070470146888C704713
:101D20000146088D704702460020138A0B4201D0FD
:101D3000012000E000207047CA430282704730B59E
:101D40000246002000230024158A05EA0103958934
:101D500005EA010413B10CB1012000E0002030BD00
:101D6000CA4302827047000010B50446FB48844213
:101D700009D101218803FEF770FF00214FF4804054
:101D8000FEF76BFF32E0F648844209D10121480496
:101D9000FEF770FF00214FF40030FEF76BFF25E0E7
:101DA000F048844209D101218804FEF763FF002135
:101DB0004FF48020FEF75EFF18E0EB48844209D123
:101DC0000121C804FEF756FF00214FF40020FEF762
:101DD00051FF0BE0E548844208D101210805FEF7D8
:101DE00049FF00214FF48010FEF744FF10BD2DE99C
:101DF000F04786B004460D460026002700BFB146D6
:101E0000B246A88900B100BFA246268A4CF6FF70F0
:101E10000640E88806432682A6894EF6F31006405F
:101E2000A88829890843698908430643A681A68AA8
:101E30004FF6FF400640A8890643A68201A8FEF798
:101E400084FE5446C548824501D1049F00E0039FAB
:101E5000A08910F4004F08D007EBC70000EB071073
:101E600029684900B0FBF1F807E007EBC70000EB79
:101E7000071029688900B0FBF1F86420B8FBF0F086
:101E800006013009642101FB1089A08910F4004F7C
:101E900009D0322101EBC9006421B0FBF1F000F060
:101EA0000700064308E0322101EB09106421B0FB72
:101EB000F1F000F00F000643268106B0BDE8F08780
:101EC0004FF41651016000218180C18001810C21F5
:101ED000418100218181704710B50022028A4FF2B2
:101EE000FF031A400B884C8823438C882343CC88FB
:101EF00023431A43028210BD00210180418081806A
:101F0000C180704721B1828942F40052828104E08D
:101F100082894DF6FF731A4082817047F0B5002424
:101F2000002500260023A1F510676A3F00D100BFFD
:101F30000346C1F3421401F01F05012707FA05F615
:101F4000012C01D10C3304E0022C01D1103300E04C
:101F500014331AB11F6837431F6002E01F68B7438C
:101F60001F60F0BD10B51AB1838A0B43838204E071
:101F7000838ACC43A4B22340838210BD028A4FF6E9
:101F8000F0731A400282028A0A43028270478289F1
:101F90004FF2FF731A40828182890A43828170471F
:101FA00021B1828942F00202828104E082894FF6E7
:101FB000FD731A4082817047028A4FF6DF731A4020
:101FC0000282028A0A430282704721B1028A42F4E5
:101FD0008042028204E0028A4BF6FF731A400282BA
:101FE0007047C1F308028280704701468888C0F3B9
:101FF00008007047818941F0010181817047028B9F
:10200000D2B20283028B42EA012202837047028B22
:1020100002F47F420283028B0A430283704721B19C
:10202000828A42F02002828204E0828A4FF6DF73C5
:102030001A408282704721B1828A42F01002828265
:1020400004E0828A4FF6EF731A408282704721B112
:10205000828A42F00802828204E0828A4FF6F77395
:102060001A408282704721B1828942F40042828103
:1020700003E08289C2F30E028281704721B1828A15
:1020800042F40062828204E0828A4FF2FF731A40B7
:1020900082827047828A4FF6FB731A408282828A5C
:1020A0000A438282704721B1828A42F00202828210
:1020B00004E0828A4FF6FD731A408282704702461E
:1020C0000020B1F5007F00D100BF13880B4201D082
:1020D000012000E00020704701F40072B2F5007F9B
:1020E00000D100BFCA430280704770B5024600238A
:1020F000002400250020A1F510666A3E00D100BF33
:10210000C1F3421501F01F04012606FA04F4012D63
:1021100002D19689344006E0022D02D1168A34405D
:1021200001E0968A34400B12012606FA03F3168862
:10213000334014B10BB1012000E0002070BD10B598
:1021400000220023A1F510646A3C00D100BF0A12EE
:1021500001249440A3B2DC43048010BD0038014048
:102160000044004000480040004C00400050004047
:102170001C4909684FF47A72B1FBF2F0B0F1807F2C
:1021800000D31CE020F07F41491E4FF0E022516156
:1021900000BF5117002905DA0F210901124A0B234C
:1021A000D15404E00F210901104A5317D15400BF44
:1021B00000214FF0E02291610721116100BF7047BB
:1021C0000B49086000BF0A4909680029FBD1704724
:1021D0000748006820B106480068401E04490860AE
:1021E000704700000000002018ED00E000E400E06F
:1021F00028000020014600BF704700BF554A1288E2
:1022000012F0400FFAD0C2B2534B1A80704700B59B
:1022100087B001214804FEF713FD01210420FEF7D9
:1022200002FD0420ADF8180003208DF81A001820D4
:102230008DF81B0006A94948FEF74EFA0820ADF8B4
:10224000180004208DF81B0006A94448FEF744FA44
:102250004FF4E12002900020ADF80C00ADF80E0024
:10226000ADF810000C20ADF812000020ADF81400FD
:1022700002A93848FFF7BBFD01213648FFF742FEAF
:10228000012240F225513348FFF748FE26208DF801
:10229000040001208DF805008DF806008DF8070078
:1022A00001A8FEF742F907B000BD70B5044600254D
:1022B00000BF605781B22748FFF793FE00BF80211F
:1022C0002448FFF7FCFE0028F9D0681CC5B2605D09
:1022D0000028EED170BD10B540F225511D48FFF722
:1022E00004FF002834D01B48FFF77FFEC4B21C480F
:1022F000008810F4004F2BD11948008810F4804F4B
:102300000CD00A2C03D000201549088020E0144886
:10231000008840F400401249088019E00D2C06D1D5
:102320000F48008840F480400D49088010E00C48B8
:102330000088C0F30D000B490C5409480088401C6C
:102340000749088008460088C72801DD002008806A
:1023500010BD00000044004004440040000801405B
:102360002C0000209010002010B52021F948FEF725
:102370005DFA8021F748FEF759FA8021F548FEF70B
:1023800057FA2021F348FEF753FA10BD10B520216B
:10239000F048FEF74BFA8021EE48FEF749FA80211B
:1023A000EC48FEF743FA10BD10B52021E948FEF7CE
:1023B0003DFA2021E748FEF73BFA10BD2DE9F04138
:1023C000044627462021E348FEF732FA002519E0AB
:1023D0003E4606F08006802E04D18021DD48FEF7BF
:1023E00025FA03E08021DB48FEF722FA7806070E83
:1023F0002021D848FEF71AFA2021D648FEF718FA0D
:10240000681CC5B2082DE3DBBDE8F08110B50446B9
:10241000FFF7AAFF7820FFF7D1FFFFF7C5FF0020E5
:10242000FFF7CCFFFFF7C0FF2046FFF7C7FFFFF71E
:10243000BBFFFFF7ABFF10BD10B50446FFF794FFDD
:102440007820FFF7BBFFFFF7AFFF4020FFF7B6FF95
:10245000FFF7AAFF2046FFF7B1FFFFF7A5FFFFF741
:1024600095FF10BD70B504460D461DB1E0B2FFF7F3
:10247000E3FF02E0E0B2FFF7C9FF70BD70B50446AC
:10248000002518E005F1B0000021FFF7EBFF002167
:102490000846FFF7E7FF00211020FFF7E3FF0026C3
:1024A00005E001212046FFF7DDFF701CC6B2802E3B
:1024B000F7DB681CC5B2082DE4DB70BD70B50446BF
:1024C0000D4605F1B0000021FFF7CCFF210941F0D6
:1024D00010000021FFF7C6FF04F00F000021FFF7F6
:1024E000C1FF70BD10B500218D20FFF7BBFF00219B
:1024F0001420FFF7B7FF0021AF20FFF7B3FF10BD97
:1025000010B500218D20FFF7ADFF00211020FFF74F
:10251000A9FF0021AE20FFF7A5FF10BD70B5002474
:1025200018E004F1B0000021FFF79CFF00210846ED
:10253000FFF798FF00211020FFF794FF002505E02A
:1025400001210020FFF78EFF681CC5B2802DF7DB4C
:10255000601CC4B2082CE4DB70BD70B5002418E028
:1025600004F1B0000021FFF77DFF00210846FFF7CE
:1025700079FF00211020FFF775FF002505E00121FC
:102580000846FFF76FFF681CC5B2802DF7DB601CA3
:10259000C4B2082CE4DB70BD2DE9F04704460D46BB
:1025A00016461F464FF00008C146A6F1200000F075
:1025B000FF087F2C02DD0024A81CC5B2102F2CD1EF
:1025C00029462046FFF77AFF4FF000090AE009EBA1
:1025D0000811614A505C0121FFF744FF09F1010035
:1025E00000F0FF09B9F1080FF1DB681CC1B2204609
:1025F000FFF764FF4FF000090BE009EB0811083109
:10260000554A505C0121FFF72DFF09F1010000F050
:10261000FF09B9F1080FF0DB17E029462046FFF764
:102620004DFF4FF000090DE008EB48014B4A02EB6B
:10263000410111F809000121FFF714FF09F1010020
:1026400000F0FF09B9F1060FEEDBBDE8F08710B529
:102650000246012000E050430B00A1F10104E1B269
:10266000F9D110BD2DE9FF5F044615461E460E9FA9
:102670004FF0000AD0463AE0A6EB0800401EC1B277
:102680000A20FFF7E4FFB5FBF0F00A21B0FBF1F2FE
:1026900001FB120000F0FF09BAF1000F14D1701E07
:1026A000404511DDB9F1000F0CD1BB4607EBD771E6
:1026B000491001FB0841C8B23B4620220199FFF7AF
:1026C0006BFF10E04FF0010ABB4607EBD7714910D2
:1026D00001FB0841C8B23B4609F13001CAB2019979
:1026E000FFF75AFF00BF08F1010000F0FF08B045F6
:1026F000C2DBBDE8FF9F2DE9F04104460E461546BA
:102700001F464FF0000812E015F808203B463146FE
:102710002046FFF741FF04F10800C4B2782C02DD27
:102720000024B01CC6B208F1010000F0FF0815F843
:1027300008000028E8D1BDE8F0812DE9F041044609
:102740000D4616464FF0000829462046FFF7B6FE14
:10275000002712E000080140486D0008426D0008A3
:10276000964A02EB8611C85D0121FFF77BFE08F156
:10277000010000F0FF08781CC7B2102FF0DB681CC6
:10278000C1B22046FFF79AFE00270EE07100491CF7
:102790008A4A02EB4111C85D0121FFF763FE08F18F
:1027A000010000F0FF08781CC7B2102FEEDBBDE877
:1027B000F0812DE9F05F04460D4616461F46DDF810
:1027C00028804FF00009F91707EB5171C910B7EBDA
:1027D000C10106D13846F91707EB51714FEAE10BF9
:1027E00006E03846F91707EB5171C91001F1010BEA
:1027F000AB4617E059462046FFF760FEA2460BE0C5
:10280000494609F1010918F801000121FFF72AFEE4
:102810000AF1010000F0FF0AB245F1DB0BF1010003
:1028200000F0FF0BBB45E5DBBDE8F09F2DE9F05F55
:1028300004460D4616461F464FF0000900BF31E022
:102840004FF00008AB4629E004EB0901C8B2594635
:10285000FFF734FE04EB090000F0FF0A15E0BAF1BF
:102860007F0F06DB04EB0900C0F17F00301A8044C3
:102870000FE0414608F101080A9A505C0121FFF778
:10288000F1FD0AF1010000F0FF0A06EB09005045D6
:10289000E5D800BF0BF1010000F0FF0BBB45D3DB17
:1028A00009F10A09B9F17F0FCAD3BDE8F09F08B555
:1028B00001210420FEF7B7F9A020ADF80000102098
:1028C0008DF8030003208DF8020069463C48FDF7AF
:1028D00003FFA0213A48FDF7A9FF4FF44870FFF726
:1028E0006FFC0021AE20FFF7BDFD00210846FFF779
:1028F000B9FD00211020FFF7B5FD00214020FFF7B2
:10290000B1FD0021B020FFF7ADFD00218120FFF7D0
:10291000A9FD0021FF20FFF7A5FD0021A120FFF761
:10292000A1FD0021A620FFF79DFD0021A820FFF7B3
:1029300099FD00213F20FFF795FD0021C820FFF7FA
:1029400091FD0021D320FFF78DFD00210846FFF700
:1029500089FD0021D520FFF785FD00218020FFF7AC
:1029600081FD0021D820FFF77DFD00210520FFF724
:1029700079FD0021D920FFF775FD0021F120FFF737
:1029800071FD0021DA20FFF76DFD00211220FFF715
:1029900069FD0021DB20FFF765FD00213020FFF7F6
:1029A00061FD00218D20FFF75DFD00211420FFF760
:1029B00059FD0021AF20FFF755FD08BD3400002070
:1029C0000008014010B50446FF4800884FF6C77163
:1029D00000EA0100FD49A1F800080846B0F8000827
:1029E00040EA0400A1F800084FF00101F648FEF7A4
:1029F00049FA10BD10B5044600BF0221F248FEF7A7
:102A0000CAFA0028F9D02146EF48FEF771FA00BF54
:102A10000121ED48FEF7BFFA0028F9D0EA48FEF799
:102A200069FAC0B210BD10B54FF48051E848FDF707
:102A3000FDFEFF20FFF7DEFF10BD10B5002400BF34
:102A4000FF20FFF7D7FFFF2801D1002010BD6FF056
:102A50007F408442F4D30120F8E710B54FF4805151
:102A6000DB48FDF7E5FEFFF7E8FF08B9002010BDE1
:102A7000FFF7D9FF0120FAE72DE9F04104460D46A2
:102A800016464FF00008FFF7CEFFFFF7E6FF10B144
:102A9000FF20BDE8F08144F04000FFF7ABFF280EB7
:102AA000FFF7A8FFC5F30740FFF7A4FFC5F3072012
:102AB000FFF7A0FFE8B2FFF79DFF3046FFF79AFF50
:102AC0000C2C02D1FF20FFF795FF4FF01F0800BF2D
:102AD000FF20FFF78FFF074617F0800F06D05FEA51
:102AE0000800A8F1010101F0FF08F1D13846D0E754
:102AF00000B587B001210820FEF795F80121880371
:102B0000FEF79EF84FF46040ADF8180003208DF8F2
:102B10001A0018208DF81B0006A9AD48FDF7DCFD52
:102B20004FF46041AA48FDF781FE0020ADF8040093
:102B30004FF48270ADF806000020ADF808000220C6
:102B4000ADF80A000120ADF80C004002ADF80E000F
:102B50003820ADF810000020ADF812000720ADF8C5
:102B6000140001A99848FEF7EDF801219648FEF7F8
:102B700089F907B000BD2DE9FC410127012108209A
:102B8000FEF751F83803ADF8000003208DF802007D
:102B900010208DF8030069468D48FDF79DFDFFF775
:102BA000A7FF39038A48FDF741FE002404E0FF2017
:102BB000FFF720FF601CC4B20A2CF8DB142500BF0D
:102BC000952200210846FFF757FF0646012E04D044
:102BD0002800A5F101018DB2F2D1012E4BD10027C1
:102BE00087224FF4D5710820FFF746FF012847D10F
:102BF000002406E0FF20FFF7FDFE01A90855601C38
:102C0000C4B2042CF6DB9DF80600012879D19DF8AA
:102C10000700AA2875D14FF6FE7500BF01220021DA
:102C20003720FFF729FF012291072920FFF724FF12
:102C3000064626B12800A5F101018DB2EED1002D86
:102C40005FD0012200213A20FFF716FF002858D15B
:102C5000002406E0FF20FFF7CDFE01A90855601C07
:102C6000C4B2042CF6DB9DF8040010F0400F03D032
:102C700001205849087044E002205649087040E09D
:102C8000012200213720FFF7F7FE01220021292031
:102C9000FFF7F2FE0646012E17DC03204D490870AF
:102CA0004FF6FE7500BF012200213720FFF7E4FE3A
:102CB000012200212920FFF7DFFE0646BEB12800D1
:102CC000A5F101018DB2EED111E004204149087057
:102CD0004FF6FE7500BF012200211046FFF7CCFE23
:102CE000064626B12800A5F101018DB2F3D12DB120
:102CF000012251021020FFF7BFFE10B10520354917
:102D00000870FFF790FE0820FFF75CFE3846BDE82C
:102D1000FC8170B505464FF6FF7401E0601E84B279
:102D2000FF20FFF767FEFE2801D0002CF6D10CB97A
:102D3000012070BD0020FCE770B504460D46FE2062
:102D4000FFF7E7FF08B1012070BD04E0FF20FFF7A7
:102D500051FE2070641C2800A5F101018DB2F5D14F
:102D6000FF20FFF747FEFF20FFF744FE0020EBE7C0
:102D70002DE9F04104460D46174616480078012813
:102D800000D06D02012F0CD1012229461120FFF73E
:102D900073FE06464EBB79022046FFF7CDFF06467E
:102DA00023E0012229461220FFF766FE0646E6B917
:102DB00000BF4FF400712046FFF7BEFF064604F542
:102DC0000074781EC0B207E00038004000300040B8
:102DD000000C014074000020070001D0002EE8D054
:102DE000012200210C20FFF747FEFFF71CFE3046B2
:102DF000BDE8F08170B504460D46FFF71EFE08B130
:102E0000012070BD2846FFF7F5FDFD2D19D00026E5
:102E100004E0A05DFFF7EEFD701C86B2B6F5007F02
:102E2000F7DBFF20FFF7E6FDFF20FFF7E3FDFF20C4
:102E3000FFF7E0FD064606F01F00052801D002203E
:102E4000DFE70020DDE72DE9F04104460D46174697
:102E50004A480078012800D06D02012F0DD10122CF
:102E600029461820FFF708FE0646002E2DD1FE2128
:102E70002046FFF7BFFF064627E0404800780428B9
:102E800009D0012200213720FFF7F6FD0122394643
:102E90001720FFF7F1FD012229461920FFF7ECFD6D
:102EA000064696B900BFFC212046FFF7A3FF064661
:102EB00004F50074781EC0B2070001D0002EF2D0D5
:102EC000FD210020FFF796FF0646FFF7ACFD3046D8
:102ED000BDE8F08170B50446012200210920FFF70A
:102EE000CBFD054625B910212046FFF725FF0546F5
:102EF000FFF799FD0DB1012070BD0020FCE77FB503
:102F000000246846FFF7E6FF10B1002004B070BD52
:102F10009DF8000000F0C000402809D19DF809008C
:102F20009DF8081000EB0120401C86B2B40222E09C
:102F30009DF8050000F00F009DF80A1001F07D01DA
:102F400000EBE1109DF8091001F0030100EB4100D6
:102F5000851C9DF8080080119DF8071000EB810189
:102F60009DF8060000F0030001EB8020461CA5F14F
:102F7000090006FA00F42046C8E7000074000020AB
:102F80007FB505460C4601210220FDF759FEADF83C
:102F900004400020ADF80600ADF80850ADF80A0076
:102FA00001A91B48FEF702F9012211461848FEF755
:102FB00049FC1D208DF8000000208DF80100012043
:102FC0008DF802008DF803006846FDF7AEFA7FBD6C
:102FD00008B501210E48FEF7B2FE012817D10D4BAE
:102FE0004FF42A720C490D4801F0E7FE0A4B00939A
:102FF0000823692200211420FFF7DBFB0848006842
:10300000401E0749086001210148FEF7A9FE08BDDE
:10301000000400407C000020581100200014002013
:103020007800002008B501210420FDF7FCFD0121F6
:103030000820FDF7F8FD40F20110ADF80000012076
:103040008DF8020048208DF8030069462848FDF7F6
:1030500043FB0620ADF8000069462648FDF73CFB1F
:1030600008BD10B501212248FDF7C6FB30B9224842
:10307000007818B901202049087010BD01211C48B2
:10308000FDF7BAFB30B91C480078012802D10020B6
:10309000194908700020F0E708B501211020FDF75C
:1030A000C2FD01212020FDF7BEFD4FF47F40ADF8A9
:1030B000000010208DF8030001208DF80200694601
:1030C0000E48FDF709FB0420ADF8000069460C48E6
:1030D000FDF702FB4FF47F410848FDF7A7FB0421F1
:1030E0000748FDF7A3FB04210548FDF7A1FB08BD38
:1030F00000080140000C0140800000200010014049
:10310000001401400020704701460020704770B550
:103110000546012D03D1FFF72EFD044601E00124F1
:1031200000BF00BF0CB1012070BD0020FCE72DE9FD
:10313000F04104460D4616461F464FF0000817B9E9
:103140000420BDE8F081012C12D1FAB231462846A4
:10315000FFF70EFE804607E0FFF70DFDFAB231469D
:103160002846FFF705FE8046B8F1000FF4D102E0D3
:103170004FF0010800BF00BFB8F1000F01D10020DF
:10318000DFE70120DDE72DE9F04104460D46164654
:103190001F464FF0000817B90420BDE8F081012C4C
:1031A00011D1FAB231462846FFF74DFE804606E0BF
:1031B000FFF7E1FCFAB231462846FFF744FEB8F1CA
:1031C000000FF5D102E04FF0010800BF00BFB8F1D9
:1031D000000F01D10020E0E70120DEE72DE9F041FA
:1031E00004460D461646012C2AD135B1012D1ED0BC
:1031F000022D13D0032D1FD115E04FF4805112483A
:10320000FDF716FBFFF719FC08B9002700E00127BE
:103210004FF480510C48FDF709FB0FE04FF40070AC
:10322000308000270AE008203080002706E0FFF702
:1032300066FE3060002701E0042700BF00BF00BF2A
:1032400000BF3846BDE8F081000C014001464878D7
:103250000A7842EA002070470146C8788A7842EA34
:1032600000204A7842EA00200A7842EA00207047AB
:1032700000F8011B091200F8011B704700F8011B40
:10328000090A00F8011B090A00F8011B090A00F8E5
:10329000011B704730B503460C463AB100BF14F825
:1032A000015B03F8015B551E2A00F8D130BD10B553
:1032B0001346024600BF02F8011B5C1E2300FAD130
:1032C00010BDF0B5044623460D46002000BF13F89C
:1032D000017B15F801CBA7EB0C00561E320001D084
:1032E0000028F4D0F0BD024600E0521C107810B166
:1032F00010788842F9D110787047014609B1002052
:1033000070470020FCE7014609B10020704700200B
:10331000FCE72DE9F0410446266816F8017B3846A3
:10332000FFF7EBFF60B116F8018B4046FFF7EBFFAC
:1033300018B94FF0FF30BDE8F08108EB072087B2E5
:103340004FB140F2B511384603F04FFB074617B9AD
:103350004FF0FF30EFE73D4626602846EBE72DE9CA
:10336000F04104460D46164640F2B511204603F0E2
:103370001FFB0746FF2F0BDD022E02D20020BDE807
:10338000F081381205F8010B05F8017B0220F6E701
:1033900007B10EB90020F2E705F8017B0120EEE746
:1033A00070B504460025E078E8B16078012304F1A7
:1033B0003801626BFFF7E7FEA0B90020E070A16A58
:1033C000606B401A216A88420DD2A07802280AD187
:1033D000236A616BCA186078012304F13801FFF792
:1033E000D2FE00E00125284670BD70B504460D46AA
:1033F0000026606BA84210D02046FFF7D1FF06469A
:103400005EB9607801232A4604F13801FFF78FFE88
:1034100010B14FF0FF3501266563304670BD70B5C1
:1034200004462046FFF7BCFF0546002D38D1207822
:1034300003282ED1207901282BD14202002104F14A
:103440003800FFF734FF4AF6552104F23620FFF723
:103450000FFFFC4904F13800FFF710FFFA4904F5AB
:103460000770FFF70BFF04F508706169FFF706FFAF
:1034700004F509702169FFF701FF606A401C606371
:103480006078012304F13801626BFFF77CFE0020B5
:103490002071607800221146FFF7A0FE00B10125DF
:1034A000284670BD0246891ED069801E884201D818
:1034B000002070475389106B03FB0100F9E72DE9E9
:1034C000F04704460D46D4F80090022D03D3D9F8F6
:1034D0001C00A84202D84FF0010864E04FF0FF380A
:1034E00099F80000012804D002282FD0032856D1D3
:1034F00040E02F463D4607EB5707D9F8280000EB80
:1035000057214846FFF771FF00B14BE038467F1C5A
:10351000C0F3080109F13800465CD9F8280000EB37
:1035200057214846FFF761FF00B13BE0C7F30801B0
:1035300009F13800405C46EA002615F0010F01D081
:10354000300901E0C6F30B0080462BE0D9F82800D3
:1035500000EB15214846FFF748FF00B122E040F29A
:10356000FF1202EA450209F138015018FFF76EFE1A
:10357000804617E0D9F8280000EBD5114846FFF740
:1035800034FF00B10EE040F2FF1202EA850209F1B9
:1035900038015018FFF760FE20F0704802E04FF04D
:1035A000010800BF00BF4046BDE8F0872DE9F047A5
:1035B00004460D4616464FF00209022D75D3E06908
:1035C000A84272D92078012804D002284AD00328C2
:1035D0000ED15FE02F463D4607EB5707A06A00EB90
:1035E00057212046FFF701FF8146B9F1000F00D0B7
:1035F00075E038467F1CC0F3080104F1380001EB88
:10360000000815F0010F05D0F1B298F8000061F341
:103610001F1000E0F0B288F800000120E070A06AFE
:1036200000EB57212046FFF7E0FE8146B9F1000F7D
:1036300000D054E0C7F3080104F1380001EB0008A2
:1036400015F0010F02D0C6F3071006E098F800004D
:1036500000F0F000C6F30321084388F800000120C1
:10366000E0703CE0A06A00EB15212046FFF7BDFEAC
:103670008146B9F1000F00D031E040F2FF1202EABA
:10368000450204F138015018B1B2FFF7F1FD0120F5
:10369000E07024E0A06A00EBD5112046FFF7A5FEFC
:1036A0008146B9F1000F01D019E019E040F2FF1294
:1036B00002EA850204F138015018FFF7CDFD66F3E8
:1036C0001B00064640F2FF1202EA850204F13801AF
:1036D00050183146FFF7D2FD0120E07000BF00BF57
:1036E0004846BDE8F0872DE9F04704460D461646EA
:1036F0000027D4F80090022D03D3D9F81C00A8426B
:1037000002D80220BDE8F08756B100BF4FF0FF326B
:1037100031464846FFF74AFF07460FB13846F1E702
:1037200000BF29462046FFF7CAFE8046B8F1000FC9
:1037300000D129E0B8F1010F01D10220E2E718F130
:10374000010001D10120DDE7002229464846FFF7AC
:103750002DFF07460FB13846D4E7D9F81C10891E53
:10376000D9F8140088420AD2D9F81400401CC9F8CC
:10377000140099F8040040F0010089F8040045465F
:10378000D9F81C00A842CCD800BF0020BAE72DE928
:10379000F04704460D46D4F800A05DB9DAF8108071
:1037A000B8F1000F03D0DAF81C00404517D84FF0ED
:1037B000010814E029462046FFF781FE0646022E46
:1037C00002D20120BDE8F087701C01D13046F9E734
:1037D000DAF81C00B04201D93046F3E7A846DAF81F
:1037E000140008B90020EDE70027A8451CD108F116
:1037F0000107DAF81C00B84200D8022739462046F3
:10380000FFF75DFE0646012E01D0701C01D1304647
:10381000D8E74EB1DAF81060022E04D3DAF81C00B3
:10382000B04200D9B046002717BB474600BF7F1CF7
:10383000DAF81C00B84209D80227474506D900200B
:10384000C0E7000052526141727241613946204620
:10385000FFF735FE064606B909E0012E01D0701CBF
:1038600001D13046AEE74745E1D10020AAE700BFCD
:103870004FF0FF3239465046FFF798FE8146B9F1C6
:10388000000F06D12DB13A4629465046FFF78EFE6D
:103890008146B9F1000F14D1CAF81070DAF81C1083
:1038A000891EDAF81400884204D8DAF81400401EA1
:1038B000CAF814009AF8040040F001008AF80400E5
:1038C00007E0B9F1010F02D14FF0FF3000E0012015
:1038D0000746384676E7F0B502461668906A051D39
:1038E000480A7789B0FBF7F400BF08CD0BB9002078
:1038F000F0BD9C4200D202E0E41A2D1DF5E700BFA6
:1039000028682044F4E72DE9F04704460D46204698
:10391000FFF746FD10B10120BDE8F087294620469B
:10392000FFF7C0FD064666634FF40072002104F104
:103930003800FFF7BCFC04F138094FF001080027FC
:1039400000E047446089B84207D9F21960784346DD
:103950004946FFF718FC0028F3D06089B84201D02F
:10396000012000E00020C0B2D6E72DE9F041044676
:103970000D46D4F80080B5F5001F02D215F01F0FD8
:1039800002D00220BDE8F0812561A7682FB998F820
:103990000000032801DBD8F82C7057B9B8F80800EC
:1039A000B0EB551F01D80220ECE7D8F82C00A0613D
:1039B0001CE0B8F80A00460211E039462046FFF73D
:1039C0007EFD0746781C01D10120DBE7022F03D3DF
:1039D000D8F81C00B84201D80220D3E7AD1BB5428D
:1039E000EBD239464046FFF75DFDA0616761A069F3
:1039F00008B90220C6E7A06900EB5520A061C5F315
:103A0000080108F138000844E0610020BAE72DE918
:103A1000F04104460D46D4F80080206900F12007EB
:103A2000B7F5001F01D30020A061A06910B90420E0
:103A3000BDE8F081F805C00D46D1A069401CA06129
:103A4000606940B9B8F80800B0EB571F3CD80020B7
:103A5000A0610420ECE7B8F80A00401E10EA572FD6
:103A600032D120466169FFF72AFD0646012E01D8B2
:103A70000220DDE7701C01D10120D9E7D8F81C0035
:103A8000B0421BD81DB90020A0610420D0E7204619
:103A90006169FFF77CFE06460EB90720C8E7012ED4
:103AA00001D10220C4E7701C01D10120C0E73146DA
:103AB0004046FFF728FF08B10120B9E766613146AB
:103AC0004046FFF7EFFCA0612761C7F3080108F14A
:103AD00038000844E0610020AAE72DE9F0410446DF
:103AE0000D46D4F8008000212046FFF73EFF064631
:103AF000EEB9002700BF4046A169FFF776FC0646F5
:103B000006B113E0E0690078E52802D0E0690078AA
:103B100020B9781C0746A84201D107E000270121FF
:103B20002046FFF774FF0646002EE4D000BF042EA7
:103B300000D107263046BDE8F08170B504460D4639
:103B400005F11A00FFF782FB06462078032805D10D
:103B500005F11400FFF77AFB46EA0046304670BDD7
:103B600070B504460D461646B1B205F11A00FFF7CE
:103B70007FFB2078032804D1310C05F11400FFF7F6
:103B800077FB70BD2DE9F04704460D4605F11A009C
:103B9000FFF75CFB10B10020BDE8F087287800F04B
:103BA0003F00401E00EB800101EBC0064FF0010812
:103BB000002721E0FA49C95D4819FFF747FB814614
:103BC000B8F1000F11D0FF2E0BD8484602F020FFAD
:103BD00082463146761C34F8110002F019FF824506
:103BE00001D00020D8E7C84605E0A9F57F40FF389E
:103BF00001D00020D0E77F1C0D2FDBD3287810F0F8
:103C0000400F07D0B8F1000F04D034F8160008B107
:103C10000020C1E70120BFE72DE9F04704460D462B
:103C200005F11A00FFF712FB10B10020BDE8F08784
:103C3000287820F04000401E00EB800101EBC00618
:103C40004FF00108002719E0D549C95D4819FFF771
:103C5000FDFA8146B8F1000F09D0FF2E01D90020EE
:103C6000E4E7C8463046761C24F8109005E0A9F534
:103C70007F40FF3801D00020D8E77F1C0D2FE3D311
:103C8000287810F0400F09D0B8F1000F06D0FF2EB1
:103C900001D90020CAE7002024F816000120C5E75A
:103CA0002DE9F04704460D4616461F466F730F2058
:103CB000E87200202873002105F11A00FFF7D8FAF6
:103CC000701E00EB800101EBC00800208246814697
:103CD00000BFAAF57F40FF3804D0404608F1010834
:103CE00034F810A0AE4911F8091048195146FFF7F1
:103CF000BFFABAF1000F01D14FF6FF7A09F10100C6
:103D000081460D28E5D3AAF57F40FF3802D034F86C
:103D1000180008B946F040062E70BDE8F0872DE97E
:103D2000FF4F83B0044615461E460B2220460499D9
:103D3000FFF7B0FA052E1BD9B34615E035F802ABF4
:103D40004FF000080DE050466BF35F0083464FEAEA
:103D50006A0A1BF4803F02D092488BEA000B08F1FC
:103D60000108B8F1100FEED328880028E6D15E468E
:103D70004FF0070800BF06F00F0000F13007392FA1
:103D800001DDF81DC7B24046A8F1010801A90F5492
:103D90003609002EEFD17E2001F808004FF000090F
:103DA0000DE014F80900FFF7A8FA30B1A8F10100FE
:103DB000484500D109E009F1010909F10109C145AE
:103DC00003D214F809002028EBD100BF00BFB8F1DE
:103DD000080F05D2404608F1010801A9085C00E07F
:103DE0002020C2B2484609F101092254B9F1080F56
:103DF000EDD307B0BDE8F08F30B5014600200B22AF
:103E000000BF431003EBC01411F8015B6319D8B273
:103E1000531E1A00F5D130BD2DE9F05F04460D4662
:103E2000042627684FF0FF0AD34659E03846A169B7
:103E3000FFF7DBFA064606B155E0E06990F800901E
:103E4000B9F1000F01D104264DE0E069C07A00F01D
:103E50003F0884F80680B9F1E50F0BD0B9F12E0FB9
:103E600008D028F02000082801D1012000E000201F
:103E7000A84202D04FF0FF0A2BE0B8F10F0F1CD17F
:103E800019F0400F07D0E06990F80DB009F0BF09B4
:103E9000CA462069E062D1450BD1E069407B5845B4
:103EA00007D1E169F868FFF7B7FE10B1AAF1010088
:103EB00000E0FF2000F0FF0A0BE0BAF1000F04D190
:103EC000E069FFF799FF584502D04FF0FF30E062FC
:103ED00009E000212046FFF79AFD064606B102E000
:103EE000A0690028A2D100BF0EB10020A061304619
:103EF000BDE8F09F2DE9F0470446266800212046E2
:103F0000FFF733FD054615B12846BDE8F0874FF0B1
:103F1000FF09CA464FF0FF30E06200BF3046A1699A
:103F2000FFF763FA054605B164E0E06907780FB969
:103F300004255FE0E069C07A00F03F0884F806805D
:103F4000E52F05D018F0080F08D0B8F10F0F05D0F5
:103F50004FF0FF094FF0FF30E06244E0B8F10F0F7F
:103F600026D12B20005D10F0400F3CD117F0400F00
:103F700007D0E06990F80DA007F0BF07B9462069A7
:103F8000E0624F4510D1E069407B50450CD1E169BA
:103F9000F068FFF7F7FD38B1A9F1010005E0000076
:103FA0003873000821100100FF2000F0FF091AE01B
:103FB000B9F1000F05D1E069FFF71EFF504500D1B0
:103FC00018E02B20005D10F0010F07D10B2204F147
:103FD0002001E069FFF775F900B90BE04FF0FF0928
:103FE0004FF0FF30E06200212046FFF710FD05464C
:103FF000002D93D000BF284687E72DE9FE4F0446E9
:1040000026682B20005D10F0A00F02D00620BDE82E
:10401000FE8F4FF0000801E008F10108F06830F869
:1040200018000028F8D10C2204F120016846FFF79F
:1040300031F99DF80B0010F0010F21D040212B2009
:10404000015501270DE03B46694604F12000F26866
:10405000FFF765FE2046FFF74DFF054605B102E07C
:104060007F1C642FEFD300BF642F01D10720CEE760
:10407000042D01D02846CAE79DF80B102B200155CE
:104080009DF80B0010F0020F06D008F10C000D2176
:10409000B0FBF1F0401C00E001208146494620467B
:1040A000FFF71BFD0546002D2ED1A9F101005FEAA7
:1040B000000929D02069A0EB49112046FFF755FCE3
:1040C00005460DBB04F12000FFF796FE824600BFB7
:1040D0003046A169FFF789F9054605B113E0E169AA
:1040E000534609F0FF02F068FFF7DAFD0120F07097
:1040F00000212046FFF78BFC054625B9A9F10100F8
:104100005FEA0009E4D100BFC5B93046A169FFF7F5
:104110006CF9054695B920220021E069FFF7C7F840
:104120000B2204F12001E069FFF7B4F82B20005DB9
:1041300000F01800E16908730120F070284666E776
:104140002DE9F041044626682769E06A401C00D149
:1041500003E02046E16AFFF708FCC5B2E5B900BFFD
:104160003046A169FFF741F9054605B110E000BFEF
:10417000E520E16908700120F0702069B84200D3A1
:1041800006E000212046FFF742FC0546002DE7D05F
:1041900000BF042D00D102252846BDE8F0812DE99D
:1041A000F05F04460D46D4F800B00020A875A06961
:1041B00008B9BDE8F09FE06A401C36D00026B24640
:1041C000374623E03046761CDBF80C2032F810909E
:1041D000BAF1000F07D1B9F5584F04DBB9F5604FBC
:1041E00001DACA4612E0C7F1FF0205F11603D91938
:1041F00049EA0A40FFF7B3F88146B9F1000F01D14F
:10420000002709E04F444FF0000A00BFDBF80C0024
:1042100030F816000028D5D100BFBAF1000F00D049
:104220000027002105F11600C1550020074606466B
:104230001EE03046761CE26912F80090B9F1200FBA
:1042400000D115E0B9F1050F01D14FF0E509092EB4
:1042500007D10C2F05D22E2238467F1C05F109010B
:104260000A5438467F1C05F1090101F8009000BF8F
:104270000B2EDED3002105F10900C155A87D0028D1
:1042800039D137B93F2238467F1C05F116010A544F
:1042900028E00020074606464FF008081DE005F11B
:1042A000090010F80690B9F12E0F01D14FF0100857
:1042B000B9F1410F0BDBB9F15A0F08DCE069007B63
:1042C00010EA080F03D009F120001FFA80F905F168
:1042D000160000F80790761C7F1C05F10900805D30
:1042E0000028DCD1002105F11600C155E069007BF2
:1042F00008B900206872E069C07A2872E16901F1AA
:104300001C00FEF7A9FF2860E16901F11600FEF725
:104310009DFFE880E16901F11800FEF797FFA88092
:1043200047E72DE9F34F83B00446049800680090F6
:104330002068D0F80C800020019000BF6846FEF78E
:10434000E8FF814619F1010003D1062005B0BDE860
:10435000F08FB9F5803F06D34FEA19420198411C0E
:10436000019128F810201FFA89F7202F03DB2F2F47
:1043700001D05C2F00D113E0802F06DA3946F9A076
:10438000FEF7B1FF08B10620E0E70198FF2801D34E
:104390000620DBE70198411C019128F81070CDE759
:1043A00000BF202F01DA04260CE0002602E000986E
:1043B000401C0090009800782F28F8D000980078D2
:1043C0005C28F4D00499009808600198012805D170
:1043D0000198401E38F810002E280ED001980228AF
:1043E00029D10198401E38F810002E2823D10198B9
:1043F000801E38F810002E281DD10020019928F8C1
:10440000110082460CE00198824501D22E2000E086
:104410002020C1B204F1200000F80A100AF1010ABC
:10442000BAF10B0FEFD346F0200104F1200000F8A1
:104430000A1000208AE70BE00198401E38F810703F
:10444000202F02D02E2F00D005E00198401E0190B1
:1044500001980028F0D100BF0021019828F8101021
:10446000019808B9062071E74FF0000B01E00BF14D
:10447000010B38F81B002028F9D0BBF1000F03D145
:1044800038F81B002E2801D146F0030602E00198FF
:10449000401E0190019828B10198401E38F8100084
:1044A0002E28F4D10B22202104F12000FEF7FFFE7C
:1044B0000025AA460820029000BF58460BF1010BC8
:1044C00038F8107007B96BE0202F04D02E2F05D1DB
:1044D0000198834502D046F00306EEE70298824534
:1044E00002D20198834517D102980B2802D146F0D9
:1044F000030655E00198834501D046F00306019874
:10450000834500D94CE0DDF804B04FF0080A0B20D9
:104510000290A806050ED0E7802F0EDB46F00206BB
:1045200040F2B511384602F043FA074617F0800F03
:1045300003D007F07F008E490F5CFF2F10DD02983B
:10454000401E504504D846F00306DDF808A0B4E745
:104550003A1250460AF1010A04F120010A5418E007
:1045600027B1394683A0FEF7BEFE18B15F2746F09B
:1045700003060EE0412F03DB5A2F01DC45F0020554
:10458000612F06DB7A2F04DC45F00105A7F120003E
:1045900087B250460AF1010A04F120010F548CE75A
:1045A00000BF94F82000E52802D1052084F82000FF
:1045B0000298082801D1A806050E05F00C000C2869
:1045C00003D005F00300032801D146F0020616F0DF
:1045D000020F09D115F0010F01D046F0100615F0B9
:1045E000040F01D046F008062B2006550020ADE64A
:1045F0002DE9F34104462768019800782F2806D05A
:10460000019800785C2802D0B869A0600DE002E053
:104610000198401C0190019800782F28F8D001984B
:1046200000785C28F4D00020A06001980078202851
:1046300008D280212B20015500212046FFF795F953
:10464000054637E000BF01A92046FFF76AFE054690
:1046500005B12EE02046FFF74DFC05462B20065DF8
:1046600095B1042D0FD116F0200F08D016F0040FCD
:1046700000D1E8E780212B200155002503E016F04A
:10468000040F00D1052514E016F0040F00D010E04F
:10469000A07910F0100F01D105250AE02069C0F3C0
:1046A000080207F1380011183846FFF746FAA060F3
:1046B000C9E700BF2846BDE8FC8170B501464FF050
:1046C000FF300E683246334602B970BD00BF13F8A2
:1046D000014B202C01D33A2CF9D13A2C11D10225CF
:1046E0001678302E08DB1678392E05DC961C9E4293
:1046F00002D11678A6F13005022D01DA28460B60AA
:10470000E3E71E4E3078E0E770B504460D46002022
:10471000E070401E606329462046FEF766FE08B141
:10472000042070BD04F23620FEF790FDA0F52A416A
:10473000553901D00320F4E700BF94F83800E92888
:1047400007D094F83800EB2803D094F83800E82814
:1047500021D103220AA104F16E00FEF7B2FD88B94F
:104760000020DEE7222A3A3C3E3F7C7F000000002A
:10477000457300082B2C3B3D5B5D00008E00002044
:10478000464154000522FCA104F18A00FEF799FD80
:1047900008B90020C5E70220C3E72DE9FF41044620
:1047A0000D4600212046FFF7AFFF0646022E06D039
:1047B000032E00D21DB9304604B0BDE8F08100BF21
:1047C00000270AE004F5FB7101EB071101F1080075
:1047D000FEF742FD4DF827007F1C042FF2D30DB1E8
:1047E000681E00E00020074600BF5DF8270028B1E2
:1047F0005DF827102046FFF787FF00E003200646FC
:104800002DB9022E03D3781C07460428EDD3304679
:10481000D2E72DE9F74F86B00C4615460020206000
:104820000698FFF74AFF0646002E03DA0B2009B070
:10483000BDE8F08FD24850F826000290029808B9DF
:104840000C20F4E70298206005F0FE05029800783D
:1048500078B102994878FEF757FC074617F0010F28
:1048600007D125B117F0040F01D00A20DFE700209F
:10487000DDE700200299087002994E70029948788D
:10488000FEF745FC074617F0010F01D00320CEE7E5
:1048900025B117F0040F01D00A20C8E700210298C3
:1048A000FFF77BFF01900198042801D10120BEE7AA
:1048B0000198022801D30D20B9E70298D0F834807E
:1048C00002984330FEF7C2FCB0F5007F01D00D2006
:1048D000ADE702984E30FEF7B9FC8346BBF1000FFE
:1048E00004D102985C30FEF7B7FC83460298C0F80A
:1048F00020B0029890F84800029988700298807859
:10490000012805D002988078022801D00D208EE77A
:10491000029880780BFB00FB029890F845104181CB
:104920000298408930B10298408902994989491E0C
:10493000084201D00D207AE702984930FEF786FC44
:10494000029908810298008910F00F0F01D00D2004
:104950006DE702984B30FEF779FC8146B9F1000F04
:1049600004D102985830FEF777FC81460298463011
:10497000FEF76CFC0390039808B90D2057E70398E5
:1049800058440299098900EB111AD14501D20D2032
:104990004DE7A9EB0A0002994989B0FBF1F00590B7
:1049A000059808B90D2042E7002001907549059847
:1049B000884201D8032001904FF6F571059888428E
:1049C00001D80220019040F6F5710598884201D87F
:1049D00001200190019808B90D2028E70598801C56
:1049E0000299C8610298C0F8248003984044029953
:1049F000886208EB0A00029908630198032816D11F
:104A000002986230FEF722FC08B10D200FE70298F1
:104A1000008908B10D200AE702986430FEF71CFCFB
:104A20000299C8620298C069800004901BE0029855
:104A3000008908B90D20FAE60298806A5844029964
:104A4000C8620198022803D10298C069400009E0B9
:104A50000298C06900F001000299C96901EB4101A7
:104A600000EB510004900298016A049800F2FF10D4
:104A7000B1EB502F01D20D20D9E64FF0FF30029953
:104A80004861029908618021029801710198032808
:104A900034D102986830FEF7D9FB01282ED108F1F5
:104AA00001010298FEF7A1FC40BB002102980171B0
:104AB000029800F23620FEF7C9FBA0F52A415539CD
:104AC0001CD102983830FEF7C7FB2F49884215D118
:104AD000029800F50770FEF7BFFB2C4988420DD104
:104AE000029800F50870FEF7B7FB0299486102983A
:104AF00000F50970FEF7B0FB02990861DDE90101DC
:104B000008701F4808300088401C80B21C490831DA
:104B100008800299C88000200299886187E670B5F4
:104B200004460D4609268CB1206878B120680078CB
:104B300060B1A0882168C988884207D12168487877
:104B4000FEF7E2FA10F0010F00D100260EB920683E
:104B500000E000202860304670BDF7B582B01446F2
:104B60000398019001A8FFF7A8FD0646002E0FDA72
:104B70000B2005B0F0BD0000464154333200000068
:104B800084000020F5FFFF0F5252614172724161B3
:104B9000FC4850F826500DB100202870029810B142
:104BA000002002990870F749029841F826000CB9D4
:104BB0000020DEE7002202A903A8FFF72AFE07462D
:104BC0003846D6E72DE9F74FADF50E7D044615467C
:104BD00024B909200DF5117DBDE8F08F05F03F05E2
:104BE0002A4681A98FA8FFF714FE0646002E7ED123
:104BF0008198829001A88199C86082A88F99FFF757
:104C0000F7FC06462EB99DF8330210F0800F00D055
:104C1000062615F01C0F4CD046B1042E03D182A8F5
:104C2000FFF7EBF9064645F008050AE09DF80E028D
:104C300010F0110F01D0072603E015F0040F00D08B
:104C40000826002E46D115F0080F43D08999819887
:104C5000FEF773FF0746FEF755FA0090899901F1B8
:104C60000E000099FEF70AFB20208999C8720022E5
:104C700089998198FEF774FF899901F11C00002140
:104C8000FEF7FCFA01208199C8701FB38198D0F813
:104C900034A00022394682A8FEF725FD0646CEB98B
:104CA00051468198FEF7A1FB0646781E819908615E
:104CB00010E07EB99DF80E0210F0100F01D004260E
:104CC00008E015F0020F05D09DF80E0210F0010F5C
:104CD00000D007264EB915F0080F01D045F0400569
:104CE0008198406B206289986062002E00E051E05C
:104CF0005ED189998198FEF720FFA060899901F122
:104D00001C00FEF7A9FAE0600020A06281982060F4
:104D10008198C088A080257400206074E061606183
:104D20004FF40072002104F12C00FEF7C0FA15F0D8
:104D3000200F3DD0E06800283AD0E068606181989B
:104D400040894FEA4028D4F80890D4F80CB00EE01F
:104D500049462046FEF7B3FB8146B9F1010F00D862
:104D6000022619F1010000D10126ABEB080B0EB9A8
:104D7000C345EDD8C4F8189066B9CBF308000028F5
:104D800016D049468198FEF78DFB8246BAF1000F96
:104D900001D102260CE00AEB5B20E061E269819917
:104DA0004878012304F12C01FEF7C1F900B1012676
:104DB0000EB10020206030460CE72DE9F04F85B0A1
:104DC00004460D4616461F46AB460020386004A92F
:104DD0002046FFF7A4FE8046B8F1000F03D1607CA7
:104DE0005FEA000803D0404605B0BDE8F08F207CA4
:104DF00010F0010F01D10720F6E76169E068401A61
:104E000003900398864200D9039EB5E06069C0050F
:104E1000C00D6AD104984089401E616900EA5120A2
:104E200000900098F8B9606910B9D4F808900CE0C7
:104E3000A06A28B120466169FEF74DFD814604E075
:104E40002046A169FEF73BFB8146B9F1020F02D271
:104E500002206074C8E719F1010002D101206074DA
:104E6000C2E7C4F81890A1690498FEF71BFB8246BC
:104E7000BAF1000F02D102206074B5E700988244B5
:104E8000700A0190019878B3DDE9000108440499A3
:104E90004989884204D9049840890099401A0190B0
:104EA0000499487852465946019BFEF740F910B1E3
:104EB0000120607498E7207C10F0800F10D0E0692A
:104EC000A0EB0A01019881420AD2E169A1EB0A0133
:104ED0000BEB41204FF4007204F12C01FEF7DAF9DC
:104EE0000198400202903BE000E024E0E069504578
:104EF0001FD0207C10F0800F0FD0E2690499487811
:104F0000012304F12C01FEF73EF910B10120607479
:104F10006AE7207C00F07F00207404994878012320
:104F2000524604F12C01FEF702F910B10120607421
:104F30005AE7C4F81CA06069C0F30800C0F500700F
:104F400002900298B04200D902966069C0F308024C
:104F500004F12C0011185846029AFEF79BF900BF85
:104F60000298361A396802980844386002988344D7
:104F70006169029808446061002E7FF447AF002009
:104F800032E70000840000202DE9FF4F83B0044683
:104F900015461E46049800900020306001A9204666
:104FA000FFF7BDFD0290029810B9607C029018B125
:104FB000029807B0BDE8F08F207C10F0020F01D1FD
:104FC0000720F6E700BF606928446169884202D281
:104FD0006069C0F1FF35C7E06069C005C00D7DD1D3
:104FE00001984089401E616900EA512BBBF1000F16
:104FF00026D1606938B9A76897B900212046FEF725
:10500000C6FB07460CE0A06A28B120466169FEF79E
:1050100062FC074604E02046A169FEF7B8FB07469C
:1050200007B9A4E0012F02D102206074C1E7781C07
:1050300002D101206074BCE7A761A06800B9A76035
:10504000207C10F0800F0FD0E2690199487801238D
:1050500004F12C01FEF797F810B101206074A8E765
:10506000207C00F07F002074A1690198FEF71AFAF5
:105070008046B8F1000F02D10220607499E7D8444D
:105080004FEA552ABAF1000F2FD00BEB0A00019915
:105090004989884203D901984089A0EB0B0A0199FC
:1050A0004878534642460099FEF76DF810B101204A
:1050B00060747EE7E069A0EB0800504512D2E06919
:1050C000A0EB08000246009800EB42214FF400726A
:1050D00004F12C00FEF7DEF8207C00E01AE000F07E
:1050E0007F0020744FEA4A292BE0E06940450FD049
:1050F000E168606988420BD20199487801234246F1
:1051000004F12C01FEF713F810B10120607450E790
:10511000C4F81C806069C0F30800C0F50079A94597
:1051200000D9A9466169C1F3080204F12C015018A5
:105130004A460099FEF7AEF8207C40F080002074CB
:1051400000BFA5EB0905306848443060009848442A
:105150000090606948446061E1686069884201D9F3
:10516000606900E0E068E060002D7FF435AF00BFCB
:10517000207C40F04000207400201AE7F8B5044677
:1051800069462046FFF7CBFC0546002D43D1207C25
:1051900010F0400F3FD0207C10F0800F0ED0E2695D
:1051A00000994878012304F12C01FDF7ECFF08B1C8
:1051B0000120F8BD207C00F07F002074FDF7A2FFE5
:1051C0000746216A0098FEF710F905461DBB666A7E
:1051D000F07A40F02001F1723146A2682068FEF7B3
:1051E000BFFC06F11C00E168FEF748F8394606F1FD
:1051F0001600FEF743F8002106F11200FEF738F81A
:1052000001200099C8700098FEF709F90546207C36
:1052100000F0BF0020742846CBE738B5044620468E
:10522000FFF7ACFF05463DB969462046FFF777FC1E
:1052300005460DB900202060284638BD31B56846C6
:10524000FFF73BFA0446002C01DA0B2038BDFB497E
:105250000C700020FAE711B5ADF50D7D002280A994
:105260008DA8FFF7D6FA04461CBB809881908099E0
:10527000C1F80CD081A88D99FFF7BAF90446ACB9F2
:105280009DF82F0210F0800F03D0809983988861D9
:105290000CE09DF80A0210F0100F06D08899809853
:1052A000FEF74BFC8099886100E00524042C00D1B6
:1052B000052420460DF50E7D10BD2DE9F04F89B077
:1052C00004460D4608A92046FFF729FC064606B904
:1052D000667C1EB1304609B0BDE8F08FA06A002898
:1052E0007DD0681C52D1A06A029002980068049098
:1052F0000298001D029002200390D4F808B0BBF180
:10530000000F36D000BFCDF814B0002006900398EF
:10531000801C039000BFCDF81CB00698401C06907E
:1053200059462046FEF7CBF88346BBF1010F02D861
:1053300002206074CFE71BF1010002D101206074EC
:10534000C9E70798401C8345E5D0DDE90310814299
:105350000BD80699029801600298001D02900599E9
:10536000029801600298001D02900898C069584593
:10537000C9D80398A16A0860DDE90310814203D807
:10538000002102980160FCE01126FAE0E068A842E2
:1053900000D2E5686561002DF5D0691E2046FEF754
:1053A0009AFAA061A1690898FEF77CF8019001982B
:1053B00010B9022060748EE708984089401E691E6B
:1053C00000EA51210198084401906069C005C00DB0
:1053D000D9D0E16901988142D5D0207C00E021E05C
:1053E00010F0800F0FD0E26908994878012304F18A
:1053F0002C01FDF7C8FE10B1012060746BE7207C22
:1054000000F07F00207408994878012304F12C01F2
:10541000019AFDF78CFE10B1012060745BE70198E2
:10542000E061AEE0E068A84204D2207C10F0020FF8
:1054300000D1E568D4F814A04FF00009C4F8149026
:10544000002D6BD0089840894FEA4028BAF1000F30
:1054500012D0681EB0FBF8F0AAF10101B1FBF8F11F
:10546000884209D3AAF10100A8F1010188436061D3
:1054700060692D1AA76912E0A7687FB9002120464C
:10548000FEF785F90746012F02D10220607422E75A
:10549000781C02D1012060741DE7A760A761002F6E
:1054A0003CD025E0A5EB0805606940446061207CA4
:1054B00010F0020F08D000BF39462046FEF767F90A
:1054C000074637B9002515E039462046FDF7F7FFB6
:1054D0000746781C02D101206074FCE6012F03D935
:1054E0000898C069B84202D802206074F3E6A76148
:1054F0004545D7D800BF606928446061E805C00D04
:105500000CD039460898FDF7CDFF8146B9F1000F60
:1055100002D102206074DEE609EB5529E16860697A
:10552000884205D96069E060207C40F0400020742A
:105530006069C005C00D24D0E069484521D0207CB9
:1055400010F0800F0FD0E26908994878012304F128
:105550002C01FDF718FE10B101206074BBE6207C21
:1055600000F07F0020740899487801234A4604F12E
:105570002C01FDF7DCFD10B101206074ABE6C4F82E
:105580001C903046A7E633B5ADF5017D05461DB943
:1055900009200DF5037D30BD002280A982A8FFF708
:1055A00038F9044634BB809828608099C1F80CD043
:1055B00028468299FFF71CF80446C4B92B20405DA9
:1055C00010F0800F0AD1A87910F0100F05D0E9690A
:1055D0008098FEF7B2FAA86000E005243CB98098F4
:1055E000C088A88000212846FEF7BFF90446042C95
:1055F00000D105240CB1002028602046C9E738B549
:10560000044669462046FFF78AFA05460DB9002090
:105610002060284638BD70B5ADF5027D04460D46C4
:1056200081A92046FFF77BFA06460EBB45B900214B
:105630002046FEF79AF906461AE000008E00002088
:1056400001A88199C86000212046FEF7E5FB0646C7
:10565000042E00D100265EB929462046FEF79FFDA4
:1056600000212046FEF7D3F90646042E00D100267D
:1056700030460DF5027D70BD33B5ADF50D7D0C46A0
:10568000002281A98DA8FFF7C4F80546A5B901A895
:105690008199C86081A88D99FEF7AAFF05465DB97A
:1056A0009DF82F0210F0800F01D0062504E01CB1F8
:1056B000214681A8FEF773FD28460DF50F7D30BD0C
:1056C0002DE9F74F86B00C461546002205A906A81D
:1056D000FFF79FF80646002E72D1059828600598BE
:1056E00040690599C969891E884203D805984069AF
:1056F000206065E000270598007801281FD14FF051
:1057000002080598019000BF414601A8FDF7D7FEA9
:10571000814619F1010001D101260FE0B9F1010F15
:1057200001D102260AE0B9F1000F00D17F1C08F177
:10573000010080460599C9698842E5D337E005989C
:10574000D0F81C800598D0F828A04FF0000B00BFBF
:10575000BBF1000F08D151460AF1010A0598FDF787
:1057600044FE064606B121E00598007802280AD1D9
:105770000599383101EB0B00FDF768FD00B97F1C7E
:105780000BF1020B0BE00599383101EB0B00FDF733
:1057900063FD30F0704000D17F1C0BF1040BCBF3A4
:1057A000080BA8F101005FEA0008D1D100BF276013
:1057B000059847610598007940F001000599087146
:1057C000304609B0BDE8F08FF8B505466946284671
:1057D000FFF7A5F9064616B9687C060001D03046E9
:1057E000F8BD287C10F0020F01D10720F8E7E96826
:1057F000686988423FD2686940B900222846A96892
:10580000FDF771FF06460020A86016E02846A9694A
:10581000FDF755FE04460026601C00D10126012C30
:1058200000D102264EB90098C069A04205D9214690
:105830002846AA69FDF757FF06466869E860287C94
:1058400040F04000287496B9287C10F0800F0ED0EC
:10585000EA6900994878012305F12C01FDF793FCD2
:1058600008B1012603E0287C00F07F00287416B1FF
:105870006E743046B4E73046B2E731B5ADF51A7D07
:105880000025022281A99AA8FEF7C3FF0446002C36
:1058900055D181988E9001A88199C8608EA89A9957
:1058A000FEF7A6FE04462CB99DF8630210F0200F07
:1058B00000D00624002C42D19DF8630210F0800F26
:1058C00001D0062405E09DF83E0210F0010F00D043
:1058D000072414BB95998198FEF72FF905469DF88A
:1058E0003E0210F0100F18D081988069A84201D1B3
:1058F000072412E0819882908495002182A8FEF707
:1059000034F804464CB9002182A8FEF785FA044613
:1059100004B90724042C00D1002484B98EA8FEF712
:105920000FFC044634B92DB1002229468EA8FDF79C
:10593000DAFE04461CB98198FDF771FD0446204645
:105940000DF51B7D30BDF1B5ADF5127D022281A9AB
:1059500092A8FEF75EFF0446002C7FD181988690C6
:1059600001A88199C86086A89299FEF741FE044675
:1059700004B90824042C05D19DF8430210F0200F2F
:1059800000D00624042C69D181988290002182A83D
:10599000FDF7FDFE0546002405B90724012D00D1C1
:1059A0000224681C00D10124FDF7ACFB0746002C43
:1059B00037D129468198FDF7A6FF04468CBB0B2200
:1059C000202181983830FDF772FC2E20819981F8D2
:1059D00038001021819880F84310394681984E3064
:1059E000FDF74CFC2A46819938318198FEF7B8F8CA
:1059F00020228199383181985830FDF74BFC2E21B7
:105A0000819880F85910889E324681995831819842
:105A1000FEF7A6F801208199C87086A8FEF7EDFA76
:105A20000446B4B98D9901F116003946FDF726FCFC
:105A30002A468D998198FEF793F810208D99C872A7
:105A400001208199C8701CB98198FDF7E8FC0446D3
:105A500004E00022294682A8FDF745FE20460DF508
:105A6000137DF0BDF3B5ADF5217DA2A8FEF725FEAF
:105A7000022288A9A1A8FEF7CCFE0446002C7DD105
:105A8000889895908899C1F80CD095A8A199FEF7AF
:105A9000AFFD04462CB99DF87F0210F0A00F00D096
:105AA0000624002C6ED1202280A89C99FDF7F2FBE1
:105AB000302295A989A8FDF7EDFB89A8A299FEF7E8
:105AC00097FD04465CB997998B98884205D19999BE
:105AD0008D98884201D1042000E00820C4B2042C33
:105AE00044D189A8FEF789FA0446002C3ED1909D46
:105AF00013220DF20D2105F10D00FDF7CBFB9DF8F2
:105B00000B02E872E87A10F0100F03D1E87A40F047
:105B10002000E87201208899C870E87A10F0100F10
:105B200024D08B999798884220D029468898FEF7F0
:105B300004F8074601468898FDF7B4FC06460EB9FE
:105B4000022413E031468898FDF74FFC04468898FC
:105B500000F1580554B968782E2807D129468B9A48
:105B60008898FDF7FDFF01208899C87034B995A881
:105B7000FEF7E6FA04460CB9889800E002E0FDF76B
:105B80004EFC044620460DF5237DF0BD2DE9F7437C
:105B90008EB00C461546002201A90EA8FEF739FE6C
:105BA0000646002E34D1002C32D0019802900020FD
:105BB0000490002102A8FDF7D8FE06461EBB012175
:105BC00002A8FEF729F90646EEB90027B94609E012
:105BD00038467F1C099A12F80080484609F10109ED
:105BE00004F800800B2FF3D300BF002004F8090055
:105BF000B9F1000F00D105E0A9F101008146205C58
:105C00002028F2D000BF042E02D1002020700026F0
:105C1000EEB9E5B10198416AFDF7E7FB0646B6B972
:105C200001980078032804D0042805D14FF06409B6
:105C300005E04FF0430902E04FF0270900BF00BF25
:105C40000199383101EB0900FDF706FB2860304669
:105C500011B0BDE8F0832DE9F14193B0022206A90D
:105C600013A8FEF7D6FD05461DB1284614B0BDE8C1
:105C7000F0810B2220216846FDF719FB00262CE05D
:105C800013A8FDF746FB0446B4F5803F08D2204632
:105C900000F0BEFE804640F2B51100F089FE00E043
:105CA000002087B25FB13946FD48FDF71CFB30B9D3
:105CB000FF2F01DD0A2000E00B20B04201D80620B2
:105CC000D4E7FF2F04DD39123046761C0DF80010A2
:105CD000FAB23046761C0DF8002013980078202880
:105CE000CED29DF80000E52801D10620BEE700E0F5
:105CF000761E26B1701E1DF800002028F8D00698E8
:105D0000079000200990002107A8FDF72EFE054608
:105D1000002D37D1012107A8FEF77EF8054695B979
:105D200000BF2EB10B2269460E98FDF7B3FA02E0D0
:105D3000E5200E99087001200699C8700698FDF7B5
:105D40006EFB05461EE0042D1CD10025D6B10121B5
:105D500007A8FDF7C2FE0546A5B9202200210E982E
:105D6000FDF7A5FA00BF08200E99C8720B226946FC
:105D70000E98FDF78FFA01200699C8700698FDF776
:105D80004EFB0546284671E72DE9FF4F85B00C46CE
:105D90001D4604AA01210598FDF720FA18B101203B
:105DA00009B0BDE8F08F049803903F2000900820D0
:105DB000029003E002984006000E0290029848B15B
:105DC000DDE90210B0FBF1F00099B0FBF1F0B0F5A5
:105DD000806FEFD8029808B9FF2002904FF400724C
:105DE00000212846FDF763FA05F5DF7A0026DDF885
:105DF00000807FE054F82690B9F1640F0BD8B9F118
:105E0000640F01D1039805E064210398B0FBF1F021
:105E100000FB09F0814608EB09010398814202D892
:105E200018EB090002D30398A0EB0809B9F1000FA1
:105E300000D168E041460AF10800FDF71FFA494623
:105E40000AF10C00FDF71AFA07988AF80400009886
:105E5000B8FBF0F10298B1FBF0F70098B8FBF0F155
:105E6000029AB1FBF2F002FB101000F0FF0B009859
:105E7000B8FBF0F100FB1180401CC0B201908AF821
:105E800001B0C02000EA9700019908438AF8020097
:105E90008AF8037008EB0900401E0099B0FBF1F08E
:105EA0000299B0FBF1F708EB0900401E0099B0FB26
:105EB000F1F00299B0FBF1F201FB120000F0FF0BD0
:105EC00008EB0900401E0099B0FBF1F201FB120043
:105ED000401CC0B201908AF805B0C02000EA9700CB
:105EE000019908438AF806008AF807700AF1100A37
:105EF000761CC844042E06D2B8F1000F03D00398D4
:105F00008045FFF477AF00BF4AF6552105F5FF70D5
:105F1000FDF7AEF90123002229460598FDF733F974
:105F200008B101203CE700203AE72DE9FF4F99B086
:105F30000C4619A8FEF7C1FB04900498002803DA68
:105F40000B201DB0BDE8F08F5648049950F8210091
:105F500028B100205349049A51F82210087004987F
:105F6000C0B21790002016900CB94D4C2F341798E2
:105F7000FDF7CDF80390039810F0010F01D0032036
:105F8000DFE7039810F0040F01D00A20D9E760681A
:105F90001490149838B914AA03211798FDF71EF924
:105FA00008B101201490149840B11498B0F5004F36
:105FB00004D81498401E1499084201D0012014906E
:105FC0004FF40078207800F00F056078012804DB9A
:105FD0006078022801DC607800E001200790A16869
:105FE00089B1A168B1F5004F0DD840464FEAE8717C
:105FF00008EBD1614911A268B2FBF1F301FB132157
:1060000009B9A16801E04FF400710691E068B0F1B0
:10601000807F05D8E068411E084201D1E06800E0B9
:10602000002008900898B0FBF8F008901C98B0FB8E
:10603000F8F01590159808B9112082E71B9F0FB949
:1060400011207EE74FF0000BCDF844B000BF11AA3D
:1060500001211798FDF7C2F808B1012071E715F08A
:10606000080F08D111983F2805D94FF03F0B119820
:10607000A0EB0B0011901198802801D20E2060E750
:1060800000BF00BF0898802801D98020089015F033
:10609000020F09D015F0010F06D103260BE0000016
:1060A000C57300088400002015F0010F01D11320F2
:1060B00047E7022600BF00BF00BF08981390032ED9
:1060C00033D11398C0B911984FEA504A0020059077
:1060D0000120139005E00598401C0590139840009E
:1060E0001390F848059930F8110028B1F549059842
:1060F00031F810005045EED913991198B0FBF1F921
:10610000082101EB89004044401EB0FBF8F00A90E2
:1061100020200B90002009904FF6F570814502D9A0
:10612000E94881453DD90E200BE71398C8B911986D
:106130004FEA103A002005900120139005E00598E1
:10614000401C0590139840001390DE490E390598C5
:1061500031F8100028B10846059930F81100504573
:10616000EDD913991198B0FBF1F940F6F57081451E
:1061700003D9042101EB490A06E0012609EB490095
:10618000401C032101EB500A0AEB0800401EB0FB43
:10619000F8F00A9001200B9006984001B0FBF8F04F
:1061A00009900B9858441090079A0A99109801FB8F
:1061B0000200099908440F9014990F980844411E51
:1061C0001498401E81430F98A1EB000A032E06D1BC
:1061D0000B9850440B9010985044109013E007987F
:1061E000BAFBF0F100FB11A038B1AAF1010A0B983B
:1061F000401C0B901098401C10900798BAFBF0F0D0
:106200000A9908440A900F99139801EB0010A0EB2B
:106210000B001199884201D90E2092E60B99119832
:10622000401A079A0A9901FB12000999411A13981A
:10623000B1FBF0F9032E0CD14FF6F570814508D86B
:10624000089820B913984008089000D038E00E2034
:1062500077E6022E2BD14FF6F570814519D90898B3
:1062600040B940211398B1EB400F03D3139840007D
:10627000089025E015F0020F01D0032620E00898D1
:1062800028B9139840000890802800D818E00E2004
:1062900057E640F6F570814509D8089828B9139853
:1062A00040000890802800D80AE00E2049E6012E20
:1062B00005D140F6F570814501D90E2041E600E098
:1062C000FBE600BF424600213846FCF7F0FF0B22F8
:1062D0007EA13846FCF7DEFF414607F10B00FCF7D4
:1062E000C7FF139878730B9881B207F10E00FCF783
:1062F000BFFF07983874032E01D1002000E00698F4
:1063000081B207F11100FCF7B3FF1198B0F5803F9F
:1063100006D2119881B207F11300FCF7A9FF04E03F
:1063200007F120001199FCF7A9FFF82078753F21AB
:1063300007F11800FCF79CFFFF2107F11A00FCF79A
:1063400097FF594607F11C00FCF798FF032E28D150
:10635000FCF7D8FE0146019007F14300FCF78EFFE1
:1063600007F124000A99FCF789FF022107F12C00AC
:10637000FCF784FF012107F13000FCF779FF0621CB
:1063800007F13200FCF774FF802087F840002920D5
:1063900087F84200132250A107F14700FCF77AFF6B
:1063A00019E0FCF7AFFE0146019007F12700FCF76A
:1063B00065FF0A9881B207F11600FCF759FF8020AB
:1063C00087F82400292087F82600132247A107F127
:1063D0002B00FCF75FFF4AF6552107F5FF70FCF72D
:1063E00047FF01235A4639461798FCF7CCFE08B1FF
:1063F0000120A6E5032E33D101230BF10602394615
:106400001798FCF7C0FE424600213846FCF74FFFC4
:106410003B493846FCF732FF3A4907F5F270FCF782
:106420002DFFA9F1010107F5F470FCF727FF022108
:1064300007F5F670FCF722FF4AF6552107F5FF70C5
:10644000FCF716FF01230BF1070239461798FCF7FA
:106450009AFE01230BF1010239461798FCF793FECF
:10646000159800FB08F200213846FCF720FF109831
:106470000E900020059066E0032E0FD16FF007010B
:106480003846FCF7FBFE311F381DFCF7F7FE6FF0B6
:10649000704107F10800FCF7F1FE09E0012E01D17F
:1064A000194801E06FF0070001463846FCF7E6FEA8
:1064B0000A98129000BF15991298884226D915980B
:1064C00025E00000E6730008F5FFFF0FEBFE904D9E
:1064D00053444F53352E30004E4F204E414D4520F2
:1064E0002020204641543332202020004E4F204EA1
:1064F000414D4520202020464154202020202000CE
:106500005252614172724161F8FFFF001298824657
:10651000534639460E9A1798FCF735FE08B101200C
:106520000FE5424600213846FCF7C1FE0E98504464
:106530000E901298A0EB0A00129012980028BAD17F
:106540000598401C059005990798814294D3032E25
:1065500001D1139800E00998129000BF1599129884
:10656000884201D9159800E0129882465346394670
:106570000E9A1798FCF707FE08B10120E1E40E9887
:1065800050440E901298A0EB0A0012901298002826
:10659000E4D100BF032E02D10C2018900DE0119819
:1065A000B0F5803F02D30620189006E0022E01D1FC
:1065B000042000E00120C0B2189000BF15F0080FC1
:1065C0000ED111980C9000200D903B460CA9DDE9EE
:1065D0001702FFF7D9FB0290029808B10298B0E4C5
:1065E000002211461798FCF7F9FD08B10120A8E434
:1065F0000020A6E42DE9FC4704460D4616464FF060
:10660000000827466D1E15E06B46012201A93046A1
:10661000FEF7D3FB0098012800D00DE09DF8049010
:1066200000BF07F8019B08F10108B9F10A0F00D17A
:1066300002E000BFA845E7DB00BF00203870B8F1DA
:10664000000F02D02046BDE8FC870020FBE7F8B52C
:1066500004460D4600BF6668002E00DAF8BDA76844
:106660003046761C04F10C010D543C2E0CDB6B46BD
:1066700032462068FEF788FC0098B04201D1002025
:1066800001E04FF0FF3006466660781CA060E5E749
:1066900038B50446606800280DDB6B4604F10C0138
:1066A000D4E90002FEF770FC28B9606800998842BE
:1066B00001D1A06838BD4FF0FF30FBE770B505464B
:1066C0000C464C2200212846FCF7F1FD2C6070BDE1
:1066D00030B593B004460D4629466846FFF7EEFFF5
:1066E00021466846FFF7B3FF6846FFF7D1FF13B0B6
:1066F00030BD30B593B004460D4629466846FFF7D5
:10670000DDFF04E014F8011B6846FFF7A0FF2078C6
:106710000028F7D16846FFF7BBFF13B030BD0FB4B8
:106720002DE9F04F9DB009A82699FFF7C7FF28A8CB
:106730001C9000BF279810F8019B2790B9F1000F1B
:1067400000D12CE1B9F1250F04D0494609A8FFF783
:106750007EFFEFE7002004460746279810F8019BCC
:106760002790B9F1300F05D10124279810F8019B2B
:10677000279007E0B9F12D0F04D10224279810F8D3
:10678000019B2790B9F12A0F07D11C9880C81C9053
:10679000279810F8019B279010E009E007EB87008D
:1067A00009EB4000A0F13007279810F8019B2790D3
:1067B000B9F1300F02DBB9F1390FEFDDB9F16C0F30
:1067C00002D0B9F14C0F05D144F00404279810F819
:1067D000019B2790B9F1000F00D1E0E0CA46D146F5
:1067E000BAF1610F06DBBAF17A0F03DCAAF12000DF
:1067F00000F0FF0ABAF14F0F49D009DCBAF1420F9D
:1068000043D0BAF1430F38D0BAF1440F46D140E03B
:10681000BAF1530F06D0BAF1550F3BD0BAF1580F69
:106820003CD139E01C9850F804BB1C90002600E0D5
:10683000761C1BF806000028FAD114F0020F08D1CC
:1068400003E0202109A8FFF702FF3046761CB8427A
:10685000F7D304E01BF8011B09A8FFF7F8FE9BF82B
:1068600000000028F6D103E0202109A8FFF7EFFE81
:106870003046761CB842F7D35CE71C9804C8D1B206
:106880001C9009A8FFF7E3FE54E702250BE008255A
:1068900009E000BF0A2506E0102504E0494609A8E2
:1068A000FFF7D5FE46E700BF14F0040F05D01C9893
:1068B00000681C99091D1C910DE0BAF1440F05D127
:1068C0001C9800681C99091D1C9104E01C98006824
:1068D0001C99091D1C918046BAF1440F06D118F08D
:1068E000004F03D0C8F1000844F0080400200890CD
:1068F00000BFB8FBF5F005FB108000F0FF0AB8FB05
:10690000F5F8BAF1090F08DDB9F1780F01D12720A8
:1069100000E00720504400F0FF0A0AF13000C2B244
:106920000898411C08910DF80020B8F1000F02D022
:1069300008982028DDD314F0080F05D02D220898E0
:10694000411C08910DF80020089E14F0010F01D0A1
:10695000302000E0202000F0FF0A14F0020F08D1E0
:1069600003E0514609A8FFF772FE3046761CB84294
:10697000F7D300BF0898401E08901DF8001009A822
:10698000FFF765FE08980028F4D103E0514609A8F6
:10699000FFF75DFE3046761CB842F7D3CAE600BF6B
:1069A00009A8FFF775FE1DB0BDE8F00F5DF814FBF8
:1069B00010B502460020404B802A01D290B213E06D
:1069C000B2F5803F10D240F2B514A1420CD10020A4
:1069D00001E0441CA0B2802803DA33F8104094424E
:1069E000F7D100F18004E0B210BD10B502460020DE
:1069F000314B802A01DA104609E040F2B514A14279
:106A000005D1FF2A03DCA2F1800433F8140010BD85
:106A100070B5B0F5803F4DD281B2B1F5805F01DA3B
:106A2000264E00E0264E324600BF32F8023B0BB144
:106A3000994200DA3CE032F8024B2512E4B21E190A
:106A40008E4230DD092D2CD2DFE805F005090F1349
:106A5000171B1F232700CE1A32F8161021E0CE1A7A
:106A600006F001068E1BB1B21BE0A1F11006B1B217
:106A700017E0A1F12006B1B213E0A1F13006B1B2E6
:106A80000FE0A1F11A06B1B20BE001F10806B1B2B4
:106A900007E0A1F15006B1B203E0A1F5E356B1B2AF
:106AA00000BF00BF04E0002DBFD102EB4402BCE7F1
:106AB00000BF084670BD000004740008047500089B
:106AC000F6760008704700000FB4054A054910B576
:106AD00003AB7944029800F0DCF810BC5DF814FBBD
:106AE0003000002025B7FFFF2DE9F04104460E4697
:106AF00000202BE0E1682046884748B3252802D0D3
:106B0000D4E901211FE0E1682046002788470500FD
:106B10001ED0A5F14100192802D820354FF4006796
:106B20003246294620462760F9F71AFB40B1012872
:106B300001D1361DDEE7F61D26F007060836D9E737
:106B4000D4E9012128469047206A401C2062D1E701
:106B5000206ABDE8F08100002DE9F0418046002662
:106B600010687529414615A512D0AFF300800028A2
:106B700003DAC0F1000012A508E0D8F800108A0777
:106B800001D510A502E0490704D50FA5012601E0B3
:106B9000AFF30080002408F1240704E000F08CF833
:106BA00030313955641C0028F8D133462A46214635
:106BB0004046BDE8F04100F00DB8000000000000C4
:106BC0002D0000002B0000002000000070477047DF
:106BD000704770472DE9F0470D46044692469946A6
:106BE00000F124080168880604D5E06921F010014D
:106BF000216000E001200027A84201DDA0EB05078D
:106C0000A16907EB050202EB0900A1EB0000A061FE
:106C10002068C00602D42046AFF30080002608E0BA
:106C2000D4E901211AF806009047206A401C761C1E
:106C300020624E45F4DB2068C0060AD52046AFF33B
:106C4000008006E0D4E9012130209047206A401CF2
:106C50002062381EA7F10107F4DC07E0D4E9012126
:106C600018F805009047206A401C2062281EA5F1F4
:106C70000105F3DC2046AFF30080216802200906FD
:106C800000D40120BDE8F08701694A1C0261087840
:106C9000704710B50C46194690B0CDE9024200226B
:106CA0000692044A7A44CDE9042001A8FFF71CFFAC
:106CB00010B010BDE1FFFFFF4FF00A01B0FBF1F291
:106CC00002FB110110467047754600F029F8AE46E8
:106CD00005006946534620F00700854618B020B5E8
:106CE000F9F70CFCBDE820404FF000064FF000071C
:106CF0004FF000084FF0000B21F00701AC46ACE864
:106D0000C009ACE8C009ACE8C009ACE8C0098D46D0
:106D100070470446AFF300802046F9F735FA0000CB
:106D2000004870472C16002001487047704700004B
:106D30003016002010B5FFF7F7FF4FF0000101609B
:106D400010BD000000000000000000000000000076
:106D50000000000000000000000000F8000000003B
:106D6000000000333000000000100C06100C06007C
:106D7000000000000000000040C07840C0784000E3
:106D8000043F04043F040400007088FC0830000045
:106D9000001820FF211E0000F008F000E01800009D
:106DA00000211C031E211E0000F008887000000056
:106DB0001E2123241927211010160E0000000000A8
:106DC0000000000000000000000000E018040200C5
:106DD000000000071820400000020418E000000036
:106DE0000040201807000000404080F08040400034
:106DF0000202010F01020200000000F0000000008A
:106E00000101011F0101010000000000000000005D
:106E100080B07000000000000000000000000000D2
:106E2000000101010101010100000000000000005B
:106E300000303000000000000000000080601804F6
:106E4000006018060100000000E010080810E000D3
:106E5000000F102020100F00001010F8000000009C
:106E60000020203F202000000070080808887000E3
:106E70000030282422213000003008888848300063
:106E80000018202020110E000000C02010F8000083
:106E900000070424243F240000F80888880808001C
:106EA0000019212020110E0000E010888818000031
:106EB000000F112020110E0000380808C838080003
:106EC0000000003F00000000007088080888700083
:106ED000001C222121221C0000E010080810E00004
:106EE0000000312222110F00000000C0C00000008D
:106EF00000000030300000000000008000000000B2
:106F000000008060000000000000804020100800A9
:106F10000001020408102000404040404040400072
:106F2000040404040404040000081020408000004D
:106F30000020100804020100007048080808F00052
:106F40000000003036010000C030C828E810E00022
:106F50000718272423140B000000C038E0000000AD
:106F6000203C23020227382008F888888870000017
:106F7000203F202020110E00C030080808083800EB
:106F8000071820202010080008F808080810E00062
:106F9000203F202020100F0008F88888E808100003
:106FA000203F20202320180008F88888E8081000D7
:106FB000203F200003000000C0300808083800000F
:106FC00007182020221E020008F808000008F80810
:106FD000203F210101213F20000808F80808000097
:106FE0000020203F2020000000000808F8080800CA
:106FF000C08080807F00000008F888C02818080042
:10700000203F20012638200008F80800000000007A
:10701000203F20202020300008F8F800F8F8080071
:10702000203F003F003F200008F830C00008F8086B
:10703000203F200007183F00E01008080810E0007B
:107040000F10202020100F0008F808080808F00092
:10705000203F210101010000E01008080810E000B5
:107060000F18242438504F0008F88888888870004A
:10707000203F2000030C30200070880808083800EA
:107080000038202121221C00180808F808081800E0
:107090000000203F2000000008F808000008F80861
:1070A000001F202020201F000878880000C8380812
:1070B000000007380E010000F80800F80008F8008A
:1070C000033C0700073C0300081868808068180824
:1070D00020302C03032C30200838C800C8380800A2
:1070E0000000203F2000000010080808C8380800F1
:1070F0002038262120201800000000FE0202020095
:107100000000007F40404000000C30C00000000044
:10711000000000010638C00000020202FE0000006C
:10712000004040407F000000000004020202040012
:10713000000000000000000000000000000000004F
:107140008080808080808080000202040000000037
:10715000000000000000000000008080808000002F
:107160000019242222223F2008F80080800000001D
:10717000003F112020110E000000008080800000E0
:10718000000E112020201100000000808088F800EF
:10719000000E112020103F20000080808080000021
:1071A000001F222222221300008080F08888881885
:1071B0000020203F20200000000080808080800090
:1071C000006B94949493600008F800808080000025
:1071D000203F210000203F20008098980000000000
:1071E0000020203F20200000000000809898000030
:1071F00000C08080807F000008F800008080800050
:10720000203F24022D302000000808F80000000074
:107210000020203F2020000080808080808080002F
:10722000203F20003F20003F8080008080800000C1
:10723000203F210000203F2000008080808000004F
:10724000001F202020201F00808000808000000080
:1072500080FFA12020110E000000008080808000AF
:10726000000E112020A0FF808080800080808000A0
:1072700020203F21200001000000808080808000CD
:107280000033242424241900008080E08080000042
:107290000000001F2020000080800000008080008F
:1072A000001F202020103F208080800000808080F0
:1072B00000010E3008060100808000800080808080
:1072C0000F300C030C300F000080800080808000A5
:1072D0000020312E0E3120008080800000808080D0
:1072E00080818E7018060100008080808080800080
:1072F0000021302C2221300000000000807C02029E
:1073000000000000003F404000000000FF000000BF
:1073100000000000FF0000000002027C800000006E
:107320000040403F0000000000060101020204048A
:10733000000000000000000001030507090E101204
:107340001416181C1E809A45418E418F8045454574
:107350004949498E8F9092924F994F555559999A14
:107360009B9C9D9E9F41494F55A5A5A6A7A8A9AA4C
:10737000ABACADAEAFB0B1B2B3B4B5B6B7B8B9BAE5
:10738000BBBCBDBEBFC0C1C2C3C4C5C6C7C8C9CAD5
:10739000CBCCCDCECFD0D1D2D3D4D5D6D7D8D9DAC5
:1073A000DBDCDDDEDFE0E1E2E3E4E5E6E7E8E9EAB5
:1073B000EBECEDEEEFF0F1F2F3F4F5F6F7F8F9FAA5
:1073C000FBFCFDFEFF2B2E2C3B3D5B5D2F5C222A40
:1073D0003A3C3E3F7C7F000001000400100040006A
:1073E000000100020000010002000400080010007B
:1073F0002000000007000000000000000000000066
:1074000000000000C700FC00E900E200E400E0002A
:10741000E500E700EA00EB00E800EF00EE00EC001A
:10742000C400C500C900E600C600F400F600F20082
:10743000FB00F900FF00D600DC00A200A300A500BD
:10744000A7209201E100ED00F300FA00F100D10065
:10745000AA00BA00BF001023AC00BD00BC00A10010
:10746000AB00BB009125922593250225242561259B
:107470006225562555256325512557255D255C2513
:107480005B251025142534252C251C2500253C259D
:107490005E255F255A2554256925662560255025DA
:1074A0006C256725682564256525592558255225AD
:1074B00053256B256A2518250C25882584258C25C0
:1074C00090258025B103DF009303C003A303C3030A
:1074D000B500C403A6039803A903B4031E22C60380
:1074E000B50329226122B1006522642220232123D1
:1074F000F7004822B0001922B7001A227F20B200FC
:10750000A025A00061001A03E0001703F80007039C
:10751000FF0001007801000130013201060139014C
:1075200010014A012E017901060180014D0043023C
:107530008101820182018401840186018701870122
:1075400089018A018B018B018D018E018F019001D0
:107550009101910193019401F6019601970198011F
:1075600098013D029B019C019D0120029F01A00109
:10757000A001A201A201A401A401A601A701A701E3
:10758000A901AA01AB01AC01AC01AE01AF01AF0191
:10759000B101B201B301B301B501B501B701B80141
:1075A000B801BA01BB01BC01BC01BE01F701C001B9
:1075B000C101C201C301C401C501C401C701C801A1
:1075C000C701CA01CB01CA01CD011001DD010100D3
:1075D0008E01DE011201F3010300F101F401F40157
:1075E000F8012801220212013A020900652C3B022F
:1075F0003B023D02662C3F0240024102410246022C
:107600000A015302400081018601550289018A0165
:1076100058028F015A0290015C025D025E025F0215
:1076200093016102620294016402650266026702CC
:10763000970196016A02622C6C026D026E029C0137
:10764000700271029D01730274029F01760277023B
:10765000780279027A027B027C02642C7E027F022D
:10766000A60181028202A9018402850286028702A4
:10767000AE014402B101B20145028D028E028F02B9
:1076800090029102B7017B030300FD03FE03FF0399
:10769000AC0304008603880389038A03B103110342
:1076A000C2030200A303A303C4030803CC03030023
:1076B0008C038E038F03D8031801F2030A00F90329
:1076C000F303F403F503F603F703F703F903FA03EF
:1076D000FA033004200350041007600422018A04D6
:1076E0003601C1040E01CF040100C004D0044401DE
:1076F0006105260400007D1D0100632C001E96011B
:10770000A01E5A01001F0806101F0606201F0806AB
:10771000301F0806401F0606511F0700591F521F41
:107720005B1F541F5D1F561F5F1F601F0806701FE1
:107730000E00BA1FBB1FC81FC91FCA1FCB1FDA1FED
:10774000DB1FF81FF91FEA1FEB1FFA1FFB1F801F2B
:107750000806901F0806A01F0806B01F0400B81FE7
:10776000B91FB21FBC1FCC1F0100C31FD01F0206D0
:10777000E01F0206E51F0100EC1FF31F0100FC1FC4
:107780004E21010032217021100284210100832149
:10779000D0241A05302C2F04602C0201672C06011E
:1077A000752C0201802C6401002D260841FF1A036C
:1077B00000000000D47700080000002090000000C6
:1077C000280100086478000890000020001C0000D8
:1077D0004401000800A24A0400000000000000006C
:1077E0000102030406070809000000000102030467
:1077F000010203040607080902040608000000004D
:1078000000000000000000000000001CF484C444DC
:1078100044447C0000000000000000000000000064
:107820000000000000000000061E32624242424298
:10783000424242622222361C00000000000000008A
:10784000000000000000000000000000AE19000071
:107850000000000000000000000000000000000028
:047860000000000024
:04000005080000ED02
:00000001FF
