:020000040800F2
:10000000C0FB0020A1010008892B00088D250008F5
:100010005D2B0008A3030008993E000800000000C3
:10002000000000000000000000000000B1390008DE
:10003000A503000800000000B7010008B33900085C
:10004000BB010008BB010008BB010008BB010008A0
:10005000BB010008BB010008BB010008BB01000890
:10006000BB010008BB010008BB010008BB01000880
:10007000BB010008BB010008BB010008BB01000870
:10008000BB010008BB010008BB010008BB01000860
:10009000BB010008BB010008BB010008BB01000850
:1000A000BB010008BB010008BB010008BB01000840
:1000B000BB0100080000000000000000BB010008B8
:1000C000BB010008BB010008BB010008BB01000820
:1000D000BB0100088D3E0008BB010008BB01000801
:1000E000BB010008BB010008000000000000000088
:1000F0000000000000000000000000000000000000
:10010000000000007D2E000800000000BB01000878
:100110000000000000000000BB010008BB01000857
:10012000BB010008BB010008BB010008BB010008BF
:10013000BB010008000000000000000000000000FB
:10014000BB010008BB010008BB0100080000000063
:10015000BB010008BB010008BB010008BB0100088F
:10016000BB010008BB010008BB0100080000000043
:10017000BB010008BB0100080000000000000000F7
:10018000BB010008BB010008BB010008DFF80CD070
:1001900000F07EF800480047FD540008C0FB002036
:1001A0000648804706480047FEE7FEE7FEE7FEE711
:1001B000FEE7FEE7FEE7FEE7FEE7FEE74D3A000852
:1001C0008D0100082DE9F05F0546002092469B4610
:1001D00088460646814640241BE02846414647465D
:1001E000224600F044F853465A46C01A914110D3B3
:1001F00011461846224600F02BF82D1A67EB01082D
:100200004F4622460120002100F022F817EB00099A
:100210004E41201EA4F10104DFDC484631462A4647
:10022000434600F000B830BCBDE8C09FD2B201E048
:1002300000F8012B491EFBD270470022F6E710B5EB
:1002400013460A4604461946FFF7F0FF204610BD44
:10025000202A04DB203A00FA02F100207047914086
:10026000C2F1200320FA03F3194390407047202A7B
:1002700004DB203A21FA02F00021704721FA02F350
:10028000D040C2F120029140084319467047000057
:10029000064C074D06E0E06840F0010394E80700D3
:1002A00098471034AC42F6D3FFF774FF685C00083F
:1002B000885C000870B58C1810F8015B15F0070316
:1002C00001D110F8013B2A1106D110F8012B03E0EF
:1002D00010F8016B01F8016B5B1EF9D12B0705D4F7
:1002E0000023521E0DD401F8013BFAE710F8013B40
:1002F000CB1A921C03E013F8015B01F8015B521E5C
:10030000F9D5A142D8D3002070BD704701460148FD
:1003100001F070BA78E1002010B5044801F07CFAD1
:10032000042801D0012010BD002010BD78E100207C
:1003300010B500F00BF8012801D0022010BDBDE877
:100340001040014801F07ABB78E1002008B5012097
:100350008DF800009DF8000008BD000038B50024AD
:10036000009313460A460146034801F033FC00B1EE
:100370000124204638BD000078E1002070470000CD
:1003800038B50024009313460A460146034801F09D
:1003900019FD00B10124204638BD000078E100209D
:1003A0007047FEE770477047002200F001B8000078
:1003B00030B50E4B054601205C7A002C14D1587ADA
:1003C0001C54587A03EB800045605D7A03F1080005
:1003D0002A54587A421C5A72303008703A204870B9
:1003E0002F208870CC70002030BD0000B4E90020C0
:1003F00010B590F825100024022903D00421C16310
:1004000001241AE001680A6822F00E020A600168FD
:100410000A6822F001020A6090F84410036C01F0AF
:100420001C02012101FA02F25A6080F82510002115
:1004300080F82410816B01B18847204610BD000070
:1004400070B5044600F0F2F80546601C02D004487E
:100450000078044400F0EAF8401BA042FAD370BDD3
:1004600000E100202DE9FC4FDFF894A100230125D5
:100470000AF1040B03244FF00F0C0BF1040EB8E04B
:1004800005FA03F632406FD04F68012F05D0022FD6
:1004900003D0112F01D0122F17D1D0F808905F0090
:1004A00004FA07F829EA08090097D1F80C8008FA3D
:1004B00007F848EA0908C0F808804768B7430E798A
:1004C000C6F300169E403E434660C6684FEA4308A6
:1004D00004FA08F7BE4301978F6807FA08F7374315
:1004E000C7604E68022E01D0122E13D1DE0800EB39
:1004F00086060096366A5F07FF0E0CFA07F926EAB1
:100500000906D1F8109009FA07F949EA0609009E90
:10051000C6F820900668019FBE430F7907F00307D5
:1005200007FA08F7374307604E68F60060D5354E86
:10053000376E47F001073766366E23F0030706F083
:1005400001060096304E3E44B146B6689F074FEA1A
:1005500017780CFA08F7BE43B0F1904F05D02B4F37
:10056000B84204D1012712E042E000270FE0284FF3
:10057000B84201D102270AE0264FB84201D1032731
:1005800005E0254FB84201D1042700E0072707FA0C
:1005900008F73743C9F80870DAF800605746D1F811
:1005A000048096435FEAC83800D516433E60DBF806
:1005B00000605F46D1F8048096435FEA883800D532
:1005C00016433E60DEF800607746D1F8048096431B
:1005D0005FEAC82800D516433E60094F0C373E68D5
:1005E000D1F8048096435FEA882800D516433E6020
:1005F0005B1C0A6832FA03F67FF442AF00F00EB8D3
:1006000000040140001002400000014000040048C6
:1006100000080048000C0048001000481CBCBDE861
:10062000E08F0AB18161704781627047014880683C
:100630007047000000E10020024881680278114400
:100640008160704700E1002010B50024032000F015
:1006500071F8002000F008F808B1012401E000F072
:1006600025F8204610BD000070B50E4E054600244A
:10067000307898B14FF47A71B1FBF0F00A4909680B
:10068000B1FBF0F001F0EFFD40B9102D06D20022D1
:100690002946501E00F02EF8756000E00124204627
:1006A00070BD000000E100200CE10020094808B501
:1006B000016E41F001010166016E01F0010100913E
:1006C000816D41F080518165806D00F08050009017
:1006D00008BD000000100240002809DB00F01F02E6
:1006E000012191404009800000F1E020C0F8001194
:1006F00070470000F0B40E4B1B680C46C3F3022396
:10070000C3F10705042D00D90425191D072901D2BD
:10071000002300E0DB1E012606FA05F1491E2140F8
:1007200099409E40761E16403143F0BC03F0BEBB9C
:100730000CED00E0064900F0070208684FF6FF03E1
:10074000184040EA0220034A104308607047000046
:100750000CED00E00000FA051649B0F5007F0868CE
:10076000C0F3412009D0022805D0086820F4C060F9
:1007700040F480600860002070470128FBD00868C2
:1007800020F4C06040F4007008600B48322200681A
:1007900050430A4AB0FBF2F0401C00E0401E4A6998
:1007A000520501D50028F9D148694005E3D5032059
:1007B00070470000007000400CE1002040420F0034
:1007C0000248006800F4C0607047000000700040FC
:1007D0002DE9F05F03460020C24A4FF4FA484FF477
:1007E0000045B3F5003F0CD0D168F02601F00301BD
:1007F000BD4FBE4C012923D0022933D003293BD160
:1008000035E0D2F8901001F44071B1F5807F0BD043
:10081000B1F5007F0ED0B1F5407F03D11168890397
:1008200000D5B34800F06AB9D2F890108907F9D51D
:100830002846F7E7D2F894108907F3D54046F1E748
:100840001168890718D51168090703D5116801F0E7
:10085000F00103E0D2F8941006EA1111090957F8E3
:1008600021100AE01168490506D5214605E0116806
:10087000890301D59F4900E000214FF480694FF4BE
:10088000804A4FF4802B4FF4002E4FF4006CB3F5E8
:10089000007F78D027DC202B76D011DC012B74D0A0
:1008A000022B73D0042BBDD1D2F8881011F0300187
:1008B0006DD010292AD0202914D03029B2D1B3E725
:1008C000402B79D0802B78D0B3F5807FAAD1D2F895
:1008D000881011F440315AD0B1F5803F16D0B1F5EF
:1008E000003F9FD1F3E0AB4268D010DC4B4578D09D
:1008F000634529D0534595D1D2F8883003F0405351
:10090000B3F1805F6ED0B3F1405F8BD1B6E05B4551
:1009100001D0734586D1D2F8883013F040634ED0B1
:10092000B3F1806F34D0B3F1006F1AD0B3F1406FE0
:1009300085D1116889077FF57CAF1068000708D55D
:10094000106800F0F00008E0604600F0DAB802F04D
:100950001DB9D2F8940006EA1010000957F82000DB
:1009600060E713689B01FBD5D368DB02F8D5D0683C
:10097000C0F306204143D068C0F30210401CB1FB15
:10098000F0F0D16815E07DE03DE01EE02FE0A3E04F
:1009900013681B01E4D51369DB02E1D51069C0F3CC
:1009A00006204143D068C0F30210401CB1FBF0F0B8
:1009B0001169C1F3415146E04AE055E07FE0D2F8C9
:1009C00098108907CCD54C482CE7D2F8881011F044
:1009D000030108D0012951D0022978D00329BFD1C1
:1009E00022E75DE01CE000F091B800F09FBAD2F879
:1009F000881011F00C0170D004293FD0082966D06E
:100A00000C29ADD110E7D2F8881011F4406164D000
:100A1000494533D061455AD0B1F5406FA0D103E7C5
:100A200013681B019CD51369DB0199D51069C0F3CC
:100A300006204143D068C0F30210401CB1FBF0F027
:100A40001169C1F34161491C4900B0FBF1F0E9E6CD
:100A5000D2F8881011F440513FD0B1F5805F0DD02D
:100A6000B1F5005FB0D132E0D2F8881011F4404106
:100A700033D0514502D0A942A6D128E000F04BB8AE
:100A800000F066BAD2F8881011F4402125D05945FB
:100A90003FF4D0AE71451AD0B1F5402F94D1C3E6E2
:100AA000D2F8881011F4401117D0B1F5801FEFD0A3
:100AB000B1F5001F0BD0B1F5401F85D1B4E6D2F8D7
:100AC000881011F0804108D0B1F1804FBFD111687A
:100AD0004905BCD52046A5E6FFE700F021B800F0A7
:100AE00013BA000000100240445900080024F4002A
:100AF00090D0030000127A00006CDC0230BCBDE82C
:100B0000C09F30BCBDE8C05FFFF721BF30BCBDE86F
:100B1000C05FFFF76ABF30BCBDE8C05FFFF7B0BF82
:100B200030BCBDE8C05FFFF7DABF00002DE9F84F29
:100B3000044600270088A84D3E46000515D5606C88
:100B400060B1B0F5000F04D0B0F5400F2BD00127F5
:100B50000AE0E86840F48030E86024E00021201DCD
:100B600002F068F807001ED03E46206880033AD5A0
:100B7000A86D4FF00008C00009D4A86D40F0805067
:100B8000A865A86D4FF0010800F080500090DFF8D4
:100B90004CA2DAF8001041F48071CAF80010FFF797
:100BA00045FD814610E0D5F88800616C20F44000D6
:100BB0000843C5F88800D8E7FFF738FDA0EB090027
:100BC000022801D9032705E0DAF80000C005F3D5B3
:100BD000002F7DD04FEA0706B8F1000F03D0A86DB3
:100BE00020F08050A8652078C00707D0D5F888008D
:100BF000216A20F003000843C5F8880020788007A8
:100C000007D5D5F88800616A20F00C000843C5F8C4
:100C100088002078400707D5D5F88800A16A20F021
:100C200030000843C5F888002078800607D5D5F83D
:100C30008800E16A20F440600843C5F888002088F5
:100C4000800507D5D5F88800E16B20F440200843E3
:100C5000C5F888002088400507D5D5F88800216CA4
:100C600020F440100843C5F888002078400607D5D6
:100C7000D5F88800216B20F440500843C5F888005F
:100C80002078000607D5D5F88800616B20F4404035
:100C90000843C5F888002088C00507D5D5F8880026
:100CA000A16B20F440300843C5F8880020684FF05D
:100CB000006700034FF0806850D5D5F88800A16C1C
:100CC00020F040600843C5F88800A06CB84200E0FE
:100CD00005E03BD1E86840F48010E8603EE0D5F8DC
:100CE000900010F4407014D0A16D814211D0D5F85D
:100CF0009000D5F8901020F4407041F48031C5F890
:100D00009010D5F8901021F48031C5F89010C5F8F6
:100D10009000C00711D0FFF789FC074641F28839DF
:100D200007E000BFFFF782FCC11B494501D903263C
:100D300052E7D5F890008007F4D5D5F89000A16D62
:100D400020F440700843C5F8900045E7404505D1C0
:100D50000121201D01F06EFF00B10646206840030E
:100D600017D5D5F88800E16C20F040600843C5F83D
:100D70008800E06CB84204D1E86840F48010E86074
:100D800007E0404505D10121201D01F053FF00B1CE
:100D900006462088400411D5D5F88800216D20F042
:100DA00040500843C5F88800206DB0F1805F05D140
:100DB0000221201D01F03EFF00B1064620880004FC
:100DC00006D555F8880F616D20F0804008432860F3
:100DD000304600F005B800000010024000700040EE
:100DE00018BCBDE8E08F00002DE9F0470F46050074
:100DF00058D0404E306800F00700B84209D2306841
:100E000020F0070038433060306800F00700B84237
:100E100048D12878384CC0072CD06868032811D0F6
:100E2000022812D0216898B1490500293ADAA16850
:100E300021F003010143A160FFF7F8FB804641F276
:100E4000883910E021688901EFE721688903ECE720
:100E50008907EAE7FFF7EAFBA0EB0801494502D959
:100E60000320BDE8F087A068696800F00C00B0EBD3
:100E7000810FEFD12878800705D5A068A96820F0F8
:100E8000F0000843A060306800F00700B8420BD9BA
:100E9000306820F0070038433060306800F0070009
:100EA000B84201D00120DCE72878400705D5A068CA
:100EB000E96820F4E0600843A0602878000706D5C0
:100EC000A068296920F4605040EAC100A06000F0E9
:100ED0003FF8A168094AC1F30311515C01F01F01F9
:100EE000C8400749086007480068BDE8F047FFF7B9
:100EF000BBBB000000200240001002403459000833
:100F00000CE1002004E100200548064900688968DA
:100F1000054AC1F30221515C01F01F01C84070472E
:100F20000CE10020001002407459000805480649F1
:100F300000688968054AC1F3C221515C01F01F01B4
:100F4000C84070470CE100200010024074590008AE
:100F500070B52549002318468A68CC6812F00C0247
:100F600004F00306214C4FEA640509D00C2A05D091
:100F7000042A32D0082A00D1284670BD012E10D193
:100F80000B681B0704D4D1F89430C3F3032302E0A9
:100F90000B68C3F30313164E56F82330DAB10C2A4C
:100FA000EBD1C86800F00300022818D0032818D03D
:100FB0001846CA68CB68C2F30212C3F30623434340
:100FC000521CB3FBF2F2C868C0F34160401C400001
:100FD000B2FBF0F070BD184670BD204670BD2046D3
:100FE000E7E72846E5E70000001002400024F4008F
:100FF000445900082DE9F84304006FD0FE4DA8685D
:1010000000F00C06E86800F003072078C00664D5FD
:1010100076B10C2E01D1012F0AD0A06900282868D2
:101020007AD040F001002860FFF700FB80465DE0C9
:101030002868800702D5A0690028DED0216A2868C8
:10104000000703D5286800F0F00004E0D5F894000C
:10105000F02202EA1010814216D9084601F080FE03
:1010600000283BD1286840F0080028602868216AE1
:1010700020F0F000084328606868E16920F47F40B0
:1010800040EA0120686016E0286840F00800286007
:101090002868216A20F0F000084328606868E16948
:1010A00020F47F4040EA0120686026B9206A01F000
:1010B00057FE0028D5D1FFF74BFFA968CF4AC1F3EF
:1010C0000311515C01F01F01C840CD490860CD48B3
:1010D0000068FFF7C9FA00287ED12EE0CAE000BF01
:1010E000FFF7A4FAA0EB0800022876D8286880074A
:1010F000F6D5286840F0080028602868216A20F0AA
:10110000F000084328606868E16920F47F4040EA05
:101110000120686011E0FFE720F001002860FFF780
:1011200085FA804606E000BFFFF780FAA0EB0800D2
:101130000228DAD828688007F6D42078C00740D083
:10114000082E18D00C2E01D1032F14D06068B0F5F2
:10115000803F17D0B0F5A02F286817D020F480303A
:101160002860286820F4802028606068E0B1FFF7DC
:101170005DFA804614E02868800322D56068002864
:1011800078D01EE0286840F48030EDE740F48020FD
:101190002860F7E7FFF74AFAA0EB08006428A4D814
:1011A00028688003F6D50CE0FFF740FA804605E09A
:1011B000FFF73CFAA0EB0800642896D82868800363
:1011C000F6D4207880073BD5042E11D00C2E01D107
:1011D000022F0DD0E06801E0B6E1FFE000282868AA
:1011E0001ED040F480702860FFF720FA07460CE01C
:1011F000286840050CD5E0680028C1D008E000BF91
:10120000FFF714FAC01B022893D828684005F7D5C9
:101210006868217C20F0FE4040EA016068600FE0D1
:1012200020F480702860FFF701FA074605E000BF50
:10123000FFF7FCF9C01B0228B1D828684005F7D495
:101240002078000729D560690028D5F8940012D0CD
:1012500040F00100C5F89400FFF7E8F9074604E004
:10126000FFF7E4F9C01B022899D8D5F8940080074D
:10127000F6D512E02BE120F00100C5F89400FFF74D
:10128000D5F9074605E000BFFFF7D0F9C01B0228DB
:1012900085D8D5F894008007F6D42078400766D525
:1012A000A86D0027C00008D4A86D40F08050A86544
:1012B000A86D012700F08050009053480168C905CF
:1012C00012D40168814641F480710160FFF7AEF9E4
:1012D000804605E0FFF7AAF9A0EB080002287DD8B8
:1012E000D9F80000C005F5D5A068012816D005285A
:1012F000D5F8900017D020F00100C5F89000D5F87F
:10130000900020F0040000BFC5F89000A06841F2F2
:101310008839C0B1FFF78AF980460FE0D5F8900010
:1013200040F00100F0E740F00400C5F89000F5E758
:10133000FFF77CF9A0EB080149454FD8D5F890009C
:101340008007F5D50EE0FFF771F9804606E000BF93
:10135000FFF76CF9A0EB080149453FD8D5F890009C
:101360008007F5D41FB1A86D20F08050A8652078C3
:10137000800628D5606A0028D5F8980012D040F081
:101380000100C5F89800FFF751F9074605E000BFD6
:10139000FFF74CF9C01B022820D8D5F89800800729
:1013A000F6D510E020F00100C5F89800FFF73EF9EF
:1013B000074604E0FFF73AF9C01B02280ED8D5F81B
:1013C00098008007F6D4A06AA8B1022824D00C2E79
:1013D0007DD0286820F08070286000E0B3E02868A5
:1013E000000103D4E86820F00300E860E8680749DA
:1013F0000840E8600CE09FE000100240345900080B
:101400000CE1002004E1002000700040FFFFEEFE30
:10141000FFF70CF9044699E0E868E26A00F003017E
:10142000914226D1216B00F07002090110399142DE
:101430001FD1626B00F4FE41B1EB022F19D194F879
:10144000382000F07841B1EBC26F12D1A18F00F4C7
:10145000C00249084905A1F50011914209D194F84B
:10146000401000F0C06049084906A1F100718142B6
:101470004BD00C2E6FD0286840016CD4286820F027
:1014800080702860FFF7D2F8064604E0FFF7CEF838
:10149000801B022857D828688001F7D4F4E90B0193
:1014A0006FF00F0202EB01110843218A5204490830
:1014B00002EB4151A26841EA02210843217D4FF02D
:1014C0007E42490802EB41610843217B00E042E093
:1014D00040EAC160E968214A11400843E860286891
:1014E00040F080702860E86840F08070E860FFF7A6
:1014F0009DF8044605E000BFFFF798F8001B02289E
:1015000021D828688001F7D523E02868800120D4FD
:10151000286840F080702860E86840F08070E860DB
:10152000FFF784F8044604E0FFF780F8001B022868
:1015300009D828688001F7D50BE000BFFFF776F8DF
:10154000001B022802D90320BDE8F8832868800127
:10155000F4D40020F8E70120F6E700008C809D011C
:1015600010B504004FF0010044D094F8210028B9D0
:10157000002084F82000204600F040F8022084F883
:1015800021002168CA204862216853204862204611
:1015900001F024FC00282DD120688168164A1140F2
:1015A0008160216888686268A369104322691A43D0
:1015B000104388602168E068086120680169228919
:1015C00041EA02410161204601F02CFC002811D1C2
:1015D0002168CA6C22F00302CA646269E16911439E
:1015E0002268D36C1943D1642268FF215162012122
:1015F00084F8211010BD0000BFFF8FFF006805496F
:10160000884205D1044850F8901F41F40041016020
:1016100070470000002800400010024070B50446EA
:101620000068C16821F0A001C160FEF7FFFF054618
:101630004FF47A7607E000BFFEF7F8FF401BB04298
:1016400001D9032070BD2068C0688006F4D5002051
:1016500070BD10B5FEF759FE10BD7047F0B5426E73
:10166000920F0A70426EC2F383624A70426EC2F3F6
:1016700001628A70426E120CCA70B0F86420120ABD
:101680000A7190F864204A71826E120DCA80826ECF
:10169000C2F303420A72B0F86820C2F3C0324A7241
:1016A000B0F86820C2F380328A72B0F86820C2F3C2
:1016B0004032CA72B0F86820C2F300320A730026C2
:1016C0004E73426C4FF40075012462B1012A3AD086
:1016D000026847499163816B41F08051816380F8D2
:1016E00034400120F0BDB0F86820C36E9205120DA1
:1016F00042EA93720A61C26EC2F3C2620A75C26E96
:10170000C2F302624A75C26EC2F342528A75C26E59
:10171000C2F38242CA75C26EC2F3C2320A760A6945
:10172000521C42650B7E03F007039B1C9A404265E6
:101730000B7A03F00F0704FA07F383655B0A5A4339
:10174000C0E917250EE090F86820C36E9206920A51
:1017500042EA13420A610A69521C92024265C0E9D8
:101760001652056630F86C2FC2F3803201F8192F3B
:101770000288C2F3C6124A70027802F07F028A70B1
:101780004268D20FCA704268C2F341720A7142685D
:10179000C2F382624A714268C2F383528A7142681C
:1017A000C2F34052CA710E724268C2F300424A72DA
:1017B0008288C2F3C0328A728288C2F38032CA72CF
:1017C0008288C2F340320A738288C2F300324A73BD
:1017D0008288C2F381228A738288C2F30122CA738B
:1017E0000079C0F3460008744C740020F0BD00007E
:1017F000FF054000426C0A60826C4A60C26C8A60DD
:10180000026DCA60426D0A61826D4A61C26D8A6171
:10181000006EC8610020704770B50446B0F85000F3
:1018200000250104206801F034FC18B1A16B0143CC
:10183000A16304E00021206801F008FE0546C5F31D
:10184000432070BD2DE9F843056B04460068416BE9
:1018500009041CD529071AD5D4E90A56002E14D03C
:101860000027206801F00EFE05F8010B010A05F8BB
:10187000011B010C05F8021B000E361F7F1C05F82A
:10188000010C082FEDD3C4E90A56BDE8F883416B7B
:101890004FF00006C90540F23A584FF0010743D512
:1018A000390281632068C16B4CF23A129143C163E3
:1018B0002068C16A21F00101C16228071CD515F01A
:1018C000220F09D0206801F015FC28B1A16B01435B
:1018D000A1632046FFF7C1FE2168C1F8388084F873
:1018E00034702663A80703D0204600F062FACCE7E4
:1018F000204600F062FAC8E72806C6D5A80609D532
:10190000206801F0F7FB28B1A16B0143A1632046D9
:10191000FFF7A3FEA807B8D12068C16A21F008012B
:10192000C16284F83470E3E7416B490423D5290789
:1019300021D5D4E90856002EA7D0002715F8010BB1
:10194000009015F8011B361F40EA0120009015F8A1
:10195000021B40EA0140009015F8011C40EA0160BA
:1019600000906946206801F0A0FD7F1C082FE5D398
:10197000C4E9085689E7416B11F03A0F85D0416BF5
:10198000890703D5A16B41F00201A163416B0907EF
:1019900003D5A16B41F00801A163416B890603D512
:1019A000A16B41F02001A163416BC90603D5A16B76
:1019B00041F01001A163C0F838802068C16B21F4A8
:1019C0009D71C163206801F095FBA16B0843A06382
:1019D000280706D584F8347026632046FFF73DFEBD
:1019E00053E7280687D515F0300F0CD0E16B11486E
:1019F0008863E06BFEF7FCFC0028BBD0E06BBDE821
:101A0000F84301F089BDA8070CD0216C0A4888630F
:101A1000206CFEF7EDFC0028ACD0206CBDE8F8434C
:101A200001F058BDA66384F8347026632046FFF7A2
:101A300010FE2AE719350008D534000870B50400F7
:101A40000ED094F83400002518B92577204600F010
:101A500077F8032084F83400204600F00BF808B132
:101A6000012070BDA5632563012084F834000020A7
:101A700070BD00002DE9FE4304464FF000084FF40E
:101A80000020FEF7A5FE05004FF001070FD0274804
:101A9000CDF80080B5FBF0F6B61ECDE901864246D2
:101AA00043461146206801F0D4FC30BB05E084F8C1
:101AB00034704FF00060A06334E02068416821F486
:101AC00080714160206801F0D5FCB0B920684168A0
:101AD00041F480714160B61CB5FBF6F01449B1FBCE
:101AE000F0F0401CFEF7ACFC204601F0AFFD28B141
:101AF00084F83470A16B0143A16313E0204601F028
:101B00002DFD0028F4D14FF40071206801F0F0F9A8
:101B1000002808D0226807499163A16B0143A163A3
:101B200084F83470012000F007B80000801A060025
:101B300010210100FF05400006BCBDE8F88300004D
:101B4000F0B587B0044614216846FEF776FB1D49C0
:101B50002068884233D11C48016E41F480610166DF
:101B6000016E01F480610591C16C41F00401C16412
:101B7000C16C01F004010591C16C41F00801C16420
:101B8000C06C022400F0080005904FF48850002536
:101B900003260C278DE8F10069460C48FEF762FC2D
:101BA00004208DE8F10069460948FEF75BFC00223D
:101BB00011463120FEF79EFD3120FEF78DFD07B066
:101BC000F0BD00000028014000100240000800485D
:101BD000000C00482DE9F04F87B09B4616460D4695
:101BE0000446FEF723FD00903DB194F8340001282F
:101BF00007D0A06B40F000500DE0A06B40F00060FB
:101C000009E00020A063E26D06EB0B01914204D9CC
:101C1000A06B40F00070A06385E0032184F83410CD
:101C20002168C862616C012900D076024FF0FF3153
:101C300001914FEA4B2102914FF0010803AA902134
:101C400002278146CDF8188082E8820201A9206827
:101C500001F09CFABBF1010F05D9276331462068DA
:101C600001F0A0F905E0C4F830803146206801F0A9
:101C7000B2F9DFF834A130B12268C2F838A0A16B04
:101C80000143A1634BE0029E1EE0406B000413D5AC
:101C900096B10027206801F0F5FB05F8010B010A59
:101CA00005F8011B010C05F8021B000E361F7F1CF6
:101CB00005F8010C082FEDD3FEF7B8FC0099411A86
:101CC000109881421CD2D8B12068416B11F4957FE5
:101CD000DBD0416BC90509D5BBF1010F06D9616C99
:101CE000032903D001F006FA0028C5D12068416B12
:101CF00009071AD5C0F838A0A06B40F0080051E0E1
:101D00002168C1F838A0A06B40F00040A06384F8BF
:101D10003480C4F83090032007B000F047B884F84E
:101D20003480C4F830900120F6E7416B890705D56F
:101D3000C0F838A0A06B40F0020033E0416B890688
:101D40001CD5C0F838A0A06B40F020002AE000BFEE
:101D500001F098FB05F8010B010A05F8011B010CC5
:101D600005F8021B000E05F8010C361FFEF75EFC9D
:101D70000099411A109881420ED268B12068416BD7
:101D8000890201D5002EE3D1216840F23A508863E0
:101D900084F834800020BFE72168C1F838A0A06B28
:101DA00040F00040A063BAE7FF05400030BCBDE84A
:101DB000C08F10B5FEF7E2FA10BD10B5FEF7F0FACD
:101DC00010BD00002DE9F04F8DB09B4616460D4624
:101DD0000446FEF72BFC0A903DB194F8340001282C
:101DE00007D0A06B40F000500DE0A06B40F0006009
:101DF00009E00020A063E26D06EB0B01914204D9DB
:101E0000A06B40F00070A0637AE0032184F83410E6
:101E10002168C862616C012900D076024FF0FF3161
:101E200003914FEA4B2104919021CDE905104FF029
:101E30000109CDE90709824603A9206801F0A6F946
:101E4000BBF1010F06D9202020633146206801F044
:101E50006BF905E0102020633146206801F07DF920
:101E60005FEA000806D0216840488863A06B40EA1A
:101E7000080071E0049E27E0406B40041CD5DEB1F1
:101E80005FF0000715F8010B009015F8011B361FD5
:101E900040EA0120009015F8021B40EA0140009042
:101EA00015F8011C40EA016000906946206801F0C5
:101EB000FCFA7F1C082FE5D3FEF7B8FB0A99411AFC
:101EC0001698814220D2F8B12068416B11F48D7FC1
:101ED000D2D0416BC90524D5BBF1010F21D9616C6A
:101EE00003291ED001F006F9D8B122681F49916379
:101EF000A16B0143C4F8381084F83490C4F830A0C2
:101F000001200DB000F034B8216818488863A06B38
:101F100040EA0800A06384F83490C4F830A003209D
:101F2000EFE72068416B090705D510498163A06B75
:101F300040F0080010E0416B890705D50B4981632B
:101F4000A06B40F0020007E0416BC90606D50749C7
:101F50008163A06B40F01000A063CDE740F23A51DE
:101F6000816384F834900020CBE70000FF05400037
:101F700030BCBDE8C08F70B5040009D0606A002590
:101F800040B125616561A56294F85D0040B10CE047
:101F9000012070BD6068B0F5827FF4D0E561F2E7A2
:101FA00084F85C50204600F057F8022084F85D0069
:101FB0002068016821F040010160E1684FF4E062AF
:101FC000914201D9002001E04FF48050B1F5706FCB
:101FD00002D0914200D0A562A188228901F48271C9
:101FE00002F404421143227C02F002021143227DDA
:101FF00002F001021143228B02F400721143227F8E
:1020000002F03802114394F8202002F080021143BC
:10201000228D02F40052114322681160A16904224A
:1020200002EA114194F8242000F4805002F01002DA
:10203000114394F8342002F008021143A28902F4FB
:10204000706211430143206841602566012084F8D5
:102050005D00002070BD0000F0B587B0044614217B
:102060006846FEF7EAF81849206888422AD11748DE
:10207000816D41F480418165816D01F4804105915C
:10208000C16C41F00401C164C16C01F0040105910F
:10209000C16C41F00201C164C06C022400F0020076
:1020A000059008200025032605278DE8F1006946E4
:1020B0000748FEF7D7F920038DE8F1006946054887
:1020C000FEF7D0F907B0F0BD003800400010024024
:1020D00000080048000400482DE9F84F044690F835
:1020E0005C0000271D461646894601280DD04FF09A
:1020F000010B84F85CB0FEF799FA804694F85D0015
:10210000BA46012804D00227A4E0022000F0A8B8B3
:10211000B9F1000F74D0002E72D0032084F85D0056
:10212000C4F860A0C4F83890A687E687C4F840A039
:10213000A4F844A0A4F846A0C4F850A0C4F84CA049
:10214000A068B0F5004F09D12068016821F0400176
:1021500001602068016841F48041016020680168E5
:10216000490603D4016841F040010160E068B0F520
:10217000E06F606823D908B1012E1CD1A06B2168E3
:102180000088C86006E020688168890709D5A16BCE
:102190000988C160A06B801CA063E08F401EE087AF
:1021A00009E0FEF743FAA0EB0800A84202D3681C3E
:1021B00001D046E0ADB3E08F0028E4D136E008B1AD
:1021C000012E30D1E08F0128A06B03D9216800884F
:1021D000C8600FE021680078087314E0E08722E00F
:1021E00020688168890714D5E18F0129A16B08D97E
:1021F0000988C160A06B801CA063E08F801EEDE7A2
:1022000027E009780173A06B401CA063E08F401E9B
:10221000E4E7FEF70BFAA0EB0800A84202D3681C23
:1022200001D00EE06DB1E08F0028D9D14246294699
:10223000204601F0D5FA08B120202066A06810B130
:1022400005E0032706E02068C16880680090206EE2
:1022500000B1012784F85DB084F85CA0384655E7EA
:1022600018BCBDE8E08F10B5401EB0F1807F01D3EF
:10227000012010BD4FF0E02460610F21601701F0D4
:1022800015FE0020A06107202061002010BD7047CE
:10229000704700002DE9F04102680446D0691168DA
:1022A000936840F60F0528424FF0000505D18606D9
:1022B0007BD58E0679D5216E88E04D4F03F001065F
:1022C0000F40374371D0C70707D0CF0505D5012789
:1022D0001762E26F42F00102E267820708D5DA076F
:1022E00006D0276802223A62E26F42F00402E267F7
:1022F000420708D5DA0706D0236804221A62E26F83
:1023000042F00202E26702070AD501F020023243DE
:1023100006D0236808221A62E26F42F00802E267E0
:10232000020509D54A0107D523684FF400621A62F5
:10233000E26F42F02002E267E26F002A2ED08006B0
:1023400005D5880603D5216E09B120468847E06F80
:1023500021688968490602D410F0280F20D0204651
:1023600001F030FC20688168490614D5816821F0AD
:1023700040018160E06E70B11E498163E06EFEF73E
:1023800037F800280AD0E06E816B00E02046BDE8F7
:10239000F041084709E02046FFF77AFFBDE8F081E9
:1023A0002046FFF775FFE567F8E7C60209D55B022F
:1023B00007D54FF4801010622046BDE8F041FFF7CA
:1023C00066BF030605D50B0603D5616E0029DDD176
:1023D000E4E74006E2D54806E0D51168204621F042
:1023E0004001116020216167656600F0CEF8D5E7F5
:1023F00020010004B13B000810B5040002D0606F5A
:1024000010B107E0012010BD002084F870002046C4
:1024100000F026F8242060672068016821F001019F
:102420000160204601F0DEFB0128ECD0606A10B1AB
:10243000204601F02DFB2068416821F49041416065
:102440002068816821F02A0181602068016841F0DC
:10245000010101602046BDE8104001F07DBB000095
:1024600010B586B0044614216846FDF7E6FE17490C
:102470002068884228D11648016E41F480410166E7
:10248000016E01F480410591C16C41F00101C1640C
:10249000C06C694600F0010005904FF4C0600090E8
:1024A0000220019000200290032003900720049056
:1024B0004FF09040FDF7D6FF002211462520FEF791
:1024C00019F92520FEF708F906B010BD00380140C3
:1024D000001002402DE9F8430446406F1F4616469F
:1024E0000D4620284FD1CDB1C6B194F87000012817
:1024F00049D0012084F870004FF00008C4F87C80B7
:1025000021206067FEF792F8A4F850608146A4F895
:102510005260A068B0F5805F03D004E00120BDE800
:10252000F883206928B12E465FF0000584F870809A
:1025300010E00026FAE78021204601F055FCB8B9EA
:10254000C6B116F8010B21680885B4F85200401E88
:10255000A4F85200B4F852004B464FF00002009726
:102560000028E8D14FF04001204601F03DFC30B199
:102570000320D4E735F8020BC0F30800E3E720207E
:1025800060670020CBE70220C9E77047FEE72DE92E
:10259000F04107461C4615460E462A2000F0B8F9C1
:1025A000380A00F0C3F9F8B200F0C0F9280A00F0C8
:1025B000BDF9E8B200F0BAF92B2000F0A9F9300A11
:1025C00000F0B4F9F0B200F0B1F9200A00F0AEF971
:1025D000E0B200F0ABF9BDE8F0412C2000F098B972
:1025E00070B5040AC5B2EF2300211A460846FFF76A
:1025F000CEFF0F4900204FF4107200BF01F81040C9
:1026000001EB4003401C80B25D709042F6D3012282
:1026100040210848FEF705F800244FF4906529464C
:10262000034800F039F9641CA4B2642CF7D370BDE0
:10263000E0E20020000800480122D1030148FDF734
:10264000F0BF0000000400482DE9F04186B01421DD
:102650006846FDF7F2FD2948C16C41F00401C164F0
:10266000C16C01F004010591C16C41F08001C164AD
:10267000C16C01F080010591C16C41F00201C1649F
:10268000C06C1F4F00F002004FF40045059000227F
:1026900029463846FDF7C5FFDFF868800022C021D3
:1026A0004046FDF7BEFF012600240095CDE90164F8
:1026B000694638460394FDF7D5FEC0200090CDE969
:1026C0000164694640460394FDF7CCFE002229468A
:1026D0003846FDF7A6FF002280214046FDF7A1FF06
:1026E0006420FDF7ADFE012280214046FDF799FFF1
:1026F00000F0EEF906B0BDE8F081000000100240E5
:10270000000400480008004810B5FFF79DFF78203E
:10271000FDF796FE112000F0FBF87820FDF790FE03
:10272000362000F0F5F8002000F000F93A2000F023
:10273000EFF8652000F0FAF8B22000F0E9F80C207C
:1027400000F0F4F80C2000F0F1F8002000F0EEF8B2
:10275000332000F0EBF8332000F0E8F8B72000F069
:10276000D7F8722000F0E2F8BB2000F0D1F83D204D
:1027700000F0DCF8C02000F0CBF82C2000F0D6F8F8
:10278000C22000F0C5F8012000F0D0F8C32000F00E
:10279000BFF8192000F0CAF8C42000F0B9F82020D2
:1027A00000F0C4F8C62000F0B3F8012000F0BEF835
:1027B000D02000F0ADF8A42000F0B8F8A12000F07F
:1027C000B5F8E02000F0A4F8D02000F0AFF8042025
:1027D00000F0ACF80D2000F0A9F8112000F0A6F8E8
:1027E000132000F0A3F82B2000F0A0F83F2000F009
:1027F0009DF8542000F09AF84C2000F097F818202B
:1028000000F094F80D2000F091F80B2000F08EF805
:102810001F2000F08BF8232000F088F8E12000F062
:1028200077F8D02000F082F8042000F07FF80C2028
:1028300000F07CF8112000F079F8132000F076F811
:102840002C2000F073F83F2000F070F8442000F0D6
:102850006DF8512000F06AF82F2000F067F81F2073
:1028600000F064F81F2000F061F8202000F05EF80E
:10287000232000F05BF8212000F04AF8292000F026
:1028800047F8EF2300211A460846FFF780FEBDE80F
:1028900010400020FFF7A4BE00F098BF2DE9F047DC
:1028A00002FB03F4660000250244DDF82090344664
:1028B000F02A29D80B44F02B26D85B1E521E9BB25F
:1028C00092B2FFF764FE012240211048FDF7A9FEF5
:1028D0004FF6FF774FF4803813E0444508D339466C
:1028E0004846FFF7D9FFA4F57F44B944FF3C06E012
:1028F000B4FBF7F007FB10414846FFF7CDFF6D1C16
:10290000EDB2B5EB164FE8D9BDE8F08700080048F6
:1029100001B5002240210448FDF783FE01216846ED
:10292000FFF7BAFF08BD00000008004801B501220A
:1029300040210448FDF775FE01216846FFF7ACFF12
:1029400008BD00000008004810B504490448FDF720
:102950002BFD0249491E087010BD000012E1002045
:102960007C5900082DE9F04786B014216846FDF730
:1029700064FC3E48C16C41F00401C164C16C01F0CB
:1029800004010591C16C41F08001C164C16C01F08A
:1029900080010591C16C41F00101C164C16C01F07D
:1029A00001010591C16C41F00201C164C16C01F0EB
:1029B00002010591C16C41F00801C164C06CDFF8EF
:1029C000B08000F00800059000224FF4035140460B
:1029D000FDF727FE4FF09049002201214846FDF700
:1029E00020FEDFF890A04FF4004700223946504601
:1029F000FDF717FE4FF40150009001250024CDE9AA
:102A00000154694640460394FDF72CFD03260396C6
:102A10000095CDE9015469464846FDF723FD0C2099
:102A20008DE8310069465046FDF71CFD009703967E
:102A3000CDE9015469465046FDF714FD8020CDE9EB
:102A40000005CDE9024669464046FDF70BFD280228
:102A500000900220CDE901040E20CDE90340694633
:102A60005046FDF7FFFC06B0BDE8F08700100240BD
:102A700000080048000400480C4810B50A490160ED
:102A800000217F22C0E90112FF22C0E90321416138
:102A90008161C161FEF764FD002803D0BDE81040EC
:102AA000FDF781BC10BD00000028004054E100206B
:102AB000064805490160002141608160C1600161F3
:102AC00041610421816170470028014078E10020C4
:102AD000124810B5104901604FF482714160002125
:102AE0004FF4E062C0E90212022202610122426157
:102AF0005202C0E90621016207224162C0E90A12BE
:102B000001634163FFF737FA002803D0BDE81040A6
:102B1000FDF749BC10BD000000380040FCE100207A
:102B20000D4810B50B4901604FF4E13141600021BF
:102B300081600C22C160C0E904128161C16101623F
:102B40004162FFF759FC002803D0BDE81040FDF7B3
:102B50002ABC10BD0038014060E20020FEE7000002
:102B600010B501220549064801F0C4FF05490028B7
:102B7000087001D04FF0FF3010BD000012E10020BE
:102B800060E7002011E100207047000010B5034607
:102B90000020254C254AB3F5006F0BD1D2F88830C0
:102BA00003F44003B3F5400F08D0B3F5000F07D08E
:102BB000002B04D113681B011FD419E01C4810BD61
:102BC00013689B0114D5D368DB0311D5D068C0F31B
:102BD0000210401CB1FBF0F1D068C0F30623D068AE
:102BE000C00E01D1D06818E05943B1FBF0F010BD20
:102BF00011684905FBD5204610BD1369DB03F7D5E5
:102C0000D068C0F30210401CB1FBF0F11069C0F3B2
:102C100006231069C00EE7D11069800301D5112089
:102C2000E2E70720E0E700000024F4000010024083
:102C300068FF1F002DE9F041444C05468846E068D6
:102C40000026810728680DD0E16801F00301814268
:102C500016D1A8B1E0686968C0F30210401C884230
:102C60000ED120E0012804D0022805D0032807D186
:102C700008E02168890701E021684905002907DB90
:102C800001265FE02168890302D421684903F5E742
:102C9000E1686A686FF00F0321F0730103EB021221
:102CA00011430143E160206820F080602060FDF75F
:102CB000BDFC074605E000BFFDF7B8FCC01B0228BD
:102CC00037D820680001F7D4B8F1000F18D0B8F158
:102CD000010F1DD0287D4FF07E41400801EB406080
:102CE000A96840EA01202169194A1140084320617E
:102CF000206840F080602060FDF798FC07461AE0ED
:102D0000A868297B000240EAC1602169114AECE70A
:102D1000288A1149400801EB4050A96840EA012087
:102D200021690E4AE1E700BFFDF780FCC01B0228C5
:102D300001D9032606E020680001F5D52069A969BC
:102D4000084320613046BDE8F081000000100240D9
:102D5000FF80FFF9FF80FF070000E0FFFF809FFF7B
:102D6000F8B51C4D06460024A86DC00002D5FDF73D
:102D700027FD0DE0A86D40F08050A865A86D00F01B
:102D800080500090FDF71CFDA96D21F08051A965D0
:102D9000B0F5007F04D0802E07D94FF003040AE07D
:102DA000802E08D9A02E01D804E001D1022402E02F
:102DB000702E00D101240848016821F00701214349
:102DC0000160006800F00700A04201D00120F8BDBA
:102DD0000020F8BD00100240002002402DE9F04123
:102DE000044600680025C168490617D4691EC16001
:102DF000FDF71CFC06464FF47A78032708E000BF75
:102E0000FDF714FC801B404502D9032584F821708E
:102E10002068C068400601D4032DF1D12846BDE8E2
:102E2000F08100002DE9F0410646134800250168B5
:102E300021F080010160041F20684FF00307800625
:102E400007D43046FEF7EAFB90B186F821700325DF
:102E50000EE0206820F0200020603046FEF7DEFB08
:102E600010B186F821700325206840F02000206012
:102E70002846BDE8F08100000C2800400148FEF71C
:102E8000E1BC000078E1002010B585B00446372091
:102E9000CDE9001040200290002003904FF48060A4
:102EA00004906946204600F0F0FA41F2883237215A
:102EB000204600F07DF905B010BD000010B50446B5
:102EC0000A4885B001432920CDE900104020029036
:102ED000002003904FF4806004906946204600F083
:102EE000D4FA204600F01CFA05B010BD0000108096
:102EF00010B585B004461020CDE9001040200290A6
:102F0000002003904FF4806004906946204600F052
:102F1000BCFA41F288321021204600F049F905B090
:102F200010BD000030B585B0002405460094019422
:102F30004FF480600294CDE903406946284600F0D2
:102F4000A4FA0B484FF4FA510068B0FBF1F041F2DB
:102F500088314843401E03D24FF0004005B030BDD9
:102F6000696B0906F6D5C520A8632046F6E7000080
:102F70000CE1002010B585B004464FF4D5700090E8
:102F80000820019040200290002003904FF48060C0
:102F900004906946204600F078FA204600F026FAB0
:102FA00005B010BD10B585B004461220CDE9001063
:102FB00040200290002003904FF480600490694606
:102FC000204600F062FA41F288321221204600F0D9
:102FD000EFF805B010BD10B585B004461120CDE95D
:102FE000001040200290002003904FF48060049075
:102FF0006946204600F049FA41F288321121204604
:1030000000F0D6F805B010BD10B585B00446072015
:10301000CDE9002040200290002003904FF4806012
:1030200004906946204600F030FA41F288320721C8
:10303000204600F0BDF805B010BD10B585B00446BF
:1030400000210220CDE90010C020CDE902014FF49B
:10305000806004906946204600F017FA204600F090
:1030600037F905B010BD10B585B004460920CDE98B
:103070000010C0200290002003904FF48060049064
:103080006946204600F001FA204600F021F905B01B
:1030900010BD10B585B004460D20CDE900104020CC
:1030A0000290002003904FF480600490694620460F
:1030B00000F0EBF941F288320D21204600F078F85B
:1030C00005B010BD30B585B00C4605460021032083
:1030D000CDE900104020CDE90201000104906946CD
:1030E000284600F0D2F922460321284600F03AF99A
:1030F00005B030BD10B585B0044600210C20CDE9E7
:1031000000104020CDE902010001049069462046EC
:1031100000F0BBF9034A0C21204600F049F805B045
:1031200010BD000000E1F50510B585B0044619207A
:10313000CDE9001040200290002003904FF4806001
:1031400004906946204600F0A0F941F28832192126
:10315000204600F02DF805B010BD10B585B004462E
:103160001820CDE9001040200290002003904FF479
:10317000806004906946204600F087F941F2883269
:103180001821204600F014F805B010BD0A6842620C
:103190004A688262D1E902231A43D1E904310B4320
:1031A000C16A1A4321F0F7011143C1620020704740
:1031B000454B10B51B684FF4FA54B3FBF4F353437B
:1031C0005B1E02D24FF0004010BD426B12F0450F63
:1031D000F6D01205F4D4426B520703D50421816363
:1031E000084610BD426BD20702D00121816305E081
:1031F000C52282630269D2B28A4201D0012010BD89
:10320000002100F023F93149084201D1002010BD0E
:10321000002802DA4FF0007010BD410001D54020B7
:1032200010BD810001D5802010BDC10002D54FF432
:10323000807010BD010102D54FF4007010BD410136
:1032400002D54FF4806010BDC10102D54FF400607B
:1032500010BD010202D54FF4805010BD410202D5CD
:103260004FF4005010BD810202D54FF4804010BDD4
:10327000C10202D54FF4004010BD410302D54FF406
:10328000003010BD810302D54FF4802010BDC10372
:1032900002D54FF4002010BD010402D54FF4801078
:1032A00010BD410402D54FF4001010BD810402D5B9
:1032B0004FF4800010BD000702D54FF4000010BD90
:1032C0004FF4803010BD00000CE1002008E0FFFD4D
:1032D00012494FF4FA520968B1FBF2F141F2883217
:1032E0005143491E02D24FF000407047426B12F02A
:1032F000450FF6D01205F4D4416B490703D50421DC
:10330000816308467047416BC90703D0012181637F
:1033100008467047C5218163002070470CE10020FA
:103320000F494FF4FA520968B1FBF2F141F28832C9
:103330005143491E02D24FF000407047426B12F0D9
:10334000450FF6D01205F4D4416B490703D504218B
:10335000816308467047C5218163002070470000E3
:103360000CE1002030B5204B4FF4FA541B68B3FB3E
:10337000F4F341F2883463435B1E02D24FF0004005
:1033800030BD446B14F0450FF6D02405F4D4436BE4
:103390005B0703D504218163084630BD436BDB071F
:1033A00002D00121816303E00369DBB28B4201D0CB
:1033B000012030BDC5218163002100F047F810F4E1
:1033C000604F04D0410406D54FF4005030BD000CCE
:1033D0001080002030BD000402D54FF4805030BD75
:1033E0004FF4803030BD00000CE1002014494FF450
:1033F000FA520968B1FBF2F141F288325143491E99
:1034000002D24FF000407047426B12F0450FF6D0E9
:103410001205F4D4416B490703D5042181630846A2
:103420007047416BC90703D001218163084670478B
:10343000416B490601D5402181630020704700009F
:103440000CE10020006800F0030070470844406968
:10345000704770B51943DDE904463443069D2143A6
:1034600029431143426847F6FF639A430A43426087
:10347000002070BD10B5032101600220FCF7E0FFC1
:10348000002010BDD0F8800070470A688260D1E942
:1034900001231A43D1E903310B43C1681A436FF387
:1034A0000B011143C160002070470968C0F880100B
:1034B0000020704710B5064C01202070FCF72CFF4F
:1034C00018B9207820F001002070207810BD00008D
:1034D00010E1002010B5846A40F23A5021688863F8
:1034E0002046FEF799F9012184F834100021216368
:1034F000062801D0052805D12068FFF7FBFDA16B48
:103500000843A063A06B0028204602D0FEF7A5F870
:1035100010BDFEF79EF810BD10B5846A40F23A5017
:10352000216888632046FEF777F9012184F834107A
:1035300000212163062801D0052805D12068FFF766
:10354000D9FDA16B0843A063A06B0028204602D0E0
:10355000FEF783F810BDFEF77CF810BD10B590B0F3
:1035600004460120ADF838002068FFF76BFF002803
:1035700054D0606C032842D02068FFF75EFD00281D
:103580004AD100212068FFF761FF606704212068AD
:10359000FFF75CFFA06708212068FFF757FFE0678F
:1035A0000C212068FFF752FFC4F88000606C0328EC
:1035B00025D00EA92068FFF785FD00282CD1606C6E
:1035C00003281CD0BDF83800206501042068FFF7EF
:1035D0004AFD002820D100212068FFF737FF6066F0
:1035E00004212068FFF732FFA06608212068FFF75A
:1035F0002DFFE0660C212068FFF728FF20670421DB
:103600002068FFF723FF000DE06403A92046FEF7C2
:1036100025F830B14FF0805010B010BD4FF08060F1
:10362000FAE7B4F85000002302042068FFF7ECFC2E
:103630000028F1D104F1100007C88DE8070094E8D4
:103640000F00FFF706FF0020E6E700002DE9F84F26
:103650000026044600963546B0460068FFF762FC37
:10366000002827D12068FFF785FC4FF0805B4FF0E2
:1036700001094FF6FF7748B1A6642068FFF752FCB6
:10368000002817D1A06C012802D020E0C4F848908F
:1036900000212068FFF7F8FB58B918E000212068E6
:1036A000FFF7F2FB002805D151462068FFF706FC22
:1036B00010B1584600F024B800212068FFF7C6FE7C
:1036C00005464FEAD0780098401C009002E0DFF8F1
:1036D0002CA00098B84202D2B8F1000FDED00098BA
:1036E000B84202D34FF08070E4E7680002D5C4F816
:1036F000449000E066640020DCE70000000010C198
:1037000018BCBDE8E08F000070B5064C05460120EE
:103710002070FCF70DFE18B92846FFF7CBFE20708D
:10372000207870BD10E1002010B5124888B0144612
:103730000078C00702D0032008B010BDC1B1012934
:1037400005D0022908D003290CD00420F4E76846EC
:10375000FCF7DCFD06980AE06846FCF7D7FD079801
:10376000208005E06846FCF7D1FD0798400A2060FC
:103770000020E1E710E1002070B51D46164608461E
:103780000124A31E2A463146FCF7E8FD28B900BFF4
:10379000FCF7C2FD0028FBD10024204670BDFFF7D6
:1037A00089BE000070B51D46164608460124A31EBA
:1037B0002A463146FCF7E4FD28B900BFFCF7ACFD12
:1037C0000028FBD10024204670BD00000A460146B7
:1037D0004FF47A730148FEF77FBC0000FCE1002043
:1037E000F8B515460E460B460092044600224FF4EB
:1037F000C05100F019F888B93346002280212046D4
:10380000009500F079F848B9334600224FF4C061C2
:103810002046009500F008F8002804D0206E40F003
:10382000200020660320F8BD2DE9F84F9946174681
:103830000E4604460A9DFCF7F9FE411BA9EB010563
:10384000FCF7F4FE804629484FF4C06A0068C0EBDC
:10385000C00000EB8000000D684300903FE056453B
:1038600001D107B9007BB9F1FF3F38D0FCF7DEFE8C
:10387000A0EB0800A84203D215B1009860B32CE079
:103880002068416821F0E00141606068B0F5827F06
:103890000BD1A068B0F5004F02D0B0F5806F04D115
:1038A0002068016821F040010160A06AB0F5005F66
:1038B00009D12068016821F4005101602068016885
:1038C00041F400510160012084F85D00002084F87B
:1038D0005C00032000F00CB80025401E009020681A
:1038E00081683140B942BAD10020F3E70CE10020F1
:1038F00018BCBDE8E08F00002DE9F8431E46914654
:1039000088460446089DFCF791FE401B351AFCF7DB
:103910008DFE074625480068C0F3CB30684338E089
:10392000701C37D0FCF782FEC01BA84203D215B131
:10393000009860B32CE02068416821F0E00141600C
:103940006068B0F5827F0BD1A068B0F5004F02D05F
:10395000B0F5806F04D12068016821F0400101605A
:10396000A06AB0F5005F09D12068016821F4005118
:1039700001602068016841F400510160012084F871
:103980005D00002084F85C000320BDE8F88300257A
:10399000401E00902068816838EA010004D00021B0
:1039A0004945BDD10020F0E70121F9E70CE10020F5
:1039B0007047FCF741BE0000F0B5ADB0442117A838
:1039C000FCF73BFC142128A8FCF737FC5C21684677
:1039D000FCF733FC012418201C94179060201F90E2
:1039E00000250226CDE91D45CDE921640727CDE953
:1039F000257628202796CDE9234017A8FDF7FAFA67
:103A00000F2028900320CDE929052B95042128A813
:103A10002C95FDF7E9F90C480090089580066502A1
:103A2000129016951020CDE9024001940004CDE9D2
:103A30000660CDE904766846FDF778F82846FCF77D
:103A40008BFE2DB0F0BD000001000A000D4801689A
:103A500041F4700101600C48016841F0010101600E
:103A6000002181600268094B1A4002608214C26022
:103A7000026822F48022026081610249C003803919
:103A80000860704788ED00E000100240FFFFF6EA92
:103A900090F82410C90706D001684A68836A22F4A6
:103AA00000321A434A6090F82410890706D501684D
:103AB0004A68C36A22F480321A434A6090F824109C
:103AC000490706D501684A68036B22F480221A432D
:103AD0004A6090F82410090706D501684A68436BCC
:103AE00022F400421A434A6090F82410C90606D511
:103AF00001688A68836B22F480521A438A6090F8C6
:103B00002410890606D501688A68C36B22F4005226
:103B10001A438A6090F82410490611D501684A6852
:103B2000036C22F480121A434A60016CB1F5801FC5
:103B300006D101684A68436C22F4C0021A434A6005
:103B400090F82410090606D501684A68806C22F4B2
:103B5000002202434A607047F8B500260446C66753
:103B6000FCF764FD0546206800686FF07E4700079B
:103B700008D52B4600224FF400112046009700F094
:103B800033F960B92068006840070AD52B46002247
:103B90004FF480012046009700F026F908B1032079
:103BA000F8BD20206067A06784F870600020F8BD31
:103BB00010B5806A0021A0F85A10A0F85210FEF744
:103BC00067FB10BD01680A6822F490720A60016800
:103BD0008A6822F001028A60202181670021016643
:103BE000704700002DE9F0410446016880682269B1
:103BF000E3691043626900251A431043724F0A6853
:103C0000724B1A4002430A6020684168E26821F45E
:103C10004051114341602168A069B94201D0226A34
:103C200010438A6822F4306202438A60684923683C
:103C300068488B420DD1D0F8880010F0030006D000
:103C4000012847D0022843D0032830D144E0012185
:103C50002EE061498B420BD1D0F8880010F00C00A7
:103C600034D0042836D0082832D00C281FD133E0B5
:103C70005A498B420BD1D0F8880010F0300025D083
:103C8000102827D0202823D0302810D124E0BB4290
:103C90000DD1D0F8880010F4406017D0B0F5806FD7
:103CA00018D0B0F5006F13D0B0F5406F14D01021CC
:103CB0004B4A00264FF40040BB422FD171B102297C
:103CC0000FD004290FD0082975D10FE00021EFE7AC
:103CD0000221EDE70421EBE70821E9E7FDF714F9FC
:103CE00003E0104602E0FDF733F9E0B3626802EB4F
:103CF000420181425FD8B0EB023F5CD8010E000266
:103D000073084FEA3207C01959410023FCF75AFAE9
:103D1000344AA0F5407191424FD94CE0E3694FF627
:103D2000EF77834229D1092945D2DFE801F0050860
:103D30000B440D4444441000FDF7E6F806E0FDF79F
:103D4000F5F803E0104602E0FDF702F958B1410032
:103D5000606801EB5001B1FBF0F080B2A0F11001FE
:103D6000B94228D800E02AE04FF6F0710140C0F3D4
:103D7000420001432068C16021E009291BD2DFE82D
:103D800001F005080B1A0D1A1A1A1000FDF7BCF8FD
:103D900006E0FDF7CBF803E0104602E0FDF7D8F8A7
:103DA00068B1616800EB5100B0FBF1F080B2A0F1A6
:103DB0001001B94201D9012501E02168C8602666D9
:103DC00028466666BDE8F08100800040F369FFEF99
:103DD000003801400010024000440040004800400C
:103DE0000024F400FFFC0F002DE9F0479A46174627
:103DF0000E4604464FF000094FF02008089D39E0B8
:103E0000681C37D0FCF712FCA0EB0A00A84222D8AD
:103E10000DB32068016849072CD5C069C04300056F
:103E200028D421684FF4006008622068016821F4FA
:103E3000D07101602068816821F001018160C4F8BF
:103E40007480C4F87880C4F87C8000BF84F87090D7
:103E50000320BDE8F0872068016821F4D07101607B
:103E60002068816821F001018160C4F87480C4F881
:103E70007880EBE72068C06936EA000004D00020B3
:103E8000B842BDD00020E4E70120F9E70148FEF781
:103E900001BA000060E20020FEE70000014A02498A
:103EA00000F023B89152000820E100200907090E14
:103EB000002804DB00F1E02080F80014704700F0D7
:103EC0000F0000F1E02080F8141D704702E008C8E0
:103ED000121F08C1002AFAD170477047002001E084
:103EE00001C1121F002AFBD170472DE9F04116468F
:103EF0000F460446002503E03946B047641C6D1C9C
:103F000020780028F8D12846BDE8F08110B5044695
:103F10000020E070401E2063204601F04AFB08B1FB
:103F2000042010BD04F2322001F0E2FAA0F52A418B
:103F3000553901D0032010BD94F83400E92805D08C
:103F4000EB2814D194F83600902810D104F16A00BF
:103F500001F0C3FA0749B1EB002F06D004F1860047
:103F600001F0BBFA0449884201D1002010BD0220B3
:103F700010BD0000004641544641543300E0401C4F
:103F800002780AB18A42FAD1D0B27047F0B5002265
:103F9000144D134605EB021426685EB10768BE4255
:103FA00009D166688768BE4205D1A4684669B442F3
:103FB00004D000E00123521C022AEBD3022A01D0D4
:103FC00069B904E04BB9022907D01220F0BD05EB16
:103FD00002108089B0F5807F01D00020F0BD102054
:103FE000F0BD000094E9002030B50021054B0C46DF
:103FF00003EB01121568854200D11460491C0229A7
:10400000F6D330BD94E900200268490AC06A52899B
:10401000B1FBF2F1001D04C81AB1914203D3891A11
:10402000F8E7002070470068084470478269891EDD
:10403000921E8A4201D800207047C26A408901FB63
:10404000002070472DE9F05F82460C4601F11A000E
:1040500001F04EFA78BB2078012700F03F00401EA7
:1040600000EB8001DFF8589001EBC00500264FF609
:10407000FF7B00BF19F80600204401F039FA8046A2
:104080006FB1FF2D17D200F05FFF07463AF8150019
:104090006D1C00F059FF87420DD1474601E0D8451D
:1040A00009D1761C0D2EE5D32078400606D52FB118
:1040B0003AF8150010B1002000F004B80120FBE729
:1040C0009059000830BCBDE8C09F2DE9F04105685B
:1040D0000F00804606D001F02DF9022809D20120F8
:1040E000BDE8F0812E6916B1A869B04207D8012653
:1040F00005E0411CF4D0A9698142F1D83E4634461E
:10410000A869641CA04202D80224022E0AD32146C8
:10411000404601F00FF938B10128E1D0411CDFD051
:10412000B442EDD10020DBE74FF0FF3632462146A6
:10413000284601F057FA30B957B122463946284689
:1041400001F050FA20B101280FD001242046C7E722
:104150002C61D5E90501891E884201D8401E68619D
:10416000287940F001002871F0E73446EEE70000BE
:104170002DE9F84F824600680F680024C66888461B
:104180002546785D6D1C20282AD32F2823D05C2853
:1041900021D0FF2C49D2A0F181017D290BD8795D76
:1041A0006D1C01EB0020A1F1400280B23F2A02D336
:1041B00080397F2939D2012100F0C5FE5FEA00096C
:1041C00033D0B9F1800F12D2014675A0FFF7D6FEA9
:1041D00058BB0CE06D1C795D2F29FBD05C29F9D010
:1041E0007A19C8F80020202805D204250FE026F807
:1041F0001490641CC5E7002509E000BF06EB4400ED
:1042000030F8020C202801D02E2802D1641E002C88
:10421000F4D1002026F814003CB10B2220210AF131
:10422000240001F0BFF9002703E0062000F0C2B827
:104230007F1C36F817002028FAD02E28F8D01FB19E
:1042400045F0030500E0641E2CB106EB440030F895
:10425000020C2E28F7D14FF000094FF0080BCDF8D3
:10426000009000BF36F8170007F101075FEA000869
:1042700024D0B8F1200F04D0B8F12E0F04D1A742FA
:1042800002D045F00305EDE70098584501D2A7425A
:1042900019D1BBF10B0F0FD0A74201D045F0030598
:1042A0000CD84FF0080000904FEA896027464FF085
:1042B0000B0B4FEA1069D5E745F003059AF8240087
:1042C000E52849D04BE04046B8F1800F07D300F015
:1042D0003BFE002100F037FE804645F00205B8F1B4
:1042E000FF0F13D90099ABF10100814204D345F0CF
:1042F0000305CDF800B0B5E70AEB01004FEA18223C
:1043000080F824200098401C00901CE0B8F1000FB9
:1043100004D0014625A0FFF731FE20B14FF05F0821
:1043200045F003050FE0A8F14100192802D849F033
:10433000020908E0A8F16100192804D8413049F0C9
:1043400001091FFA80F8009A0AEB020181F8248023
:104350000098401C009085E705218AF82410BBF1E5
:10436000080F03D14FEA89604FEA1069C9F3810051
:10437000032803D06FEA0901890701D145F002053E
:10438000A90709D409F00301012901D145F010055D
:10439000012801D145F008058AF82F50002045E793
:1043A000222A3A3C3E3F7C7F000000002B2C3B3D04
:1043B0005B5D000018BCBDE8E08F0000401E0228D5
:1043C00012D20A4901EB00118889B0F5807F05D02F
:1043D00008B1401E80B2888110B103E00020FAE7E6
:1043E00000200860002070470220704794E90020F8
:1043F0002DE9F04704460021D0F8009000F0CFF9F5
:1044000000285BD1FF25471EA84627634846E1697F
:1044100001F0CFF8060050D1216A087850B1CA7A6D
:10442000E52802F03F02A2713FD0130704D50F2AFE
:104430003BD105E0042640E00F2A01D0E5B120E0A1
:1044400094F82F20520632D4420606D591F80D80FA
:1044500000F0BF00626905462263A84209D14A7B89
:10446000424506D1D9F80C00FFF7ECFD08B16D1EEE
:1044700000E0FF25EDB21AE0084601F0C5F940451D
:104480001BD094F82F00C0070FD1D4F8201004F1EE
:1044900024000B2211F8013B10F8015B5B1B521E3C
:1044A00002D0002BF6D000E03BB1FF2527630021AE
:1044B000204600F005F80600A8D03046BDE8F08799
:1044C0002DE9F047054647690468C06989462037E9
:1044D00010B1B7F5001F02D30420BDE8F087F9053D
:1044E00060D1401CE861A9694FF0000829B16089DA
:1044F000401E10EA572F05D054E02089B0EB571F1B
:104500001DD94FE0284600F015FF064601281BD9AB
:10451000701C33D0A069B0423ED8B9F1000F0ED064
:104520002846A969FFF7D1FD06000BD0012E0BD05C
:10453000701C23D0204601F0B9F9F8B906E0C5F89F
:104540001C80C9E70720C8E70220C6E74FF40072C5
:10455000002104F1340001F025F84FF00008314645
:104560002046FFF763FD4FF0010920630DE000BF17
:1045700084F80390204601F099F908B10120ACE7D6
:10458000206B08F10108401C206361894145EFD888
:10459000216BA1EB0800206331462046AE61FFF796
:1045A00045FDE861C7F30800204434306F6128629C
:1045B000002092E72DE9F04F0446D0F8009090F8E3
:1045C0002F0089B010F0A00F03D0062009B000F032
:1045D000E3B80025D9F80C0000E06D1C30F8151088
:1045E0000029FAD104F124010C226846039100F05D
:1045F000CFFF9DF80B00C00719D0402084F82F0092
:10460000012633466946D9F80C20039800F04CFE89
:104610002046FFF7EDFE10B9761C642EF1D3642E10
:104620000FD00428D2D19DF80B0084F82F009DF8FC
:104630000B00800707D50D200C35B5FBF0F56D1C80
:1046400002E00720C2E7012500212046276800F08C
:10465000A6F888B900263846E16900F0AAFF58B9E3
:10466000206A0078E5280AD048B1002601212046BA
:10467000FFF726FF0028EED0042812D012E0761CA7
:104680002846AE42F2D1451E059567D06169684261
:1046900001EB4011204600F082F85FEA000803D0E9
:1046A00076E00720804673E0039801F0ADF84FF6FE
:1046B000FF7B07904846E16900F07BFF5FEA000856
:1046C00066D1D9F80C0006900598D4F82080C0B2C5
:1046D0000490079988F80D100F2188F80B1000211D
:1046E00088F80C1008F11A0001F08AF80498DFF835
:1046F000A4A0401E00EB800101EBC006002701E0F2
:104700005D4503D0069830F81650761C1AF807104D
:1047100001EB0800294601F073F805B95D467F1CDE
:104720000D2FEDD35D4505D0069830F8160008B181
:10473000049803E0049840F04000049088F80000DA
:10474000012189F8031000212046FFF7B9FE5FEA36
:1047500000081DD10598401E0590ABD14846E1697F
:1047600000F027FF5FEA000812D120220021206A12
:1047700000F018FF0B22206A039900F009FF94F85B
:104780002F00216A00F018000873012089F8030047
:1047900040461BE79059000830BCBDE8C08F2DE9AA
:1047A000F04107680E460546B1F5001F36D2F00607
:1047B00034D16E61AC6824B93878032805D3BC6A5B
:1047C0001CB178894FEA402812E03889B0EB561FB7
:1047D00024D9B86A12E0284600F0ACFD0446401C1B
:1047E0001AD0022C1AD3B869A04217D9A6EB080632
:1047F00046452146EFD23846FFF718FCC5E906408A
:1048000060B100EB5620E861C6F30800384434304C
:1048100028620020BDE8F0810120FBE70220F9E7D3
:10482000084910B50B5C002253B901220A540A183A
:1048300001EB8000127A4068016810468847024602
:10484000104610BDB4E9002030B4054C231804EB29
:1048500080001B7A406804691846A44630BC604753
:10486000B4E9002030B4054D2C1805EB8000247A03
:10487000406885682046AC4630BC6047B4E90020FB
:10488000044A111802EB8000097A40684268084621
:1048900010470000B4E9002030B4054D2C1805EB9A
:1048A0008000247A4068C5682046AC4630BC60472A
:1048B000B4E9002038B5044600F0FEFA00280CD117
:1048C0006946204601F01BF8002806D12069FFF751
:1048D00075FD002801D10021216038BD2DE9FE4F72
:1048E0000D460446694601F00AF8070064D1677D69
:1048F000002FFBD1E06A4FF0020A4FF0010804F1EB
:10490000300B00286AD0691C29D0E068A84200D288
:104910000546A561002D4FD02046691EFFF774FBA8
:104920000146E0610098FFF781FB002875D00099EF
:104930006D1E4A89521E02EA55221518208BC005A9
:10494000E9D0226AAA42E6D0207D00063BD548780D
:1049500001235946FFF7A0FF00286ED12FE002C8BF
:104960000191A16883460225F1B10026AD1C029198
:1049700089462046761C00F0DDFC014601284CD912
:10498000481C5AD009F101008142F1D001988542BA
:1049900006D8CBF800600BF10400029A04C08346ED
:1049A000009880698842E0D8E06A056001988542F5
:1049B00003D80021CBF8001097E0112795E0207D67
:1049C00000F07F002075009801232A464078594660
:1049D000FFF748FF002830D1256286E0E068A84252
:1049E00003D2217D890700D405464FF00009A06954
:1049F000C4F8189005B3009949894E0270B1691E38
:104A0000B1FBF6F2401EB0FBF6F18A4206D3711EEE
:104A10008843A0612D1AE1690DE04FE0A16849B912
:104A200000212046FFF751FB0146012846D0481CD3
:104A300055D0A160E161D9B927E050E0A069AD1B74
:104A40003044A061207D8007204605D5FFF73DFB5F
:104A5000010004D100250DE000F06CFC0146481C6B
:104A60003DD001292AD900988069884226D9E16180
:104A7000B542E3D8A0692844A061E80505D00098B4
:104A8000FFF7D4FAD0B100EB5529E168A06988425C
:104A900004D9E060217D41F040012175C00524D09A
:104AA000226A4A4521D0207D000610D500980123B6
:104AB00059464078FFF7F0FE88B904E084F815A065
:104AC000022000F014B8207D00F07F0020750098CF
:104AD00001234A4640785946FFF7C4FE18B184F8CE
:104AE00015800120EDE7C4F820903846E9E71EBCA8
:104AF000BDE8E08F2DE9F74181B090460298009023
:104B0000684600F078FC040003D50B2004B0BDE833
:104B1000F0810D4E002756F824501DB12846FFF7AE
:104B200063FA2F700198002800D0077046F824001F
:104B300002D0B8F1010F01D00020E7E7002201A95F
:104B400002A800F041FAE1E71CE100202DE9F7435B
:104B5000ADF5147D05000BD002F03F0632466946E4
:104B600095A800F031FA04004FF0000805D0EFE0FE
:104B700009200DF5177DBDE8F083009810A901907C
:104B8000C16001A8959900F049FB04000ED19DF881
:104B90003300000601D5062408E0700801D0012189
:104BA00000E0002101A8FFF7F1F9044616F01C0F00
:104BB0005DD04FF00109C4B1042C10D10020674929
:104BC00002E0401C022804D201EB00121268002A05
:104BD000F7D1022807D001A8FFF7ECFC044646F005
:104BE00008065CB1B4E01224B2E09DF80A0010F0AF
:104BF000110F47D1700701D50824A9E0300747D528
:104C000000F0F7FB0746099839460E3000F0F0FD3A
:104C100009983946163000F0EBFD09992020C8723A
:104C20000999009800F046FC07460022099900986F
:104C300000F0CAFD099800211C3000F0D9FD009950
:104C400081F8039017B3D1F830900022394601A8BB
:104C500000F03DFD04007BD14946009800F0A9FC1E
:104C600004000098A7F1010707610DD070E0ECBBCC
:104C70009DF80A00C10601D5042469E0B10703D5F7
:104C8000C00701D0072463E0300701D546F0400695
:104C90000098006B68620998A862700801D0012131
:104CA00000E0002101A800F0C5FB2861B8B3099914
:104CB000009800F0FFFBA86009981C3000F00DFC84
:104CC000C5F82C80E86000992960009905F1300052
:104CD0004FF40072C988A9802E7585F81580C5F833
:104CE000208000218146C5F8188000E030E000F007
:104CF00059FCB0062ED5EE6866B3AE610098A9687F
:104D0000408947020FE0284600F014FB01460128C5
:104D100000D80224481C03D0F61B24B105E01BE098
:104D20000124F61B01E0BE42EDD8E96184B9F0052B
:104D300010D00098FFF77AF970B100EB56222A6282
:104D40000098012349464078FFF78CFD10B10124FB
:104D5000C5F8008020460CE70224F9E794E900201A
:104D60002DE9FE4F884600211960994615460446F4
:104D700002A900F0C4FD002812D1607D00280FD1E7
:104D8000207DC0070BD0E168A0690127081A4FF009
:104D9000020A04F1300B854200D9054684E0072061
:104DA00000F087B8A169C80566D102984089401E05
:104DB00010EA512611D129B1E06A28B12046FFF747
:104DC00023F905E0A06803E02046E16900F0B2FAAB
:104DD00002281BD3411C4AD0E061E1690298FFF729
:104DE00025F998B130440190680A009025D00299C5
:104DF00032184889824201D9801B0090DDE90032D7
:104E000048784146FFF72EFD88BB03E084F815A0E3
:104E10000220C5E7207D00060CD5216A0198081AFA
:104E20000099884206D208EB40204FF400725946A0
:104E300000F0AEFB009846022CE0226A0198824204
:104E400018D0207D00060AD50298012359464078E3
:104E5000FFF722FD58B9207D00F07F0020750298F1
:104E6000012359464078019AFFF7FCFC10B16775A1
:104E7000012095E701982062208BC0F30800C0F55F
:104E80000076AE4200D92E460119324640463031F6
:104E900000F07EFBA069B0443044A061D9F8000066
:104EA0008119AD1BC9F80010002D7FF47BAF0020E5
:104EB00076E71EBCBDE8E08FF8B50446694600F011
:104EC0001EFD00280ED1217D4A060BD508060ED501
:104ED0000098226A0123407804F13001FFF7DCFCDE
:104EE00008B10120F8BD207D00F07F00207500F0A2
:104EF00080FA0646616A009800F05BFB0028F1D159
:104F0000A56A2946E87A40F02000E872A268206885
:104F100000F05AFC05F11C00E16800F069FC314624
:104F200005F1160000F064FC002105F1120000F00C
:104F300067FC00980121C17000F074FC217D01F034
:104F4000BF012175F8BD704730B5B0F5805F01D263
:104F50001B4900E01B4931F8022B002A15D0904272
:104F600013D331F8024B230AE5B252FA84F4844297
:104F700021D9092B09D2DFE803F005090E11131519
:104F800017191B00801A31F8100030BD811A01F08A
:104F90000101401A00E0103880B230BD2038FBE734
:104FA0003038F9E71A38F7E70830F5E75038F3E713
:104FB000A0F5E350F0E7002BCDD101EB4501CAE7A6
:104FC000BA590008AC5B00082DE9FF410027904664
:104FD0000E460F6000F00FFA050003D50B2004B059
:104FE000BDE8F0818A4850F825409CB134602078B3
:104FF00008F0FE0620B16078FFF742FCC1070BD035
:105000002770E8B2B8466070FFF70AFCC10708D005
:105010000320E4E70C20E2E70EB1400704D40020AF
:10502000DDE71EB1400701D50A20D8E7002631464A
:105030002046FEF76BFF022822D100254FEA0D071C
:1050400004EB051090F8F61100F5F97019B108306D
:1050500000F043FA00E0002047F825006D1C042D05
:10506000EED3002557F8256036B131462046FEF7CD
:105070004DFF022801D203E003206D1C042DF1D363
:10508000042809D002286DD204F13F0000F030FA64
:10509000B0F5007F66D101E00120A0E704F14A00ED
:1050A00000F026FA18B904F1580000F016FAE06191
:1050B00094F84450A570012D01D0022D52D14543E2
:1050C00094F841006081E8B3411E08424AD104F1DE
:1050D000450000F00DFA2081000743D104F147009C
:1050E00000F006FA070004D104F1540000F0F5F9CD
:1050F000074604F1420000F0FBF9010032D0238999
:10510000481900EB131297422CD3B81A6789B0FBE9
:10511000F7F0B8B103274FF6F57C604500D80227B9
:1051200040F6F57C604500D80127801C3244E262DD
:105130003144A061C4E90861032F15D013B129449B
:10514000A16200E00EE0022F1FD000F0010100EB91
:10515000400001EB500000BFE16900F2FF10B1EB2D
:10516000502F14D20D203AE704F15E0000F0C0F990
:105170000028F7D120890028F4D104F1600000F064
:10518000ACF9A062A0698000E6E74000E4E74FF0D8
:10519000FF306061206180202071032F2CD104F149
:1051A000640000F0A5F9012826D1711C204600F00A
:1051B00000FA08BB84F8048004F2322000F098F969
:1051C000A0F52A41553917D104F1340000F085F9D2
:1051D0001049884210D104F5067000F07EF90E499E
:1051E000884209D104F5077000F077F9606104F591
:1051F000087000F072F9206105492770091F0888BE
:10520000401C0880E0802046FEF7EEFE07E7000025
:105210001CE10020525261417272416173B5044633
:105220000568019801E0401C019001782F29FAD00F
:105230005C29F8D00021A16001980078202806D2CE
:10524000802084F82F002046FFF7A9FA7CBD01A931
:105250002046FEF78DFF0028F8D12046FFF7C8F85A
:1052600094F82F1028B10428F0D14907EED4052076
:105270007CBD4907FCD4A079C006F8D5A08AC0F34C
:10528000080041192846343100F014F9A060DEE727
:1052900013B54FF47A73012269460248FDF71AF9F3
:1052A00000981CBD60E200207CB516461C460546F1
:1052B0000B2200F06DF9052C11D91D4A0CE00021DC
:1052C000B61C2346044663F35F044008E30300D59D
:1052D0005440491C1029F4D330880028EFD107210D
:1052E0004FEA0D0304F00F003030392800D9C01DFB
:1052F0005854491E2409F5D17E20002258544C1ED2
:1053000006E081387D2802D8A24206D0521C521CE9
:105310008A4202D2A85C2028F3D1082902D2585C24
:10532000491C00E02020A854521C082AF5D37CBD5B
:10533000211001002DE9F04104680D4602290BD32C
:10534000A069A84208D920784FF0FF36012807D07D
:1053500002282BD0032839D001263046BDE8F08141
:10536000606A05EB550700EB5721204600F021F954
:105370000028F2D1C7F3080020447F1C90F8348045
:10538000606A00EB5721204600F013F90028E4D1B1
:10539000C7F30800204490F8341048EA0120E907D8
:1053A00001D00609D9E7C0F30B06D6E7606A00EB27
:1053B0001521204600F0FDF80028CED1E8B204EB1C
:1053C0004000343000F094F80646C6E7606A00EB0F
:1053D000D511204600F0EDF80028BED140F2FF10B4
:1053E00000EA85002044343000F077F820F0704661
:1053F000B3E70020704710B504464FF0FF30226835
:10540000002A13D0114600E0491C0B78202B0ED344
:105410003A2BF9D112F8013B303B0A2B06D28A42D3
:1054200004D1002B02D1491C1846216010BD002078
:1054300010BD0000F0B502461D4BD2F80050002010
:1054400003EB00142668AE4207D166689768BE4237
:1054500003D1A4685669B44202D0401C0228EFD39D
:10546000022814D1002002E0401C022804D203EBE1
:1054700000142468002CF7D102280ED003EB00148E
:105480002560956865605269A2600022A2810029AA
:1054900003EB0011898902D019B10020F0BD491C2D
:1054A00001E04FF4807103EB0012401C9181F0BDCC
:1054B00094E9002070B506460D4601F11A0000F08F
:1054C00017F804463078032805D105F1140000F0E0
:1054D0000FF844EA0044204670BDC178827842EA61
:1054E00001214278007842EA012140EA0120704718
:1054F0004178007840EA01207047000010B54FF075
:10550000FF34FBF7A1F8FEF757FAFDF72BFAFDF78A
:10551000DFFAFDF705FBFDF7AFFAFDF7C9FAFDF776
:1055200013FAFDF7F1F8FDF71BFB48B109A0FEF7F0
:10553000B5FC012251030D48FBF773F8204610BD5E
:105540000BA0FEF7ABFCFDF777F80DA000F0FAF822
:10555000FBE7000053442043617264206D6F756E59
:1055600074204552524F520D0A00000000080048B6
:105570005344BFA8B9D2D4D8B3C9B9A6210A0000F0
:10558000303A2F6261646170706C652E62696E00E2
:10559000002A05D011F8013B00F8013B521EF9D159
:1055A000704700005FFA81F100F8011B521EFBD129
:1055B000704770B50446006B0D460026A8420FD018
:1055C000204600F073F906000AD1607801232A46CC
:1055D00004F13401FFF746F908B1751E0126256371
:1055E000304670BD2DE9F047022617460D460446A9
:1055F000022969D3A069A84266D920784FF0010931
:10560000012804D0022836D003285DD143E0616A26
:1056100005EB550801EB58212046FFF7CAFF0600AD
:1056200052D1C8F308002044343008F10108E907DA
:1056300004D00178FAB262F31F1100E0394601701C
:1056400084F80390616A204601EB5821FFF7B1FF0F
:10565000060039D1C8F3080020443430E90702D0ED
:10566000C7F3071105E00178C7F3032201F0F00149
:105670001143017026E0606A00EB15212046FFF718
:1056800098FF060020D1E8B204EB4000B9B23430F4
:1056900000F0B6F816E0606A00EBD5112046FFF77F
:1056A00088FF060010D140F2FF1000EA8500204478
:1056B00034300546FFF711FF67F31B00014628460B
:1056C00000F096F884F803903046BDE8F0872DE9A5
:1056D000F041056813460E46074602292DD3A869F6
:1056E000B0422AD93BB14FF0FF3219462846FFF7A6
:1056F00079FF00281FD131463846FFF71BFE040012
:1057000018D0012C19D0601C19D00022314628462F
:10571000FFF768FF00280ED1D5E90510821E9142DF
:1057200005D2491C6961297941F001012971264698
:10573000B042E0D80020BDE8F0810220FBE7012064
:10574000F9E700002DE9F041ADF50E7D0146002599
:10575000012201A8FFF7FAF920B1681E0DF50E7DB0
:10576000BDE8F08100244FF46147DFF85880049EC3
:105770001BE08DAB134901A8FFF7F2FA10B16FF0EF
:105780000100EBE7A023B42228211E20CDF80080E1
:10579000FDF784F805F56145294601A8FFF79EF855
:1057A00010B16FF00200D9E7641C3A4696FBF2F0A4
:1057B000A042DEDC01A8FFF77DF80028CED06FF014
:1057C0000300CBE70000002070B50C4606461546E6
:1057D00091B204F11A0000F013F83078032806D1D2
:1057E000290C04F11400BDE8704000F009B870BD48
:1057F0000170090A4170090A8170090AC170704775
:105800000170090A41707047014600200B224308CD
:1058100003EBC01011F8013B521E1844C0B2F6D180
:105820007047000070B5044600F040F8050036D11E
:10583000207803282CD12079012829D1420204F1B3
:10584000340000210646FFF7ADFE4AF6552104F26A
:105850003220FFF7D5FF13493046FFF7C9FF124941
:1058600004F50670FFF7C4FF04F507706169FFF7E0
:10587000BFFF04F508702169FFF7BAFF226A012310
:10588000521C226360783146FFF706F80020207131
:10589000002260781146FEF7D7FF00B101252846A7
:1058A00070BD000052526141727241612DE9F041B8
:1058B0000446C0780027F8B1256B04F13401607804
:1058C00001232A468846FEF7E7FF08B1012713E0C7
:1058D0000020E070606AE169281A88420CD2A6783C
:1058E00008E0E0690123054460782A464146FEF756
:1058F000D3FF761E022EF4D23846BDE8F08170B593
:105900000E4604004FF009050CD0206850B1017814
:1059100041B1A188C288914204D14078FEF7B0FF1E
:10592000C00703D000203060284670BD00252068E5
:10593000F9E700000000000000000000010203047D
:1059400006070809A0860100400D0300801A060022
:1059500000350C0040420F0080841E0000093D000D
:1059600000127A000024F40000366E010048E801BD
:10597000006CDC020000000001020304093700088B
:105980009F37000879370008A53700082937000835
:1059900001030507090E10121416181C1E00010041
:1059A000040010004000000100020000010002009D
:1059B0000400080010002000000061001A03E0004D
:1059C0001703F8000703FF00010078010001300110
:1059D00032010601390110014A012E017901060147
:1059E00080014D0043028101820182018401840112
:1059F00086018701870189018A018B018B018D0155
:105A00008E018F0190019101910193019401F601A2
:105A100096019701980198013D029B019C019D010F
:105A200020029F01A001A001A201A201A401A401E2
:105A3000A601A701A701A901AA01AB01AC01AC0114
:105A4000AE01AF01AF01B101B201B301B301B501C4
:105A5000B501B701B801B801BA01BB01BC01BC0175
:105A6000BE01F701C001C101C201C301C401C501EA
:105A7000C401C701C801C701CA01CB01CA01CD01D8
:105A80001001DD0101008E01DE011201F3010300AE
:105A9000F101F401F401F8012801220212013A0295
:105AA0000900652C3B023B023D02662C3F0240028E
:105AB0004102410246020A0153024000810186016F
:105AC000550289018A0158028F015A0290015C0235
:105AD0005D025E025F029301610262029401640250
:105AE000650266026702970196016A02622C6C02E7
:105AF0006D026E029C01700271029D0173027402BC
:105B00009F0176027702780279027A027B027C0298
:105B1000642C7E027F02A60181028202A901840216
:105B2000850286028702AE014402B101B20145023C
:105B30008D028E028F0290029102B7017B03030057
:105B4000FD03FE03FF03AC030400860388038903FF
:105B50008A03B1031103C2030200A303A303C40316
:105B60000803CC0303008C038E038F03D8031801B2
:105B7000F2030A00F903F303F403F503F603F70352
:105B8000F703F903FA03FA03300420035004100763
:105B9000600422018A043601C1040E01CF04010011
:105BA000C004D00444016105260400007D1D0100ED
:105BB000632C001E9601A01E5A01001F0806101F2C
:105BC0000606201F0806301F0806401F0606511F44
:105BD0000700591F521F5B1F541F5D1F561F5F1F79
:105BE000601F0806701F0E00BA1FBB1FC81FC91F09
:105BF000CA1FCB1FDA1FDB1FF81FF91FEA1FEB1F9D
:105C0000FA1FFB1F801F0806901F0806A01F08062A
:105C1000B01F0400B81FB91FB21FBC1FCC1F01006A
:105C2000C31FD01F0206E01F0206E51F0100EC1F84
:105C3000F21F0100FC1F4E210100322170211002D1
:105C4000842101008321D0241A05302C2F04602CDC
:105C50000201672C0601752C0201802C6401002DC5
:105C6000260841FF1A030000885C0008000000209D
:105C700024E10000B4020008585E000824E100207E
:105C80009C1A0000DC3E000802FF0101FF01FF0139
:105C9000FF01FF01FF01FF01FF01FF01FF01FF0104
:105CA000FF01FF01FF01FF01FF01FF01FF01FF01F4
:105CB000FF01FF01FF01FF01FF01FF01FF01FF01E4
:105CC000FF01FF01FF01FF01FF01FF01FF01FF01D4
:105CD000FF01FF01FF01FF01FF01FF01FF01FF01C4
:105CE000FF01FF01FF01FF01FF01FF01FF01FF01B4
:105CF000FF01FF01FF01FF01FF01FF01FF01FF01A4
:105D0000FF01FF01FF01FF01FF01FF01FF01FF0193
:105D1000FF01FF01FF01FF01FF01FF01FF01FF0183
:105D2000FF01FF01FF01FF01FF01FF01FF01FF0173
:105D3000FF01FF01FF01FF01FF01FF01FF01FF0163
:105D4000FF01FF01FF01FF01FF01FF01FF01FF0153
:105D5000FF01FF01FF01FF01FF01FF01FF01FF0143
:105D6000FF01FF01FF01FF01FF01FF01FF01FF0133
:105D7000FF01FF01FF01FF01FF01FF01FF01FF0123
:105D8000FF01FF01FF01FF01FF01FF01FF01FF0113
:105D9000FF01FF01FF01FF01FF01FF01FF01FF0103
:105DA000FF01FF01FF01FF01FF01FF01FF01FF01F3
:105DB000FF01FF01FF01FF01FF01FF01FF01FF01E3
:105DC000FF01FF01FF01FF01FF01FF01FF01FF01D3
:105DD000FF01FF01FF01FF01FF01FF01FF01FF01C3
:105DE000FF01FF01FF01FF01FF01FF01FF01FF01B3
:105DF000FF01FF01FF01FF01FF01FF01FF01FF01A3
:105E0000FF01FF01FF01FF01FF01FF01FF01FF0192
:105E1000FF01FF01FF01FF01FF01FF01FF01FF0182
:105E2000FF01FF01FF01FF01FF01FF01FF01FF0172
:105E3000FF01FF01FF01FF01FF01FF01FF01FF0162
:105E4000FF01FF01FF01FF01FF01FF01E0320182BD
:085E5000103B093D1001100098
:040000050800018D61
:00000001FF
