:020000040800F2
:1000000070090020A101000893190008CD13000811
:1000100091190008910200089D21000800000000CD
:10002000000000000000000000000000E31C0008C9
:100030009302000800000000B5190008E51C000844
:10004000BB010008BB010008BB010008BB010008A0
:10005000BB010008BB010008BB010008BB01000890
:10006000BB010008BB010008BB010008BB01000880
:10007000BB010008BB010008BB010008BB01000870
:10008000BB010008BB010008BB010008BB01000860
:10009000BB010008BB010008BB010008BB01000850
:1000A000BB010008BB010008BB010008BB01000840
:1000B000BB0100080000000000000000BB010008B8
:1000C000BB010008BB010008BB010008BB01000820
:1000D000BB010008BB010008BB010008BB01000810
:1000E000BB010008BB010008000000000000000088
:1000F0000000000000000000000000000000000000
:1001000000000000BB01000800000000BB01000867
:100110000000000000000000BB010008BB01000857
:10012000BB010008BB010008BB010008BB010008BF
:10013000BB010008000000000000000000000000FB
:10014000BB010008BB010008BB0100080000000063
:10015000BB010008BB010008BB010008BB0100088F
:10016000BB010008BB010008BB0100080000000043
:10017000BB010008BB0100080000000000000000F7
:10018000BB010008BB010008BB010008DFF80CD070
:1001900000F06CF8004800470D22000870090020AC
:1001A0000648804706480047FEE7FEE7FEE7FEE711
:1001B000FEE7FEE7FEE7FEE7FEE7FEE77D1D00083F
:1001C0008D0100082DE9F05F0546002092469B4610
:1001D00088460646814640241BE02846414647465D
:1001E000224600F032F853465A46C01A914110D3C5
:1001F00011461846224600F019F82D1A67EB01083F
:100200004F4622460120002100F010F817EB0009AC
:100210004E41201EA4F10104DFDC484631462A4647
:10022000434600F000B830BCBDE8C09F202A04DB84
:10023000203A00FA02F1002070479140C2F12003F9
:1002400020FA03F3194390407047202A04DB203A38
:1002500021FA02F00021704721FA02F3D040C2F1E6
:10026000200291400843194670470000064C074D94
:1002700006E0E06840F0010394E807009847103476
:10028000AC42F6D3FFF786FFF46E0008146F000847
:10029000FEE7704770B5044600F0D6F80546601CCE
:1002A00000D0641C00F0D0F8401BA042FAD370BD0F
:1002B0002DE9F84FDFF864B100234FF0010C4FF047
:1002C000030A4FF00F090BF1040EA0E00CFA03F63D
:1002D000324072D04C68022C01D0122C0ED1DC08B6
:1002E00000EB8408D8F820405D07EF0E09FA07F507
:1002F000AC430D69BD402543C8F8205007685D0038
:1003000091F804800AFA05F408F00308A74308FAF4
:1003100005F848EA0708C0F800804F68012F05D0AB
:10032000022F03D0112F01D0122F11D18768D1F8DD
:100330000C80A74308FA05F848EA0708C0F80880C7
:100340004768B7430E79C6F300169E403E434660A9
:10035000C668A6438C68AC403443C4604C68E40073
:1003600054D52F4C256E45F001052566246E23F0EB
:10037000030504F0010400942A4C2E19B4689D076B
:100380002F0F09FA07F5AC43B0F1904F04D0264D7A
:10039000A84203D1012512E0002510E0234DA84218
:1003A00001D102250BE0224DA84201D1032506E030
:1003B000204DA84202D1042501E027E00725BD40D9
:1003C0002543B560DBF800405D464E689443F60374
:1003D00000D514432C60DEF8004075464E68944307
:1003E000B60300D514432C600C4D08352C684E68BC
:1003F0009443F60200D514432C60084D0C352C684C
:100400004E689443B60200D514432C605B1C0A6806
:1004100032FA03F47FF45AAF00F00EB80004014042
:10042000001002400000014000040048000800489D
:10043000000C00480010004818BCBDE8E08F0AB16D
:100440008161704781627047014800687047000011
:100450000000002002480168491C0160704700004C
:100460000000002010B50024032000F083F80020D5
:1004700000F008F808B1012401E000F01BF8204664
:1004800010BD000070B5054609484FF47A7100248C
:100490000068B0FBF1F000F0CEFE08B1012404E0EA
:1004A00000222946501E00F045F8204670BD00008D
:1004B000040000201E4808B5016E41F001010166EC
:1004C000016E01F001010091816D41F08051816563
:1004D000806D00F080500090032000F04BF8002267
:1004E00011466FF00B0000F025F8002211466FF066
:1004F0000A0000F01FF8002211466FF0090000F01A
:1005000019F800221146501F00F014F8002211467D
:10051000101F00F00FF800221146901E00F00AF89C
:100520000022BDE808401146501E00F003B800004C
:1005300000100240F0B40E4B1B680C46C3F30223BC
:10054000C3F10705042D00D90425191D072901D27F
:10055000002300E0DB1E012606FA05F1491E2140BA
:1005600099409E40761E16403143F0BC01F012BA0D
:100570000CED00E0064900F0070208684FF6FF03A3
:10058000184040EA0220034A104308607047000008
:100590000CED00E00000FA051649B0F5007F086890
:1005A000C0F3412009D0022805D0086820F4C060BB
:1005B00040F480600860002070470128FBD0086884
:1005C00020F4C06040F4007008600B4832220068DC
:1005D00050430A4AB0FBF2F0401C00E0401E4A695A
:1005E000520501D50028F9D148694005E3D503201B
:1005F00070470000007000400400002040420F00DF
:100600000248006800F4C0607047000000700040BD
:100610002DE9F84F044600270088A84D3E46000506
:1006200015D5606C60B1B0F5000F04D0B0F5400F87
:100630002BD001270AE0E86840F48030E86024E02D
:100640000021201D01F0B8F907001ED03E462068A9
:1006500080033AD5A86D4FF00008C00009D4A86DFA
:1006600040F08050A865A86D4FF0010800F0805060
:100670000090DFF84CA2DAF8001041F48071CAF85B
:100680000010FFF7E1FE814610E0D5F88800616CAC
:1006900020F440000843C5F88800D8E7FFF7D4FEEF
:1006A000A0EB0900022801D9032705E0DAF80000D1
:1006B000C005F3D5002F7DD04FEA0706B8F1000F33
:1006C00003D0A86D20F08050A8652078C00707D01F
:1006D000D5F88800216A20F003000843C5F8880097
:1006E0002078800707D5D5F88800616A20F00C00D3
:1006F0000843C5F888002078400707D5D5F888005A
:10070000A16A20F030000843C5F8880020788006F0
:1007100007D5D5F88800E16A20F440600843C5F8A1
:1007200088002088800507D5D5F88800E16B20F483
:1007300040200843C5F888002088400507D5D5F833
:100740008800216C20F440100843C5F88800207808
:10075000400607D5D5F88800216B20F440500843A7
:10076000C5F888002078000607D5D5F88800616BA9
:1007700020F440400843C5F888002088C00507D50C
:10078000D5F88800A16B20F440300843C5F88800F4
:1007900020684FF0006700034FF0806850D5D5F80F
:1007A0008800A16C20F040600843C5F88800A06C68
:1007B000B84200E005E03BD1E86840F48010E86012
:1007C0003EE0D5F8900010F4407014D0A16D814245
:1007D00011D0D5F89000D5F8901020F4407041F475
:1007E0008031C5F89010D5F8901021F48031C5F80B
:1007F0009010C5F89000C00711D0FFF725FE0746FE
:1008000041F2883907E000BFFFF71EFEC11B4945D2
:1008100001D9032652E7D5F890008007F4D5D5F822
:100820009000A16D20F440700843C5F8900045E7A2
:10083000404505D10121201D01F0BEF800B106465A
:100840002068400317D5D5F88800E16C20F040609F
:100850000843C5F88800E06CB84204D1E86840F469
:100860008010E86007E0404505D10121201D01F01E
:10087000A3F800B106462088400411D5D5F88800B9
:10088000216D20F040500843C5F88800206DB0F17C
:10089000805F05D10221201D01F08EF800B10646CF
:1008A0002088000406D555F8880F616D20F080403F
:1008B00008432860304600F005B8000000100240F0
:1008C0000070004018BCBDE8E08F00002DE9F04743
:1008D0000F46050058D03F4E306800F00700B84280
:1008E00009D2306820F0070038433060306800F0EB
:1008F0000700B84248D12878374CC0072CD0686828
:10090000032811D0022812D0216898B14905002986
:100910003ADAA16821F003010143A160FFF794FDD9
:10092000804641F2883910E021688901EFE72168AB
:100930008903ECE78907EAE7FFF786FDA0EB0801EA
:10094000494502D90320BDE8F087A068696800F036
:100950000C00B0EB810FEFD12878800705D5A06897
:10096000A96820F0F0000843A060306800F007009C
:10097000B8420BD9306820F0070038433060306847
:1009800000F00700B84201D00120DCE728784007DA
:1009900005D5A068E96820F4E0600843A0602878E5
:1009A000000706D5A068296920F4605040EAC1001C
:1009B000A06000F041F8A168084AC1F30311515C3E
:1009C00001F01F01C84006490860BDE8F04700205B
:1009D000FFF758BD0020024000100240F822000836
:1009E0000400002001480068704700000400002057
:1009F0000548064900688968054AC1F30221515C2F
:100A000001F01F01C84070470400002000100240A0
:100A1000382300080548064900688968054AC1F37B
:100A2000C221515C01F01F01C84070470400002042
:100A3000001002403823000870B5254900231846ED
:100A40008A68CC6812F00C0204F00306214C4FEACD
:100A5000640509D00C2A05D0042A26D0082A00D122
:100A6000284670BD012E10D10B681B0704D4D1F8A5
:100A70009430C3F3032302E00B68C3F30313164E51
:100A800056F823307AB10C2AEBD1C86800F0030283
:100A9000C868C0F30210401C022A08D0032A09D0FB
:100AA000B3FBF0F008E0184670BD204670BDB4FB03
:100AB000F0F001E0B5FBF0F0CA68C968C2F30622A5
:100AC0005043C1F34161491C4900B0FBF1F070BDD6
:100AD000001002400024F400082300082DE9F84328
:100AE00005007CD0FD4CA06800F00C06E06800F02A
:100AF00003072878C00662D576B10C2E01D1012FEC
:100B00000AD0A8690028206878D040F00100206051
:100B1000FFF79AFC804659E02068800702D5A86953
:100B20000028DED0296A2068000703D5206800F07D
:100B3000F00004E0D4F89400F02202EA10108142A0
:100B400016D9084600F0CEFF002848D1206840F0B2
:100B5000080020602068296A20F0F0000843206027
:100B60006068E96920F47F4040EA0120606015E098
:100B7000206840F0080020602068296A20F0F0001A
:100B8000084320606068E96920F47F4040EA012062
:100B90006060286A00F0A6FF0028D6D1FFF74CFF5E
:100BA000A168CF4AC1F30311515C01F01F01C84095
:100BB000CC4908600020FFF765FC00287ED12EE0BC
:100BC000FFF742FCA0EB0800022878D820688007D5
:100BD000F6D5206840F008002060206801E0BBE006
:100BE0000CE0296A20F0F000084320606068E969A1
:100BF00020F47F4040EA0120606010E020F0010016
:100C00002060FFF721FC804606E000BFFFF71CFCD8
:100C1000A0EB08000228D8D820688007F6D42878EE
:100C2000C00740D0082E18D00C2E01D1032F14D0AD
:100C30006868B0F5803F17D0B0F5A02F206817D0B6
:100C400020F480302060206820F4802020606868D4
:100C5000E0B1FFF7F9FB804614E02068800322D55D
:100C60006868002878D01EE0206840F48030EDE706
:100C700040F480202060F7E7FFF7E6FBA0EB0800D8
:100C80006428A2D820688003F6D50CE0FFF7DCFBCF
:100C9000804605E0FFF7D8FBA0EB0800642894D855
:100CA00020688003F6D4287880073BD5042E11D025
:100CB0000C2E01D1022F0DD0E86801E05EE1B8E012
:100CC000002820681ED040F480702060FFF7BCFB35
:100CD00007460CE0206840050CD5E8680028C1D024
:100CE00008E000BFFFF7B0FBC01B022893D82068C4
:100CF0004005F7D56068297C20F0F85040EA016093
:100D000060600FE020F480702060FFF79DFB0746D5
:100D100005E000BFFFF798FBC01B0228B1D8206890
:100D20004005F7D42878000729D568690028D4F849
:100D3000940012D040F00100C4F89400FFF784FB47
:100D4000074604E0FFF780FBC01B022871D8D4F8E7
:100D500094008007F6D512E017E120F00100C4F8F6
:100D60009400FFF771FB074605E000BFFFF76CFB3F
:100D7000C01B02285DD8D4F894008007F6D42878E8
:100D8000400766D5A06D0027C00008D4A06D40F0D4
:100D90008050A065A06D012700F08050009052485F
:100DA0000168C90512D40168814641F4807101606F
:100DB000FFF74AFB804605E0FFF746FBA0EB080083
:100DC000022836D8D9F80000C005F5D5A868012852
:100DD00016D00528D4F8900017D020F00100C4F8F0
:100DE0009000D4F8900020F0040000BFC4F89000F8
:100DF000A86841F28839C0B1FFF726FB80460FE0B2
:100E0000D4F8900040F00100F0E740F00400C4F88E
:100E10009000F5E7FFF718FBA0EB0801494508D85B
:100E2000D4F890008007F5D50EE0FFF70DFB804663
:100E300006E07CE0FFF708FBA0EB0801494576D807
:100E4000D4F890008007F5D41FB1A06D20F0805039
:100E5000A0652878800628D5686A0028D4F898000C
:100E600012D040F00100C4F89800FFF7EDFA0746F1
:100E700005E000BFFFF7E8FAC01B02287DD8D4F8D0
:100E800098008007F6D510E020F00100C4F8980023
:100E9000FFF7DAFA074604E0FFF7D6FAC01B02288C
:100EA0006BD8D4F898008007F6D4A86AF0B30C2E5B
:100EB0006BD00228206820F08070206018D0206855
:100EC000000103D4E06820F00300E060E068074917
:100ED0000840E060FFF7B8FA054651E00010024014
:100EE000F82200080400002000700040FFFFEEFE22
:100EF000FFF7AAFA064604E0FFF7A6FA801B0228CD
:100F00003BD820688001F7D4286B55F82C1F0001CE
:100F100010380843298A1E4A490802EB4151AA6841
:100F200041EA02210843297D490801E02BE024E041
:100F30004FF07E4202EB41610843297B40EAC160E9
:100F4000E060206840F080702060E06840F08070D1
:100F5000E060FFF779FA054605E000BFFFF774FA95
:100F6000401B022809D820688001F7D50BE000BF9C
:100F7000FFF76AFA401B022802D90320BDE8F88374
:100F800020688001F4D40020F8E70120F6E7000093
:100F90000000E0FF2DE9F041040005D00025A56226
:100FA00094F85D0018B107E00120BDE8F08184F8F5
:100FB0005C50204600F044F8022384F85D3020683D
:100FC000016821F040010160E0684FF4E066B04242
:100FD00001D9002101E04FF48051B0F5706F02D0CB
:100FE000B04200D0A562276B012227B9B04201D9D7
:100FF000236300E02263D4E901031843D4E90436F3
:1010000033431843238B03F400731843E3691843F5
:10101000236A1843A36A184323681860636B606AE5
:10102000A66918430427E36807EA164633431843C2
:10103000084321684860256684F85D200020B4E7F5
:10104000F0B50068104987B088421AD10F48816D09
:1010500041F480418165806D022400F48040059058
:1010600008200025032605278DE8F1006946084879
:10107000FFF71EF920038DE8F10069460548FFF7E8
:1010800017F907B0F0BD0000003800400010024022
:1010900000080048000400482DE9F84F044690F885
:1010A0005C0000271D461646894601280DD04FF0EA
:1010B000010B84F85CB0FFF7C7F9804694F85D0037
:1010C000BA46012804D002279FE0022000F0A3B80E
:1010D000B9F1000F6FD0002E6DD0032084F85D00B1
:1010E000C4F860A0C4F83890A687E687C4F840A08A
:1010F000A4F844A0A4F846A0C4F850A0C4F84CA09A
:10110000A068B0F5004F04D12068016841F4804127
:10111000016020680168490603D4016841F040017C
:101120000160E068B0F5E06F606823D908B1012E76
:101130001CD1A06B21680088C86006E02068816827
:10114000890709D5A16B0988C160A06B801CA063C9
:10115000E08F401EE08709E0FFF776F9A0EB08007A
:10116000A84202D3681C01D046E0ADB3E08F00284E
:10117000E4D136E008B1012E30D1E08F0128A06B18
:1011800003D921680088C8600FE0216800780873DF
:1011900014E0E08722E020688168890714D5E18F98
:1011A0000129A16B08D90988C160A06B801CA063CC
:1011B000E08F801EEDE727E009780173A06B401CEB
:1011C000A063E08F401EE4E7FFF73EF9A0EB0800C4
:1011D000A84202D3681C01D00EE06DB1E08F002858
:1011E000D9D142462946204600F0C2FC08B1202051
:1011F0002066A06810B105E0032706E02068C168FA
:1012000080680090206E00B1012784F85DB084F8FA
:101210005CA038465AE718BCBDE8E08F4FF0E021EB
:101220000428086903D020F004000861704740F0EA
:101230000400FAE7704710B5401EB0F1807F01D37B
:10124000012010BD4FF0E02460610F21601700F015
:10125000A1FB0020A06107202061002010BD10B577
:10126000FFF7E8FF10BD10B5040003D094F871003B
:1012700010B107E0012010BD002084F87000204666
:1012800000F026F8242084F871002068016821F01D
:1012900001010160204600F025FE0128EBD0606AC4
:1012A00010B1204600F08CFD2068416821F4904187
:1012B00041602068816821F02A018160206801680E
:1012C00041F0010101602046BDE8104000F0DCBDA6
:1012D00000B500680F4987B0884218D10E48016EEA
:1012E00041F480410166006E694600F4804005903B
:1012F0004FF4C06000900220019000200290032073
:101300000390072004904FF09040FEF7D1FF07B004
:1013100000BD000000380140001002402DE9F843F4
:10132000044690F871001F4616460D4620284BD102
:10133000C5B1BEB194F87000012845D0012084F8F1
:1013400070004FF00008C4F87480212084F8710008
:10135000FFF77AF8A4F850608146A4F852604FF481
:10136000805615E00120BDE8F8838021204600F07A
:10137000E3FED8B9A068B04201D12069C0B115F828
:10138000010B21680885B4F85200401EA4F85200F1
:10139000B4F852004B464FF0000200970028E4D109
:1013A0004FF04001204600F0C7FE30B10320DAE7DD
:1013B00035F8020BC0F30800E3E7202084F8710041
:1013C00084F870800020CEE70220CCE7FEE72DE90C
:1013D000F04107461C4615460E462A2000F0FCF94F
:1013E000380A00F007FAF8B200F004FA280A00F010
:1013F00001FAE8B200F0FEF92B2000F0EDF9300A16
:1014000000F0F8F9F0B200F0F5F9200A00F0F2F976
:10141000E0B200F0EFF9BDE8F0412C2000F0DCB9BB
:1014200070B5040AC5B2EF2300211A460846FFF73B
:10143000CEFF0F4900204FF4107200BF01F810409A
:1014400001EB4003401C80B25D709042F6D3012254
:1014500040210848FEF7F3FF00244FF49065294629
:10146000034800F0EFF8641CA4B2642CF7D370BDFD
:10147000EC0000200008004870B5704D4FF40044A7
:10148000002221462846FEF7DAFF6D4E0022802119
:101490003046FEF7D4FF0C20FEF7FCFE012280212F
:1014A0003046FEF7CCFF0C20FEF7F4FE112000F0D2
:1014B00093F90C20FEF7EEFE362000F08DF90020A7
:1014C00000F098F93A2000F087F9652000F092F9D1
:1014D000B22000F081F90C2000F08CF90C2000F013
:1014E00089F9002000F086F9332000F083F93320D9
:1014F00000F080F9B72000F06FF9722000F07AF95F
:10150000BB2000F069F93D2000F074F9C02000F024
:1015100063F92C2000F06EF9C22000F05DF9012083
:1015200000F068F9C32000F057F9192000F062F9C3
:10153000C42000F051F9202000F05CF9C62000F032
:101540004BF90F2000F056F9D02000F045F9A42007
:1015500000F050F9A12000F04DF9E02000F03CF936
:10156000D02000F047F9042000F044F90D2000F0ED
:1015700041F9112000F03EF9132000F03BF92B2037
:1015800000F038F93F2000F035F9542000F032F92E
:101590004C2000F02FF9182000F02CF90D2000F05D
:1015A00029F90B2000F026F91F2000F023F9232051
:1015B00000F020F9E12000F00FF9D02000F01AF936
:1015C000042000F017F90C2000F014F9112000F0AD
:1015D00011F9132000F00EF92C2000F00BF93F2038
:1015E00000F008F9442000F005F9512000F002F95C
:1015F0002F2000F0FFF81F2000F0FCF81F2000F063
:10160000F9F8202000F0F6F8232000F0F3F821206C
:1016100000F0E2F8292000F0DFF8EF2300211A465D
:101620000846FFF7D4FE4FF6FF70FFF7F9FE21469C
:101630002846BDE870400122FEF701BF00040048C3
:101640000008004800F08CBA2DE9F05F203AD7B2CC
:101650001C46F022A2EB540282425BD3C4F1F0029A
:101660008A4257DB0A19521E93B200EB5402521EF3
:1016700092B2FFF7ACFE3F4E102C1AD0202C18D09F
:101680000C2C49D0182C45D13B4907EB47004FF0B3
:10169000300A002401EB00194FEA060819F804602B
:1016A000E00756D004270025300654D5B8F80000CE
:1016B00053E0600700D0012000EBD400610810FB6C
:1016C00001F000F0FF082D48002500EB071A00F597
:1016D000BE5000EBC71BB1461AE0102C09D0202CDD
:1016E00018D11BF805600027300605D5B9F80000B1
:1016F00004E01AF80560F6E7B9F8020000F088F88F
:1017000070067F1C060EFFB2082FEDD36D1CEDB2E4
:101710004545E2D300F036B8194807EB47014FF0D2
:101720000C09002400EB8108002518F80470380625
:1017300001D5308800E0708800F06AF878066D1CEA
:10174000070EEDB2062DF2D3641CE4B24C45EBD388
:10175000E0E70827A7E7B8F8020000F059F870069C
:101760006D1C060EEDB2BD429ED3641CE4B254451E
:1017700094D3CFE708000020A42D0008B427000868
:101780004023000830BCBDE8C09F2DE9F047044667
:1017900000F0FF0910190D46DDE908A61FFA80F8D0
:1017A000581987B210E0444503D305EB0A004C46B4
:1017B00085B2BD420DD2534629462046FFF744FF6D
:1017C00004EB5A0084B2761C3278A2F120005E2825
:1017D000E9D9BDE8F087000001B5002240210448A6
:1017E000FEF72DFE01216846FFF72CFF08BD000023
:1017F0000008004801B5012240210448FEF71FFE01
:1018000001216846FFF71EFF08BD000000080048E0
:1018100008B500210091010A8DF800108DF8010033
:10182000012240210348FEF70AFE02216846FFF725
:1018300009FF08BD000800482DE9F041244886B0A2
:10184000C16C41F00401C164C16C01F00401059157
:10185000C16C41F00201C164C16C01F0020105914B
:10186000C16C41F00101C164C06CDFF8688000F018
:1018700001004FF403540590002221464046FEF734
:10188000DEFD154F4FF40046002231463846FEF784
:10189000D6FD0125CDE90045002402946946404665
:1018A0000394FEF705FD0096CDE9015469463846DC
:1018B0000394FEF7FDFC68030090CDE901546946EE
:1018C00040460394FEF7F4FC06B0BDE8F08100004A
:1018D000001002400008004800040048134810B5FA
:1018E000114901604FF48271416000214FF4E062C0
:1018F000C0E9021202220261012242615202C0E9E1
:101900000621016207224162C0E90A1201634163B4
:10191000FFF740FB002805D0BDE810401B2104A0C4
:1019200000F03DBC10BD0000003800401000002059
:101930002E2E2F5372632F7370692E6300000000E8
:101940000E4810B50C4901604FF4E13141600021AF
:1019500081600C22C160C0E904128161C161016231
:101960004162FFF780FC002805D0BDE81040182137
:1019700003A000F014BC10BD00380140740000202A
:101980002E2E2F5372632F75736172742E630000B5
:10199000FEE770470907090E002806DA00F00F007D
:1019A00000F1E02080F8141D704700F1E02080F87D
:1019B00000147047704700002DE9F041444C054683
:1019C0008846E0680026810728680DD0E16801F0AC
:1019D0000301814216D1A8B1E0686968C0F3021022
:1019E000401C88420ED120E0012804D0022805D0F6
:1019F000032807D108E02168890701E0216849052B
:101A0000002907DB01265FE02168890302D42168F1
:101A10004903F5E7E1686A686FF00F0321F073018D
:101A200003EB021211430143E160206820F0806063
:101A30002060FEF709FD074605E000BFFEF704FD44
:101A4000C01B022837D820680001F7D4B8F1000F76
:101A500018D0B8F1010F1DD0287D4FF07E4140080D
:101A600001EB4060A96840EA01202169194A114050
:101A700008432061206840F080602060FEF7E4FCAD
:101A800007461AE0A868297B000240EAC160216984
:101A9000114AECE7288A1149400801EB4050A96837
:101AA00040EA012021690E4AE1E700BFFEF7CCFCC5
:101AB000C01B022801D9032606E020680001F5D5E5
:101AC0002069A969084320613046BDE8F081000023
:101AD00000100240FF80FFF9FF80FF070000E0FFD9
:101AE000FF809FFFF8B51C4D06460024A86DC0007E
:101AF00002D5FEF785FD0DE0A86D40F08050A86589
:101B0000A86D00F080500090FEF77AFDA96D21F0DD
:101B10008051A965B0F5007F04D0802E07D94FF021
:101B200003040AE0802E08D9A02E01D804E001D1D8
:101B3000022402E0702E00D101240848016821F03F
:101B4000070121430160006800F00700A04201D0B6
:101B50000120F8BD0020F8BD001002400020024026
:101B60000A460146FF230148FFF796BA10000020FD
:101B7000F8B515460E460B460092044600224FF477
:101B8000C05100F019F888B9334600228021204660
:101B9000009500F05CF848B9334600224FF4C0616C
:101BA0002046009500F008F8002804D0206E40F090
:101BB000200020660320F8BD2DE9F0471D4617469A
:101BC0000E4604464FF4C068DDF820900CE0464510
:101BD00001D107B9007B681C06D0FEF735FCA0EBED
:101BE0000900A84208D23DB1206881683140B9425D
:101BF000EDD10020BDE8F0872068416821F0E001C8
:101C000041606068B0F5827F0BD1A068B0F5004FED
:101C100002D0B0F5806F04D12068016821F0400146
:101C20000160A06AB0F5005F09D12068016821F465
:101C3000005101602068016841F4005101600120F9
:101C400084F85D00002084F85C000320D2E72DE9D1
:101C5000F0411D4617460E460446DDF8188008E0A0
:101C6000681C06D0FEF7F0FBA0EB0800A8420BD2E0
:101C700055B12068806836EA000030D00020B842B4
:101C8000EED10020BDE8F0812068416821F0E0013C
:101C900041606068B0F5827F0BD1A068B0F5004F5D
:101CA00002D0B0F5806F04D12068016821F04001B6
:101CB0000160A06AB0F5005F09D12068016821F4D5
:101CC000005101602068016841F400510160012069
:101CD00084F85D00002084F85C000320D2E7012036
:101CE000CDE7704710B5FEF7B5FBBDE81040FFF734
:101CF000B6BA30B5ADB0102001240090002506948E
:101D00006020CDE9075002202821CDE90A04CDE961
:101D10000C410721CDE90E1010906846FEF7DEFE5B
:101D200000B1FEE70F2028900320CDE929052B956F
:101D3000042128A82C95FEF7C9FD00B1FEE711A8E3
:101D400019951194FEF764FC00B1FEE74FF40070A2
:101D5000FEF722FC00B1FEE7FEF744FE4FF47A7175
:101D6000B0FBF1F0FFF767FA0420FFF757FA002203
:101D70001146501EFEF7DEFB2DB030BD0D48016848
:101D800041F4700101600C48016841F001010160FB
:101D9000002181600268094B1A4002608214C2600F
:101DA000026822F48022026081610249C003803906
:101DB0000860704788ED00E000100240FFFFF6EA7F
:101DC00090F82410C90706D001684A68836A22F493
:101DD00000321A434A6090F82410890706D501683A
:101DE0004A68C36A22F480321A434A6090F8241089
:101DF000490706D501684A68036B22F480221A431A
:101E00004A6090F82410090706D501684A68436BB8
:101E100022F400421A434A6090F82410C90606D5FD
:101E200001688A68836B22F480521A438A6090F8B2
:101E30002410890606D501688A68C36B22F4005213
:101E40001A438A6090F82410490611D501684A683F
:101E5000036C22F480121A434A60016CB1F5801FB2
:101E600006D101684A68436C22F4C0021A434A60F2
:101E700090F82410090606D501684A68806C22F49F
:101E8000002202434A607047F8B5002604464667C0
:101E9000FEF7DAFA0546206800686FF07E47000713
:101EA00008D52B4600224FF400112046009700F081
:101EB00043F960B92068006840070AD52B46002224
:101EC0004FF480012046009700F036F908B1032056
:101ED000F8BD202084F8710084F8720084F87060E6
:101EE0000020F8BD2DE9F0410446016880682369AF
:101EF000E669184363691025002733431843844A71
:101F00000B68844E334003430B6020684168E368EC
:101F100021F44051194341602168A069914201D0E8
:101F2000236A18438B6823F4306303438B607A4B36
:101F300021687A4899420DD1D0F8880010F003004A
:101F400006D0012839D0022835D0032838D136E010
:101F5000012535E0724B99420BD1D0F8880010F082
:101F60000C0026D0042828D0082824D00C2827D1FB
:101F700025E06C4B99420BD1D0F8880010F030006E
:101F800017D0102819D0202815D0302818D116E0E5
:101F9000914215D1D0F8880010F4406009D0B0F516
:101FA000806F0AD0B0F5006F05D0B0F5406F07D153
:101FB00005E0002504E0022502E0042500E00825F4
:101FC000594B00264FF4004091423DD135B1022DCE
:101FD00007D0042D07D0082D10D107E0FEF708FD2B
:101FE00003E0184602E0FEF727FDA8B3626802EBA3
:101FF0004201814202D8B0EB023F01D9012774E0CF
:10200000DFF828815DB1022D0CD0042D13D0082DEE
:10201000F4D150082905401846F1000105E0FEF70B
:10202000E7FC0AE050084249F5E70023FEF7CAF84A
:10203000A0F5407155E0FEF7FFFC6268010E030257
:10204000500818187141F0E7E1694FF6EF788142C6
:102050002ED1092DD2D200E047E0DFE805F00609D5
:102060001F05220505052500C8E7FEF7C1FC01E0B4
:10207000FEF7D0FC4100606801EB5001B1FBF0F0CD
:1020800080B2A0F110014145B8D84FF6F07101407F
:10209000C0F3420001432068C16026E02549606822
:1020A000EAE7FEF7C9FCE5E74FF480316068E3E753
:1020B000092DA3D2DFE805F006091E052205050556
:1020C00025009BE7FEF794FC01E0FEF7A3FC014628
:1020D000606801EB500100BFB1FBF0F080B2A0F1ED
:1020E000100141458AD82168C86026663846666670
:1020F000BDE8F081606803EB5001EDE7FEF79CFC62
:10210000E5E7616800EB5100B0FBF1F0E6E70000A5
:1021100000800040F369FFEF0038014000100240EA
:1021200000440040004800400024F400FFFC0F0081
:10213000000024F40048E8012DE9F04198461746D4
:102140000E460446069D1DE0681C1BD02DB1FEF70F
:102150007BF9A0EB0800A84214D92068016821F49B
:10216000D07101602068816821F001018160202028
:1021700084F8710084F87200002084F87000032055
:10218000BDE8F0812068C06936EA000004D0002074
:10219000B842D9D00020F3E70120F9E7FEE7FEE7D7
:1021A000014A024900F013B8F12100080C00002098
:1021B00002E008C8121F08C1002AFAD17047704710
:1021C000002001E001C1121F002AFBD170472DE958
:1021D000F04116460F460446002503E03946B04755
:1021E000641C6D1C20780028F8D12846BDE8F081D9
:1021F00008B5FF238DF80000012269460248FFF769
:102200008DF8002008BD0000740000201CB5FEF70A
:1022100029F9FFF76EFDFFF70FFBFFF75FFBFFF7F5
:102220008FFBFFF729F921A0FFF7BAFF2024182719
:10223000234E4FF0100825024FF47A794FF4FA7AC2
:1022400020A0CDE900402023F0220A210520FFF73D
:102250009CFA20A1CDE900811023F02232210A202E
:10226000FFF793FA1DA0CDE900701823F0224A2150
:102270000A20FFF78AFA1DA0CDE900402023F022B2
:102280006A210A20FFF781FA012229463046FEF72B
:10229000D6F84846FDF7FEFF002229463046FEF7F5
:1022A000CEF85046FDF7F6FFCAE7000057656C63AD
:1022B0006F6D6520746F20496F540D0A0000000097
:1022C00000080048426561725069204C43445465DF
:1022D0007374000057656C636F6D6520746F2049DF
:1022E0006F5420436C75422100000000496F542058
:1022F000436C754221000000000000000000000057
:102300000102030406070809A0860100400D03002E
:10231000801A060000350C0040420F0080841E0029
:1023200000093D0000127A000024F40000366E011E
:102330000048E801006CDC02000000000102030418
:10234000000000000000000000000000000020204D
:10235000202020000020000028285000000000005D
:102360000000000000005050F85050F8505000009D
:10237000002070A8A0603028A8702000000048A8A5
:10238000B0A874345448000000002050506CA8A835
:102390009468000040408000000000000000000041
:1023A00008101020202020201010080040202010AD
:1023B000101010102020400000000020A87070A80D
:1023C0002000000000000010107C10100000000031
:1023D00000000000000000004040800000000000FD
:1023E00000FC0000000000000000000000000000F1
:1023F0000040000000040808101020204040800029
:10240000000070888888888888700000000020603C
:1024100020202020207000000000708888102040BC
:1024200080F80000000070880830080888700000FC
:1024300000001030305090F8103800000000F88094
:1024400080F08808887000000000304880B0C8889C
:102450008870000000007808101020202020000064
:10246000000070888870888888700000000070887C
:1024700088986808906000000000000020000000BC
:1024800000200000000000000020000000202000CC
:10249000000008102040402010080000000000004C
:1024A000FC00FC00000000000000402010080810A4
:1024B00020400000000070888810202000200000CC
:1024C0000000384494B4B4B8443800000000202020
:1024D0003050507848CC00000000F0484870484820
:1024E00048F00000000078888080808088700000BC
:1024F0000000F0484848484848F000000000F8480C
:102500005070504048F800000000F84850705040AB
:1025100040E000000000384880809C88483000007F
:102520000000CC484878484848CC00000000F8201B
:102530002020202020F8000000007C101010101037
:10254000101090E00000EC485060504848EC00004B
:102550000000E0404040404044FC00000000DCD867
:10256000D8D8A8A8A8AC00000000DC486868585873
:1025700048E800000000708888888888887000001B
:102580000000F0484870404040E0000000007088C3
:10259000888888E8987018000000F0484870504813
:1025A00048EC0000000078888060100888F0000087
:1025B0000000F8A820202020207000000000CC4857
:1025C00048484848483000000000CC484850503047
:1025D000202000000000A8A8A8A8705050500000BB
:1025E0000000D8505020205050D800000000D85093
:1025F00050502020207000000000F8901020204053
:1026000048F80000382020202020202020203800FA
:1026100000404020202010101008080070101010FA
:10262000101010101010700020500000000000006A
:10263000000000000000000000000000000000FC9E
:10264000402000000000000000000000000000002A
:1026500000304838483C000000C0404040704848C6
:10266000487000000000000000384840483000007A
:102670000018080808384848483C000000000000DE
:1026800000304878403800000018242020782020AE
:102690002078000000000000003C483040384438FA
:1026A00000C040404070484848EC00000020200036
:1026B000006020202070000000101000003010107A
:1026C000101010E000C040404058506050C800005A
:1026D00000E020202020202020F800000000000042
:1026E00000F0A8A8A8A800000000000000F04848DA
:1026F00048EC00000000000000304848483000006E
:102700000000000000F04848487040E00000000071
:10271000003848484838081C0000000000D86040D5
:1027200040E0000000000000007840300878000021
:102730000000002020782020203800000000000049
:1027400000D84848483C00000000000000D8505025
:10275000202000000000000000A8A87050500000D9
:102760000000000000D8502050D8000000000000F9
:1027700000CC4848301020C0000000000078102035
:1027800020780000181010101030101010101800D1
:1027900010101010101010101010101060202020B9
:1027A0002010202020206000689000000000000021
:1027B0000000000000000000000000000000000019
:1027C0000000000000000010101010101010000099
:1027D0001010000000122424480000000000000037
:1027E000000000000000001212127E2424247E2427
:1027F000242400000000083C4A4A48380C0A0A4ACF
:102800004A3C080800000044A4A8A8B0541A2A2A88
:102810004A44000000000030484848506EA4949894
:1028200089760000006020204000000000000000C9
:10283000000000000002040808101010101010081A
:1028400008040200004020101008080808080810BA
:1028500010204000000000001010D63838D61010AC
:102860000000000000000000000808087F080808B9
:102870000000000000000000000000000000000058
:102880006020204000000000000000007E000000EA
:102890000000000000000000000000000000000038
:1028A00060600000000002040404080810101020FA
:1028B000204040000000001824424242424242426E
:1028C0002418000000000008380808080808080854
:1028D000083E00000000003C424242020408102072
:1028E000427E00000000003C424202041804024202
:1028F000423C0000000000040C0C142424447F041B
:10290000041F00000000007E404040784402024264
:1029100044380000000000182440405C62424242FB
:10292000221C00000000007E420404080810101061
:10293000101000000000003C424242241824424291
:10294000423C00000000003844424242463A020243
:10295000241800000000000000001818000000000B
:102960001818000000000000000000100000000027
:102970000010101000000002040810204020100871
:10298000040200000000000000007E00007E000045
:10299000000000000000004020100804020408109D
:1029A000204000000000003C424262040808080089
:1029B0001818000000000038445AAAAAAAAAAA5C63
:1029C000423C00000000001010182828243C44421B
:1029D00042E70000000000F8444444784442424288
:1029E00044F800000000003E424280808080804227
:1029F00044380000000000F8444242424242424251
:102A000044F80000000000FC424848784848404232
:102A100042FC0000000000FC424848784848404022
:102A200040E000000000003C44448080808E8444EC
:102A300044380000000000E7424242427E424242E7
:102A400042E700000000007C101010101010101061
:102A5000107C00000000003E08080808080808086C
:102A6000080888F0000000EE444850705048484480
:102A700044EE0000000000E0404040404040404044
:102A800042FE0000000000EE6C6C6C6C6C54545400
:102A900054D60000000000C7626252524A4A4A46B9
:102AA00046E20000000000384482828282828282F4
:102AB00044380000000000FC424242427C4040405A
:102AC00040E000000000003844828282828282B2AC
:102AD0004C380600000000FC4242427C4848444416
:102AE00042E300000000003E42424020180402423F
:102AF000427C0000000000FE921010101010101018
:102B000010380000000000E7424242424242424286
:102B1000423C0000000000E74242442424282818D8
:102B200010100000000000D654545454546C28284F
:102B300028280000000000E7422424181818242444
:102B400042E70000000000EE444428281010101056
:102B5000103800000000007E840408081020204285
:102B600042FC0000001E1010101010101010101069
:102B700010101E0000004020202010101008080433
:102B80000404020200780808080808080808080871
:102B90000808780000182400000000000000000071
:102BA0000000000000000000000000000000000025
:102BB000000000FF006010000000000000000000A6
:102BC000000000000000000000000038440C344405
:102BD0004C36000000000000C040405864424242B1
:102BE00064580000000000000000001C224040402B
:102BF000221C0000000000000602023E4242424247
:102C0000463B0000000000000000003C42427E40C5
:102C1000423C0000000000000C12107C101010104C
:102C2000107C0000000000000000003E44443840DA
:102C30003C42423C00000000C040405C62424242D4
:102C400042E700000000003030000070101010104B
:102C5000107C00000000000C0C00001C04040404A4
:102C60000404447800000000C040404E48507048C2
:102C700044EE000000000010701010101010101032
:102C8000107C000000000000000000FE4949494996
:102C900049ED000000000000000000DC62424242FA
:102CA00042E70000000000000000003C42424242B7
:102CB000423C000000000000000000D86442424294
:102CC000645840E0000000000000001A2642424222
:102CD000261A020700000000000000EE322020202B
:102CE00020F80000000000000000003E42403C02CE
:102CF000427C0000000000000010107C101010103A
:102D0000120C000000000000000000C642424242D7
:102D1000463B000000000000000000EE444428286C
:102D20001010000000000000000000DB894A5A5427
:102D30002424000000000000000000762418181869
:102D4000246E000000000000000000E74224241868
:102D500018101060000000000000007E44081010F1
:102D6000227E000000030404040404040804040494
:102D700004040300080808080808080808080808E8
:102D80000808080800C02020202020201020202033
:102D90002020C000205A04000000000000000000B5
:102DA0000000000000000000000000000000000023
:102DB0000000000000000000000000000000000013
:102DC0000000000000000000000000000000000003
:102DD00000000000000000000000000006000600E7
:102DE00006000600060006000600020004000400BB
:102DF00004000000000000000600060006000000BD
:102E00000000000000000000066006600CC0198091
:102E1000110022000000000000000000000000007F
:102E200000000000000000000000000000000000A2
:102E30000000000000000000000000000840084002
:102E4000084008407FE07FE0104010801080108034
:102E500010807FE07FE020802080208020800000A4
:102E600000000000000000000000020002000F80CF
:102E70001AC032C033C032001A000E0007000380AF
:102E8000038002C032C03AC032C012800F0002007C
:102E90000200000000000000000000007080508070
:102EA0008900890089008A008A005C0075C005409D
:102EB0000A200A20122012201220214021C00000E6
:102EC0000000000000000000000000001C003600B0
:102ED0003600360036003600340019E0388058805D
:102EE000CC80CC80C680C700C31063903CE000005B
:102EF000000000000000000030003800080008005A
:102F00001000200000000000000000000000000091
:102F100000000000000000000000000000000000B1
:102F200000000000000000000020004000800100C0
:102F30000100020002000400040004000400040078
:102F400004000400020002000100010000800040B3
:102F500000200000000000004000200010000800D9
:102F60000800040004000200020002000200020047
:102F70000200020004000400080008001000200005
:102F80004000000000000000000000000000000001
:102F9000020003000200623072F00B800F807AF0B2
:102FA0006230020002000200000000000000000089
:102FB0000000000000000000000000000000000011
:102FC0000000020002000200020002007FF0020086
:102FD00002000200020002000000000000000000E9
:102FE00000000000000000000000000000000000E1
:102FF00000000000000000000000000000000000D1
:103000000000000000000000300038000800080048
:103010001000200000000000000000000000000080
:103020000000000000000000000000007FE0000041
:103030000000000000000000000000000000000090
:103040000000000000000000000000000000000080
:103050000000000000000000000000000000000070
:1030600000000000000000003800380038000000B8
:10307000000000000000000000200060004000C0D0
:103080000080008001000100020002000600040030
:10309000040008000800100010003000200060004C
:1030A00040000000000000000000000000000F00D1
:1030B000198030C030C060606060606060606060D7
:1030C00060606060606030C030C019800F00000038
:1030D00000000000000000000000000000000200EE
:1030E0003E00060006000600060006000600060078
:1030F0000600060006000600060006003FC00000AD
:1031000000000000000000000000000000001F00A0
:10311000218040C060C060C000C00080018003000A
:103120000600040008001040204060407FC00000FE
:1031300000000000000000000000000000001E0071
:103140006300618061800180018003000E000180C6
:10315000008000C000C060C060C061801F0000002F
:1031600000000000000000000000000000000180DE
:1031700001800380058005800980118011802180F5
:1031800041807FF0018001800180018007E0000024
:1031900000000000000000000000000000003FC030
:1031A000200020002000200020002F00318020C0BF
:1031B00000C000C060C060C0418021801F000000CE
:1031C0000000000000000000000000000000078078
:1031D00018C030C0300020006000678068C0706098
:1031E0006060606060602060304018C00F000000C8
:1031F00000000000000000000000000000001FE0D0
:10320000306020402080008000800100010002002A
:10321000020002000600060006000600060000008C
:1032200000000000000000000000000000001F80FF
:1032300030C0606060606060304038C00F00138054
:1032400030C0606060606060606030C00F8000000F
:1032500000000000000000000000000000000F005F
:10326000308030C0604060606060606060E031600D
:103270001E60006000C000C0308031801E00000071
:10328000000000000000000000000000000000003E
:103290000000000000000000070007000700000019
:1032A0000000000000000000070007000700000009
:1032B000000000000000000000000000000000000E
:1032C00000000000000000000600060000000000F2
:1032D00000000000000000000000060006000200E0
:1032E0000400040000000000000000000020004076
:1032F00000800100020004000800100020001000FF
:1033000008000400020001000080004000200000CE
:1033100000000000000000000000000000000000AD
:1033200000000000000000007FE00000000000003E
:103330007FE000000000000000000000000000002E
:10334000000000000000000000000000200010004D
:10335000080004000200010000800040002000403E
:10336000008001000200040008001000200000009E
:10337000000000000000000000000000000007C086
:103380001860203020303030303000E00180020002
:103390000200020000000000070007000700000014
:1033A000000000000000000000000000070018C03E
:1033B000304033A026A066A065A06D206D206D2052
:1033C0006D206D4027803020304018C00F00000075
:1033D00000000000000000000000000000000600E7
:1033E00006000A000B00090009001100118010807E
:1033F0001F8020C020C0204040404060F0F000000E
:1034000000000000000000000000000000007F003D
:1034100031C030C030C030C030C031803F0030C01B
:103420003040306030603060306030C07F800000FD
:10343000000000000000000000000000000007C0C5
:1034400018C0306030202020600060006000600004
:103450006000600060203020304018C00F00000085
:103460000000000000000000000000000000FE005E
:10347000318030C030C030603060306030603060EB
:1034800030603060306030C030C03180FE000000FD
:103490000000000000000000000000000000FFC06D
:1034A00060C0602060206000610061007F006100FA
:1034B000610061006000602060206040FFC000008B
:1034C0000000000000000000000000000000FFC03D
:1034D00060C0602060206000610061007F006100CA
:1034E000610061006000600060006000F8000000A2
:1034F00000000000000000000000000000000F00BD
:103500001880304030402040600060006000600063
:1035100063F060C060C030C030C018C00F00000051
:103520000000000000000000000000000000F0F0BB
:103530006060606060606060606060607FE06060EC
:10354000606060606060606060606060F0F000001B
:1035500000000000000000000000000000003FC06C
:10356000060006000600060006000600060006002B
:103570000600060006000600060006003FC0000028
:1035800000000000000000000000000000001FE03C
:103590000300030003000300030003000300030013
:1035A00003000300030003000300030003006300A3
:1035B00066003C0000000000000000000000F3C0B6
:1035C000618063006200640068006C007400760033
:1035D0006200630061006180608060C0F1E0000013
:1035E0000000000000000000000000000000F800E3
:1035F00060006000600060006000600060006000CB
:10360000600060006000602060206040FFC000003B
:103610000000000000000000000000000000E0E0EA
:1036200061C061C071C071C072C072C052C05AC066
:103630005AC05CC04CC04CC04CC048C0E1E0000067
:10364000000000000000000000000000000071F019
:103650003040384038402C402C4026402640224004
:103660002340214021C021C020C020C0F8400000DC
:1036700000000000000000000000000000000F003B
:10368000198030C030406060606060606060606081
:10369000606060606060304030C019800F000000E2
:1036A0000000000000000000000000000000FF001B
:1036B00060C06060606060606060606061C07F008A
:1036C000600060006000600060006000F8000000C2
:1036D00000000000000000000000000000000F00DB
:1036E000198030C030406060606060606060606021
:1036F000606060606E60324033C019800F0001E08E
:1037000000C0000000000000000000000000FF807A
:1037100060C0606060606060606060C07F00620088
:1037200063006100618060C060C06060F070000094
:1037300000000000000000000000000000001F402A
:1037400030C060406040600070003C001F0007C057
:1037500001C000E040604060606030C00F80000049
:1037600000000000000000000000000000007FE0FA
:103770004620861086100600060006000600060099
:103780000600060006000600060006001F80000076
:10379000000000000000000000000000000078E0D1
:1037A0003040304030403040304030403040304099
:1037B0003040304030403040304018800F00000032
:1037C0000000000000000000000000000000F0E029
:1037D000604020802080308030801100110019006E
:1037E00019000A000A000E000C000400040000008A
:1037F0000000000000000000000000000000EF706A
:103800004620422062206220264026402740274052
:103810003940398019801980118011001100000091
:10382000000000000000000000000000000079E03F
:1038300030801080188009000D000600040006008A
:1038400006000B0009001180108020C071E000000C
:103850000000000000000000000000000000F0F088
:10386000602020403040108018801D000D000E00A8
:103870000600060006000600060006001F80000085
:1038800000000000000000000000000000003FE019
:10389000304060C04080018001000200020004004E
:1038A0000400080018001020302020407FC00000D5
:1038B000000000000000000007C004000400040035
:1038C00004000400040004000400040004000400D8
:1038D00004000400040004000400040004000400C8
:1038E00007C00000000000000000000020002000D1
:1038F0001000100008000800080004000400020086
:103900000200030001000100008000800040004030
:1039100000400020000000003E0002000200020003
:103920000200020002000200020002000200020087
:103930000200020002000200020002000200020077
:103940003E0000000000060009001080000000009A
:103950000000000000000000000000000000000067
:103960000000000000000000000000000000000057
:103970000000000000000000000000000000000047
:103980000000000000000000000000000000000037
:103990000000000000000000000000000000000027
:1039A0000000FFF00000000018000600000000000A
:1039B0000000000000000000000000000000000007
:1039C00000000000000000000000000000000000F7
:1039D00000000000000000000000000000000000E7
:1039E00000000000000000000F8030C030C000C0A8
:1039F00007C038C070C060C060C071D03E700000A9
:103A00000000000000000000000000001000700036
:103A1000300030003000300033803CC0386030600F
:103A20003060306030603060304038C02780000047
:103A30000000000000000000000000000000000086
:103A400000000000000000000F0031803180618024
:103A50006000600060006040304030800F00000077
:103A6000000000000000000000000000004003C053
:103A700000C000C000C000C01EC031C030C060C067
:103A800060C060C060C060C020C031E01E80000027
:103A90000000000000000000000000000000000026
:103AA0000000000000000000078018C010403060D7
:103AB00030603FE0300030001820184007800000E0
:103AC000000000000000000000000000000003C033
:103AD00006600C600C000C007F800C000C000C00D9
:103AE0000C000C000C000C000C000C003F800000CF
:103AF00000000000000000000000000000000000C6
:103B000000000000000000000FE01B6031803180E9
:103B1000318019801F0030003F0033C060C060C09A
:103B200071C01F00000000000000000010007000C5
:103B30003000300030003000378038C030C030C036
:103B400030C030C030C030C030C030C079E000007C
:103B5000000000000000000000000000000006005F
:103B600006000000000002003E00060006000600FD
:103B70000600060006000600060006003FC0000022
:103B800000000000000000000000000000000380B2
:103B900003800000000000800F8001800180018010
:103BA000018001800180018001800180018001800D
:103BB00033003E0000000000000000001000700014
:103BC000300030003000300031C0310031003200B0
:103BD00036003A0031003180308030C079E000009A
:103BE00000000000000000000000000002003E0095
:103BF0000600060006000600060006000600060095
:103C00000600060006000600060006003FC0000091
:103C100000000000000000000000000000000000A4
:103C20000000000000000000ECE077606660666065
:103C3000666066606660666066606660FFF00000F1
:103C40000000000000000000000000000000000074
:103C50000000000000000000778038C030C030C095
:103C600030C030C030C030C030C030C079E000005B
:103C70000000000000000000000000000000000044
:103C800000000000000000000F00198030C06060DC
:103C9000606060606060606030C030C00F00000035
:103CA0000000000000000000000000000000000014
:103CB0000000000000000000778038C030603060F5
:103CC000306030603060306030C038C037803000E5
:103CD00030007C0000000000000000000000000038
:103CE00000000000000000001E4031C030C060C075
:103CF00060C060C060C060C020C031C01EC000C0D5
:103D000000C003E000000000000000000000000010
:103D10000000000000000000F9C01A601C601800DC
:103D2000180018001800180018001800FF00000004
:103D30000000000000000000000000000000000083
:103D400000000000000000000FC038C030403040CC
:103D50001C000F0003C020C020C031C03F80000005
:103D60000000000000000000000000000000000053
:103D7000040004000C000C007F800C000C000C0000
:103D80000C000C000C000C000C400C4007800000E4
:103D90000000000000000000000000000000000023
:103DA000000000000000104071C030C030C030C0C2
:103DB00030C030C030C030C030C039E01E8000009C
:103DC00000000000000000000000000000000000F3
:103DD000000000000000000078E0304010801080FB
:103DE000188009000D000D00060006000400000008
:103DF00000000000000000000000000000000000C3
:103E00000000000000000000EF7046206220264005
:103E10002640374039801980198019801000000031
:103E20000000000000000000000000000000000092
:103E300000000000000000003DE0188008800D0038
:103E40000600060007000900108010C079E000009D
:103E50000000000000000000000000000000000062
:103E6000000000000000000079E010801080108049
:103E7000090009000D000600060006000400040009
:103E800024003800000000000000000000000000D6
:103E900000000000000000003F802180230022007D
:103EA000060004000C001840104030C03F800000A5
:103EB000000000000000000000C00100010001003F
:103EC00001000100010001000100020004000200E5
:103ED00001000100010001000100010001000100DA
:103EE00000C0000002000200020002000200020006
:103EF00002000200020002000200020002000200B2
:103F000002000200020002000200020002000200A1
:103F10000200020000000000300008000800080055
:103F2000080008000800080008000400020004005F
:103F30000800080008000800080008000800080041
:103F400030000000000038004420432001C0000081
:103F50000000000000000000000000000000000061
:103F60000000000000000000000000000000000051
:103F70000000000000000000000000000000000041
:103F80000000000000000000000000000000000031
:103F90000000000000000000000000000000000021
:103FA0000000000000000000000000000000000011
:103FB0000000000000000000000000000000000001
:103FC00000000000000000000000000000000000F1
:103FD00000000000000000000000000000000000E1
:103FE00000000000000000000000000000000000D1
:103FF00000000000000000000000000000000000C1
:1040000003C003C003C003C003C003C001C00180DC
:104010000180018001800180018001800180000019
:1040200000000000018003C003C001800000000008
:104030000000000000000000000000000000000080
:104040000000000000000000000000000000000070
:104050000000000000000000000000000000000060
:104060000000000000000000000000000000000050
:1040700000000000000000000318073807380E7029
:104080000C6018C03180210000000000000000001A
:104090000000000000000000000000000000000020
:1040A0000000000000000000000000000000000010
:1040B0000000000000000000000000000000000000
:1040C00000000000000000000000000000000000F0
:1040D00000000000000000000000000000000000E0
:1040E00000000000000000000000000000000000D0
:1040F00000000000000000000000000000000000C0
:10410000040804080408040804087FFE7FFE7FFEFC
:104110000810081008100810081008107FFE7FFE15
:104120007FFE18301020102010201020000000000A
:10413000000000000000000000000000000000007F
:10414000000000000000000000000000000000006F
:10415000000000000000000000000000000000005F
:10416000000000000000000000000000000000004F
:10417000000000000000000000000000010001003D
:1041800003C00D3009181918193819381D000D0011
:104190000F00070003C001E001F0013001380118F1
:1041A0003918391831183130196007C00100010081
:1041B00001000000000000000000000000000000FE
:1041C00000000000000000000000000000000000EF
:1041D00000000000000000000000000000000000DF
:1041E00000000000000000000000000000000000CF
:1041F00000000000000000000000000000000000BF
:1042000038106C104420C620C640C640C640C68048
:10421000C68044806D38396C024402C602C604C6AA
:1042200004C608C608C60844106C10380000000018
:10423000000000000000000000000000000000007E
:10424000000000000000000000000000000000006E
:10425000000000000000000000000000000000005E
:10426000000000000000000000000000000000004E
:10427000000000000000000000000000000000003E
:104280000F001900318031803180318031003300DE
:104290003A001C00387C3C104C10CE10C620C720C1
:1042A000C320C1C0C1C260E6317C1E3800000000DE
:1042B00000000000000000000000000000000000FE
:1042C00000000000000000000000000000000000EE
:1042D00000000000000000000000000000000000DE
:1042E00000000000000000000000000000000000CE
:1042F000000000000000000038003C003C000C0002
:104300000C00080030006000000000000000000009
:10431000000000000000000000000000000000009D
:10432000000000000000000000000000000000008D
:10433000000000000000000000000000000000007D
:10434000000000000000000000000000000000006D
:10435000000000000000000000000000000000005D
:10436000000000000000000000000000000000004D
:104370000000000000000000000200040008001817
:10438000003000200060004000C000C001800180BB
:10439000018001800180018001800180018000C0D6
:1043A00000C0004000600020003000180008000439
:1043B00000020000000000000000000000000000FB
:1043C00000000000000000000000000000000000ED
:1043D00000000000000000000000000000000000DD
:1043E00000000000000000000000000000000000CD
:1043F0000000000000000000400020001000180035
:104400000C0004000600020003000300018001808C
:104410000180018001800180018001800180030012
:1044200003000300060004000C0018001000200028
:10443000400000000000000000000000000000003C
:10444000000000000000000000000000000000006C
:10445000000000000000000000000000000000005C
:10446000000000000000000000000000000000004C
:10447000000000000000000000000000000000003C
:104480000000000000C001C001C030C6388E1C9C76
:1044900006B001C001C006B01C9C388E318601C038
:1044A00001C001C00000000000000000000000008A
:1044B00000000000000000000000000000000000FC
:1044C00000000000000000000000000000000000EC
:1044D00000000000000000000000000000000000DC
:1044E00000000000000000000000000000000000CC
:1044F00000000000000000000000000000000000BC
:10450000000000000000008000800080008000802B
:10451000008000803FFE00800080008000800080DE
:10452000008000800000000000000000000000008B
:10453000000000000000000000000000000000007B
:10454000000000000000000000000000000000006B
:10455000000000000000000000000000000000005B
:10456000000000000000000000000000000000004B
:10457000000000000000000000000000000000003B
:10458000000000000000000000000000000000002B
:10459000000000000000000000000000000000001B
:1045A0000000000038003C003C000C000C0008003B
:1045B000300060000000000000000000000000006B
:1045C00000000000000000000000000000000000EB
:1045D00000000000000000000000000000000000DB
:1045E00000000000000000000000000000000000CB
:1045F00000000000000000000000000000000000BB
:1046000000000000000000000000000000000000AA
:10461000000000007FFE000000000000000000001D
:10462000000000000000000000000000000000008A
:10463000000000000000000000000000000000007A
:10464000000000000000000000000000000000006A
:10465000000000000000000000000000000000005A
:10466000000000000000000000000000000000004A
:10467000000000000000000000000000000000003A
:10468000000000000000000000000000000000002A
:10469000000000000000000000000000000000001A
:1046A0000000000018003C003C0018000000000062
:1046B00000000000000000000000000000000000FA
:1046C00000000000000000000000000000000000EA
:1046D00000000000000000000000000000000000DA
:1046E00000000000000000000000000000000000CA
:1046F00000000000000000000000000200060004AE
:10470000000C00080018001000300020006000407D
:1047100000C00080018001000300020006000400C8
:104720000C0008001800100030002000600040005D
:104730000000000000000000000000000000000079
:104740000000000000000000000000000000000069
:104750000000000000000000000000000000000059
:104760000000000000000000000000000000000049
:104770000000000000000000000000000000000039
:1047800003C006200C30181818181808300C300C0C
:10479000300C300C300C300C300C300C300C300C39
:1047A0001808181818180C30062003C00000000064
:1047B00000000000000000000000000000000000F9
:1047C00000000000000000000000000000000000E9
:1047D00000000000000000000000000000000000D9
:1047E00000000000000000000000000000000000C9
:1047F00000000000000000000000000000000000B9
:10480000008001801F800180018001800180018083
:104810000180018001800180018001800180018090
:10482000018001800180018003C01FF800000000AA
:104830000000000000000000000000000000000078
:104840000000000000000000000000000000000068
:104850000000000000000000000000000000000058
:104860000000000000000000000000000000000048
:104870000000000000000000000000000000000038
:1048800007E008381018200C200C300C300C000CFD
:10489000001800180030006000C001800300020012
:1048A000040408041004200C3FF83FF80000000046
:1048B00000000000000000000000000000000000F8
:1048C00000000000000000000000000000000000E8
:1048D00000000000000000000000000000000000D8
:1048E00000000000000000000000000000000000C8
:1048F00000000000000000000000000000000000B8
:1049000007C0186030303018301830180018001800
:104910000030006003C0007000180008000C000C9C
:10492000300C300C30083018183007C00000000080
:104930000000000000000000000000000000000077
:104940000000000000000000000000000000000067
:104950000000000000000000000000000000000057
:104960000000000000000000000000000000000047
:104970000000000000000000000000000000000037
:104980000060006000E000E001600160026004601F
:1049900004600860086010603060206040607FFC48
:1049A0000060006000600060006003FC0000000028
:1049B00000000000000000000000000000000000F7
:1049C00000000000000000000000000000000000E7
:1049D00000000000000000000000000000000000D7
:1049E00000000000000000000000000000000000C7
:1049F00000000000000000000000000000000000B7
:104A00000FFC0FFC10001000100010001000100030
:104A100013E0143018181008000C000C000C000CE7
:104A2000300C300C20182018183007C0000000008F
:104A30000000000000000000000000000000000076
:104A40000000000000000000000000000000000066
:104A50000000000000000000000000000000000056
:104A60000000000000000000000000000000000046
:104A70000000000000000000000000000000000036
:104A800001E006180C18081818001000100030007B
:104A900033E0363038183808300C300C300C300C1D
:104AA000300C180C18080C180E3003E00000000041
:104AB00000000000000000000000000000000000F6
:104AC00000000000000000000000000000000000E6
:104AD00000000000000000000000000000000000D6
:104AE00000000000000000000000000000000000C6
:104AF00000000000000000000000000000000000B6
:104B00001FFC1FFC10083010201020200020004047
:104B10000040004000800080010001000100010011
:104B20000300030003000300030003000000000073
:104B30000000000000000000000000000000000075
:104B40000000000000000000000000000000000065
:104B50000000000000000000000000000000000055
:104B60000000000000000000000000000000000045
:104B70000000000000000000000000000000000035
:104B800007E00C301818300C300C300C380C38089A
:104B90001E180F2007C018F030783038601C600CE9
:104BA000600C600C600C3018183007C0000000006A
:104BB00000000000000000000000000000000000F5
:104BC00000000000000000000000000000000000E5
:104BD00000000000000000000000000000000000D5
:104BE00000000000000000000000000000000000C5
:104BF00000000000000000000000000000000000B5
:104C000007C01820301030186008600C600C600C71
:104C1000600C600C701C302C186C0F8C000C001891
:104C2000001800103030306030C00F8000000000ED
:104C30000000000000000000000000000000000074
:104C40000000000000000000000000000000000064
:104C50000000000000000000000000000000000054
:104C60000000000000000000000000000000000044
:104C70000000000000000000000000000000000034
:104C800000000000000000000000000000000180A3
:104C900003C003C00180000000000000000000000D
:104CA00000000000018003C003C00180000000007C
:104CB00000000000000000000000000000000000F4
:104CC00000000000000000000000000000000000E4
:104CD00000000000000000000000000000000000D4
:104CE00000000000000000000000000000000000C4
:104CF00000000000000000000000000000000000B4
:104D000000000000000000000000000000000000A3
:104D1000038003800380000000000000000000000A
:104D20000000000000000380038003800180030076
:104D30000300000000000000000000000000000070
:104D40000000000000000000000000000000000063
:104D50000000000000000000000000000000000053
:104D60000000000000000000000000000000000043
:104D70000000000000000000000000000000000033
:104D80000004000800100020004000800100020024
:104D900004000800100010000800040002000100D8
:104DA0000080004000200010000800040000000007
:104DB00000000000000000000000000000000000F3
:104DC00000000000000000000000000000000000E3
:104DD00000000000000000000000000000000000D3
:104DE00000000000000000000000000000000000C3
:104DF00000000000000000000000000000000000B3
:104E000000000000000000000000000000007FFE25
:104E1000000000000000000000007FFE0000000015
:104E20000000000000000000000000000000000082
:104E30000000000000000000000000000000000072
:104E40000000000000000000000000000000000062
:104E50000000000000000000000000000000000052
:104E60000000000000000000000000000000000042
:104E70000000000000000000000000000000000032
:104E80002000100008000400020001000080004023
:104E900000200010000800080010002000400080E2
:104EA00001000200040008001000200000000000C3
:104EB00000000000000000000000000000000000F2
:104EC00000000000000000000000000000000000E2
:104ED00000000000000000000000000000000000D2
:104EE00000000000000000000000000000000000C2
:104EF00000000000000000000000000000000000B2
:104F000003E00C18180C1006300638063806380670
:104F1000000C0018007000C000800080008000803D
:104F200000000000018003C003C0018000000000F9
:104F30000000000000000000000000000000000071
:104F40000000000000000000000000000000000061
:104F50000000000000000000000000000000000051
:104F60000000000000000000000000000000000041
:104F70000000000000000000000000000000000031
:104F800003E006100C08180430D431B22132633229
:104F9000632266226622662266626664666426E88A
:104FA000333030021004180C0C1803E0000000002D
:104FB00000000000000000000000000000000000F1
:104FC00000000000000000000000000000000000E1
:104FD00000000000000000000000000000000000D1
:104FE00000000000000000000000000000000000C1
:104FF00000000000000000000000000000000000B1
:10500000038003800380038004C004C004C004C084
:105010000C4008600860086008201FF01030103055
:105020001030201820182018601CF83E00000000E6
:105030000000000000000000000000000000000070
:105040000000000000000000000000000000000060
:105050000000000000000000000000000000000050
:105060000000000000000000000000000000000040
:105070000000000000000000000000000000000030
:105080007FE018381818180C180C180C180C180C8D
:10509000181818301FE01818180C180418061806ED
:1050A000180618061806180C18187FF000000000E3
:1050B00000000000000000000000000000000000F0
:1050C00000000000000000000000000000000000E0
:1050D00000000000000000000000000000000000D0
:1050E00000000000000000000000000000000000C0
:1050F00000000000000000000000000000000000B0
:1051000003E0061C080C1806300230023000600074
:10511000600060006000600060006000600060008F
:1051200030023002100418080C1003E000000000E8
:10513000000000000000000000000000000000006F
:10514000000000000000000000000000000000005F
:10515000000000000000000000000000000000004F
:10516000000000000000000000000000000000003F
:10517000000000000000000000000000000000002F
:105180007FC0187018181808180C180C1806180684
:105190001806180618061806180618061806180421
:1051A000180C180C1818181818607FC000000000A0
:1051B00000000000000000000000000000000000EF
:1051C00000000000000000000000000000000000DF
:1051D00000000000000000000000000000000000CF
:1051E00000000000000000000000000000000000BF
:1051F00000000000000000000000000000000000AF
:105200007FFC180C18041802180218001800181057
:10521000181018301FF01830181018101800180047
:105220001800180218021804180C7FFC0000000077
:10523000000000000000000000000000000000006E
:10524000000000000000000000000000000000005E
:10525000000000000000000000000000000000004E
:10526000000000000000000000000000000000003E
:10527000000000000000000000000000000000002E
:105280007FFC181C180418021802180018001810C7
:10529000181018301FF018301810181018101800B7
:1052A000180018001800180018007E000000000008
:1052B00000000000000000000000000000000000EE
:1052C00000000000000000000000000000000000DE
:1052D00000000000000000000000000000000000CE
:1052E00000000000000000000000000000000000BE
:1052F00000000000000000000000000000000000AE
:1053000003C00C3008101818300830082000600066
:105310006000600060006000607E60186018201807
:1053200030183018101818180C2007C000000000A2
:10533000000000000000000000000000000000006D
:10534000000000000000000000000000000000005D
:10535000000000000000000000000000000000004D
:10536000000000000000000000000000000000003D
:10537000000000000000000000000000000000002D
:10538000FC3F300C300C300C300C300C300C300C3E
:10539000300C300C3FFC300C300C300C300C300C2E
:1053A000300C300C300C300C300CFC3F0000000096
:1053B00000000000000000000000000000000000ED
:1053C00000000000000000000000000000000000DD
:1053D00000000000000000000000000000000000CD
:1053E00000000000000000000000000000000000BD
:1053F00000000000000000000000000000000000AD
:105400001FF80180018001800180018001800180FE
:105410000180018001800180018001800180018084
:10542000018001800180018001801FF800000000E0
:10543000000000000000000000000000000000006C
:10544000000000000000000000000000000000005C
:10545000000000000000000000000000000000004C
:10546000000000000000000000000000000000003C
:10547000000000000000000000000000000000002C
:1054800007FE006000600060006000600060006077
:10549000006000600060006000600060006000600C
:1054A000006000600060006000600060706070C0BC
:1054B00071803F00000000000000000000000000BC
:1054C00000000000000000000000000000000000DC
:1054D00000000000000000000000000000000000CC
:1054E00000000000000000000000000000000000BC
:1054F00000000000000000000000000000000000AC
:105500007E7C183018201860184018801880190008
:1055100019001B001D801D8018C018C0186018607D
:10552000183018301830181818187E3E0000000087
:10553000000000000000000000000000000000006B
:10554000000000000000000000000000000000005B
:10555000000000000000000000000000000000004B
:10556000000000000000000000000000000000003B
:10557000000000000000000000000000000000002B
:105580007E001800180018001800180018001800F5
:10559000180018001800180018001800180018004B
:1055A0001800180218021804180C7FFC00000000F4
:1055B00000000000000000000000000000000000EB
:1055C00000000000000000000000000000000000DB
:1055D00000000000000000000000000000000000CB
:1055E00000000000000000000000000000000000BB
:1055F00000000000000000000000000000000000AB
:10560000F00F381C381C381C381C382C2C2C2C2C37
:105610002C2C2C4C2C4C264C264C264C268C228C8C
:10562000238C238C230C230C210CF13F0000000061
:10563000000000000000000000000000000000006A
:10564000000000000000000000000000000000005A
:10565000000000000000000000000000000000004A
:10566000000000000000000000000000000000003A
:10567000000000000000000000000000000000002A
:10568000F01F380438042C042C04260426042304B8
:1056900023042184218420C420C420642064203475
:1056A0002034201C201C200C200CF80400000000DA
:1056B00000000000000000000000000000000000EA
:1056C00000000000000000000000000000000000DA
:1056D00000000000000000000000000000000000CA
:1056E00000000000000000000000000000000000BA
:1056F00000000000000000000000000000000000AA
:1057000003C00C3018181008300C300C6004600610
:105710006006600660066006600660066006200699
:10572000300C300C100818180C3003C000000000BA
:105730000000000000000000000000000000000069
:105740000000000000000000000000000000000059
:105750000000000000000000000000000000000049
:105760000000000000000000000000000000000039
:105770000000000000000000000000000000000029
:105780007FF01818180C18061806180618061806C0
:105790001806180C18181FE0180018001800180038
:1057A000180018001800180018007E000000000003
:1057B00000000000000000000000000000000000E9
:1057C00000000000000000000000000000000000D9
:1057D00000000000000000000000000000000000C9
:1057E00000000000000000000000000000000000B9
:1057F00000000000000000000000000000000000A9
:1058000003C00C3018181008300C300C600660060D
:105810006006600660066006600660066006600658
:10582000278438CC386C18780C7003E00032003CC8
:10583000001C00000000000000000000000000004C
:105840000000000000000000000000000000000058
:105850000000000000000000000000000000000048
:105860000000000000000000000000000000000038
:105870000000000000000000000000000000000028
:105880007FE018381818180C180C180C180C180C85
:10589000181818301FE018C018C018601860186079
:1058A000183018301830181818187E1E0000000024
:1058B00000000000000000000000000000000000E8
:1058C00000000000000000000000000000000000D8
:1058D00000000000000000000000000000000000C8
:1058E00000000000000000000000000000000000B8
:1058F00000000000000000000000000000000000A8
:105900000FC81878301860186008600860007000D0
:105910003C001F0007C001F000780018001C400C7C
:10592000400C600C200C3018383027E000000000DC
:105930000000000000000000000000000000000067
:105940000000000000000000000000000000000057
:105950000000000000000000000000000000000047
:105960000000000000000000000000000000000037
:105970000000000000000000000000000000000027
:105980003FFC318421864182418201800180018077
:1059900001800180018001800180018001800180FF
:1059A0000180018001800180018007E0000000008B
:1059B00000000000000000000000000000000000E7
:1059C00000000000000000000000000000000000D7
:1059D00000000000000000000000000000000000C7
:1059E00000000000000000000000000000000000B7
:1059F00000000000000000000000000000000000A7
:105A0000FC3E3008300830083008300830083008D4
:105A100030083008300830083008300830083008C6
:105A200030083008300818101C2007C000000000A3
:105A30000000000000000000000000000000000066
:105A40000000000000000000000000000000000056
:105A50000000000000000000000000000000000046
:105A60000000000000000000000000000000000036
:105A70000000000000000000000000000000000026
:105A80007C1E180C1808180818080C100C100C10A4
:105A90000C100C2006200620062006400340034080
:105AA000034003800180018001000100000000002C
:105AB00000000000000000000000000000000000E6
:105AC00000000000000000000000000000000000D6
:105AD00000000000000000000000000000000000C6
:105AE00000000000000000000000000000000000B6
:105AF00000000000000000000000000000000000A6
:105B0000F3CF618661842184208430C431C431C4E0
:105B100031C831C811C812481A681A681A701C7046
:105B20000C700C700C300C200820082000000000C5
:105B30000000000000000000000000000000000065
:105B40000000000000000000000000000000000055
:105B50000000000000000000000000000000000045
:105B60000000000000000000000000000000000035
:105B70000000000000000000000000000000000025
:105B80007C3E180818100C100C200620064003401C
:105B9000038001800180018001C002C002600460B6
:105BA0000470083008301818101C7C3E00000000FB
:105BB00000000000000000000000000000000000E5
:105BC00000000000000000000000000000000000D5
:105BD00000000000000000000000000000000000C5
:105BE00000000000000000000000000000000000B5
:105BF00000000000000000000000000000000000A5
:105C00007E3E3808180818100C100C100C200620C6
:105C10000620034003400380018001800180018051
:105C20000180018001800180018007E00000000008
:105C30000000000000000000000000000000000064
:105C40000000000000000000000000000000000054
:105C50000000000000000000000000000000000044
:105C60000000000000000000000000000000000034
:105C70000000000000000000000000000000000024
:105C80001FFE1C0C180C301820180030006000603B
:105C900000C000C001800180030003000600060070
:105CA0000C00180218063004301C7FFC00000000B5
:105CB00000000000000000000000000000000000E4
:105CC00000000000000000000000000000000000D4
:105CD00000000000000000000000000000000000C4
:105CE00000000000000000000000000000000000B4
:105CF0000000000000000000000003FC030003009F
:105D0000030003000300030003000300030003007B
:105D1000030003000300030003000300030003006B
:105D2000030003000300030003000300030003FC5F
:105D30000000000000000000000000000000000063
:105D40000000000000000000000000000000000053
:105D50000000000000000000000000000000000043
:105D60000000000000000000000000000000000033
:105D7000000000000000000000000000000018000B
:105D8000180008000C0004000600060002000300D2
:105D9000010001800180008000C0004000600060C0
:105DA00000300030003000180018000C000C000C0F
:105DB00000060000000000000000000000000000DD
:105DC00000000000000000000000000000000000D3
:105DD00000000000000000000000000000000000C3
:105DE00000000000000000000000000000000000B3
:105DF000000000000000000000003FC000C000C024
:105E000000C000C000C000C000C000C000C000C092
:105E100000C000C000C000C000C000C000C000C082
:105E200000C000C000C000C000C000C000C03FC033
:105E30000000000000000000000000000000000062
:105E40000000000000000000000000000000000052
:105E50000000000000000000000000000000000042
:105E60000000000000000000000000000000000032
:105E7000000000000000000003C003E0062008103E
:105E80000000000000000000000000000000000012
:105E90000000000000000000000000000000000002
:105EA00000000000000000000000000000000000F2
:105EB00000000000000000000000000000000000E2
:105EC00000000000000000000000000000000000D2
:105ED00000000000000000000000000000000000C2
:105EE00000000000000000000000000000000000B2
:105EF00000000000000000000000000000000000A2
:105F00000000000000000000000000000000000091
:105F10000000000000000000000000000000000081
:105F20000000000000000000000000000000000071
:105F30000000FFFF00000000000000000000000063
:105F40000000000000000000000000000000000051
:105F50000000000000000000000000000000000041
:105F60000000000000000000000000000000000031
:105F700000000000000000001E0003000080000080
:105F80000000000000000000000000000000000011
:105F90000000000000000000000000000000000001
:105FA00000000000000000000000000000000000F1
:105FB00000000000000000000000000000000000E1
:105FC00000000000000000000000000000000000D1
:105FD00000000000000000000000000000000000C1
:105FE00000000000000000000000000000000000B1
:105FF00000000000000000000000000000000000A1
:10600000000000000000000000000000000007E0A9
:106010001830301830183018003807D81C183018CD
:10602000601860186018601930791F8E0000000039
:106030000000000000000000000000000000000060
:106040000000000000000000000000000000000050
:106050000000000000000000000000000000000040
:106060000000000000000000000000000000000030
:106070000000000000000000000000000000080018
:10608000780018001800180018001800180019E00F
:106090001A381C181C0C180C180C180C180C180C9E
:1060A000180C180C18081C181C3013E00000000015
:1060B00000000000000000000000000000000000E0
:1060C00000000000000000000000000000000000D0
:1060D00000000000000000000000000000000000C0
:1060E00000000000000000000000000000000000B0
:1060F00000000000000000000000000000000000A0
:10610000000000000000000000000000000003E0AC
:106110000E100C1818183018300030003000300005
:1061200030003004180418080C1003E000000000D0
:10613000000000000000000000000000000000005F
:10614000000000000000000000000000000000004F
:10615000000000000000000000000000000000003F
:10616000000000000000000000000000000000002F
:106170000000000000000000000000000000000817
:10618000007800180018001800180018001807D828
:106190000C381818181830183018301830183018F3
:1061A00030183018101818380C5E079000000000E6
:1061B00000000000000000000000000000000000DF
:1061C00000000000000000000000000000000000CF
:1061D00000000000000000000000000000000000BF
:1061E00000000000000000000000000000000000AF
:1061F000000000000000000000000000000000009F
:10620000000000000000000000000000000003C0CB
:106210000C3008181808300C300C300C3FFC3000E3
:1062200030003000180418080E1803E000000000C9
:10623000000000000000000000000000000000005E
:10624000000000000000000000000000000000004E
:10625000000000000000000000000000000000003E
:10626000000000000000000000000000000000002E
:10627000000000000000000000000000000000001E
:10628000007C0186010603060300030003003FF8BB
:1062900003000300030003000300030003000300E6
:1062A000030003000300030003001FF000000000D0
:1062B00000000000000000000000000000000000DE
:1062C00000000000000000000000000000000000CE
:1062D00000000000000000000000000000000000BE
:1062E00000000000000000000000000000000000AE
:1062F000000000000000000000000000000000009E
:10630000000000000000000000000000000003EE9C
:106310000C36081818181818181808180C300FE040
:10632000180018001FC00FF8181C300C300C300C6F
:10633000181807E000000000000000000000000046
:10634000000000000000000000000000000000004D
:10635000000000000000000000000000000000003D
:10636000000000000000000000000000000000002D
:106370000000000000000000000000000000080015
:10638000780018001800180018001800180019E00C
:106390001A301C181818181818181818181818185F
:1063A000181818181818181818187E7E0000000001
:1063B00000000000000000000000000000000000DD
:1063C00000000000000000000000000000000000CD
:1063D00000000000000000000000000000000000BD
:1063E00000000000000000000000000000000000AD
:1063F000000000000000000000000000000000009D
:10640000018003C0018000000000000000801F80A8
:106410000180018001800180018001800180018074
:10642000018001800180018001801FF800000000D0
:10643000000000000000000000000000000000005C
:10644000000000000000000000000000000000004C
:10645000000000000000000000000000000000003C
:10646000000000000000000000000000000000002C
:10647000000000000000000000000000000000001C
:10648000003800780030000000000000001003F029
:10649000003000300030003000300030003000307C
:1064A0000030003000300030003000300030186024
:1064B00018400F80000000000000000000000000F5
:1064C00000000000000000000000000000000000CC
:1064D00000000000000000000000000000000000BC
:1064E00000000000000000000000000000000000AC
:1064F0000000000000000000000000000000080094
:106500007800180018001800180018001800187CEF
:10651000183018201840188019801B801EC01CC01D
:106520001860183018301818181C7E3E0000000043
:10653000000000000000000000000000000000005B
:10654000000000000000000000000000000000004B
:10655000000000000000000000000000000000003B
:10656000000000000000000000000000000000002B
:10657000000000000000000000000000000000809B
:106580001F800180018001800180018001800180E5
:1065900001800180018001800180018001800180F3
:1065A000018001800180018001801FF8000000004F
:1065B00000000000000000000000000000000000DB
:1065C00000000000000000000000000000000000CB
:1065D00000000000000000000000000000000000BB
:1065E00000000000000000000000000000000000AB
:1065F000000000000000000000000000000000009B
:106600000000000000000000000000002000EF3C3F
:1066100071C66186618661866186618661866186F2
:1066200061866186618661866186F3CF0000000025
:10663000000000000000000000000000000000005A
:10664000000000000000000000000000000000004A
:10665000000000000000000000000000000000003A
:10666000000000000000000000000000000000002A
:10667000000000000000000000000000000000001A
:10668000000000000000000000000000000009E021
:106690007A301C18181818181818181818181818FC
:1066A000181818181818181818187E7E00000000FE
:1066B00000000000000000000000000000000000DA
:1066C00000000000000000000000000000000000CA
:1066D00000000000000000000000000000000000BA
:1066E00000000000000000000000000000000000AA
:1066F000000000000000000000000000000000009A
:10670000000000000000000000000000000003C0C6
:106710000C3008181818100C300C300C300C300CE1
:10672000300C300C181818180C3003C00000000092
:106730000000000000000000000000000000000059
:106740000000000000000000000000000000000049
:106750000000000000000000000000000000000039
:106760000000000000000000000000000000000029
:106770000000000000000000000000000000000019
:10678000000000000000000000000000000009E020
:106790007A301C181808180C180C180C180C180C47
:1067A000180C180C18181C181E3019E018001800C6
:1067B00018007E0000000000000000000000000043
:1067C00000000000000000000000000000000000C9
:1067D00000000000000000000000000000000000B9
:1067E00000000000000000000000000000000000A9
:1067F0000000000000000000000000000000000099
:10680000000000000000000000000000000003C8BD
:106810000C7818381818301830183018301830180C
:1068200030183018101818380C780798001800180D
:106830000018007E000000000000000000000000C2
:106840000000000000000000000000000000000048
:106850000000000000000000000000000000000038
:106860000000000000000000000000000000000028
:106870000000000000000000000000000000000018
:106880000000000000000000000000000000061CE6
:106890007E660686078007000600060006000600E2
:1068A000060006000600060006007FE0000000006B
:1068B00000000000000000000000000000000000D8
:1068C00000000000000000000000000000000000C8
:1068D00000000000000000000000000000000000B8
:1068E00000000000000000000000000000000000A8
:1068F0000000000000000000000000000000000098
:10690000000000000000000000000000000003E4A0
:10691000061C0C0C0C040C040E0007C001F00078DF
:10692000001C100C100C180C1C1813F000000000B8
:106930000000000000000000000000000000000057
:106940000000000000000000000000000000000047
:106950000000000000000000000000000000000037
:106960000000000000000000000000000000000027
:106970000000000000000000000000000000000017
:1069800000000000010001000100030007003FF8C3
:1069900003000300030003000300030003000300DF
:1069A0000300030003040304018800F0000000005A
:1069B00000000000000000000000000000000000D7
:1069C00000000000000000000000000000000000C7
:1069D00000000000000000000000000000000000B7
:1069E00000000000000000000000000000000000A7
:1069F0000000000000000000000000000000000097
:106A00000000000000000000000000000808787886
:106A100018181818181818181818181818181818F6
:106A200018181818181818380C5E07900000000085
:106A30000000000000000000000000000000000056
:106A40000000000000000000000000000000000046
:106A50000000000000000000000000000000000036
:106A60000000000000000000000000000000000026
:106A70000000000000000000000000000000000016
:106A800000000000000000000000000000007C3E4C
:106A9000180C180818180C100C10042006200620DA
:106AA0000340034003C0018001800100000000009A
:106AB00000000000000000000000000000000000D6
:106AC00000000000000000000000000000000000C6
:106AD00000000000000000000000000000000000B6
:106AE00000000000000000000000000000000000A6
:106AF0000000000000000000000000000000000096
:106B00000000000000000000000000000000FBCFBB
:106B1000618621843184318431C811C81AC81A4869
:106B20001A700E700C700C300C2004200000000055
:106B30000000000000000000000000000000000055
:106B40000000000000000000000000000000000045
:106B50000000000000000000000000000000000035
:106B60000000000000000000000000000000000025
:106B70000000000000000000000000000000000015
:106B800000000000000000000000000000003E7C4B
:106B90000C100E100620034003400180018001C04C
:106BA000026004600430081818187C7E00000000A1
:106BB00000000000000000000000000000000000D5
:106BC00000000000000000000000000000000000C5
:106BD00000000000000000000000000000000000B5
:106BE00000000000000000000000000000000000A5
:106BF0000000000000000000000000000000000095
:106C000000000000000000000000000000007C3ECA
:106C10001818181008100C10042006200620024036
:106C200003400140018001800100010001000200D9
:106C30003E003C00000000000000000000000000DA
:106C40000000000000000000000000000000000044
:106C50000000000000000000000000000000000034
:106C60000000000000000000000000000000000024
:106C70000000000000000000000000000000000014
:106C800000000000000000000000000000003FF8CD
:106C900030383030206020E000C0018003800300E5
:106CA00006000E040C04180C30183FF80000000019
:106CB00000000000000000000000000000000000D4
:106CC00000000000000000000000000000000000C4
:106CD00000000000000000000000000000000000B4
:106CE00000000000000000000000000000000000A4
:106CF0000000000000000000000C00100020002038
:106D00000020002000200020002000200020002083
:106D1000002000C001800040002000200020002052
:106D20000020002000200020002000200020001073
:106D3000000C000000000000000000000000000047
:106D40000000000000000000000000000000000043
:106D50000000000000000000000000000000000033
:106D60000000000000000000000000000000000023
:106D70000000000000800080008000800080008013
:106D80000080008000800080008000800080008003
:106D900000800080008000800080008000800080F3
:106DA00000800080008000800080008000800080E3
:106DB00000800080000000000000000000000000D3
:106DC00000000000000000000000000000000000C3
:106DD00000000000000000000000000000000000B3
:106DE00000000000000000000000000000000000A3
:106DF0000000000000000000180004000200020073
:106E00000200020002000200020002000200020072
:106E10000200018000C00100020002000200020026
:106E20000200020002000200020002000200040050
:106E3000180000000000000000000000000000003A
:106E40000000000000000000000000000000000042
:106E50000000000000000000000000000000000032
:106E60000000000000000000000000000000000022
:106E70000000000000001E0023004182408200E468
:106E800000380000000000000000000000000000CA
:106E900000000000000000000000000000000000F2
:106EA00000000000000000000000000000000000E2
:106EB00000000000000000000000000000000000D2
:106EC00000000000000000000000000000000000C2
:106ED00000000000000000000000000000000000B2
:106EE00000000000000000000000000000000000A2
:106EF00000000000146F00080000002010000000D7
:106F0000B0210008246F0008100000206009000074
:106F1000C02100080000000000093D00FFFF000044
:046F2000000000006D
:040000050800018D61
:00000001FF
