Component: ARM Compiler 5.06 update 6 (build 750) Tool: armlink [4d35ed]

==============================================================================

Section Cross References

    startup_stm32f10x_hd.o(STACK) refers (Special) to heapauxi.o(.text) for __use_two_region_memory
    startup_stm32f10x_hd.o(HEAP) refers (Special) to heapauxi.o(.text) for __use_two_region_memory
    startup_stm32f10x_hd.o(RESET) refers (Special) to heapauxi.o(.text) for __use_two_region_memory
    startup_stm32f10x_hd.o(RESET) refers to startup_stm32f10x_hd.o(STACK) for __initial_sp
    startup_stm32f10x_hd.o(RESET) refers to startup_stm32f10x_hd.o(.text) for Reset_Handler
    startup_stm32f10x_hd.o(RESET) refers to stm32f10x_it.o(i.NMI_Handler) for NMI_Handler
    startup_stm32f10x_hd.o(RESET) refers to stm32f10x_it.o(i.HardFault_Handler) for HardFault_Handler
    startup_stm32f10x_hd.o(RESET) refers to stm32f10x_it.o(i.MemManage_Handler) for MemManage_Handler
    startup_stm32f10x_hd.o(RESET) refers to stm32f10x_it.o(i.BusFault_Handler) for BusFault_Handler
    startup_stm32f10x_hd.o(RESET) refers to stm32f10x_it.o(i.UsageFault_Handler) for UsageFault_Handler
    startup_stm32f10x_hd.o(RESET) refers to stm32f10x_it.o(i.SVC_Handler) for SVC_Handler
    startup_stm32f10x_hd.o(RESET) refers to stm32f10x_it.o(i.DebugMon_Handler) for DebugMon_Handler
    startup_stm32f10x_hd.o(RESET) refers to stm32f10x_it.o(i.PendSV_Handler) for PendSV_Handler
    startup_stm32f10x_hd.o(RESET) refers to stm32f10x_it.o(i.SysTick_Handler) for SysTick_Handler
    startup_stm32f10x_hd.o(RESET) refers to rtc.o(i.RTC_IRQHandler) for RTC_IRQHandler
    startup_stm32f10x_hd.o(RESET) refers to timer.o(i.TIM2_IRQHandler) for TIM2_IRQHandler
    startup_stm32f10x_hd.o(RESET) refers to usart.o(i.USART1_IRQHandler) for USART1_IRQHandler
    startup_stm32f10x_hd.o(.text) refers (Special) to heapauxi.o(.text) for __use_two_region_memory
==============================================================================

Removing Unused input sections from the image.

    Removing core_cm3.o(.emb_text), (32 bytes).
    Removing system_stm32f10x.o(i.SystemCoreClockUpdate), (164 bytes).
    Removing misc.o(i.NVIC_SetVectorTable), (20 bytes).
    Removing misc.o(i.NVIC_SystemLPConfig), (32 bytes).
    Removing stm32f10x_adc.o(i.ADC_AnalogWatchdogCmd), (20 bytes).
    Removing stm32f10x_adc.o(i.ADC_AnalogWatchdogSingleChannelConfig), (16 bytes).
    Removing stm32f10x_adc.o(i.ADC_AnalogWatchdogThresholdsConfig), (6 bytes).
    Removing stm32f10x_adc.o(i.ADC_AutoInjectedConvCmd), (22 bytes).
    Removing stm32f10x_adc.o(i.ADC_ClearFlag), (6 bytes).
    Removing stm32f10x_adc.o(i.ADC_ClearITPendingBit), (10 bytes).
    Removing stm32f10x_adc.o(i.ADC_Cmd), (22 bytes).
    Removing stm32f10x_adc.o(i.ADC_DMACmd), (22 bytes).
    Removing stm32f10x_adc.o(i.ADC_DeInit), (92 bytes).
    Removing stm32f10x_adc.o(i.ADC_DiscModeChannelCountConfig), (24 bytes).
    Removing stm32f10x_adc.o(i.ADC_DiscModeCmd), (22 bytes).
    Removing stm32f10x_adc.o(i.ADC_ExternalTrigConvCmd), (22 bytes).
    Removing stm32f10x_adc.o(i.ADC_ExternalTrigInjectedConvCmd), (22 bytes).
    Removing stm32f10x_adc.o(i.ADC_ExternalTrigInjectedConvConfig), (16 bytes).
==============================================================================

Image Symbol Table

    Local Symbols

    Symbol Name                              Value     Ov Type        Size  Object(Section)

    ../clib/angel/boardlib.s                 0x00000000   Number         0  boardinit2.o ABSOLUTE
    ../clib/angel/boardlib.s                 0x00000000   Number         0  boardshut.o ABSOLUTE
    ../clib/angel/boardlib.s                 0x00000000   Number         0  boardinit3.o ABSOLUTE
    ../clib/angel/boardlib.s                 0x00000000   Number         0  boardinit1.o ABSOLUTE
    ../clib/angel/handlers.s                 0x00000000   Number         0  __scatter_copy.o ABSOLUTE
    ../clib/angel/handlers.s                 0x00000000   Number         0  __scatter_zi.o ABSOLUTE
    ../clib/angel/kernel.s                   0x00000000   Number         0  __rtentry2.o ABSOLUTE
    ../clib/angel/kernel.s                   0x00000000   Number         0  rtexit.o ABSOLUTE
    ../clib/angel/kernel.s                   0x00000000   Number         0  __rtentry4.o ABSOLUTE
    ../clib/angel/kernel.s                   0x00000000   Number         0  rtexit2.o ABSOLUTE
    ../clib/angel/kernel.s                   0x00000000   Number         0  __rtentry.o ABSOLUTE
    ../clib/angel/rt.s                       0x00000000   Number         0  rt_locale.o ABSOLUTE
    ../clib/angel/rt.s                       0x00000000   Number         0  rt_raise.o ABSOLUTE
    ../clib/angel/rt.s                       0x00000000   Number         0  rt_locale_intlibspace.o ABSOLUTE
    ../clib/angel/scatter.s                  0x00000000   Number         0  __scatter.o ABSOLUTE
    ../clib/angel/startup.s                  0x00000000   Number         0  __main.o ABSOLUTE
    ../clib/angel/sys.s                      0x00000000   Number         0  libspace.o ABSOLUTE
    ../clib/angel/sys.s                      0x00000000   Number         0  sys_stackheap_outer.o ABSOLUTE
    ../clib/angel/sys.s                      0x00000000   Number         0  use_no_semi.o ABSOLUTE
    ../clib/angel/sys.s                      0x00000000   Number         0  indicate_semi.o ABSOLUTE
    ../clib/angel/sys.s                      0x00000000   Number         0  use_no_semi_2.o ABSOLUTE
    ../clib/angel/sysapp.c                   0x00000000   Number         0  sys_wrch.o ABSOLUTE
    ../clib/angel/sysapp.c                   0x00000000   Number         0  sys_command.o ABSOLUTE
    ../clib/armsys.c                         0x00000000   Number         0  argv_veneer.o ABSOLUTE
    ../clib/armsys.c                         0x00000000   Number         0  argv_veneer.o ABSOLUTE
    ../clib/armsys.c                         0x00000000   Number         0  no_argv.o ABSOLUTE
    ../clib/armsys.c                         0x00000000   Number         0  _get_argv_nomalloc.o ABSOLUTE
    ../clib/bigflt.c                         0x00000000   Number         0  bigflt0.o ABSOLUTE
    ../clib/btod.s                           0x00000000   Number         0  btod.o ABSOLUTE
    ../clib/heapalloc.c                      0x00000000   Number         0  hrguard.o ABSOLUTE
    ../clib/heapaux.c                        0x00000000   Number         0  heapauxi.o ABSOLUTE
    ../clib/libinit.s                        0x00000000   Number         0  libshutdown2.o ABSOLUTE
    ../clib/libinit.s                        0x00000000   Number         0  libinit.o ABSOLUTE
    ../clib/libinit.s                        0x00000000   Number         0  libinit2.o ABSOLUTE
    ../clib/libinit.s                        0x00000000   Number         0  libshutdown.o ABSOLUTE
    ../clib/locale.s                         0x00000000   Number         0  lc_numeric_c.o ABSOLUTE
    ../clib/longlong.s                       0x00000000   Number         0  lludiv10.o ABSOLUTE
    ../clib/memcpset.s                       0x00000000   Number         0  strcmpv7m.o ABSOLUTE
    ../clib/misc.s                           0x00000000   Number         0  printf_stubs.o ABSOLUTE
    ../clib/printf.c                         0x00000000   Number         0  _printf_fp_dec.o ABSOLUTE
    ../clib/printf.c                         0x00000000   Number         0  _printf_char_common.o ABSOLUTE
    ../clib/printf.c                         0x00000000   Number         0  _sputc.o ABSOLUTE
    ../clib/printf.c                         0x00000000   Number         0  __printf_flags_ss.o ABSOLUTE
    ../clib/printf.c                         0x00000000   Number         0  _printf_fp_infnan.o ABSOLUTE
    ../clib/printf.c                         0x00000000   Number         0  __printf_nopercent.o ABSOLUTE
    ../clib/printf.c                         0x00000000   Number         0  __printf_flags_ss_wp.o ABSOLUTE
    ../clib/printf.c                         0x00000000   Number         0  __printf_ss_wp.o ABSOLUTE
    ../clib/printf.c                         0x00000000   Number         0  __2printf.o ABSOLUTE
    ../clib/printf.c                         0x00000000   Number         0  __2sprintf.o ABSOLUTE
    ../clib/printf.c                         0x00000000   Number         0  noretval__2printf.o ABSOLUTE
    ../clib/printf.c                         0x00000000   Number         0  noretval__2sprintf.o ABSOLUTE
    ../clib/printf.c                         0x00000000   Number         0  __printf.o ABSOLUTE
    ../clib/printf.c                         0x00000000   Number         0  _printf_pad.o ABSOLUTE
    ../clib/printf.c                         0x00000000   Number         0  _printf_dec.o ABSOLUTE
    ../clib/printf.c                         0x00000000   Number         0  _printf_hex_ll.o ABSOLUTE
    ../clib/printf.c                         0x00000000   Number         0  __printf_flags_wp.o ABSOLUTE
    ../clib/printf.c                         0x00000000   Number         0  __printf_wp.o ABSOLUTE
    ../clib/printf.c                         0x00000000   Number         0  _printf_hex_int_ll.o ABSOLUTE
    ../clib/printf.c                         0x00000000   Number         0  _printf_hex_ptr.o ABSOLUTE
    ../clib/printf.c                         0x00000000   Number         0  _printf_char_file.o ABSOLUTE
    ../clib/printf.c                         0x00000000   Number         0  _printf_hex_int_ptr.o ABSOLUTE
    ../clib/printf.c                         0x00000000   Number         0  _printf_hex_ll_ptr.o ABSOLUTE
    ../clib/printf.c                         0x00000000   Number         0  _printf_hex_int_ll_ptr.o ABSOLUTE
    ../clib/printf.c                         0x00000000   Number         0  __printf_flags.o ABSOLUTE
    ../clib/printf.c                         0x00000000   Number         0  __printf_ss.o ABSOLUTE
    ../clib/printf.c                         0x00000000   Number         0  _printf_hex_int.o ABSOLUTE
    ../clib/printf.c                         0x00000000   Number         0  _printf_intcommon.o ABSOLUTE
    ../clib/printf_percent.s                 0x00000000   Number         0  _printf_x.o ABSOLUTE
    ../clib/printf_percent.s                 0x00000000   Number         0  _printf_percent.o ABSOLUTE
    ../clib/printf_percent.s                 0x00000000   Number         0  _printf_percent_end.o ABSOLUTE
    ../clib/printf_percent.s                 0x00000000   Number         0  _printf_d.o ABSOLUTE
    ../clib/printf_percent.s                 0x00000000   Number         0  _printf_f.o ABSOLUTE
    ../clib/signal.c                         0x00000000   Number         0  defsig_rtmem_formal.o ABSOLUTE
    ../clib/signal.c                         0x00000000   Number         0  defsig_rtred_inner.o ABSOLUTE
    ../clib/signal.c                         0x00000000   Number         0  defsig_fpe_inner.o ABSOLUTE
    ../clib/signal.c                         0x00000000   Number         0  defsig_abrt_inner.o ABSOLUTE
    ../clib/signal.c                         0x00000000   Number         0  defsig_rtmem_outer.o ABSOLUTE
    ../clib/signal.c                         0x00000000   Number         0  __raise.o ABSOLUTE
    ../clib/signal.c                         0x00000000   Number         0  defsig_general.o ABSOLUTE
    ../clib/signal.c                         0x00000000   Number         0  defsig_stak_inner.o ABSOLUTE
    ../clib/signal.c                         0x00000000   Number         0  defsig_pvfn_inner.o ABSOLUTE
    ../clib/signal.c                         0x00000000   Number         0  defsig_cppl_inner.o ABSOLUTE
    ../clib/signal.c                         0x00000000   Number         0  defsig_segv_inner.o ABSOLUTE
    ../clib/signal.c                         0x00000000   Number         0  defsig_other.o ABSOLUTE
    ../clib/signal.c                         0x00000000   Number         0  defsig_rtmem_inner.o ABSOLUTE
    ../clib/signal.c                         0x00000000   Number         0  defsig_exit.o ABSOLUTE
    ../clib/signal.s                         0x00000000   Number         0  defsig.o ABSOLUTE
    ../clib/stdio.c                          0x00000000   Number         0  ferror_locked.o ABSOLUTE
    ../clib/stdio.c                          0x00000000   Number         0  ferror.o ABSOLUTE
    ../clib/stdlib.c                         0x00000000   Number         0  exit.o ABSOLUTE
    ../fplib/dfixu.s                         0x00000000   Number         0  dfixu.o ABSOLUTE
    ../fplib/dflt.s                          0x00000000   Number         0  dflt_clz.o ABSOLUTE
    ../fplib/dmul.s                          0x00000000   Number         0  dmul.o ABSOLUTE
    ../fplib/dnaninf.s                       0x00000000   Number         0  dnaninf.o ABSOLUTE
    ../fplib/dretinf.s                       0x00000000   Number         0  dretinf.o ABSOLUTE
    ../fplib/f2d.s                           0x00000000   Number         0  f2d.o ABSOLUTE
    ../fplib/fdiv.s                          0x00000000   Number         0  fdiv.o ABSOLUTE
    ../fplib/ffixu.s                         0x00000000   Number         0  ffixu.o ABSOLUTE
    ../fplib/fflt.s                          0x00000000   Number         0  fflt_clz.o ABSOLUTE
    ../fplib/fmul.s                          0x00000000   Number         0  fmul.o ABSOLUTE
    ../fplib/fnaninf.s                       0x00000000   Number         0  fnaninf.o ABSOLUTE
    ../fplib/fpinit.s                        0x00000000   Number         0  fpinit.o ABSOLUTE
    ../fplib/fretinf.s                       0x00000000   Number         0  fretinf.o ABSOLUTE
    ../fplib/istatus.s                       0x00000000   Number         0  istatus.o ABSOLUTE
    ../fplib/printf1.s                       0x00000000   Number         0  printf1.o ABSOLUTE
    ../fplib/usenofp.s                       0x00000000   Number         0  usenofp.o ABSOLUTE
    ../mathlib/fpclassify.c                  0x00000000   Number         0  fpclassify.o ABSOLUTE
    ..\CORE\core_cm3.c                       0x00000000   Number         0  core_cm3.o ABSOLUTE
    ..\CORE\startup_stm32f10x_hd.s           0x00000000   Number         0  startup_stm32f10x_hd.o ABSOLUTE
    ..\FWLib\src\misc.c                      0x00000000   Number         0  misc.o ABSOLUTE
    ..\FWLib\src\stm32f10x_adc.c             0x00000000   Number         0  stm32f10x_adc.o ABSOLUTE
    ..\FWLib\src\stm32f10x_bkp.c             0x00000000   Number         0  stm32f10x_bkp.o ABSOLUTE
    ..\FWLib\src\stm32f10x_can.c             0x00000000   Number         0  stm32f10x_can.o ABSOLUTE
    ..\FWLib\src\stm32f10x_cec.c             0x00000000   Number         0  stm32f10x_cec.o ABSOLUTE
    ..\FWLib\src\stm32f10x_crc.c             0x00000000   Number         0  stm32f10x_crc.o ABSOLUTE
    ..\FWLib\src\stm32f10x_dac.c             0x00000000   Number         0  stm32f10x_dac.o ABSOLUTE
    ..\FWLib\src\stm32f10x_dbgmcu.c          0x00000000   Number         0  stm32f10x_dbgmcu.o ABSOLUTE
    ..\FWLib\src\stm32f10x_dma.c             0x00000000   Number         0  stm32f10x_dma.o ABSOLUTE
    ..\FWLib\src\stm32f10x_exti.c            0x00000000   Number         0  stm32f10x_exti.o ABSOLUTE
    ..\FWLib\src\stm32f10x_flash.c           0x00000000   Number         0  stm32f10x_flash.o ABSOLUTE
    ..\FWLib\src\stm32f10x_fsmc.c            0x00000000   Number         0  stm32f10x_fsmc.o ABSOLUTE
    ..\FWLib\src\stm32f10x_gpio.c            0x00000000   Number         0  stm32f10x_gpio.o ABSOLUTE
    ..\FWLib\src\stm32f10x_i2c.c             0x00000000   Number         0  stm32f10x_i2c.o ABSOLUTE
    ..\FWLib\src\stm32f10x_iwdg.c            0x00000000   Number         0  stm32f10x_iwdg.o ABSOLUTE
    ..\FWLib\src\stm32f10x_pwr.c             0x00000000   Number         0  stm32f10x_pwr.o ABSOLUTE
    ..\FWLib\src\stm32f10x_rcc.c             0x00000000   Number         0  stm32f10x_rcc.o ABSOLUTE
    ..\FWLib\src\stm32f10x_rtc.c             0x00000000   Number         0  stm32f10x_rtc.o ABSOLUTE
    ..\FWLib\src\stm32f10x_sdio.c            0x00000000   Number         0  stm32f10x_sdio.o ABSOLUTE
    ..\FWLib\src\stm32f10x_spi.c             0x00000000   Number         0  stm32f10x_spi.o ABSOLUTE
    ..\FWLib\src\stm32f10x_tim.c             0x00000000   Number         0  stm32f10x_tim.o ABSOLUTE
    ..\FWLib\src\stm32f10x_usart.c           0x00000000   Number         0  stm32f10x_usart.o ABSOLUTE
    ..\FWLib\src\stm32f10x_wwdg.c            0x00000000   Number         0  stm32f10x_wwdg.o ABSOLUTE
    ..\HARDWARE\KEY\key.c                    0x00000000   Number         0  key.o ABSOLUTE
    ..\HARDWARE\LCD\lcd.c                    0x00000000   Number         0  lcd.o ABSOLUTE
    ..\HARDWARE\LED\led.c                    0x00000000   Number         0  led.o ABSOLUTE
    ..\HARDWARE\PWM\pwm.c                    0x00000000   Number         0  pwm.o ABSOLUTE
    ..\HARDWARE\RTC\rtc.c                    0x00000000   Number         0  rtc.o ABSOLUTE
    ..\HARDWARE\TIMER\timer.c                0x00000000   Number         0  timer.o ABSOLUTE
    ..\SYSTEM\delay\delay.c                  0x00000000   Number         0  delay.o ABSOLUTE
    ..\SYSTEM\sys\sys.c                      0x00000000   Number         0  sys.o ABSOLUTE
    ..\SYSTEM\usart\usart.c                  0x00000000   Number         0  usart.o ABSOLUTE
    ..\\CORE\\core_cm3.c                     0x00000000   Number         0  core_cm3.o ABSOLUTE
    dc.s                                     0x00000000   Number         0  dc.o ABSOLUTE
    main.c                                   0x00000000   Number         0  main.o ABSOLUTE
    stm32f10x_it.c                           0x00000000   Number         0  stm32f10x_it.o ABSOLUTE
    system_stm32f10x.c                       0x00000000   Number         0  system_stm32f10x.o ABSOLUTE
    RESET                                    0x08000000   Section      304  startup_stm32f10x_hd.o(RESET)
    !!!main                                  0x08000130   Section        8  __main.o(!!!main)
    !!!scatter                               0x08000138   Section       52  __scatter.o(!!!scatter)
    !!handler_copy                           0x0800016c   Section       26  __scatter_copy.o(!!handler_copy)
    !!handler_zi                             0x08000188   Section       28  __scatter_zi.o(!!handler_zi)
    .ARM.Collect$$_printf_percent$$00000000  0x080001a4   Section        0  _printf_percent.o(.ARM.Collect$$_printf_percent$$00000000)
    .ARM.Collect$$_printf_percent$$00000003  0x080001a4   Section        6  _printf_f.o(.ARM.Collect$$_printf_percent$$00000003)
    .ARM.Collect$$_printf_percent$$00000009  0x080001aa   Section        6  _printf_d.o(.ARM.Collect$$_printf_percent$$00000009)
    .ARM.Collect$$_printf_percent$$0000000C  0x080001b0   Section        6  _printf_x.o(.ARM.Collect$$_printf_percent$$0000000C)
    .ARM.Collect$$_printf_percent$$00000017  0x080001b6   Section        4  _printf_percent_end.o(.ARM.Collect$$_printf_percent$$00000017)
    .ARM.Collect$$libinit$$00000000          0x080001ba   Section        2  libinit.o(.ARM.Collect$$libinit$$00000000)
    .ARM.Collect$$libinit$$00000002          0x080001bc   Section        0  libinit2.o(.ARM.Collect$$libinit$$00000002)
    .ARM.Collect$$libinit$$00000004          0x080001bc   Section        0  libinit2.o(.ARM.Collect$$libinit$$00000004)
    .ARM.Collect$$libinit$$0000000A          0x080001bc   Section        0  libinit2.o(.ARM.Collect$$libinit$$0000000A)
    .ARM.Collect$$libinit$$0000000C          0x080001bc   Section        0  libinit2.o(.ARM.Collect$$libinit$$0000000C)
    .ARM.Collect$$libinit$$0000000E          0x080001bc   Section        0  libinit2.o(.ARM.Collect$$libinit$$0000000E)
    .ARM.Collect$$libinit$$0000000F          0x080001bc   Section        6  libinit2.o(.ARM.Collect$$libinit$$0000000F)
    .ARM.Collect$$libinit$$00000011          0x080001c2   Section        0  libinit2.o(.ARM.Collect$$libinit$$00000011)
    .ARM.Collect$$libinit$$00000013          0x080001c2   Section        0  libinit2.o(.ARM.Collect$$libinit$$00000013)
    .ARM.Collect$$libinit$$00000015          0x080001c2   Section        0  libinit2.o(.ARM.Collect$$libinit$$00000015)
    .ARM.Collect$$libinit$$00000016          0x080001c2   Section       10  libinit2.o(.ARM.Collect$$libinit$$00000016)
    .ARM.Collect$$libinit$$00000017          0x080001cc   Section        0  libinit2.o(.ARM.Collect$$libinit$$00000017)
    .ARM.Collect$$libinit$$00000019          0x080001cc   Section        0  libinit2.o(.ARM.Collect$$libinit$$00000019)
    .ARM.Collect$$libinit$$0000001B          0x080001cc   Section        0  libinit2.o(.ARM.Collect$$libinit$$0000001B)
    .ARM.Collect$$libinit$$0000001D          0x080001cc   Section        0  libinit2.o(.ARM.Collect$$libinit$$0000001D)
    .ARM.Collect$$libinit$$0000001F          0x080001cc   Section        0  libinit2.o(.ARM.Collect$$libinit$$0000001F)
    .ARM.Collect$$libinit$$00000021          0x080001cc   Section        0  libinit2.o(.ARM.Collect$$libinit$$00000021)
    .ARM.Collect$$libinit$$00000023          0x080001cc   Section        0  libinit2.o(.ARM.Collect$$libinit$$00000023)
    .ARM.Collect$$libinit$$00000025          0x080001cc   Section        0  libinit2.o(.ARM.Collect$$libinit$$00000025)
    .ARM.Collect$$libinit$$0000002C          0x080001cc   Section        0  libinit2.o(.ARM.Collect$$libinit$$0000002C)
    .ARM.Collect$$libinit$$0000002E          0x080001cc   Section        0  libinit2.o(.ARM.Collect$$libinit$$0000002E)
    .ARM.Collect$$libinit$$00000030          0x080001cc   Section        0  libinit2.o(.ARM.Collect$$libinit$$00000030)
    .ARM.Collect$$libinit$$00000032          0x080001cc   Section        0  libinit2.o(.ARM.Collect$$libinit$$00000032)
    .ARM.Collect$$libinit$$00000033          0x080001cc   Section        2  libinit2.o(.ARM.Collect$$libinit$$00000033)
    .ARM.Collect$$libshutdown$$00000000      0x080001ce   Section        2  libshutdown.o(.ARM.Collect$$libshutdown$$00000000)
    .ARM.Collect$$libshutdown$$00000002      0x080001d0   Section        0  libshutdown2.o(.ARM.Collect$$libshutdown$$00000002)
    .ARM.Collect$$libshutdown$$00000004      0x080001d0   Section        0  libshutdown2.o(.ARM.Collect$$libshutdown$$00000004)
    .ARM.Collect$$libshutdown$$00000007      0x080001d0   Section        0  libshutdown2.o(.ARM.Collect$$libshutdown$$00000007)
    .ARM.Collect$$libshutdown$$0000000A      0x080001d0   Section        0  libshutdown2.o(.ARM.Collect$$libshutdown$$0000000A)
    .ARM.Collect$$libshutdown$$0000000C      0x080001d0   Section        0  libshutdown2.o(.ARM.Collect$$libshutdown$$0000000C)
    .ARM.Collect$$libshutdown$$0000000F      0x080001d0   Section        0  libshutdown2.o(.ARM.Collect$$libshutdown$$0000000F)
    .ARM.Collect$$libshutdown$$00000010      0x080001d0   Section        2  libshutdown2.o(.ARM.Collect$$libshutdown$$00000010)
    .ARM.Collect$$rtentry$$00000000          0x080001d2   Section        0  __rtentry.o(.ARM.Collect$$rtentry$$00000000)
    .ARM.Collect$$rtentry$$00000002          0x080001d2   Section        0  __rtentry2.o(.ARM.Collect$$rtentry$$00000002)
    .ARM.Collect$$rtentry$$00000004          0x080001d2   Section        6  __rtentry4.o(.ARM.Collect$$rtentry$$00000004)
    .ARM.Collect$$rtentry$$00000009          0x080001d8   Section        0  __rtentry2.o(.ARM.Collect$$rtentry$$00000009)
    .ARM.Collect$$rtentry$$0000000A          0x080001d8   Section        4  __rtentry2.o(.ARM.Collect$$rtentry$$0000000A)
    .ARM.Collect$$rtentry$$0000000C          0x080001dc   Section        0  __rtentry2.o(.ARM.Collect$$rtentry$$0000000C)
    .ARM.Collect$$rtentry$$0000000D          0x080001dc   Section        8  __rtentry2.o(.ARM.Collect$$rtentry$$0000000D)
    .ARM.Collect$$rtexit$$00000000           0x080001e4   Section        2  rtexit.o(.ARM.Collect$$rtexit$$00000000)
    .ARM.Collect$$rtexit$$00000002           0x080001e6   Section        0  rtexit2.o(.ARM.Collect$$rtexit$$00000002)
    .ARM.Collect$$rtexit$$00000003           0x080001e6   Section        4  rtexit2.o(.ARM.Collect$$rtexit$$00000003)
    .ARM.Collect$$rtexit$$00000004           0x080001ea   Section        6  rtexit2.o(.ARM.Collect$$rtexit$$00000004)
    .text                                    0x080001f0   Section       64  startup_stm32f10x_hd.o(.text)
    .text                                    0x08000230   Section        2  use_no_semi_2.o(.text)
    .text                                    0x08000234   Section        0  noretval__2printf.o(.text)
    .text                                    0x0800024c   Section        0  noretval__2sprintf.o(.text)
    .text                                    0x08000274   Section        0  _printf_pad.o(.text)
    .text                                    0x080002c4   Section        0  _printf_dec.o(.text)
    .text                                    0x0800033c   Section        0  _printf_hex_int.o(.text)
    .text                                    0x08000394   Section        0  __printf_flags_wp.o(.text)
    .text                                    0x080004cc   Section        0  heapauxi.o(.text)
    .text                                    0x080004d2   Section        2  use_no_semi.o(.text)
    .text                                    0x080004d4   Section        0  _printf_intcommon.o(.text)
    .text                                    0x08000586   Section        0  _printf_fp_dec.o(.text)
    _fp_digits                               0x08000589   Thumb Code   432  _printf_fp_dec.o(.text)
    .text                                    0x080009a4   Section        0  _printf_char_common.o(.text)
    _printf_input_char                       0x080009a5   Thumb Code    10  _printf_char_common.o(.text)
    .text                                    0x080009d4   Section        0  _sputc.o(.text)
    .text                                    0x080009e0   Section        0  _printf_char_file.o(.text)
    .text                                    0x08000a04   Section        8  rt_locale_intlibspace.o(.text)
    .text                                    0x08000a0c   Section      138  lludiv10.o(.text)
    .text                                    0x08000a98   Section        0  _printf_fp_infnan.o(.text)
    .text                                    0x08000b18   Section        0  bigflt0.o(.text)
    .text                                    0x08000bfc   Section        0  ferror.o(.text)
    .text                                    0x08000c04   Section        8  libspace.o(.text)
    .text                                    0x08000c0c   Section       74  sys_stackheap_outer.o(.text)
    .text                                    0x08000c56   Section        0  exit.o(.text)
    .text                                    0x08000c68   Section      128  strcmpv7m.o(.text)
    CL$$btod_d2e                             0x08000ce8   Section       62  btod.o(CL$$btod_d2e)
    CL$$btod_d2e_denorm_low                  0x08000d26   Section       70  btod.o(CL$$btod_d2e_denorm_low)
    CL$$btod_d2e_norm_op1                    0x08000d6c   Section       96  btod.o(CL$$btod_d2e_norm_op1)
    CL$$btod_div_common                      0x08000dcc   Section      824  btod.o(CL$$btod_div_common)
    CL$$btod_e2e                             0x08001104   Section      220  btod.o(CL$$btod_e2e)
    CL$$btod_ediv                            0x080011e0   Section       42  btod.o(CL$$btod_ediv)
    CL$$btod_emul                            0x0800120a   Section       42  btod.o(CL$$btod_emul)
    CL$$btod_mult_common                     0x08001234   Section      580  btod.o(CL$$btod_mult_common)
    i.BKP_DeInit                             0x08001478   Section        0  stm32f10x_bkp.o(i.BKP_DeInit)
    i.BKP_ReadBackupRegister                 0x08001488   Section        0  stm32f10x_bkp.o(i.BKP_ReadBackupRegister)
    i.BKP_WriteBackupRegister                0x080014a4   Section        0  stm32f10x_bkp.o(i.BKP_WriteBackupRegister)
    i.BusFault_Handler                       0x080014c0   Section        0  stm32f10x_it.o(i.BusFault_Handler)
    i.DebugMon_Handler                       0x080014c4   Section        0  stm32f10x_it.o(i.DebugMon_Handler)
    i.GPIO_Init                              0x080014c6   Section        0  stm32f10x_gpio.o(i.GPIO_Init)
    i.GPIO_PinRemapConfig                    0x080015dc   Section        0  stm32f10x_gpio.o(i.GPIO_PinRemapConfig)
    i.GPIO_ResetBits                         0x0800166c   Section        0  stm32f10x_gpio.o(i.GPIO_ResetBits)
    i.GPIO_SetBits                           0x08001670   Section        0  stm32f10x_gpio.o(i.GPIO_SetBits)
    i.HardFault_Handler                      0x08001674   Section        0  stm32f10x_it.o(i.HardFault_Handler)
    i.Is_Leap_Year                           0x08001678   Section        0  rtc.o(i.Is_Leap_Year)
    i.LCD_Clear                              0x080016b4   Section        0  lcd.o(i.LCD_Clear)
    i.LCD_Display_Dir                        0x0800173c   Section        0  lcd.o(i.LCD_Display_Dir)
    i.LCD_Fast_DrawPoint                     0x080018fc   Section        0  lcd.o(i.LCD_Fast_DrawPoint)
    i.LCD_Init                               0x08001c60   Section        0  lcd.o(i.LCD_Init)
    i.LCD_Pow                                0x0800581c   Section        0  lcd.o(i.LCD_Pow)
    i.LCD_RD_DATA                            0x08005834   Section        0  lcd.o(i.LCD_RD_DATA)
    i.LCD_ReadReg                            0x080058a4   Section        0  lcd.o(i.LCD_ReadReg)
    i.LCD_SSD_BackLightSet                   0x080058b4   Section        0  lcd.o(i.LCD_SSD_BackLightSet)
    i.LCD_Scan_Dir                           0x08005988   Section        0  lcd.o(i.LCD_Scan_Dir)
    i.LCD_SetCursor                          0x08005de0   Section        0  lcd.o(i.LCD_SetCursor)
    i.LCD_ShowChar                           0x0800619c   Section        0  lcd.o(i.LCD_ShowChar)
    i.LCD_ShowNum                            0x080062c4   Section        0  lcd.o(i.LCD_ShowNum)
    i.LCD_ShowString                         0x08006358   Section        0  lcd.o(i.LCD_ShowString)
    i.LCD_ShowxNum                           0x080063be   Section        0  lcd.o(i.LCD_ShowxNum)
    i.LCD_WR_DATAX                           0x0800647c   Section        0  lcd.o(i.LCD_WR_DATAX)
    i.LCD_WR_REG                             0x080064a0   Section        0  lcd.o(i.LCD_WR_REG)
    i.LCD_WriteRAM_Prepare                   0x080064c4   Section        0  lcd.o(i.LCD_WriteRAM_Prepare)
    i.LCD_WriteReg                           0x080064d4   Section        0  lcd.o(i.LCD_WriteReg)
    i.MemManage_Handler                      0x08006504   Section        0  stm32f10x_it.o(i.MemManage_Handler)
    i.NMI_Handler                            0x08006508   Section        0  stm32f10x_it.o(i.NMI_Handler)
    i.NVIC_Init                              0x0800650c   Section        0  misc.o(i.NVIC_Init)
    i.NVIC_PriorityGroupConfig               0x0800657c   Section        0  misc.o(i.NVIC_PriorityGroupConfig)
    i.PWR_BackupAccessCmd                    0x08006590   Section        0  stm32f10x_pwr.o(i.PWR_BackupAccessCmd)
    i.PendSV_Handler                         0x0800659c   Section        0  stm32f10x_it.o(i.PendSV_Handler)
    i.RCC_APB1PeriphClockCmd                 0x080065a0   Section        0  stm32f10x_rcc.o(i.RCC_APB1PeriphClockCmd)
    i.RCC_APB2PeriphClockCmd                 0x080065c0   Section        0  stm32f10x_rcc.o(i.RCC_APB2PeriphClockCmd)
    i.RCC_BackupResetCmd                     0x080065e0   Section        0  stm32f10x_rcc.o(i.RCC_BackupResetCmd)
    i.RCC_GetClocksFreq                      0x080065ec   Section        0  stm32f10x_rcc.o(i.RCC_GetClocksFreq)
    i.RCC_GetFlagStatus                      0x080066c0   Section        0  stm32f10x_rcc.o(i.RCC_GetFlagStatus)
    i.RCC_LSEConfig                          0x080066fc   Section        0  stm32f10x_rcc.o(i.RCC_LSEConfig)
    i.RCC_RTCCLKCmd                          0x08006730   Section        0  stm32f10x_rcc.o(i.RCC_RTCCLKCmd)
    i.RCC_RTCCLKConfig                       0x0800673c   Section        0  stm32f10x_rcc.o(i.RCC_RTCCLKConfig)
    i.RTC_ClearITPendingBit                  0x0800674c   Section        0  stm32f10x_rtc.o(i.RTC_ClearITPendingBit)
    i.RTC_EnterConfigMode                    0x0800675c   Section        0  stm32f10x_rtc.o(i.RTC_EnterConfigMode)
    i.RTC_ExitConfigMode                     0x08006770   Section        0  stm32f10x_rtc.o(i.RTC_ExitConfigMode)
    i.RTC_Get                                0x08006784   Section        0  rtc.o(i.RTC_Get)
    i.RTC_GetCounter                         0x08006884   Section        0  stm32f10x_rtc.o(i.RTC_GetCounter)
    i.RTC_GetITStatus                        0x08006898   Section        0  stm32f10x_rtc.o(i.RTC_GetITStatus)
    i.RTC_Get_Week                           0x080068bc   Section        0  rtc.o(i.RTC_Get_Week)
    i.RTC_IRQHandler                         0x08006934   Section        0  rtc.o(i.RTC_IRQHandler)
    i.RTC_ITConfig                           0x0800695c   Section        0  stm32f10x_rtc.o(i.RTC_ITConfig)
    i.RTC_Init                               0x0800697c   Section        0  rtc.o(i.RTC_Init)
    i.RTC_Set                                0x08006a54   Section        0  rtc.o(i.RTC_Set)
    i.RTC_SetCounter                         0x08006b20   Section        0  stm32f10x_rtc.o(i.RTC_SetCounter)
    i.RTC_SetPrescaler                       0x08006b3c   Section        0  stm32f10x_rtc.o(i.RTC_SetPrescaler)
    i.RTC_WaitForLastTask                    0x08006b5c   Section        0  stm32f10x_rtc.o(i.RTC_WaitForLastTask)
    i.RTC_WaitForSynchro                     0x08006b70   Section        0  stm32f10x_rtc.o(i.RTC_WaitForSynchro)
    i.SVC_Handler                            0x08006b94   Section        0  stm32f10x_it.o(i.SVC_Handler)
    i.SetSysClock                            0x08006b96   Section        0  system_stm32f10x.o(i.SetSysClock)
    SetSysClock                              0x08006b97   Thumb Code     8  system_stm32f10x.o(i.SetSysClock)
    i.SetSysClockTo72                        0x08006ba0   Section        0  system_stm32f10x.o(i.SetSysClockTo72)
    SetSysClockTo72                          0x08006ba1   Thumb Code   214  system_stm32f10x.o(i.SetSysClockTo72)
    i.SysTick_CLKSourceConfig                0x08006c80   Section        0  misc.o(i.SysTick_CLKSourceConfig)
    i.SysTick_Handler                        0x08006ca8   Section        0  stm32f10x_it.o(i.SysTick_Handler)
    i.SystemInit                             0x08006cac   Section        0  system_stm32f10x.o(i.SystemInit)
    i.TI1_Config                             0x08006d0c   Section        0  stm32f10x_tim.o(i.TI1_Config)
    TI1_Config                               0x08006d0d   Thumb Code   108  stm32f10x_tim.o(i.TI1_Config)
    i.TI2_Config                             0x08006d8c   Section        0  stm32f10x_tim.o(i.TI2_Config)
    TI2_Config                               0x08006d8d   Thumb Code   130  stm32f10x_tim.o(i.TI2_Config)
    i.TI3_Config                             0x08006e24   Section        0  stm32f10x_tim.o(i.TI3_Config)
    TI3_Config                               0x08006e25   Thumb Code   122  stm32f10x_tim.o(i.TI3_Config)
    i.TI4_Config                             0x08006eb4   Section        0  stm32f10x_tim.o(i.TI4_Config)
    TI4_Config                               0x08006eb5   Thumb Code   130  stm32f10x_tim.o(i.TI4_Config)
    i.TIM1_Output_PWM_Init                   0x08006f4c   Section        0  pwm.o(i.TIM1_Output_PWM_Init)
    i.TIM2_IRQHandler                        0x08006ff0   Section        0  timer.o(i.TIM2_IRQHandler)
    i.TIM2_Input_Capture_Init                0x08007128   Section        0  timer.o(i.TIM2_Input_Capture_Init)
    i.TIM_ARRPreloadConfig                   0x080071d8   Section        0  stm32f10x_tim.o(i.TIM_ARRPreloadConfig)
    i.TIM_ClearITPendingBit                  0x080071f0   Section        0  stm32f10x_tim.o(i.TIM_ClearITPendingBit)
    i.TIM_Cmd                                0x080071f6   Section        0  stm32f10x_tim.o(i.TIM_Cmd)
    i.TIM_CtrlPWMOutputs                     0x0800720e   Section        0  stm32f10x_tim.o(i.TIM_CtrlPWMOutputs)
    i.TIM_GetCapture1                        0x0800722c   Section        0  stm32f10x_tim.o(i.TIM_GetCapture1)
    i.TIM_GetITStatus                        0x08007232   Section        0  stm32f10x_tim.o(i.TIM_GetITStatus)
    i.TIM_ICInit                             0x08007254   Section        0  stm32f10x_tim.o(i.TIM_ICInit)
    i.TIM_ITConfig                           0x08007300   Section        0  stm32f10x_tim.o(i.TIM_ITConfig)
    i.TIM_OC1Init                            0x08007314   Section        0  stm32f10x_tim.o(i.TIM_OC1Init)
    i.TIM_OC1PolarityConfig                  0x080073ac   Section        0  stm32f10x_tim.o(i.TIM_OC1PolarityConfig)
    i.TIM_OC1PreloadConfig                   0x080073be   Section        0  stm32f10x_tim.o(i.TIM_OC1PreloadConfig)
    i.TIM_SetCounter                         0x080073d0   Section        0  stm32f10x_tim.o(i.TIM_SetCounter)
    i.TIM_SetIC1Prescaler                    0x080073d4   Section        0  stm32f10x_tim.o(i.TIM_SetIC1Prescaler)
    i.TIM_SetIC2Prescaler                    0x080073e6   Section        0  stm32f10x_tim.o(i.TIM_SetIC2Prescaler)
    i.TIM_SetIC3Prescaler                    0x08007400   Section        0  stm32f10x_tim.o(i.TIM_SetIC3Prescaler)
    i.TIM_SetIC4Prescaler                    0x08007412   Section        0  stm32f10x_tim.o(i.TIM_SetIC4Prescaler)
    i.TIM_TimeBaseInit                       0x0800742c   Section        0  stm32f10x_tim.o(i.TIM_TimeBaseInit)
    i.USART1_IRQHandler                      0x080074d0   Section        0  usart.o(i.USART1_IRQHandler)
    i.USART_ClearFlag                        0x080074f4   Section        0  stm32f10x_usart.o(i.USART_ClearFlag)
    i.USART_Cmd                              0x08007506   Section        0  stm32f10x_usart.o(i.USART_Cmd)
    i.USART_GetFlagStatus                    0x0800751e   Section        0  stm32f10x_usart.o(i.USART_GetFlagStatus)
    i.USART_GetITStatus                      0x08007538   Section        0  stm32f10x_usart.o(i.USART_GetITStatus)
    i.USART_ITConfig                         0x0800758c   Section        0  stm32f10x_usart.o(i.USART_ITConfig)
    i.USART_Init                             0x080075d8   Section        0  stm32f10x_usart.o(i.USART_Init)
    i.USART_ReceiveData                      0x080076b0   Section        0  stm32f10x_usart.o(i.USART_ReceiveData)
    i.USART_SendData                         0x080076ba   Section        0  stm32f10x_usart.o(i.USART_SendData)
    i.UsageFault_Handler                     0x080076c2   Section        0  stm32f10x_it.o(i.UsageFault_Handler)
    i.__ARM_fpclassify                       0x080076c6   Section        0  fpclassify.o(i.__ARM_fpclassify)
    i._is_digit                              0x080076ee   Section        0  __printf_wp.o(i._is_digit)
    i._sys_exit                              0x080076fc   Section        0  usart.o(i._sys_exit)
    i.delay_init                             0x08007700   Section        0  delay.o(i.delay_init)
    i.delay_ms                               0x08007744   Section        0  delay.o(i.delay_ms)
    i.delay_us                               0x08007790   Section        0  delay.o(i.delay_us)
    i.fputc                                  0x080077dc   Section        0  usart.o(i.fputc)
    i.main                                   0x08007808   Section        0  main.o(i.main)
    i.time_show                              0x08007b4c   Section        0  main.o(i.time_show)
    i.uart_init                              0x08007c98   Section        0  usart.o(i.uart_init)
    locale$$code                             0x08007d3c   Section       44  lc_numeric_c.o(locale$$code)
    x$fpl$dfixu                              0x08007d68   Section       90  dfixu.o(x$fpl$dfixu)
    x$fpl$dfltu                              0x08007dc2   Section       38  dflt_clz.o(x$fpl$dfltu)
    x$fpl$dmul                               0x08007de8   Section      340  dmul.o(x$fpl$dmul)
    x$fpl$dnaninf                            0x08007f3c   Section      156  dnaninf.o(x$fpl$dnaninf)
    x$fpl$dretinf                            0x08007fd8   Section       12  dretinf.o(x$fpl$dretinf)
    x$fpl$f2d                                0x08007fe4   Section       86  f2d.o(x$fpl$f2d)
    x$fpl$fdiv                               0x0800803c   Section      388  fdiv.o(x$fpl$fdiv)
    _fdiv1                                   0x0800803d   Thumb Code     0  fdiv.o(x$fpl$fdiv)
    x$fpl$ffixu                              0x080081c0   Section       62  ffixu.o(x$fpl$ffixu)
    x$fpl$fflt                               0x08008200   Section       48  fflt_clz.o(x$fpl$fflt)
    x$fpl$ffltu                              0x08008230   Section       38  fflt_clz.o(x$fpl$ffltu)
    x$fpl$fmul                               0x08008258   Section      258  fmul.o(x$fpl$fmul)
    x$fpl$fnaninf                            0x0800835a   Section      140  fnaninf.o(x$fpl$fnaninf)
    x$fpl$fretinf                            0x080083e6   Section       10  fretinf.o(x$fpl$fretinf)
    x$fpl$printf1                            0x080083f0   Section        4  printf1.o(x$fpl$printf1)
    .constdata                               0x080083f4   Section     6080  lcd.o(.constdata)
    x$fpl$usenofp                            0x080083f4   Section        0  usenofp.o(x$fpl$usenofp)
    .constdata                               0x08009bb4   Section       24  rtc.o(.constdata)
    .constdata                               0x08009bcc   Section       40  _printf_hex_int.o(.constdata)
    uc_hextab                                0x08009bcc   Data          20  _printf_hex_int.o(.constdata)
    lc_hextab                                0x08009be0   Data          20  _printf_hex_int.o(.constdata)
    .constdata                               0x08009bf4   Section       17  __printf_flags_wp.o(.constdata)
    maptable                                 0x08009bf4   Data          17  __printf_flags_wp.o(.constdata)
    .constdata                               0x08009c08   Section      148  bigflt0.o(.constdata)
    tenpwrs_x                                0x08009c08   Data          60  bigflt0.o(.constdata)
    tenpwrs_i                                0x08009c44   Data          64  bigflt0.o(.constdata)
    locale$$data                             0x08009cbc   Section       28  lc_numeric_c.o(locale$$data)
    __lcnum_c_name                           0x08009cc0   Data           2  lc_numeric_c.o(locale$$data)
    __lcnum_c_start                          0x08009cc8   Data           0  lc_numeric_c.o(locale$$data)
    __lcnum_c_point                          0x08009cd4   Data           0  lc_numeric_c.o(locale$$data)
    __lcnum_c_thousands                      0x08009cd6   Data           0  lc_numeric_c.o(locale$$data)
    __lcnum_c_grouping                       0x08009cd7   Data           0  lc_numeric_c.o(locale$$data)
    __lcnum_c_end                            0x08009cd8   Data           0  lc_numeric_c.o(locale$$data)
    .data                                    0x20000000   Section       20  system_stm32f10x.o(.data)
    .data                                    0x20000014   Section       20  stm32f10x_rcc.o(.data)
    APBAHBPrescTable                         0x20000014   Data          16  stm32f10x_rcc.o(.data)
    ADCPrescTable                            0x20000024   Data           4  stm32f10x_rcc.o(.data)
    .data                                    0x20000028   Section        4  delay.o(.data)
    fac_us                                   0x20000028   Data           1  delay.o(.data)
    fac_ms                                   0x2000002a   Data           2  delay.o(.data)
    .data                                    0x2000002c   Section        4  usart.o(.data)
    .data                                    0x20000030   Section        4  lcd.o(.data)
    .data                                    0x20000034   Section       32  timer.o(.data)
    .data                                    0x20000054   Section        2  rtc.o(.data)
    daycnt                                   0x20000054   Data           2  rtc.o(.data)
    .bss                                     0x20000058   Section       14  lcd.o(.bss)
    .bss                                     0x20000066   Section       10  rtc.o(.bss)
    .bss                                     0x20000070   Section       96  libspace.o(.bss)
    HEAP                                     0x200000d0   Section      512  startup_stm32f10x_hd.o(HEAP)
    Heap_Mem                                 0x200000d0   Data         512  startup_stm32f10x_hd.o(HEAP)
    STACK                                    0x200002d0   Section     1024  startup_stm32f10x_hd.o(STACK)
    Stack_Mem                                0x200002d0   Data        1024  startup_stm32f10x_hd.o(STACK)
    __initial_sp                             0x200006d0   Data           0  startup_stm32f10x_hd.o(STACK)

    Global Symbols

    Symbol Name                              Value     Ov Type        Size  Object(Section)

    BuildAttributes$$THM_ISAv4$P$D$K$B$S$PE$A:L22UL41UL21$X:L11$S22US41US21$IEEE1$IW$USESV6$~STKCKD$USESV7$~SHL$OTIME$ROPI$IEEEJ$EBA8$UX$STANDARDLIB$REQ8$PRES8$EABIv2 0x00000000   Number         0  anon$$obj.o ABSOLUTE
    __ARM_use_no_argv                        0x00000000   Number         0  main.o ABSOLUTE
    _printf_flags                            0x00000000   Number         0  printf_stubs.o ABSOLUTE
    _printf_return_value                     0x00000000   Number         0  printf_stubs.o ABSOLUTE
    _printf_sizespec                         0x00000000   Number         0  printf_stubs.o ABSOLUTE
    _printf_widthprec                        0x00000000   Number         0  printf_stubs.o ABSOLUTE
    __ARM_exceptions_init                     - Undefined Weak Reference
    __alloca_initialize                       - Undefined Weak Reference
    __arm_preinit_                            - Undefined Weak Reference
    __cpp_initialize__aeabi_                  - Undefined Weak Reference
    __cxa_finalize                            - Undefined Weak Reference
    __sigvec_lookup                           - Undefined Weak Reference
    _atexit_init                              - Undefined Weak Reference
    _call_atexit_fns                          - Undefined Weak Reference
    _clock_init                               - Undefined Weak Reference
    _fp_trap_init                             - Undefined Weak Reference
    _fp_trap_shutdown                         - Undefined Weak Reference
    _get_lc_collate                           - Undefined Weak Reference
    _get_lc_ctype                             - Undefined Weak Reference
    _get_lc_monetary                          - Undefined Weak Reference
    _get_lc_time                              - Undefined Weak Reference
    _getenv_init                              - Undefined Weak Reference
    _handle_redirection                       - Undefined Weak Reference
    _init_alloc                               - Undefined Weak Reference
    _init_user_alloc                          - Undefined Weak Reference
    _initio                                   - Undefined Weak Reference
    _mutex_acquire                            - Undefined Weak Reference
    _mutex_release                            - Undefined Weak Reference
    _printf_truncate_signed                   - Undefined Weak Reference
    _printf_truncate_unsigned                 - Undefined Weak Reference
    _rand_init                                - Undefined Weak Reference
    _signal_finish                            - Undefined Weak Reference
    _signal_init                              - Undefined Weak Reference
    _terminate_alloc                          - Undefined Weak Reference
    _terminate_user_alloc                     - Undefined Weak Reference
    _terminateio                              - Undefined Weak Reference
    __Vectors_Size                           0x00000130   Number         0  startup_stm32f10x_hd.o ABSOLUTE
    __Vectors                                0x08000000   Data           4  startup_stm32f10x_hd.o(RESET)
    __Vectors_End                            0x08000130   Data           0  startup_stm32f10x_hd.o(RESET)
    __main                                   0x08000131   Thumb Code     8  __main.o(!!!main)
    __scatterload                            0x08000139   Thumb Code     0  __scatter.o(!!!scatter)
    __scatterload_rt2                        0x08000139   Thumb Code    44  __scatter.o(!!!scatter)
    __scatterload_rt2_thumb_only             0x08000139   Thumb Code     0  __scatter.o(!!!scatter)
    __scatterload_null                       0x08000147   Thumb Code     0  __scatter.o(!!!scatter)
    __scatterload_copy                       0x0800016d   Thumb Code    26  __scatter_copy.o(!!handler_copy)
    __scatterload_zeroinit                   0x08000189   Thumb Code    28  __scatter_zi.o(!!handler_zi)
    _printf_f                                0x080001a5   Thumb Code     0  _printf_f.o(.ARM.Collect$$_printf_percent$$00000003)
    _printf_percent                          0x080001a5   Thumb Code     0  _printf_percent.o(.ARM.Collect$$_printf_percent$$00000000)
    _printf_d                                0x080001ab   Thumb Code     0  _printf_d.o(.ARM.Collect$$_printf_percent$$00000009)
    _printf_x                                0x080001b1   Thumb Code     0  _printf_x.o(.ARM.Collect$$_printf_percent$$0000000C)
    _printf_percent_end                      0x080001b7   Thumb Code     0  _printf_percent_end.o(.ARM.Collect$$_printf_percent$$00000017)
    __rt_lib_init                            0x080001bb   Thumb Code     0  libinit.o(.ARM.Collect$$libinit$$00000000)
    __rt_lib_init_fp_1                       0x080001bd   Thumb Code     0  libinit2.o(.ARM.Collect$$libinit$$00000002)
    __rt_lib_init_heap_1                     0x080001bd   Thumb Code     0  libinit2.o(.ARM.Collect$$libinit$$0000000A)
    __rt_lib_init_lc_common                  0x080001bd   Thumb Code     0  libinit2.o(.ARM.Collect$$libinit$$0000000F)
    __rt_lib_init_preinit_1                  0x080001bd   Thumb Code     0  libinit2.o(.ARM.Collect$$libinit$$00000004)
    __rt_lib_init_rand_1                     0x080001bd   Thumb Code     0  libinit2.o(.ARM.Collect$$libinit$$0000000E)
    __rt_lib_init_user_alloc_1               0x080001bd   Thumb Code     0  libinit2.o(.ARM.Collect$$libinit$$0000000C)
    __rt_lib_init_lc_collate_1               0x080001c3   Thumb Code     0  libinit2.o(.ARM.Collect$$libinit$$00000011)
    __rt_lib_init_lc_ctype_1                 0x080001c3   Thumb Code     0  libinit2.o(.ARM.Collect$$libinit$$00000013)
    __rt_lib_init_lc_monetary_1              0x080001c3   Thumb Code     0  libinit2.o(.ARM.Collect$$libinit$$00000015)
    __rt_lib_init_lc_numeric_2               0x080001c3   Thumb Code     0  libinit2.o(.ARM.Collect$$libinit$$00000016)
    __rt_lib_init_alloca_1                   0x080001cd   Thumb Code     0  libinit2.o(.ARM.Collect$$libinit$$0000002E)
    __rt_lib_init_argv_1                     0x080001cd   Thumb Code     0  libinit2.o(.ARM.Collect$$libinit$$0000002C)
    __rt_lib_init_atexit_1                   0x080001cd   Thumb Code     0  libinit2.o(.ARM.Collect$$libinit$$0000001B)
    __rt_lib_init_clock_1                    0x080001cd   Thumb Code     0  libinit2.o(.ARM.Collect$$libinit$$00000021)
    __rt_lib_init_cpp_1                      0x080001cd   Thumb Code     0  libinit2.o(.ARM.Collect$$libinit$$00000032)
    __rt_lib_init_exceptions_1               0x080001cd   Thumb Code     0  libinit2.o(.ARM.Collect$$libinit$$00000030)
    __rt_lib_init_fp_trap_1                  0x080001cd   Thumb Code     0  libinit2.o(.ARM.Collect$$libinit$$0000001F)
    __rt_lib_init_getenv_1                   0x080001cd   Thumb Code     0  libinit2.o(.ARM.Collect$$libinit$$00000023)
    __rt_lib_init_lc_numeric_1               0x080001cd   Thumb Code     0  libinit2.o(.ARM.Collect$$libinit$$00000017)
    __rt_lib_init_lc_time_1                  0x080001cd   Thumb Code     0  libinit2.o(.ARM.Collect$$libinit$$00000019)
    __rt_lib_init_return                     0x080001cd   Thumb Code     0  libinit2.o(.ARM.Collect$$libinit$$00000033)
    __rt_lib_init_signal_1                   0x080001cd   Thumb Code     0  libinit2.o(.ARM.Collect$$libinit$$0000001D)
    __rt_lib_init_stdio_1                    0x080001cd   Thumb Code     0  libinit2.o(.ARM.Collect$$libinit$$00000025)
    __rt_lib_shutdown                        0x080001cf   Thumb Code     0  libshutdown.o(.ARM.Collect$$libshutdown$$00000000)
    __rt_lib_shutdown_cpp_1                  0x080001d1   Thumb Code     0  libshutdown2.o(.ARM.Collect$$libshutdown$$00000002)
    __rt_lib_shutdown_fp_trap_1              0x080001d1   Thumb Code     0  libshutdown2.o(.ARM.Collect$$libshutdown$$00000007)
    __rt_lib_shutdown_heap_1                 0x080001d1   Thumb Code     0  libshutdown2.o(.ARM.Collect$$libshutdown$$0000000F)
    __rt_lib_shutdown_return                 0x080001d1   Thumb Code     0  libshutdown2.o(.ARM.Collect$$libshutdown$$00000010)
    __rt_lib_shutdown_signal_1               0x080001d1   Thumb Code     0  libshutdown2.o(.ARM.Collect$$libshutdown$$0000000A)
    __rt_lib_shutdown_stdio_1                0x080001d1   Thumb Code     0  libshutdown2.o(.ARM.Collect$$libshutdown$$00000004)
    __rt_lib_shutdown_user_alloc_1           0x080001d1   Thumb Code     0  libshutdown2.o(.ARM.Collect$$libshutdown$$0000000C)
    __rt_entry                               0x080001d3   Thumb Code     0  __rtentry.o(.ARM.Collect$$rtentry$$00000000)
    __rt_entry_presh_1                       0x080001d3   Thumb Code     0  __rtentry2.o(.ARM.Collect$$rtentry$$00000002)
    __rt_entry_sh                            0x080001d3   Thumb Code     0  __rtentry4.o(.ARM.Collect$$rtentry$$00000004)
    __rt_entry_li                            0x080001d9   Thumb Code     0  __rtentry2.o(.ARM.Collect$$rtentry$$0000000A)
    __rt_entry_postsh_1                      0x080001d9   Thumb Code     0  __rtentry2.o(.ARM.Collect$$rtentry$$00000009)
    __rt_entry_main                          0x080001dd   Thumb Code     0  __rtentry2.o(.ARM.Collect$$rtentry$$0000000D)
    __rt_entry_postli_1                      0x080001dd   Thumb Code     0  __rtentry2.o(.ARM.Collect$$rtentry$$0000000C)
    __rt_exit                                0x080001e5   Thumb Code     0  rtexit.o(.ARM.Collect$$rtexit$$00000000)
    __rt_exit_ls                             0x080001e7   Thumb Code     0  rtexit2.o(.ARM.Collect$$rtexit$$00000003)
    __rt_exit_prels_1                        0x080001e7   Thumb Code     0  rtexit2.o(.ARM.Collect$$rtexit$$00000002)
    __rt_exit_exit                           0x080001eb   Thumb Code     0  rtexit2.o(.ARM.Collect$$rtexit$$00000004)
    Reset_Handler                            0x080001f1   Thumb Code     8  startup_stm32f10x_hd.o(.text)
    ADC1_2_IRQHandler                        0x0800020b   Thumb Code     0  startup_stm32f10x_hd.o(.text)
    ADC3_IRQHandler                          0x0800020b   Thumb Code     0  startup_stm32f10x_hd.o(.text)
    CAN1_RX1_IRQHandler                      0x0800020b   Thumb Code     0  startup_stm32f10x_hd.o(.text)
    CAN1_SCE_IRQHandler                      0x0800020b   Thumb Code     0  startup_stm32f10x_hd.o(.text)
    DMA1_Channel1_IRQHandler                 0x0800020b   Thumb Code     0  startup_stm32f10x_hd.o(.text)
    DMA1_Channel2_IRQHandler                 0x0800020b   Thumb Code     0  startup_stm32f10x_hd.o(.text)
    DMA1_Channel3_IRQHandler                 0x0800020b   Thumb Code     0  startup_stm32f10x_hd.o(.text)
    DMA1_Channel4_IRQHandler                 0x0800020b   Thumb Code     0  startup_stm32f10x_hd.o(.text)
    DMA1_Channel5_IRQHandler                 0x0800020b   Thumb Code     0  startup_stm32f10x_hd.o(.text)
    DMA1_Channel6_IRQHandler                 0x0800020b   Thumb Code     0  startup_stm32f10x_hd.o(.text)
    DMA1_Channel7_IRQHandler                 0x0800020b   Thumb Code     0  startup_stm32f10x_hd.o(.text)
    DMA2_Channel1_IRQHandler                 0x0800020b   Thumb Code     0  startup_stm32f10x_hd.o(.text)
    DMA2_Channel2_IRQHandler                 0x0800020b   Thumb Code     0  startup_stm32f10x_hd.o(.text)
    DMA2_Channel3_IRQHandler                 0x0800020b   Thumb Code     0  startup_stm32f10x_hd.o(.text)
    DMA2_Channel4_5_IRQHandler               0x0800020b   Thumb Code     0  startup_stm32f10x_hd.o(.text)
    EXTI0_IRQHandler                         0x0800020b   Thumb Code     0  startup_stm32f10x_hd.o(.text)
    EXTI15_10_IRQHandler                     0x0800020b   Thumb Code     0  startup_stm32f10x_hd.o(.text)
    EXTI1_IRQHandler                         0x0800020b   Thumb Code     0  startup_stm32f10x_hd.o(.text)
    EXTI2_IRQHandler                         0x0800020b   Thumb Code     0  startup_stm32f10x_hd.o(.text)
    EXTI3_IRQHandler                         0x0800020b   Thumb Code     0  startup_stm32f10x_hd.o(.text)
    EXTI4_IRQHandler                         0x0800020b   Thumb Code     0  startup_stm32f10x_hd.o(.text)
    EXTI9_5_IRQHandler                       0x0800020b   Thumb Code     0  startup_stm32f10x_hd.o(.text)
    FLASH_IRQHandler                         0x0800020b   Thumb Code     0  startup_stm32f10x_hd.o(.text)
    FSMC_IRQHandler                          0x0800020b   Thumb Code     0  startup_stm32f10x_hd.o(.text)
    I2C1_ER_IRQHandler                       0x0800020b   Thumb Code     0  startup_stm32f10x_hd.o(.text)
    I2C1_EV_IRQHandler                       0x0800020b   Thumb Code     0  startup_stm32f10x_hd.o(.text)
    I2C2_ER_IRQHandler                       0x0800020b   Thumb Code     0  startup_stm32f10x_hd.o(.text)
    I2C2_EV_IRQHandler                       0x0800020b   Thumb Code     0  startup_stm32f10x_hd.o(.text)
    PVD_IRQHandler                           0x0800020b   Thumb Code     0  startup_stm32f10x_hd.o(.text)
    RCC_IRQHandler                           0x0800020b   Thumb Code     0  startup_stm32f10x_hd.o(.text)
    RTCAlarm_IRQHandler                      0x0800020b   Thumb Code     0  startup_stm32f10x_hd.o(.text)
    SDIO_IRQHandler                          0x0800020b   Thumb Code     0  startup_stm32f10x_hd.o(.text)
    SPI1_IRQHandler                          0x0800020b   Thumb Code     0  startup_stm32f10x_hd.o(.text)
    SPI2_IRQHandler                          0x0800020b   Thumb Code     0  startup_stm32f10x_hd.o(.text)
    SPI3_IRQHandler                          0x0800020b   Thumb Code     0  startup_stm32f10x_hd.o(.text)
    TAMPER_IRQHandler                        0x0800020b   Thumb Code     0  startup_stm32f10x_hd.o(.text)
    TIM1_BRK_IRQHandler                      0x0800020b   Thumb Code     0  startup_stm32f10x_hd.o(.text)
    TIM1_CC_IRQHandler                       0x0800020b   Thumb Code     0  startup_stm32f10x_hd.o(.text)
    TIM1_TRG_COM_IRQHandler                  0x0800020b   Thumb Code     0  startup_stm32f10x_hd.o(.text)
    TIM1_UP_IRQHandler                       0x0800020b   Thumb Code     0  startup_stm32f10x_hd.o(.text)
    TIM3_IRQHandler                          0x0800020b   Thumb Code     0  startup_stm32f10x_hd.o(.text)
    TIM4_IRQHandler                          0x0800020b   Thumb Code     0  startup_stm32f10x_hd.o(.text)
    TIM5_IRQHandler                          0x0800020b   Thumb Code     0  startup_stm32f10x_hd.o(.text)
    TIM6_IRQHandler                          0x0800020b   Thumb Code     0  startup_stm32f10x_hd.o(.text)
    TIM7_IRQHandler                          0x0800020b   Thumb Code     0  startup_stm32f10x_hd.o(.text)
    TIM8_BRK_IRQHandler                      0x0800020b   Thumb Code     0  startup_stm32f10x_hd.o(.text)
    TIM8_CC_IRQHandler                       0x0800020b   Thumb Code     0  startup_stm32f10x_hd.o(.text)
    TIM8_TRG_COM_IRQHandler                  0x0800020b   Thumb Code     0  startup_stm32f10x_hd.o(.text)
    TIM8_UP_IRQHandler                       0x0800020b   Thumb Code     0  startup_stm32f10x_hd.o(.text)
    UART4_IRQHandler                         0x0800020b   Thumb Code     0  startup_stm32f10x_hd.o(.text)
    UART5_IRQHandler                         0x0800020b   Thumb Code     0  startup_stm32f10x_hd.o(.text)
    USART2_IRQHandler                        0x0800020b   Thumb Code     0  startup_stm32f10x_hd.o(.text)
    USART3_IRQHandler                        0x0800020b   Thumb Code     0  startup_stm32f10x_hd.o(.text)
    USBWakeUp_IRQHandler                     0x0800020b   Thumb Code     0  startup_stm32f10x_hd.o(.text)
    USB_HP_CAN1_TX_IRQHandler                0x0800020b   Thumb Code     0  startup_stm32f10x_hd.o(.text)
    USB_LP_CAN1_RX0_IRQHandler               0x0800020b   Thumb Code     0  startup_stm32f10x_hd.o(.text)
    WWDG_IRQHandler                          0x0800020b   Thumb Code     0  startup_stm32f10x_hd.o(.text)
    __user_initial_stackheap                 0x0800020d   Thumb Code     0  startup_stm32f10x_hd.o(.text)
    __use_no_semihosting                     0x08000231   Thumb Code     2  use_no_semi_2.o(.text)
    __2printf                                0x08000235   Thumb Code    20  noretval__2printf.o(.text)
    __2sprintf                               0x0800024d   Thumb Code    34  noretval__2sprintf.o(.text)
    _printf_pre_padding                      0x08000275   Thumb Code    44  _printf_pad.o(.text)
    _printf_post_padding                     0x080002a1   Thumb Code    34  _printf_pad.o(.text)
    _printf_int_dec                          0x080002c5   Thumb Code   104  _printf_dec.o(.text)
    _printf_int_hex                          0x0800033d   Thumb Code    84  _printf_hex_int.o(.text)
    _printf_longlong_hex                     0x0800033d   Thumb Code     0  _printf_hex_int.o(.text)
    __printf                                 0x08000395   Thumb Code   308  __printf_flags_wp.o(.text)
    __use_two_region_memory                  0x080004cd   Thumb Code     2  heapauxi.o(.text)
    __rt_heap_escrow$2region                 0x080004cf   Thumb Code     2  heapauxi.o(.text)
    __rt_heap_expand$2region                 0x080004d1   Thumb Code     2  heapauxi.o(.text)
    __I$use$semihosting                      0x080004d3   Thumb Code     0  use_no_semi.o(.text)
    __use_no_semihosting_swi                 0x080004d3   Thumb Code     2  use_no_semi.o(.text)
    _printf_int_common                       0x080004d5   Thumb Code   178  _printf_intcommon.o(.text)
    __lib_sel_fp_printf                      0x08000587   Thumb Code     2  _printf_fp_dec.o(.text)
    _printf_fp_dec_real                      0x08000739   Thumb Code   620  _printf_fp_dec.o(.text)
    _printf_char_common                      0x080009af   Thumb Code    32  _printf_char_common.o(.text)
    _sputc                                   0x080009d5   Thumb Code    10  _sputc.o(.text)
    _printf_char_file                        0x080009e1   Thumb Code    32  _printf_char_file.o(.text)
    __rt_locale                              0x08000a05   Thumb Code     8  rt_locale_intlibspace.o(.text)
    _ll_udiv10                               0x08000a0d   Thumb Code   138  lludiv10.o(.text)
    _printf_fp_infnan                        0x08000a99   Thumb Code   112  _printf_fp_infnan.o(.text)
    _btod_etento                             0x08000b19   Thumb Code   224  bigflt0.o(.text)
    ferror                                   0x08000bfd   Thumb Code     8  ferror.o(.text)
    __user_libspace                          0x08000c05   Thumb Code     8  libspace.o(.text)
    __user_perproc_libspace                  0x08000c05   Thumb Code     0  libspace.o(.text)
    __user_perthread_libspace                0x08000c05   Thumb Code     0  libspace.o(.text)
    __user_setup_stackheap                   0x08000c0d   Thumb Code    74  sys_stackheap_outer.o(.text)
    exit                                     0x08000c57   Thumb Code    18  exit.o(.text)
    strcmp                                   0x08000c69   Thumb Code   128  strcmpv7m.o(.text)
    _btod_d2e                                0x08000ce9   Thumb Code    62  btod.o(CL$$btod_d2e)
    _d2e_denorm_low                          0x08000d27   Thumb Code    70  btod.o(CL$$btod_d2e_denorm_low)
    _d2e_norm_op1                            0x08000d6d   Thumb Code    96  btod.o(CL$$btod_d2e_norm_op1)
    __btod_div_common                        0x08000dcd   Thumb Code   696  btod.o(CL$$btod_div_common)
    _e2e                                     0x08001105   Thumb Code   220  btod.o(CL$$btod_e2e)
    _btod_ediv                               0x080011e1   Thumb Code    42  btod.o(CL$$btod_ediv)
    _btod_emul                               0x0800120b   Thumb Code    42  btod.o(CL$$btod_emul)
    __btod_mult_common                       0x08001235   Thumb Code   580  btod.o(CL$$btod_mult_common)
    BKP_DeInit                               0x08001479   Thumb Code    16  stm32f10x_bkp.o(i.BKP_DeInit)
    BKP_ReadBackupRegister                   0x08001489   Thumb Code    24  stm32f10x_bkp.o(i.BKP_ReadBackupRegister)
    BKP_WriteBackupRegister                  0x080014a5   Thumb Code    22  stm32f10x_bkp.o(i.BKP_WriteBackupRegister)
    BusFault_Handler                         0x080014c1   Thumb Code     4  stm32f10x_it.o(i.BusFault_Handler)
    DebugMon_Handler                         0x080014c5   Thumb Code     2  stm32f10x_it.o(i.DebugMon_Handler)
    GPIO_Init                                0x080014c7   Thumb Code   278  stm32f10x_gpio.o(i.GPIO_Init)
    GPIO_PinRemapConfig                      0x080015dd   Thumb Code   138  stm32f10x_gpio.o(i.GPIO_PinRemapConfig)
    GPIO_ResetBits                           0x0800166d   Thumb Code     4  stm32f10x_gpio.o(i.GPIO_ResetBits)
    GPIO_SetBits                             0x08001671   Thumb Code     4  stm32f10x_gpio.o(i.GPIO_SetBits)
    HardFault_Handler                        0x08001675   Thumb Code     4  stm32f10x_it.o(i.HardFault_Handler)
    Is_Leap_Year                             0x08001679   Thumb Code    58  rtc.o(i.Is_Leap_Year)
    LCD_Clear                                0x080016b5   Thumb Code   122  lcd.o(i.LCD_Clear)
    LCD_Display_Dir                          0x0800173d   Thumb Code   444  lcd.o(i.LCD_Display_Dir)
    LCD_Fast_DrawPoint                       0x080018fd   Thumb Code   854  lcd.o(i.LCD_Fast_DrawPoint)
    LCD_Init                                 0x08001c61   Thumb Code 15292  lcd.o(i.LCD_Init)
    LCD_Pow                                  0x0800581d   Thumb Code    22  lcd.o(i.LCD_Pow)
    LCD_RD_DATA                              0x08005835   Thumb Code    98  lcd.o(i.LCD_RD_DATA)
    LCD_ReadReg                              0x080058a5   Thumb Code    16  lcd.o(i.LCD_ReadReg)
    LCD_SSD_BackLightSet                     0x080058b5   Thumb Code   198  lcd.o(i.LCD_SSD_BackLightSet)
    LCD_Scan_Dir                             0x08005989   Thumb Code  1112  lcd.o(i.LCD_Scan_Dir)
    LCD_SetCursor                            0x08005de1   Thumb Code   944  lcd.o(i.LCD_SetCursor)
    LCD_ShowChar                             0x0800619d   Thumb Code   272  lcd.o(i.LCD_ShowChar)
    LCD_ShowNum                              0x080062c5   Thumb Code   148  lcd.o(i.LCD_ShowNum)
    LCD_ShowString                           0x08006359   Thumb Code   102  lcd.o(i.LCD_ShowString)
    LCD_ShowxNum                             0x080063bf   Thumb Code   190  lcd.o(i.LCD_ShowxNum)
    LCD_WR_DATAX                             0x0800647d   Thumb Code    28  lcd.o(i.LCD_WR_DATAX)
    LCD_WR_REG                               0x080064a1   Thumb Code    28  lcd.o(i.LCD_WR_REG)
    LCD_WriteRAM_Prepare                     0x080064c5   Thumb Code    12  lcd.o(i.LCD_WriteRAM_Prepare)
    LCD_WriteReg                             0x080064d5   Thumb Code    40  lcd.o(i.LCD_WriteReg)
    MemManage_Handler                        0x08006505   Thumb Code     4  stm32f10x_it.o(i.MemManage_Handler)
    NMI_Handler                              0x08006509   Thumb Code     2  stm32f10x_it.o(i.NMI_Handler)
    NVIC_Init                                0x0800650d   Thumb Code   100  misc.o(i.NVIC_Init)
    NVIC_PriorityGroupConfig                 0x0800657d   Thumb Code    10  misc.o(i.NVIC_PriorityGroupConfig)
    PWR_BackupAccessCmd                      0x08006591   Thumb Code     6  stm32f10x_pwr.o(i.PWR_BackupAccessCmd)
    PendSV_Handler                           0x0800659d   Thumb Code     2  stm32f10x_it.o(i.PendSV_Handler)
    RCC_APB1PeriphClockCmd                   0x080065a1   Thumb Code    26  stm32f10x_rcc.o(i.RCC_APB1PeriphClockCmd)
    RCC_APB2PeriphClockCmd                   0x080065c1   Thumb Code    26  stm32f10x_rcc.o(i.RCC_APB2PeriphClockCmd)
    RCC_BackupResetCmd                       0x080065e1   Thumb Code     6  stm32f10x_rcc.o(i.RCC_BackupResetCmd)
    RCC_GetClocksFreq                        0x080065ed   Thumb Code   192  stm32f10x_rcc.o(i.RCC_GetClocksFreq)
    RCC_GetFlagStatus                        0x080066c1   Thumb Code    56  stm32f10x_rcc.o(i.RCC_GetFlagStatus)
    RCC_LSEConfig                            0x080066fd   Thumb Code    46  stm32f10x_rcc.o(i.RCC_LSEConfig)
    RCC_RTCCLKCmd                            0x08006731   Thumb Code     6  stm32f10x_rcc.o(i.RCC_RTCCLKCmd)
    RCC_RTCCLKConfig                         0x0800673d   Thumb Code    12  stm32f10x_rcc.o(i.RCC_RTCCLKConfig)
    RTC_ClearITPendingBit                    0x0800674d   Thumb Code    12  stm32f10x_rtc.o(i.RTC_ClearITPendingBit)
    RTC_EnterConfigMode                      0x0800675d   Thumb Code    14  stm32f10x_rtc.o(i.RTC_EnterConfigMode)
    RTC_ExitConfigMode                       0x08006771   Thumb Code    16  stm32f10x_rtc.o(i.RTC_ExitConfigMode)
    RTC_Get                                  0x08006785   Thumb Code   240  rtc.o(i.RTC_Get)
    RTC_GetCounter                           0x08006885   Thumb Code    16  stm32f10x_rtc.o(i.RTC_GetCounter)
    RTC_GetITStatus                          0x08006899   Thumb Code    32  stm32f10x_rtc.o(i.RTC_GetITStatus)
    RTC_Get_Week                             0x080068bd   Thumb Code   116  rtc.o(i.RTC_Get_Week)
    RTC_IRQHandler                           0x08006935   Thumb Code    40  rtc.o(i.RTC_IRQHandler)
    RTC_ITConfig                             0x0800695d   Thumb Code    26  stm32f10x_rtc.o(i.RTC_ITConfig)
    RTC_Init                                 0x0800697d   Thumb Code   214  rtc.o(i.RTC_Init)
    RTC_Set                                  0x08006a55   Thumb Code   188  rtc.o(i.RTC_Set)
    RTC_SetCounter                           0x08006b21   Thumb Code    24  stm32f10x_rtc.o(i.RTC_SetCounter)
    RTC_SetPrescaler                         0x08006b3d   Thumb Code    26  stm32f10x_rtc.o(i.RTC_SetPrescaler)
    RTC_WaitForLastTask                      0x08006b5d   Thumb Code    16  stm32f10x_rtc.o(i.RTC_WaitForLastTask)
    RTC_WaitForSynchro                       0x08006b71   Thumb Code    30  stm32f10x_rtc.o(i.RTC_WaitForSynchro)
    SVC_Handler                              0x08006b95   Thumb Code     2  stm32f10x_it.o(i.SVC_Handler)
    SysTick_CLKSourceConfig                  0x08006c81   Thumb Code    40  misc.o(i.SysTick_CLKSourceConfig)
    SysTick_Handler                          0x08006ca9   Thumb Code     2  stm32f10x_it.o(i.SysTick_Handler)
    SystemInit                               0x08006cad   Thumb Code    78  system_stm32f10x.o(i.SystemInit)
    TIM1_Output_PWM_Init                     0x08006f4d   Thumb Code   154  pwm.o(i.TIM1_Output_PWM_Init)
    TIM2_IRQHandler                          0x08006ff1   Thumb Code   268  timer.o(i.TIM2_IRQHandler)
    TIM2_Input_Capture_Init                  0x08007129   Thumb Code   170  timer.o(i.TIM2_Input_Capture_Init)
    TIM_ARRPreloadConfig                     0x080071d9   Thumb Code    24  stm32f10x_tim.o(i.TIM_ARRPreloadConfig)
    TIM_ClearITPendingBit                    0x080071f1   Thumb Code     6  stm32f10x_tim.o(i.TIM_ClearITPendingBit)
    TIM_Cmd                                  0x080071f7   Thumb Code    24  stm32f10x_tim.o(i.TIM_Cmd)
    TIM_CtrlPWMOutputs                       0x0800720f   Thumb Code    30  stm32f10x_tim.o(i.TIM_CtrlPWMOutputs)
    TIM_GetCapture1                          0x0800722d   Thumb Code     6  stm32f10x_tim.o(i.TIM_GetCapture1)
    TIM_GetITStatus                          0x08007233   Thumb Code    34  stm32f10x_tim.o(i.TIM_GetITStatus)
    TIM_ICInit                               0x08007255   Thumb Code   150  stm32f10x_tim.o(i.TIM_ICInit)
    TIM_ITConfig                             0x08007301   Thumb Code    18  stm32f10x_tim.o(i.TIM_ITConfig)
    TIM_OC1Init                              0x08007315   Thumb Code   132  stm32f10x_tim.o(i.TIM_OC1Init)
    TIM_OC1PolarityConfig                    0x080073ad   Thumb Code    18  stm32f10x_tim.o(i.TIM_OC1PolarityConfig)
    TIM_OC1PreloadConfig                     0x080073bf   Thumb Code    18  stm32f10x_tim.o(i.TIM_OC1PreloadConfig)
    TIM_SetCounter                           0x080073d1   Thumb Code     4  stm32f10x_tim.o(i.TIM_SetCounter)
    TIM_SetIC1Prescaler                      0x080073d5   Thumb Code    18  stm32f10x_tim.o(i.TIM_SetIC1Prescaler)
    TIM_SetIC2Prescaler                      0x080073e7   Thumb Code    26  stm32f10x_tim.o(i.TIM_SetIC2Prescaler)
    TIM_SetIC3Prescaler                      0x08007401   Thumb Code    18  stm32f10x_tim.o(i.TIM_SetIC3Prescaler)
    TIM_SetIC4Prescaler                      0x08007413   Thumb Code    26  stm32f10x_tim.o(i.TIM_SetIC4Prescaler)
    TIM_TimeBaseInit                         0x0800742d   Thumb Code   122  stm32f10x_tim.o(i.TIM_TimeBaseInit)
    USART1_IRQHandler                        0x080074d1   Thumb Code    32  usart.o(i.USART1_IRQHandler)
    USART_ClearFlag                          0x080074f5   Thumb Code    18  stm32f10x_usart.o(i.USART_ClearFlag)
    USART_Cmd                                0x08007507   Thumb Code    24  stm32f10x_usart.o(i.USART_Cmd)
    USART_GetFlagStatus                      0x0800751f   Thumb Code    26  stm32f10x_usart.o(i.USART_GetFlagStatus)
    USART_GetITStatus                        0x08007539   Thumb Code    84  stm32f10x_usart.o(i.USART_GetITStatus)
    USART_ITConfig                           0x0800758d   Thumb Code    74  stm32f10x_usart.o(i.USART_ITConfig)
    USART_Init                               0x080075d9   Thumb Code   210  stm32f10x_usart.o(i.USART_Init)
    USART_ReceiveData                        0x080076b1   Thumb Code    10  stm32f10x_usart.o(i.USART_ReceiveData)
    USART_SendData                           0x080076bb   Thumb Code     8  stm32f10x_usart.o(i.USART_SendData)
    UsageFault_Handler                       0x080076c3   Thumb Code     4  stm32f10x_it.o(i.UsageFault_Handler)
    __ARM_fpclassify                         0x080076c7   Thumb Code    40  fpclassify.o(i.__ARM_fpclassify)
    _is_digit                                0x080076ef   Thumb Code    14  __printf_wp.o(i._is_digit)
    _sys_exit                                0x080076fd   Thumb Code     4  usart.o(i._sys_exit)
    delay_init                               0x08007701   Thumb Code    50  delay.o(i.delay_init)
    delay_ms                                 0x08007745   Thumb Code    72  delay.o(i.delay_ms)
    delay_us                                 0x08007791   Thumb Code    72  delay.o(i.delay_us)
    fputc                                    0x080077dd   Thumb Code    40  usart.o(i.fputc)
    main                                     0x08007809   Thumb Code   556  main.o(i.main)
    time_show                                0x08007b4d   Thumb Code   244  main.o(i.time_show)
    uart_init                                0x08007c99   Thumb Code   156  usart.o(i.uart_init)
    _get_lc_numeric                          0x08007d3d   Thumb Code    44  lc_numeric_c.o(locale$$code)
    __aeabi_d2uiz                            0x08007d69   Thumb Code     0  dfixu.o(x$fpl$dfixu)
    _dfixu                                   0x08007d69   Thumb Code    90  dfixu.o(x$fpl$dfixu)
    __aeabi_ui2d                             0x08007dc3   Thumb Code     0  dflt_clz.o(x$fpl$dfltu)
    _dfltu                                   0x08007dc3   Thumb Code    38  dflt_clz.o(x$fpl$dfltu)
    __aeabi_dmul                             0x08007de9   Thumb Code     0  dmul.o(x$fpl$dmul)
    _dmul                                    0x08007de9   Thumb Code   332  dmul.o(x$fpl$dmul)
    __fpl_dnaninf                            0x08007f3d   Thumb Code   156  dnaninf.o(x$fpl$dnaninf)
    __fpl_dretinf                            0x08007fd9   Thumb Code    12  dretinf.o(x$fpl$dretinf)
    __aeabi_f2d                              0x08007fe5   Thumb Code     0  f2d.o(x$fpl$f2d)
    _f2d                                     0x08007fe5   Thumb Code    86  f2d.o(x$fpl$f2d)
    __aeabi_fdiv                             0x0800803d   Thumb Code     0  fdiv.o(x$fpl$fdiv)
    _fdiv                                    0x0800803d   Thumb Code   384  fdiv.o(x$fpl$fdiv)
    __aeabi_f2uiz                            0x080081c1   Thumb Code     0  ffixu.o(x$fpl$ffixu)
    _ffixu                                   0x080081c1   Thumb Code    62  ffixu.o(x$fpl$ffixu)
    __aeabi_i2f                              0x08008201   Thumb Code     0  fflt_clz.o(x$fpl$fflt)
    _fflt                                    0x08008201   Thumb Code    48  fflt_clz.o(x$fpl$fflt)
    __aeabi_ui2f                             0x08008231   Thumb Code     0  fflt_clz.o(x$fpl$ffltu)
    _ffltu                                   0x08008231   Thumb Code    38  fflt_clz.o(x$fpl$ffltu)
    __aeabi_fmul                             0x08008259   Thumb Code     0  fmul.o(x$fpl$fmul)
    _fmul                                    0x08008259   Thumb Code   258  fmul.o(x$fpl$fmul)
    __fpl_fnaninf                            0x0800835b   Thumb Code   140  fnaninf.o(x$fpl$fnaninf)
    __fpl_fretinf                            0x080083e7   Thumb Code    10  fretinf.o(x$fpl$fretinf)
    _printf_fp_dec                           0x080083f1   Thumb Code     4  printf1.o(x$fpl$printf1)
    __I$use$fp                               0x080083f4   Number         0  usenofp.o(x$fpl$usenofp)
    asc2_1206                                0x080083f4   Data        1140  lcd.o(.constdata)
    asc2_1608                                0x08008868   Data        1520  lcd.o(.constdata)
    asc2_2412                                0x08008e58   Data        3420  lcd.o(.constdata)
    table_week                               0x08009bb4   Data          12  rtc.o(.constdata)
    mon_table                                0x08009bc0   Data          12  rtc.o(.constdata)
    Region$$Table$$Base                      0x08009c9c   Number         0  anon$$obj.o(Region$$Table)
    Region$$Table$$Limit                     0x08009cbc   Number         0  anon$$obj.o(Region$$Table)
    SystemCoreClock                          0x20000000   Data           4  system_stm32f10x.o(.data)
    AHBPrescTable                            0x20000004   Data          16  system_stm32f10x.o(.data)
    __stdout                                 0x2000002c   Data           4  usart.o(.data)
    POINT_COLOR                              0x20000030   Data           2  lcd.o(.data)
    BACK_COLOR                               0x20000032   Data           2  lcd.o(.data)
    Edge_Flag                                0x20000034   Data           2  timer.o(.data)
    test                                     0x20000036   Data           2  timer.o(.data)
    Rising_fisrt                             0x20000038   Data           2  timer.o(.data)
    Falling_first                            0x2000003a   Data           2  timer.o(.data)
    Rising_second                            0x2000003c   Data           2  timer.o(.data)
    Capture                                  0x20000040   Data           4  timer.o(.data)
    Htime                                    0x20000044   Data           4  timer.o(.data)
    Ltime                                    0x20000048   Data           4  timer.o(.data)
    TIM2Freq                                 0x2000004c   Data           4  timer.o(.data)
    Duty                                     0x20000050   Data           4  timer.o(.data)
    lcddev                                   0x20000058   Data          14  lcd.o(.bss)
    calendar                                 0x20000066   Data          10  rtc.o(.bss)
    __libspace_start                         0x20000070   Data          96  libspace.o(.bss)
    __temporary_stack_top$libspace           0x200000d0   Data           0  libspace.o(.bss)



==============================================================================

Memory Map of the image

  Image Entry point : 0x08000131

  Load Region LR_IROM1 (Base: 0x08000000, Size: 0x00009d30, Max: 0x00040000, ABSOLUTE)

    Execution Region ER_IROM1 (Exec base: 0x08000000, Load base: 0x08000000, Size: 0x00009cd8, Max: 0x00040000, ABSOLUTE)

    Exec Addr    Load Addr    Size         Type   Attr      Idx    E Section Name        Object

    0x08000000   0x08000000   0x00000130   Data   RO           19    RESET               startup_stm32f10x_hd.o
    0x08000130   0x08000130   0x00000008   Code   RO         3727  * !!!main             c_w.l(__main.o)
    0x08000138   0x08000138   0x00000034   Code   RO         3983    !!!scatter          c_w.l(__scatter.o)
    0x0800016c   0x0800016c   0x0000001a   Code   RO         3985    !!handler_copy      c_w.l(__scatter_copy.o)
    0x08000186   0x08000186   0x00000002   PAD
    0x08000188   0x08000188   0x0000001c   Code   RO         3987    !!handler_zi        c_w.l(__scatter_zi.o)
    0x080001a4   0x080001a4   0x00000000   Code   RO         3724    .ARM.Collect$$_printf_percent$$00000000  c_w.l(_printf_percent.o)
    0x080001a4   0x080001a4   0x00000006   Code   RO         3723    .ARM.Collect$$_printf_percent$$00000003  c_w.l(_printf_f.o)
    0x080001aa   0x080001aa   0x00000006   Code   RO         3722    .ARM.Collect$$_printf_percent$$00000009  c_w.l(_printf_d.o)
    0x080001b0   0x080001b0   0x00000006   Code   RO         3721    .ARM.Collect$$_printf_percent$$0000000C  c_w.l(_printf_x.o)
    0x080001b6   0x080001b6   0x00000004   Code   RO         3774    .ARM.Collect$$_printf_percent$$00000017  c_w.l(_printf_percent_end.o)
    0x080001ba   0x080001ba   0x00000002   Code   RO         3860    .ARM.Collect$$libinit$$00000000  c_w.l(libinit.o)
    0x080001bc   0x080001bc   0x00000000   Code   RO         3862    .ARM.Collect$$libinit$$00000002  c_w.l(libinit2.o)
    0x080001bc   0x080001bc   0x00000000   Code   RO         3864    .ARM.Collect$$libinit$$00000004  c_w.l(libinit2.o)
    0x080001bc   0x080001bc   0x00000000   Code   RO         3867    .ARM.Collect$$libinit$$0000000A  c_w.l(libinit2.o)
    0x080001bc   0x080001bc   0x00000000   Code   RO         3869    .ARM.Collect$$libinit$$0000000C  c_w.l(libinit2.o)
    0x080001bc   0x080001bc   0x00000000   Code   RO         3871    .ARM.Collect$$libinit$$0000000E  c_w.l(libinit2.o)
    0x080001bc   0x080001bc   0x00000006   Code   RO         3872    .ARM.Collect$$libinit$$0000000F  c_w.l(libinit2.o)
    0x080001c2   0x080001c2   0x00000000   Code   RO         3874    .ARM.Collect$$libinit$$00000011  c_w.l(libinit2.o)
    0x080001c2   0x080001c2   0x00000000   Code   RO         3876    .ARM.Collect$$libinit$$00000013  c_w.l(libinit2.o)
    0x080001c2   0x080001c2   0x00000000   Code   RO         3878    .ARM.Collect$$libinit$$00000015  c_w.l(libinit2.o)
    0x080001c2   0x080001c2   0x0000000a   Code   RO         3879    .ARM.Collect$$libinit$$00000016  c_w.l(libinit2.o)
    0x080001cc   0x080001cc   0x00000000   Code   RO         3880    .ARM.Collect$$libinit$$00000017  c_w.l(libinit2.o)
    0x080001cc   0x080001cc   0x00000000   Code   RO         3882    .ARM.Collect$$libinit$$00000019  c_w.l(libinit2.o)
    0x080001cc   0x080001cc   0x00000000   Code   RO         3884    .ARM.Collect$$libinit$$0000001B  c_w.l(libinit2.o)
    0x080001cc   0x080001cc   0x00000000   Code   RO         3886    .ARM.Collect$$libinit$$0000001D  c_w.l(libinit2.o)
    0x080001cc   0x080001cc   0x00000000   Code   RO         3888    .ARM.Collect$$libinit$$0000001F  c_w.l(libinit2.o)
    0x080001cc   0x080001cc   0x00000000   Code   RO         3890    .ARM.Collect$$libinit$$00000021  c_w.l(libinit2.o)
    0x080001cc   0x080001cc   0x00000000   Code   RO         3892    .ARM.Collect$$libinit$$00000023  c_w.l(libinit2.o)
    0x080001cc   0x080001cc   0x00000000   Code   RO         3894    .ARM.Collect$$libinit$$00000025  c_w.l(libinit2.o)
    0x080001cc   0x080001cc   0x00000000   Code   RO         3898    .ARM.Collect$$libinit$$0000002C  c_w.l(libinit2.o)
    0x080001cc   0x080001cc   0x00000000   Code   RO         3900    .ARM.Collect$$libinit$$0000002E  c_w.l(libinit2.o)
    0x080001cc   0x080001cc   0x00000000   Code   RO         3902    .ARM.Collect$$libinit$$00000030  c_w.l(libinit2.o)
    0x080001cc   0x080001cc   0x00000000   Code   RO         3904    .ARM.Collect$$libinit$$00000032  c_w.l(libinit2.o)
    0x080001cc   0x080001cc   0x00000002   Code   RO         3905    .ARM.Collect$$libinit$$00000033  c_w.l(libinit2.o)
    0x080001ce   0x080001ce   0x00000002   Code   RO         3933    .ARM.Collect$$libshutdown$$00000000  c_w.l(libshutdown.o)
    0x080001d0   0x080001d0   0x00000000   Code   RO         3942    .ARM.Collect$$libshutdown$$00000002  c_w.l(libshutdown2.o)
    0x080001d0   0x080001d0   0x00000000   Code   RO         3944    .ARM.Collect$$libshutdown$$00000004  c_w.l(libshutdown2.o)
    0x080001d0   0x080001d0   0x00000000   Code   RO         3947    .ARM.Collect$$libshutdown$$00000007  c_w.l(libshutdown2.o)
    0x080001d0   0x080001d0   0x00000000   Code   RO         3950    .ARM.Collect$$libshutdown$$0000000A  c_w.l(libshutdown2.o)
    0x080001d0   0x080001d0   0x00000000   Code   RO         3952    .ARM.Collect$$libshutdown$$0000000C  c_w.l(libshutdown2.o)
    0x080001d0   0x080001d0   0x00000000   Code   RO         3955    .ARM.Collect$$libshutdown$$0000000F  c_w.l(libshutdown2.o)
    0x080001d0   0x080001d0   0x00000002   Code   RO         3956    .ARM.Collect$$libshutdown$$00000010  c_w.l(libshutdown2.o)
    0x080001d2   0x080001d2   0x00000000   Code   RO         3763    .ARM.Collect$$rtentry$$00000000  c_w.l(__rtentry.o)
    0x080001d2   0x080001d2   0x00000000   Code   RO         3785    .ARM.Collect$$rtentry$$00000002  c_w.l(__rtentry2.o)
    0x080001d2   0x080001d2   0x00000006   Code   RO         3797    .ARM.Collect$$rtentry$$00000004  c_w.l(__rtentry4.o)
    0x080001d8   0x080001d8   0x00000000   Code   RO         3787    .ARM.Collect$$rtentry$$00000009  c_w.l(__rtentry2.o)
    0x080001d8   0x080001d8   0x00000004   Code   RO         3788    .ARM.Collect$$rtentry$$0000000A  c_w.l(__rtentry2.o)
    0x080001dc   0x080001dc   0x00000000   Code   RO         3790    .ARM.Collect$$rtentry$$0000000C  c_w.l(__rtentry2.o)
    0x080001dc   0x080001dc   0x00000008   Code   RO         3791    .ARM.Collect$$rtentry$$0000000D  c_w.l(__rtentry2.o)
    0x080001e4   0x080001e4   0x00000002   Code   RO         3906    .ARM.Collect$$rtexit$$00000000  c_w.l(rtexit.o)
    0x080001e6   0x080001e6   0x00000000   Code   RO         3913    .ARM.Collect$$rtexit$$00000002  c_w.l(rtexit2.o)
    0x080001e6   0x080001e6   0x00000004   Code   RO         3914    .ARM.Collect$$rtexit$$00000003  c_w.l(rtexit2.o)
    0x080001ea   0x080001ea   0x00000006   Code   RO         3915    .ARM.Collect$$rtexit$$00000004  c_w.l(rtexit2.o)
    0x080001f0   0x080001f0   0x00000040   Code   RO           20    .text               startup_stm32f10x_hd.o
    0x08000230   0x08000230   0x00000002   Code   RO         3664    .text               c_w.l(use_no_semi_2.o)
    0x08000232   0x08000232   0x00000002   PAD
    0x08000234   0x08000234   0x00000018   Code   RO         3670    .text               c_w.l(noretval__2printf.o)
    0x0800024c   0x0800024c   0x00000028   Code   RO         3672    .text               c_w.l(noretval__2sprintf.o)
    0x08000274   0x08000274   0x0000004e   Code   RO         3676    .text               c_w.l(_printf_pad.o)
    0x080002c2   0x080002c2   0x00000002   PAD
    0x080002c4   0x080002c4   0x00000078   Code   RO         3678    .text               c_w.l(_printf_dec.o)
    0x0800033c   0x0800033c   0x00000058   Code   RO         3683    .text               c_w.l(_printf_hex_int.o)
    0x08000394   0x08000394   0x00000138   Code   RO         3713    .text               c_w.l(__printf_flags_wp.o)
    0x080004cc   0x080004cc   0x00000006   Code   RO         3725    .text               c_w.l(heapauxi.o)
    0x080004d2   0x080004d2   0x00000002   Code   RO         3761    .text               c_w.l(use_no_semi.o)
    0x080004d4   0x080004d4   0x000000b2   Code   RO         3764    .text               c_w.l(_printf_intcommon.o)
    0x08000586   0x08000586   0x0000041e   Code   RO         3766    .text               c_w.l(_printf_fp_dec.o)
    0x080009a4   0x080009a4   0x00000030   Code   RO         3768    .text               c_w.l(_printf_char_common.o)
    0x080009d4   0x080009d4   0x0000000a   Code   RO         3770    .text               c_w.l(_sputc.o)
    0x080009de   0x080009de   0x00000002   PAD
    0x080009e0   0x080009e0   0x00000024   Code   RO         3772    .text               c_w.l(_printf_char_file.o)
    0x08000a04   0x08000a04   0x00000008   Code   RO         3802    .text               c_w.l(rt_locale_intlibspace.o)
    0x08000a0c   0x08000a0c   0x0000008a   Code   RO         3804    .text               c_w.l(lludiv10.o)
    0x08000a96   0x08000a96   0x00000002   PAD
    0x08000a98   0x08000a98   0x00000080   Code   RO         3806    .text               c_w.l(_printf_fp_infnan.o)
    0x08000b18   0x08000b18   0x000000e4   Code   RO         3810    .text               c_w.l(bigflt0.o)
    0x08000bfc   0x08000bfc   0x00000008   Code   RO         3835    .text               c_w.l(ferror.o)
    0x08000c04   0x08000c04   0x00000008   Code   RO         3846    .text               c_w.l(libspace.o)
    0x08000c0c   0x08000c0c   0x0000004a   Code   RO         3849    .text               c_w.l(sys_stackheap_outer.o)
    0x08000c56   0x08000c56   0x00000012   Code   RO         3851    .text               c_w.l(exit.o)
    0x08000c68   0x08000c68   0x00000080   Code   RO         3853    .text               c_w.l(strcmpv7m.o)
    0x08000ce8   0x08000ce8   0x0000003e   Code   RO         3813    CL$$btod_d2e        c_w.l(btod.o)
    0x08000d26   0x08000d26   0x00000046   Code   RO         3815    CL$$btod_d2e_denorm_low  c_w.l(btod.o)
    0x08000d6c   0x08000d6c   0x00000060   Code   RO         3814    CL$$btod_d2e_norm_op1  c_w.l(btod.o)
    0x08000dcc   0x08000dcc   0x00000338   Code   RO         3823    CL$$btod_div_common  c_w.l(btod.o)
    0x08001104   0x08001104   0x000000dc   Code   RO         3820    CL$$btod_e2e        c_w.l(btod.o)
    0x080011e0   0x080011e0   0x0000002a   Code   RO         3817    CL$$btod_ediv       c_w.l(btod.o)
    0x0800120a   0x0800120a   0x0000002a   Code   RO         3816    CL$$btod_emul       c_w.l(btod.o)
    0x08001234   0x08001234   0x00000244   Code   RO         3822    CL$$btod_mult_common  c_w.l(btod.o)
    0x08001478   0x08001478   0x00000010   Code   RO          542    i.BKP_DeInit        stm32f10x_bkp.o
    0x08001488   0x08001488   0x0000001c   Code   RO          547    i.BKP_ReadBackupRegister  stm32f10x_bkp.o
    0x080014a4   0x080014a4   0x0000001c   Code   RO          551    i.BKP_WriteBackupRegister  stm32f10x_bkp.o
    0x080014c0   0x080014c0   0x00000004   Code   RO          159    i.BusFault_Handler  stm32f10x_it.o
    0x080014c4   0x080014c4   0x00000002   Code   RO          160    i.DebugMon_Handler  stm32f10x_it.o
    0x080014c6   0x080014c6   0x00000116   Code   RO         1433    i.GPIO_Init         stm32f10x_gpio.o
    0x080015dc   0x080015dc   0x00000090   Code   RO         1435    i.GPIO_PinRemapConfig  stm32f10x_gpio.o
    0x0800166c   0x0800166c   0x00000004   Code   RO         1440    i.GPIO_ResetBits    stm32f10x_gpio.o
    0x08001670   0x08001670   0x00000004   Code   RO         1441    i.GPIO_SetBits      stm32f10x_gpio.o
    0x08001674   0x08001674   0x00000004   Code   RO          161    i.HardFault_Handler  stm32f10x_it.o
    0x08001678   0x08001678   0x0000003a   Code   RO         3608    i.Is_Leap_Year      rtc.o
    0x080016b2   0x080016b2   0x00000002   PAD
    0x080016b4   0x080016b4   0x00000088   Code   RO         3359    i.LCD_Clear         lcd.o
    0x0800173c   0x0800173c   0x000001c0   Code   RO         3363    i.LCD_Display_Dir   lcd.o
    0x080018fc   0x080018fc   0x00000364   Code   RO         3368    i.LCD_Fast_DrawPoint  lcd.o
    0x08001c60   0x08001c60   0x00003bbc   Code   RO         3370    i.LCD_Init          lcd.o
    0x0800581c   0x0800581c   0x00000016   Code   RO         3371    i.LCD_Pow           lcd.o
    0x08005832   0x08005832   0x00000002   PAD
    0x08005834   0x08005834   0x00000070   Code   RO         3372    i.LCD_RD_DATA       lcd.o
    0x080058a4   0x080058a4   0x00000010   Code   RO         3374    i.LCD_ReadReg       lcd.o
    0x080058b4   0x080058b4   0x000000d4   Code   RO         3375    i.LCD_SSD_BackLightSet  lcd.o
    0x08005988   0x08005988   0x00000458   Code   RO         3376    i.LCD_Scan_Dir      lcd.o
    0x08005de0   0x08005de0   0x000003bc   Code   RO         3377    i.LCD_SetCursor     lcd.o
    0x0800619c   0x0800619c   0x00000128   Code   RO         3379    i.LCD_ShowChar      lcd.o
    0x080062c4   0x080062c4   0x00000094   Code   RO         3380    i.LCD_ShowNum       lcd.o
    0x08006358   0x08006358   0x00000066   Code   RO         3381    i.LCD_ShowString    lcd.o
    0x080063be   0x080063be   0x000000be   Code   RO         3382    i.LCD_ShowxNum      lcd.o
    0x0800647c   0x0800647c   0x00000024   Code   RO         3383    i.LCD_WR_DATAX      lcd.o
    0x080064a0   0x080064a0   0x00000024   Code   RO         3384    i.LCD_WR_REG        lcd.o
    0x080064c4   0x080064c4   0x00000010   Code   RO         3386    i.LCD_WriteRAM_Prepare  lcd.o
    0x080064d4   0x080064d4   0x00000030   Code   RO         3387    i.LCD_WriteReg      lcd.o
    0x08006504   0x08006504   0x00000004   Code   RO          162    i.MemManage_Handler  stm32f10x_it.o
    0x08006508   0x08006508   0x00000002   Code   RO          163    i.NMI_Handler       stm32f10x_it.o
    0x0800650a   0x0800650a   0x00000002   PAD
    0x0800650c   0x0800650c   0x00000070   Code   RO          282    i.NVIC_Init         misc.o
    0x0800657c   0x0800657c   0x00000014   Code   RO          283    i.NVIC_PriorityGroupConfig  misc.o
    0x08006590   0x08006590   0x0000000c   Code   RO         1787    i.PWR_BackupAccessCmd  stm32f10x_pwr.o
    0x0800659c   0x0800659c   0x00000002   Code   RO          164    i.PendSV_Handler    stm32f10x_it.o
    0x0800659e   0x0800659e   0x00000002   PAD
    0x080065a0   0x080065a0   0x00000020   Code   RO         1849    i.RCC_APB1PeriphClockCmd  stm32f10x_rcc.o
    0x080065c0   0x080065c0   0x00000020   Code   RO         1851    i.RCC_APB2PeriphClockCmd  stm32f10x_rcc.o
    0x080065e0   0x080065e0   0x0000000c   Code   RO         1854    i.RCC_BackupResetCmd  stm32f10x_rcc.o
    0x080065ec   0x080065ec   0x000000d4   Code   RO         1859    i.RCC_GetClocksFreq  stm32f10x_rcc.o
    0x080066c0   0x080066c0   0x0000003c   Code   RO         1860    i.RCC_GetFlagStatus  stm32f10x_rcc.o
    0x080066fc   0x080066fc   0x00000034   Code   RO         1867    i.RCC_LSEConfig     stm32f10x_rcc.o
    0x08006730   0x08006730   0x0000000c   Code   RO         1874    i.RCC_RTCCLKCmd     stm32f10x_rcc.o
    0x0800673c   0x0800673c   0x00000010   Code   RO         1875    i.RCC_RTCCLKConfig  stm32f10x_rcc.o
    0x0800674c   0x0800674c   0x00000010   Code   RO         2048    i.RTC_ClearITPendingBit  stm32f10x_rtc.o
    0x0800675c   0x0800675c   0x00000014   Code   RO         2049    i.RTC_EnterConfigMode  stm32f10x_rtc.o
    0x08006770   0x08006770   0x00000014   Code   RO         2050    i.RTC_ExitConfigMode  stm32f10x_rtc.o
    0x08006784   0x08006784   0x00000100   Code   RO         3609    i.RTC_Get           rtc.o
    0x08006884   0x08006884   0x00000014   Code   RO         2051    i.RTC_GetCounter    stm32f10x_rtc.o
    0x08006898   0x08006898   0x00000024   Code   RO         2054    i.RTC_GetITStatus   stm32f10x_rtc.o
    0x080068bc   0x080068bc   0x00000078   Code   RO         3610    i.RTC_Get_Week      rtc.o
    0x08006934   0x08006934   0x00000028   Code   RO         3611    i.RTC_IRQHandler    rtc.o
    0x0800695c   0x0800695c   0x00000020   Code   RO         2055    i.RTC_ITConfig      stm32f10x_rtc.o
    0x0800697c   0x0800697c   0x000000d6   Code   RO         3612    i.RTC_Init          rtc.o
    0x08006a52   0x08006a52   0x00000002   PAD
    0x08006a54   0x08006a54   0x000000cc   Code   RO         3613    i.RTC_Set           rtc.o
    0x08006b20   0x08006b20   0x0000001c   Code   RO         2057    i.RTC_SetCounter    stm32f10x_rtc.o
    0x08006b3c   0x08006b3c   0x00000020   Code   RO         2058    i.RTC_SetPrescaler  stm32f10x_rtc.o
    0x08006b5c   0x08006b5c   0x00000014   Code   RO         2059    i.RTC_WaitForLastTask  stm32f10x_rtc.o
    0x08006b70   0x08006b70   0x00000024   Code   RO         2060    i.RTC_WaitForSynchro  stm32f10x_rtc.o
    0x08006b94   0x08006b94   0x00000002   Code   RO          165    i.SVC_Handler       stm32f10x_it.o
    0x08006b96   0x08006b96   0x00000008   Code   RO          248    i.SetSysClock       system_stm32f10x.o
    0x08006b9e   0x08006b9e   0x00000002   PAD
    0x08006ba0   0x08006ba0   0x000000e0   Code   RO          249    i.SetSysClockTo72   system_stm32f10x.o
    0x08006c80   0x08006c80   0x00000028   Code   RO          286    i.SysTick_CLKSourceConfig  misc.o
    0x08006ca8   0x08006ca8   0x00000002   Code   RO          166    i.SysTick_Handler   stm32f10x_it.o
    0x08006caa   0x08006caa   0x00000002   PAD
    0x08006cac   0x08006cac   0x00000060   Code   RO          251    i.SystemInit        system_stm32f10x.o
    0x08006d0c   0x08006d0c   0x00000080   Code   RO         2467    i.TI1_Config        stm32f10x_tim.o
    0x08006d8c   0x08006d8c   0x00000098   Code   RO         2468    i.TI2_Config        stm32f10x_tim.o
    0x08006e24   0x08006e24   0x00000090   Code   RO         2469    i.TI3_Config        stm32f10x_tim.o
    0x08006eb4   0x08006eb4   0x00000098   Code   RO         2470    i.TI4_Config        stm32f10x_tim.o
    0x08006f4c   0x08006f4c   0x000000a4   Code   RO         3568    i.TIM1_Output_PWM_Init  pwm.o
    0x08006ff0   0x08006ff0   0x00000138   Code   RO         3580    i.TIM2_IRQHandler   timer.o
    0x08007128   0x08007128   0x000000b0   Code   RO         3581    i.TIM2_Input_Capture_Init  timer.o
    0x080071d8   0x080071d8   0x00000018   Code   RO         2471    i.TIM_ARRPreloadConfig  stm32f10x_tim.o
    0x080071f0   0x080071f0   0x00000006   Code   RO         2478    i.TIM_ClearITPendingBit  stm32f10x_tim.o
    0x080071f6   0x080071f6   0x00000018   Code   RO         2483    i.TIM_Cmd           stm32f10x_tim.o
    0x0800720e   0x0800720e   0x0000001e   Code   RO         2485    i.TIM_CtrlPWMOutputs  stm32f10x_tim.o
    0x0800722c   0x0800722c   0x00000006   Code   RO         2498    i.TIM_GetCapture1   stm32f10x_tim.o
    0x08007232   0x08007232   0x00000022   Code   RO         2504    i.TIM_GetITStatus   stm32f10x_tim.o
    0x08007254   0x08007254   0x000000ac   Code   RO         2506    i.TIM_ICInit        stm32f10x_tim.o
    0x08007300   0x08007300   0x00000012   Code   RO         2508    i.TIM_ITConfig      stm32f10x_tim.o
    0x08007312   0x08007312   0x00000002   PAD
    0x08007314   0x08007314   0x00000098   Code   RO         2512    i.TIM_OC1Init       stm32f10x_tim.o
    0x080073ac   0x080073ac   0x00000012   Code   RO         2514    i.TIM_OC1PolarityConfig  stm32f10x_tim.o
    0x080073be   0x080073be   0x00000012   Code   RO         2515    i.TIM_OC1PreloadConfig  stm32f10x_tim.o
    0x080073d0   0x080073d0   0x00000004   Code   RO         2548    i.TIM_SetCounter    stm32f10x_tim.o
    0x080073d4   0x080073d4   0x00000012   Code   RO         2549    i.TIM_SetIC1Prescaler  stm32f10x_tim.o
    0x080073e6   0x080073e6   0x0000001a   Code   RO         2550    i.TIM_SetIC2Prescaler  stm32f10x_tim.o
    0x08007400   0x08007400   0x00000012   Code   RO         2551    i.TIM_SetIC3Prescaler  stm32f10x_tim.o
    0x08007412   0x08007412   0x0000001a   Code   RO         2552    i.TIM_SetIC4Prescaler  stm32f10x_tim.o
    0x0800742c   0x0800742c   0x000000a4   Code   RO         2554    i.TIM_TimeBaseInit  stm32f10x_tim.o
    0x080074d0   0x080074d0   0x00000024   Code   RO         3287    i.USART1_IRQHandler  usart.o
    0x080074f4   0x080074f4   0x00000012   Code   RO         3015    i.USART_ClearFlag   stm32f10x_usart.o
    0x08007506   0x08007506   0x00000018   Code   RO         3019    i.USART_Cmd         stm32f10x_usart.o
    0x0800751e   0x0800751e   0x0000001a   Code   RO         3022    i.USART_GetFlagStatus  stm32f10x_usart.o
    0x08007538   0x08007538   0x00000054   Code   RO         3023    i.USART_GetITStatus  stm32f10x_usart.o
    0x0800758c   0x0800758c   0x0000004a   Code   RO         3025    i.USART_ITConfig    stm32f10x_usart.o
    0x080075d6   0x080075d6   0x00000002   PAD
    0x080075d8   0x080075d8   0x000000d8   Code   RO         3026    i.USART_Init        stm32f10x_usart.o
    0x080076b0   0x080076b0   0x0000000a   Code   RO         3033    i.USART_ReceiveData  stm32f10x_usart.o
    0x080076ba   0x080076ba   0x00000008   Code   RO         3036    i.USART_SendData    stm32f10x_usart.o
    0x080076c2   0x080076c2   0x00000004   Code   RO          167    i.UsageFault_Handler  stm32f10x_it.o
    0x080076c6   0x080076c6   0x00000028   Code   RO         3844    i.__ARM_fpclassify  m_ws.l(fpclassify.o)
    0x080076ee   0x080076ee   0x0000000e   Code   RO         3711    i._is_digit         c_w.l(__printf_wp.o)
    0x080076fc   0x080076fc   0x00000004   Code   RO         3288    i._sys_exit         usart.o
    0x08007700   0x08007700   0x00000044   Code   RO         3249    i.delay_init        delay.o
    0x08007744   0x08007744   0x0000004c   Code   RO         3250    i.delay_ms          delay.o
    0x08007790   0x08007790   0x0000004c   Code   RO         3252    i.delay_us          delay.o
    0x080077dc   0x080077dc   0x0000002c   Code   RO         3289    i.fputc             usart.o
    0x08007808   0x08007808   0x00000344   Code   RO           24    i.main              main.o
    0x08007b4c   0x08007b4c   0x0000014c   Code   RO           25    i.time_show         main.o
    0x08007c98   0x08007c98   0x000000a4   Code   RO         3290    i.uart_init         usart.o
    0x08007d3c   0x08007d3c   0x0000002c   Code   RO         3840    locale$$code        c_w.l(lc_numeric_c.o)
    0x08007d68   0x08007d68   0x0000005a   Code   RO         3729    x$fpl$dfixu         fz_ws.l(dfixu.o)
    0x08007dc2   0x08007dc2   0x00000026   Code   RO         3733    x$fpl$dfltu         fz_ws.l(dflt_clz.o)
    0x08007de8   0x08007de8   0x00000154   Code   RO         3739    x$fpl$dmul          fz_ws.l(dmul.o)
    0x08007f3c   0x08007f3c   0x0000009c   Code   RO         3775    x$fpl$dnaninf       fz_ws.l(dnaninf.o)
    0x08007fd8   0x08007fd8   0x0000000c   Code   RO         3777    x$fpl$dretinf       fz_ws.l(dretinf.o)
    0x08007fe4   0x08007fe4   0x00000056   Code   RO         3741    x$fpl$f2d           fz_ws.l(f2d.o)
    0x0800803a   0x0800803a   0x00000002   PAD
    0x0800803c   0x0800803c   0x00000184   Code   RO         3744    x$fpl$fdiv          fz_ws.l(fdiv.o)
    0x080081c0   0x080081c0   0x0000003e   Code   RO         3747    x$fpl$ffixu         fz_ws.l(ffixu.o)
    0x080081fe   0x080081fe   0x00000002   PAD
    0x08008200   0x08008200   0x00000030   Code   RO         3752    x$fpl$fflt          fz_ws.l(fflt_clz.o)
    0x08008230   0x08008230   0x00000026   Code   RO         3751    x$fpl$ffltu         fz_ws.l(fflt_clz.o)
    0x08008256   0x08008256   0x00000002   PAD
    0x08008258   0x08008258   0x00000102   Code   RO         3757    x$fpl$fmul          fz_ws.l(fmul.o)
    0x0800835a   0x0800835a   0x0000008c   Code   RO         3779    x$fpl$fnaninf       fz_ws.l(fnaninf.o)
    0x080083e6   0x080083e6   0x0000000a   Code   RO         3781    x$fpl$fretinf       fz_ws.l(fretinf.o)
    0x080083f0   0x080083f0   0x00000004   Code   RO         3759    x$fpl$printf1       fz_ws.l(printf1.o)
    0x080083f4   0x080083f4   0x00000000   Code   RO         3783    x$fpl$usenofp       fz_ws.l(usenofp.o)
    0x080083f4   0x080083f4   0x000017c0   Data   RO         3390    .constdata          lcd.o
    0x08009bb4   0x08009bb4   0x00000018   Data   RO         3615    .constdata          rtc.o
    0x08009bcc   0x08009bcc   0x00000028   Data   RO         3684    .constdata          c_w.l(_printf_hex_int.o)
    0x08009bf4   0x08009bf4   0x00000011   Data   RO         3714    .constdata          c_w.l(__printf_flags_wp.o)
    0x08009c05   0x08009c05   0x00000003   PAD
    0x08009c08   0x08009c08   0x00000094   Data   RO         3811    .constdata          c_w.l(bigflt0.o)
    0x08009c9c   0x08009c9c   0x00000020   Data   RO         3981    Region$$Table       anon$$obj.o
    0x08009cbc   0x08009cbc   0x0000001c   Data   RO         3839    locale$$data        c_w.l(lc_numeric_c.o)


    Execution Region RW_IRAM1 (Exec base: 0x20000000, Load base: 0x08009cd8, Size: 0x000006d0, Max: 0x0000c000, ABSOLUTE)

    Exec Addr    Load Addr    Size         Type   Attr      Idx    E Section Name        Object

    0x20000000   0x08009cd8   0x00000014   Data   RW          252    .data               system_stm32f10x.o
    0x20000014   0x08009cec   0x00000014   Data   RW         1879    .data               stm32f10x_rcc.o
    0x20000028   0x08009d00   0x00000004   Data   RW         3253    .data               delay.o
    0x2000002c   0x08009d04   0x00000004   Data   RW         3291    .data               usart.o
    0x20000030   0x08009d08   0x00000004   Data   RW         3391    .data               lcd.o
    0x20000034   0x08009d0c   0x00000020   Data   RW         3582    .data               timer.o
    0x20000054   0x08009d2c   0x00000002   Data   RW         3616    .data               rtc.o
    0x20000056   0x08009d2e   0x00000002   PAD
    0x20000058        -       0x0000000e   Zero   RW         3389    .bss                lcd.o
    0x20000066        -       0x0000000a   Zero   RW         3614    .bss                rtc.o
    0x20000070        -       0x00000060   Zero   RW         3847    .bss                c_w.l(libspace.o)
    0x200000d0        -       0x00000200   Zero   RW           18    HEAP                startup_stm32f10x_hd.o
    0x200002d0        -       0x00000400   Zero   RW           17    STACK               startup_stm32f10x_hd.o


==============================================================================

Image component sizes


      Code (inc. data)   RO Data    RW Data    ZI Data      Debug   Object Name

         0          0          0          0          0       4548   core_cm3.o
       220         26          0          4          0       1787   delay.o
     20046        240       6080          4         14      25351   lcd.o
      1168        376          0          0          0     249495   main.o
       172         22          0          0          0       2161   misc.o
       164         10          0          0          0        775   pwm.o
       892         36         24          2         10       5546   rtc.o
        64         26        304          0       1536        816   startup_stm32f10x_hd.o
        72         10          0          0          0       2796   stm32f10x_bkp.o
       430          6          0          0          0       3966   stm32f10x_gpio.o
        26          0          0          0          0       3878   stm32f10x_it.o
        12          6          0          0          0        510   stm32f10x_pwr.o
       428         58          0         20          0       7270   stm32f10x_rcc.o
       260         48          0          0          0       5148   stm32f10x_rtc.o
      1334        170          0          0          0      13695   stm32f10x_tim.o
       460          6          0          0          0       6823   stm32f10x_usart.o
       328         28          0         20          0       2301   system_stm32f10x.o
       488         50          0         32          0       1900   timer.o
       248         16          0          4          0       4254   usart.o

    ----------------------------------------------------------------------
     26830       1134       6440         88       1560     343020   Object Totals
         0          0         32          0          0          0   (incl. Generated)
        18          0          0          2          0          0   (incl. Padding)

    ----------------------------------------------------------------------

      Code (inc. data)   RO Data    RW Data    ZI Data      Debug   Library Member Name

         8          0          0          0          0         68   __main.o
       312          4         17          0          0         92   __printf_flags_wp.o
        14          0          0          0          0         68   __printf_wp.o
         0          0          0          0          0          0   __rtentry.o
        12          0          0          0          0          0   __rtentry2.o
         6          0          0          0          0          0   __rtentry4.o
        52          8          0          0          0          0   __scatter.o
        26          0          0          0          0          0   __scatter_copy.o
        28          0          0          0          0          0   __scatter_zi.o
        48          6          0          0          0         96   _printf_char_common.o
        36          4          0          0          0         80   _printf_char_file.o
         6          0          0          0          0          0   _printf_d.o
       120         16          0          0          0         92   _printf_dec.o
         6          0          0          0          0          0   _printf_f.o
      1054          0          0          0          0        216   _printf_fp_dec.o
       128         16          0          0          0         84   _printf_fp_infnan.o
        88          4         40          0          0         88   _printf_hex_int.o
       178          0          0          0          0         88   _printf_intcommon.o
        78          0          0          0          0        108   _printf_pad.o
         0          0          0          0          0          0   _printf_percent.o
         4          0          0          0          0          0   _printf_percent_end.o
         6          0          0          0          0          0   _printf_x.o
        10          0          0          0          0         68   _sputc.o
       228          4        148          0          0         96   bigflt0.o
      1936        128          0          0          0        672   btod.o
        18          0          0          0          0         80   exit.o
         8          0          0          0          0         68   ferror.o
         6          0          0          0          0        152   heapauxi.o
        44         10         28          0          0         76   lc_numeric_c.o
         2          0          0          0          0          0   libinit.o
        18          0          0          0          0          0   libinit2.o
         2          0          0          0          0          0   libshutdown.o
         2          0          0          0          0          0   libshutdown2.o
         8          4          0          0         96         68   libspace.o
       138          0          0          0          0         80   lludiv10.o
        24          4          0          0          0         84   noretval__2printf.o
        40          6          0          0          0         84   noretval__2sprintf.o
         8          4          0          0          0         68   rt_locale_intlibspace.o
         2          0          0          0          0          0   rtexit.o
        10          0          0          0          0          0   rtexit2.o
       128          0          0          0          0         68   strcmpv7m.o
        74          0          0          0          0         80   sys_stackheap_outer.o
         2          0          0          0          0         68   use_no_semi.o
         2          0          0          0          0         68   use_no_semi_2.o
        90          4          0          0          0         92   dfixu.o
        38          0          0          0          0         68   dflt_clz.o
       340         12          0          0          0        104   dmul.o
       156          4          0          0          0         92   dnaninf.o
        12          0          0          0          0         68   dretinf.o
        86          4          0          0          0         84   f2d.o
       388         76          0          0          0         96   fdiv.o
        62          4          0          0          0         84   ffixu.o
        86          0          0          0          0        136   fflt_clz.o
       258          4          0          0          0         84   fmul.o
       140          4          0          0          0         84   fnaninf.o
        10          0          0          0          0         68   fretinf.o
         4          0          0          0          0         68   printf1.o
         0          0          0          0          0          0   usenofp.o
        40          0          0          0          0         68   fpclassify.o

    ----------------------------------------------------------------------
      6646        330        236          0         96       4156   Library Totals
        16          0          3          0          0          0   (incl. Padding)

    ----------------------------------------------------------------------

      Code (inc. data)   RO Data    RW Data    ZI Data      Debug   Library Name

      4920        218        233          0         96       2960   c_w.l
      1670        112          0          0          0       1128   fz_ws.l
        40          0          0          0          0         68   m_ws.l

    ----------------------------------------------------------------------
      6646        330        236          0         96       4156   Library Totals

    ----------------------------------------------------------------------

==============================================================================


      Code (inc. data)   RO Data    RW Data    ZI Data      Debug   

     33476       1464       6676         88       1656     339580   Grand Totals
     33476       1464       6676         88       1656     339580   ELF Image Totals
     33476       1464       6676         88          0          0   ROM Totals

==============================================================================

    Total RO  Size (Code + RO Data)                40152 (  39.21kB)
    Total RW  Size (RW Data + ZI Data)              1744 (   1.70kB)
    Total ROM Size (Code + RO Data + RW Data)      40240 (  39.30kB)

==============================================================================

