Component: ARM Compiler 5.06 update 6 (build 750) Tool: armlink [4d35ed]

==============================================================================

Section Cross References

    startup_stm32f10x_hd.o(RESET) refers to startup_stm32f10x_hd.o(STACK) for __initial_sp
    startup_stm32f10x_hd.o(RESET) refers to startup_stm32f10x_hd.o(.text) for Reset_Handler
    startup_stm32f10x_hd.o(RESET) refers to stm32f10x_it.o(i.NMI_Handler) for NMI_Handler
    startup_stm32f10x_hd.o(RESET) refers to stm32f10x_it.o(i.HardFault_Handler) for HardFault_Handler
    startup_stm32f10x_hd.o(RESET) refers to stm32f10x_it.o(i.MemManage_Handler) for MemManage_Handler
    startup_stm32f10x_hd.o(RESET) refers to stm32f10x_it.o(i.BusFault_Handler) for BusFault_Handler
    startup_stm32f10x_hd.o(RESET) refers to stm32f10x_it.o(i.UsageFault_Handler) for UsageFault_Handler
    startup_stm32f10x_hd.o(RESET) refers to stm32f10x_it.o(i.SVC_Handler) for SVC_Handler
    startup_stm32f10x_hd.o(RESET) refers to stm32f10x_it.o(i.DebugMon_Handler) for DebugMon_Handler
    startup_stm32f10x_hd.o(RESET) refers to stm32f10x_it.o(i.PendSV_Handler) for PendSV_Handler
    startup_stm32f10x_hd.o(RESET) refers to stm32f10x_it.o(i.SysTick_Handler) for SysTick_Handler
    startup_stm32f10x_hd.o(.text) refers to system_stm32f10x.o(i.SystemInit) for SystemInit
    startup_stm32f10x_hd.o(.text) refers to entry.o(.ARM.Collect$$$$00000000) for __main
    main.o(i.PrintfLogo) refers to printf8.o(i.__0printf$8) for __2printf
    main.o(i.main) refers to delay.o(i.delay_init) for delay_init
    main.o(i.main) refers to usart.o(i.uart_init) for uart_init
    main.o(i.main) refers to lcd.o(i.LCD_Init) for LCD_Init
    main.o(i.main) refers to key.o(i.KEY_Init) for KEY_Init
==============================================================================

Removing Unused input sections from the image.

    Removing core_cm3.o(.emb_text), (32 bytes).
    Removing startup_stm32f10x_hd.o(HEAP), (512 bytes).
    Removing system_stm32f10x.o(i.SystemCoreClockUpdate), (164 bytes).
    Removing misc.o(i.NVIC_Init), (112 bytes).
    Removing misc.o(i.NVIC_PriorityGroupConfig), (20 bytes).
    Removing misc.o(i.NVIC_SetVectorTable), (20 bytes).
    Removing misc.o(i.NVIC_SystemLPConfig), (32 bytes).
    Removing stm32f10x_adc.o(i.ADC_AnalogWatchdogCmd), (20 bytes).
    Removing stm32f10x_adc.o(i.ADC_AnalogWatchdogSingleChannelConfig), (16 bytes).
    Removing stm32f10x_adc.o(i.ADC_AnalogWatchdogThresholdsConfig), (6 bytes).
    Removing stm32f10x_adc.o(i.ADC_AutoInjectedConvCmd), (22 bytes).
    Removing stm32f10x_adc.o(i.ADC_ClearFlag), (6 bytes).
    Removing stm32f10x_adc.o(i.ADC_ClearITPendingBit), (10 bytes).
    Removing stm32f10x_adc.o(i.ADC_Cmd), (22 bytes).
    Removing stm32f10x_adc.o(i.ADC_DMACmd), (22 bytes).
    Removing stm32f10x_adc.o(i.ADC_DeInit), (92 bytes).
    Removing stm32f10x_adc.o(i.ADC_DiscModeChannelCountConfig), (24 bytes).
    Removing stm32f10x_adc.o(i.ADC_DiscModeCmd), (22 bytes).
==============================================================================

Image Symbol Table

    Local Symbols

    Symbol Name                              Value     Ov Type        Size  Object(Section)

    ../clib/microlib/division.c              0x00000000   Number         0  uldiv.o ABSOLUTE
    ../clib/microlib/division.c              0x00000000   Number         0  uidiv.o ABSOLUTE
    ../clib/microlib/init/entry.s            0x00000000   Number         0  entry2.o ABSOLUTE
    ../clib/microlib/init/entry.s            0x00000000   Number         0  entry.o ABSOLUTE
    ../clib/microlib/init/entry.s            0x00000000   Number         0  entry5.o ABSOLUTE
    ../clib/microlib/init/entry.s            0x00000000   Number         0  entry7a.o ABSOLUTE
    ../clib/microlib/init/entry.s            0x00000000   Number         0  entry9a.o ABSOLUTE
    ../clib/microlib/init/entry.s            0x00000000   Number         0  entry10b.o ABSOLUTE
    ../clib/microlib/init/entry.s            0x00000000   Number         0  entry7b.o ABSOLUTE
    ../clib/microlib/init/entry.s            0x00000000   Number         0  entry8a.o ABSOLUTE
    ../clib/microlib/init/entry.s            0x00000000   Number         0  entry8b.o ABSOLUTE
    ../clib/microlib/init/entry.s            0x00000000   Number         0  entry9b.o ABSOLUTE
    ../clib/microlib/init/entry.s            0x00000000   Number         0  entry10a.o ABSOLUTE
    ../clib/microlib/init/entry.s            0x00000000   Number         0  entry11a.o ABSOLUTE
    ../clib/microlib/init/entry.s            0x00000000   Number         0  entry11b.o ABSOLUTE
    ../clib/microlib/longlong.c              0x00000000   Number         0  llushr.o ABSOLUTE
    ../clib/microlib/longlong.c              0x00000000   Number         0  llsshr.o ABSOLUTE
    ../clib/microlib/longlong.c              0x00000000   Number         0  llshl.o ABSOLUTE
    ../clib/microlib/printf/printf.c         0x00000000   Number         0  printf5.o ABSOLUTE
    ../clib/microlib/printf/printf.c         0x00000000   Number         0  printf8.o ABSOLUTE
    ../clib/microlib/printf/printf.c         0x00000000   Number         0  printf7.o ABSOLUTE
    ../clib/microlib/printf/printf.c         0x00000000   Number         0  printf6.o ABSOLUTE
    ../clib/microlib/printf/printf.c         0x00000000   Number         0  printf4.o ABSOLUTE
    ../clib/microlib/printf/printf.c         0x00000000   Number         0  printf3.o ABSOLUTE
    ../clib/microlib/printf/printf.c         0x00000000   Number         0  printf2.o ABSOLUTE
    ../clib/microlib/printf/printf.c         0x00000000   Number         0  printf1.o ABSOLUTE
    ../clib/microlib/printf/printf.c         0x00000000   Number         0  printf0.o ABSOLUTE
    ../clib/microlib/printf/printf.c         0x00000000   Number         0  printfb.o ABSOLUTE
    ../clib/microlib/printf/printf.c         0x00000000   Number         0  printfa.o ABSOLUTE
    ../clib/microlib/printf/stubs.s          0x00000000   Number         0  stubs.o ABSOLUTE
    ../clib/microlib/stubs.s                 0x00000000   Number         0  iusefp.o ABSOLUTE
    ../clib/microlib/stubs.s                 0x00000000   Number         0  useno.o ABSOLUTE
    ../fplib/microlib/fpadd.c                0x00000000   Number         0  dadd.o ABSOLUTE
    ../fplib/microlib/fpdiv.c                0x00000000   Number         0  ddiv.o ABSOLUTE
    ../fplib/microlib/fpepilogue.c           0x00000000   Number         0  depilogue.o ABSOLUTE
    ../fplib/microlib/fpfix.c                0x00000000   Number         0  dfixui.o ABSOLUTE
    ../fplib/microlib/fpfix.c                0x00000000   Number         0  dfixul.o ABSOLUTE
    ../fplib/microlib/fpflt.c                0x00000000   Number         0  dfltui.o ABSOLUTE
    ../fplib/microlib/fpmul.c                0x00000000   Number         0  dmul.o ABSOLUTE
    ..\CORE\core_cm3.c                       0x00000000   Number         0  core_cm3.o ABSOLUTE
    ..\CORE\startup_stm32f10x_hd.s           0x00000000   Number         0  startup_stm32f10x_hd.o ABSOLUTE
    ..\FWLib\src\misc.c                      0x00000000   Number         0  misc.o ABSOLUTE
    ..\FWLib\src\stm32f10x_adc.c             0x00000000   Number         0  stm32f10x_adc.o ABSOLUTE
    ..\FWLib\src\stm32f10x_bkp.c             0x00000000   Number         0  stm32f10x_bkp.o ABSOLUTE
    ..\FWLib\src\stm32f10x_can.c             0x00000000   Number         0  stm32f10x_can.o ABSOLUTE
    ..\FWLib\src\stm32f10x_cec.c             0x00000000   Number         0  stm32f10x_cec.o ABSOLUTE
    ..\FWLib\src\stm32f10x_crc.c             0x00000000   Number         0  stm32f10x_crc.o ABSOLUTE
    ..\FWLib\src\stm32f10x_dac.c             0x00000000   Number         0  stm32f10x_dac.o ABSOLUTE
    ..\FWLib\src\stm32f10x_dbgmcu.c          0x00000000   Number         0  stm32f10x_dbgmcu.o ABSOLUTE
    ..\FWLib\src\stm32f10x_dma.c             0x00000000   Number         0  stm32f10x_dma.o ABSOLUTE
    ..\FWLib\src\stm32f10x_exti.c            0x00000000   Number         0  stm32f10x_exti.o ABSOLUTE
    ..\FWLib\src\stm32f10x_flash.c           0x00000000   Number         0  stm32f10x_flash.o ABSOLUTE
    ..\FWLib\src\stm32f10x_fsmc.c            0x00000000   Number         0  stm32f10x_fsmc.o ABSOLUTE
    ..\FWLib\src\stm32f10x_gpio.c            0x00000000   Number         0  stm32f10x_gpio.o ABSOLUTE
    ..\FWLib\src\stm32f10x_i2c.c             0x00000000   Number         0  stm32f10x_i2c.o ABSOLUTE
    ..\FWLib\src\stm32f10x_iwdg.c            0x00000000   Number         0  stm32f10x_iwdg.o ABSOLUTE
    ..\FWLib\src\stm32f10x_pwr.c             0x00000000   Number         0  stm32f10x_pwr.o ABSOLUTE
    ..\FWLib\src\stm32f10x_rcc.c             0x00000000   Number         0  stm32f10x_rcc.o ABSOLUTE
    ..\FWLib\src\stm32f10x_rtc.c             0x00000000   Number         0  stm32f10x_rtc.o ABSOLUTE
    ..\FWLib\src\stm32f10x_sdio.c            0x00000000   Number         0  stm32f10x_sdio.o ABSOLUTE
    ..\FWLib\src\stm32f10x_spi.c             0x00000000   Number         0  stm32f10x_spi.o ABSOLUTE
    ..\FWLib\src\stm32f10x_tim.c             0x00000000   Number         0  stm32f10x_tim.o ABSOLUTE
    ..\FWLib\src\stm32f10x_usart.c           0x00000000   Number         0  stm32f10x_usart.o ABSOLUTE
    ..\FWLib\src\stm32f10x_wwdg.c            0x00000000   Number         0  stm32f10x_wwdg.o ABSOLUTE
    ..\HARDWARE\KEY\key.c                    0x00000000   Number         0  key.o ABSOLUTE
    ..\HARDWARE\LCD\lcd.c                    0x00000000   Number         0  lcd.o ABSOLUTE
    ..\HARDWARE\MALLOC\malloc.c              0x00000000   Number         0  malloc.o ABSOLUTE
    ..\SYSTEM\delay\delay.c                  0x00000000   Number         0  delay.o ABSOLUTE
    ..\SYSTEM\sys\sys.c                      0x00000000   Number         0  sys.o ABSOLUTE
    ..\SYSTEM\usart\usart.c                  0x00000000   Number         0  usart.o ABSOLUTE
    ..\\CORE\\core_cm3.c                     0x00000000   Number         0  core_cm3.o ABSOLUTE
    cdrcmple.s                               0x00000000   Number         0  cdrcmple.o ABSOLUTE
    dc.s                                     0x00000000   Number         0  dc.o ABSOLUTE
    handlers.s                               0x00000000   Number         0  handlers.o ABSOLUTE
    init.s                                   0x00000000   Number         0  init.o ABSOLUTE
    main.c                                   0x00000000   Number         0  main.o ABSOLUTE
    stm32f10x_it.c                           0x00000000   Number         0  stm32f10x_it.o ABSOLUTE
    system_stm32f10x.c                       0x00000000   Number         0  system_stm32f10x.o ABSOLUTE
    RESET                                    0x08000000   Section      304  startup_stm32f10x_hd.o(RESET)
    .ARM.Collect$$$$00000000                 0x08000130   Section        0  entry.o(.ARM.Collect$$$$00000000)
    .ARM.Collect$$$$00000001                 0x08000130   Section        4  entry2.o(.ARM.Collect$$$$00000001)
    .ARM.Collect$$$$00000004                 0x08000134   Section        4  entry5.o(.ARM.Collect$$$$00000004)
    .ARM.Collect$$$$00000008                 0x08000138   Section        0  entry7b.o(.ARM.Collect$$$$00000008)
    .ARM.Collect$$$$0000000A                 0x08000138   Section        0  entry8b.o(.ARM.Collect$$$$0000000A)
    .ARM.Collect$$$$0000000B                 0x08000138   Section        8  entry9a.o(.ARM.Collect$$$$0000000B)
    .ARM.Collect$$$$0000000D                 0x08000140   Section        0  entry10a.o(.ARM.Collect$$$$0000000D)
    .ARM.Collect$$$$0000000F                 0x08000140   Section        0  entry11a.o(.ARM.Collect$$$$0000000F)
    .ARM.Collect$$$$00002712                 0x08000140   Section        4  entry2.o(.ARM.Collect$$$$00002712)
    __lit__00000000                          0x08000140   Data           4  entry2.o(.ARM.Collect$$$$00002712)
    .text                                    0x08000144   Section       36  startup_stm32f10x_hd.o(.text)
    .text                                    0x08000168   Section        0  uldiv.o(.text)
    .text                                    0x080001ca   Section        0  llushr.o(.text)
    .text                                    0x080001ec   Section       36  init.o(.text)
    .text                                    0x08000210   Section        0  llshl.o(.text)
    i.BusFault_Handler                       0x0800022e   Section        0  stm32f10x_it.o(i.BusFault_Handler)
    i.DebugMon_Handler                       0x08000232   Section        0  stm32f10x_it.o(i.DebugMon_Handler)
    i.GPIO_Init                              0x08000234   Section        0  stm32f10x_gpio.o(i.GPIO_Init)
    i.GPIO_PinRemapConfig                    0x0800034c   Section        0  stm32f10x_gpio.o(i.GPIO_PinRemapConfig)
    i.GPIO_SetBits                           0x080003dc   Section        0  stm32f10x_gpio.o(i.GPIO_SetBits)
    i.HardFault_Handler                      0x080003e0   Section        0  stm32f10x_it.o(i.HardFault_Handler)
    i.KEY_Init                               0x080003e4   Section        0  key.o(i.KEY_Init)
    i.KEY_Scan                               0x08000444   Section        0  key.o(i.KEY_Scan)
    i.LCD_Clear                              0x080004c8   Section        0  lcd.o(i.LCD_Clear)
    i.LCD_Display_Dir                        0x08000550   Section        0  lcd.o(i.LCD_Display_Dir)
    i.LCD_Fast_DrawPoint                     0x08000710   Section        0  lcd.o(i.LCD_Fast_DrawPoint)
    i.LCD_Fill                               0x08000a74   Section        0  lcd.o(i.LCD_Fill)
    i.LCD_Init                               0x08000b48   Section        0  lcd.o(i.LCD_Init)
    i.LCD_Pow                                0x08000fa8   Section        0  lcd.o(i.LCD_Pow)
    i.LCD_RD_DATA                            0x08000fc0   Section        0  lcd.o(i.LCD_RD_DATA)
    i.LCD_ReadReg                            0x08001030   Section        0  lcd.o(i.LCD_ReadReg)
    i.LCD_Scan_Dir                           0x08001040   Section        0  lcd.o(i.LCD_Scan_Dir)
    i.LCD_SetCursor                          0x08001498   Section        0  lcd.o(i.LCD_SetCursor)
    i.LCD_ShowChar                           0x08001854   Section        0  lcd.o(i.LCD_ShowChar)
    i.LCD_ShowNum                            0x0800197c   Section        0  lcd.o(i.LCD_ShowNum)
    i.LCD_ShowString                         0x08001a10   Section        0  lcd.o(i.LCD_ShowString)
    i.LCD_WR_DATAX                           0x08001a78   Section        0  lcd.o(i.LCD_WR_DATAX)
    i.LCD_WR_REG                             0x08001a9c   Section        0  lcd.o(i.LCD_WR_REG)
    i.LCD_WriteRAM_Prepare                   0x08001ac0   Section        0  lcd.o(i.LCD_WriteRAM_Prepare)
    i.LCD_WriteReg                           0x08001ad0   Section        0  lcd.o(i.LCD_WriteReg)
    i.MemManage_Handler                      0x08001b00   Section        0  stm32f10x_it.o(i.MemManage_Handler)
    i.NMI_Handler                            0x08001b04   Section        0  stm32f10x_it.o(i.NMI_Handler)
    i.PendSV_Handler                         0x08001b06   Section        0  stm32f10x_it.o(i.PendSV_Handler)
    i.PrintfHelp                             0x08001b08   Section        0  main.o(i.PrintfHelp)
    PrintfHelp                               0x08001b09   Thumb Code     2  main.o(i.PrintfHelp)
    i.PrintfLogo                             0x08001b0c   Section        0  main.o(i.PrintfLogo)
    PrintfLogo                               0x08001b0d   Thumb Code    78  main.o(i.PrintfLogo)
    i.RCC_APB2PeriphClockCmd                 0x08001c8c   Section        0  stm32f10x_rcc.o(i.RCC_APB2PeriphClockCmd)
    i.RCC_GetClocksFreq                      0x08001cac   Section        0  stm32f10x_rcc.o(i.RCC_GetClocksFreq)
    i.SVC_Handler                            0x08001d80   Section        0  stm32f10x_it.o(i.SVC_Handler)
    i.SetSysClock                            0x08001d82   Section        0  system_stm32f10x.o(i.SetSysClock)
    SetSysClock                              0x08001d83   Thumb Code     8  system_stm32f10x.o(i.SetSysClock)
    i.SetSysClockTo72                        0x08001d8c   Section        0  system_stm32f10x.o(i.SetSysClockTo72)
    SetSysClockTo72                          0x08001d8d   Thumb Code   214  system_stm32f10x.o(i.SetSysClockTo72)
    i.SysTick_CLKSourceConfig                0x08001e6c   Section        0  misc.o(i.SysTick_CLKSourceConfig)
    i.SysTick_Handler                        0x08001e94   Section        0  stm32f10x_it.o(i.SysTick_Handler)
    i.SystemInit                             0x08001e98   Section        0  system_stm32f10x.o(i.SystemInit)
    i.USART_ClearFlag                        0x08001ef8   Section        0  stm32f10x_usart.o(i.USART_ClearFlag)
    i.USART_Cmd                              0x08001f0a   Section        0  stm32f10x_usart.o(i.USART_Cmd)
    i.USART_GetFlagStatus                    0x08001f22   Section        0  stm32f10x_usart.o(i.USART_GetFlagStatus)
    i.USART_ITConfig                         0x08001f3c   Section        0  stm32f10x_usart.o(i.USART_ITConfig)
    i.USART_Init                             0x08001f88   Section        0  stm32f10x_usart.o(i.USART_Init)
    i.USART_SendData                         0x08002060   Section        0  stm32f10x_usart.o(i.USART_SendData)
    i.UsageFault_Handler                     0x08002068   Section        0  stm32f10x_it.o(i.UsageFault_Handler)
    i.__0printf$8                            0x0800206c   Section        0  printf8.o(i.__0printf$8)
    i.__0sprintf$8                           0x0800208c   Section        0  printf8.o(i.__0sprintf$8)
    i.__scatterload_copy                     0x080020b4   Section       14  handlers.o(i.__scatterload_copy)
    i.__scatterload_null                     0x080020c2   Section        2  handlers.o(i.__scatterload_null)
    i.__scatterload_zeroinit                 0x080020c4   Section       14  handlers.o(i.__scatterload_zeroinit)
    i._printf_core                           0x080020d4   Section        0  printf8.o(i._printf_core)
    _printf_core                             0x080020d5   Thumb Code   996  printf8.o(i._printf_core)
    i._printf_post_padding                   0x080024e4   Section        0  printf8.o(i._printf_post_padding)
    _printf_post_padding                     0x080024e5   Thumb Code    36  printf8.o(i._printf_post_padding)
    i._printf_pre_padding                    0x08002508   Section        0  printf8.o(i._printf_pre_padding)
    _printf_pre_padding                      0x08002509   Thumb Code    46  printf8.o(i._printf_pre_padding)
    i._sputc                                 0x08002536   Section        0  printf8.o(i._sputc)
    _sputc                                   0x08002537   Thumb Code    10  printf8.o(i._sputc)
    i.delay_init                             0x08002540   Section        0  delay.o(i.delay_init)
    i.delay_ms                               0x08002584   Section        0  delay.o(i.delay_ms)
    i.delay_us                               0x080025d0   Section        0  delay.o(i.delay_us)
    i.fputc                                  0x0800261c   Section        0  usart.o(i.fputc)
    i.lyfree                                 0x08002648   Section        0  malloc.o(i.lyfree)
    i.lymalloc                               0x08002664   Section        0  malloc.o(i.lymalloc)
    i.lymemset                               0x08002684   Section        0  malloc.o(i.lymemset)
    i.main                                   0x08002698   Section        0  main.o(i.main)
    i.mem_free                               0x080028a0   Section        0  malloc.o(i.mem_free)
    i.mem_malloc                             0x080028e8   Section        0  malloc.o(i.mem_malloc)
    i.mem_perused                            0x08002960   Section        0  malloc.o(i.mem_perused)
    i.memory_init                            0x08002990   Section        0  malloc.o(i.memory_init)
    i.uart_init                              0x080029bc   Section        0  usart.o(i.uart_init)
    .constdata                               0x08002a48   Section     6080  lcd.o(.constdata)
    .data                                    0x20000000   Section       20  system_stm32f10x.o(.data)
    .data                                    0x20000014   Section       20  stm32f10x_rcc.o(.data)
    APBAHBPrescTable                         0x20000014   Data          16  stm32f10x_rcc.o(.data)
    ADCPrescTable                            0x20000024   Data           4  stm32f10x_rcc.o(.data)
    .data                                    0x20000028   Section        4  delay.o(.data)
    fac_us                                   0x20000028   Data           1  delay.o(.data)
    fac_ms                                   0x2000002a   Data           2  delay.o(.data)
    .data                                    0x2000002c   Section        4  usart.o(.data)
    .data                                    0x20000030   Section        4  lcd.o(.data)
    .data                                    0x20000034   Section        1  key.o(.data)
    key_up                                   0x20000034   Data           1  key.o(.data)
    .data                                    0x20000038   Section       20  malloc.o(.data)
    .bss                                     0x2000004c   Section       14  lcd.o(.bss)
    .bss                                     0x2000005c   Section    45696  malloc.o(.bss)
    STACK                                    0x2000b2e0   Section     1024  startup_stm32f10x_hd.o(STACK)

    Global Symbols

    Symbol Name                              Value     Ov Type        Size  Object(Section)

    BuildAttributes$$THM_ISAv4$P$D$K$B$S$PE$A:L22UL41UL21$X:L11$S22US41US21$IEEE1$IW$USESV6$~STKCKD$USESV7$~SHL$OSPACE$ROPI$EBA8$MICROLIB$REQ8$PRES8$EABIv2 0x00000000   Number         0  anon$$obj.o ABSOLUTE
    __ARM_use_no_argv                        0x00000000   Number         0  main.o ABSOLUTE
    __use_no_errno                           0x00000000   Number         0  useno.o ABSOLUTE
    __use_no_exception_handling              0x00000000   Number         0  useno.o ABSOLUTE
    __use_no_fp                              0x00000000   Number         0  useno.o ABSOLUTE
    __use_no_heap                            0x00000000   Number         0  useno.o ABSOLUTE
    __use_no_heap_region                     0x00000000   Number         0  useno.o ABSOLUTE
    __use_no_semihosting                     0x00000000   Number         0  useno.o ABSOLUTE
    __use_no_semihosting_swi                 0x00000000   Number         0  useno.o ABSOLUTE
    __use_no_signal_handling                 0x00000000   Number         0  useno.o ABSOLUTE
    _printf_a                                0x00000000   Number         0  stubs.o ABSOLUTE
    _printf_c                                0x00000000   Number         0  stubs.o ABSOLUTE
    _printf_charcount                        0x00000000   Number         0  stubs.o ABSOLUTE
    _printf_d                                0x00000000   Number         0  stubs.o ABSOLUTE
    _printf_e                                0x00000000   Number         0  stubs.o ABSOLUTE
    _printf_f                                0x00000000   Number         0  stubs.o ABSOLUTE
    _printf_flags                            0x00000000   Number         0  stubs.o ABSOLUTE
    _printf_fp_dec                           0x00000000   Number         0  stubs.o ABSOLUTE
    _printf_fp_hex                           0x00000000   Number         0  stubs.o ABSOLUTE
    _printf_g                                0x00000000   Number         0  stubs.o ABSOLUTE
    _printf_i                                0x00000000   Number         0  stubs.o ABSOLUTE
    _printf_int_dec                          0x00000000   Number         0  stubs.o ABSOLUTE
    _printf_l                                0x00000000   Number         0  stubs.o ABSOLUTE
    _printf_lc                               0x00000000   Number         0  stubs.o ABSOLUTE
    _printf_ll                               0x00000000   Number         0  stubs.o ABSOLUTE
    _printf_lld                              0x00000000   Number         0  stubs.o ABSOLUTE
    _printf_lli                              0x00000000   Number         0  stubs.o ABSOLUTE
    _printf_llo                              0x00000000   Number         0  stubs.o ABSOLUTE
    _printf_llu                              0x00000000   Number         0  stubs.o ABSOLUTE
    _printf_llx                              0x00000000   Number         0  stubs.o ABSOLUTE
    _printf_longlong_dec                     0x00000000   Number         0  stubs.o ABSOLUTE
    _printf_longlong_hex                     0x00000000   Number         0  stubs.o ABSOLUTE
    _printf_longlong_oct                     0x00000000   Number         0  stubs.o ABSOLUTE
    _printf_ls                               0x00000000   Number         0  stubs.o ABSOLUTE
    _printf_mbtowc                           0x00000000   Number         0  stubs.o ABSOLUTE
    _printf_n                                0x00000000   Number         0  stubs.o ABSOLUTE
    _printf_o                                0x00000000   Number         0  stubs.o ABSOLUTE
    _printf_p                                0x00000000   Number         0  stubs.o ABSOLUTE
    _printf_percent                          0x00000000   Number         0  stubs.o ABSOLUTE
    _printf_pre_padding                      0x00000000   Number         0  stubs.o ABSOLUTE
    _printf_return_value                     0x00000000   Number         0  stubs.o ABSOLUTE
    _printf_s                                0x00000000   Number         0  stubs.o ABSOLUTE
    _printf_sizespec                         0x00000000   Number         0  stubs.o ABSOLUTE
    _printf_str                              0x00000000   Number         0  stubs.o ABSOLUTE
    _printf_truncate_signed                  0x00000000   Number         0  stubs.o ABSOLUTE
    _printf_truncate_unsigned                0x00000000   Number         0  stubs.o ABSOLUTE
    _printf_u                                0x00000000   Number         0  stubs.o ABSOLUTE
    _printf_wc                               0x00000000   Number         0  stubs.o ABSOLUTE
    _printf_wctomb                           0x00000000   Number         0  stubs.o ABSOLUTE
    _printf_widthprec                        0x00000000   Number         0  stubs.o ABSOLUTE
    _printf_x                                0x00000000   Number         0  stubs.o ABSOLUTE
    __cpp_initialize__aeabi_                  - Undefined Weak Reference
    __cxa_finalize                            - Undefined Weak Reference
    __decompress                              - Undefined Weak Reference
    _clock_init                               - Undefined Weak Reference
    _microlib_exit                            - Undefined Weak Reference
    __Vectors_Size                           0x00000130   Number         0  startup_stm32f10x_hd.o ABSOLUTE
    __Vectors                                0x08000000   Data           4  startup_stm32f10x_hd.o(RESET)
    __Vectors_End                            0x08000130   Data           0  startup_stm32f10x_hd.o(RESET)
    __main                                   0x08000131   Thumb Code     0  entry.o(.ARM.Collect$$$$00000000)
    _main_stk                                0x08000131   Thumb Code     0  entry2.o(.ARM.Collect$$$$00000001)
    _main_scatterload                        0x08000135   Thumb Code     0  entry5.o(.ARM.Collect$$$$00000004)
    __main_after_scatterload                 0x08000139   Thumb Code     0  entry5.o(.ARM.Collect$$$$00000004)
    _main_clock                              0x08000139   Thumb Code     0  entry7b.o(.ARM.Collect$$$$00000008)
    _main_cpp_init                           0x08000139   Thumb Code     0  entry8b.o(.ARM.Collect$$$$0000000A)
    _main_init                               0x08000139   Thumb Code     0  entry9a.o(.ARM.Collect$$$$0000000B)
    __rt_final_cpp                           0x08000141   Thumb Code     0  entry10a.o(.ARM.Collect$$$$0000000D)
    __rt_final_exit                          0x08000141   Thumb Code     0  entry11a.o(.ARM.Collect$$$$0000000F)
    Reset_Handler                            0x08000145   Thumb Code     8  startup_stm32f10x_hd.o(.text)
    ADC1_2_IRQHandler                        0x0800015f   Thumb Code     0  startup_stm32f10x_hd.o(.text)
    ADC3_IRQHandler                          0x0800015f   Thumb Code     0  startup_stm32f10x_hd.o(.text)
    CAN1_RX1_IRQHandler                      0x0800015f   Thumb Code     0  startup_stm32f10x_hd.o(.text)
    CAN1_SCE_IRQHandler                      0x0800015f   Thumb Code     0  startup_stm32f10x_hd.o(.text)
    DMA1_Channel1_IRQHandler                 0x0800015f   Thumb Code     0  startup_stm32f10x_hd.o(.text)
    DMA1_Channel2_IRQHandler                 0x0800015f   Thumb Code     0  startup_stm32f10x_hd.o(.text)
    DMA1_Channel3_IRQHandler                 0x0800015f   Thumb Code     0  startup_stm32f10x_hd.o(.text)
    DMA1_Channel4_IRQHandler                 0x0800015f   Thumb Code     0  startup_stm32f10x_hd.o(.text)
    DMA1_Channel5_IRQHandler                 0x0800015f   Thumb Code     0  startup_stm32f10x_hd.o(.text)
    DMA1_Channel6_IRQHandler                 0x0800015f   Thumb Code     0  startup_stm32f10x_hd.o(.text)
    DMA1_Channel7_IRQHandler                 0x0800015f   Thumb Code     0  startup_stm32f10x_hd.o(.text)
    DMA2_Channel1_IRQHandler                 0x0800015f   Thumb Code     0  startup_stm32f10x_hd.o(.text)
    DMA2_Channel2_IRQHandler                 0x0800015f   Thumb Code     0  startup_stm32f10x_hd.o(.text)
    DMA2_Channel3_IRQHandler                 0x0800015f   Thumb Code     0  startup_stm32f10x_hd.o(.text)
    DMA2_Channel4_5_IRQHandler               0x0800015f   Thumb Code     0  startup_stm32f10x_hd.o(.text)
    EXTI0_IRQHandler                         0x0800015f   Thumb Code     0  startup_stm32f10x_hd.o(.text)
    EXTI15_10_IRQHandler                     0x0800015f   Thumb Code     0  startup_stm32f10x_hd.o(.text)
    EXTI1_IRQHandler                         0x0800015f   Thumb Code     0  startup_stm32f10x_hd.o(.text)
    EXTI2_IRQHandler                         0x0800015f   Thumb Code     0  startup_stm32f10x_hd.o(.text)
    EXTI3_IRQHandler                         0x0800015f   Thumb Code     0  startup_stm32f10x_hd.o(.text)
    EXTI4_IRQHandler                         0x0800015f   Thumb Code     0  startup_stm32f10x_hd.o(.text)
    EXTI9_5_IRQHandler                       0x0800015f   Thumb Code     0  startup_stm32f10x_hd.o(.text)
    FLASH_IRQHandler                         0x0800015f   Thumb Code     0  startup_stm32f10x_hd.o(.text)
    FSMC_IRQHandler                          0x0800015f   Thumb Code     0  startup_stm32f10x_hd.o(.text)
    I2C1_ER_IRQHandler                       0x0800015f   Thumb Code     0  startup_stm32f10x_hd.o(.text)
    I2C1_EV_IRQHandler                       0x0800015f   Thumb Code     0  startup_stm32f10x_hd.o(.text)
    I2C2_ER_IRQHandler                       0x0800015f   Thumb Code     0  startup_stm32f10x_hd.o(.text)
    I2C2_EV_IRQHandler                       0x0800015f   Thumb Code     0  startup_stm32f10x_hd.o(.text)
    PVD_IRQHandler                           0x0800015f   Thumb Code     0  startup_stm32f10x_hd.o(.text)
    RCC_IRQHandler                           0x0800015f   Thumb Code     0  startup_stm32f10x_hd.o(.text)
    RTCAlarm_IRQHandler                      0x0800015f   Thumb Code     0  startup_stm32f10x_hd.o(.text)
    RTC_IRQHandler                           0x0800015f   Thumb Code     0  startup_stm32f10x_hd.o(.text)
    SDIO_IRQHandler                          0x0800015f   Thumb Code     0  startup_stm32f10x_hd.o(.text)
    SPI1_IRQHandler                          0x0800015f   Thumb Code     0  startup_stm32f10x_hd.o(.text)
    SPI2_IRQHandler                          0x0800015f   Thumb Code     0  startup_stm32f10x_hd.o(.text)
    SPI3_IRQHandler                          0x0800015f   Thumb Code     0  startup_stm32f10x_hd.o(.text)
    TAMPER_IRQHandler                        0x0800015f   Thumb Code     0  startup_stm32f10x_hd.o(.text)
    TIM1_BRK_IRQHandler                      0x0800015f   Thumb Code     0  startup_stm32f10x_hd.o(.text)
    TIM1_CC_IRQHandler                       0x0800015f   Thumb Code     0  startup_stm32f10x_hd.o(.text)
    TIM1_TRG_COM_IRQHandler                  0x0800015f   Thumb Code     0  startup_stm32f10x_hd.o(.text)
    TIM1_UP_IRQHandler                       0x0800015f   Thumb Code     0  startup_stm32f10x_hd.o(.text)
    TIM2_IRQHandler                          0x0800015f   Thumb Code     0  startup_stm32f10x_hd.o(.text)
    TIM3_IRQHandler                          0x0800015f   Thumb Code     0  startup_stm32f10x_hd.o(.text)
    TIM4_IRQHandler                          0x0800015f   Thumb Code     0  startup_stm32f10x_hd.o(.text)
    TIM5_IRQHandler                          0x0800015f   Thumb Code     0  startup_stm32f10x_hd.o(.text)
    TIM6_IRQHandler                          0x0800015f   Thumb Code     0  startup_stm32f10x_hd.o(.text)
    TIM7_IRQHandler                          0x0800015f   Thumb Code     0  startup_stm32f10x_hd.o(.text)
    TIM8_BRK_IRQHandler                      0x0800015f   Thumb Code     0  startup_stm32f10x_hd.o(.text)
    TIM8_CC_IRQHandler                       0x0800015f   Thumb Code     0  startup_stm32f10x_hd.o(.text)
    TIM8_TRG_COM_IRQHandler                  0x0800015f   Thumb Code     0  startup_stm32f10x_hd.o(.text)
    TIM8_UP_IRQHandler                       0x0800015f   Thumb Code     0  startup_stm32f10x_hd.o(.text)
    UART4_IRQHandler                         0x0800015f   Thumb Code     0  startup_stm32f10x_hd.o(.text)
    UART5_IRQHandler                         0x0800015f   Thumb Code     0  startup_stm32f10x_hd.o(.text)
    USART1_IRQHandler                        0x0800015f   Thumb Code     0  startup_stm32f10x_hd.o(.text)
    USART2_IRQHandler                        0x0800015f   Thumb Code     0  startup_stm32f10x_hd.o(.text)
    USART3_IRQHandler                        0x0800015f   Thumb Code     0  startup_stm32f10x_hd.o(.text)
    USBWakeUp_IRQHandler                     0x0800015f   Thumb Code     0  startup_stm32f10x_hd.o(.text)
    USB_HP_CAN1_TX_IRQHandler                0x0800015f   Thumb Code     0  startup_stm32f10x_hd.o(.text)
    USB_LP_CAN1_RX0_IRQHandler               0x0800015f   Thumb Code     0  startup_stm32f10x_hd.o(.text)
    WWDG_IRQHandler                          0x0800015f   Thumb Code     0  startup_stm32f10x_hd.o(.text)
    __aeabi_uldivmod                         0x08000169   Thumb Code    98  uldiv.o(.text)
    __aeabi_llsr                             0x080001cb   Thumb Code    32  llushr.o(.text)
    _ll_ushift_r                             0x080001cb   Thumb Code     0  llushr.o(.text)
    __scatterload                            0x080001ed   Thumb Code    28  init.o(.text)
    __scatterload_rt2                        0x080001ed   Thumb Code     0  init.o(.text)
    __aeabi_llsl                             0x08000211   Thumb Code    30  llshl.o(.text)
    _ll_shift_l                              0x08000211   Thumb Code     0  llshl.o(.text)
    BusFault_Handler                         0x0800022f   Thumb Code     4  stm32f10x_it.o(i.BusFault_Handler)
    DebugMon_Handler                         0x08000233   Thumb Code     2  stm32f10x_it.o(i.DebugMon_Handler)
    GPIO_Init                                0x08000235   Thumb Code   278  stm32f10x_gpio.o(i.GPIO_Init)
    GPIO_PinRemapConfig                      0x0800034d   Thumb Code   138  stm32f10x_gpio.o(i.GPIO_PinRemapConfig)
    GPIO_SetBits                             0x080003dd   Thumb Code     4  stm32f10x_gpio.o(i.GPIO_SetBits)
    HardFault_Handler                        0x080003e1   Thumb Code     4  stm32f10x_it.o(i.HardFault_Handler)
    KEY_Init                                 0x080003e5   Thumb Code    82  key.o(i.KEY_Init)
    KEY_Scan                                 0x08000445   Thumb Code   120  key.o(i.KEY_Scan)
    LCD_Clear                                0x080004c9   Thumb Code   122  lcd.o(i.LCD_Clear)
    LCD_Display_Dir                          0x08000551   Thumb Code   444  lcd.o(i.LCD_Display_Dir)
    LCD_Fast_DrawPoint                       0x08000711   Thumb Code   854  lcd.o(i.LCD_Fast_DrawPoint)
    LCD_Fill                                 0x08000a75   Thumb Code   200  lcd.o(i.LCD_Fill)
    LCD_Init                                 0x08000b49   Thumb Code  1116  lcd.o(i.LCD_Init)
    LCD_Pow                                  0x08000fa9   Thumb Code    22  lcd.o(i.LCD_Pow)
    LCD_RD_DATA                              0x08000fc1   Thumb Code    98  lcd.o(i.LCD_RD_DATA)
    LCD_ReadReg                              0x08001031   Thumb Code    16  lcd.o(i.LCD_ReadReg)
    LCD_Scan_Dir                             0x08001041   Thumb Code  1112  lcd.o(i.LCD_Scan_Dir)
    LCD_SetCursor                            0x08001499   Thumb Code   944  lcd.o(i.LCD_SetCursor)
    LCD_ShowChar                             0x08001855   Thumb Code   272  lcd.o(i.LCD_ShowChar)
    LCD_ShowNum                              0x0800197d   Thumb Code   148  lcd.o(i.LCD_ShowNum)
    LCD_ShowString                           0x08001a11   Thumb Code   102  lcd.o(i.LCD_ShowString)
    LCD_WR_DATAX                             0x08001a79   Thumb Code    28  lcd.o(i.LCD_WR_DATAX)
    LCD_WR_REG                               0x08001a9d   Thumb Code    28  lcd.o(i.LCD_WR_REG)
    LCD_WriteRAM_Prepare                     0x08001ac1   Thumb Code    12  lcd.o(i.LCD_WriteRAM_Prepare)
    LCD_WriteReg                             0x08001ad1   Thumb Code    40  lcd.o(i.LCD_WriteReg)
    MemManage_Handler                        0x08001b01   Thumb Code     4  stm32f10x_it.o(i.MemManage_Handler)
    NMI_Handler                              0x08001b05   Thumb Code     2  stm32f10x_it.o(i.NMI_Handler)
    PendSV_Handler                           0x08001b07   Thumb Code     2  stm32f10x_it.o(i.PendSV_Handler)
    RCC_APB2PeriphClockCmd                   0x08001c8d   Thumb Code    26  stm32f10x_rcc.o(i.RCC_APB2PeriphClockCmd)
    RCC_GetClocksFreq                        0x08001cad   Thumb Code   192  stm32f10x_rcc.o(i.RCC_GetClocksFreq)
    SVC_Handler                              0x08001d81   Thumb Code     2  stm32f10x_it.o(i.SVC_Handler)
    SysTick_CLKSourceConfig                  0x08001e6d   Thumb Code    40  misc.o(i.SysTick_CLKSourceConfig)
    SysTick_Handler                          0x08001e95   Thumb Code     2  stm32f10x_it.o(i.SysTick_Handler)
    SystemInit                               0x08001e99   Thumb Code    78  system_stm32f10x.o(i.SystemInit)
    USART_ClearFlag                          0x08001ef9   Thumb Code    18  stm32f10x_usart.o(i.USART_ClearFlag)
    USART_Cmd                                0x08001f0b   Thumb Code    24  stm32f10x_usart.o(i.USART_Cmd)
    USART_GetFlagStatus                      0x08001f23   Thumb Code    26  stm32f10x_usart.o(i.USART_GetFlagStatus)
    USART_ITConfig                           0x08001f3d   Thumb Code    74  stm32f10x_usart.o(i.USART_ITConfig)
    USART_Init                               0x08001f89   Thumb Code   210  stm32f10x_usart.o(i.USART_Init)
    USART_SendData                           0x08002061   Thumb Code     8  stm32f10x_usart.o(i.USART_SendData)
    UsageFault_Handler                       0x08002069   Thumb Code     4  stm32f10x_it.o(i.UsageFault_Handler)
    __0printf$8                              0x0800206d   Thumb Code    22  printf8.o(i.__0printf$8)
    __1printf$8                              0x0800206d   Thumb Code     0  printf8.o(i.__0printf$8)
    __2printf                                0x0800206d   Thumb Code     0  printf8.o(i.__0printf$8)
    __0sprintf$8                             0x0800208d   Thumb Code    34  printf8.o(i.__0sprintf$8)
    __1sprintf$8                             0x0800208d   Thumb Code     0  printf8.o(i.__0sprintf$8)
    __2sprintf                               0x0800208d   Thumb Code     0  printf8.o(i.__0sprintf$8)
    __scatterload_copy                       0x080020b5   Thumb Code    14  handlers.o(i.__scatterload_copy)
    __scatterload_null                       0x080020c3   Thumb Code     2  handlers.o(i.__scatterload_null)
    __scatterload_zeroinit                   0x080020c5   Thumb Code    14  handlers.o(i.__scatterload_zeroinit)
    delay_init                               0x08002541   Thumb Code    50  delay.o(i.delay_init)
    delay_ms                                 0x08002585   Thumb Code    72  delay.o(i.delay_ms)
    delay_us                                 0x080025d1   Thumb Code    72  delay.o(i.delay_us)
    fputc                                    0x0800261d   Thumb Code    40  usart.o(i.fputc)
    lyfree                                   0x08002649   Thumb Code    24  malloc.o(i.lyfree)
    lymalloc                                 0x08002665   Thumb Code    28  malloc.o(i.lymalloc)
    lymemset                                 0x08002685   Thumb Code    20  malloc.o(i.lymemset)
    main                                     0x08002699   Thumb Code   394  main.o(i.main)
    mem_free                                 0x080028a1   Thumb Code    66  malloc.o(i.mem_free)
    mem_malloc                               0x080028e9   Thumb Code   116  malloc.o(i.mem_malloc)
    mem_perused                              0x08002961   Thumb Code    42  malloc.o(i.mem_perused)
    memory_init                              0x08002991   Thumb Code    38  malloc.o(i.memory_init)
    uart_init                                0x080029bd   Thumb Code   130  usart.o(i.uart_init)
    asc2_1206                                0x08002a48   Data        1140  lcd.o(.constdata)
    asc2_1608                                0x08002ebc   Data        1520  lcd.o(.constdata)
    asc2_2412                                0x080034ac   Data        3420  lcd.o(.constdata)
    Region$$Table$$Base                      0x08004208   Number         0  anon$$obj.o(Region$$Table)
    Region$$Table$$Limit                     0x08004228   Number         0  anon$$obj.o(Region$$Table)
    SystemCoreClock                          0x20000000   Data           4  system_stm32f10x.o(.data)
    AHBPrescTable                            0x20000004   Data          16  system_stm32f10x.o(.data)
    __stdout                                 0x2000002c   Data           4  usart.o(.data)
    POINT_COLOR                              0x20000030   Data           2  lcd.o(.data)
    BACK_COLOR                               0x20000032   Data           2  lcd.o(.data)
    mallco_dev                               0x20000038   Data          20  malloc.o(.data)
    lcddev                                   0x2000004c   Data          14  lcd.o(.bss)
    membase                                  0x2000005c   Data       43008  malloc.o(.bss)
    memmapbase                               0x2000a85c   Data        2688  malloc.o(.bss)
    __initial_sp                             0x2000b6e0   Data           0  startup_stm32f10x_hd.o(STACK)



==============================================================================

Memory Map of the image

  Image Entry point : 0x08000131

  Load Region LR_IROM1 (Base: 0x08000000, Size: 0x00004274, Max: 0x00040000, ABSOLUTE)

    Execution Region ER_IROM1 (Exec base: 0x08000000, Load base: 0x08000000, Size: 0x00004228, Max: 0x00040000, ABSOLUTE)

    Exec Addr    Load Addr    Size         Type   Attr      Idx    E Section Name        Object

    0x08000000   0x08000000   0x00000130   Data   RO           19    RESET               startup_stm32f10x_hd.o
    0x08000130   0x08000130   0x00000000   Code   RO         3625  * .ARM.Collect$$$$00000000  mc_w.l(entry.o)
    0x08000130   0x08000130   0x00000004   Code   RO         3895    .ARM.Collect$$$$00000001  mc_w.l(entry2.o)
    0x08000134   0x08000134   0x00000004   Code   RO         3898    .ARM.Collect$$$$00000004  mc_w.l(entry5.o)
    0x08000138   0x08000138   0x00000000   Code   RO         3900    .ARM.Collect$$$$00000008  mc_w.l(entry7b.o)
    0x08000138   0x08000138   0x00000000   Code   RO         3902    .ARM.Collect$$$$0000000A  mc_w.l(entry8b.o)
    0x08000138   0x08000138   0x00000008   Code   RO         3903    .ARM.Collect$$$$0000000B  mc_w.l(entry9a.o)
    0x08000140   0x08000140   0x00000000   Code   RO         3905    .ARM.Collect$$$$0000000D  mc_w.l(entry10a.o)
    0x08000140   0x08000140   0x00000000   Code   RO         3907    .ARM.Collect$$$$0000000F  mc_w.l(entry11a.o)
    0x08000140   0x08000140   0x00000004   Code   RO         3896    .ARM.Collect$$$$00002712  mc_w.l(entry2.o)
    0x08000144   0x08000144   0x00000024   Code   RO           20    .text               startup_stm32f10x_hd.o
    0x08000168   0x08000168   0x00000062   Code   RO         3911    .text               mc_w.l(uldiv.o)
    0x080001ca   0x080001ca   0x00000020   Code   RO         3913    .text               mc_w.l(llushr.o)
    0x080001ea   0x080001ea   0x00000002   PAD
    0x080001ec   0x080001ec   0x00000024   Code   RO         3926    .text               mc_w.l(init.o)
    0x08000210   0x08000210   0x0000001e   Code   RO         3928    .text               mc_w.l(llshl.o)
    0x0800022e   0x0800022e   0x00000004   Code   RO          156    i.BusFault_Handler  stm32f10x_it.o
    0x08000232   0x08000232   0x00000002   Code   RO          157    i.DebugMon_Handler  stm32f10x_it.o
    0x08000234   0x08000234   0x00000116   Code   RO         1430    i.GPIO_Init         stm32f10x_gpio.o
    0x0800034a   0x0800034a   0x00000002   PAD
    0x0800034c   0x0800034c   0x00000090   Code   RO         1432    i.GPIO_PinRemapConfig  stm32f10x_gpio.o
    0x080003dc   0x080003dc   0x00000004   Code   RO         1438    i.GPIO_SetBits      stm32f10x_gpio.o
    0x080003e0   0x080003e0   0x00000004   Code   RO          158    i.HardFault_Handler  stm32f10x_it.o
    0x080003e4   0x080003e4   0x00000060   Code   RO         3537    i.KEY_Init          key.o
    0x08000444   0x08000444   0x00000084   Code   RO         3538    i.KEY_Scan          key.o
    0x080004c8   0x080004c8   0x00000088   Code   RO         3328    i.LCD_Clear         lcd.o
    0x08000550   0x08000550   0x000001c0   Code   RO         3332    i.LCD_Display_Dir   lcd.o
    0x08000710   0x08000710   0x00000364   Code   RO         3337    i.LCD_Fast_DrawPoint  lcd.o
    0x08000a74   0x08000a74   0x000000d4   Code   RO         3338    i.LCD_Fill          lcd.o
    0x08000b48   0x08000b48   0x00000460   Code   RO         3339    i.LCD_Init          lcd.o
    0x08000fa8   0x08000fa8   0x00000016   Code   RO         3340    i.LCD_Pow           lcd.o
    0x08000fbe   0x08000fbe   0x00000002   PAD
    0x08000fc0   0x08000fc0   0x00000070   Code   RO         3341    i.LCD_RD_DATA       lcd.o
    0x08001030   0x08001030   0x00000010   Code   RO         3343    i.LCD_ReadReg       lcd.o
    0x08001040   0x08001040   0x00000458   Code   RO         3345    i.LCD_Scan_Dir      lcd.o
    0x08001498   0x08001498   0x000003bc   Code   RO         3346    i.LCD_SetCursor     lcd.o
    0x08001854   0x08001854   0x00000128   Code   RO         3348    i.LCD_ShowChar      lcd.o
    0x0800197c   0x0800197c   0x00000094   Code   RO         3349    i.LCD_ShowNum       lcd.o
    0x08001a10   0x08001a10   0x00000066   Code   RO         3350    i.LCD_ShowString    lcd.o
    0x08001a76   0x08001a76   0x00000002   PAD
    0x08001a78   0x08001a78   0x00000024   Code   RO         3352    i.LCD_WR_DATAX      lcd.o
    0x08001a9c   0x08001a9c   0x00000024   Code   RO         3353    i.LCD_WR_REG        lcd.o
    0x08001ac0   0x08001ac0   0x00000010   Code   RO         3355    i.LCD_WriteRAM_Prepare  lcd.o
    0x08001ad0   0x08001ad0   0x00000030   Code   RO         3356    i.LCD_WriteReg      lcd.o
    0x08001b00   0x08001b00   0x00000004   Code   RO          159    i.MemManage_Handler  stm32f10x_it.o
    0x08001b04   0x08001b04   0x00000002   Code   RO          160    i.NMI_Handler       stm32f10x_it.o
    0x08001b06   0x08001b06   0x00000002   Code   RO          161    i.PendSV_Handler    stm32f10x_it.o
    0x08001b08   0x08001b08   0x00000002   Code   RO           24    i.PrintfHelp        main.o
    0x08001b0a   0x08001b0a   0x00000002   PAD
    0x08001b0c   0x08001b0c   0x00000180   Code   RO           25    i.PrintfLogo        main.o
    0x08001c8c   0x08001c8c   0x00000020   Code   RO         1848    i.RCC_APB2PeriphClockCmd  stm32f10x_rcc.o
    0x08001cac   0x08001cac   0x000000d4   Code   RO         1856    i.RCC_GetClocksFreq  stm32f10x_rcc.o
    0x08001d80   0x08001d80   0x00000002   Code   RO          162    i.SVC_Handler       stm32f10x_it.o
    0x08001d82   0x08001d82   0x00000008   Code   RO          245    i.SetSysClock       system_stm32f10x.o
    0x08001d8a   0x08001d8a   0x00000002   PAD
    0x08001d8c   0x08001d8c   0x000000e0   Code   RO          246    i.SetSysClockTo72   system_stm32f10x.o
    0x08001e6c   0x08001e6c   0x00000028   Code   RO          283    i.SysTick_CLKSourceConfig  misc.o
    0x08001e94   0x08001e94   0x00000002   Code   RO          163    i.SysTick_Handler   stm32f10x_it.o
    0x08001e96   0x08001e96   0x00000002   PAD
    0x08001e98   0x08001e98   0x00000060   Code   RO          248    i.SystemInit        system_stm32f10x.o
    0x08001ef8   0x08001ef8   0x00000012   Code   RO         3012    i.USART_ClearFlag   stm32f10x_usart.o
    0x08001f0a   0x08001f0a   0x00000018   Code   RO         3016    i.USART_Cmd         stm32f10x_usart.o
    0x08001f22   0x08001f22   0x0000001a   Code   RO         3019    i.USART_GetFlagStatus  stm32f10x_usart.o
    0x08001f3c   0x08001f3c   0x0000004a   Code   RO         3022    i.USART_ITConfig    stm32f10x_usart.o
    0x08001f86   0x08001f86   0x00000002   PAD
    0x08001f88   0x08001f88   0x000000d8   Code   RO         3023    i.USART_Init        stm32f10x_usart.o
    0x08002060   0x08002060   0x00000008   Code   RO         3033    i.USART_SendData    stm32f10x_usart.o
    0x08002068   0x08002068   0x00000004   Code   RO          164    i.UsageFault_Handler  stm32f10x_it.o
    0x0800206c   0x0800206c   0x00000020   Code   RO         3835    i.__0printf$8       mc_w.l(printf8.o)
    0x0800208c   0x0800208c   0x00000028   Code   RO         3837    i.__0sprintf$8      mc_w.l(printf8.o)
    0x080020b4   0x080020b4   0x0000000e   Code   RO         3934    i.__scatterload_copy  mc_w.l(handlers.o)
    0x080020c2   0x080020c2   0x00000002   Code   RO         3935    i.__scatterload_null  mc_w.l(handlers.o)
    0x080020c4   0x080020c4   0x0000000e   Code   RO         3936    i.__scatterload_zeroinit  mc_w.l(handlers.o)
    0x080020d2   0x080020d2   0x00000002   PAD
    0x080020d4   0x080020d4   0x00000410   Code   RO         3842    i._printf_core      mc_w.l(printf8.o)
    0x080024e4   0x080024e4   0x00000024   Code   RO         3843    i._printf_post_padding  mc_w.l(printf8.o)
    0x08002508   0x08002508   0x0000002e   Code   RO         3844    i._printf_pre_padding  mc_w.l(printf8.o)
    0x08002536   0x08002536   0x0000000a   Code   RO         3846    i._sputc            mc_w.l(printf8.o)
    0x08002540   0x08002540   0x00000044   Code   RO         3246    i.delay_init        delay.o
    0x08002584   0x08002584   0x0000004c   Code   RO         3247    i.delay_ms          delay.o
    0x080025d0   0x080025d0   0x0000004c   Code   RO         3249    i.delay_us          delay.o
    0x0800261c   0x0800261c   0x0000002c   Code   RO         3287    i.fputc             usart.o
    0x08002648   0x08002648   0x0000001c   Code   RO         3556    i.lyfree            malloc.o
    0x08002664   0x08002664   0x00000020   Code   RO         3557    i.lymalloc          malloc.o
    0x08002684   0x08002684   0x00000014   Code   RO         3559    i.lymemset          malloc.o
    0x08002698   0x08002698   0x00000208   Code   RO           26    i.main              main.o
    0x080028a0   0x080028a0   0x00000048   Code   RO         3561    i.mem_free          malloc.o
    0x080028e8   0x080028e8   0x00000078   Code   RO         3562    i.mem_malloc        malloc.o
    0x08002960   0x08002960   0x00000030   Code   RO         3563    i.mem_perused       malloc.o
    0x08002990   0x08002990   0x0000002c   Code   RO         3564    i.memory_init       malloc.o
    0x080029bc   0x080029bc   0x0000008c   Code   RO         3288    i.uart_init         usart.o
    0x08002a48   0x08002a48   0x000017c0   Data   RO         3359    .constdata          lcd.o
    0x08004208   0x08004208   0x00000020   Data   RO         3932    Region$$Table       anon$$obj.o


    Execution Region RW_IRAM1 (Exec base: 0x20000000, Load base: 0x08004228, Size: 0x0000b6e0, Max: 0x0000c000, ABSOLUTE)

    Exec Addr    Load Addr    Size         Type   Attr      Idx    E Section Name        Object

    0x20000000   0x08004228   0x00000014   Data   RW          249    .data               system_stm32f10x.o
    0x20000014   0x0800423c   0x00000014   Data   RW         1876    .data               stm32f10x_rcc.o
    0x20000028   0x08004250   0x00000004   Data   RW         3250    .data               delay.o
    0x2000002c   0x08004254   0x00000004   Data   RW         3289    .data               usart.o
    0x20000030   0x08004258   0x00000004   Data   RW         3360    .data               lcd.o
    0x20000034   0x0800425c   0x00000001   Data   RW         3539    .data               key.o
    0x20000035   0x0800425d   0x00000003   PAD
    0x20000038   0x08004260   0x00000014   Data   RW         3567    .data               malloc.o
    0x2000004c        -       0x0000000e   Zero   RW         3358    .bss                lcd.o
    0x2000005a   0x08004274   0x00000002   PAD
    0x2000005c        -       0x0000b280   Zero   RW         3565    .bss                malloc.o
    0x2000b2dc   0x08004274   0x00000004   PAD
    0x2000b2e0        -       0x00000400   Zero   RW           17    STACK               startup_stm32f10x_hd.o


==============================================================================

Image component sizes


      Code (inc. data)   RO Data    RW Data    ZI Data      Debug   Object Name

         0          0          0          0          0       4548   core_cm3.o
       220         26          0          4          0       1767   delay.o
       228         26          0          1          0       1194   key.o
      5684        178       6080          4         14      16904   lcd.o
       906        432          0          0          0     228379   main.o
       364         30          0         20      45696       5929   malloc.o
        40          0          0          0          0        514   misc.o
        36          8        304          0       1024        804   startup_stm32f10x_hd.o
       426          6          0          0          0       3417   stm32f10x_gpio.o
        26          0          0          0          0       3834   stm32f10x_it.o
       244         26          0         20          0       3965   stm32f10x_rcc.o
       366          6          0          0          0       5479   stm32f10x_usart.o
       328         28          0         20          0       2273   system_stm32f10x.o
       184         14          0          4          0       3178   usart.o

    ----------------------------------------------------------------------
      9066        780       6416         76      46740     282185   Object Totals
         0          0         32          0          0          0   (incl. Generated)
        14          0          0          3          6          0   (incl. Padding)

    ----------------------------------------------------------------------

      Code (inc. data)   RO Data    RW Data    ZI Data      Debug   Library Member Name

         0          0          0          0          0          0   entry.o
         0          0          0          0          0          0   entry10a.o
         0          0          0          0          0          0   entry11a.o
         8          4          0          0          0          0   entry2.o
         4          0          0          0          0          0   entry5.o
         0          0          0          0          0          0   entry7b.o
         0          0          0          0          0          0   entry8b.o
         8          4          0          0          0          0   entry9a.o
        30          0          0          0          0          0   handlers.o
        36          8          0          0          0         68   init.o
        30          0          0          0          0         68   llshl.o
        32          0          0          0          0         68   llushr.o
      1204         60          0          0          0        504   printf8.o
        98          0          0          0          0         92   uldiv.o

    ----------------------------------------------------------------------
      1454         76          0          0          0        800   Library Totals
         4          0          0          0          0          0   (incl. Padding)

    ----------------------------------------------------------------------

      Code (inc. data)   RO Data    RW Data    ZI Data      Debug   Library Name

      1450         76          0          0          0        800   mc_w.l

    ----------------------------------------------------------------------
      1454         76          0          0          0        800   Library Totals

    ----------------------------------------------------------------------

==============================================================================


      Code (inc. data)   RO Data    RW Data    ZI Data      Debug   

     10520        856       6416         76      46740     279913   Grand Totals
     10520        856       6416         76      46740     279913   ELF Image Totals
     10520        856       6416         76          0          0   ROM Totals

==============================================================================

    Total RO  Size (Code + RO Data)                16936 (  16.54kB)
    Total RW  Size (RW Data + ZI Data)             46816 (  45.72kB)
    Total ROM Size (Code + RO Data + RW Data)      17012 (  16.61kB)

==============================================================================

