Component: ARM Compiler 5.06 update 6 (build 750) Tool: armlink [4d35ed]

==============================================================================

Section Cross References

    startup_stm32l431xx.o(RESET) refers to startup_stm32l431xx.o(STACK) for __initial_sp
    startup_stm32l431xx.o(RESET) refers to startup_stm32l431xx.o(.text) for Reset_Handler
    startup_stm32l431xx.o(RESET) refers to stm32l4xx_it.o(i.NMI_Handler) for NMI_Handler
    startup_stm32l431xx.o(RESET) refers to stm32l4xx_it.o(i.HardFault_Handler) for HardFault_Handler
    startup_stm32l431xx.o(RESET) refers to stm32l4xx_it.o(i.MemManage_Handler) for MemManage_Handler
    startup_stm32l431xx.o(RESET) refers to stm32l4xx_it.o(i.BusFault_Handler) for BusFault_Handler
    startup_stm32l431xx.o(RESET) refers to stm32l4xx_it.o(i.UsageFault_Handler) for UsageFault_Handler
    startup_stm32l431xx.o(RESET) refers to stm32l4xx_it.o(i.SVC_Handler) for SVC_Handler
    startup_stm32l431xx.o(RESET) refers to stm32l4xx_it.o(i.DebugMon_Handler) for DebugMon_Handler
    startup_stm32l431xx.o(RESET) refers to stm32l4xx_it.o(i.PendSV_Handler) for PendSV_Handler
    startup_stm32l431xx.o(RESET) refers to stm32l4xx_it.o(i.SysTick_Handler) for SysTick_Handler
    startup_stm32l431xx.o(RESET) refers to stm32l4xx_it.o(i.DMA1_Channel3_IRQHandler) for DMA1_Channel3_IRQHandler
    startup_stm32l431xx.o(RESET) refers to stm32l4xx_it.o(i.SDMMC1_IRQHandler) for SDMMC1_IRQHandler
    startup_stm32l431xx.o(.text) refers to system_stm32l4xx.o(i.SystemInit) for SystemInit
    startup_stm32l431xx.o(.text) refers to entry.o(.ARM.Collect$$$$00000000) for __main
    main.o(i.Mount_SD) refers to ff.o(i.f_mount) for f_mount
    main.o(i.Mount_SD) refers to fatfs.o(.data) for SDPath
    main.o(i.Mount_SD) refers to fatfs.o(.bss) for SDFatFS
==============================================================================

Removing Unused input sections from the image.

    Removing startup_stm32l431xx.o(HEAP), (4096 bytes).
    Removing main.o(.rev16_text), (4 bytes).
    Removing main.o(.revsh_text), (4 bytes).
    Removing main.o(.rrx_text), (6 bytes).
    Removing gpio.o(.rev16_text), (4 bytes).
    Removing gpio.o(.revsh_text), (4 bytes).
    Removing gpio.o(.rrx_text), (6 bytes).
    Removing dma.o(.rev16_text), (4 bytes).
    Removing dma.o(.revsh_text), (4 bytes).
    Removing dma.o(.rrx_text), (6 bytes).
    Removing sdmmc.o(.rev16_text), (4 bytes).
    Removing sdmmc.o(.revsh_text), (4 bytes).
    Removing sdmmc.o(.rrx_text), (6 bytes).
    Removing sdmmc.o(i.HAL_SD_MspDeInit), (68 bytes).
    Removing spi.o(.rev16_text), (4 bytes).
    Removing spi.o(.revsh_text), (4 bytes).
    Removing spi.o(.rrx_text), (6 bytes).
    Removing spi.o(i.HAL_SPI_MspDeInit), (56 bytes).
==============================================================================

Image Symbol Table

    Local Symbols

    Symbol Name                              Value     Ov Type        Size  Object(Section)

    ../Core/Src/dma.c                        0x00000000   Number         0  dma.o ABSOLUTE
    ../Core/Src/gpio.c                       0x00000000   Number         0  gpio.o ABSOLUTE
    ../Core/Src/main.c                       0x00000000   Number         0  main.o ABSOLUTE
    ../Core/Src/sdmmc.c                      0x00000000   Number         0  sdmmc.o ABSOLUTE
    ../Core/Src/spi.c                        0x00000000   Number         0  spi.o ABSOLUTE
    ../Core/Src/stm32l4xx_hal_msp.c          0x00000000   Number         0  stm32l4xx_hal_msp.o ABSOLUTE
    ../Core/Src/stm32l4xx_it.c               0x00000000   Number         0  stm32l4xx_it.o ABSOLUTE
    ../Core/Src/system_stm32l4xx.c           0x00000000   Number         0  system_stm32l4xx.o ABSOLUTE
    ../Core/Src/usart.c                      0x00000000   Number         0  usart.o ABSOLUTE
    ../Drivers/STM32L4xx_HAL_Driver/Src/stm32l4xx_hal.c 0x00000000   Number         0  stm32l4xx_hal.o ABSOLUTE
    ../Drivers/STM32L4xx_HAL_Driver/Src/stm32l4xx_hal_cortex.c 0x00000000   Number         0  stm32l4xx_hal_cortex.o ABSOLUTE
    ../Drivers/STM32L4xx_HAL_Driver/Src/stm32l4xx_hal_dma.c 0x00000000   Number         0  stm32l4xx_hal_dma.o ABSOLUTE
    ../Drivers/STM32L4xx_HAL_Driver/Src/stm32l4xx_hal_dma_ex.c 0x00000000   Number         0  stm32l4xx_hal_dma_ex.o ABSOLUTE
    ../Drivers/STM32L4xx_HAL_Driver/Src/stm32l4xx_hal_exti.c 0x00000000   Number         0  stm32l4xx_hal_exti.o ABSOLUTE
    ../Drivers/STM32L4xx_HAL_Driver/Src/stm32l4xx_hal_flash.c 0x00000000   Number         0  stm32l4xx_hal_flash.o ABSOLUTE
    ../Drivers/STM32L4xx_HAL_Driver/Src/stm32l4xx_hal_flash_ex.c 0x00000000   Number         0  stm32l4xx_hal_flash_ex.o ABSOLUTE
    ../Drivers/STM32L4xx_HAL_Driver/Src/stm32l4xx_hal_flash_ramfunc.c 0x00000000   Number         0  stm32l4xx_hal_flash_ramfunc.o ABSOLUTE
    ../Drivers/STM32L4xx_HAL_Driver/Src/stm32l4xx_hal_gpio.c 0x00000000   Number         0  stm32l4xx_hal_gpio.o ABSOLUTE
    ../Drivers/STM32L4xx_HAL_Driver/Src/stm32l4xx_hal_i2c.c 0x00000000   Number         0  stm32l4xx_hal_i2c.o ABSOLUTE
    ../Drivers/STM32L4xx_HAL_Driver/Src/stm32l4xx_hal_i2c_ex.c 0x00000000   Number         0  stm32l4xx_hal_i2c_ex.o ABSOLUTE
    ../Drivers/STM32L4xx_HAL_Driver/Src/stm32l4xx_hal_pwr.c 0x00000000   Number         0  stm32l4xx_hal_pwr.o ABSOLUTE
    ../Drivers/STM32L4xx_HAL_Driver/Src/stm32l4xx_hal_pwr_ex.c 0x00000000   Number         0  stm32l4xx_hal_pwr_ex.o ABSOLUTE
    ../Drivers/STM32L4xx_HAL_Driver/Src/stm32l4xx_hal_rcc.c 0x00000000   Number         0  stm32l4xx_hal_rcc.o ABSOLUTE
    ../Drivers/STM32L4xx_HAL_Driver/Src/stm32l4xx_hal_rcc_ex.c 0x00000000   Number         0  stm32l4xx_hal_rcc_ex.o ABSOLUTE
    ../Drivers/STM32L4xx_HAL_Driver/Src/stm32l4xx_hal_sd.c 0x00000000   Number         0  stm32l4xx_hal_sd.o ABSOLUTE
    ../Drivers/STM32L4xx_HAL_Driver/Src/stm32l4xx_hal_sd_ex.c 0x00000000   Number         0  stm32l4xx_hal_sd_ex.o ABSOLUTE
    ../Drivers/STM32L4xx_HAL_Driver/Src/stm32l4xx_hal_spi.c 0x00000000   Number         0  stm32l4xx_hal_spi.o ABSOLUTE
    ../Drivers/STM32L4xx_HAL_Driver/Src/stm32l4xx_hal_spi_ex.c 0x00000000   Number         0  stm32l4xx_hal_spi_ex.o ABSOLUTE
    ../Drivers/STM32L4xx_HAL_Driver/Src/stm32l4xx_hal_tim.c 0x00000000   Number         0  stm32l4xx_hal_tim.o ABSOLUTE
    ../Drivers/STM32L4xx_HAL_Driver/Src/stm32l4xx_hal_tim_ex.c 0x00000000   Number         0  stm32l4xx_hal_tim_ex.o ABSOLUTE
    ../Drivers/STM32L4xx_HAL_Driver/Src/stm32l4xx_hal_uart.c 0x00000000   Number         0  stm32l4xx_hal_uart.o ABSOLUTE
    ../Drivers/STM32L4xx_HAL_Driver/Src/stm32l4xx_hal_uart_ex.c 0x00000000   Number         0  stm32l4xx_hal_uart_ex.o ABSOLUTE
    ../Drivers/STM32L4xx_HAL_Driver/Src/stm32l4xx_ll_sdmmc.c 0x00000000   Number         0  stm32l4xx_ll_sdmmc.o ABSOLUTE
    ../FATFS/App/fatfs.c                     0x00000000   Number         0  fatfs.o ABSOLUTE
    ../FATFS/Target/bsp_driver_sd.c          0x00000000   Number         0  bsp_driver_sd.o ABSOLUTE
    ../FATFS/Target/sd_diskio.c              0x00000000   Number         0  sd_diskio.o ABSOLUTE
    ../Middlewares/Third_Party/FatFs/src/diskio.c 0x00000000   Number         0  diskio.o ABSOLUTE
    ../Middlewares/Third_Party/FatFs/src/ff.c 0x00000000   Number         0  ff.o ABSOLUTE
    ../Middlewares/Third_Party/FatFs/src/ff_gen_drv.c 0x00000000   Number         0  ff_gen_drv.o ABSOLUTE
    ../Middlewares/Third_Party/FatFs/src/option/cc936.c 0x00000000   Number         0  cc936.o ABSOLUTE
    ../Middlewares/Third_Party/FatFs/src/option/syscall.c 0x00000000   Number         0  syscall.o ABSOLUTE
    ../clib/../cmprslib/zerorunl.c           0x00000000   Number         0  __dczerorl.o ABSOLUTE
    ../clib/microlib/division.c              0x00000000   Number         0  uidiv.o ABSOLUTE
    ../clib/microlib/division.c              0x00000000   Number         0  uldiv.o ABSOLUTE
    ../clib/microlib/init/entry.s            0x00000000   Number         0  entry9b.o ABSOLUTE
    ../clib/microlib/init/entry.s            0x00000000   Number         0  entry10a.o ABSOLUTE
    ../clib/microlib/init/entry.s            0x00000000   Number         0  entry8b.o ABSOLUTE
    ../clib/microlib/init/entry.s            0x00000000   Number         0  entry10b.o ABSOLUTE
    ../clib/microlib/init/entry.s            0x00000000   Number         0  entry11a.o ABSOLUTE
    ../clib/microlib/init/entry.s            0x00000000   Number         0  entry11b.o ABSOLUTE
    ../clib/microlib/init/entry.s            0x00000000   Number         0  entry7a.o ABSOLUTE
    ../clib/microlib/init/entry.s            0x00000000   Number         0  entry8a.o ABSOLUTE
    ../clib/microlib/init/entry.s            0x00000000   Number         0  entry2.o ABSOLUTE
    ../clib/microlib/init/entry.s            0x00000000   Number         0  entry7b.o ABSOLUTE
    ../clib/microlib/init/entry.s            0x00000000   Number         0  entry.o ABSOLUTE
    ../clib/microlib/init/entry.s            0x00000000   Number         0  entry5.o ABSOLUTE
    ../clib/microlib/init/entry.s            0x00000000   Number         0  entry9a.o ABSOLUTE
    ../clib/microlib/longlong.c              0x00000000   Number         0  llsshr.o ABSOLUTE
    ../clib/microlib/longlong.c              0x00000000   Number         0  llushr.o ABSOLUTE
    ../clib/microlib/longlong.c              0x00000000   Number         0  llshl.o ABSOLUTE
    ../clib/microlib/printf/printf.c         0x00000000   Number         0  printf5.o ABSOLUTE
    ../clib/microlib/printf/printf.c         0x00000000   Number         0  printf4.o ABSOLUTE
    ../clib/microlib/printf/printf.c         0x00000000   Number         0  printfa.o ABSOLUTE
    ../clib/microlib/printf/printf.c         0x00000000   Number         0  printf8.o ABSOLUTE
    ../clib/microlib/printf/printf.c         0x00000000   Number         0  printf7.o ABSOLUTE
    ../clib/microlib/printf/printf.c         0x00000000   Number         0  printfb.o ABSOLUTE
    ../clib/microlib/printf/printf.c         0x00000000   Number         0  printf1.o ABSOLUTE
    ../clib/microlib/printf/printf.c         0x00000000   Number         0  printf6.o ABSOLUTE
    ../clib/microlib/printf/printf.c         0x00000000   Number         0  printf0.o ABSOLUTE
    ../clib/microlib/printf/printf.c         0x00000000   Number         0  printf2.o ABSOLUTE
    ../clib/microlib/printf/printf.c         0x00000000   Number         0  printf3.o ABSOLUTE
    ../clib/microlib/stdio/streams.c         0x00000000   Number         0  stdout.o ABSOLUTE
    ../clib/microlib/string/memset.c         0x00000000   Number         0  memseta.o ABSOLUTE
    ../clib/microlib/stubs.s                 0x00000000   Number         0  iusefp.o ABSOLUTE
    ../fplib/microlib/fpadd.c                0x00000000   Number         0  dadd.o ABSOLUTE
    ../fplib/microlib/fpdiv.c                0x00000000   Number         0  ddiv.o ABSOLUTE
    ../fplib/microlib/fpepilogue.c           0x00000000   Number         0  depilogue.o ABSOLUTE
    ../fplib/microlib/fpfix.c                0x00000000   Number         0  dfixul.o ABSOLUTE
    ../fplib/microlib/fpmul.c                0x00000000   Number         0  dmul.o ABSOLUTE
    ..\Core\Src\dma.c                        0x00000000   Number         0  dma.o ABSOLUTE
    ..\Core\Src\gpio.c                       0x00000000   Number         0  gpio.o ABSOLUTE
    ..\Core\Src\main.c                       0x00000000   Number         0  main.o ABSOLUTE
    ..\Core\Src\sdmmc.c                      0x00000000   Number         0  sdmmc.o ABSOLUTE
    ..\Core\Src\spi.c                        0x00000000   Number         0  spi.o ABSOLUTE
    ..\Core\Src\stm32l4xx_hal_msp.c          0x00000000   Number         0  stm32l4xx_hal_msp.o ABSOLUTE
    ..\Core\Src\stm32l4xx_it.c               0x00000000   Number         0  stm32l4xx_it.o ABSOLUTE
    ..\Core\Src\system_stm32l4xx.c           0x00000000   Number         0  system_stm32l4xx.o ABSOLUTE
    ..\Core\Src\usart.c                      0x00000000   Number         0  usart.o ABSOLUTE
    ..\Drivers\STM32L4xx_HAL_Driver\Src\stm32l4xx_hal.c 0x00000000   Number         0  stm32l4xx_hal.o ABSOLUTE
    ..\Drivers\STM32L4xx_HAL_Driver\Src\stm32l4xx_hal_cortex.c 0x00000000   Number         0  stm32l4xx_hal_cortex.o ABSOLUTE
    ..\Drivers\STM32L4xx_HAL_Driver\Src\stm32l4xx_hal_dma.c 0x00000000   Number         0  stm32l4xx_hal_dma.o ABSOLUTE
    ..\Drivers\STM32L4xx_HAL_Driver\Src\stm32l4xx_hal_dma_ex.c 0x00000000   Number         0  stm32l4xx_hal_dma_ex.o ABSOLUTE
    ..\Drivers\STM32L4xx_HAL_Driver\Src\stm32l4xx_hal_exti.c 0x00000000   Number         0  stm32l4xx_hal_exti.o ABSOLUTE
    ..\Drivers\STM32L4xx_HAL_Driver\Src\stm32l4xx_hal_flash.c 0x00000000   Number         0  stm32l4xx_hal_flash.o ABSOLUTE
    ..\Drivers\STM32L4xx_HAL_Driver\Src\stm32l4xx_hal_flash_ex.c 0x00000000   Number         0  stm32l4xx_hal_flash_ex.o ABSOLUTE
    ..\Drivers\STM32L4xx_HAL_Driver\Src\stm32l4xx_hal_flash_ramfunc.c 0x00000000   Number         0  stm32l4xx_hal_flash_ramfunc.o ABSOLUTE
    ..\Drivers\STM32L4xx_HAL_Driver\Src\stm32l4xx_hal_gpio.c 0x00000000   Number         0  stm32l4xx_hal_gpio.o ABSOLUTE
    ..\Drivers\STM32L4xx_HAL_Driver\Src\stm32l4xx_hal_i2c.c 0x00000000   Number         0  stm32l4xx_hal_i2c.o ABSOLUTE
    ..\Drivers\STM32L4xx_HAL_Driver\Src\stm32l4xx_hal_i2c_ex.c 0x00000000   Number         0  stm32l4xx_hal_i2c_ex.o ABSOLUTE
    ..\Drivers\STM32L4xx_HAL_Driver\Src\stm32l4xx_hal_pwr.c 0x00000000   Number         0  stm32l4xx_hal_pwr.o ABSOLUTE
    ..\Drivers\STM32L4xx_HAL_Driver\Src\stm32l4xx_hal_pwr_ex.c 0x00000000   Number         0  stm32l4xx_hal_pwr_ex.o ABSOLUTE
    ..\Drivers\STM32L4xx_HAL_Driver\Src\stm32l4xx_hal_rcc.c 0x00000000   Number         0  stm32l4xx_hal_rcc.o ABSOLUTE
    ..\Drivers\STM32L4xx_HAL_Driver\Src\stm32l4xx_hal_rcc_ex.c 0x00000000   Number         0  stm32l4xx_hal_rcc_ex.o ABSOLUTE
    ..\Drivers\STM32L4xx_HAL_Driver\Src\stm32l4xx_hal_sd.c 0x00000000   Number         0  stm32l4xx_hal_sd.o ABSOLUTE
    ..\Drivers\STM32L4xx_HAL_Driver\Src\stm32l4xx_hal_sd_ex.c 0x00000000   Number         0  stm32l4xx_hal_sd_ex.o ABSOLUTE
    ..\Drivers\STM32L4xx_HAL_Driver\Src\stm32l4xx_hal_spi.c 0x00000000   Number         0  stm32l4xx_hal_spi.o ABSOLUTE
    ..\Drivers\STM32L4xx_HAL_Driver\Src\stm32l4xx_hal_spi_ex.c 0x00000000   Number         0  stm32l4xx_hal_spi_ex.o ABSOLUTE
    ..\Drivers\STM32L4xx_HAL_Driver\Src\stm32l4xx_hal_tim.c 0x00000000   Number         0  stm32l4xx_hal_tim.o ABSOLUTE
    ..\Drivers\STM32L4xx_HAL_Driver\Src\stm32l4xx_hal_tim_ex.c 0x00000000   Number         0  stm32l4xx_hal_tim_ex.o ABSOLUTE
    ..\Drivers\STM32L4xx_HAL_Driver\Src\stm32l4xx_hal_uart.c 0x00000000   Number         0  stm32l4xx_hal_uart.o ABSOLUTE
    ..\Drivers\STM32L4xx_HAL_Driver\Src\stm32l4xx_hal_uart_ex.c 0x00000000   Number         0  stm32l4xx_hal_uart_ex.o ABSOLUTE
    ..\Drivers\STM32L4xx_HAL_Driver\Src\stm32l4xx_ll_sdmmc.c 0x00000000   Number         0  stm32l4xx_ll_sdmmc.o ABSOLUTE
    ..\FATFS\App\fatfs.c                     0x00000000   Number         0  fatfs.o ABSOLUTE
    ..\FATFS\Target\bsp_driver_sd.c          0x00000000   Number         0  bsp_driver_sd.o ABSOLUTE
    ..\FATFS\Target\sd_diskio.c              0x00000000   Number         0  sd_diskio.o ABSOLUTE
    ..\Hardware\LCD\lcd_st7735.c             0x00000000   Number         0  lcd_st7735.o ABSOLUTE
    ..\Middlewares\Third_Party\FatFs\src\diskio.c 0x00000000   Number         0  diskio.o ABSOLUTE
    ..\Middlewares\Third_Party\FatFs\src\ff.c 0x00000000   Number         0  ff.o ABSOLUTE
    ..\Middlewares\Third_Party\FatFs\src\ff_gen_drv.c 0x00000000   Number         0  ff_gen_drv.o ABSOLUTE
    ..\Middlewares\Third_Party\FatFs\src\option\cc936.c 0x00000000   Number         0  cc936.o ABSOLUTE
    ..\Middlewares\Third_Party\FatFs\src\option\syscall.c 0x00000000   Number         0  syscall.o ABSOLUTE
    ..\\Hardware\\LCD\\lcd_st7735.c          0x00000000   Number         0  lcd_st7735.o ABSOLUTE
    cdrcmple.s                               0x00000000   Number         0  cdrcmple.o ABSOLUTE
    dc.s                                     0x00000000   Number         0  dc.o ABSOLUTE
    handlers.s                               0x00000000   Number         0  handlers.o ABSOLUTE
    init.s                                   0x00000000   Number         0  init.o ABSOLUTE
    startup_stm32l431xx.s                    0x00000000   Number         0  startup_stm32l431xx.o ABSOLUTE
    RESET                                    0x08000000   Section      396  startup_stm32l431xx.o(RESET)
    .ARM.Collect$$$$00000000                 0x0800018c   Section        0  entry.o(.ARM.Collect$$$$00000000)
    .ARM.Collect$$$$00000001                 0x0800018c   Section        4  entry2.o(.ARM.Collect$$$$00000001)
    .ARM.Collect$$$$00000004                 0x08000190   Section        4  entry5.o(.ARM.Collect$$$$00000004)
    .ARM.Collect$$$$00000008                 0x08000194   Section        0  entry7b.o(.ARM.Collect$$$$00000008)
    .ARM.Collect$$$$0000000A                 0x08000194   Section        0  entry8b.o(.ARM.Collect$$$$0000000A)
    .ARM.Collect$$$$0000000B                 0x08000194   Section        8  entry9a.o(.ARM.Collect$$$$0000000B)
    .ARM.Collect$$$$0000000D                 0x0800019c   Section        0  entry10a.o(.ARM.Collect$$$$0000000D)
    .ARM.Collect$$$$0000000F                 0x0800019c   Section        0  entry11a.o(.ARM.Collect$$$$0000000F)
    .ARM.Collect$$$$00002712                 0x0800019c   Section        4  entry2.o(.ARM.Collect$$$$00002712)
    __lit__00000000                          0x0800019c   Data           4  entry2.o(.ARM.Collect$$$$00002712)
    .text                                    0x080001a0   Section       36  startup_stm32l431xx.o(.text)
    $v0                                      0x080001a0   Number         0  startup_stm32l431xx.o(.text)
    .text                                    0x080001c4   Section        0  uldiv.o(.text)
    .text                                    0x0800022c   Section        0  memseta.o(.text)
    .text                                    0x08000250   Section        0  llshl.o(.text)
    .text                                    0x0800026e   Section        0  llushr.o(.text)
    .text                                    0x08000290   Section       36  init.o(.text)
    .text                                    0x080002b4   Section        0  __dczerorl.o(.text)
    i.BSP_SD_AbortCallback                   0x080002ee   Section        0  bsp_driver_sd.o(i.BSP_SD_AbortCallback)
    i.BSP_SD_GetCardInfo                     0x080002f0   Section        0  bsp_driver_sd.o(i.BSP_SD_GetCardInfo)
    i.BSP_SD_GetCardState                    0x080002fc   Section        0  bsp_driver_sd.o(i.BSP_SD_GetCardState)
    i.BSP_SD_Init                            0x08000314   Section        0  bsp_driver_sd.o(i.BSP_SD_Init)
    i.BSP_SD_IsDetected                      0x08000330   Section        0  bsp_driver_sd.o(i.BSP_SD_IsDetected)
    i.BSP_SD_ReadBlocks                      0x08000340   Section        0  bsp_driver_sd.o(i.BSP_SD_ReadBlocks)
    i.BSP_SD_ReadCpltCallback                0x08000360   Section        0  bsp_driver_sd.o(i.BSP_SD_ReadCpltCallback)
    i.BSP_SD_WriteBlocks                     0x08000364   Section        0  bsp_driver_sd.o(i.BSP_SD_WriteBlocks)
    i.BSP_SD_WriteCpltCallback               0x08000384   Section        0  bsp_driver_sd.o(i.BSP_SD_WriteCpltCallback)
    i.BusFault_Handler                       0x08000386   Section        0  stm32l4xx_it.o(i.BusFault_Handler)
    i.DMA1_Channel3_IRQHandler               0x08000388   Section        0  stm32l4xx_it.o(i.DMA1_Channel3_IRQHandler)
    i.DebugMon_Handler                       0x08000394   Section        0  stm32l4xx_it.o(i.DebugMon_Handler)
    i.Error_Handler                          0x08000396   Section        0  main.o(i.Error_Handler)
    i.FATFS_LinkDriver                       0x08000398   Section        0  ff_gen_drv.o(i.FATFS_LinkDriver)
    i.FATFS_LinkDriverEx                     0x080003a0   Section        0  ff_gen_drv.o(i.FATFS_LinkDriverEx)
    i.HAL_DMA_Abort_IT                       0x080003e0   Section        0  stm32l4xx_hal_dma.o(i.HAL_DMA_Abort_IT)
    i.HAL_DMA_IRQHandler                     0x0800042e   Section        0  stm32l4xx_hal_dma.o(i.HAL_DMA_IRQHandler)
    i.HAL_DMA_Init                           0x080004e8   Section        0  stm32l4xx_hal_dma.o(i.HAL_DMA_Init)
    i.HAL_Delay                              0x080005a8   Section        0  stm32l4xx_hal.o(i.HAL_Delay)
    i.HAL_GPIO_Init                          0x080005cc   Section        0  stm32l4xx_hal_gpio.o(i.HAL_GPIO_Init)
    i.HAL_GPIO_WritePin                      0x0800078a   Section        0  stm32l4xx_hal_gpio.o(i.HAL_GPIO_WritePin)
    i.HAL_GetTick                            0x08000794   Section        0  stm32l4xx_hal.o(i.HAL_GetTick)
    i.HAL_IncTick                            0x080007a0   Section        0  stm32l4xx_hal.o(i.HAL_IncTick)
    i.HAL_Init                               0x080007b0   Section        0  stm32l4xx_hal.o(i.HAL_Init)
    i.HAL_InitTick                           0x080007d0   Section        0  stm32l4xx_hal.o(i.HAL_InitTick)
    i.HAL_MspInit                            0x08000814   Section        0  stm32l4xx_hal_msp.o(i.HAL_MspInit)
    i.HAL_NVIC_EnableIRQ                     0x08000840   Section        0  stm32l4xx_hal_cortex.o(i.HAL_NVIC_EnableIRQ)
    i.HAL_NVIC_SetPriority                   0x0800085c   Section        0  stm32l4xx_hal_cortex.o(i.HAL_NVIC_SetPriority)
    i.HAL_NVIC_SetPriorityGrouping           0x0800089c   Section        0  stm32l4xx_hal_cortex.o(i.HAL_NVIC_SetPriorityGrouping)
    i.HAL_PWREx_ControlVoltageScaling        0x080008c0   Section        0  stm32l4xx_hal_pwr_ex.o(i.HAL_PWREx_ControlVoltageScaling)
    i.HAL_PWREx_GetVoltageRange              0x08000928   Section        0  stm32l4xx_hal_pwr_ex.o(i.HAL_PWREx_GetVoltageRange)
    i.HAL_RCCEx_GetPeriphCLKFreq             0x08000938   Section        0  stm32l4xx_hal_rcc_ex.o(i.HAL_RCCEx_GetPeriphCLKFreq)
    i.HAL_RCCEx_PeriphCLKConfig              0x08000c94   Section        0  stm32l4xx_hal_rcc_ex.o(i.HAL_RCCEx_PeriphCLKConfig)
    i.HAL_RCC_ClockConfig                    0x08000f50   Section        0  stm32l4xx_hal_rcc.o(i.HAL_RCC_ClockConfig)
    i.HAL_RCC_GetPCLK1Freq                   0x08001070   Section        0  stm32l4xx_hal_rcc.o(i.HAL_RCC_GetPCLK1Freq)
    i.HAL_RCC_GetPCLK2Freq                   0x08001094   Section        0  stm32l4xx_hal_rcc.o(i.HAL_RCC_GetPCLK2Freq)
    i.HAL_RCC_GetSysClockFreq                0x080010b8   Section        0  stm32l4xx_hal_rcc.o(i.HAL_RCC_GetSysClockFreq)
    i.HAL_RCC_OscConfig                      0x0800115c   Section        0  stm32l4xx_hal_rcc.o(i.HAL_RCC_OscConfig)
    i.HAL_SD_AbortCallback                   0x080016c8   Section        0  bsp_driver_sd.o(i.HAL_SD_AbortCallback)
    i.HAL_SD_ErrorCallback                   0x080016d0   Section        0  stm32l4xx_hal_sd.o(i.HAL_SD_ErrorCallback)
    i.HAL_SD_GetCardCSD                      0x080016d4   Section        0  stm32l4xx_hal_sd.o(i.HAL_SD_GetCardCSD)
    i.HAL_SD_GetCardInfo                     0x0800186c   Section        0  stm32l4xx_hal_sd.o(i.HAL_SD_GetCardInfo)
    i.HAL_SD_GetCardState                    0x08001890   Section        0  stm32l4xx_hal_sd.o(i.HAL_SD_GetCardState)
    i.HAL_SD_IRQHandler                      0x080018bc   Section        0  stm32l4xx_hal_sd.o(i.HAL_SD_IRQHandler)
    i.HAL_SD_Init                            0x08001ab4   Section        0  stm32l4xx_hal_sd.o(i.HAL_SD_Init)
    i.HAL_SD_InitCard                        0x08001aec   Section        0  stm32l4xx_hal_sd.o(i.HAL_SD_InitCard)
    i.HAL_SD_MspInit                         0x08001bb8   Section        0  sdmmc.o(i.HAL_SD_MspInit)
    i.HAL_SD_ReadBlocks                      0x08001c4c   Section        0  stm32l4xx_hal_sd.o(i.HAL_SD_ReadBlocks)
    i.HAL_SD_RxCpltCallback                  0x08001e2a   Section        0  bsp_driver_sd.o(i.HAL_SD_RxCpltCallback)
    i.HAL_SD_TxCpltCallback                  0x08001e32   Section        0  bsp_driver_sd.o(i.HAL_SD_TxCpltCallback)
    i.HAL_SD_WriteBlocks                     0x08001e3c   Section        0  stm32l4xx_hal_sd.o(i.HAL_SD_WriteBlocks)
    i.HAL_SPI_Init                           0x08001fee   Section        0  stm32l4xx_hal_spi.o(i.HAL_SPI_Init)
    i.HAL_SPI_MspInit                        0x080020d0   Section        0  spi.o(i.HAL_SPI_MspInit)
    i.HAL_SPI_Transmit                       0x0800216c   Section        0  stm32l4xx_hal_spi.o(i.HAL_SPI_Transmit)
    i.HAL_SYSTICK_Config                     0x080022fa   Section        0  stm32l4xx_hal_cortex.o(i.HAL_SYSTICK_Config)
    i.HAL_UART_Init                          0x08002322   Section        0  stm32l4xx_hal_uart.o(i.HAL_UART_Init)
    i.HAL_UART_MspInit                       0x08002388   Section        0  usart.o(i.HAL_UART_MspInit)
    i.HAL_UART_Transmit                      0x080023ec   Section        0  stm32l4xx_hal_uart.o(i.HAL_UART_Transmit)
    i.HardFault_Handler                      0x080024a2   Section        0  stm32l4xx_it.o(i.HardFault_Handler)
    i.LCD_Init                               0x080024a4   Section        0  lcd_st7735.o(i.LCD_Init)
    i.LCD_InitReg                            0x08002500   Section        0  lcd_st7735.o(i.LCD_InitReg)
    LCD_InitReg                              0x08002501   Thumb Code   450  lcd_st7735.o(i.LCD_InitReg)
    i.LCD_SetGramScanWay                     0x080026c4   Section        0  lcd_st7735.o(i.LCD_SetGramScanWay)
    i.LCD_SetWindows                         0x0800271c   Section        0  lcd_st7735.o(i.LCD_SetWindows)
    i.LCD_WriteData_8Bit                     0x0800278c   Section        0  lcd_st7735.o(i.LCD_WriteData_8Bit)
    LCD_WriteData_8Bit                       0x0800278d   Thumb Code    50  lcd_st7735.o(i.LCD_WriteData_8Bit)
    i.LCD_WriteReg                           0x080027c4   Section        0  lcd_st7735.o(i.LCD_WriteReg)
    LCD_WriteReg                             0x080027c5   Thumb Code    50  lcd_st7735.o(i.LCD_WriteReg)
    i.MX_DMA_Init                            0x080027fc   Section        0  dma.o(i.MX_DMA_Init)
    i.MX_FATFS_Init                          0x08002828   Section        0  fatfs.o(i.MX_FATFS_Init)
    i.MX_GPIO_Init                           0x08002844   Section        0  gpio.o(i.MX_GPIO_Init)
    i.MX_SDMMC1_SD_Init                      0x08002900   Section        0  sdmmc.o(i.MX_SDMMC1_SD_Init)
    i.MX_SPI1_Init                           0x08002920   Section        0  spi.o(i.MX_SPI1_Init)
    i.MX_USART1_UART_Init                    0x08002970   Section        0  usart.o(i.MX_USART1_UART_Init)
    i.MemManage_Handler                      0x080029ac   Section        0  stm32l4xx_it.o(i.MemManage_Handler)
    i.Mount_SD                               0x080029b0   Section        0  main.o(i.Mount_SD)
    i.NMI_Handler                            0x080029d8   Section        0  stm32l4xx_it.o(i.NMI_Handler)
    i.PendSV_Handler                         0x080029da   Section        0  stm32l4xx_it.o(i.PendSV_Handler)
    i.RCCEx_GetSAIxPeriphCLKFreq             0x080029dc   Section        0  stm32l4xx_hal_rcc_ex.o(i.RCCEx_GetSAIxPeriphCLKFreq)
    RCCEx_GetSAIxPeriphCLKFreq               0x080029dd   Thumb Code   154  stm32l4xx_hal_rcc_ex.o(i.RCCEx_GetSAIxPeriphCLKFreq)
    i.RCCEx_PLLSAI1_Config                   0x08002a84   Section        0  stm32l4xx_hal_rcc_ex.o(i.RCCEx_PLLSAI1_Config)
    RCCEx_PLLSAI1_Config                     0x08002a85   Thumb Code   278  stm32l4xx_hal_rcc_ex.o(i.RCCEx_PLLSAI1_Config)
    i.RCC_SetFlashLatencyFromMSIRange        0x08002bb0   Section        0  stm32l4xx_hal_rcc.o(i.RCC_SetFlashLatencyFromMSIRange)
    RCC_SetFlashLatencyFromMSIRange          0x08002bb1   Thumb Code   116  stm32l4xx_hal_rcc.o(i.RCC_SetFlashLatencyFromMSIRange)
    i.SDMMC1_IRQHandler                      0x08002c2c   Section        0  stm32l4xx_it.o(i.SDMMC1_IRQHandler)
    i.SDMMC_CmdAppCommand                    0x08002c38   Section        0  stm32l4xx_ll_sdmmc.o(i.SDMMC_CmdAppCommand)
    i.SDMMC_CmdAppOperCommand                0x08002c6c   Section        0  stm32l4xx_ll_sdmmc.o(i.SDMMC_CmdAppOperCommand)
    i.SDMMC_CmdBlockLength                   0x08002ca0   Section        0  stm32l4xx_ll_sdmmc.o(i.SDMMC_CmdBlockLength)
    i.SDMMC_CmdGoIdleState                   0x08002cd4   Section        0  stm32l4xx_ll_sdmmc.o(i.SDMMC_CmdGoIdleState)
    i.SDMMC_CmdOperCond                      0x08002d24   Section        0  stm32l4xx_ll_sdmmc.o(i.SDMMC_CmdOperCond)
    i.SDMMC_CmdReadMultiBlock                0x08002d54   Section        0  stm32l4xx_ll_sdmmc.o(i.SDMMC_CmdReadMultiBlock)
    i.SDMMC_CmdReadSingleBlock               0x08002d86   Section        0  stm32l4xx_ll_sdmmc.o(i.SDMMC_CmdReadSingleBlock)
    i.SDMMC_CmdSelDesel                      0x08002db8   Section        0  stm32l4xx_ll_sdmmc.o(i.SDMMC_CmdSelDesel)
    i.SDMMC_CmdSendCID                       0x08002dea   Section        0  stm32l4xx_ll_sdmmc.o(i.SDMMC_CmdSendCID)
    i.SDMMC_CmdSendCSD                       0x08002e16   Section        0  stm32l4xx_ll_sdmmc.o(i.SDMMC_CmdSendCSD)
    i.SDMMC_CmdSendStatus                    0x08002e42   Section        0  stm32l4xx_ll_sdmmc.o(i.SDMMC_CmdSendStatus)
    i.SDMMC_CmdSetRelAdd                     0x08002e74   Section        0  stm32l4xx_ll_sdmmc.o(i.SDMMC_CmdSetRelAdd)
    i.SDMMC_CmdStopTransfer                  0x08002ea4   Section        0  stm32l4xx_ll_sdmmc.o(i.SDMMC_CmdStopTransfer)
    i.SDMMC_CmdWriteMultiBlock               0x08002ed8   Section        0  stm32l4xx_ll_sdmmc.o(i.SDMMC_CmdWriteMultiBlock)
    i.SDMMC_CmdWriteSingleBlock              0x08002f0a   Section        0  stm32l4xx_ll_sdmmc.o(i.SDMMC_CmdWriteSingleBlock)
    i.SDMMC_ConfigData                       0x08002f3c   Section        0  stm32l4xx_ll_sdmmc.o(i.SDMMC_ConfigData)
    i.SDMMC_GetCmdResp1                      0x08002f60   Section        0  stm32l4xx_ll_sdmmc.o(i.SDMMC_GetCmdResp1)
    i.SDMMC_GetCmdResp2                      0x08003080   Section        0  stm32l4xx_ll_sdmmc.o(i.SDMMC_GetCmdResp2)
    i.SDMMC_GetCmdResp3                      0x080030d0   Section        0  stm32l4xx_ll_sdmmc.o(i.SDMMC_GetCmdResp3)
    i.SDMMC_GetCmdResp6                      0x08003114   Section        0  stm32l4xx_ll_sdmmc.o(i.SDMMC_GetCmdResp6)
    i.SDMMC_GetCmdResp7                      0x0800319c   Section        0  stm32l4xx_ll_sdmmc.o(i.SDMMC_GetCmdResp7)
    i.SDMMC_GetPowerState                    0x080031f4   Section        0  stm32l4xx_ll_sdmmc.o(i.SDMMC_GetPowerState)
    i.SDMMC_GetResponse                      0x080031fc   Section        0  stm32l4xx_ll_sdmmc.o(i.SDMMC_GetResponse)
    i.SDMMC_Init                             0x08003202   Section        0  stm32l4xx_ll_sdmmc.o(i.SDMMC_Init)
    i.SDMMC_PowerState_ON                    0x08003224   Section        0  stm32l4xx_ll_sdmmc.o(i.SDMMC_PowerState_ON)
    i.SDMMC_ReadFIFO                         0x08003234   Section        0  stm32l4xx_ll_sdmmc.o(i.SDMMC_ReadFIFO)
    i.SDMMC_SendCommand                      0x0800323a   Section        0  stm32l4xx_ll_sdmmc.o(i.SDMMC_SendCommand)
    i.SDMMC_WriteFIFO                        0x0800325a   Section        0  stm32l4xx_ll_sdmmc.o(i.SDMMC_WriteFIFO)
    i.SD_CheckStatus                         0x08003264   Section        0  sd_diskio.o(i.SD_CheckStatus)
    SD_CheckStatus                           0x08003265   Thumb Code    26  sd_diskio.o(i.SD_CheckStatus)
    i.SD_DMARxAbort                          0x08003284   Section        0  stm32l4xx_hal_sd.o(i.SD_DMARxAbort)
    SD_DMARxAbort                            0x08003285   Thumb Code    68  stm32l4xx_hal_sd.o(i.SD_DMARxAbort)
    i.SD_DMATxAbort                          0x080032c8   Section        0  stm32l4xx_hal_sd.o(i.SD_DMATxAbort)
    SD_DMATxAbort                            0x080032c9   Thumb Code    68  stm32l4xx_hal_sd.o(i.SD_DMATxAbort)
    i.SD_InitCard                            0x0800330c   Section        0  stm32l4xx_hal_sd.o(i.SD_InitCard)
    SD_InitCard                              0x0800330d   Thumb Code   238  stm32l4xx_hal_sd.o(i.SD_InitCard)
    i.SD_PowerON                             0x080033fc   Section        0  stm32l4xx_hal_sd.o(i.SD_PowerON)
    SD_PowerON                               0x080033fd   Thumb Code   174  stm32l4xx_hal_sd.o(i.SD_PowerON)
    i.SD_initialize                          0x080034b8   Section        0  sd_diskio.o(i.SD_initialize)
    i.SD_ioctl                               0x080034d8   Section        0  sd_diskio.o(i.SD_ioctl)
    i.SD_read                                0x08003528   Section        0  sd_diskio.o(i.SD_read)
    i.SD_status                              0x0800354e   Section        0  sd_diskio.o(i.SD_status)
    i.SD_write                               0x08003554   Section        0  sd_diskio.o(i.SD_write)
    i.SPI_EndRxTxTransaction                 0x0800357a   Section        0  stm32l4xx_hal_spi.o(i.SPI_EndRxTxTransaction)
    SPI_EndRxTxTransaction                   0x0800357b   Thumb Code    72  stm32l4xx_hal_spi.o(i.SPI_EndRxTxTransaction)
    i.SPI_WaitFifoStateUntilTimeout          0x080035c4   Section        0  stm32l4xx_hal_spi.o(i.SPI_WaitFifoStateUntilTimeout)
    SPI_WaitFifoStateUntilTimeout            0x080035c5   Thumb Code   196  stm32l4xx_hal_spi.o(i.SPI_WaitFifoStateUntilTimeout)
    i.SPI_WaitFlagStateUntilTimeout          0x08003694   Section        0  stm32l4xx_hal_spi.o(i.SPI_WaitFlagStateUntilTimeout)
    SPI_WaitFlagStateUntilTimeout            0x08003695   Thumb Code   180  stm32l4xx_hal_spi.o(i.SPI_WaitFlagStateUntilTimeout)
    i.SPI_Write_Byte                         0x0800374c   Section        0  lcd_st7735.o(i.SPI_Write_Byte)
    i.ST7735_DrawImage                       0x08003784   Section        0  lcd_st7735.o(i.ST7735_DrawImage)
    i.ST7735_WriteData                       0x080037a8   Section        0  lcd_st7735.o(i.ST7735_WriteData)
    i.SVC_Handler                            0x080037f0   Section        0  stm32l4xx_it.o(i.SVC_Handler)
    i.SysTick_Handler                        0x080037f2   Section        0  stm32l4xx_it.o(i.SysTick_Handler)
    i.SystemClock_Config                     0x080037f8   Section        0  main.o(i.SystemClock_Config)
    i.SystemInit                             0x08003884   Section        0  system_stm32l4xx.o(i.SystemInit)
    i.UART_AdvFeatureConfig                  0x080038c8   Section        0  stm32l4xx_hal_uart.o(i.UART_AdvFeatureConfig)
    i.UART_CheckIdleState                    0x08003990   Section        0  stm32l4xx_hal_uart.o(i.UART_CheckIdleState)
    i.UART_SetConfig                         0x080039e8   Section        0  stm32l4xx_hal_uart.o(i.UART_SetConfig)
    i.UART_WaitOnFlagUntilTimeout            0x08003bec   Section        0  stm32l4xx_hal_uart.o(i.UART_WaitOnFlagUntilTimeout)
    i.UsageFault_Handler                     0x08003c90   Section        0  stm32l4xx_it.o(i.UsageFault_Handler)
    i.__0printf$bare                         0x08003c94   Section        0  printfb.o(i.__0printf$bare)
    i.__NVIC_SetPriority                     0x08003ca4   Section        0  stm32l4xx_hal_cortex.o(i.__NVIC_SetPriority)
    __NVIC_SetPriority                       0x08003ca5   Thumb Code    32  stm32l4xx_hal_cortex.o(i.__NVIC_SetPriority)
    i.__scatterload_copy                     0x08003cc4   Section       14  handlers.o(i.__scatterload_copy)
    i.__scatterload_null                     0x08003cd2   Section        2  handlers.o(i.__scatterload_null)
    i.__scatterload_zeroinit                 0x08003cd4   Section       14  handlers.o(i.__scatterload_zeroinit)
    i._printf_core                           0x08003ce2   Section        0  printfb.o(i._printf_core)
    _printf_core                             0x08003ce3   Thumb Code    34  printfb.o(i._printf_core)
    i.check_fs                               0x08003d04   Section        0  ff.o(i.check_fs)
    check_fs                                 0x08003d05   Thumb Code   102  ff.o(i.check_fs)
    i.chk_chr                                0x08003d74   Section        0  ff.o(i.chk_chr)
    chk_chr                                  0x08003d75   Thumb Code    16  ff.o(i.chk_chr)
    i.chk_lock                               0x08003d84   Section        0  ff.o(i.chk_lock)
    chk_lock                                 0x08003d85   Thumb Code    86  ff.o(i.chk_lock)
    i.clear_lock                             0x08003de0   Section        0  ff.o(i.clear_lock)
    clear_lock                               0x08003de1   Thumb Code    28  ff.o(i.clear_lock)
    i.clmt_clust                             0x08003e00   Section        0  ff.o(i.clmt_clust)
    clmt_clust                               0x08003e01   Thumb Code    36  ff.o(i.clmt_clust)
    i.clust2sect                             0x08003e24   Section        0  ff.o(i.clust2sect)
    clust2sect                               0x08003e25   Thumb Code    24  ff.o(i.clust2sect)
    i.cmp_lfn                                0x08003e3c   Section        0  ff.o(i.cmp_lfn)
    cmp_lfn                                  0x08003e3d   Thumb Code   124  ff.o(i.cmp_lfn)
    i.create_chain                           0x08003ec2   Section        0  ff.o(i.create_chain)
    create_chain                             0x08003ec3   Thumb Code   164  ff.o(i.create_chain)
    i.create_name                            0x08003f68   Section        0  ff.o(i.create_name)
    create_name                              0x08003f69   Thumb Code   560  ff.o(i.create_name)
    i.dec_lock                               0x080041b4   Section        0  ff.o(i.dec_lock)
    dec_lock                                 0x080041b5   Thumb Code    48  ff.o(i.dec_lock)
    i.dir_find                               0x080041e8   Section        0  ff.o(i.dir_find)
    dir_find                                 0x080041e9   Thumb Code   208  ff.o(i.dir_find)
    i.dir_next                               0x080042b8   Section        0  ff.o(i.dir_next)
    dir_next                                 0x080042b9   Thumb Code   244  ff.o(i.dir_next)
    i.dir_register                           0x080043ac   Section        0  ff.o(i.dir_register)
    dir_register                             0x080043ad   Thumb Code   480  ff.o(i.dir_register)
    i.dir_sdi                                0x08004596   Section        0  ff.o(i.dir_sdi)
    dir_sdi                                  0x08004597   Thumb Code   130  ff.o(i.dir_sdi)
    i.disk_initialize                        0x08004618   Section        0  diskio.o(i.disk_initialize)
    i.disk_ioctl                             0x08004640   Section        0  diskio.o(i.disk_ioctl)
    i.disk_read                              0x0800465c   Section        0  diskio.o(i.disk_read)
    i.disk_status                            0x08004678   Section        0  diskio.o(i.disk_status)
    i.disk_write                             0x08004690   Section        0  diskio.o(i.disk_write)
    i.f_close                                0x080046ac   Section        0  ff.o(i.f_close)
    i.f_lseek                                0x080046d4   Section        0  ff.o(i.f_lseek)
    i.f_mount                                0x080048ec   Section        0  ff.o(i.f_mount)
    i.f_open                                 0x08004944   Section        0  ff.o(i.f_open)
    i.f_read                                 0x08004b58   Section        0  ff.o(i.f_read)
    i.f_sync                                 0x08004cb0   Section        0  ff.o(i.f_sync)
    i.ff_convert                             0x08004d3e   Section        0  cc936.o(i.ff_convert)
    i.ff_wtoupper                            0x08004d40   Section        0  cc936.o(i.ff_wtoupper)
    i.find_volume                            0x08004dc0   Section        0  ff.o(i.find_volume)
    find_volume                              0x08004dc1   Thumb Code   582  ff.o(i.find_volume)
    i.follow_path                            0x08005014   Section        0  ff.o(i.follow_path)
    follow_path                              0x08005015   Thumb Code   116  ff.o(i.follow_path)
    i.fputc                                  0x08005088   Section        0  usart.o(i.fputc)
    i.gen_numname                            0x080050a0   Section        0  ff.o(i.gen_numname)
    gen_numname                              0x080050a1   Thumb Code   136  ff.o(i.gen_numname)
    i.get_fat                                0x0800512c   Section        0  ff.o(i.get_fat)
    get_fat                                  0x0800512d   Thumb Code   190  ff.o(i.get_fat)
    i.get_fattime                            0x080051ea   Section        0  fatfs.o(i.get_fattime)
    i.get_ldnumber                           0x080051ee   Section        0  ff.o(i.get_ldnumber)
    get_ldnumber                             0x080051ef   Thumb Code    60  ff.o(i.get_ldnumber)
    i.inc_lock                               0x0800522c   Section        0  ff.o(i.inc_lock)
    inc_lock                                 0x0800522d   Thumb Code   124  ff.o(i.inc_lock)
    i.ld_clust                               0x080052ac   Section        0  ff.o(i.ld_clust)
    ld_clust                                 0x080052ad   Thumb Code    38  ff.o(i.ld_clust)
    i.ld_dword                               0x080052d2   Section        0  ff.o(i.ld_dword)
    ld_dword                                 0x080052d3   Thumb Code    22  ff.o(i.ld_dword)
    i.ld_word                                0x080052e8   Section        0  ff.o(i.ld_word)
    ld_word                                  0x080052e9   Thumb Code    10  ff.o(i.ld_word)
    i.main                                   0x080052f4   Section        0  main.o(i.main)
    i.mem_cpy                                0x080053b8   Section        0  ff.o(i.mem_cpy)
    mem_cpy                                  0x080053b9   Thumb Code    18  ff.o(i.mem_cpy)
    i.mem_set                                0x080053cc   Section        0  ff.o(i.mem_set)
    mem_set                                  0x080053cd   Thumb Code    14  ff.o(i.mem_set)
    i.move_window                            0x080053da   Section        0  ff.o(i.move_window)
    move_window                              0x080053db   Thumb Code    50  ff.o(i.move_window)
    i.put_fat                                0x0800540c   Section        0  ff.o(i.put_fat)
    put_fat                                  0x0800540d   Thumb Code   234  ff.o(i.put_fat)
    i.remove_chain                           0x080054f6   Section        0  ff.o(i.remove_chain)
    remove_chain                             0x080054f7   Thumb Code   116  ff.o(i.remove_chain)
    i.sd_show_picture_bin                    0x0800556c   Section        0  main.o(i.sd_show_picture_bin)
    i.st_clust                               0x080055f0   Section        0  ff.o(i.st_clust)
    st_clust                                 0x080055f1   Thumb Code    40  ff.o(i.st_clust)
    i.st_dword                               0x08005618   Section        0  ff.o(i.st_dword)
    st_dword                                 0x08005619   Thumb Code    16  ff.o(i.st_dword)
    i.st_word                                0x08005628   Section        0  ff.o(i.st_word)
    st_word                                  0x08005629   Thumb Code     8  ff.o(i.st_word)
    i.sum_sfn                                0x08005630   Section        0  ff.o(i.sum_sfn)
    sum_sfn                                  0x08005631   Thumb Code    26  ff.o(i.sum_sfn)
    i.sync_fs                                0x0800564c   Section        0  ff.o(i.sync_fs)
    sync_fs                                  0x0800564d   Thumb Code   126  ff.o(i.sync_fs)
    i.sync_window                            0x080056d4   Section        0  ff.o(i.sync_window)
    sync_window                              0x080056d5   Thumb Code    82  ff.o(i.sync_window)
    i.validate                               0x08005726   Section        0  ff.o(i.validate)
    validate                                 0x08005727   Thumb Code    52  ff.o(i.validate)
    .constdata                               0x0800575c   Section       64  system_stm32l4xx.o(.constdata)
    .constdata                               0x0800579c   Section        8  system_stm32l4xx.o(.constdata)
    .constdata                               0x080057a4   Section       20  sd_diskio.o(.constdata)
    .constdata                               0x080057b8   Section       42  ff.o(.constdata)
    LfnOfs                                   0x080057b8   Data          13  ff.o(.constdata)
    cst                                      0x080057c6   Data          14  ff.o(.constdata)
    cst32                                    0x080057d4   Data          14  ff.o(.constdata)
    .constdata                               0x080057e2   Section      686  cc936.o(.constdata)
    cvt1                                     0x080057e2   Data         498  cc936.o(.constdata)
    cvt2                                     0x080059d4   Data         188  cc936.o(.constdata)
    .data                                    0x20000000   Section    32768  main.o(.data)
    .data                                    0x20008000   Section       12  stm32l4xx_hal.o(.data)
    .data                                    0x2000800c   Section        4  system_stm32l4xx.o(.data)
    .data                                    0x20008010   Section        1  sd_diskio.o(.data)
    Stat                                     0x20008010   Data           1  sd_diskio.o(.data)
    .data                                    0x20008011   Section        5  fatfs.o(.data)
    .data                                    0x20008018   Section        8  ff.o(.data)
    Fsid                                     0x20008018   Data           2  ff.o(.data)
    FatFs                                    0x2000801c   Data           4  ff.o(.data)
    .data                                    0x20008020   Section        4  stdout.o(.data)
    .bss                                     0x20008024   Section      132  sdmmc.o(.bss)
    .bss                                     0x200080a8   Section      172  spi.o(.bss)
    .bss                                     0x20008154   Section      128  usart.o(.bss)
    .bss                                     0x200081d4   Section       10  lcd_st7735.o(.bss)
    .bss                                     0x200081e0   Section      564  fatfs.o(.bss)
    .bss                                     0x20008414   Section       32  ff.o(.bss)
    Files                                    0x20008414   Data          32  ff.o(.bss)
    .bss                                     0x20008434   Section       12  ff_gen_drv.o(.bss)
    STACK                                    0x20008440   Section     4608  startup_stm32l431xx.o(STACK)

    Global Symbols

    Symbol Name                              Value     Ov Type        Size  Object(Section)

    BuildAttributes$$THM_ISAv4$E$P$D$K$B$S$7EM$VFPi3$EXTD16$VFPS$VFMA$PE$A:L22UL41UL21$X:L11$S22US41US21$IEEE1$IW$USESV6$~STKCKD$USESV7$~SHL$OSPACE$ROPI$EBA8$MICROLIB$REQ8$PRES8$EABIv2 0x00000000   Number         0  anon$$obj.o ABSOLUTE
    __ARM_use_no_argv                        0x00000000   Number         0  main.o ABSOLUTE
    __cpp_initialize__aeabi_                  - Undefined Weak Reference
    __cxa_finalize                            - Undefined Weak Reference
    _clock_init                               - Undefined Weak Reference
    _microlib_exit                            - Undefined Weak Reference
    __Vectors_Size                           0x0000018c   Number         0  startup_stm32l431xx.o ABSOLUTE
    __Vectors                                0x08000000   Data           4  startup_stm32l431xx.o(RESET)
    __Vectors_End                            0x0800018c   Data           0  startup_stm32l431xx.o(RESET)
    __main                                   0x0800018d   Thumb Code     0  entry.o(.ARM.Collect$$$$00000000)
    _main_stk                                0x0800018d   Thumb Code     0  entry2.o(.ARM.Collect$$$$00000001)
    _main_scatterload                        0x08000191   Thumb Code     0  entry5.o(.ARM.Collect$$$$00000004)
    __main_after_scatterload                 0x08000195   Thumb Code     0  entry5.o(.ARM.Collect$$$$00000004)
    _main_clock                              0x08000195   Thumb Code     0  entry7b.o(.ARM.Collect$$$$00000008)
    _main_cpp_init                           0x08000195   Thumb Code     0  entry8b.o(.ARM.Collect$$$$0000000A)
    _main_init                               0x08000195   Thumb Code     0  entry9a.o(.ARM.Collect$$$$0000000B)
    __rt_final_cpp                           0x0800019d   Thumb Code     0  entry10a.o(.ARM.Collect$$$$0000000D)
    __rt_final_exit                          0x0800019d   Thumb Code     0  entry11a.o(.ARM.Collect$$$$0000000F)
    Reset_Handler                            0x080001a1   Thumb Code     8  startup_stm32l431xx.o(.text)
    ADC1_IRQHandler                          0x080001bb   Thumb Code     0  startup_stm32l431xx.o(.text)
    CAN1_RX0_IRQHandler                      0x080001bb   Thumb Code     0  startup_stm32l431xx.o(.text)
    CAN1_RX1_IRQHandler                      0x080001bb   Thumb Code     0  startup_stm32l431xx.o(.text)
    CAN1_SCE_IRQHandler                      0x080001bb   Thumb Code     0  startup_stm32l431xx.o(.text)
    CAN1_TX_IRQHandler                       0x080001bb   Thumb Code     0  startup_stm32l431xx.o(.text)
    COMP_IRQHandler                          0x080001bb   Thumb Code     0  startup_stm32l431xx.o(.text)
    CRS_IRQHandler                           0x080001bb   Thumb Code     0  startup_stm32l431xx.o(.text)
    DMA1_Channel1_IRQHandler                 0x080001bb   Thumb Code     0  startup_stm32l431xx.o(.text)
    DMA1_Channel2_IRQHandler                 0x080001bb   Thumb Code     0  startup_stm32l431xx.o(.text)
    DMA1_Channel4_IRQHandler                 0x080001bb   Thumb Code     0  startup_stm32l431xx.o(.text)
    DMA1_Channel5_IRQHandler                 0x080001bb   Thumb Code     0  startup_stm32l431xx.o(.text)
    DMA1_Channel6_IRQHandler                 0x080001bb   Thumb Code     0  startup_stm32l431xx.o(.text)
    DMA1_Channel7_IRQHandler                 0x080001bb   Thumb Code     0  startup_stm32l431xx.o(.text)
    DMA2_Channel1_IRQHandler                 0x080001bb   Thumb Code     0  startup_stm32l431xx.o(.text)
    DMA2_Channel2_IRQHandler                 0x080001bb   Thumb Code     0  startup_stm32l431xx.o(.text)
    DMA2_Channel3_IRQHandler                 0x080001bb   Thumb Code     0  startup_stm32l431xx.o(.text)
    DMA2_Channel4_IRQHandler                 0x080001bb   Thumb Code     0  startup_stm32l431xx.o(.text)
    DMA2_Channel5_IRQHandler                 0x080001bb   Thumb Code     0  startup_stm32l431xx.o(.text)
    DMA2_Channel6_IRQHandler                 0x080001bb   Thumb Code     0  startup_stm32l431xx.o(.text)
    DMA2_Channel7_IRQHandler                 0x080001bb   Thumb Code     0  startup_stm32l431xx.o(.text)
    EXTI0_IRQHandler                         0x080001bb   Thumb Code     0  startup_stm32l431xx.o(.text)
    EXTI15_10_IRQHandler                     0x080001bb   Thumb Code     0  startup_stm32l431xx.o(.text)
    EXTI1_IRQHandler                         0x080001bb   Thumb Code     0  startup_stm32l431xx.o(.text)
    EXTI2_IRQHandler                         0x080001bb   Thumb Code     0  startup_stm32l431xx.o(.text)
    EXTI3_IRQHandler                         0x080001bb   Thumb Code     0  startup_stm32l431xx.o(.text)
    EXTI4_IRQHandler                         0x080001bb   Thumb Code     0  startup_stm32l431xx.o(.text)
    EXTI9_5_IRQHandler                       0x080001bb   Thumb Code     0  startup_stm32l431xx.o(.text)
    FLASH_IRQHandler                         0x080001bb   Thumb Code     0  startup_stm32l431xx.o(.text)
    FPU_IRQHandler                           0x080001bb   Thumb Code     0  startup_stm32l431xx.o(.text)
    I2C1_ER_IRQHandler                       0x080001bb   Thumb Code     0  startup_stm32l431xx.o(.text)
    I2C1_EV_IRQHandler                       0x080001bb   Thumb Code     0  startup_stm32l431xx.o(.text)
    I2C2_ER_IRQHandler                       0x080001bb   Thumb Code     0  startup_stm32l431xx.o(.text)
    I2C2_EV_IRQHandler                       0x080001bb   Thumb Code     0  startup_stm32l431xx.o(.text)
    I2C3_ER_IRQHandler                       0x080001bb   Thumb Code     0  startup_stm32l431xx.o(.text)
    I2C3_EV_IRQHandler                       0x080001bb   Thumb Code     0  startup_stm32l431xx.o(.text)
    LPTIM1_IRQHandler                        0x080001bb   Thumb Code     0  startup_stm32l431xx.o(.text)
    LPTIM2_IRQHandler                        0x080001bb   Thumb Code     0  startup_stm32l431xx.o(.text)
    LPUART1_IRQHandler                       0x080001bb   Thumb Code     0  startup_stm32l431xx.o(.text)
    PVD_PVM_IRQHandler                       0x080001bb   Thumb Code     0  startup_stm32l431xx.o(.text)
    QUADSPI_IRQHandler                       0x080001bb   Thumb Code     0  startup_stm32l431xx.o(.text)
    RCC_IRQHandler                           0x080001bb   Thumb Code     0  startup_stm32l431xx.o(.text)
    RNG_IRQHandler                           0x080001bb   Thumb Code     0  startup_stm32l431xx.o(.text)
    RTC_Alarm_IRQHandler                     0x080001bb   Thumb Code     0  startup_stm32l431xx.o(.text)
    RTC_WKUP_IRQHandler                      0x080001bb   Thumb Code     0  startup_stm32l431xx.o(.text)
    SAI1_IRQHandler                          0x080001bb   Thumb Code     0  startup_stm32l431xx.o(.text)
    SPI1_IRQHandler                          0x080001bb   Thumb Code     0  startup_stm32l431xx.o(.text)
    SPI2_IRQHandler                          0x080001bb   Thumb Code     0  startup_stm32l431xx.o(.text)
    SPI3_IRQHandler                          0x080001bb   Thumb Code     0  startup_stm32l431xx.o(.text)
    SWPMI1_IRQHandler                        0x080001bb   Thumb Code     0  startup_stm32l431xx.o(.text)
    TAMP_STAMP_IRQHandler                    0x080001bb   Thumb Code     0  startup_stm32l431xx.o(.text)
    TIM1_BRK_TIM15_IRQHandler                0x080001bb   Thumb Code     0  startup_stm32l431xx.o(.text)
    TIM1_CC_IRQHandler                       0x080001bb   Thumb Code     0  startup_stm32l431xx.o(.text)
    TIM1_TRG_COM_IRQHandler                  0x080001bb   Thumb Code     0  startup_stm32l431xx.o(.text)
    TIM1_UP_TIM16_IRQHandler                 0x080001bb   Thumb Code     0  startup_stm32l431xx.o(.text)
    TIM2_IRQHandler                          0x080001bb   Thumb Code     0  startup_stm32l431xx.o(.text)
    TIM6_DAC_IRQHandler                      0x080001bb   Thumb Code     0  startup_stm32l431xx.o(.text)
    TIM7_IRQHandler                          0x080001bb   Thumb Code     0  startup_stm32l431xx.o(.text)
    TSC_IRQHandler                           0x080001bb   Thumb Code     0  startup_stm32l431xx.o(.text)
    USART1_IRQHandler                        0x080001bb   Thumb Code     0  startup_stm32l431xx.o(.text)
    USART2_IRQHandler                        0x080001bb   Thumb Code     0  startup_stm32l431xx.o(.text)
    USART3_IRQHandler                        0x080001bb   Thumb Code     0  startup_stm32l431xx.o(.text)
    WWDG_IRQHandler                          0x080001bb   Thumb Code     0  startup_stm32l431xx.o(.text)
    __aeabi_uldivmod                         0x080001c5   Thumb Code    98  uldiv.o(.text)
    __aeabi_memset                           0x0800022d   Thumb Code    14  memseta.o(.text)
    __aeabi_memset4                          0x0800022d   Thumb Code     0  memseta.o(.text)
    __aeabi_memset8                          0x0800022d   Thumb Code     0  memseta.o(.text)
    __aeabi_memclr                           0x0800023b   Thumb Code     4  memseta.o(.text)
    __aeabi_memclr4                          0x0800023b   Thumb Code     0  memseta.o(.text)
    __aeabi_memclr8                          0x0800023b   Thumb Code     0  memseta.o(.text)
    _memset$wrapper                          0x0800023f   Thumb Code    18  memseta.o(.text)
    __aeabi_llsl                             0x08000251   Thumb Code    30  llshl.o(.text)
    _ll_shift_l                              0x08000251   Thumb Code     0  llshl.o(.text)
    __aeabi_llsr                             0x0800026f   Thumb Code    32  llushr.o(.text)
    _ll_ushift_r                             0x0800026f   Thumb Code     0  llushr.o(.text)
    __scatterload                            0x08000291   Thumb Code    28  init.o(.text)
    __scatterload_rt2                        0x08000291   Thumb Code     0  init.o(.text)
    __decompress                             0x080002b5   Thumb Code     0  __dczerorl.o(.text)
    __decompress0                            0x080002b5   Thumb Code    58  __dczerorl.o(.text)
    BSP_SD_AbortCallback                     0x080002ef   Thumb Code     2  bsp_driver_sd.o(i.BSP_SD_AbortCallback)
    BSP_SD_GetCardInfo                       0x080002f1   Thumb Code     8  bsp_driver_sd.o(i.BSP_SD_GetCardInfo)
    BSP_SD_GetCardState                      0x080002fd   Thumb Code    20  bsp_driver_sd.o(i.BSP_SD_GetCardState)
    BSP_SD_Init                              0x08000315   Thumb Code    24  bsp_driver_sd.o(i.BSP_SD_Init)
    BSP_SD_IsDetected                        0x08000331   Thumb Code    14  bsp_driver_sd.o(i.BSP_SD_IsDetected)
    BSP_SD_ReadBlocks                        0x08000341   Thumb Code    26  bsp_driver_sd.o(i.BSP_SD_ReadBlocks)
    BSP_SD_ReadCpltCallback                  0x08000361   Thumb Code     2  bsp_driver_sd.o(i.BSP_SD_ReadCpltCallback)
    BSP_SD_WriteBlocks                       0x08000365   Thumb Code    26  bsp_driver_sd.o(i.BSP_SD_WriteBlocks)
    BSP_SD_WriteCpltCallback                 0x08000385   Thumb Code     2  bsp_driver_sd.o(i.BSP_SD_WriteCpltCallback)
    BusFault_Handler                         0x08000387   Thumb Code     2  stm32l4xx_it.o(i.BusFault_Handler)
    DMA1_Channel3_IRQHandler                 0x08000389   Thumb Code     6  stm32l4xx_it.o(i.DMA1_Channel3_IRQHandler)
    DebugMon_Handler                         0x08000395   Thumb Code     2  stm32l4xx_it.o(i.DebugMon_Handler)
    Error_Handler                            0x08000397   Thumb Code     2  main.o(i.Error_Handler)
    FATFS_LinkDriver                         0x08000399   Thumb Code     6  ff_gen_drv.o(i.FATFS_LinkDriver)
    FATFS_LinkDriverEx                       0x080003a1   Thumb Code    58  ff_gen_drv.o(i.FATFS_LinkDriverEx)
    HAL_DMA_Abort_IT                         0x080003e1   Thumb Code    78  stm32l4xx_hal_dma.o(i.HAL_DMA_Abort_IT)
    HAL_DMA_IRQHandler                       0x0800042f   Thumb Code   186  stm32l4xx_hal_dma.o(i.HAL_DMA_IRQHandler)
    HAL_DMA_Init                             0x080004e9   Thumb Code   178  stm32l4xx_hal_dma.o(i.HAL_DMA_Init)
    HAL_Delay                                0x080005a9   Thumb Code    32  stm32l4xx_hal.o(i.HAL_Delay)
    HAL_GPIO_Init                            0x080005cd   Thumb Code   412  stm32l4xx_hal_gpio.o(i.HAL_GPIO_Init)
    HAL_GPIO_WritePin                        0x0800078b   Thumb Code    10  stm32l4xx_hal_gpio.o(i.HAL_GPIO_WritePin)
    HAL_GetTick                              0x08000795   Thumb Code     6  stm32l4xx_hal.o(i.HAL_GetTick)
    HAL_IncTick                              0x080007a1   Thumb Code    12  stm32l4xx_hal.o(i.HAL_IncTick)
    HAL_Init                                 0x080007b1   Thumb Code    30  stm32l4xx_hal.o(i.HAL_Init)
    HAL_InitTick                             0x080007d1   Thumb Code    58  stm32l4xx_hal.o(i.HAL_InitTick)
    HAL_MspInit                              0x08000815   Thumb Code    38  stm32l4xx_hal_msp.o(i.HAL_MspInit)
    HAL_NVIC_EnableIRQ                       0x08000841   Thumb Code    26  stm32l4xx_hal_cortex.o(i.HAL_NVIC_EnableIRQ)
    HAL_NVIC_SetPriority                     0x0800085d   Thumb Code    60  stm32l4xx_hal_cortex.o(i.HAL_NVIC_SetPriority)
    HAL_NVIC_SetPriorityGrouping             0x0800089d   Thumb Code    26  stm32l4xx_hal_cortex.o(i.HAL_NVIC_SetPriorityGrouping)
    HAL_PWREx_ControlVoltageScaling          0x080008c1   Thumb Code    90  stm32l4xx_hal_pwr_ex.o(i.HAL_PWREx_ControlVoltageScaling)
    HAL_PWREx_GetVoltageRange                0x08000929   Thumb Code    10  stm32l4xx_hal_pwr_ex.o(i.HAL_PWREx_GetVoltageRange)
    HAL_RCCEx_GetPeriphCLKFreq               0x08000939   Thumb Code   786  stm32l4xx_hal_rcc_ex.o(i.HAL_RCCEx_GetPeriphCLKFreq)
    HAL_RCCEx_PeriphCLKConfig                0x08000c95   Thumb Code   682  stm32l4xx_hal_rcc_ex.o(i.HAL_RCCEx_PeriphCLKConfig)
    HAL_RCC_ClockConfig                      0x08000f51   Thumb Code   266  stm32l4xx_hal_rcc.o(i.HAL_RCC_ClockConfig)
    HAL_RCC_GetPCLK1Freq                     0x08001071   Thumb Code    24  stm32l4xx_hal_rcc.o(i.HAL_RCC_GetPCLK1Freq)
    HAL_RCC_GetPCLK2Freq                     0x08001095   Thumb Code    24  stm32l4xx_hal_rcc.o(i.HAL_RCC_GetPCLK2Freq)
    HAL_RCC_GetSysClockFreq                  0x080010b9   Thumb Code   150  stm32l4xx_hal_rcc.o(i.HAL_RCC_GetSysClockFreq)
    HAL_RCC_OscConfig                        0x0800115d   Thumb Code  1382  stm32l4xx_hal_rcc.o(i.HAL_RCC_OscConfig)
    HAL_SD_AbortCallback                     0x080016c9   Thumb Code     8  bsp_driver_sd.o(i.HAL_SD_AbortCallback)
    HAL_SD_ErrorCallback                     0x080016d1   Thumb Code     2  stm32l4xx_hal_sd.o(i.HAL_SD_ErrorCallback)
    HAL_SD_GetCardCSD                        0x080016d5   Thumb Code   402  stm32l4xx_hal_sd.o(i.HAL_SD_GetCardCSD)
    HAL_SD_GetCardInfo                       0x0800186d   Thumb Code    36  stm32l4xx_hal_sd.o(i.HAL_SD_GetCardInfo)
    HAL_SD_GetCardState                      0x08001891   Thumb Code    44  stm32l4xx_hal_sd.o(i.HAL_SD_GetCardState)
    HAL_SD_IRQHandler                        0x080018bd   Thumb Code   496  stm32l4xx_hal_sd.o(i.HAL_SD_IRQHandler)
    HAL_SD_Init                              0x08001ab5   Thumb Code    54  stm32l4xx_hal_sd.o(i.HAL_SD_Init)
    HAL_SD_InitCard                          0x08001aed   Thumb Code   182  stm32l4xx_hal_sd.o(i.HAL_SD_InitCard)
    HAL_SD_MspInit                           0x08001bb9   Thumb Code   130  sdmmc.o(i.HAL_SD_MspInit)
    HAL_SD_ReadBlocks                        0x08001c4d   Thumb Code   468  stm32l4xx_hal_sd.o(i.HAL_SD_ReadBlocks)
    HAL_SD_RxCpltCallback                    0x08001e2b   Thumb Code     8  bsp_driver_sd.o(i.HAL_SD_RxCpltCallback)
    HAL_SD_TxCpltCallback                    0x08001e33   Thumb Code     8  bsp_driver_sd.o(i.HAL_SD_TxCpltCallback)
    HAL_SD_WriteBlocks                       0x08001e3d   Thumb Code   422  stm32l4xx_hal_sd.o(i.HAL_SD_WriteBlocks)
    HAL_SPI_Init                             0x08001fef   Thumb Code   224  stm32l4xx_hal_spi.o(i.HAL_SPI_Init)
    HAL_SPI_MspInit                          0x080020d1   Thumb Code   138  spi.o(i.HAL_SPI_MspInit)
    HAL_SPI_Transmit                         0x0800216d   Thumb Code   392  stm32l4xx_hal_spi.o(i.HAL_SPI_Transmit)
    HAL_SYSTICK_Config                       0x080022fb   Thumb Code    40  stm32l4xx_hal_cortex.o(i.HAL_SYSTICK_Config)
    HAL_UART_Init                            0x08002323   Thumb Code   102  stm32l4xx_hal_uart.o(i.HAL_UART_Init)
    HAL_UART_MspInit                         0x08002389   Thumb Code    92  usart.o(i.HAL_UART_MspInit)
    HAL_UART_Transmit                        0x080023ed   Thumb Code   182  stm32l4xx_hal_uart.o(i.HAL_UART_Transmit)
    HardFault_Handler                        0x080024a3   Thumb Code     2  stm32l4xx_it.o(i.HardFault_Handler)
    LCD_Init                                 0x080024a5   Thumb Code    86  lcd_st7735.o(i.LCD_Init)
    LCD_SetGramScanWay                       0x080026c5   Thumb Code    82  lcd_st7735.o(i.LCD_SetGramScanWay)
    LCD_SetWindows                           0x0800271d   Thumb Code   106  lcd_st7735.o(i.LCD_SetWindows)
    MX_DMA_Init                              0x080027fd   Thumb Code    40  dma.o(i.MX_DMA_Init)
    MX_FATFS_Init                            0x08002829   Thumb Code    18  fatfs.o(i.MX_FATFS_Init)
    MX_GPIO_Init                             0x08002845   Thumb Code   180  gpio.o(i.MX_GPIO_Init)
    MX_SDMMC1_SD_Init                        0x08002901   Thumb Code    24  sdmmc.o(i.MX_SDMMC1_SD_Init)
    MX_SPI1_Init                             0x08002921   Thumb Code    70  spi.o(i.MX_SPI1_Init)
    MX_USART1_UART_Init                      0x08002971   Thumb Code    52  usart.o(i.MX_USART1_UART_Init)
    MemManage_Handler                        0x080029ad   Thumb Code     2  stm32l4xx_it.o(i.MemManage_Handler)
    Mount_SD                                 0x080029b1   Thumb Code    26  main.o(i.Mount_SD)
    NMI_Handler                              0x080029d9   Thumb Code     2  stm32l4xx_it.o(i.NMI_Handler)
    PendSV_Handler                           0x080029db   Thumb Code     2  stm32l4xx_it.o(i.PendSV_Handler)
    SDMMC1_IRQHandler                        0x08002c2d   Thumb Code     6  stm32l4xx_it.o(i.SDMMC1_IRQHandler)
    SDMMC_CmdAppCommand                      0x08002c39   Thumb Code    50  stm32l4xx_ll_sdmmc.o(i.SDMMC_CmdAppCommand)
    SDMMC_CmdAppOperCommand                  0x08002c6d   Thumb Code    48  stm32l4xx_ll_sdmmc.o(i.SDMMC_CmdAppOperCommand)
    SDMMC_CmdBlockLength                     0x08002ca1   Thumb Code    50  stm32l4xx_ll_sdmmc.o(i.SDMMC_CmdBlockLength)
    SDMMC_CmdGoIdleState                     0x08002cd5   Thumb Code    74  stm32l4xx_ll_sdmmc.o(i.SDMMC_CmdGoIdleState)
    SDMMC_CmdOperCond                        0x08002d25   Thumb Code    48  stm32l4xx_ll_sdmmc.o(i.SDMMC_CmdOperCond)
    SDMMC_CmdReadMultiBlock                  0x08002d55   Thumb Code    50  stm32l4xx_ll_sdmmc.o(i.SDMMC_CmdReadMultiBlock)
    SDMMC_CmdReadSingleBlock                 0x08002d87   Thumb Code    50  stm32l4xx_ll_sdmmc.o(i.SDMMC_CmdReadSingleBlock)
    SDMMC_CmdSelDesel                        0x08002db9   Thumb Code    50  stm32l4xx_ll_sdmmc.o(i.SDMMC_CmdSelDesel)
    SDMMC_CmdSendCID                         0x08002deb   Thumb Code    44  stm32l4xx_ll_sdmmc.o(i.SDMMC_CmdSendCID)
    SDMMC_CmdSendCSD                         0x08002e17   Thumb Code    44  stm32l4xx_ll_sdmmc.o(i.SDMMC_CmdSendCSD)
    SDMMC_CmdSendStatus                      0x08002e43   Thumb Code    50  stm32l4xx_ll_sdmmc.o(i.SDMMC_CmdSendStatus)
    SDMMC_CmdSetRelAdd                       0x08002e75   Thumb Code    48  stm32l4xx_ll_sdmmc.o(i.SDMMC_CmdSetRelAdd)
    SDMMC_CmdStopTransfer                    0x08002ea5   Thumb Code    46  stm32l4xx_ll_sdmmc.o(i.SDMMC_CmdStopTransfer)
    SDMMC_CmdWriteMultiBlock                 0x08002ed9   Thumb Code    50  stm32l4xx_ll_sdmmc.o(i.SDMMC_CmdWriteMultiBlock)
    SDMMC_CmdWriteSingleBlock                0x08002f0b   Thumb Code    50  stm32l4xx_ll_sdmmc.o(i.SDMMC_CmdWriteSingleBlock)
    SDMMC_ConfigData                         0x08002f3d   Thumb Code    36  stm32l4xx_ll_sdmmc.o(i.SDMMC_ConfigData)
    SDMMC_GetCmdResp1                        0x08002f61   Thumb Code   278  stm32l4xx_ll_sdmmc.o(i.SDMMC_GetCmdResp1)
    SDMMC_GetCmdResp2                        0x08003081   Thumb Code    76  stm32l4xx_ll_sdmmc.o(i.SDMMC_GetCmdResp2)
    SDMMC_GetCmdResp3                        0x080030d1   Thumb Code    62  stm32l4xx_ll_sdmmc.o(i.SDMMC_GetCmdResp3)
    SDMMC_GetCmdResp6                        0x08003115   Thumb Code   130  stm32l4xx_ll_sdmmc.o(i.SDMMC_GetCmdResp6)
    SDMMC_GetCmdResp7                        0x0800319d   Thumb Code    82  stm32l4xx_ll_sdmmc.o(i.SDMMC_GetCmdResp7)
    SDMMC_GetPowerState                      0x080031f5   Thumb Code     8  stm32l4xx_ll_sdmmc.o(i.SDMMC_GetPowerState)
    SDMMC_GetResponse                        0x080031fd   Thumb Code     6  stm32l4xx_ll_sdmmc.o(i.SDMMC_GetResponse)
    SDMMC_Init                               0x08003203   Thumb Code    34  stm32l4xx_ll_sdmmc.o(i.SDMMC_Init)
    SDMMC_PowerState_ON                      0x08003225   Thumb Code    16  stm32l4xx_ll_sdmmc.o(i.SDMMC_PowerState_ON)
    SDMMC_ReadFIFO                           0x08003235   Thumb Code     6  stm32l4xx_ll_sdmmc.o(i.SDMMC_ReadFIFO)
    SDMMC_SendCommand                        0x0800323b   Thumb Code    32  stm32l4xx_ll_sdmmc.o(i.SDMMC_SendCommand)
    SDMMC_WriteFIFO                          0x0800325b   Thumb Code    10  stm32l4xx_ll_sdmmc.o(i.SDMMC_WriteFIFO)
    SD_initialize                            0x080034b9   Thumb Code    28  sd_diskio.o(i.SD_initialize)
    SD_ioctl                                 0x080034d9   Thumb Code    76  sd_diskio.o(i.SD_ioctl)
    SD_read                                  0x08003529   Thumb Code    38  sd_diskio.o(i.SD_read)
    SD_status                                0x0800354f   Thumb Code     4  sd_diskio.o(i.SD_status)
    SD_write                                 0x08003555   Thumb Code    38  sd_diskio.o(i.SD_write)
    SPI_Write_Byte                           0x0800374d   Thumb Code    46  lcd_st7735.o(i.SPI_Write_Byte)
    ST7735_DrawImage                         0x08003785   Thumb Code    36  lcd_st7735.o(i.ST7735_DrawImage)
    ST7735_WriteData                         0x080037a9   Thumb Code    62  lcd_st7735.o(i.ST7735_WriteData)
    SVC_Handler                              0x080037f1   Thumb Code     2  stm32l4xx_it.o(i.SVC_Handler)
    SysTick_Handler                          0x080037f3   Thumb Code     4  stm32l4xx_it.o(i.SysTick_Handler)
    SystemClock_Config                       0x080037f9   Thumb Code   136  main.o(i.SystemClock_Config)
    SystemInit                               0x08003885   Thumb Code    56  system_stm32l4xx.o(i.SystemInit)
    UART_AdvFeatureConfig                    0x080038c9   Thumb Code   200  stm32l4xx_hal_uart.o(i.UART_AdvFeatureConfig)
    UART_CheckIdleState                      0x08003991   Thumb Code    88  stm32l4xx_hal_uart.o(i.UART_CheckIdleState)
    UART_SetConfig                           0x080039e9   Thumb Code   484  stm32l4xx_hal_uart.o(i.UART_SetConfig)
    UART_WaitOnFlagUntilTimeout              0x08003bed   Thumb Code   164  stm32l4xx_hal_uart.o(i.UART_WaitOnFlagUntilTimeout)
    UsageFault_Handler                       0x08003c91   Thumb Code     2  stm32l4xx_it.o(i.UsageFault_Handler)
    __0printf$bare                           0x08003c95   Thumb Code     8  printfb.o(i.__0printf$bare)
    __1printf$bare                           0x08003c95   Thumb Code     0  printfb.o(i.__0printf$bare)
    __2printf                                0x08003c95   Thumb Code     0  printfb.o(i.__0printf$bare)
    __scatterload_copy                       0x08003cc5   Thumb Code    14  handlers.o(i.__scatterload_copy)
    __scatterload_null                       0x08003cd3   Thumb Code     2  handlers.o(i.__scatterload_null)
    __scatterload_zeroinit                   0x08003cd5   Thumb Code    14  handlers.o(i.__scatterload_zeroinit)
    disk_initialize                          0x08004619   Thumb Code    36  diskio.o(i.disk_initialize)
    disk_ioctl                               0x08004641   Thumb Code    24  diskio.o(i.disk_ioctl)
    disk_read                                0x0800465d   Thumb Code    24  diskio.o(i.disk_read)
    disk_status                              0x08004679   Thumb Code    18  diskio.o(i.disk_status)
    disk_write                               0x08004691   Thumb Code    24  diskio.o(i.disk_write)
    f_close                                  0x080046ad   Thumb Code    40  ff.o(i.f_close)
    f_lseek                                  0x080046d5   Thumb Code   530  ff.o(i.f_lseek)
    f_mount                                  0x080048ed   Thumb Code    84  ff.o(i.f_mount)
    f_open                                   0x08004945   Thumb Code   528  ff.o(i.f_open)
    f_read                                   0x08004b59   Thumb Code   338  ff.o(i.f_read)
    f_sync                                   0x08004cb1   Thumb Code   142  ff.o(i.f_sync)
    ff_convert                               0x08004d3f   Thumb Code     2  cc936.o(i.ff_convert)
    ff_wtoupper                              0x08004d41   Thumb Code   120  cc936.o(i.ff_wtoupper)
    fputc                                    0x08005089   Thumb Code    20  usart.o(i.fputc)
    get_fattime                              0x080051eb   Thumb Code     4  fatfs.o(i.get_fattime)
    main                                     0x080052f5   Thumb Code    98  main.o(i.main)
    sd_show_picture_bin                      0x0800556d   Thumb Code   128  main.o(i.sd_show_picture_bin)
    AHBPrescTable                            0x0800575c   Data          16  system_stm32l4xx.o(.constdata)
    MSIRangeTable                            0x0800576c   Data          48  system_stm32l4xx.o(.constdata)
    APBPrescTable                            0x0800579c   Data           8  system_stm32l4xx.o(.constdata)
    SD_Driver                                0x080057a4   Data          20  sd_diskio.o(.constdata)
    Region$$Table$$Base                      0x08005a90   Number         0  anon$$obj.o(Region$$Table)
    Region$$Table$$Limit                     0x08005ab0   Number         0  anon$$obj.o(Region$$Table)
    framebuffer                              0x20000000   Data       32768  main.o(.data)
    uwTickFreq                               0x20008000   Data           1  stm32l4xx_hal.o(.data)
    uwTickPrio                               0x20008004   Data           4  stm32l4xx_hal.o(.data)
    uwTick                                   0x20008008   Data           4  stm32l4xx_hal.o(.data)
    SystemCoreClock                          0x2000800c   Data           4  system_stm32l4xx.o(.data)
    retSD                                    0x20008011   Data           1  fatfs.o(.data)
    SDPath                                   0x20008012   Data           4  fatfs.o(.data)
    __stdout                                 0x20008020   Data           4  stdout.o(.data)
    hsd1                                     0x20008024   Data         132  sdmmc.o(.bss)
    hspi1                                    0x200080a8   Data         100  spi.o(.bss)
    hdma_spi1_tx                             0x2000810c   Data          72  spi.o(.bss)
    huart1                                   0x20008154   Data         128  usart.o(.bss)
    sLCD_DIS                                 0x200081d4   Data          10  lcd_st7735.o(.bss)
    SDFatFS                                  0x200081e0   Data         564  fatfs.o(.bss)
    disk                                     0x20008434   Data          12  ff_gen_drv.o(.bss)
    __initial_sp                             0x20009640   Data           0  startup_stm32l431xx.o(STACK)



==============================================================================

Memory Map of the image

  Image Entry point : 0x0800018d

  Load Region LR_IROM1 (Base: 0x08000000, Size: 0x0000dad4, Max: 0x00040000, ABSOLUTE, COMPRESSED[0x00005bc0])

    Execution Region ER_IROM1 (Exec base: 0x08000000, Load base: 0x08000000, Size: 0x00005ab0, Max: 0x00040000, ABSOLUTE)

    Exec Addr    Load Addr    Size         Type   Attr      Idx    E Section Name        Object

    0x08000000   0x08000000   0x0000018c   Data   RO            3    RESET               startup_stm32l431xx.o
    0x0800018c   0x0800018c   0x00000000   Code   RO          790  * .ARM.Collect$$$$00000000  mc_w.l(entry.o)
    0x0800018c   0x0800018c   0x00000004   Code   RO          925    .ARM.Collect$$$$00000001  mc_w.l(entry2.o)
    0x08000190   0x08000190   0x00000004   Code   RO          928    .ARM.Collect$$$$00000004  mc_w.l(entry5.o)
    0x08000194   0x08000194   0x00000000   Code   RO          930    .ARM.Collect$$$$00000008  mc_w.l(entry7b.o)
    0x08000194   0x08000194   0x00000000   Code   RO          932    .ARM.Collect$$$$0000000A  mc_w.l(entry8b.o)
    0x08000194   0x08000194   0x00000008   Code   RO          933    .ARM.Collect$$$$0000000B  mc_w.l(entry9a.o)
    0x0800019c   0x0800019c   0x00000000   Code   RO          935    .ARM.Collect$$$$0000000D  mc_w.l(entry10a.o)
    0x0800019c   0x0800019c   0x00000000   Code   RO          937    .ARM.Collect$$$$0000000F  mc_w.l(entry11a.o)
    0x0800019c   0x0800019c   0x00000004   Code   RO          926    .ARM.Collect$$$$00002712  mc_w.l(entry2.o)
    0x080001a0   0x080001a0   0x00000024   Code   RO            4    .text               startup_stm32l431xx.o
    0x080001c4   0x080001c4   0x00000068   Code   RO          793    .text               mc_w.l(uldiv.o)
    0x0800022c   0x0800022c   0x00000024   Code   RO          794    .text               mc_w.l(memseta.o)
    0x08000250   0x08000250   0x0000001e   Code   RO          941    .text               mc_w.l(llshl.o)
    0x0800026e   0x0800026e   0x00000020   Code   RO          942    .text               mc_w.l(llushr.o)
    0x0800028e   0x0800028e   0x00000002   PAD
    0x08000290   0x08000290   0x00000024   Code   RO          949    .text               mc_w.l(init.o)
    0x080002b4   0x080002b4   0x0000003a   Code   RO          957    .text               mc_w.l(__dczerorl.o)
    0x080002ee   0x080002ee   0x00000002   Code   RO          660    i.BSP_SD_AbortCallback  bsp_driver_sd.o
    0x080002f0   0x080002f0   0x0000000c   Code   RO          662    i.BSP_SD_GetCardInfo  bsp_driver_sd.o
    0x080002fc   0x080002fc   0x00000018   Code   RO          663    i.BSP_SD_GetCardState  bsp_driver_sd.o
    0x08000314   0x08000314   0x0000001c   Code   RO          665    i.BSP_SD_Init       bsp_driver_sd.o
    0x08000330   0x08000330   0x0000000e   Code   RO          666    i.BSP_SD_IsDetected  bsp_driver_sd.o
    0x0800033e   0x0800033e   0x00000002   PAD
    0x08000340   0x08000340   0x00000020   Code   RO          667    i.BSP_SD_ReadBlocks  bsp_driver_sd.o
    0x08000360   0x08000360   0x00000002   Code   RO          669    i.BSP_SD_ReadCpltCallback  bsp_driver_sd.o
    0x08000362   0x08000362   0x00000002   PAD
    0x08000364   0x08000364   0x00000020   Code   RO          670    i.BSP_SD_WriteBlocks  bsp_driver_sd.o
    0x08000384   0x08000384   0x00000002   Code   RO          672    i.BSP_SD_WriteCpltCallback  bsp_driver_sd.o
    0x08000386   0x08000386   0x00000002   Code   RO           47    i.BusFault_Handler  stm32l4xx_it.o
    0x08000388   0x08000388   0x0000000c   Code   RO           48    i.DMA1_Channel3_IRQHandler  stm32l4xx_it.o
    0x08000394   0x08000394   0x00000002   Code   RO           49    i.DebugMon_Handler  stm32l4xx_it.o
    0x08000396   0x08000396   0x00000002   Code   RO            8    i.Error_Handler     main.o
    0x08000398   0x08000398   0x00000006   Code   RO          776    i.FATFS_LinkDriver  ff_gen_drv.o
    0x0800039e   0x0800039e   0x00000002   PAD
    0x080003a0   0x080003a0   0x00000040   Code   RO          777    i.FATFS_LinkDriverEx  ff_gen_drv.o
    0x080003e0   0x080003e0   0x0000004e   Code   RO          290    i.HAL_DMA_Abort_IT  stm32l4xx_hal_dma.o
    0x0800042e   0x0800042e   0x000000ba   Code   RO          294    i.HAL_DMA_IRQHandler  stm32l4xx_hal_dma.o
    0x080004e8   0x080004e8   0x000000c0   Code   RO          295    i.HAL_DMA_Init      stm32l4xx_hal_dma.o
    0x080005a8   0x080005a8   0x00000024   Code   RO           72    i.HAL_Delay         stm32l4xx_hal.o
    0x080005cc   0x080005cc   0x000001be   Code   RO          280    i.HAL_GPIO_Init     stm32l4xx_hal_gpio.o
    0x0800078a   0x0800078a   0x0000000a   Code   RO          284    i.HAL_GPIO_WritePin  stm32l4xx_hal_gpio.o
    0x08000794   0x08000794   0x0000000c   Code   RO           76    i.HAL_GetTick       stm32l4xx_hal.o
    0x080007a0   0x080007a0   0x00000010   Code   RO           82    i.HAL_IncTick       stm32l4xx_hal.o
    0x080007b0   0x080007b0   0x0000001e   Code   RO           83    i.HAL_Init          stm32l4xx_hal.o
    0x080007ce   0x080007ce   0x00000002   PAD
    0x080007d0   0x080007d0   0x00000044   Code   RO           84    i.HAL_InitTick      stm32l4xx_hal.o
    0x08000814   0x08000814   0x0000002c   Code   RO           61    i.HAL_MspInit       stm32l4xx_hal_msp.o
    0x08000840   0x08000840   0x0000001a   Code   RO          363    i.HAL_NVIC_EnableIRQ  stm32l4xx_hal_cortex.o
    0x0800085a   0x0800085a   0x00000002   PAD
    0x0800085c   0x0800085c   0x00000040   Code   RO          369    i.HAL_NVIC_SetPriority  stm32l4xx_hal_cortex.o
    0x0800089c   0x0800089c   0x00000024   Code   RO          370    i.HAL_NVIC_SetPriorityGrouping  stm32l4xx_hal_cortex.o
    0x080008c0   0x080008c0   0x00000068   Code   RO          327    i.HAL_PWREx_ControlVoltageScaling  stm32l4xx_hal_pwr_ex.o
    0x08000928   0x08000928   0x00000010   Code   RO          350    i.HAL_PWREx_GetVoltageRange  stm32l4xx_hal_pwr_ex.o
    0x08000938   0x08000938   0x0000035a   Code   RO          231    i.HAL_RCCEx_GetPeriphCLKFreq  stm32l4xx_hal_rcc_ex.o
    0x08000c92   0x08000c92   0x00000002   PAD
    0x08000c94   0x08000c94   0x000002ba   Code   RO          234    i.HAL_RCCEx_PeriphCLKConfig  stm32l4xx_hal_rcc_ex.o
    0x08000f4e   0x08000f4e   0x00000002   PAD
    0x08000f50   0x08000f50   0x00000120   Code   RO          196    i.HAL_RCC_ClockConfig  stm32l4xx_hal_rcc.o
    0x08001070   0x08001070   0x00000024   Code   RO          202    i.HAL_RCC_GetPCLK1Freq  stm32l4xx_hal_rcc.o
    0x08001094   0x08001094   0x00000024   Code   RO          203    i.HAL_RCC_GetPCLK2Freq  stm32l4xx_hal_rcc.o
    0x080010b8   0x080010b8   0x000000a4   Code   RO          204    i.HAL_RCC_GetSysClockFreq  stm32l4xx_hal_rcc.o
    0x0800115c   0x0800115c   0x0000056c   Code   RO          207    i.HAL_RCC_OscConfig  stm32l4xx_hal_rcc.o
    0x080016c8   0x080016c8   0x00000008   Code   RO          673    i.HAL_SD_AbortCallback  bsp_driver_sd.o
    0x080016d0   0x080016d0   0x00000002   Code   RO          446    i.HAL_SD_ErrorCallback  stm32l4xx_hal_sd.o
    0x080016d2   0x080016d2   0x00000002   PAD
    0x080016d4   0x080016d4   0x00000198   Code   RO          448    i.HAL_SD_GetCardCSD  stm32l4xx_hal_sd.o
    0x0800186c   0x0800186c   0x00000024   Code   RO          449    i.HAL_SD_GetCardInfo  stm32l4xx_hal_sd.o
    0x08001890   0x08001890   0x0000002c   Code   RO          450    i.HAL_SD_GetCardState  stm32l4xx_hal_sd.o
    0x080018bc   0x080018bc   0x000001f8   Code   RO          454    i.HAL_SD_IRQHandler  stm32l4xx_hal_sd.o
    0x08001ab4   0x08001ab4   0x00000036   Code   RO          455    i.HAL_SD_Init       stm32l4xx_hal_sd.o
    0x08001aea   0x08001aea   0x00000002   PAD
    0x08001aec   0x08001aec   0x000000ca   Code   RO          456    i.HAL_SD_InitCard   stm32l4xx_hal_sd.o
    0x08001bb6   0x08001bb6   0x00000002   PAD
    0x08001bb8   0x08001bb8   0x00000094   Code   RO           26    i.HAL_SD_MspInit    sdmmc.o
    0x08001c4c   0x08001c4c   0x000001de   Code   RO          459    i.HAL_SD_ReadBlocks  stm32l4xx_hal_sd.o
    0x08001e2a   0x08001e2a   0x00000008   Code   RO          674    i.HAL_SD_RxCpltCallback  bsp_driver_sd.o
    0x08001e32   0x08001e32   0x00000008   Code   RO          675    i.HAL_SD_TxCpltCallback  bsp_driver_sd.o
    0x08001e3a   0x08001e3a   0x00000002   PAD
    0x08001e3c   0x08001e3c   0x000001b2   Code   RO          464    i.HAL_SD_WriteBlocks  stm32l4xx_hal_sd.o
    0x08001fee   0x08001fee   0x000000e0   Code   RO          493    i.HAL_SPI_Init      stm32l4xx_hal_spi.o
    0x080020ce   0x080020ce   0x00000002   PAD
    0x080020d0   0x080020d0   0x0000009c   Code   RO           33    i.HAL_SPI_MspInit   spi.o
    0x0800216c   0x0800216c   0x0000018e   Code   RO          501    i.HAL_SPI_Transmit  stm32l4xx_hal_spi.o
    0x080022fa   0x080022fa   0x00000028   Code   RO          374    i.HAL_SYSTICK_Config  stm32l4xx_hal_cortex.o
    0x08002322   0x08002322   0x00000066   Code   RO          579    i.HAL_UART_Init     stm32l4xx_hal_uart.o
    0x08002388   0x08002388   0x00000064   Code   RO           40    i.HAL_UART_MspInit  usart.o
    0x080023ec   0x080023ec   0x000000b6   Code   RO          588    i.HAL_UART_Transmit  stm32l4xx_hal_uart.o
    0x080024a2   0x080024a2   0x00000002   Code   RO           50    i.HardFault_Handler  stm32l4xx_it.o
    0x080024a4   0x080024a4   0x0000005c   Code   RO          641    i.LCD_Init          lcd_st7735.o
    0x08002500   0x08002500   0x000001c2   Code   RO          642    i.LCD_InitReg       lcd_st7735.o
    0x080026c2   0x080026c2   0x00000002   PAD
    0x080026c4   0x080026c4   0x00000058   Code   RO          646    i.LCD_SetGramScanWay  lcd_st7735.o
    0x0800271c   0x0800271c   0x00000070   Code   RO          648    i.LCD_SetWindows    lcd_st7735.o
    0x0800278c   0x0800278c   0x00000038   Code   RO          650    i.LCD_WriteData_8Bit  lcd_st7735.o
    0x080027c4   0x080027c4   0x00000038   Code   RO          651    i.LCD_WriteReg      lcd_st7735.o
    0x080027fc   0x080027fc   0x0000002c   Code   RO           21    i.MX_DMA_Init       dma.o
    0x08002828   0x08002828   0x0000001c   Code   RO          690    i.MX_FATFS_Init     fatfs.o
    0x08002844   0x08002844   0x000000bc   Code   RO           17    i.MX_GPIO_Init      gpio.o
    0x08002900   0x08002900   0x00000020   Code   RO           27    i.MX_SDMMC1_SD_Init  sdmmc.o
    0x08002920   0x08002920   0x00000050   Code   RO           34    i.MX_SPI1_Init      spi.o
    0x08002970   0x08002970   0x0000003c   Code   RO           41    i.MX_USART1_UART_Init  usart.o
    0x080029ac   0x080029ac   0x00000002   Code   RO           51    i.MemManage_Handler  stm32l4xx_it.o
    0x080029ae   0x080029ae   0x00000002   PAD
    0x080029b0   0x080029b0   0x00000028   Code   RO            9    i.Mount_SD          main.o
    0x080029d8   0x080029d8   0x00000002   Code   RO           52    i.NMI_Handler       stm32l4xx_it.o
    0x080029da   0x080029da   0x00000002   Code   RO           53    i.PendSV_Handler    stm32l4xx_it.o
    0x080029dc   0x080029dc   0x000000a8   Code   RO          237    i.RCCEx_GetSAIxPeriphCLKFreq  stm32l4xx_hal_rcc_ex.o
    0x08002a84   0x08002a84   0x0000012c   Code   RO          238    i.RCCEx_PLLSAI1_Config  stm32l4xx_hal_rcc_ex.o
    0x08002bb0   0x08002bb0   0x0000007c   Code   RO          208    i.RCC_SetFlashLatencyFromMSIRange  stm32l4xx_hal_rcc.o
    0x08002c2c   0x08002c2c   0x0000000c   Code   RO           54    i.SDMMC1_IRQHandler  stm32l4xx_it.o
    0x08002c38   0x08002c38   0x00000032   Code   RO          392    i.SDMMC_CmdAppCommand  stm32l4xx_ll_sdmmc.o
    0x08002c6a   0x08002c6a   0x00000002   PAD
    0x08002c6c   0x08002c6c   0x00000034   Code   RO          393    i.SDMMC_CmdAppOperCommand  stm32l4xx_ll_sdmmc.o
    0x08002ca0   0x08002ca0   0x00000032   Code   RO          394    i.SDMMC_CmdBlockLength  stm32l4xx_ll_sdmmc.o
    0x08002cd2   0x08002cd2   0x00000002   PAD
    0x08002cd4   0x08002cd4   0x00000050   Code   RO          399    i.SDMMC_CmdGoIdleState  stm32l4xx_ll_sdmmc.o
    0x08002d24   0x08002d24   0x00000030   Code   RO          401    i.SDMMC_CmdOperCond  stm32l4xx_ll_sdmmc.o
    0x08002d54   0x08002d54   0x00000032   Code   RO          402    i.SDMMC_CmdReadMultiBlock  stm32l4xx_ll_sdmmc.o
    0x08002d86   0x08002d86   0x00000032   Code   RO          403    i.SDMMC_CmdReadSingleBlock  stm32l4xx_ll_sdmmc.o
    0x08002db8   0x08002db8   0x00000032   Code   RO          406    i.SDMMC_CmdSelDesel  stm32l4xx_ll_sdmmc.o
    0x08002dea   0x08002dea   0x0000002c   Code   RO          407    i.SDMMC_CmdSendCID  stm32l4xx_ll_sdmmc.o
    0x08002e16   0x08002e16   0x0000002c   Code   RO          408    i.SDMMC_CmdSendCSD  stm32l4xx_ll_sdmmc.o
    0x08002e42   0x08002e42   0x00000032   Code   RO          411    i.SDMMC_CmdSendStatus  stm32l4xx_ll_sdmmc.o
    0x08002e74   0x08002e74   0x00000030   Code   RO          412    i.SDMMC_CmdSetRelAdd  stm32l4xx_ll_sdmmc.o
    0x08002ea4   0x08002ea4   0x00000034   Code   RO          415    i.SDMMC_CmdStopTransfer  stm32l4xx_ll_sdmmc.o
    0x08002ed8   0x08002ed8   0x00000032   Code   RO          417    i.SDMMC_CmdWriteMultiBlock  stm32l4xx_ll_sdmmc.o
    0x08002f0a   0x08002f0a   0x00000032   Code   RO          418    i.SDMMC_CmdWriteSingleBlock  stm32l4xx_ll_sdmmc.o
    0x08002f3c   0x08002f3c   0x00000024   Code   RO          419    i.SDMMC_ConfigData  stm32l4xx_ll_sdmmc.o
    0x08002f60   0x08002f60   0x00000120   Code   RO          420    i.SDMMC_GetCmdResp1  stm32l4xx_ll_sdmmc.o
    0x08003080   0x08003080   0x00000050   Code   RO          421    i.SDMMC_GetCmdResp2  stm32l4xx_ll_sdmmc.o
    0x080030d0   0x080030d0   0x00000044   Code   RO          422    i.SDMMC_GetCmdResp3  stm32l4xx_ll_sdmmc.o
    0x08003114   0x08003114   0x00000088   Code   RO          423    i.SDMMC_GetCmdResp6  stm32l4xx_ll_sdmmc.o
    0x0800319c   0x0800319c   0x00000058   Code   RO          424    i.SDMMC_GetCmdResp7  stm32l4xx_ll_sdmmc.o
    0x080031f4   0x080031f4   0x00000008   Code   RO          428    i.SDMMC_GetPowerState  stm32l4xx_ll_sdmmc.o
    0x080031fc   0x080031fc   0x00000006   Code   RO          429    i.SDMMC_GetResponse  stm32l4xx_ll_sdmmc.o
    0x08003202   0x08003202   0x00000022   Code   RO          430    i.SDMMC_Init        stm32l4xx_ll_sdmmc.o
    0x08003224   0x08003224   0x00000010   Code   RO          432    i.SDMMC_PowerState_ON  stm32l4xx_ll_sdmmc.o
    0x08003234   0x08003234   0x00000006   Code   RO          433    i.SDMMC_ReadFIFO    stm32l4xx_ll_sdmmc.o
    0x0800323a   0x0800323a   0x00000020   Code   RO          434    i.SDMMC_SendCommand  stm32l4xx_ll_sdmmc.o
    0x0800325a   0x0800325a   0x0000000a   Code   RO          436    i.SDMMC_WriteFIFO   stm32l4xx_ll_sdmmc.o
    0x08003264   0x08003264   0x00000020   Code   RO          679    i.SD_CheckStatus    sd_diskio.o
    0x08003284   0x08003284   0x00000044   Code   RO          469    i.SD_DMARxAbort     stm32l4xx_hal_sd.o
    0x080032c8   0x080032c8   0x00000044   Code   RO          471    i.SD_DMATxAbort     stm32l4xx_hal_sd.o
    0x0800330c   0x0800330c   0x000000ee   Code   RO          473    i.SD_InitCard       stm32l4xx_hal_sd.o
    0x080033fa   0x080033fa   0x00000002   PAD
    0x080033fc   0x080033fc   0x000000ba   Code   RO          474    i.SD_PowerON        stm32l4xx_hal_sd.o
    0x080034b6   0x080034b6   0x00000002   PAD
    0x080034b8   0x080034b8   0x00000020   Code   RO          680    i.SD_initialize     sd_diskio.o
    0x080034d8   0x080034d8   0x00000050   Code   RO          681    i.SD_ioctl          sd_diskio.o
    0x08003528   0x08003528   0x00000026   Code   RO          682    i.SD_read           sd_diskio.o
    0x0800354e   0x0800354e   0x00000004   Code   RO          683    i.SD_status         sd_diskio.o
    0x08003552   0x08003552   0x00000002   PAD
    0x08003554   0x08003554   0x00000026   Code   RO          684    i.SD_write          sd_diskio.o
    0x0800357a   0x0800357a   0x00000048   Code   RO          531    i.SPI_EndRxTxTransaction  stm32l4xx_hal_spi.o
    0x080035c2   0x080035c2   0x00000002   PAD
    0x080035c4   0x080035c4   0x000000ce   Code   RO          536    i.SPI_WaitFifoStateUntilTimeout  stm32l4xx_hal_spi.o
    0x08003692   0x08003692   0x00000002   PAD
    0x08003694   0x08003694   0x000000b8   Code   RO          537    i.SPI_WaitFlagStateUntilTimeout  stm32l4xx_hal_spi.o
    0x0800374c   0x0800374c   0x00000038   Code   RO          653    i.SPI_Write_Byte    lcd_st7735.o
    0x08003784   0x08003784   0x00000024   Code   RO          654    i.ST7735_DrawImage  lcd_st7735.o
    0x080037a8   0x080037a8   0x00000048   Code   RO          655    i.ST7735_WriteData  lcd_st7735.o
    0x080037f0   0x080037f0   0x00000002   Code   RO           55    i.SVC_Handler       stm32l4xx_it.o
    0x080037f2   0x080037f2   0x00000004   Code   RO           56    i.SysTick_Handler   stm32l4xx_it.o
    0x080037f6   0x080037f6   0x00000002   PAD
    0x080037f8   0x080037f8   0x0000008c   Code   RO           10    i.SystemClock_Config  main.o
    0x08003884   0x08003884   0x00000044   Code   RO          628    i.SystemInit        system_stm32l4xx.o
    0x080038c8   0x080038c8   0x000000c8   Code   RO          593    i.UART_AdvFeatureConfig  stm32l4xx_hal_uart.o
    0x08003990   0x08003990   0x00000058   Code   RO          594    i.UART_CheckIdleState  stm32l4xx_hal_uart.o
    0x080039e8   0x080039e8   0x00000204   Code   RO          609    i.UART_SetConfig    stm32l4xx_hal_uart.o
    0x08003bec   0x08003bec   0x000000a4   Code   RO          612    i.UART_WaitOnFlagUntilTimeout  stm32l4xx_hal_uart.o
    0x08003c90   0x08003c90   0x00000002   Code   RO           57    i.UsageFault_Handler  stm32l4xx_it.o
    0x08003c92   0x08003c92   0x00000002   PAD
    0x08003c94   0x08003c94   0x00000010   Code   RO          796    i.__0printf$bare    mc_w.l(printfb.o)
    0x08003ca4   0x08003ca4   0x00000020   Code   RO          376    i.__NVIC_SetPriority  stm32l4xx_hal_cortex.o
    0x08003cc4   0x08003cc4   0x0000000e   Code   RO          954    i.__scatterload_copy  mc_w.l(handlers.o)
    0x08003cd2   0x08003cd2   0x00000002   Code   RO          955    i.__scatterload_null  mc_w.l(handlers.o)
    0x08003cd4   0x08003cd4   0x0000000e   Code   RO          956    i.__scatterload_zeroinit  mc_w.l(handlers.o)
    0x08003ce2   0x08003ce2   0x00000022   Code   RO          803    i._printf_core      mc_w.l(printfb.o)
    0x08003d04   0x08003d04   0x00000070   Code   RO          707    i.check_fs          ff.o
    0x08003d74   0x08003d74   0x00000010   Code   RO          708    i.chk_chr           ff.o
    0x08003d84   0x08003d84   0x0000005c   Code   RO          709    i.chk_lock          ff.o
    0x08003de0   0x08003de0   0x00000020   Code   RO          710    i.clear_lock        ff.o
    0x08003e00   0x08003e00   0x00000024   Code   RO          711    i.clmt_clust        ff.o
    0x08003e24   0x08003e24   0x00000018   Code   RO          712    i.clust2sect        ff.o
    0x08003e3c   0x08003e3c   0x00000086   Code   RO          713    i.cmp_lfn           ff.o
    0x08003ec2   0x08003ec2   0x000000a4   Code   RO          714    i.create_chain      ff.o
    0x08003f66   0x08003f66   0x00000002   PAD
    0x08003f68   0x08003f68   0x0000024a   Code   RO          715    i.create_name       ff.o
    0x080041b2   0x080041b2   0x00000002   PAD
    0x080041b4   0x080041b4   0x00000034   Code   RO          716    i.dec_lock          ff.o
    0x080041e8   0x080041e8   0x000000d0   Code   RO          717    i.dir_find          ff.o
    0x080042b8   0x080042b8   0x000000f4   Code   RO          718    i.dir_next          ff.o
    0x080043ac   0x080043ac   0x000001ea   Code   RO          720    i.dir_register      ff.o
    0x08004596   0x08004596   0x00000082   Code   RO          722    i.dir_sdi           ff.o
    0x08004618   0x08004618   0x00000028   Code   RO          698    i.disk_initialize   diskio.o
    0x08004640   0x08004640   0x0000001c   Code   RO          699    i.disk_ioctl        diskio.o
    0x0800465c   0x0800465c   0x0000001c   Code   RO          700    i.disk_read         diskio.o
    0x08004678   0x08004678   0x00000018   Code   RO          701    i.disk_status       diskio.o
    0x08004690   0x08004690   0x0000001c   Code   RO          702    i.disk_write        diskio.o
    0x080046ac   0x080046ac   0x00000028   Code   RO          723    i.f_close           ff.o
    0x080046d4   0x080046d4   0x00000218   Code   RO          727    i.f_lseek           ff.o
    0x080048ec   0x080048ec   0x00000058   Code   RO          730    i.f_mount           ff.o
    0x08004944   0x08004944   0x00000214   Code   RO          731    i.f_open            ff.o
    0x08004b58   0x08004b58   0x00000158   Code   RO          736    i.f_read            ff.o
    0x08004cb0   0x08004cb0   0x0000008e   Code   RO          740    i.f_sync            ff.o
    0x08004d3e   0x08004d3e   0x00000002   Code   RO          787    i.ff_convert        cc936.o
    0x08004d40   0x08004d40   0x00000080   Code   RO          788    i.ff_wtoupper       cc936.o
    0x08004dc0   0x08004dc0   0x00000254   Code   RO          744    i.find_volume       ff.o
    0x08005014   0x08005014   0x00000074   Code   RO          745    i.follow_path       ff.o
    0x08005088   0x08005088   0x00000018   Code   RO           42    i.fputc             usart.o
    0x080050a0   0x080050a0   0x0000008c   Code   RO          746    i.gen_numname       ff.o
    0x0800512c   0x0800512c   0x000000be   Code   RO          747    i.get_fat           ff.o
    0x080051ea   0x080051ea   0x00000004   Code   RO          691    i.get_fattime       fatfs.o
    0x080051ee   0x080051ee   0x0000003c   Code   RO          749    i.get_ldnumber      ff.o
    0x0800522a   0x0800522a   0x00000002   PAD
    0x0800522c   0x0800522c   0x00000080   Code   RO          750    i.inc_lock          ff.o
    0x080052ac   0x080052ac   0x00000026   Code   RO          751    i.ld_clust          ff.o
    0x080052d2   0x080052d2   0x00000016   Code   RO          752    i.ld_dword          ff.o
    0x080052e8   0x080052e8   0x0000000a   Code   RO          753    i.ld_word           ff.o
    0x080052f2   0x080052f2   0x00000002   PAD
    0x080052f4   0x080052f4   0x000000c4   Code   RO           11    i.main              main.o
    0x080053b8   0x080053b8   0x00000012   Code   RO          754    i.mem_cpy           ff.o
    0x080053ca   0x080053ca   0x00000002   PAD
    0x080053cc   0x080053cc   0x0000000e   Code   RO          755    i.mem_set           ff.o
    0x080053da   0x080053da   0x00000032   Code   RO          756    i.move_window       ff.o
    0x0800540c   0x0800540c   0x000000ea   Code   RO          758    i.put_fat           ff.o
    0x080054f6   0x080054f6   0x00000074   Code   RO          761    i.remove_chain      ff.o
    0x0800556a   0x0800556a   0x00000002   PAD
    0x0800556c   0x0800556c   0x00000084   Code   RO           12    i.sd_show_picture_bin  main.o
    0x080055f0   0x080055f0   0x00000028   Code   RO          762    i.st_clust          ff.o
    0x08005618   0x08005618   0x00000010   Code   RO          763    i.st_dword          ff.o
    0x08005628   0x08005628   0x00000008   Code   RO          764    i.st_word           ff.o
    0x08005630   0x08005630   0x0000001a   Code   RO          765    i.sum_sfn           ff.o
    0x0800564a   0x0800564a   0x00000002   PAD
    0x0800564c   0x0800564c   0x00000088   Code   RO          766    i.sync_fs           ff.o
    0x080056d4   0x080056d4   0x00000052   Code   RO          767    i.sync_window       ff.o
    0x08005726   0x08005726   0x00000034   Code   RO          768    i.validate          ff.o
    0x0800575a   0x0800575a   0x00000002   PAD
    0x0800575c   0x0800575c   0x00000040   Data   RO          629    .constdata          system_stm32l4xx.o
    0x0800579c   0x0800579c   0x00000008   Data   RO          630    .constdata          system_stm32l4xx.o
    0x080057a4   0x080057a4   0x00000014   Data   RO          685    .constdata          sd_diskio.o
    0x080057b8   0x080057b8   0x0000002a   Data   RO          770    .constdata          ff.o
    0x080057e2   0x080057e2   0x000002ae   Data   RO          789    .constdata          cc936.o
    0x08005a90   0x08005a90   0x00000020   Data   RO          952    Region$$Table       anon$$obj.o


    Execution Region RW_IRAM1 (Exec base: 0x20000000, Load base: 0x08005ab0, Size: 0x00009640, Max: 0x00010000, ABSOLUTE, COMPRESSED[0x00000110])

    Exec Addr    Load Addr    Size         Type   Attr      Idx    E Section Name        Object

    0x20000000   COMPRESSED   0x00008000   Data   RW           13    .data               main.o
    0x20008000   COMPRESSED   0x0000000c   Data   RW          100    .data               stm32l4xx_hal.o
    0x2000800c   COMPRESSED   0x00000004   Data   RW          631    .data               system_stm32l4xx.o
    0x20008010   COMPRESSED   0x00000001   Data   RW          686    .data               sd_diskio.o
    0x20008011   COMPRESSED   0x00000005   Data   RW          694    .data               fatfs.o
    0x20008016   COMPRESSED   0x00000002   PAD
    0x20008018   COMPRESSED   0x00000008   Data   RW          771    .data               ff.o
    0x20008020   COMPRESSED   0x00000004   Data   RW          939    .data               mc_w.l(stdout.o)
    0x20008024        -       0x00000084   Zero   RW           28    .bss                sdmmc.o
    0x200080a8        -       0x000000ac   Zero   RW           35    .bss                spi.o
    0x20008154        -       0x00000080   Zero   RW           43    .bss                usart.o
    0x200081d4        -       0x0000000a   Zero   RW          656    .bss                lcd_st7735.o
    0x200081de   COMPRESSED   0x00000002   PAD
    0x200081e0        -       0x00000234   Zero   RW          692    .bss                fatfs.o
    0x20008414        -       0x00000020   Zero   RW          769    .bss                ff.o
    0x20008434        -       0x0000000c   Zero   RW          780    .bss                ff_gen_drv.o
    0x20008440        -       0x00001200   Zero   RW            1    STACK               startup_stm32l431xx.o


==============================================================================

Image component sizes


      Code (inc. data)   RO Data    RW Data    ZI Data      Debug   Object Name

       172         24          0          0          0          0   bsp_driver_sd.o
       130         18        686          0          0          0   cc936.o
       148         22          0          0          0          0   diskio.o
        44          4          0          0          0          0   dma.o
        32         10          0          5        564          0   fatfs.o
      6094         92         42          8         32          0   ff.o
        70          6          0          0         12          0   ff_gen_drv.o
       188          8          0          0          0          0   gpio.o
      1018         58          0          0         10          0   lcd_st7735.o
       510        120          0      32768          0          0   main.o
       224         14         20          1          0          0   sd_diskio.o
       180         26          0          0        132          0   sdmmc.o
       236         28          0          0        172          0   spi.o
        36          8        396          0       4608          0   startup_stm32l431xx.o
       162         24          0         12          0          0   stm32l4xx_hal.o
       198         14          0          0          0          0   stm32l4xx_hal_cortex.o
       456         14          0          0          0          0   stm32l4xx_hal_dma.o
       456         28          0          0          0          0   stm32l4xx_hal_gpio.o
        44          6          0          0          0          0   stm32l4xx_hal_msp.o
       120         20          0          0          0          0   stm32l4xx_hal_pwr_ex.o
      2036         98          0          0          0          0   stm32l4xx_hal_rcc.o
      2024         72          0          0          0          0   stm32l4xx_hal_rcc_ex.o
      2722         44          0          0          0          0   stm32l4xx_hal_sd.o
      1084          8          0          0          0          0   stm32l4xx_hal_spi.o
      1252         52          0          0          0          0   stm32l4xx_hal_uart.o
        44         12          0          0          0          0   stm32l4xx_it.o
      1576         48          0          0          0          0   stm32l4xx_ll_sdmmc.o
        68         12         72          4          0          0   system_stm32l4xx.o
       184         20          0          0        128          0   usart.o

    ----------------------------------------------------------------------
     21570        910       1248      32800       5660          0   Object Totals
         0          0         32          0          0          0   (incl. Generated)
        62          0          0          2          2          0   (incl. Padding)

    ----------------------------------------------------------------------

      Code (inc. data)   RO Data    RW Data    ZI Data      Debug   Library Member Name

        58          0          0          0          0          0   __dczerorl.o
         0          0          0          0          0          0   entry.o
         0          0          0          0          0          0   entry10a.o
         0          0          0          0          0          0   entry11a.o
         8          4          0          0          0          0   entry2.o
         4          0          0          0          0          0   entry5.o
         0          0          0          0          0          0   entry7b.o
         0          0          0          0          0          0   entry8b.o
         8          4          0          0          0          0   entry9a.o
        30          0          0          0          0          0   handlers.o
        36          8          0          0          0          0   init.o
        30          0          0          0          0          0   llshl.o
        32          0          0          0          0          0   llushr.o
        36          0          0          0          0          0   memseta.o
        50          8          0          0          0          0   printfb.o
         0          0          0          4          0          0   stdout.o
       104          0          0          0          0          0   uldiv.o

    ----------------------------------------------------------------------
       398         24          0          4          0          0   Library Totals
         2          0          0          0          0          0   (incl. Padding)

    ----------------------------------------------------------------------

      Code (inc. data)   RO Data    RW Data    ZI Data      Debug   Library Name

       396         24          0          4          0          0   mc_w.l

    ----------------------------------------------------------------------
       398         24          0          4          0          0   Library Totals

    ----------------------------------------------------------------------

==============================================================================


      Code (inc. data)   RO Data    RW Data    ZI Data      Debug   

     21968        934       1248      32804       5660          0   Grand Totals
     21968        934       1248        272       5660          0   ELF Image Totals (compressed)
     21968        934       1248        272          0          0   ROM Totals

==============================================================================

    Total RO  Size (Code + RO Data)                23216 (  22.67kB)
    Total RW  Size (RW Data + ZI Data)             38464 (  37.56kB)
    Total ROM Size (Code + RO Data + RW Data)      23488 (  22.94kB)

==============================================================================

