:020000040800F2
:1000000028C70120D17B0008ED030008EF0300089A
:10001000F3030008F7030008FB03000800000000DA
:10002000000000000000000000000000FF030008C6
:100030000104000800000000030400080504000893
:10004000EB7B0008EB7B0008EB7B0008EB7B0008F8
:10005000EB7B0008EB7B0008EB7B0008EB7B0008E8
:10006000EB7B0008EB7B0008EB7B0008EB7B0008D8
:10007000EB7B0008EB7B0008EB7B0008EB7B0008C8
:10008000EB7B0008EB7B0008EB7B0008EB7B0008B8
:10009000EB7B0008EB7B0008EB7B0008EB7B0008A8
:1000A000EB7B0008EB7B0008EB7B0008EB7B000898
:1000B000EB7B00085179000845AF0008EB7B000896
:1000C000EB7B0008EB7B0008EB7B0008EB7B000878
:1000D000EB7B0008457B0008EB7B0008EB7B00080E
:1000E000EB7B0008EB7B0008EB7B0008EB7B000858
:1000F000EB7B0008EB7B0008EB7B0008EB7B000848
:10010000EB7B00081D740008EB7B0008EB7B00080C
:10011000EB7B0008EB7B0008EB7B0008EB7B000827
:10012000EB7B0008EB7B0008EB7B0008EB7B000817
:10013000EB7B0008EB7B0008EB7B0008EB7B000807
:10014000EB7B0008EB7B0008EB7B0008EB7B0008F7
:10015000EB7B0008EB7B0008EB7B0008EB7B0008E7
:10016000EB7B0008EB7B0008EB7B0008EB7B0008D7
:10017000EB7B0008EB7B0008EB7B0008EB7B0008C7
:10018000EB7B0008EB7B000800F002F800F06DF854
:100190000AA090E8000C82448344AAF10107DA45E2
:1001A00001D100F062F8AFF2090EBAE80F0013F0C7
:1001B000010F18BFFB1A43F0010318473026010056
:1001C000502601000A444FF0000C10F8013B13F0D8
:1001D000070408BF10F8014B1D1108BF10F8015BA0
:1001E000641E05D010F8016B641E01F8016BF9D193
:1001F00013F0080F1EBF10F8014BAD1C0C1B09D1EA
:100200006D1E58BF01F801CBFAD505E014F8016B5B
:1002100001F8016B6D1EF9D59142D6D370470000ED
:100220000023002400250026103A28BF78C1FBD8FF
:10023000520728BF30C148BF0B60704764290FF0D8
:10024000378675290FF0348678290FF06D8663297B
:1002500010F0EE80732910F0F380002070471FB576
:1002600010F0C8FA1FBD10B510BD10F04DF91146C1
:10027000FFF7F5FF00F010F810F06BF903B4FFF78B
:10028000F2FF03BC07F0FEFB30BF72B6704762B6E8
:10029000704780F30888704708B54FF4A06007F0F6
:1002A000B7FCA82007F06CFB4FF4E13007F0F8FB37
:1002B00000F0B2F901F090F805F00EF805F03AF907
:1002C0003F484168A820884742F2CF0142F20F70B0
:1002D00007F012FB00213B4808F0C6FF07F07EF94B
:1002E00000200AF0F6F901200AF0F3F902200AF0E2
:1002F000F0F90EF0CFFD34490122086833A10CF06B
:100300005EFF31490122486831A10CF058FF0A20F4
:1003100007F098FB0FF00BFD0A2007F093FB06F0A7
:1003200051F80A2007F08EFB4FF4165547E0294696
:1003300001200AF090FA06464FF40A7101200AF0F3
:100340008AFA8146012223A148460CF063FF00206F
:1003500000F0B1FBF0234FF4A0720021084600F03A
:10036000F8FE0021084600F0C1F900F0A2F92C4681
:1003700000951FE06B462A46314648460DF00AF8C4
:10038000002414E016F8048000270DE008FA07F0B6
:1003900000F0800018B100201349088003E04FF6F8
:1003A000FF70114908807F1C082FEFD3641CB4F53F
:1003B000165FE7D30098A842DCD000BFFEE7B6E79F
:1003C00060010020000400409C030020303A00003F
:1003D000313A0000303A2F6170706C652F61707097
:1003E0006C652E62696E00008000006C704700BF73
:1003F000FEE700BFFEE700BFFEE700BFFEE7704775
:1004000070477047704700000CB5002001900090C5
:100410007648006840F480307449086000BF734833
:10042000006800F4003000900198401C0190009892
:1004300018B90198B0F5A04FF1D16C48006800F4EC
:10044000003010B10120009001E0002000900098E1
:10045000012846D165484030006840F0805063492B
:10046000403108606248006840F4404060490860DC
:100470005E48083000685D49083108600846006839
:1004800040F4004008600846006840F4A05008604E
:100490005848091F0860081F006840F08070091F55
:1004A000086000BF5148006800F000700028F9D0D3
:1004B00040F20570504908604C480830006820F050
:1004C00003004A49083108600846006840F002000D
:1004D000086000BF45480830006800F00C0008289C
:1004E000F8D10CBD10B54548006840F47000434990
:1004F00008603E48006840F001003C490860002068
:100500003A4908310860394800683D490840374990
:1005100008603C48091D0860081F006820F480201E
:10052000091F0860002031490C310860FFF76CFF9B
:100530004FF0006031498039086010BD70B500206F
:100540000022022300240221284D08352D6805F0E1
:100550000C0020B1042806D0082834D107E02A4D29
:100560002A4E356033E02A4D284E35602FE01F4D6E
:100570002D1D2D68C5F380541C4D2D1D2D6805F0D3
:100580003F0154B1224DB5FBF1F5184E361D3668CA
:10059000C6F3881605FB06F209E01B4DB5FBF1F525
:1005A000124E361D3668C6F3881605FB06F20F4D4F
:1005B0002D1D2D68C5F301456D1C6B00B2FBF3F5D5
:1005C000124E356003E0104D104E356000BF00BF85
:1005D000064D08352D68C5F303150E4E705D0B4DA5
:1005E0002D68C540094E356070BD000000380240DE
:1005F0000070004008544007003C024088ED00E0D5
:10060000FFFFF6FE103000240024F400000000205C
:1006100000127A00040000201CB50121202008F0FF
:100620006FF94FF4C060009001208DF804000020A5
:100630008DF8060003208DF8050001208DF80700D5
:100640006946044807F0DAFB4FF4C061014807F03F
:1006500051FC1CBD0014024001B5BDF80000009023
:10066000BDF80000F849088008BD01B5BDF80000DC
:100670000090BDF80000F449891C088008BD08B549
:10068000F148801C00880090BDF8000008BDEE4ACB
:1006900010804FF0D842A2F88010704710B5044681
:1006A0002046FFF7D9FF052007F084F9FFF7E7FFA1
:1006B00010BDE6480089E44908807047E249891C7A
:1006C0000880704730B5014601F01F04C1F345139F
:1006D000CA0AE50205EB43151544A8B230BD00BFB8
:1006E0000100A0F10102D0B2FAD1704730B5044642
:1006F0000D46D648808849F24131884205D0D3481A
:10070000808845F21031884214D1D0494889FFF7DA
:10071000A3FF2012FFF7A9FFE0B2FFF7A6FFCB4926
:100720008889FFF799FF2812FFF79FFFE8B2FFF7CC
:100730009CFFABE0C548808846F6040188421DD185
:10074000C2488079012804D1C0480088401E001B9F
:1007500084B2BE494889FFF77FFF2012FFF785FF6B
:10076000E0B2FFF782FFB9498889FFF775FF2812C9
:10077000FFF77BFFE8B2FFF778FF87E0B348808898
:1007800041F66311884247D1B0488079A8B9AF4893
:100790000088401E001B84B2AC494889FFF75CFF0B
:1007A0000020FFF762FF0020FFF75FFF2012FFF736
:1007B0005CFFE0B2FFF759FF16E0A4494889FFF754
:1007C0004BFF2012FFF751FFE0B2FFF74EFF9F49AA
:1007D0000988491EC1F30F20FFF747FF9B4909789D
:1007E000491EC8B2FFF741FF98498889FFF734FFD7
:1007F0002812FFF73AFFE8B2FFF737FF934949881D
:10080000491EC1F30F20FFF730FF90498978491E38
:10081000C8B2FFF72AFF39E08C48808845F21051B2
:10082000884220D189494889FFF716FF2012FFF737
:100830001CFF86494989491C88B2FFF70DFFE0B2C9
:10084000FFF713FF81498889FFF706FF2812FFF79A
:100850000CFF7E498989491C88B2FFF7FDFEE8B28A
:10086000FFF703FF12E079488079012804D1774827
:100870000088401E001B84B2744948892146FFF756
:1008800006FF724988892946FFF701FF30BD2DE92F
:10089000F04105460E4600240027A0466B4800881C
:1008A000A84203DD69484088B04202DC0020BDE870
:1008B000F08131462846FFF719FF6448808849F2E5
:1008C0004131884211D06148808846F6040188424F
:1008D0000BD05E48808845F21031884205D05B48D5
:1008E000808841F66311884203D12E20FFF7B4FEC1
:1008F0000DE05648808845F21051884204D14FF4EB
:100900003850FFF7A9FE02E02220FFF7A5FE4F486E
:10091000808849F22031884202D10220FFF7DFFEB1
:10092000FFF7ADFE04464948808841F663118842CE
:1009300001D12046BBE70220FFF7D1FEFFF79FFE63
:1009400004464248808849F2413188420BD03F48F2
:10095000808845F21031884205D03C48808845F2B5
:10096000105188420AD10220FFF7B9FEFFF787FE37
:100970008046E7B24FF6FF7000EA072733488088C9
:1009800049F22531884216D03048808844F23551EA
:10099000884210D02D488088091F88420BD02B48F0
:1009A00080884BF20551884205D0284880884CF257
:1009B0000551884201D1204679E72448808849F2D0
:1009C000413188420BD02148808845F2103188425D
:1009D00005D01E48808845F21051884207D1E012A8
:1009E000C002B91240EA411040EAE8205FE7204621
:1009F000FFF768FE5BE700B51448808849F2413193
:100A0000884211D01148808846F6040188420BD0F4
:100A10000E48808845F21031884205D00B48808806
:100A200041F66311884203D12920FFF715FE14E037
:100A30000648808845F21051884209D14FF424506D
:100A4000FFF70AFE09E000007E00006CB8030020FA
:100A500040F273110720FFF71AFE00BD00B5FD48F4
:100A6000808849F24131884211D0FA48808846F6A0
:100A7000040188420BD0F748808845F21031884243
:100A800005D0F448808841F66311884203D12820BC
:100A9000FFF7E2FD0EE0EF48808845F210518842F2
:100AA00004D14FF42050FFF7D7FD03E000210720C9
:100AB000FFF7EDFD00BDF0B5054600240027E54831
:100AC000807901280BD1E348808846F604018842EA
:100AD00005D0E048808841F66311884208D1DD489E
:100AE0008079F0B9DB48808841F66311884218D1DB
:100AF000082D15D2DFE805F00406080A0C0E1012C6
:100B000006250DE007250BE0042509E0052507E093
:100B1000012505E0002503E0032501E0022500BFD3
:100B200000BFCC48808849F24131884217D0C9487B
:100B3000808846F60401884211D0C648808845F274
:100B4000103188420BD0C348808845F2105188424A
:100B500005D0C048808841F6631188427ED1082DB7
:100B60001CD2DFE805F00406090C0F12151800BFAF
:100B700014E044F0800411E044F040040EE044F03E
:100B8000C0040BE044F0200408E044F0600405E0F9
:100B900044F0A00402E044F0E00400BF00BFAD4810
:100BA000808845F21051884202D14FF4585700E036
:100BB0003627A848808845F2103188420DD0A548D4
:100BC000808845F21051884207D0A248808841F6BB
:100BD0006311884201D044F008049E48808846F69C
:100BE0000401884201D144F0020421463846FFF74F
:100BF0004EFD9848808841F6631188421DD004F06C
:100C0000200068B19348008892494988884214DAE4
:100C10009048068840888F490880084646800CE046
:100C20008C4800888B494988884206DD89480688B7
:100C3000408888490880084646808648808845F272
:100C40001051884254D183494889FFF705FD00209F
:100C5000FFF70BFD7F494989491C00E077E088B226
:100C6000FFF7FAFC0020FFF700FD7A494989891C4B
:100C700088B2FFF7F1FC77490988491EC1F30F20BC
:100C8000FFF7F3FC73494989C91C88B2FFF7E4FCFC
:100C900070490978491EC8B2FFF7E7FC6D49888999
:100CA000FFF7DAFC0020FFF7E0FC6A498989491C5C
:100CB00088B2FFF7D1FC0020FFF7D7FC654989898E
:100CC000891C88B2FFF7C8FC62494988491EC1F3F4
:100CD0000F20FFF7CAFC5F498989C91C88B2FFF75A
:100CE000BBFC5C498978491EC8B2FFF7BEFC55E0E1
:100CF00058494889FFF7B0FC0020FFF7B6FC0020F8
:100D0000FFF7B3FC53490988491EC1F30F20FFF7D1
:100D1000ACFC50490978491EC8B2FFF7A6FC4D4902
:100D20008889FFF799FC0020FFF79FFC0020FFF760
:100D30009CFC48494988491EC1F30F20FFF795FCE8
:100D400044498978491EC8B2FFF78FFC26E0082D78
:100D50001CD2DFE805F004070A0D0F12151844F045
:100D6000300413E044F0100410E044F020040DE0DF
:100D700000BF0BE044F0380408E044F0280405E02C
:100D800044F0180402E044F0080400BF00BF032749
:100D900044F4805421463846FFF779FCF0BD30B565
:100DA00004460D4629462046FFF7A0FCFFF781FCCC
:100DB000294800882949088030BD70B504460D4691
:100DC00016462448808849F24131884205D021489E
:100DD000808845F21031884214D11E494889FFF7B6
:100DE0003BFC2012FFF741FCE0B2FFF73EFC194943
:100DF0008889FFF731FC2812FFF737FCE8B2FFF7CC
:100E000034FC93E01348808845F21051884227D182
:100E100010494889FFF720FC2012FFF726FC0D49F6
:100E20004989491C88B2FFF717FCE0B2FFF71DFCA7
:100E300008498889FFF710FC2812FFF716FC0549BE
:100E40008989491C88B2FFF707FCE8B2FFF70DFC5F
:100E50006CE00000B8030020140000208000006C4B
:100E6000FE48808841F66311884228D1FB4880798A
:100E700020B9FA480088401E001B84B2F74948890F
:100E8000FFF7EAFB2012FFF7F0FBE0B2FFF7EDFB04
:100E90002012FFF7EAFBE0B2FFF7E7FBEF49888992
:100EA000FFF7DAFB2812FFF7E0FBE8B2FFF7DDFB04
:100EB0002812FFF7DAFBE8B2FFF7D7FB36E0E74886
:100EC000808846F6040188421DD1E44880790128D3
:100ED00004D1E2480088401E001B84B2DF494889E3
:100EE000FFF7BAFB2012FFF7C0FBE0B2FFF7BDFB34
:100EF000DA498889FFF7B0FB2812FFF7B6FBE8B2A2
:100F0000FFF7B3FB12E0D5488079012804D1D3481C
:100F10000088401E001B84B2D04948892146FFF753
:100F2000B6FBCE4988892946FFF7B1FBCB4800893B
:100F3000CB4908804FF0D840A0F8806070BD70B5F4
:100F40002DED048B0446BE20FFF786FB0520FFF73E
:100F50008CFB20460FF03DFB41EC190B9FEDC10BC4
:100F600053EC102B0FF048FB41EC180B0FF004FB77
:100F700085B22846FFF779FB0120FFF776FBFF20BB
:100F8000FFF773FB0020FFF770FB0020FFF76DFBFE
:100F9000BDEC048B70BD10B50446002C66D1AF4982
:100FA0008871F02008804FF4A0704880084680883F
:100FB00049F2413188420BD0A848808846F60401A6
:100FC000884205D0A548808845F2103188421AD160
:100FD0002C20A24908812A2048812B20888108469C
:100FE000808846F60401884205D09C48808845F2F6
:100FF0001031884206D14FF4A070984908804FF410
:10100000F0704880A1E09548808845F210518842F0
:1010100010D14FF43050914908814FF42850488145
:101020004FF42C5088814FF4F07008804FF44870D2
:1010300048808AE08948808841F6631188420DD152
:101040002C20864908812B2048812A2088814FF452
:10105000F07008804FF44870488076E022207F4985
:10106000088120204881212088816EE001207B4971
:1010700088714FF4A0700880F0204880084680886E
:1010800049F24131884205D07448808845F21031D8
:10109000884207D12C20714908812A2048812B20C1
:1010A00088813FE06D48808846F60401884207D178
:1010B0002C206A4908812B2048812A20888131E030
:1010C0006648808845F21051884210D14FF4305064
:1010D000624908814FF4285048814FF42C50888190
:1010E0004FF4487008804FF4F07048801AE05B4875
:1010F000808841F6631188420DD12C205749088120
:101100002A2048812B2088814FF4487008804FF4B2
:10111000F070488006E02220504908812120488153
:10112000202088814D48808846F60401884205D0F9
:101130004A48808845F21031884206D14FF4F07059
:10114000464908804FF4A07048800020FFF7B3FCA8
:1011500010BD2DE9F04F86B004460D4690469946E5
:1011600004EB0800401E86B205EB0900401E87B262
:101170003A48808849F24131884215D03748808802
:1011800045F2103188420FD03448808846F6040179
:10119000884209D031488079012826D12F4880889B
:1011A00041F66311884220D12C494889FFF754FA4F
:1011B0002012FFF75AFAE0B2FFF757FA3012FFF7A2
:1011C00054FAF0B2FFF751FA24498889FFF744FA3C
:1011D0002812FFF74AFAE8B2FFF747FA3812FFF78A
:1011E00044FAF8B2FFF741FAC1E01C48808841F6A2
:1011F000631188423DD119480088A0EB0800001B0C
:1012000084B205EB0900401E1FFA80F91349488992
:10121000FFF722FA2012FFF728FAE0B2FFF725FACB
:1012200004EB0801491EC1F30F20FFF71EFA04EB7F
:101230000801491EC8B2FFF718FA08498889FFF764
:101240000BFA2812FFF711FAE8B2FFF70EFA4FEA8D
:101250002920FFF70AFA09F0FF0007E0B803002091
:101260007E00006C6666666666660440FFF7FDF900
:101270007DE0FE48808845F21051884244D1FB4908
:101280004889FFF7E9F92012FFF7EFF9F749498993
:10129000491C88B2FFF7E0F9E0B2FFF7E6F9F3493D
:1012A0004989891C88B2FFF7D7F93012FFF7DDF9B9
:1012B000EE494989C91C88B2FFF7CEF9F0B2FFF7B1
:1012C000D4F9EA498889FFF7C7F92812FFF7CDF961
:1012D000E6498989491C88B2FFF7BEF9E8B2FFF7F1
:1012E000C4F9E2498989891C88B2FFF7B5F9381237
:1012F000FFF7BBF9DD498989C91C88B2FFF7ACF952
:10130000F8B2FFF7B2F932E0D848807901280ED15F
:10131000AA46BB46D5480088801B401E80B201907B
:10132000D2480088001B401E80B2009003E0A24615
:10133000B34601950097502005905120049052200B
:1013400003905320029051460598FFF7A0F95946A3
:101350000498FFF79CF901990398FFF798F9009911
:101360000298FFF794F929462046FFF7BFF906B027
:10137000BDE8F08F70B504460026BC48058840885B
:101380004543BA48808846F60401884216D1B748DA
:101390008079012812D10020B44988712A2048811F
:1013A0002B20888100210846FFF7A0F90120AF49D2
:1013B00088712B2048812A20888103E0002108467B
:1013C000FFF794F9FFF775F9002602E0A8480480BA
:1013D000761CAE42FAD370BD00B5A1B000202090BB
:1013E00001217A2007F08CFA0121084607F0C0FAA3
:1013F0004FF400401E9001208DF87C0000208DF8F5
:101400007E0002208DF87D0001208DF87F001EA94E
:10141000984806F0F3FC4CF233701E9002208DF8D1
:101420007C0000208DF87E0003208DF87D000120D7
:101430008DF87F001EA9904806F0E0FC4FF6807002
:101440001E9002208DF87C0000208DF87E00032085
:101450008DF87D0001208DF87F001EA9874806F0D9
:10146000CDFC4FF480501E9002208DF87C000020AF
:101470008DF87E0003208DF87D0001208DF87F001F
:101480001EA97F4806F0BAFC4FF480501E9002203F
:101490008DF87C0000208DF87E0003208DF87D0003
:1014A00001208DF87F001EA9764806F0A7FC0C22CB
:1014B0000021714806F02DFD0C2201216E4806F036
:1014C00028FD0C2204216C4806F023FD0C22052186
:1014D000694806F01EFD0C220821674806F019FD38
:1014E0000C220921644806F014FD0C220A216248EE
:1014F00006F00FFD0C220E215F4806F00AFD0C22BB
:101500000F215D4806F005FD0C2207215B4806F01F
:1015100000FD0C220821594806F0FBFC0C22092191
:10152000564806F0F6FC0C220A21544806F0F1FC5D
:101530000C220B21514806F0ECFC0C2211464F48BE
:1015400006F0E7FC0C220D214C4806F0E2FC0C22D0
:101550000E214A4806F0DDFC0C220F21474806F018
:10156000D8FC0C221146464806F0D3FC0C2211464A
:10157000444806F0CEFC0F200890002009903C2043
:101580000A9000200B900C900D900E900920019075
:1015900000200290082003900020049005900690FF
:1015A000079006200F9000201090119010201290AC
:1015B0000020139015901490169017904FF48050BF
:1015C0001890002019904FF480401A9000201B9032
:1015D00008A81C9001A81D900FA806F0EEFC0121A0
:1015E000062006F075FD322006F02CFA01210020BD
:1015F000FFF74DF8322006F025FA0020FFF74EF8ED
:101600001A49888008468088FF280ADB08468088B7
:101610004FF6FF71884204D014488088B0F5134F0C
:101620007ED1D320FFF718F8FFF729F80F498880FB
:10163000FFF725F80D498880FFF721F80B498880CE
:10164000084680884FF6FF7101EA0020074988802C
:10165000FFF715F80549898808430449888008463A
:10166000808849F2413188425AD00DE0B803002009
:101670008000006C00040240000C02400010024098
:101680000014024000180240BF20FEF7E5FFFEF7FD
:10169000F6FFFE498880FEF7F2FFFC498880FEF7DE
:1016A000EEFFFA498880FEF7EAFFF849888008468D
:1016B00080884FF6FF7101EA0020F4498880FEF728
:1016C000DEFFF24989880843F0498880084680880F
:1016D00046F6040188427AD0D420FEF7BDFFFEF71B
:1016E000CEFFEA498880FEF7CAFFE8498880FEF706
:1016F000C6FFE6498880084680884FF6FF7101EAF8
:101700000020E2498880FEF7BAFFE0498988084353
:10171000DE4988800846808845F21031884200E022
:1017200055E054D04FF45A40FEF796FFFEF7A7FF5E
:10173000D64988804FF45B40FEF78EFFFEF79FFF8F
:10174000D2498880084680884FF6FF7101EA002060
:10175000CE4988804FF45C40FEF77EFFFEF78FFF96
:10176000CA4989880843C949888008468088B0F5F5
:10177000004F02D145F210508880C448808845F25D
:101780001051884223D0A120FEF766FFFEF777FFB5
:10179000BE498880FEF773FFBC4988800846808870
:1017A0004FF6FF7101EA0020B8498880FEF767FF15
:1017B000B64989880843B54988800846808845F23B
:1017C0006171884203D141F66310B0498880AF4807
:1017D000808849F24131884211D0AC48808845F276
:1017E000103188420BD0A948808845F210518842B8
:1017F00005D0A648808841F6631188421DD1A448CF
:10180000006820F00F004FF02041C1F81C0108468D
:10181000D0F81C0120F47060C1F81C010846D0F813
:101820001C0140F00300C1F81C010846D0F81C015F
:1018300040F40070C1F81C0128E09448808846F606
:101840000401884205D0914880884CF205518842B5
:101850001CD18F48006820F00F004FF02041C1F8E4
:101860001C010846D0F81C0120F47060C1F81C016E
:101870000846D0F81C0140F00A00C1F81C010846D7
:10188000D0F81C0140F44060C1F81C017F488188F9
:1018900080A00EF0B1FA7D48808849F2413188423B
:1018A0007ED1CF20FEF7D8FE0020FEF7DEFEC1205D
:1018B000FEF7DBFE3020FEF7D8FEED20FEF7CCFE73
:1018C0006420FEF7D2FE0320FEF7CFFE1220FEF7C3
:1018D000CCFE8120FEF7C9FEE820FEF7BDFE852084
:1018E000FEF7C3FE1020FEF7C0FE7A20FEF7BDFE15
:1018F000CB20FEF7B1FE3920FEF7B7FE2C20FEF715
:10190000B4FE0020FEF7B1FE3420FEF7AEFE02204A
:10191000FEF7ABFEF720FEF79FFE2020FEF7A5FEA8
:10192000EA20FEF799FE0020FEF79FFE0020FEF75A
:101930009CFEC020FEF790FE1B20FEF796FEC12005
:10194000FEF78AFE0120FEF790FEC520FEF784FE1A
:101950003020FEF78AFE3020FEF787FEC720FEF714
:101960007BFEB720FEF781FE3620FEF775FE48208D
:10197000FEF77BFE3A20FEF76FFE5520FEF775FE60
:10198000B120FEF769FE0020FEF76FFE1A20FEF779
:101990006CFEB620FEF760FE0A20FEF766FE00E051
:1019A000A5E0A220FEF761FEF220FEF755FE002022
:1019B000FEF75BFE2620FEF74FFE0120FEF755FEE8
:1019C000E020FEF749FE0F20FEF74FFE2A20FEF72B
:1019D0004CFE2820FEF749FE0820FEF746FE0E20AA
:1019E000FEF743FE0820FEF740FE5420FEF73DFEC2
:1019F000A920FEF73AFE4320FEF737FE0A20FEF745
:101A000034FE0F20FEF731FE0020FEF72EFE0020F0
:101A1000FEF72BFE0020FEF728FE0020FEF725FE35
:101A2000E120FEF719FE0020FEF71FFE1520FEF74D
:101A30001CFE1720FEF719FE0720FEF716FE1120E8
:101A4000FEF713FE0620FEF710FE2B20FEF70DFE1C
:101A50005620FEF70AFE3C20FEF707FE0520FEF7A3
:101A600004FE1020FEF701FE0F20FEF7FEFD3F20D2
:101A7000FEF7FBFD3F20FEF7F8FD0F20FEF7F5FD1A
:101A80002B20FEF7E9FD00200CE00000B803002049
:101A90001C0100A0204C43442049443A25780D0AFB
:101AA00000000000FEF7E1FD0020FEF7DEFD012052
:101AB000FEF7DBFD3F20FEF7D8FD2A20FEF7CCFD28
:101AC0000020FEF7D2FD0020FEF7CFFD0020FEF73C
:101AD000CCFDEF20FEF7C9FD1120FEF7BDFD7820FB
:101AE00005F0B0FF2920FEF7B7FD03F01DB9FE4851
:101AF000808846F6040188427ED11120FEF7ACFDB5
:101B0000142005F09FFFD020FEF7A6FD0720FEF76A
:101B1000ACFD4220FEF7A9FD1D20FEF7A6FDD12059
:101B2000FEF79AFD0020FEF7A0FD1A20FEF79DFDAE
:101B30000920FEF79AFDD220FEF78EFD0120FEF768
:101B400094FD2220FEF791FDC020FEF785FD1020B8
:101B5000FEF78BFD3B20FEF788FD0020FEF785FD9C
:101B60000220FEF782FD1120FEF77FFDC520FEF763
:101B700073FD0320FEF779FDC820FEF76DFD002000
:101B8000FEF773FD2520FEF770FD2120FEF76DFDA9
:101B90000520FEF76AFD0020FEF767FD0A20FEF72C
:101BA00064FD6520FEF761FD2520FEF75EFD7720D0
:101BB000FEF75BFD5020FEF758FD0F20FEF755FDA8
:101BC0000020FEF752FDF820FEF746FD0120FEF74B
:101BD0004CFDFE20FEF740FD0020FEF746FD0220F2
:101BE000FEF743FD2020FEF737FD3620FEF734FDDB
:101BF0000820FEF73AFD00E02AE03A20FEF72CFD2F
:101C00005520FEF732FD2B20FEF726FD0020FEF7C3
:101C10002CFD0020FEF729FD0120FEF726FD3F20C8
:101C2000FEF723FD2A20FEF717FD0020FEF71DFD1D
:101C30000020FEF71AFD0120FEF717FDDF20FEF75A
:101C400014FD782005F0FEFE2920FEF705FD4CE787
:101C5000A548808845F21031884240F07C87ED200D
:101C6000FEF7FAFC0120FEF700FDFE20FEF7FDFC6A
:101C7000EE20FEF7F1FCDE20FEF7F7FC2120FEF758
:101C8000F4FCF120FEF7E8FC0120FEF7EEFCDF207B
:101C9000FEF7E2FC1020FEF7E8FCC420FEF7DCFCB7
:101CA0008F20FEF7E2FCC620FEF7D6FC0020FEF7F0
:101CB000DCFCE220FEF7D9FCE220FEF7D6FCE220B5
:101CC000FEF7D3FCBF20FEF7C7FCAA20FEF7CDFC31
:101CD000B020FEF7C1FC0D20FEF7C7FC0020FEF788
:101CE000C4FC0D20FEF7C1FC0020FEF7BEFC112055
:101CF000FEF7BBFC0020FEF7B8FC1920FEF7B5FC90
:101D00000020FEF7B2FC2120FEF7AFFC0020FEF71A
:101D1000ACFC2D20FEF7A9FC0020FEF7A6FC3D2020
:101D2000FEF7A3FC0020FEF7A0FC5D20FEF79DFC63
:101D30000020FEF79AFC5D20FEF797FC0020FEF7DE
:101D400094FCB120FEF788FC8020FEF78EFC00207A
:101D5000FEF78BFC8B20FEF788FC0020FEF785FC4D
:101D60009620FEF782FC0020FEF77FFCB220FEF7F3
:101D700073FC0020FEF779FC0020FEF776FC0220C1
:101D8000FEF773FC0020FEF770FC0320FEF76DFCED
:101D90000020FEF76AFCB320FEF75EFC0020FEF791
:101DA00064FC0020FEF761FC0020FEF75EFC0020D2
:101DB000FEF75BFC0020FEF758FC0020FEF755FC08
:101DC0000020FEF752FC0020FEF74FFC0020FEF73B
:101DD0004CFC0020FEF749FC0020FEF746FC0020EA
:101DE000FEF743FC0020FEF740FC0020FEF73DFC20
:101DF0000020FEF73AFC0020FEF737FC0020FEF73B
:101E000034FC0020FEF731FC0020FEF72EFC002001
:101E1000FEF72BFC0020FEF728FC0020FEF725FC37
:101E20000020FEF722FC0020FEF71FFCB420FEF786
:101E300013FC8B20FEF719FC0020FEF716FC962001
:101E4000FEF713FC0020FEF710FCA120FEF70DFCAE
:101E50000020FEF70AFCB520FEF7FEFB0220FEF78D
:101E600004FC0020FEF701FC0320FEF7FEFB00202F
:101E7000FEF7FBFB0420FEF7F8FB0020FEF7F5FB66
:101E8000B620FEF7E9FB0020FEF7EFFB0020FEF78F
:101E9000ECFBB720FEF7E0FB0020FEF7E6FB00209E
:101EA000FEF7E3FB3F20FEF7E0FB0020FEF7DDFB43
:101EB0005E20FEF7DAFB0020FEF7D7FB6420FEF77A
:101EC000D4FB0020FEF7D1FB8C20FEF7CEFB0020D8
:101ED000FEF7CBFBAC20FEF7C8FB0020FEF7C5FBEE
:101EE000DC20FEF7C2FB01E0B80300200020FEF773
:101EF000BCFB7020FEF7B9FB0020FEF7B6FB90207C
:101F0000FEF7B3FB0020FEF7B0FBEB20FEF7ADFBC6
:101F10000020FEF7AAFBDC20FEF7A7FB0020FEF75F
:101F2000A4FBB820FEF798FB0020FEF79EFB0020E4
:101F3000FEF79BFB0020FEF798FB0020FEF795FBC9
:101F40000020FEF792FB0020FEF78FFB0020FEF73B
:101F50008CFB0020FEF789FBBA20FEF77DFB2420D6
:101F6000FEF783FB0020FEF780FB0020FEF77DFBE1
:101F70000020FEF77AFBC120FEF76EFB2020FEF763
:101F800074FB0020FEF771FB5420FEF76EFB00206F
:101F9000FEF76BFBFF20FEF768FB0020FEF765FBFA
:101FA000C220FEF759FB0A20FEF75FFB0020FEF778
:101FB0005CFB0420FEF759FB0020FEF756FBC32014
:101FC000FEF74AFB3C20FEF750FB0020FEF74DFBDE
:101FD0003A20FEF74AFB0020FEF747FB3920FEF7C8
:101FE00044FB0020FEF741FB3720FEF73EFB0020BC
:101FF000FEF73BFB3C20FEF738FB0020FEF735FBED
:102000003620FEF732FB0020FEF72FFB3220FEF7D2
:102010002CFB0020FEF729FB2F20FEF726FB0020DB
:10202000FEF723FB2C20FEF720FB0020FEF71DFB14
:102030002920FEF71AFB0020FEF717FB2620FEF7EB
:1020400014FB0020FEF711FB2420FEF70EFB0020FE
:10205000FEF70BFB2420FEF708FB0020FEF705FB34
:102060002320FEF702FB0020FEF7FFFA3C20FEF7DC
:10207000FCFA0020FEF7F9FA3620FEF7F6FA002007
:10208000FEF7F3FA3220FEF7F0FA0020FEF7EDFA41
:102090002F20FEF7EAFA0020FEF7E7FA2C20FEF7E1
:1020A000E4FA0020FEF7E1FA2920FEF7DEFA00202C
:1020B000FEF7DBFA2620FEF7D8FA0020FEF7D5FA65
:1020C0002420FEF7D2FA0020FEF7CFFA2420FEF7F4
:1020D000CCFA0020FEF7C9FA2320FEF7C6FA00204A
:1020E000FEF7C3FAC420FEF7B7FA6220FEF7BDFA86
:1020F0000020FEF7BAFA0520FEF7B7FA0020FEF737
:10210000B4FA8420FEF7B1FA0020FEF7AEFAF02010
:10211000FEF7ABFA0020FEF7A8FA1820FEF7A5FAA2
:102120000020FEF7A2FAA420FEF79FFA0020FEF797
:102130009CFA1820FEF799FA0020FEF796FA502034
:10214000FEF793FA0020FEF790FA0C20FEF78DFAC6
:102150000020FEF78AFA1720FEF787FA0020FEF724
:1021600084FA9520FEF781FA0020FEF77EFAF3202C
:10217000FEF77BFA0020FEF778FAE620FEF775FA04
:102180000020FEF772FAC520FEF766FA3220FEF74D
:102190006CFA0020FEF769FA4420FEF766FA002088
:1021A000FEF763FA6520FEF760FA0020FEF75DFA9D
:1021B0007620FEF75AFA0020FEF757FA8820FEF73D
:1021C00054FA0020FEF751FAC620FEF745FA202007
:1021D000FEF74BFA0020FEF748FA1720FEF745FA03
:1021E0000020FEF742FA0120FEF73FFA0020FEF73A
:1021F0003CFAC720FEF730FA0020FEF736FA00203E
:10220000FEF733FA0020FEF730FA0020FEF72DFA31
:10221000C820FEF721FA0020FEF727FA0020FEF77B
:1022200024FA0020FEF721FA0020FEF71EFAC9204A
:10223000FEF712FA0020FEF718FA0020FEF715FA52
:102240000020FEF712FA0020FEF70FFA0020FEF73A
:102250000CFA0020FEF709FA0020FEF706FA00202B
:10226000FEF703FA0020FEF700FA0020FEF7FDF962
:102270000020FEF7FAF90020FEF7F7F90020FEF73C
:10228000F4F90020FEF7F1F90020FEF7EEF9002046
:10229000FEF7EBF9E020FEF7DFF91620FEF7E5F98F
:1022A0000020FEF7E2F91C20FEF7DFF90020FEF720
:1022B000DCF92120FEF7D9F90020FEF7D6F9362007
:1022C000FEF7D3F90020FEF7D0F94620FEF7CDF94E
:1022D0000020FEF7CAF95220FEF7C7F90020FEF7EA
:1022E000C4F96420FEF7C1F90020FEF7BEF97A2098
:1022F000FEF7BBF90020FEF7B8F98B20FEF7B5F921
:102300000020FEF7B2F99920FEF7AFF90020FEF7A2
:10231000ACF9A820FEF7A9F90020FEF7A6F9B9202C
:10232000FEF7A3F90020FEF7A0F9C420FEF79DF9FF
:102330000020FEF79AF9CA20FEF797F90020FEF771
:1023400094F9D220FEF791F90020FEF78EF9D920FA
:10235000FEF78BF90020FEF788F9E020FEF785F9FB
:102360000020FEF782F9F320FEF77FF90020FEF748
:102370007CF9E120FEF770F91620FEF776F90020CF
:10238000FEF773F91C20FEF770F90020FEF76DF9D7
:102390002220FEF76AF90020FEF767F93620FEF7E3
:1023A00064F90020FEF761F94520FEF75EF9002090
:1023B000FEF75BF95220FEF758F90020FEF755F9B9
:1023C0006420FEF752F90020FEF74FF97A20FEF75D
:1023D0004CF90020FEF749F98B20FEF746F9002062
:1023E000FEF743F99920FEF740F90020FEF73DF98A
:1023F000A820FEF73AF90020FEF737F9B920FEF7DA
:1024000034F90020FEF731F9C420FEF72EF9002040
:10241000FEF72BF9CA20FEF728F90020FEF725F970
:10242000D220FEF722F90020FEF71FF9D820FEF790
:102430001CF90020FEF719F9E020FEF716F900203C
:10244000FEF713F9F320FEF710F90020FEF70DF95F
:10245000E220FEF701F90520FEF707F90020FEF75C
:1024600004F90B20FEF701F90020FEF7FEF81B200F
:10247000FEF7FBF80020FEF7F8F83420FEF7F5F839
:102480000020FEF7F2F84420FEF7EFF80020FEF7F8
:10249000ECF84F20FEF7E9F80020FEF7E6F861209F
:1024A000FEF7E3F80020FEF7E0F87920FEF7DDF80C
:1024B0000020FEF7DAF88820FEF7D7F80020FEF7B4
:1024C000D4F89720FEF7D1F80020FEF7CEF8A6202A
:1024D000FEF7CBF80020FEF7C8F8B720FEF7C5F8E6
:1024E0000020FEF7C2F8C220FEF7BFF80020FEF77A
:1024F000BCF8C720FEF7B9F80020FEF7B6F8D120E7
:10250000FEF7B3F80020FEF7B0F8D620FEF7ADF8DE
:102510000020FEF7AAF8DD20FEF7A7F80020FEF75E
:10252000A4F8F320FEF7A1F80020FEF79EF8E320C0
:10253000FEF792F80520FEF798F80020FEF795F8D0
:102540000A20FEF792F80020FEF78FF81C20FEF715
:102550008CF80020FEF789F83320FEF786F800207B
:10256000FEF783F84420FEF780F80020FEF77DF8A0
:102570005020FEF77AF80020FEF777F86220FEF789
:1025800074F80020FEF771F87820FEF76EF800204E
:10259000FEF76BF88820FEF768F80020FEF765F874
:1025A0009720FEF762F80020FEF75FF8A620FEF7FE
:1025B0005CF80020FEF759F8B720FEF756F8002027
:1025C000FEF753F8C220FEF750F80020FEF74DF852
:1025D000C720FEF74AF80020FEF747F8D120FEF7A3
:1025E00044F80020FEF741F8D520FEF73EF8002021
:1025F000FEF73BF8DD20FEF738F80020FEF735F84F
:10260000F320FEF732F80020FEF72FF8E420FEF763
:1026100023F80120FEF729F80020FEF726F8012014
:10262000FEF723F80020FEF720F80220FEF71DF841
:102630000020FEF71AF82A20FEF717F80020FEF710
:1026400014F83C20FEF711F80020FEF70EF84B209E
:10265000FEF70BF80020FEF708F85D20FEF705F8FE
:102660000020FEF702F87420FDF7FFFF0020FDF7C1
:10267000FCFF8420FDF7F9FF0020FDF7F6FF932013
:10268000FDF7F3FF0020FDF7F0FFA220FDF7EDFFBF
:102690000020FDF7EAFFB320FDF7E7FF0020FDF77C
:1026A000E4FFBE20FDF7E1FF0020FDF7DEFFC420C0
:1026B000FDF7DBFF0020FDF7D8FFCD20FDF7D5FFAC
:1026C0000020FDF7D2FFD320FDF7CFFF0020FDF75C
:1026D000CCFFDD20FDF7C9FF0020FDF7C6FFF3208A
:1026E000FDF7C3FF0020FDF7C0FFE520FDF7B4FFB5
:1026F0000020FDF7BAFF0020FDF7B7FF0020FDF72F
:10270000B4FF0020FDF7B1FF0220FDF7AEFF00206F
:10271000FDF7ABFF2920FDF7A8FF0020FDF7A5FF7F
:102720003C20FDF7A2FF0020FDF79FFF4B20FDF7A7
:102730009CFF0020FDF799FF5D20FDF796FF00202C
:10274000FDF793FF7420FDF790FF0020FDF78DFF4C
:102750008420FDF78AFF0020FDF787FF9320FDF717
:1027600084FF0020FDF781FFA220FDF77EFF0020FF
:10277000FDF77BFFB320FDF778FF0020FDF775FF25
:10278000BE20FDF772FF0020FDF76FFFC420FDF7AC
:102790006CFF0020FDF769FFCD20FDF766FF0020EC
:1027A000FDF763FFD320FDF760FF0020FDF75DFF1D
:1027B000DC20FDF75AFF0020FDF757FFF320FDF75F
:1027C00054FF0020FDF751FFE620FDF745FF1120E3
:1027D000FDF74BFF0020FDF748FF3420FDF745FFD4
:1027E0000020FDF742FF5620FDF73FFF0020FDF7D8
:1027F0003CFF7620FDF739FF0020FDF736FF7720FC
:10280000FDF733FF0020FDF730FF6620FDF72DFFB9
:102810000020FDF72AFF8820FDF727FF0020FDF7A5
:1028200024FF9920FDF721FF0020FDF71EFFBB20AC
:10283000FDF71BFF0020FDF718FF9920FDF715FF9E
:102840000020FDF712FF6620FDF70FFF0020FDF7C7
:102850000CFF5520FDF709FF0020FDF706FF55206E
:10286000FDF703FF0020FDF700FF4520FDF7FDFE0B
:102870000020FDF7FAFE4320FDF7F7FE0020FDF7EC
:10288000F4FE4420FDF7F1FE0020FDF7EEFEE72008
:10289000FDF7E2FE3220FDF7E8FE0020FDF7E5FE41
:1028A0005520FDF7E2FE0020FDF7DFFE7620FDF764
:1028B000DCFE0020FDF7D9FE6620FDF7D6FE0020E5
:1028C000FDF7D3FE6720FDF7D0FE0020FDF7CDFE1B
:1028D0006720FDF7CAFE0020FDF7C7FE8720FDF741
:1028E000C4FE0020FDF7C1FE9920FDF7BEFE0020CA
:1028F000FDF7BBFEBB20FDF7B8FE0020FDF7B5FEDF
:102900009920FDF7B2FE0020FDF7AFFE7720FDF71E
:10291000ACFE0020FDF7A9FE4420FDF7A6FE002036
:10292000FDF7A3FE5620FDF7A0FE0020FDF79DFE5B
:102930002320FDF79AFE0020FDF797FE3320FDF7D8
:1029400094FE0020FDF791FE4520FDF78EFE00204D
:10295000FDF78BFEE820FDF77FFE0020FDF785FEEA
:102960000020FDF782FE9920FDF77FFE0020FDF795
:102970007CFE8720FDF779FE0020FDF776FE88209B
:10298000FDF773FE0020FDF770FE7720FDF76DFE6A
:102990000020FDF76AFE6620FDF767FE0020FDF7C8
:1029A00064FE8820FDF761FE0020FDF75EFEAA2090
:1029B000FDF75BFE0020FDF758FEBB20FDF755FE3E
:1029C0000020FDF752FE9920FDF74FFE0020FDF795
:1029D0004CFE6620FDF749FE0020FDF746FE55201F
:1029E000FDF743FE0020FDF740FE5520FDF73DFEBC
:1029F0000020FDF73AFE4420FDF737FE0020FDF7EA
:102A000034FE4420FDF731FE0020FDF72EFE552058
:102A1000FDF72BFE0020FDF728FEE920FDF71CFE48
:102A2000AA20FDF722FE0020FDF71FFE0020FDF783
:102A30001CFE0020FDF719FE0020FDF70DFEAA2068
:102A4000FDF713FECF20FDF707FE0020FDF70DFE7A
:102A50000020FDF70AFE0020FDF707FE0020FDF72D
:102A600004FE0020FDF701FE0020FDF7FEFD002022
:102A7000FDF7FBFD0020FDF7F8FD0020FDF7F5FD5B
:102A80000020FDF7F2FD0020FDF7EFFD0020FDF72F
:102A9000ECFD0020FDF7E9FD0020FDF7E6FD00203C
:102AA000FDF7E3FD0020FDF7E0FD0020FDF7DDFD73
:102AB000F020FDF7D1FD0020FDF7D7FD5020FDF7F8
:102AC000D4FD0020FDF7D1FD0020FDF7CEFD002054
:102AD000FDF7CBFDF320FDF7BFFD0020FDF7C5FDA1
:102AE000F920FDF7B9FD0620FDF7BFFD1020FDF729
:102AF000BCFD2920FDF7B9FD0020FDF7B6FD3A2009
:102B0000FDF7AAFD5520FDF7B0FD1120FDF7A4FD4E
:102B1000642004F097FF2920FDF79EFD3520FDF786
:102B20009BFD0020FDF7A1FD5120FDF795FDFF2045
:102B3000FDF79BFD5320FDF78FFD2C20FDF795FD44
:102B40005520FDF789FD8220FDF78FFD2C20FDF734
:102B500083FD02F0E9B8FE48808845F210518842B2
:102B60007ED155214FF47040FDF791FDAA214FF21F
:102B70000100FDF78CFD52214FF20200FDF787FDA9
:102B800008214FF20300FDF782FD01214FF20400FE
:102B9000FDF77DFD0D214FF43040FDF778FD0D214F
:102BA0004BF20100FDF773FD0D214BF20200FDF722
:102BB0006EFD34214FF43640FDF769FD34214BF2B0
:102BC0000160FDF764FD34214BF20260FDF75FFD0B
:102BD0000D214FF43140FDF75AFD0D214BF201104C
:102BE000FDF755FD0D214BF20210FDF750FD34218C
:102BF0004FF43740FDF74BFD34214BF20170FDF7E8
:102C000046FD34214BF20270FDF741FD00214FF4E7
:102C10003240FDF73CFD00214BF20120FDF737FD6E
:102C200000214BF20220FDF732FD24214FF4384001
:102C3000FDF72DFD24214BF60100FDF728FD242191
:102C40004BF60200FDF723FD01214FF43F40FDF755
:102C50001EFD0F214FF43340FDF719FD0F2100E059
:102C6000FEE34BF20130FDF712FD0F214BF2023073
:102C7000FDF70DFD34214FF43940FDF708FD3421F7
:102C80004BF60110FDF703FD34214BF60210FDF762
:102C9000FEFC08214FF43540FDF7F9FC08214BF20A
:102CA0000150FDF7F4FC08214BF20250FDF7EFFC58
:102CB00003214FF44240FDF7EAFC24214FF43A404F
:102CC000FDF7E5FC24214BF60120FDF7E0FC242173
:102CD0004BF60220FDF7DBFC00214FF43C40FDF7F2
:102CE000D6FC78214BF60140FDF7D1FC00214BF6D4
:102CF0000240FDF7CCFC00214FF43D40FDF7C7FC3E
:102D000078214BF60150FDF7C2FC00214BF6025032
:102D1000FDF7BDFC00214FF43E40FDF7B8FC6421F7
:102D20004BF60160FDF7B3FC00214FF45140FDF775
:102D3000AEFC33214DF20110FDF7A9FC00214DF24C
:102D40000210FDF7A4FC34214DF20310FDF79FFCA7
:102D500000214DF20410FDF79AFC3A214DF20510C6
:102D6000FDF795FC00214DF20610FDF790FC4A217D
:102D70004DF20710FDF78BFC00214DF20810FDF716
:102D800086FC5C214DF20910FDF781FC00214DF21B
:102D90000A10FDF77CFC81214DF20B10FDF777FC4A
:102DA00000214DF20C10FDF772FCA6214DF20D1022
:102DB000FDF76DFC00214DF20E10FDF768FCE521DA
:102DC0004DF20F10FDF763FC01214DF21010FDF7DD
:102DD0005EFC13214DF21110FDF759FC01214DF25B
:102DE0001210FDF754FC54214DF21310FDF74FFC67
:102DF00001214DF21410FDF74AFC82214DF215100D
:102E0000FDF745FC01214DF21610FDF740FCCA21EB
:102E10004DF21710FDF73BFC02214DF21810FDF7A3
:102E200036FC00214DF21910FDF731FC02214DF264
:102E30001A10FDF72CFC01214DF21B10FDF727FCA9
:102E400002214DF21C10FDF722FC34214DF21D1021
:102E5000FDF71DFC02214DF21E10FDF718FC672145
:102E60004DF21F10FDF713FC02214DF22010FDF76B
:102E70000EFC84214DF22110FDF709FC02214DF2D8
:102E80002210FDF704FCA4214DF22310FDF7FFFBF7
:102E900002214DF22410FDF7FAFBB7214DF2251067
:102EA000FDF7F5FB02214DF22610FDF7F0FBCF21D7
:102EB0004DF22710FDF7EBFB02214DF22810FDF734
:102EC000E6FBDE214DF22910FDF7E1FB02214DF278
:102ED0002A10FDF7DCFBF2214DF22B10FDF7D7FB9A
:102EE00002214DF22C10FDF7D2FBFE214DF22D10E8
:102EF000FDF7CDFB03214DF22E10FDF7C8FB10218D
:102F00004DF22F10FDF7C3FB03214DF23010FDF7FA
:102F1000BEFB33214DF23110FDF7B9FB03214DF219
:102F20003210FDF7B4FB6D214DF23310FDF7AFFB0E
:102F300000214FF45240FDF7AAFB33214DF201204E
:102F4000FDF7A5FB00214DF20220FDF7A0FB01E0FB
:102F5000B803002034214DF20320FDF798FB002137
:102F60004DF20420FDF793FB3A214DF20520FDF7C9
:102F70008EFB00214DF20620FDF789FB4A214DF220
:102F80000720FDF784FB00214DF20820FDF77FFBB1
:102F90005C214DF20920FDF77AFB00214DF20A2059
:102FA000FDF775FB81214DF20B20FDF770FB002131
:102FB0004DF20C20FDF76BFBA6214DF20D20FDF725
:102FC00066FB00214DF20E20FDF761FBE5214DF27D
:102FD0000F20FDF75CFB01214DF21020FDF757FBA0
:102FE00013214DF21120FDF752FB01214DF2122069
:102FF000FDF74DFB54214DF21320FDF748FB012155
:103000004DF21420FDF743FB82214DF21520FDF710
:103010003EFB01214DF21620FDF739FBCA214DF28E
:103020001720FDF734FB02214DF21820FDF72FFB8E
:1030300000214DF21920FDF72AFB02214DF21A2042
:10304000FDF725FB01214DF21B20FDF720FB02219E
:103050004DF21C20FDF71BFB34214DF21D20FDF726
:1030600016FB02214DF21E20FDF711FB67214DF2E8
:103070001F20FDF70CFB02214DF22020FDF707FB7E
:1030800084214DF22120FDF702FB02214DF2222086
:10309000FDF7FDFAA4214DF22320FDF7F8FA0221F5
:1030A0004DF22420FDF7F3FAB7214DF22520FDF76C
:1030B000EEFA02214DF22620FDF7E9FACF214DF27A
:1030C0002720FDF7E4FA02214DF22820FDF7DFFA70
:1030D000DE214DF22920FDF7DAFA02214DF22A20F5
:1030E000FDF7D5FAF2214DF22B20FDF7D0FA02219F
:1030F0004DF22C20FDF7CBFAFE214DF22D20FDF7ED
:10310000C6FA03214DF22E20FDF7C1FA10214DF22F
:103110002F20FDF7BCFA03214DF23020FDF7B7FA5E
:1031200033214DF23120FDF7B2FA03214DF2322066
:10313000FDF7ADFA6D214DF23320FDF7A8FA00211D
:103140004FF45340FDF7A3FA33214DF20130FDF760
:103150009EFA00214DF20230FDF799FA34214DF22A
:103160000330FDF794FA00214DF20430FDF78FFA99
:103170003A214DF20530FDF78AFA00214DF2063072
:10318000FDF785FA4A214DF20730FDF780FA00215C
:103190004DF20830FDF77BFA5C214DF20930FDF766
:1031A00076FA00214DF20A30FDF771FA81214DF2D5
:1031B0000B30FDF76CFA00214DF20C30FDF767FA89
:1031C000A6214DF20D30FDF762FA00214DF20E30CE
:1031D000FDF75DFAE5214DF20F30FDF758FA0121B8
:1031E0004DF21030FDF753FA13214DF21130FDF777
:1031F0004EFA01214DF21230FDF749FA54214DF2F9
:103200001330FDF744FA01214DF21430FDF73FFA77
:1032100082214DF21530FDF73AFA01214DF21630B8
:10322000FDF735FACA214DF21730FDF730FA0221C9
:103230004DF21830FDF72BFA00214DF21930FDF751
:1032400026FA02214DF21A30FDF721FA01214DF242
:103250001B30FDF71CFA02214DF21C30FDF717FA66
:1032600034214DF21D30FDF712FA02214DF21E30CD
:10327000FDF70DFA67214DF21F30FDF708FA022124
:103280004DF22030FDF703FA84214DF22130FDF795
:10329000FEF902214DF22230FDF7F9F9A4214DF299
:1032A0002330FDF7F4F902214DF22430FDF7EFF958
:1032B000B7214DF22530FDF7EAF902214DF2263013
:1032C000FDF7E5F9CF214DF22730FDF7E0F90221B6
:1032D0004DF22830FDF7DBF9DE214DF22930FDF704
:1032E000D6F902214DF22A30FDF7D1F9F2214DF243
:1032F0002B30FDF7CCF902214DF22C30FDF7C7F948
:10330000FE214DF22D30FDF7C2F903214DF22E3092
:10331000FDF7BDF910214DF22F30FDF7B8F903216B
:103320004DF23030FDF7B3F933214DF23130FDF776
:10333000AEF903214DF23230FDF7A9F96D214DF2BE
:103340003330FDF7A4F900214FF45440FDF79FF905
:1033500033214DF20140FDF79AF900214DF2024070
:10336000FDF795F934214DF20340FDF790F9002166
:103370004DF20440FDF78BF93A214DF20540FDF77F
:1033800086F900214DF20640FDF781F94A214DF200
:103390000740FDF77CF900214DF20840FDF777F971
:1033A0005C214DF20940FDF772F900214DF20A400F
:1033B000FDF76DF981214DF20B40FDF768F9002111
:1033C0004DF20C40FDF763F9A6214DF20D40FDF7DB
:1033D0005EF900214DF20E40FDF759F9E5214DF25D
:1033E0000F40FDF754F901214DF21040FDF74FF960
:1033F00013214DF21140FDF74AF901214DF212401F
:10340000FDF745F954214DF21340FDF740F9012134
:103410004DF21440FDF73BF982214DF21540FDF7C6
:1034200036F901214DF21640FDF731F9CA214DF26E
:103430001740FDF72CF902214DF21840FDF727F94E
:1034400000214DF21940FDF722F902214DF21A40F8
:10345000FDF71DF901214DF21B40FDF718F900E0C1
:1034600004E302214DF21C40FDF711F934214DF225
:103470001D40FDF70CF902214DF21E40FDF707F942
:1034800067214DF21F40FDF702F902214DF2204065
:10349000FDF7FDF884214DF22140FDF7F8F80221F7
:1034A0004DF22240FDF7F3F8A4214DF22340FDF741
:1034B000EEF802214DF22440FDF7E9F8B7214DF274
:1034C0002540FDF7E4F802214DF22640FDF7DFF834
:1034D000CF214DF22740FDF7DAF802214DF22840C6
:1034E000FDF7D5F8DE214DF22940FDF7D0F8022195
:1034F0004DF22A40FDF7CBF8F2214DF22B40FDF7BB
:10350000C6F802214DF22C40FDF7C1F8FE214DF224
:103510002D40FDF7BCF803214DF22E40FDF7B7F822
:1035200010214DF22F40FDF7B2F803214DF230404B
:10353000FDF7ADF833214DF23140FDF7A8F8032136
:103540004DF23240FDF7A3F86D214DF23340FDF707
:103550009EF800214FF45540FDF799F833214DF2C4
:103560000150FDF794F800214DF20250FDF78FF85D
:1035700034214DF20350FDF78AF800214DF204503A
:10358000FDF785F83A214DF20550FDF780F800214E
:103590004DF20650FDF77BF84A214DF20750FDF73A
:1035A00076F800214DF20850FDF771F85C214DF2DC
:1035B0000950FDF76CF800214DF20A50FDF767F84D
:1035C00081214DF20B50FDF762F800214DF20C50B5
:1035D000FDF75DF8A6214DF20D50FDF758F80021DA
:1035E0004DF20E50FDF753F8E5214DF20F50FDF767
:1035F0004EF801214DF21050FDF749F813214DF21C
:103600001150FDF744F801214DF21250FDF73FF83B
:1036100054214DF21350FDF73AF801214DF21450A8
:10362000FDF735F882214DF21550FDF730F80121F4
:103630004DF21650FDF72BF8CA214DF21750FDF749
:1036400026F802214DF21850FDF721F800214DF225
:103650001950FDF71CF802214DF21A50FDF717F82A
:1036600001214DF21B50FDF712F802214DF21C50C2
:10367000FDF70DF834214DF21D50FDF708F8022139
:103680004DF21E50FDF703F867214DF21F50FCF775
:10369000FEFF02214DF22050FCF7F9FF84214DF28C
:1036A0002150FCF7F4FF02214DF22250FCF7EFFF0E
:1036B000A4214DF22350FCF7EAFF02214DF22450E1
:1036C000FCF7E5FFB7214DF22550FCF7E0FF0221A2
:1036D0004DF22650FCF7DBFFCF214DF22750FCF7CF
:1036E000D6FF02214DF22850FCF7D1FFDE214DF22A
:1036F0002950FCF7CCFF02214DF22A50FCF7C7FFFE
:10370000F2214DF22B50FCF7C2FF02214DF22C505A
:10371000FCF7BDFFFE214DF22D50FCF7B8FF032151
:103720004DF22E50FCF7B3FF10214DF22F50FCF755
:10373000AEFF03214DF23050FCF7A9FF33214DF2CB
:103740003150FCF7A4FF03214DF23250FCF79FFFEC
:103750006D214DF23350FCF79AFF00214FF4564093
:10376000FCF795FF33214DF20160FCF790FF00213B
:103770004DF20260FCF78BFF34214DF20360FCF741
:1037800086FF00214DF20460FCF781FF3A214DF2E3
:103790000560FCF77CFF00214DF20660FCF777FF27
:1037A0004A214DF20760FCF772FF00214DF20860DC
:1037B000FCF76DFF5C214DF20960FCF768FF00210A
:1037C0004DF20A60FCF763FF81214DF20B60FCF7BC
:1037D0005EFF00214DF20C60FCF759FFA6214DF26F
:1037E0000D60FCF754FF00214DF20E60FCF74FFF17
:1037F000E5214DF20F60FCF74AFF01214DF2106008
:10380000FCF745FF13214DF21160FCF740FF012149
:103810004DF21260FCF73BFF54214DF21360FCF7B0
:1038200036FF01214DF21460FCF731FF82214DF289
:103830001560FCF72CFF01214DF21660FCF727FF05
:10384000CA214DF21760FCF722FF02214DF21860E9
:10385000FCF71DFF00214DF21960FCF718FF022153
:103860004DF21A60FCF713FF01214DF21B60FCF7CB
:103870000EFF02214DF21C60FCF709FF34214DF2CE
:103880001D60FCF704FF02214DF21E60FCF7FFFEF5
:1038900067214DF21F60FCF7FAFE02214DF2206015
:1038A000FCF7F5FE84214DF22160FCF7F0FE0221C9
:1038B0004DF22260FCF7EBFEA4214DF22360FCF7F1
:1038C000E6FE02214DF22460FCF7E1FEB7214DF245
:1038D0002560FCF7DCFE02214DF22660FCF7D7FEE6
:1038E000CF214DF22760FCF7D2FE02214DF2286075
:1038F000FCF7CDFEDE214DF22960FCF7C8FE022167
:103900004DF22A60FCF7C3FEF2214DF22B60FCF76A
:10391000BEFE02214DF22C60FCF7B9FEFE214DF2F5
:103920002D60FCF7B4FE03214DF22E60FCF7AFFED4
:1039300010214DF22F60FCF7AAFE03214DF23060FA
:10394000FCF7A5FE33214DF23160FCF7A0FE032108
:103950004DF23260FCF79BFE6D214DF23360FCF7B7
:1039600096FE55214FF47040FCF791FEAA214FF2CC
:103970000100FCF78CFE52214FF20200FCF787FE9B
:1039800008214FF20300FCF782FE00214FF20400F1
:10399000FCF77DFECC214FF43140FCF778FE00218E
:1039A0004BF20110FCF773FE05214FF43640FCF793
:1039B0006EFE70214FF43740FCF769FE70214BF228
:1039C0000170FCF764FE01214FF43840FCF75FFE04
:1039D00003214BF60100FCF75AFE03214BF60200CF
:1039E000FCF755FE03214BF60300FCF750FE0221C5
:1039F0004FF43C40FCF74BFE00214BF60140FCF736
:103A000046FE00214BF60240FCF741FED0214FF468
:103A10004940FCF73CFE02214CF60110FCF737FE52
:103A200050214CF60210FCF732FE50214CF60310E8
:103A3000FCF72DFE50214CF60410FCF728FE002167
:103A40004FF45450FCF723FE55214FF46850FCF717
:103A50001EFE4FF48850FCF7FFFD782003F0AAFF0C
:103A60004FF42450FCF7F8FD01F05EB9FE48808861
:103A700049F2253188427DD147F6F001E520FCF777
:103A800006FE4FF480710120FCF701FE4FF4E06167
:103A90000220FCF7FCFD41F230010320FCF7F7FDAA
:103AA00000210420FCF7F3FD40F202210820FCF77E
:103AB000EEFD00210920FCF7EAFD00210A20FCF7B9
:103AC000E6FD00210C20FCF7E2FD00210D20FCF7B3
:103AD000DEFD00210F20FCF7DAFD00211020FCF7AD
:103AE000D6FD07211120FCF7D2FD00211220FCF7A2
:103AF000CEFD00211320FCF7CAFD00210720FCF7B2
:103B0000C6FD41F290611020FCF7C1FD40F2272173
:103B10001120FCF7BCFD9D211220FCF7B8FD4FF4ED
:103B2000C8511320FCF7B3FD25212920FCF7AFFD78
:103B30000D212B20FCF7ABFD07213020FCF7A7FD62
:103B400040F203313120FCF7A2FD03213220FCF7C3
:103B50009EFD40F206213520FCF799FD0821362014
:103B6000FCF795FD40F206413720FCF790FD4FF43D
:103B7000417100E058E03820FCF789FD0721392029
:103B8000FCF785FD40F202613C20FCF780FD082136
:103B90003D20FCF77CFD00215020FCF778FDEF2153
:103BA0005120FCF774FD00215220FCF770FD40F21B
:103BB0003F115320FCF76BFD4FF427416020FCF7C9
:103BC00066FD01216120FCF762FD00216A20FCF7FF
:103BD0005EFD00218020FCF75AFD00218120FCF7CA
:103BE00056FD00218220FCF752FD00218320FCF7C6
:103BF0004EFD00218420FCF74AFD00218520FCF7C2
:103C000046FD10219020FCF742FD4FF4C061922048
:103C1000FCF73DFD40F233110720FCF738FD22216F
:103C20000020FCF734FD1FE78F48808849F22831D7
:103C300088427DD141F28F01EC20FCF728FD41F252
:103C40003421EF20FCF723FD4FF480710120FCF7B5
:103C50001EFD4FF4E0610220FCF719FD41F2300136
:103C60000320FCF714FD00210420FCF710FD40F2B6
:103C700002210820FCF70BFD00210920FCF707FDBD
:103C800000210A20FCF703FD01210C20FCF7FFFCBA
:103C900000210D20FCF7FBFC00210F20FCF7F7FCB6
:103CA00000211020FCF7F3FC07211120FCF7EFFCAA
:103CB00000211220FCF7EBFC00211320FCF7E7FCAD
:103CC00001210720FCF7E3FC322003F0BBFE41F2A8
:103CD00090411020FCF7DBFC40F227211120FCF77B
:103CE000D6FC322003F0AEFE8A211220FCF7CFFC76
:103CF000322003F0A7FE4FF4D0511320FCF7C7FC8D
:103D000006212920FCF7C3FC0D212B20FCF7BFFC6A
:103D1000322003F097FE00212020FCF7B8FC0021A0
:103D20002120FCF7B4FC322003F08CFE002100E0DF
:103D300075E03020FCF7ABFC40F204613120FCF769
:103D4000A6FC40F205313220FCF7A1FC0021352011
:103D5000FCF79DFC40F609413620FCF798FC4FF437
:103D600001713720FCF793FC40F201313820FCF759
:103D70008EFC40F207713920FCF789FC00213C20C1
:103D8000FCF785FC40F60A213D20FCF780FC322040
:103D900003F058FE00215020FCF779FCEF21512060
:103DA000FCF775FC00215220FCF771FC40F23F113A
:103DB0005320FCF76CFC4FF427416020FCF767FCB4
:103DC00001216120FCF763FC00216A20FCF75FFC05
:103DD00000218020FCF75BFC00218120FCF757FCD0
:103DE00000218220FCF753FC00218320FCF74FFCCC
:103DF00000218420FCF74BFC00218520FCF747FCC8
:103E000010219020FCF743FC4FF4C0619220FCF796
:103E10003EFC40F233110720FCF739FC24E612483F
:103E2000808849F2203188427ED100210846FCF783
:103E30002EFC4FF480710120FCF729FC4FF4E06167
:103E40000220FCF724FC41F230010320FCF71FFCA8
:103E500000210420FCF71BFC40F202210820FCF7A3
:103E600016FC0021092001E0B8030020FCF70FFC3C
:103E700000210A20FCF70BFC01210C20FCF707FCB9
:103E800000210D20FCF703FC00210F20FCF7FFFBB5
:103E9000322003F0D7FD40F201110720FCF7F7FBB9
:103EA000322003F0CFFD4FF486511020FCF7EFFBDA
:103EB00007211120FCF7EBFB4FF488711220FCF76F
:103EC000E6FB4FF430611320FCF7E1FB00212920D1
:103ED000FCF7DDFB44F210012B20FCF7D8FB00219E
:103EE0005020FCF7D4FBEF215120FCF7D0FB002140
:103EF0005220FCF7CCFB40F23F115320FCF7C7FBEC
:103F00004FF41C516020FCF7C2FB01216120FCF73B
:103F1000BEFB00216A20FCF7BAFB00218020FCF7E1
:103F2000B6FB0021812000E030E0FCF7B0FB00216F
:103F30008220FCF7ACFB00218320FCF7A8FB0021CA
:103F40008420FCF7A4FB00218520FCF7A0FB1021B6
:103F50009020FCF79CFB00219220FCF798FB0121AC
:103F60009320FCF794FB4FF488719520FCF78FFBAE
:103F700000219720FCF78BFB00219820FCF787FBA2
:103F800040F273110720FCF782FB6DE5FE48808844
:103F900049F2313188427DD141F21401E720FCF72A
:103FA00076FB4FF480710120FCF771FB4FF4007138
:103FB0000220FCF76CFB41F238010320FCF767FBA1
:103FC00040F202210820FCF762FB00210920FCF7E7
:103FD0005EFB00210A20FCF75AFB00210C20FCF7B5
:103FE00056FB00210D20FCF752FB00210F20FCF7AF
:103FF0004EFB00211020FCF74AFB07211120FCF7A3
:1040000046FB00211220FCF742FB00211320FCF7A5
:104010003EFBC82003F016FD41F290611020FCF732
:1040200036FB40F227211120FCF731FB322003F050
:1040300009FD0C211220FCF72AFB322003F002FDBF
:104040004FF400611320FCF722FB11212920FCF71B
:104050001EFB0B212B20FCF71AFB322003F0F2FC95
:1040600000212020FCF713FB40F23F112120FCF738
:104070000EFB00213020FCF70AFB4FF48371312046
:10408000FCF705FB00213220FCF701FB4FF4017126
:10409000352000E064E0FCF7FAFA41F20A613620CC
:1040A000FCF7F5FA40F207713720FCF7F0FA4FF40D
:1040B00083713820FCF7EBFA40F207713920FCF7E6
:1040C000E6FA40F202413C20FCF7E1FA40F60F41EB
:1040D0003D20FCF7DCFA00215020FCF7D8FAEF2154
:1040E0005120FCF7D4FA00215220FCF7D0FA40F21C
:1040F0003F115320FCF7CBFA4FF41C516020FCF722
:10410000C6FA01216120FCF7C2FA00216A20FCF7FF
:10411000BEFA00218020FCF7BAFA00218120FCF7CA
:10412000B6FA00218220FCF7B2FA00218320FCF7C6
:10413000AEFA00218420FCF7AAFA00218520FCF7C2
:10414000A6FA10219020FCF7A2FA4FF4C061922049
:10415000FCF79DFA40F233110720FCF798FA83E44C
:104160008948808845F2084188427DD14FF48071AA
:104170000120FCF78CFA4FF4E0610220FCF787FA8B
:1041800041F230010320FCF782FA00210420FCF701
:104190007EFA40F207210820FCF779FA0021092075
:1041A000FCF775FA00210A20FCF771FA00210C20B7
:1041B000FCF76DFA00210D20FCF769FA00210F20B1
:1041C000FCF765FA142003F03DFC41F2B0611020C9
:1041D000FCF75DFA01211120FCF759FA01211720A3
:1041E000FCF755FA4FF49C711220FCF750FA4FF48B
:1041F00000611320FCF74BFA09212920FCF747FA4C
:1042000009212A20FCF743FA0021A420FCF73FFAF9
:1042100000215020FCF73BFAEF215120FCF737FA40
:1042200000215220FCF733FA40F23F115320FCF7F3
:104230002EFA4FF41C516020FCF729FA012161206D
:10424000FCF725FA00216A20FCF721FA00218020E2
:10425000FCF71DFA00218120FCF719FA00218220C9
:10426000FCF715FA002100E024E08320FCF70FFAA8
:1042700000218420FCF70BFA00218520FCF707FAC7
:1042800013219020FCF703FA00219220FCF7FFF99C
:1042900003219320FCF7FBF94FF488719520FCF77C
:1042A000F6F940F273110720FCF7F1F9322003F020
:1042B000C9FBB8E43448808841F2055188427DD179
:1042C00000210720FCF7E3F9322003F0BBFB4FF499
:1042D0008E711220FCF7DBF90121A420FCF7D7F93D
:1042E0000F210820FCF7D3F908210A20FCF7CFF9A9
:1042F00008210D20FCF7CBF940F207713020FCF7C4
:10430000C6F907213120FCF7C2F940F203613220DF
:10431000FCF7BDF94FF4E0613320FCF7B8F940F247
:1043200002213420FCF7B3F902213520FCF7AFF964
:1043300041F60F713620FCF7AAF940F207713720D9
:10434000FCF7A5F900213820FCF7A1F9002139205C
:10435000FCF79DF940F207713A20FCF798F900212B
:104360003B20FCF794F907213C20FCF790F9002151
:104370003D20FCF78CF9322003F064FB012107207B
:10438000FCF785F9012101E0B80300201720FCF7B4
:104390007EF9322003F056FB4FF4BD511020FCF79C
:1043A00076F940F217211120FCF771F94FF48F7163
:1043B0001220FCF76CF94FF4706100E098E01320D4
:1043C000FCF765F900212A20FCF761F90A21292070
:1043D000FCF75DF94FF49F711220FCF758F90021AA
:1043E0005020FCF754F9EF215120FCF750F900213F
:1043F0005220FCF74CF940F23F115320FCF747F9EB
:104400004FF41C516020FCF742F901216120FCF7B8
:104410003EF900216A20FCF73AF900218020FCF7E0
:1044200036F900218120FCF732F900218220FCF7C7
:104430002EF900218320FCF72AF900218420FCF7C3
:1044400026F900218520FCF722F913219020FCF7A2
:104450001EF94FF440719220FCF719F905219320C1
:10446000FCF715F900219520FCF711F900219720A0
:10447000FCF70DF900219820FCF709F94FF4807141
:104480000120FCF704F94FF4E0610220FCF7FFF88B
:1044900041F238010320FCF7FAF800210420FCF770
:1044A000F6F800210C20FCF7F2F800210F20FCF7B1
:1044B000EEF800212020FCF7EAF800212120FCF78B
:1044C000E6F821210720FCF7E2F8142003F0BAFAFD
:1044D00061210720FCF7DBF8142003F0B3FA40F267
:1044E00073110720FCF7D3F8142003F0ABFA95E41E
:1044F000FE4880884BF2055188427CD10021084655
:10450000FCF7C5F800210846FCF7C1F80021084671
:10451000FCF7BDF800210846FCF7B9F80121A420FA
:10452000FCF7B5F8142003F08DFA4FF41C5160200D
:10453000FCF7ADF840F202210820FCF7A8F84FF490
:1045400005713020FCF7A3F843F215713120FCF718
:104550009EF840F204613220FCF799F840F61661AB
:104560003320FCF794F842F211213420FCF78FF845
:104570004FF4A8513520FCF78AF848F2075136204D
:10458000FCF785F841F207413720FCF780F841F24B
:1045900003413820FCF77BF820213920FCF777F81D
:1045A0001A219020FCF773F800211020FCF76FF817
:1045B00007211120FCF76BF800211220FCF767F8A7
:1045C00000211320FCF763F8142003F03BFA4FF4AA
:1045D000E6611020FCF75BF840F237111120FCF780
:1045E00056F8142003F02EFA4FF4DC711220FCF779
:1045F0004EF8142000E085E003F024FA4FF47061D7
:104600001320FCF744F880212A20FCF740F84821C9
:104610002920FCF73CF8142003F014FA4FF48071C1
:104620000120FCF734F84FF4E0610220FCF72FF88A
:1046300041F238010320FCF72AF840F20221082059
:10464000FCF725F800210A20FCF721F800210C20B6
:10465000FCF71DF800210D20FCF719F830210E2081
:10466000FCF715F800215020FCF711F8EF2151203C
:10467000FCF70DF800215220FCF709F840F23F1139
:104680005320FCF704F84FF41C516020FBF7FFFFA8
:1046900001216120FBF7FBFF00216A20FBF7F7FFF8
:1046A00011219020FBF7F3FF4FF4C0619220FBF73C
:1046B000EEFF40F202419320FBF7E9FF0221942034
:1046C000FBF7E5FF142003F0BDF901210720FBF7FC
:1046D000DEFF142003F0B6F961210720FBF7D7FFB6
:1046E00040F273110720FBF7D2FF00212020FBF7D7
:1046F000CEFF00212120FBF7CAFF22210020FBF77B
:10470000C6FF11E3794880884CF2055188427CD17C
:1047100000210846FBF7BBFF00210846FBF7B7FF67
:10472000142003F08FF900210846FBF7B0FF0021A9
:104730000846FBF7ACFF00210846FBF7A8FF002165
:104740000846FBF7A4FF0121A420FBF7A0FF1420DB
:1047500003F078F94FF41C516020FBF798FF40F606
:1047600006010820FBF793FF40F203713020FBF7AE
:104770008EFF01213120FBF78AFF04213220FBF755
:1047800086FF4FF481713320FBF781FF4FF44071B6
:104790003420FBF77CFF40F203113520FBF777FF55
:1047A0001F213620FBF773FF40F203713720FBF720
:1047B0006EFF01213820FBF76AFF04213920FBF747
:1047C00066FF15219020FBF762FF4FF482611020F5
:1047D000FBF75DFF40F247211120FBF758FF4FF434
:1047E000DE711220FBF753FF4FF460611320FBF7DB
:1047F0004EFF782003F026F94FF480710120FBF77B
:1048000046FF4FF40071022000E052E0FBF73FFF4B
:1048100041F230010320FBF73AFF08210A20FBF7A1
:1048200036FF00210C20FBF732FF20210E20FBF782
:104830002EFF00210F20FBF72AFF00212020FBF78D
:1048400026FF00212120FBF722FF3D212A20FBF734
:104850001EFF142003F0F6F82D212920FBF717FF87
:1048600000215020FBF713FF4DF2EF015120FBF721
:104870000EFF00215220FBF70AFF40F23F115320A8
:10488000FBF705FF00216120FBF701FF00216A20F3
:10489000FBF7FDFE4FF440719220FBF7F8FE052177
:1048A0009320FBF7F4FE4FF480710720FBF7EFFE37
:1048B0003AE20E48808844F2315188427ED101218B
:1048C0000020FBF7E4FE0A2003F0BCF841F2286167
:1048D0001020FBF7DCFE0E211220FBF7D8FE40F67D
:1048E00039211320FBF7D3FE0A2001E0B803002092
:1048F00003F0A8F840211120FBF7C9FE5021152034
:10490000FBF7C5FE0A2003F09DF81E211220FBF7DD
:10491000BEFE0A2003F096F84FF4B1511020FBF7C9
:10492000B6FE42F639211320FBF7B1FE0A2003F050
:1049300089F84FF480710120FBF7A9FE4FF4407114
:104940000220FBF7A4FE41F238010320FBF79FFE93
:1049500040F202210820FBF79AFE08210A20FBF70B
:1049600096FE00213020FBF792FE40F202413120FA
:10497000FBF78DFE4FF483713220FBF788FE40F287
:1049800003513320FBF783FE4FF482713420FBF791
:104990007EFE40F201313520FBF779FE40F20771CF
:1049A0003620FBF774FE40F205313720FBF76FFE2F
:1049B0004FF402713820FBF76AFE00E03EE040F65B
:1049C0000B713920FBF763FE02214120FBF75FFEEC
:1049D0004FF41C516020FBF75AFE01216120FBF7C8
:1049E00056FE4FF404719020FBF751FE4FF4857191
:1049F0009220FBF74CFE04219320FBF748FE4FF476
:104A00008071A020FBF743FE01210720FBF73FFE4A
:104A100021210720FBF73BFE23210720FBF737FE70
:104A200033210720FBF733FE40F233110720FBF759
:104A30002EFE0021A020FBF72AFE75E1F7488088B2
:104A400044F2355188427CD130211520FBF71FFEFE
:104A500010219A20FBF71BFE20211120FBF717FEE7
:104A600043F228411020FBF712FE02211220FBF72F
:104A70000EFE41F238011320FBF709FE282002F058
:104A8000E1FF12210846FBF702FE282002F0DAFFC0
:104A900043F220411020FBF7FAFD43F238011320C6
:104AA000FBF7F5FD462002F0CDFF00213020FBF79B
:104AB000EEFD40F202413120FBF7E9FD40F2073103
:104AC0003220FBF7E4FD4FF441713320FBF7DFFDAB
:104AD00004213420FBF7DBFD40F201413520FBF7D8
:104AE000D6FD40F207713620FBF7D1FD40F20531CB
:104AF0003720FBF7CCFD4FF4C2613820FBF7C7FD30
:104B00004FF4C2613920FBF7C2FD4FF480710120E0
:104B1000FBF7BDFD4FF440710220FBF7B8FD41F2F9
:104B200030010320FBF7B3FD40F608010820FBF736
:104B3000AEFD08210A20FBF7AAFD4FF41C516020AE
:104B400000E033E0FBF7A3FD01216120FBF79FFDAF
:104B50004FF49F719020FBF79AFD4FF480719220E3
:104B6000FBF795FD4FF480719320FBF790FD4FF418
:104B70004051A020FBF78BFD1021A320FBF787FD00
:104B800001210720FBF783FD21210720FBF77FFD93
:104B900023210720FBF77BFD33210720FBF777FD5F
:104BA00040F233110720FBF772FDBDE09B4880887F
:104BB00041F663118842F8D1E220FBF74DFD1D203C
:104BC000FBF753FD0220FBF750FD0420FBF74DFDE2
:104BD000642002F0EFFEE020FBF73EFD0120FBF732
:104BE00044FD0A2002F02EFFE020FBF735FD0320F4
:104BF000FBF73BFD0C2002F025FF0120FBF72CFD0D
:104C00000A2002F01FFFE620FBF726FD2F20FBF70E
:104C10002CFDFF20FBF729FDFF20FBF726FDB02030
:104C2000FBF71AFD2020FBF720FD0020FBF71DFD00
:104C30000320FBF71AFD40F21F30FBF716FD0120A1
:104C4000FBF713FD40F2DF10FBF70FFD0020FBF731
:104C50000CFDB420FBF700FD0420FBF706FD40F23D
:104C60001F40FBF702FD0020FBF7FFFC2E20FBF7A7
:104C7000FCFC0020FBF7F9FC0020FBF7F6FC002011
:104C8000FBF7F3FC0020FBF7F0FCB620FBF7E4FC9D
:104C90000220FBF7EAFC4FF40370FBF7E6FC002070
:104CA000FBF7E3FC1720FBF7E0FC1520FBF7DDFC2E
:104CB0000020FBF7DAFC0020FBF7D7FCF020FBF725
:104CC000CBFC0320FBF7D1FC2920FBF7C5FCD0204F
:104CD000FBF7C2FC0020FBF7C8FCBE20FBF7BCFCC6
:104CE0000520FBF7C2FCFE20FBF7BFFC0120FBF711
:104CF000BCFC0020FBF7B9FC0020FBF7B6FC002051
:104D0000FBF7B3FCB820FBF7A7FC0320FBF7ADFCD7
:104D10000120FBF7AAFCBA20FBF79EFC0120FBF761
:104D2000A4FC6420FCF70BF90120FCF734F9012006
:104D30003B4908604FF6FF70FCF71CFB21B000BD3B
:104D40002DE9FC4F05460E4617469846DDF82C9097
:104D5000002001903148808846F60401884229D11C
:104D60002E488079012825D1AB4635462B4800884E
:104D7000C01B401E86B2474628480088A0EB0B00A7
:104D8000401E1FFA80F80020244988712A2048819B
:104D90002B20888143463A4631462846CDF800907C
:104DA000FFF7CEFF01201D4988712B2048812A2062
:104DB00088811DE0781B401C80B20190344615E0CC
:104DC00021462846FBF792FCFBF773FC4FF0000AE4
:104DD00007E04FF0D840A0F880900AF101001FFAD8
:104DE00080FA01988245F4DB601C84B24445E7DD1B
:104DF000BDE8FC8F2DE9F84F07460D4690469946D1
:104E0000DDF828B0A8EB0700401C1FFA80FAA9EBD8
:104E10000500401C80B20090002418E0B803002078
:104E2000BC824042281981B23846FBF75FFCFBF791
:104E300040FC002607E004FB0A603BF81000F8493C
:104E40000880701C86B25645F5DB601C84B2009861
:104E50008442E7DBBDE8F88F2DE9FF4F84B081463F
:104E60008A460020039002900698A0EB0905079857
:104E7000A0EB0A06CDF80490CDF800A0002D01DDCE
:104E8000012705E00DB9002702E04FF0FF376D4222
:104E9000002E02DD4FF0010806E016B94FF00008C1
:104EA00002E04FF0FF387642B54201DD2C4600E0CB
:104EB00034464FF0000B21E0009A91B2019A90B273
:104EC000FBF76DFF0398284403900298304402904A
:104ED0000398A04205DD0398001B03900198384415
:104EE00001900298A04205DD0298001B02900098F4
:104EF000404400900BF101001FFA80FB601C8345C9
:104F0000DADD08B0BDE8F08FF0B504460D46164670
:104F10001F462B46324629462046FFF79DFF3B465B
:104F2000224629462046FFF797FF3B463246394640
:104F30002046FFF791FF3B46324629463046FFF7B1
:104F40008BFFF0BD2DE9F04306460F469046002446
:104F500045460320A0EB48093CE07A1B91B2321988
:104F600090B2FBF71CFF3A1B91B2721990B2FBF79B
:104F700016FF3A1991B2721990B2FBF710FF7A1925
:104F800091B2321990B2FBF70AFF7A1991B2321B33
:104F900090B2FBF704FF3A1991B2721B90B2FBF783
:104FA000FEFE7A1B91B2321B90B2FBF7F8FE3A1B61
:104FB00091B2721B90B2FBF7F2FE641CB9F1000FC4
:104FC00003DAA000801D814404E0601B80000A30E9
:104FD00081446D1EAC42C0DDBDE8F0832DE9F84F81
:104FE00080460E4617461C46B3462046E31704EBA0
:104FF0005373DB1021464FEAE47C04EB5C7C4FEA00
:10500000EC0CA4EBCC0CBCF1000F02D04FF0010C67
:1050100001E04FF0000C6344224604EBD27C4FEADF
:105020006C0C03FB0CF3DBB20093A7F12000C7B2BA
:10503000002556E00C2C07D107EB4700794901EB1E
:10504000800010F8059013E0102C05D1764800EB95
:10505000071010F805900BE0182C07D107EBC700DC
:10506000724901EB800010F8059001E0BDE8F88F6F
:105070004FF0000A2FE009F0800030B16C48028840
:1050800031464046FBF799FE07E00A9828B969487F
:10509000028831464046FBF790FE4FEA49604FEAEE
:1050A0001069701C86B264484088B04200DCDDE7BD
:1050B000A6EB0B00A0420AD15E4608F101001FFAE0
:1050C00080F85D480088404500DCCFE706E00AF143
:1050D000010000F0FF0ABAF1080FCCDB00BF681C2A
:1050E000C5B200988542A5DB00BFBFE710B50246F8
:1050F000012000E050430B00A1F10104E1B2F9D11D
:1051000010BD2DE9FF4F81B0074691461E460E9D0A
:105110004FF0000A002439E0301B401EC1B20A20C3
:10512000FFF7E4FFB9FBF0F00A21B0FBF1F201FB5D
:105130001208BAF1000F16D1701EA04213DDB8F1AB
:10514000000F0ED10020AB4605EBDB71491001FBCF
:105150000471009088B22B4620220299FFF73EFF8F
:1051600012E04FF0010A0020AB4605EBDB7149105D
:1051700001FB0471009088B208F13001CAB22B46DD
:105180000299FFF72BFF00BF601CC4B2B442C3DB1F
:1051900005B0BDE8F08F2DE9FF4F82B0064692467C
:1051A0001F46DDE90F480020019000255CE0781BD8
:1051B000401EC1B20A20FFF799FFBAFBF0F00A21A6
:1051C000B0FBF1F201FB1209019840BB781EA84226
:1051D00036DDB9F1000F31D108F0800078B108F068
:1051E0000100A34604EBDB71491001FB056100904F
:1051F00088B2234630220399FFF7F0FE0EE008F054
:105200000100A34604EBDB71491001FB056100902E
:1052100088B2234620220399FFF7E0FE22E00FE048
:105220008000006CFE070108720C01086212010880
:105230001400002016000020B80300200120019077
:1052400008F00100A34604EBDB71491001FB056186
:10525000009088B209F13001CAB223460399FFF7E2
:10526000BDFE00BF681CC5B2BD42A0DB06B0BDE8F4
:10527000F08F2DE9F84704460D4690469946DDE942
:10528000096704F0FF0A08EB04001FFA80F809EB35
:1052900005001FFA80F916E0444502DB5446A819C0
:1052A00085B24D4500DB14E0002000903A7833468B
:1052B00029462046FFF792FE304606EBD07104EBFC
:1052C00061018CB27F1C38787E2802DC3878202877
:1052D000E2DA00BFBDE8F8871CB50121112003F018
:1052E0000FFB1C20009000208DF8040003208DF897
:1052F000050001208DF807006946354802F07EFD63
:105300000120009002208DF807006946314802F024
:1053100075FD1CBD10B5044614B101202E4908705E
:105320002D480078002837D01021294802F0C8FD08
:1053300078B10821264802F0C3FD50B10421244869
:1053400002F0BEFD28B10121224802F0B9FD01287A
:1053500022D10A2002F076FB00201F49087010219C
:105360001B4802F0ADFD08B9012010BD0821184806
:1053700002F0A6FD08B90220F7E70421144802F064
:105380009FFD08B90320F0E70121124802F098FDC3
:1053900001281BD10420E8E710210D4802F090FD00
:1053A000012813D108210A4802F08AFD01280DD1F5
:1053B0000421074802F084FD012807D10121054896
:1053C00002F07EFD10B90120034908700020CCE7EF
:1053D00000100240000002401800002010B50446F2
:1053E00000BF0221414804F06BFE0028F9D021469D
:1053F0003E4804F01CFE00BF01213C4804F060FE62
:105400000028F9D0394804F00FFEC0B210BD00B535
:1054100087B00121084603F073FA0121080303F065
:10542000C9FA3820059002208DF8180000208DF868
:105430001A0003208DF8190001208DF81B0005A922
:105440002B4802F0DBFC05220321294802F061FD14
:1054500005220421264802F05CFD0522114624485D
:1054600002F057FD0121080303F0F9FA00214FF47F
:10547000805003F0F4FA0020ADF800004FF4827081
:10548000ADF802000020ADF804000220ADF80600DF
:105490000120ADF808004002ADF80A003820ADF850
:1054A0000C000020ADF80E000720ADF81000694692
:1054B0000E4804F041FC01210C4804F037FDFF20A8
:1054C000FFF78CFF07B000BD10B504460748008801
:1054D0004FF6C771084005490880084600882043F8
:1054E00008800121014804F021FD10BD0030014079
:1054F0000004024010B500240020D8490860902024
:10550000FFF76CFF0020FFF769FF0020FFF766FF41
:105510000020FFF763FFFF20FFF760FF44EA00244D
:10552000FF20FFF75BFF04430120CD49C1F8B8021B
:10553000204610BD1CB50121022003F0E1F9012134
:10554000402003F0DDF94FF48040009001208DF8F9
:10555000040000208DF8060003208DF805000120CE
:105560008DF807006946BF4802F048FC8020009093
:105570006946BD4802F042FC8021BB4802F0BAFCFB
:105580000120B6490860FFF742FF0020FFF79CFFAB
:10559000FFF7B0FFB54908801CBD10B500240020FE
:1055A000AE4908600520FFF719FFFF20FFF716FF3F
:1055B00004460120AA49C1F8B802204610BD10B522
:1055C00004460020A54908600120FFF707FF204698
:1055D000FFF704FF0120A249C1F8B80210BD10B5C1
:1055E00000209E4908600620FFF7F8FE01209C4934
:1055F000C1F8B80210BD10B5002098490860042019
:10560000FFF7ECFE01209649C1F8B80210BD2DE964
:10561000F04106460C4617460020904908600320DA
:10562000FFF7DCFEC4F30740FFF7D8FEC4F3072002
:10563000FFF7D4FEE0B2FFF7D1FE002505E0FF2022
:10564000FFF7CCFE7055681C85B2BD42F7DB012028
:1056500082490860BDE8F08110B500BFFFF79DFFEB
:1056600000F001000028F9D110BD2DE9F0410646F7
:105670000C461746FFF7B3FF002078490860022068
:10568000FFF7ACFEC4F30740FFF7A8FEC4F3072002
:10569000FFF7A4FEE0B2FFF7A1FE002504E0705D75
:1056A000FFF79CFE681C85B2BD42F8DB01206B4908
:1056B0000860FFF7D1FFBDE8F0812DE9F041074612
:1056C0000E461446F0B2C0F58075AC4200DC2546AB
:1056D00012E02A4631463846FFF7C7FFAC4200D1F8
:1056E0000BE02F442E44601B84B2B4F5807F02DDB2
:1056F0004FF4807500E02546EBE700BFBDE8F08180
:1057000010B5044621465AA00AF076FB2403FFF7A1
:1057100066FFFFF7A1FF0020504908602020FFF737
:105720005DFEC4F30740FFF759FEC4F30720FFF7FF
:1057300055FEE0B2FFF752FE01204949C1F8B80218
:10574000FFF78AFF10BD2DE9F05F81460F46164630
:10575000DFF824B14FEA1738C7F30B0ACAF58054B3
:10576000A64200DC344644E04FEA08314FF4805250
:105770005846FFF74CFF002508E00AEB05001BF830
:105780000000FF2800D003E0681C85B2A542F4DBCE
:1057900000BFA54216DA4046FFF7B2FF002507E03A
:1057A00019F8050005EB0A010BF80100681C85B229
:1057B000A542F5DB4FEA08314FF480525846FFF717
:1057C0007CFF04E0224639464846FFF776FFA642B2
:1057D00000D10FE008F101084FF0000AA14427446E
:1057E000301B86B2B6F5805F02DD4FF4805400E0D6
:1057F0003446B9E700BFBDE8F09F10B5FFF7EFFEF4
:10580000FFF72AFF002015490860C720FFF7E6FDD3
:1058100001201349C1F8B802FFF71EFF10BD10B5F3
:1058200000200E490860B920FFF7D8FD01200C497F
:10583000C1F8B802032002F0BDF810BD10B5002079
:1058400006490860AB20FFF7C9FD01200449C1F8F3
:10585000B802032002F0AEF810BD0000B88240424A
:105860000080404200040240001802401A0000205C
:1058700066653A25780D0A00C60300200020FE491F
:105880000860091D0860091D0860091D0860FA49C3
:1058900024310860091D0860091D0860F748F649B1
:1058A000383108600020091D08607047014600205B
:1058B000012900D011B9F24B197000E02620704781
:1058C0000146ED4A121D106820F0FF0008431060E9
:1058D000704770B5044606E0E7483430056805F0C7
:1058E000450000B100E0F7E700BF042004F0E0FC51
:1058F00020B1042004F0E7FC032070BD012004F077
:10590000D7FC20B1012004F0DEFC0120F5E7DA48E5
:1059100010300068A04201D01020EEE740F2FF50A6
:1059200004F0D1FCD4481430006808210840C0B20B
:10593000E3E72DE9FC4107460D4600260024002040
:10594000009001900820CF49086010204860402056
:1059500088600020C8604FF480600861084604F049
:1059600014FC1020FFF7B5FF044614B12046BDE833
:10597000FC81C54800880004C2490860372048609F
:10598000402088600020C8604FF4806008610846AD
:1059900004F0FBFB3720FFF79CFF04460CB12046C8
:1059A000E5E74FF0FF30B949086008204860302033
:1059B00088600220C8600020086101204861084614
:1059C00004F00FFC0020AF490860332048604020FD
:1059D00088600020C8604FF480600861084604F0C9
:1059E000D4FB3320FFF775FF04460CB12046BEE719
:1059F0000DE04FF4001004F05BFC40B19E48803095
:105A000000684DF82600761C022E00D307E09A4865
:105A10003430006840F22A6108400028E9D000BF15
:105A2000082004F045FC20B1082004F04CFC0420C0
:105A30009DE7022004F03CFC20B1022004F043FC6E
:105A4000022094E7202004F033FC20B1202004F051
:105A50003AFC06208BE74FF4007004F029FC28B1D3
:105A60004FF4007004F02FFC072080E740F2FF5055
:105A700004F029FC00980006009901F47F4140EAF7
:105A80000120009901F47F0140EA1120009940EAC9
:105A90001160686001980006019901F47F4140EAB5
:105AA0000120019901F47F0140EA1120019940EAA7
:105AB0001160286020465AE77CB505460024002086
:105AC0000090019000260DB1022600E000266A48F1
:105AD0001430006800F0007008B10E207CBD6A49E7
:105AE000098888B26946FFF724FF04460CB12046B6
:105AF000F4E7019800F4802060B363480088000454
:105B00006049086037204860402088600020C860F5
:105B10004FF480600861084604F037FB3720FFF738
:105B2000D8FE04460CB12046D8E756480660062049
:105B300054494860402088600020C8604FF480606D
:105B40000861084604F021FB0620FFF7C2FE044668
:105B50002046C3E72520C1E770B5044600254C4820
:105B60000078032802D12725284670BD48480078D0
:105B700038B147480078012803D04548007802280A
:105B800019D1B4F5805F02D127252846EDE7E0B2B0
:105B9000FFF792FF054675B93748001D006820F4ED
:105BA000C0503549091D0860084600682043086058
:105BB0000846006808602846D7E710B50446314813
:105BC000046007202F494860402088600020C8609A
:105BD0004FF480600861084604F0D7FA0720FFF709
:105BE00078FE10BDF0B5014600200022284B1B783E
:105BF00081F85630244B1B88A1F85430254B1B6884
:105C00001A0E93090B70C2F383034B7002F0030367
:105C10008B70204B1B68C3F30742CA701D4B1B8857
:105C2000C3F307220A711B4B1A784A715B681A0E7C
:105C30001301CB80174B5B68C3F30742CB8843EA61
:105C40001213CB8002F00F030B72124B9B88C3F32D
:105C50000722D3094B72C2F380138B72C2F3401335
:105C6000CB72C2F300130B7300234B73084B1B78EA
:105C7000C3B1074B1B780FE0002C0140FF07C000A9
:105C800024000020E013002020000020F413002056
:105C90001C0000200C140020012B03D0FE4B1B78AD
:105CA000032B4FD193071B0D0B61FC4B1A790B692A
:105CB00043EA82030B61F94B9B681A0E0B6943EAB6
:105CC00092130B61C2F3C2030B7502F007034B750D
:105CD000F24B9B68C3F3074253098B75C2F38203EF
:105CE000CB7593075B0F0B76EC4B1B89C3F3072235
:105CF0000B7E43EAD2130B760B695B1C0024C1E9CF
:105D000012340B7E9B1C012404FA03F3DC17D1E947
:105D10001256A5FB037C06FB03C305FB0433C1E954
:105D200012730C7A0123A3400B650024D1E912659C
:105D30000B6DA6FB037C05FB03C306FB0433C1E923
:105D400012732EE0D44B1B78022B2AD1D34B1A7935
:105D500093069B0A0B61D14B9B681A0E0B6943EAB1
:105D600002230B61CD4B9B68C3F307420B691343BE
:105D70000B61CA4B1B89C3F307220B695B1C4FF4F1
:105D80000074A3FB04464FF480630025A4FB037C4E
:105D900006FB03C304FB0533C1E912734FF4007320
:105DA0000B65C2F3801301F8193F93065B0E4B702D
:105DB000BA4B1A7A4B7843EAD2134B7002F07F0346
:105DC0008B70B64BDB681A0ED309CB70C2F341134C
:105DD0000B71C2F382034B7193071B0F8B71AF4B97
:105DE000DB68C3F307428B7943EA92138B71C2F3EA
:105DF0004013CB7100230B7202F001034B72A74BCF
:105E00009B89C3F30722D3098B72C2F38013CB7231
:105E1000C2F340130B73C2F300134B73C2F381033D
:105E20008B7302F00303CB739C4B1A7B53080B74E8
:105E300001234B749A4B1B681A0ECA741939984B7C
:105E40001B68C3F307421402CC85954B1B88C3F330
:105E50000722CB8D1343CB85914B1A7814060C6324
:105E60005B681A0E0B6B43EA02440C638C4B5B6855
:105E7000C3F307420B6B43EA02240C63884B9B88F5
:105E8000C3F307220B6B13430B63854B1A7934233F
:105E90005A54834B9B681A0E35235A54804B9B6887
:105EA000C3F3074214068C637D4B1B89C3F307229F
:105EB0008B6B43EA02448C63794B1A7A8B6B43EA0F
:105EC00002248C63764BDB681A0E8B6B13438B6357
:105ED000734BDB68C3F307423C235B5C43EA121459
:105EE0003C235C5413071C0DCC876D4B9B89C3F37B
:105EF0000722CB8F1343CB87694B1A7B540840236F
:105F00005C54012441235C54F0BD70B500264FF46D
:105F1000803505E06348046804F0450000B103E003
:105F20002800A5F10105F5D100BF15B104F004006A
:105F300028B10326042004F0C6F9304670BD0120C4
:105F400004F0B6F918B10126012004F0BCF940F2C2
:105F5000FF5004F0B8F93046F0E72DE9F04105466E
:105F60000E464FF0000805E04E48076807F0450070
:105F700000B100E0F8E700BF042004F099F928B16F
:105F8000042004F0A0F90320BDE8F081012004F012
:105F90008FF920B1012004F096F90120F4E741487F
:105FA00024380068A84201D01020EDE740F2FF50ED
:105FB00004F089F93B482038046804F4604018B9BB
:105FC000200C30804046DFE704F4005008B1132075
:105FD000DAE704F4804008B11020D5E704F400406B
:105FE00008B10F20D0E74046CEE738B500240120A5
:105FF000009004F0C4F810B92524204638BD264886
:106000000078042825D00020274908600220486035
:10601000C02088600020C8604FF480600861084696
:1060200004F0B3F8FFF771FF04460CB12046E5E732
:106030001C48203800681A4908601A481C38006853
:106040004860184818380068886016481438006896
:10605000C8601148007858B10F480078012807D06F
:106060000D480078062803D00B480078022821D17B
:1060700000200D490860032048604020886000200F
:10608000C8604FF480600861084604F07EF86946F5
:106090000320FFF762FF09E01C0000200C14002021
:1060A0001C140020342C0140E013002004460CB1E5
:1060B0002046A3E7FE480078032816D1BDF800006B
:1060C0000004FC49086003204860402088600020EC
:1060D000C8604FF480600861084604F056F8FFF786
:1060E00014FF04460CB1204688E7F14800780428E4
:1060F0002AD0BDF80000F0490860BDF80000000497
:10610000EC49086009204860C02088600020C86011
:106110004FF480600861084604F037F8FFF7F5FE99
:1061200004460CB1204669E7E4480068E449086089
:10613000E248001D00684860E04808300068886058
:10614000DE480C300068C860002057E710B506E054
:10615000DA482030046804F0450000B100E0F7E7B9
:1061600000BF042004F0A4F820B1042004F0ABF830
:10617000032010BD40F2FF5004F0A5F80020F8E71E
:1061800070B500264FF4803506E0CC482030046816
:1061900004F0450000B103E02800A5F10105F4D1A9
:1061A00000BF15B104F0040028B10326042004F058
:1061B0008AF8304670BD04F0400018B10026402037
:1061C00004F081F83046F5E770B500254FF48034CF
:1061D00004E0802004F06CF800B103E02000A4F19A
:1061E0000104F6D100BF0CB9032070BD40F2FF508E
:1061F00004F069F82846F8E72DE9F0470027002465
:1062000000260025A046A1467620AE49087500204C
:10621000086048608860C8600861084603F08BFF2A
:10622000032003F0A8FFA5481038006840F48070F0
:10623000A2491039086000BF12E000209D490860A3
:1062400048608860C8604FF480600861084603F0C9
:106250009CFFFFF7B9FF044604B903E0781CC7B2FE
:106260004A2FEADB00BF14B12046BDE8F0874FF4A7
:10627000D570904908600820486040208860002060
:10628000C8604FF480600861084603F07EFFFFF7A6
:1062900077FF044624B90120854908704FF08049F2
:1062A0000020844908603720486040208860002032
:1062B000C8604FF480600861084603F066FF37202D
:1062C000FFF707FB0446002C4BD134E0002079494E
:1062D000086037204860402088600020C8604FF484
:1062E00080600861084603F050FF3720FFF7F1FA9D
:1062F00004460CB12046B8E7734849EA00006D49EE
:10630000086029204860402088600020C8604FF461
:1063100080600861084603F038FFFFF717FF044666
:106320000CB12046A1E765480668012080EAD670D6
:1063300080F001086D1CB8F1000F03D14FF6FF701B
:106340008542C3D34FF6FF70854202D31B242046FB
:106350008BE706F08040060032D0022054490870D6
:106360002EE01CE059485349086001204860402055
:1063700088600020C8604FF480600861084603F020
:1063800004FFFFF7E3FE04460CB120466DE74B48DF
:106390000668012080EAD67080F001086D1CB8F113
:1063A000000F03D14FF6FF708542DBD34FF6FF702D
:1063B000854202D31B24204657E703203C4908703E
:1063C000204652E73EB5002400250121404802F056
:1063D00097FA0121C80202F0EDFA0121C80202F089
:1063E0003EFB4FF4F850019002208DF808008DF824
:1063F000090000208DF80A0001208DF80B0001A98A
:10640000344801F0FBFC0420019001A9324801F05E
:10641000F5FC0C2208212F4801F07BFD0C220921FC
:106420002C4801F076FD0C220A212A4801F071FD6A
:106430000C220B21274801F06CFD0C221146254847
:1064400001F067FD0C220221234801F062FD0021CA
:106450004FF4006002F003FBFFF710FA31208DF8D3
:10646000000000208DF801008DF8020001208DF859
:106470000300684601F0D1FBFFF7BEFE044614B9E5
:10648000FFF7B3FD04461CB91448FFF7ABFB044605
:1064900034B91249B1F854100804FFF78EFB0446D2
:1064A00024B94FF40060FFF757FB0446E4B117E04E
:1064B0001C000020E013002020000020142C0140CC
:1064C0000C140020C8130020000010800080FF8002
:1064D0000C00400000080240000C02403014002074
:1064E000FE480078032812D1FD4890F8560020B1EC
:1064F000FB4890F85600012801D1022500E0002554
:106500002846FFF7DDF90020FFF7D0F904462046C2
:106510003EBD10B5002003F02EFE002010BD70B56A
:1065200090B004460E46154600BFEE4804F00FF842
:106530000028FAD1EB4803F0E1FE4FF00060019033
:10654000E9480290039404950020059006904FF4CA
:1065500080600790800008908000099000200A90D9
:106560004FF440300B9004200C9003200D904FF41A
:1065700000000E9080100F9001A9DA4803F060FF30
:106580002021D84803F0ACFF0121D64803F092FF48
:1065900010B070BD0146002002E04910421CD0B28C
:1065A0000129FAD170472DE9F84F814617469846E0
:1065B0000A9C4FF0000AD3464D464FF0FF36B9F122
:1065C000000F02D12620BDE8F88F0020C6495439BB
:1065D0000860C2480078022805D10402780A40EA1F
:1065E000C8574FEA68280020C04988604860401EAC
:1065F0000860012048610020C8600861084603F077
:10660000F0FDB9486C38006800F0007008B10E2049
:10661000D9E7002C21DDB4F5006F1EDC601E2040A0
:10662000D8B92046FFF7B6FF0090B14804601020AB
:10663000AF494860402088600020C8604FF4806007
:106640000861084603F0A1FD1020FFF742F98246D9
:10665000BAF1000F03D05046B5E72620B3E7009803
:106660000001A2498860084644604FF0FF3008608E
:10667000012048610220C86000200861084603F03C
:10668000B0FD9B4807601120994948604020886010
:106690000020C8604FF480600861084603F075FD73
:1066A0001120FFF716F98246BAF1000F01D05046CB
:1066B00089E79048007800285AD1F9F7E6FD17E0FD
:1066C0004FF4004003F0F4FD70B14FF0000B05E013
:1066D0008548006845F82B000BF1010BBBF1080F52
:1066E000F6D32035844E03E00EB904206BE7761E06
:1066F0007D484C38006840F22A6108400028DFD00D
:10670000082003F0D5FD20B1082003F0DCFD0420B3
:1067100059E7022003F0CCFD20B1022003F0D3FDA5
:10672000022050E7202003F0C3FD20B1202003F019
:10673000CAFD062047E74FF4007003F0B9FD28B109
:106740004FF4007003F0BFFD07203CE703E066480C
:10675000006828602D1D4FF4001003F0A9FD0028EB
:10676000F5D1F9F794FD40F2FF5003F0ACFD39E0AC
:1067700060480078012835D10020604908706049E0
:1067800008706049087058484438006840F22A315F
:10679000084355494439086053485438006840F06C
:1067A0000800514954390860002221464846FFF745
:1067B000B6FE00E0761E4B485838006800F00060D6
:1067C00038B95048007820B94C48007808B9002EF4
:1067D000F0D10EB90420F6E64848007810B14748D9
:1067E00090F800A05046EEE62DE9FF5F1746984668
:1067F000DDE90E464FF00009CA464FF0FF35424929
:1068000000980860002038495439086033480078FF
:10681000022805D10402780A40EAC8574FEA6828DE
:106820000020324988604860401E086001204861AD
:106830000020C8600861084603F0D3FC2A486C3881
:10684000006800F0007018B10E2004B0BDE8F09FA1
:10685000002C21DDB4F5006F1EDC601E2040D8B98D
:106860002046FFF797FE8346214804601020204908
:106870004860402088600020C8604FF48060086154
:10688000084603F082FC1020FFF723F88146B9F197
:10689000000F03D04846D8E72620D6E7012E6ED950
:1068A00006FB04F0B0F1007F01D32620CDE74FEACC
:1068B0000B100E49886006FB04F048604FF0FF3073
:1068C0000860012048610220C86000200861084675
:1068D00003F087FC06480760122017E01C00002028
:1068E0003014002058640240802C0140F413002032
:1068F000E013002024000020FFFF7F00260000207E
:10690000250000202700002028000020F9494860C9
:10691000402088600020C8604FF48060086108460D
:1069200003F033FC1220FEF7D4FF8146B9F1000FCB
:1069300001D0484689E7F048007800287ED1F9F771
:10694000A4FC1EE04FF4004003F0B2FCA0B14FF0F5
:10695000000A07E0E9480068E949096841F82A00A7
:106960000AF1010ABAF1080FF4D3E54800682030B3
:10697000E3490860E34D04E015B9042065E7AEE0A3
:106980006D1EDE484C38006840F22A31084000286D
:10699000D8D0082003F08CFC20B1082003F093FC31
:1069A000042052E7022003F083FC20B1022003F010
:1069B0008AFC022049E7202003F07AFC20B1202045
:1069C00003F081FC062040E74FF4007003F070FCF8
:1069D00028B14FF4007003F076FC072035E709E09A
:1069E000C6480068C64909680860C5480068001DB7
:1069F000C34908604FF4001003F05AFC0028EFD19F
:106A00004FF4807003F054FC20B3BF48007838B1D5
:106A1000BD480078012803D0BB480078022819D16E
:106A20000020B44908600C204860402088600020A5
:106A3000C8604FF480600861084600E011E003F090
:106A4000A4FB0C20FEF745FF8146B9F1000F01D0F1
:106A50004846FAE6F9F71BFC40F2FF5003F033FC1E
:106A60003DE0A5480078012839D10020A7490870E9
:106A70000120A74908700020A64908709F484438A3
:106A8000006840F22A3108439C49443908609B4819
:106A90005438006840F0080098495439086006FBF3
:106AA00004F100220098FFF73AFD00E06D1E9A48BD
:106AB000006800F0006008B9002DF7D10DB904207E
:106AC000C3E600BF9348007818B9904800780028C2
:106AD000F8D08E48007810B18C4890F80090484665
:106AE000B3E61CB504460020019000908B48008856
:106AF0000004804908600D20486040208860002024
:106B0000C8604FF480600861084603F03EFB7B4894
:106B10004C380068009003E078484C3800680090DA
:106B2000009800F045000028F6D0012003F0C0FBDB
:106B300020B1012003F0C7FB01201CBD042003F09D
:106B4000B7FB20B1042003F0BEFB0320F5E76B4840
:106B5000703800680D2801D01020EEE740F2FF5099
:106B600003F0B1FB65486C38006801900198C0F3F0
:106B7000432020700020E0E72DE9FF5F86B0174634
:106B80009846149D0026002005900490002481461C
:106B90000390824602900195DDF818B0DDF818B038
:106BA000BBF1000F03D126200AB0BDE8F09F002002
:106BB0005249543908605A4988604860401E08604C
:106BC000012048610020C8600861084603F009FB05
:106BD0004A486C38006800F0007008B10E20E3E706
:106BE00049480078022805D10502780A40EAC857CA
:106BF0004FEA6828002D1FDDB5F5006F1CDC681E0C
:106C00002840C8B92846FFF7C5FC059039480560FB
:106C1000102038494860402088600020C8604FF448
:106C200080600861084603F0B0FA1020FEF751FEBC
:106C300006461EB13046B7E72620B5E7374800883C
:106C400000042C4908600D20486040208860002026
:106C5000C8604FF480600861084603F096FA0D2082
:106C6000FEF737FE06460EB130469DE723486C38E6
:106C7000006803904FF0FF341CE0641E2748008832
:106C800000041C4908600D204860402088600020F6
:106C9000C8604FF480600861084603F076FA0D2062
:106CA000FEF717FE06460EB130467DE713486C38F6
:106CB00000680390039800F4807008B9002CDCD1C0
:106CC0000CB9292070E70B48076018200949486073
:106CD000402088600020C8604FF48060086108464A
:106CE00003F053FA1820FEF7F4FD0646D6B13046FD
:106CF0005AE70000E013002024000020802C01400F
:106D000028000020FFFF7F001C000020260000203C
:106D10002500002027000020006402402000002001
:106D2000F41300200020F849087005980001F74985
:106D30008860084645604FF0FF30086001204861D8
:106D40000020C8600861084603F04BFA4FF0FF349A
:106D5000EF48007800287CD1F9F797FA43E04FF428
:106D6000804003F0A5FAC8B30198A0EB09002028E1
:106D700021D20198A0EB090000F0030020B901988E
:106D8000A0EB0900800804E00198A0EB090080084E
:106D9000401C02904FF0000A09E0DE49DBF80000D9
:106DA00008600AF1010A0BF1040B09F104090298C9
:106DB0008245F2D30FE04FF0000A05E05BF82A00AD
:106DC000D44908600AF1010ABAF1080FF6D30BF1B1
:106DD000200B09F120096FF0404404E0FFE70CB9F3
:106DE0000420E1E6641ECB484C38006840F21A618A
:106DF00008400028B3D0082003F05AFA20B1082038
:106E000003F061FA0420CFE6022003F051FA20B12A
:106E1000022003F058FA0220C6E6102003F048FAD8
:106E200020B1102003F04FFA0520BDE64FF40070AA
:106E300003F03EFA30B14FF4007003F044FA07203B
:106E4000B2E606E0F9F723FA40F2FF5003F03BFA0E
:106E500043E0AF48007801283FD10020AE490870D8
:106E6000A9490870AD490870AA484438006840F242
:106E70001A310843A7494439086040222946069838
:106E8000FFF74DFBA3485438006840F00800A149C3
:106E90005439086000E0641EA148006800F00060FA
:106EA00008B9002CF7D11CB9FFF78CFA04207BE657
:106EB0004FF0FF3400E0641E9848007820B99648EF
:106EC000007808B9002CF6D10CB904206CE6924881
:106ED000007810B19048007866E640F2FF5003F069
:106EE000F2F904A8FFF7FDFD064603E004A8FFF74A
:106EF000F8FD06463EB99DF810000728F6D09DF82B
:106F000010000628F2D030464EE62DE9FF5F84B02F
:106F1000DDE91247002600200390029000258046FC
:106F20008146019007FB04FBDDF810A0DDF810A0FE
:106F3000BAF1000F03D1262008B0BDE8F09F002071
:106F4000744954390860714988604860401E08607F
:106F5000012048610020C8600861084603F041F93B
:106F60006C486C38006800F0007008B10E20E3E750
:106F70006C480078022808D10402DDE90601400AC5
:106F800040EAC1504912CDE90601002C1FDDB4F5DD
:106F9000006F1CDC601E2040C8B92046FFF7FAFADB
:106FA00003906148046010205F4948604020886079
:106FB0000020C8604FF480600861084603F0E5F8DF
:106FC0001020FEF786FC06461EB13046B4E72620A8
:106FD000B2E7012F6FD907FB04F0B0F1007F01D3B6
:106FE0002620A9E74F48007838B14E48007801289C
:106FF00003D04C48007802282DD14C48008800046A
:107000004949086037204860402088600020C860F7
:107010004FF480600861084603F0B7F83720FEF7A8
:1070200058FC06460EB1304686E73F4807601720F9
:107030003D494860402088600020C8604FF480606F
:107040000861084603F0A1F81720FEF742FC064647
:107050000EB1304670E73449069808601920486040
:10706000402088600020C8604FF4806008610846B6
:1070700003F08BF81920FEF72CFC06460EB13046C3
:107080005AE7039800012149886007FB04F0486033
:107090004FF0FF300860012048610020C86008619F
:1070A000084603F09EF81A480078002872D1451E61
:1070B000F9F7EBF854E0F8E04FF4804003F0F8F80B
:1070C000B0B3ABEB0800202833D2ABEB080000F0E4
:1070D000030018B9ABEB0800800803E0ABEB080035
:1070E0008008401C01904FF0000909E00949DAF8D6
:1070F0000000086009F101090AF1040A08F1040816
:1071000001988145F2D324E025000020F4130020EB
:1071100024000020802C01402600002027000020B1
:10712000006402401C000020E0130020200000202A
:1071300012E04FF0000905E05AF82900F74908600D
:1071400009F10109B9F1080FF6D30AF1200A08F193
:1071500020086FF0404503E00DB90420ECE66D1EF9
:10716000EE484C38006840F21A3108400028A3D09D
:10717000082003F09DF820B1082003F0A4F80420B3
:10718000DAE6022003F094F828B1022003F09BF81D
:107190000220D1E640E0102003F08AF820B1102050
:1071A00003F091F80520C7E64FF4007003F080F873
:1071B00028B14FF4007003F086F80720BCE64FF4C6
:1071C000807003F075F800B3D548007838B1D44822
:1071D0000078012803D0D2480078022815D1002079
:1071E000D04908600C204860402088600020C860BA
:1071F0004FF480600861084602F0C7FF0C20FEF7DC
:1072000068FB06460EB1304696E6F9F740F840F2C4
:10721000FF5003F058F848E0C3480078012844D1F3
:107220000020C24908700120C14908700020C149EE
:107230000870BA484438006840F21A310843B74928
:107240004439086007FB04F140220498FFF767F90E
:10725000B2485438006840F00800B049543908601A
:107260004FF0FF3500E06D1EB348006800F000608D
:1072700008B9002DF7D11DB9FFF7A4F804205BE68B
:107280004FF0FF3500E06D1EAA48007820B9A748EE
:10729000007808B9002DF6D10DB904204CE6A348BA
:1072A000007810B1A148007846E640F2FF5003F0A4
:1072B0000AF802A8FFF715FC064603E002A8FFF74C
:1072C00010FC06463EB99DF808000728F6D09DF848
:1072D00008000628F2D030462EE610B54FF4807034
:1072E00002F0E6FF88B392480078012814D100200C
:1072F0008C4908600C204860402088600020C860ED
:107300004FF480600861084602F03FFF0C20FEF752
:10731000E0FA8649087002E00020844908707F483E
:107320004838006840F480707C4948390860081D7E
:1073300000684CF23A3188437849443908600120AA
:107340007C4908707948007810BDFFE7022002F000
:10735000AFFF78B1022002F0B6FF704844380068F1
:107360004CF23A3188436D494439086002206F4934
:107370000870E9E7082002F09BFF78B1082002F0CE
:10738000A2FF6648443800684CF23A3188436349AA
:1073900044390860042065490870D5E7202002F0D0
:1073A00087FF78B1202002F08EFF5C4844380068E7
:1073B0004CF23A31884359494439086006205B4908
:1073C0000870C1E7102002F073FF78B1102002F0BE
:1073D0007AFF5248443800684CF23A3188434F49AA
:1073E00044390860052051490870ADE74FF400703A
:1073F00002F05EFF80B14FF4007002F064FF474876
:10740000443800684CF23A318843444944390860B2
:1074100007204649087097E7002095E710B5FFF769
:107420005CFF10BD70B50446002514B9262528461A
:1074300070BD4248008800043A4908600D20486049
:10744000402088600020C8604FF4806008610846D2
:1074500002F09BFE0D20FEF73CFA05460DB12846D2
:10746000E6E72E486C38006820602846E0E708B55B
:10747000002000906846FFF7D5FF08B1FF2008BD47
:107480000098C0F34320FAE72DE9FE4F83460C46EF
:10749000914600200290002625462C46700240EAC4
:1074A000D5566D020BF00300F0B14FF0000A18E062
:1074B0004FF4007000904FEA4A20471946EBE07302
:1074C0003A461F48FFF76FF802904FF400721C49CC
:1074D000584608F049FE0BF5007B0AF1010000F068
:1074E000FF0ACA45E4DB16E0B9F1010F09D14FF4F8
:1074F00000702A46334600905846FFF754F8029031
:1075000009E04FF400702A463346CDE90009584699
:10751000FFF76AF902900298BDE8FE8F802C0140C7
:107520001C000020E0130020240000202600002082
:1075300025000020270000200064024020000020D9
:10754000881400202DE9FE4F81460C46924600200B
:107550000290002625462C46700240EAD5566D0260
:1075600009F00300F0B14FF0000B18E04FF4007287
:107570004946194808F0F8FD4FF4007000904FEAB2
:107580004B20471946EBE0733A461348FFF7F4FAED
:10759000029009F500790BF1010000F0FF0BD345D3
:1075A000E4DB16E0BAF1010F09D14FF400702A466E
:1075B000334600904846FFF7DFFA029009E04FF4A7
:1075C00000702A463346CDE9000A4846FFF79DFC85
:1075D00002900298BDE8FE8F8814002000B599B093
:1075E00001217A2001F08CF90121084601F0C0F94F
:1075F0004FF40040179001208DF8600000208DF8B6
:10760000620002208DF8610001208DF8630017A947
:10761000B44800F0F3FB4FF63370179002208DF85A
:10762000600000208DF8620003208DF861000120C9
:107630008DF8630017A9AC4800F0E0FB4FF68370AB
:10764000179002208DF8600000208DF86200032062
:107650008DF8610001208DF8630017A9A34800F0A0
:10766000CDFB4FF23F00179002208DF86000002004
:107670008DF8620003208DF8610001208DF8630011
:1076800017A99B4800F0BAFB40F23F401790022038
:107690008DF8600000208DF8620003208DF86100F5
:1076A00001208DF8630017A9924800F0A7FB0C2277
:1076B00000218D4800F02DFC0C2201218A4800F0A9
:1076C00028FC0C220421884800F023FC0C22052110
:1076D000854800F01EFC0C220821834800F019FCAC
:1076E0000C220921804800F014FC0C220A217E485B
:1076F00000F00FFC0C220B217B4800F00AFC0C224E
:107700001146794800F005FC0C220D21764800F066
:1077100000FC0C220E21744800F0FBFB0C220F2110
:10772000714800F0F6FB0C220021704800F0F1FBDC
:107730000C2201216D4800F0ECFB0C2207216B4864
:1077400000F0E7FB0C220821684800F0E2FB0C2265
:107750000921664800F0DDFB0C220A21634800F095
:10776000D8FB0C220B21614800F0D3FB0C22114600
:107770005E4800F0CEFB0C220D215C4800F0C9FBF6
:107780000C220E21594800F0C4FB0C220F2157484F
:1077900000F0BFFB0C220021554800F0BAFB0C2280
:1077A0000121534800F0B5FB0C220221504800F0A3
:1077B000B0FB0C2203214E4800F0ABFB0C2204214D
:1077C0004B4800F0A6FB0C220521494800F0A1FB24
:1077D0000C221146464800F09CFB0C220D21444827
:1077E00000F097FB0C220E21414800F092FB0C2286
:1077F0000F213F4800F08DFB0C2200213D4800F096
:1078000088FB0C2201213B4800F083FB0C22022163
:10781000384800F07EFB0C220321364800F079FB4B
:107820000C220421334800F074FB0C22052131485E
:1078300000F06FFB0C220A212E4800F06AFB0020AA
:10784000019002900820039000200490059006907B
:10785000079004200890002009900A9010200B90B7
:1078600000200C900E900D900F9010904FF48050CF
:107870001190002012901390149001A8159016906A
:1078800008A800F09AFB0121042000F021FC19B0A7
:1078900000BD10B506E004784FF0D0435C54491C9D
:1078A000401C521E002AF6D110BD06E04FF0D04316
:1078B0005B5C00F8013B491C521E002AF6D1704760
:1078C00013B504460122214601A8FFF7E2FF1CBDC3
:1078D00018B50446012221466846FFF7E6FF9DF8E9
:1078E000000018BD00040240000C024000100240DD
:1078F00000140240001802407FB505460C460121E5
:10790000022001F046F80295ADF804400020ADF8E1
:107910000600ADF80C0001A9174801F01CFC01227B
:107920001146154802F0B8F80121134801F09CFCFB
:107930001D208DF8000001208DF8010003208DF836
:10794000020001208DF80300684600F066F97FBD53
:1079500010B50121084802F0B6F8012807D1074800
:10796000006808B9012000E00020044908600121F6
:10797000014802F0B9F810BD00040040A88242425C
:1079800010B504466FF0040000F094F9E11704EB21
:107990005171C1F3C701394A11701046007800EBEC
:1079A0004001C1EBC0104FF6FF7101EAC00034493D
:1079B000088010BD0146314A12784A434FF0E02357
:1079C0005A6100229A611A46126942F001021A6154
:1079D00000BF4FF0E022106900F001021AB100F47C
:1079E0008032002AF5D04FF0E022126922F0010225
:1079F0004FF0E0231A6100229A6170470146204A45
:107A000012884A434FF0E0235A6100229A611A46D5
:107A1000126942F001021A6100BF4FF0E0221069C2
:107A200000F001021AB100F48032002AF5D04FF0C4
:107A3000E022126922F001024FF0E0231A610022D5
:107A40009A61704770B504464FF4077094FBF0F0EC
:107A5000C6B24FF4077094FBF0F100FB114085B201
:107A600005E04FF40770FFF7C9FF701EC6B2002E85
:107A7000F7D115B12846FFF7C1FF70BD2C000020DB
:107A80002E000020014600BF704700BF4C4A1288FC
:107A900002F04002002AF9D0C2B2494B9A807047E6
:107AA00010B588B004460121084600F029FF0121E5
:107AB000102000F07FFF07220921424800F029FA38
:107AC00007220A213F4800F024FA4FF4C0600690D4
:107AD00002208DF81C008DF81D0000208DF81E007E
:107AE00001208DF81F0006A9364800F087F902949E
:107AF0000020ADF80C00ADF80E00ADF81000ADF8A8
:107B000014000C20ADF8120002A92D4801F0B3F8C2
:107B100001212B4801F037F9012240F22551284874
:107B200001F0E7F925208DF8040003208DF8050009
:107B30008DF8060001208DF8070001A800F06DF80F
:107B400008B010BD10B540F225511D4801F00CFAE7
:107B500010B31B4801F046F9C4B21B48008800F47A
:107B60000040C8B91848008800F4804060B10A2C71
:107B700003D000201449088020E01348008840F416
:107B800000401149088019E00D2C06D10E480088EC
:107B900040F480400C49088010E00B480088C0F396
:107BA0000D000A490C5408480088401C064908800A
:107BB00008460088C72801DD0020088010BD0000AD
:107BC0000010014000000240340000208816002010
:107BD0000948804709480047FEE7FEE7FEE7FEE761
:107BE000FEE7FEE7FEE7FEE7FEE7FEE7044805499D
:107BF000054A064B70470000E504000889010008AB
:107C000028C1012028C7012028C3012028C3012042
:107C100032490143324A1160704770B50021002398
:107C20000F22C4781CB32E4C246804F4E064C4F51D
:107C3000E064C4F30721C1F10404E3B20A414478CB
:107C40009C40E1B28478144021430C07210E254C5E
:107C500005786155047804F01F050124AC400578CF
:107C60006D11AD0005F1E025C5F8004109E004788B
:107C700004F01F050124AC401B4D0678761145F831
:107C8000264070BD194A0A400243154B1B1F1A605B
:107C9000704739B1124A121D12680243104B1B1D66
:107CA0001A6006E00E4A121D126882430C4B1B1D1F
:107CB0001A607047042808D14FF0E021096941F0AB
:107CC00004014FF0E022116107E04FF0E021096963
:107CD00021F004014FF0E022116170470000FA0525
:107CE0000CED00E000E400E080E100E080FFFF1F19
:107CF00010B504469848844208D10121084600F096
:107D00006AFE0021012000F066FE76E0934884427E
:107D100008D10121022000F05EFE0021022000F0C7
:107D20005AFE6AE08E48844208D10121042000F006
:107D300052FE0021042000F04EFE5EE0894884429D
:107D400008D10121082000F046FE0021082000F0A3
:107D500042FE52E08448844208D10121102000F004
:107D60003AFE0021102000F036FE46E07F488442B3
:107D700008D10121202000F02EFE0021202000F05B
:107D80002AFE3AE07A48844208D10121402000F0DE
:107D900022FE0021402000F01EFE2EE075488442A5
:107DA00008D10121802000F016FE0021802000F083
:107DB00012FE22E07048844208D10121801500F0B3
:107DC0000AFE0021A01500F006FE16E06B48844272
:107DD00008D10121401500F0FEFD0021601500F0E2
:107DE000FAFD0AE06648844207D10121001500F03F
:107DF000F2FD0021201500F0EEFD10BDF0B50A46A1
:107E000000210023002400BF3DE0012505FA01F315
:107E1000156805EA03049C4234D105684F00032627
:107E2000BE40B543056015794E00B5400668354340
:107E300005601579012D02D01579022D16D18568BE
:107E40004F000326BE40B543856055794E00B540CE
:107E5000866835438560456801268E40B543456098
:107E6000456896798E40B6B235434560C5684F0087
:107E70000326BE40B543C560D5794E00B540C668FF
:107E80003543C560491C1029BFD3F0BD4FF6FF71C3
:107E900001600021017141718171C171704708B5A4
:107EA0004FF480320092009A0A430092009AC26115
:107EB000C161009AC261C2690092C269009208BDA4
:107EC0000246002013690B400BB1012000E00020A6
:107ED00070470146086980B2704702460020536926
:107EE0000B400BB1012000E00020704701464869BB
:107EF00080B2704701837047418370470AB10183A4
:107F000000E0418370474161704742694A404261E5
:107F10007047F0B5002300244D07ED0E02FA05F37B
:107F2000CE1000F1200555F826504E07F70E0F260B
:107F3000BE40B543CF1000F1200646F82750CE10C2
:107F400000F1200555F8265045EA0304CE1000F153
:107F5000200545F82640F0BD000002400004024024
:107F600000080240000C02400010024000140240D1
:107F700000180240001C0240002002400024024081
:107F80000028024030B943F2DB028100A1F1C04178
:107F90000A6005E043F2D2028100A1F1C0410A600B
:107FA0006FF07042411C8900A1F1C0410A6081005C
:107FB000A1F1C041C1F804217047D0E90112114379
:107FC000C268114302691143426911438269114336
:107FD000C2691143026A1143426A1143826A114322
:107FE000C26A1143026B114302689200A2F1C042BF
:107FF0001160816808290BD101688900A1F1C04195
:10800000096841F0400201688900A1F1C0410A609D
:10801000416B0968426B526841EA0211426B9268F7
:1080200041EA0221426B928941EA0241426B128A83
:1080300041EA0251426B127D41EA0261426B926950
:1080400011430268521C9200A2F1C0421160C16A41
:10805000B1F5804F1BD1816B0968826B526841EA90
:108060000211826B926841EA0221826B128A41EA14
:108070000251826B127D41EA0261826B9269114367
:1080800002689200A2F1C042C2F8041107E06FF04A
:10809000704201688900A1F1C041C1F80421704714
:1080A000002101600221416000218160C160016105
:1080B00041618161C16101624FF4805141624900B7
:1080C00081620021C1620163F849416381637047A5
:1080D00051B18200A2F1C042126842F00103820055
:1080E000A2F1C042136009E08200A2F1C04212680E
:1080F000EF4B1A408300A3F1C0431A607047102869
:108100000AD118214FF020421166402151664FF0EC
:10811000FC319166D16610E01821E64A11604021D9
:108120004FF02042C2F884104FF0FC31E14A08328F
:1081300011604FF02042C2F88C10704730B500211A
:1081400000220023446844F0080485682C43C56875
:108150002C4305692C43456944EA4524856944EA72
:108160004531C4692468C5696D6844EA0524C56958
:108170002D8944EA0544C5692D7B44EA0562046AF9
:108180002468056A6D6844EA0524056A2D8944EA75
:108190000544056A2D7B44EA05630468102C05D16B
:1081A0004FF020442166A266E36608E0C14C2160DE
:1081B0004FF02044C4F88820BE4C0C34236030BDFE
:1081C00010210160002141608160C1600161416155
:1081D0008161FC21C2691160C2695160C26991600C
:1081E000C269D160026A1160026A5160026A9160DC
:1081F000026AD160704799B1102808D14FF020422F
:10820000126E42F004024FF020431A661DE0A94AA4
:10821000126842F004024FF02043C3F8802014E0BB
:10822000102809D14FF02042126EA14BDB1E1A40DC
:108230004FF020431A6608E09E4A12689C4BDB1EF2
:108240001A404FF02043C3F88020704799B110289E
:1082500008D14FF02042126E42F040024FF020430E
:108260001A661DE0934A126842F040024FF0204324
:10827000C3F8802014E0102809D14FF02042126E7C
:108280008B4B3F3B1A404FF020431A6608E0894A67
:108290001268874B3F3B1A404FF02043C3F88020C1
:1082A000704701460020102903D14FF02042506F43
:1082B00002E0804A14321068704718207D4920314E
:1082C000086000200906C1F8A4004FF0FC3079498D
:1082D00028310860091D0860091D086070470168A1
:1082E00041F01001426841EA4221826841EA42318C
:1082F000704A20321160C1680968C268526841EA58
:108300000221C268128941EA0241C268127B41EA35
:108310000261684A2832116001690968026952687D
:1083200041EA02210269128941EA02410269127B93
:1083300041EA02615F4A2C32116041690968426971
:10834000526841EA02214269128941EA02414269C6
:10835000127B41EA02614FF02042C2F8B010704730
:108360000021016041608160FC21C2681160C26827
:108370005160C2689160C268D1600269116002698F
:108380005160026991600269D1604269116042697D
:108390005160426991604269D160704748B1454976
:1083A0002031096841F004014FF02042C2F8A010CA
:1083B00009E04049203109683D4AD21E11404FF082
:1083C0002042C2F8A010704710B5F2B1102807D1B2
:1083D0004FF020435B6E0B434FF02044636632E066
:1083E000B0F5807F08D1334B1B1D1B680B434FF04A
:1083F0002044C4F8843026E02E4B24331B680B4302
:108400004FF02044C4F8A4301DE0102807D14FF0ED
:1084100020435B6E8B434FF02044636613E0B0F55E
:10842000807F08D1234B1B1D1B688B434FF02044DA
:10843000C4F8843007E01F4B24331B688B434FF094
:108440002044C4F8A43010BD10B50246002000231B
:10845000102A03D14FF02044636E09E0B2F5807F0B
:1084600003D1144C241D236802E0124C24342368E9
:1084700003EA01040CB1012000E0002010BD102827
:1084800007D14FF02042526E8A434FF020435A6684
:1084900019E0B0F5807F0FD1064A121D12688A4399
:1084A0004FF02043C3F884200DE00000C01F0108F6
:1084B000FEFF0F00800000A0234A12688A434FF09D
:1084C0002043C3F8A420704770B502460020002363
:1084D00000240025102A03D14FF02046736E08E0D7
:1084E000B2F5807F03D1184E203E336801E0164E6E
:1084F000336803EA010403EAD10514B10DB1012088
:1085000000E0002070BD102808D14FF02042526ECC
:1085100022EAD1024FF020435A6614E0B0F5807F82
:1085200009D1094A203A126822EAD1024FF02043C9
:10853000C3F8842007E0044A126822EAD1024FF00F
:108540002043C3F8A4207047A40000A0F9480068A5
:1085500040F00100F74908600020F6490831086042
:10856000F4480068F4490840F2490860F348091DDE
:108570000860F348EF4984310860F0481038091D5D
:108580000860EC48006820F48020EA490860002078
:10859000E8490C310860E7498C31086070470021D8
:1085A000E44A921C117011460870704710B50146DC
:1085B0000022002300204A11012A02D1DD4C236849
:1085C00008E0022A03D1DB4C7034236802E0D94C66
:1085D0007434236801F01F02012494401C400CB144
:1085E000012000E0002010BD38B5002000900024DC
:1085F000002500BF3120FFF7D9FF05460098401C39
:1086000000900098B0F5A04F01D0002DF2D031209D
:10861000FFF7CCFF08B1012400E00024204638BD5C
:1086200001460020C34A106820F0F80040EAC1006B
:1086300010607047C349086070470021BD4A70321E
:1086400011701170012802D004280AD104E0012120
:10865000B84A7032117005E00521B64A70321170C7
:1086600000E000BF00BF7047B7490860704770B5B1
:10867000049C41EA82150126C6EB530645EA0645ED
:10868000054345EA0465AB4E361D356070BDAD4906
:1086900008667047820142EA0172A64B84331A6071
:1086A0007047A8498866704710B5830143EA0163A3
:1086B00043EA02739F4C8834236010BDA1490867C8
:1086C0007047A049C864704702460020994B0833A0
:1086D000186820F0EC6042EA01031843954B083318
:1086E0001860704702460020924B0833186820F04B
:1086F000784042EA010318438E4B083318607047F4
:10870000014600208B4A0832106820F0030008431D
:108710001060704787480830006800F00C00704710
:1087200001460020834A0832106820F0F000084318
:1087300010607047014600207E4A0832106820F41D
:10874000E05008431060704701460020794A083223
:10875000106820F4604040EAC10010607047F0B536
:10876000002100220024022500260223714F083731
:108770003F6807F00C0121B1042905D0082937D141
:1087800005E0724F076036E0714F076033E0694FD4
:108790003F1D3F68C7F38056664F3F1D3F6807F097
:1087A0003F036EB16A4FB7FBF3F7DFF888C10CF1F6
:1087B000040CDCF800C0CCF3881C07FB0CF40CE0C4
:1087C000624FB7FBF3F7DFF86CC10CF1040CDCF877
:1087D00000C0CCF3881C07FB0CF4564F3F1D3F68CC
:1087E000C7F301477F1C7D00B4FBF5F7076002E08B
:1087F000564F076000BF00BF4E4F08373F6807F075
:10880000F0010909534F7A5C0768D7404760494F28
:1088100008373F6807F4E051890A4E4F7A5C476891
:10882000D7408760434F08373F6807F46041490BE2
:10883000484F7A5C4768D740C760F0BD002100F41C
:108840004072B2F5407F0AD13A4A0832116821F4E9
:10885000F811414A02401143364A08321160354A44
:1088600070321268C0F30B031A43324B70331A6034
:1088700070473549443908607047334940390860CA
:10888000704736490860704701460020294A8C32FB
:10889000106820F01F004A1E1043264A8C321060D8
:1088A000704701460020234A8C32106820F4F850AB
:1088B0004A1E40EA02201F4A8C321060704701466F
:1088C00000201C4A8C32106820F4401008431060CD
:1088D000704701460020174A8C32106820F440008F
:1088E00008431060704701460020124A8C3210681D
:1088F00020F4403008431060704719490860704701
:1089000039B10C4A3032126802430A4B30331A60D4
:1089100006E0084A303212688243064B30331A6050
:108920007047F9B1034A343212680243014B3433C1
:108930001A601CE000380240FFFFF6EA1030002405
:108940000030002000004742800E47420024F4001F
:1089500000127A0036000020FFFCFF0F5C01474246
:10896000E01147428F4A126882438E4B1A6070476B
:1089700039B18C4A121D126802438A4B1B1D1A60C2
:1089800006E0884A121D12688243864B1B1D1A603E
:10899000704739B1834A0C3212680243814B0C3361
:1089A0001A6006E07F4A0C32126882437D4B0C331A
:1089B0001A60704739B17B4A103212680243794B12
:1089C00010331A6006E0774A103212688243754B02
:1089D00010331A60704739B1724A243A1268024360
:1089E000704B243B1A6006E06E4A243A12688243B8
:1089F0006C4B243B1A60704739B16A4A203A1268BE
:108A00000243684B203B1A6006E0664A203A12682F
:108A10008243644B203B1A60704739B1614A1C3A6B
:108A2000126802435F4B1C3B1A6006E05D4A1C3A29
:108A3000126882435B4B1C3B1A60704739B1594A3C
:108A4000143A12680243574B143B1A6006E0554A29
:108A5000143A12688243534B143B1A60704739B181
:108A6000504A103A126802434E4B103B1A6006E01F
:108A70004C4A103A126882434A4B103B1A607047C6
:108A800039B1484A1C3212680243464B1C331A6003
:108A900006E0444A1C3212688243424B1C331A607F
:108AA000704739B13F4A2032126802433D4B2033B0
:108AB0001A6006E03B4A203212688243394B203369
:108AC0001A60704739B1374A243212680243354B75
:108AD00024331A6006E0334A243212688243314B51
:108AE00024331A60704739B12E4A2C32126802437F
:108AF0002C4B2C331A6006E02A4A2C32126882432F
:108B0000284B2C331A60704739B1264A303212682C
:108B10000243244B30331A6006E0224A3032126896
:108B20008243204B30331A607047012808D11D4919
:108B30003C31096841F008011A4A3C32116007E0F3
:108B400018493C31096821F00801164A3C3211608D
:108B5000704739B1134A273A12780243114B273B29
:108B60001A7006E00F4A273A127882430D4B273BD2
:108B70001A7070470B484030006840F08070094917
:108B800040310860704701460020064A283A1268C2
:108B90000A400AB1012000E000207047014926394F
:108BA000087070473438024010B50446FA488442D1
:108BB00008D101211020FFF752FF00211020FFF7FC
:108BC0004EFF57E0F548844209D101214804FFF7E0
:108BD00035FF00214FF40030FFF730FF4AE0F04846
:108BE000844209D101218804FFF728FF00214FF4B6
:108BF0008020FFF723FF3DE0EA48844209D10121AC
:108C0000C804FFF71BFF00214FF40020FFF716FFF9
:108C100030E0E548844209D101210805FFF70EFF45
:108C200000214FF48010FFF709FF23E0DF48844262
:108C300008D101212020FFF712FF00212020FFF79B
:108C40000EFF17E0DA48844209D101218807FFF7B7
:108C5000F5FE00214FF08040FFF7F0FE0AE0D54816
:108C6000844207D101214005FFF7E8FE002160059D
:108C7000FFF7E4FE10BD2DE9FF4705460E46002430
:108C8000A14600BFA046B08900B100BF2C8A24F4E1
:108C90004054F08804432C82AC8941F20C60844338
:108CA000B08831890843718908430443AC81AC8A98
:108CB00024F44074B0890443AC826846FFF74FFD4A
:108CC000B548854202D0B948854202D1DDF80C9002
:108CD00001E0DDF80890A88900F4004040B109EBFC
:108CE000C90000EB091031684900B0FBF1F707E05B
:108CF00009EBC90000EB091031688900B0FBF1F7FE
:108D00006420B7FBF0F004012009642101FB107816
:108D1000A88900F4004040B1322000EBC800B0FB4D
:108D2000F1F000F00700044308E0322000EB0810E7
:108D30006421B0FBF1F000F00F0004432C81BDE88A
:108D4000FF874FF41651016000218180C1800181AD
:108D50000C21418100218181704710B5024600201D
:108D6000108A20F470600B884C8823438C8823433E
:108D7000CC8823431843108210BD0021018041801C
:108D80008180C180704721B1828942F40052828182
:108D900004E082894DF6FF731A4082817047028B8E
:108DA00002F47F420283028B0A430283704721B19F
:108DB000828942F40042828103E08289C2F30E027A
:108DC0008281704721B1828A42F40062828204E08B
:108DD000828A4FF2FF731A4082827047C1F3080201
:108DE0008280704701468888C0F308007047028A75
:108DF0004FF6F0731A400282028A0A4302827047D9
:108E000021B1828942F00202828104E082894FF618
:108E1000FD731A408281704782894FF2FF731A40B6
:108E2000828182890A4382817047028A4FF6DF730A
:108E30001A400282028A0A430282704721B1028AE2
:108E400042F48042028204E0028A4BF6FF731A4029
:108E500002827047818941F001018181704721B10F
:108E6000828A42F00802828204E0828A4FF6F77317
:108E70001A4082827047028BD2B20283028B42EA8E
:108E800001220283704721B1828A42F0200282824D
:108E900004E0828A4FF6DF731A408282704721B164
:108EA000828A42F01002828204E0828A4FF6EF73D7
:108EB0001A4082827047828A4FF6FB731A40828280
:108EC000828A0A438282704721B1828A42F002027A
:108ED000828204E0828A4FF6FD731A4082827047D4
:108EE0001AB1838A0B43838202E0838A8B43838295
:108EF0007047F0B50346002400260025002040F608
:108F00006A17B94200D100BF1846C1F3421401F0FC
:108F10001F06012707FA06F5012C01D10C3004E0E9
:108F2000022C01D1103000E014301AB107682F4331
:108F3000076002E00768AF430760F0BD024600200B
:108F4000B1F5007F00D100BF13880B400BB10120A9
:108F500000E00020704701F40072B2F5007F00D1FC
:108F600000BFCA430280704770B502460024002348
:108F70000025002040F66A16B14200D100BFC1F3BF
:108F8000421501F01F03012606FA03F3012D13D148
:108F90009689334017E00000001001400044004073
:108FA00000480040004C00400050004000140140C8
:108FB00000780040007C0040022D02D1168A334028
:108FC00001E0968A33400C12012606FA04F4168852
:108FD000344013B10CB1012000E0002070BD10B589
:108FE0000022002340F66A14A14200D100BF0A12F9
:108FF00001249440A3B2DC43048010BD10B50446A4
:10900000FE48844208D101210846FFF728FD0021CF
:109010000120FFF724FD9DE0B4F1804F08D101212C
:109020000846FFF70BFD00210120FFF707FD91E047
:10903000F348844208D101210220FFF7FFFC002100
:109040000220FFF7FBFC85E0EE48844208D10121B5
:109050000420FFF7F3FC00210420FFF7EFFC79E088
:10906000E948844208D101210820FFF7E7FC0021EC
:109070000820FFF7E3FC6DE0E448844208D10121B9
:109080001020FFF7DBFC00211020FFF7D7FC61E088
:10909000DF48844208D101212020FFF7CFFC0021C6
:1090A0002020FFF7CBFC55E0DA48844208D10121AB
:1090B0000220FFF7D4FC00210220FFF7D0FC49E09A
:1090C000D548844209D101210804FFF7C8FC0021DA
:1090D0004FF48030FFF7C3FC3CE0D048844209D114
:1090E00001214804FFF7BBFC00214FF40030FFF7DB
:1090F000B6FC2FE0CA48844209D101218804FFF759
:10910000AEFC00214FF48020FFF7A9FC22E0C54807
:10911000844208D101214020FFF790FC002140202B
:10912000FFF78CFC16E0C048844208D10121802062
:10913000FFF784FC00218020FFF780FC0AE0BB4899
:10914000844207D101218015FFF778FC0021A0158A
:10915000FFF774FC10BD00220288A84B98420ED085
:10916000AC4B98420BD0B0F1804F08D0A44B984242
:1091700005D0A44B984202D0A34B984204D14FF69D
:109180008F731A404B881A43A04B984207D0A04BCC
:10919000984204D04FF6FF431A400B891A430280CD
:1091A0004B68C3620B880385944B984202D0994B5D
:1091B000984201D18B7A03860123838270474FF056
:1091C000FF3141600021018001814180817270473F
:1091D0000185828270470A46002101884FF68F730D
:1091E000194011430180704741627047C162704766
:1091F0000146486A70470146088D704721B10288D0
:1092000042F00202028004E002884FF6FD731A4029
:109210000280704721B1028842F00402028004E01B
:1092200002884FF6FB731A400280704721B1028812
:1092300042F08002028004E002884FF67F731A40F9
:109240000280704702884FF6F7731A400280028846
:109250000A430280704702884FF6FF431A4002809B
:1092600002880A430280704721B1028842F001025D
:10927000028004E002884FF6FE731A4002807047B5
:1092800070B5002400220023058C4FF6FE76354091
:109290000584028C8388048B4FF68F752C40B51E95
:1092A0002C400D882C43751E2A408D892A434D88F9
:1092B0002A43524DA84202D0564DA84213D14FF630
:1092C000F7752A40CD892A434FF6FB752A408D88D1
:1092D0002A434FF6FF652B404FF6FF552B400D8A72
:1092E0002B434D8A2B43838004838D68456302841E
:1092F00070BD70B5002400220023058C4FF6EF7678
:1093000035400584028C8388048B48F6FF752C4019
:109310004FF6FF452C400D884FF6FF7606EA0525EF
:109320002C434FF6DF752A408D8906EA05152A433E
:109330004D8806EA05152A43304DA84202D0354D26
:10934000A8421DD14FF67F752A40CD894FF6FF7692
:1093500006EA05152A434FF6BF752A408D8806EAAE
:1093600005152A434FF6FF352B404FF2FF752B4072
:109370000D8A06EA85052B434D8A06EA85052B43AF
:10938000838004838D688563028470BD70B500247A
:1093900000220023058C4FF6FF6635400584028CC1
:1093A0008388848B4FF68F752C404FF6FC752C40CC
:1093B0000D882C434FF6FF552A408D894FF6FF76D6
:1093C00006EA05252A434D8806EA05252A430B4D62
:1093D000A84202D00F4DA84238D14FF2FF752A4063
:1093E000CD894FF6FF7606EA05252A434FF6FF356D
:1093F0002A408D8806EA05252A4319E0000001402D
:109400000004004000080040000C00400010004034
:1094100000140040000401400040014000440140AD
:109420000048014000180040001C0040002000409F
:109430004EF6FF752B404DF6FF752B400D8A06EA60
:1094400005152B434D8A06EA05152B43838084833B
:109450008D68C563028470BD70B5002200230024AE
:10946000058C4EF6FF7635400584038C8488828B0C
:1094700048F6FF752A404FF6FF452A400D884FF603
:10948000FF7606EA05252A434DF6FF752B408D89A8
:1094900006EA05352B434D8806EA05352B43FE4D7C
:1094A000A84202D0FD4DA84208D14BF6FF752C40D2
:1094B0000D8A4FF6FF7606EA85152C438480828359
:1094C0008D680564038470BD002101804180818026
:1094D00081608181C18101824182704770B50346FC
:1094E000002000241846183001258D40ACB21D8C98
:1094F000A5431D8409B108290AD100EB6100056864
:109500004FF68F76354005600568154305600FE01E
:109510000D1FC5F34E052844056848F6FF76354013
:10952000056005684FF6FF7606EA022635430560BA
:1095300070BD4163704781637047C16370470164C8
:1095400070470A460021018B4FF68F731940114373
:10955000018370470A460021018B48F6FF731940CA
:109560004FF6FF7303EA02231943018370470A464B
:109570000021818B4FF68F7319401143818370470F
:109580000A460021818B48F6FF7319404FF6FF739E
:1095900003EA02231943818370470A460021018BA5
:1095A0004FF6F77319401143018370470A460021B3
:1095B000018B4FF2FF7319404FF6FF7303EA02234A
:1095C0001943018370470A460021818B4FF6F773D8
:1095D00019401143818370470A460021818B4FF265
:1095E000FF7319404FF6FF7303EA02231943818387
:1095F00070470A460021018B4FF6FB731940114357
:10960000018370470A460021018B4FF6FF33194052
:109610004FF6FF7303EA02231943018370470A469A
:109620000021818B4FF6FB731940114381837047F2
:109630000A460021818B4FF6FF3319404FF6FF7326
:1096400003EA02231943818370470A460021018BF4
:109650004FF67F7319401143018370470A4600217A
:10966000018BC1F30E014FF6FF7303EA0223194386
:10967000018370470A460021818B4FF67F731940A2
:109680001143818370470A460021818BC1F30E018B
:109690004FF6FF7303EA02231943818370470A469A
:1096A0000021018C4FF6FD7319401143018470476E
:1096B0000A460021018C4FF6F773194011430184CB
:1096C00070470A460021018C4FF6DF7319404FF6B0
:1096D000FF7303EA02131943018470470A4600210D
:1096E000018C4FF67F7319404FF6FF7303EA0213A4
:1096F0001943018470470A460021018C4FF6FF533D
:1097000019404FF6FF7303EA02231943018470479F
:109710000A460021018C4FF2FF7319404FF6FF7388
:1097200003EA02231943018470470A460021018C91
:109730004DF6FF7319404FF6FF7303EA02331943E6
:109740000184704730B5002301248C40A3B2048CFF
:109750009C430484048C02FA01F5ADB22C430484CA
:1097600030BD30B5002304248C40A3B2048C9C434C
:109770000484048C02FA01F5ADB22C43048430BD9C
:10978000828B4FF2FF331A408283828B4FF6FF7336
:1097900003EA01231A4382837047F0B50C4615464D
:1097A000002100220026078C4EF6FF7C07EA0C07FA
:1097B0000784818B028C4FF6FF7707EA043640F668
:1097C000FF4739404FF6FF7707EA052739434FF641
:1097D000FF7707EA0337394345F6FF773A4046F407
:1097E00080573A4381830284F0BD828B4FF6F37336
:1097F0001A408283828B0A4382837047F0B50C46FD
:109800001546002100220026078C4FF6FF6C07EA60
:109810000C070784818B028C4FF6FF7707EA04263A
:109820004FF60C7739404FF6FF7707EA03172F43BF
:1098300039434FF2FF573A4046F480773A438183E9
:109840000284F0BD028B4FF2FF331A400283028B79
:109850004FF6FF7303EA01231A4302837047F0B502
:109860000C461546002100220026078C4FF6EF7C9F
:1098700007EA0C070784018B028C4FF6FF7707EA93
:10988000041640F6FF4739404FF6FF7707EA0337E3
:1098900039434FF6FF7703E0000001400004014028
:1098A00007EA052739434FF65F773A4046F010073D
:1098B0003A4301830284F0BD028B4FF6F3731A40E2
:1098C0000283028B0A4302837047F0B50C461546AB
:1098D00000210022068C4FF6FE773E400684018B65
:1098E000028C4FF60C7631407E1C06EA03162E439E
:1098F00031434FF6F576324044F00106324301839E
:109900000284F0BD70B505460C46208850B9238905
:10991000A28861882846FFF7D8FFE1882846FFF72C
:10992000CBFF25E0208804280AD12389A2886188FA
:109930002846FFF794FFE1882846FFF783FF17E0EA
:10994000208808280AD12389A28861882846FFF741
:1099500055FFE1882846FFF748FF09E02389A288E0
:1099600061882846FFF719FFE1882846FFF708FFBE
:1099700070BD002101804180012181800021C180D2
:10998000018170472DE9F04105460C46002601276C
:10999000608808B9022600E00026A088012801D1CD
:1099A000022700E001272088A0B92389A2886188C6
:1099B0002846FFF78AFFE1882846FFF77DFF2389C5
:1099C0003A4631462846FFF74AFFE1882846FFF726
:1099D00039FF13E02389A28861882846FFF73FFFFB
:1099E000E1882846FFF72EFF23893A46314628466C
:1099F000FFF76BFFE1882846FFF75EFFBDE8F081C7
:109A00000146486B70470146886B70470146C86B3A
:109A100070470146086C70470A884B881A438B8848
:109A20001A43CB881A430B891A434B891A438B89F3
:109A30001A43A0F8442070470021018041808180B2
:109A4000C180018141818181704731B1B0F84420EA
:109A500042F40042A0F8442005E0B0F84420C2F3EC
:109A60000E02A0F84420704721B1828842F004021F
:109A7000828004E082884FF6FB731A408280704730
:109A800021B1828842F00102828004E082884FF690
:109A9000FE731A40828070471AB183890B43838119
:109AA00002E083898B43838170478182704702463D
:109AB0000020138A0B400BB1012000E0002070470A
:109AC000CA430282704730B50246002000230024BA
:109AD000158A05EA0103958905EA010413B10CB161
:109AE000012000E0002030BDCA430282704741EAF5
:109AF0000203A0F8483070471AB183890B43838171
:109B000002E083898B438381704721B1828842F0D0
:109B10000802828004E082884FF6F7731A40828040
:109B2000704701894FF6F8721140018170470A466B
:109B3000002101894FF68F7319401143018170474D
:109B400030B504460D4629462046FFF7F0FF208930
:109B500040F00700208130BD2DE9F04104460D465C
:109B600016461F46602D06D13B460122314620464F
:109B7000FFF775FE05E03B46012231462046FFF720
:109B8000A4FE29462046FFF7D2FF208940F00700B7
:109B90002081BDE8F08130B50C4600210189C9B2B1
:109BA0004FF6FF7505EA0325154325432943018137
:109BB00030BD2DE9F04105460E4617469846002473
:109BC00043463A4631462846FFF7E5FF2C894FF6D3
:109BD000F870044044F007044FF68F70044044F0DE
:109BE00070042C81BDE8F081F0B504460D461646A0
:109BF0001F463B46324629462046FFF7CCFF2089C8
:109C000040F480402081F0BD82884FF68F731A4067
:109C1000828082880A438280704702894FF6F873F7
:109C20001A40028102890A430281704702894FF675
:109C30007F731A40028102890A4302817047F0B59E
:109C40000C4615461E460021002200230189028B86
:109C5000038C4FF6F877394021434FF6FC473A40E2
:109C600040F201173A434FF6DD773B404FF6FF775E
:109C700007EA06172F433B43018102830384F0BDAB
:109C800021B1828842F08002828004E082884FF60F
:109C90007F731A4082807047A0F850107047000010
:109CA00010B50446FB48844208D101218014FEF718
:109CB000D6FE0021A014FEF7D2FE3CE0F648844216
:109CC00008D101210014FEF7B9FE00212014FEF78F
:109CD000B5FE30E0F148844208D10121C013FEF7FF
:109CE000ADFE0021E013FEF7A9FE24E0EC4884421B
:109CF00008D101214014FEF7B2FE00216014FEF7E6
:109D0000AEFE18E0E748844209D101210805FEF7BC
:109D1000A6FE00214FF48010FEF7A1FE0BE0E24802
:109D2000844208D101214805FEF799FE00214FF435
:109D30000010FEF794FE10BD10B50022028802F458
:109D400041520B884C8823438C882343CC8823437F
:109D50000C8923434C8923438C892343CC89234397
:109D60001A430280838B4FF2FF74234083830B8A54
:109D7000038210BD2DE9F04F0025022300244FF08F
:109D8000010900220026002794469046B0F81CA046
:109D90004FF2400B0AEA0B0AA0F81CA04FF0020A8F
:109DA000A0F820A0858BD1F808A0BAF1020F01D14C
:109DB00000BF82E0B1F804A0BAF1000F02D14FF069
:109DC000010901E04FF00209DFF8E0A2DAF800A093
:109DD0000AF4000ABAF1000F09D0DFF8D0A2DAF8CD
:109DE00000A02AF4000ADFF8C4B2CBF800A0DFF824
:109DF000BCA20AF17C0ADAF800A0CAF3881CDFF8DA
:109E0000ACA20AF17C0ADAF800A0CAF30278DFF803
:109E10009CA2AAF1040ADAF800A00AF03F07DFF8D2
:109E20008CA2AAF1040ADAF800A00AF4800ABAF5B2
:109E3000800F08D1DFF878A2BAFBF7FA0AFB0CFA18
:109E4000BAFBF8F607E0DFF86CA2BAFBF7FA0AFBF8
:109E50000CFABAFBF8F6B1F806A0BAF5007F0ED1FD
:109E60004FEA162A0AEB8A0A4FEA4A0AD1F808B0E2
:109E7000BAFBFBFA0AF1050A1FFA8AF20FE04FEA71
:109E8000491AB6FBFAFA0AEB8A0A4FEA4A0AD1F8EB
:109E900008B0BAFBFBFA0AF1050A1FFA8AF24FF082
:109EA0000A0AB2FBFAF202F00104A2EB040ACAF3B6
:109EB0004F034FF6FF7A0AEA0424022B01DBFF2B43
:109EC00001DD02230024B1F806A04AEA040A4AEAA6
:109ED000030AA0F820A0B1F804A0B1F80CB04AEA37
:109EE0000B0AB1F802B04AEA0B0AB1F800B04AEA2C
:109EF0000B0A4AF4006A4AEA05058583BDE8F08F3B
:109F00000021018041808180C18001814181818166
:109F1000C181072101827047002101804180818039
:109F2000C1800221816000218181704721B10288B6
:109F300042F04002028004E002884FF6BF731A40EC
:109F40000280704721B1828B42F48062828304E0F8
:109F5000828B4FF6FF331A408283704702884FF29C
:109F6000FF731A40028002880A4302807047B1F5ED
:109F7000804F04D1028842F48042028004E00288CB
:109F80004BF6FF731A40028070474FF6FF62914212
:109F900004D0028842F48072028004E002884FF606
:109FA000FF631A400280704721B1828842F00402A8
:109FB000828004E082884FF6FB731A4082807047EB
:109FC00021B1828842F01002828004E082884FF63C
:109FD000EF731A408280704730B500220023848BD3
:109FE0004FF240052C40848302240484828B0C8829
:109FF000B4F5007F01D00C8814B94FF4807308E0E9
:10A000000C88B4F5407F03D00C88B4F5807F00D174
:10A0100000238C888D892C434D882C431C4344F4A9
:10A0200000642243828330BD014688897047818164
:10A03000704721B1028842F40052028004E0028895
:10A040004DF6FF731A4002807047018841F4805139
:10A050000180704702460020012901D0108B00E0EA
:10A06000908A70470146088A70471AB183880B436B
:10A07000838002E083888B438380704730B500245F
:10A0800000230C110125A540ABB2AAB185881D4360
:10A09000858014E00030014000380040003C004062
:10A0A0000034014000500140005401400838024093
:10A0B00000127A000024F40085889D43858030BD1D
:10A0C0000246002013890B400BB1012000E0002064
:10A0D0007047CA4302817047F0B502460020002451
:10A0E0000023002501F00F070126BE40B4B20B117A
:10A0F00001269E40B3B2968806EA030516892640DB
:10A1000016B10DB1012000E00020F0BD10B5002215
:10A1100001F00F040123A3409AB2D343038110BD81
:10A1200010B50121C802FEF79AFC00214FF400602F
:10A13000FEF795FC10BD00216C4A116847F6FF62DE
:10A140009143027D83681A4343681A43C3681A43E4
:10A1500003681A4303691A431143644A1160704744
:10A1600000210175016041608160C160016170473B
:10A170005F49086070475D49091F086070475B4888
:10A18000001F006800F0030070470021574B1B1DA3
:10A1900002681A601A1D11686FF30A01D0E90123E1
:10A1A0001A43C3681A4303691A4311434F4A0832DA
:10A1B000116070470021016041608160C1600161F0
:10A1C00070474A480C300068C0B2704708B5014675
:10A1D0000020009045481030084400900098006826
:10A1E00008BD0021414B203302681A601B1D4268E4
:10A1F0001A601A1D116821F0F701D0E902231A43F1
:10A2000003691A4343691A431143384A28321160DB
:10A2100070474FF0FF310160002141608160C160F3
:10A2200001614161704731482C30006870472F4808
:10A230007C30006870472D497C31086070472B489E
:10A240004430006870472B49086070472949091D50
:10A2500008607047274908310860704725490C316C
:10A26000086070472449086070472349091D086049
:10A27000704701218143204A0832116070471E490E
:10A280000C31086070471B4914390860704739B1B8
:10A29000164A383212680243144B38331A6006E00B
:10A2A000124A383212688243104B38331A607047B2
:10A2B000014600200D4A303212680A400AB10120DE
:10A2C00000E00020704709493431086070470146BA
:10A2D0000020064A303212680A400AB1012000E02C
:10A2E000002070470149343108607047042C014058
:10A2F000A0802542A0852542AC812542016821F03D
:10A30000010101600021016041608160C160016163
:10A3100021214161DB49884204D13D21D94A103ACB
:10A3200091608CE0D7491831884205D14FF47461AF
:10A33000D44A103A916082E0D2493031884205D146
:10A340004FF47411CF4A103A916078E0CD4948310A
:10A35000884205D14FF07461CA4A103A91606EE0AC
:10A36000C8496031884204D1C749C64A103AD16011
:10A3700065E0C4497831884204D1C449C14A103AE1
:10A38000D1605CE0BF499031884204D1C049BD4AE8
:10A39000103AD16053E0BB49A831884205D14FF053
:10A3A0003D51B84A103AD16049E0BA49884204D1D7
:10A3B0003D21B84A083A116041E0B6491831884257
:10A3C00005D14FF47461B34A083A116037E0B149DE
:10A3D0003031884205D14FF47411AE4A083A116009
:10A3E0002DE0AC494831884205D14FF07461A94A4B
:10A3F000083A116023E0A7496031884204D1A2499C
:10A40000A44A121F11601AE0A2497831884204D18F
:10A410009E49A04A121F116011E09E499031884266
:10A4200004D19B499B4A121F116008E09949A83149
:10A43000884204D14FF03D51964A121F1160704777
:10A4400010B500220268944B1A40CC680B68234375
:10A450004C6923438C692343CC6923430C6A23430F
:10A460004C6A23438C6A23434C6B23438C6B2343FA
:10A470001A430260426922F00702D1E90B342343F8
:10A480001A4342610B6943604B6883608B68C36009
:10A4900010BD0021016041608160C16001614161C6
:10A4A0008161C161016241628162C1620163416394
:10A4B0008163704721B1026842F00102026003E04B
:10A4C000026822F001020260704721B1026842F482
:10A4D0000042026003E0026822F40042026070471A
:10A4E00021B1026842F02002026003E0026822F01B
:10A4F000200202607047416070470146486880B2A0
:10A50000704722B1036843F40023036003E003684B
:10A5100023F4002303600161704721B1026842F413
:10A520008022026003E0026822F480220260704709
:10A530000AB1016100E0C1607047014600200A686D
:10A5400002F400220AB1012000E000207047014619
:10A5500000200A6802F001020AB1012000E0002098
:10A560007047014600204A6902F03800704730B554
:10A5700003460A4600200024464DAB4202D2414920
:10A58000103901E04349103902F000550DB14C6813
:10A5900000E00C68414D2C4004EA02050DB1012099
:10A5A00000E0002030BD02463A4B9A4202D23548C4
:10A5B000103801E03748103801F000531BB1374B19
:10A5C0000B40C36002E0354B0B408360704710B511
:10A5D00001F080034BB122B1436943F08003436132
:10A5E00003E0436923F08003436180290BD02AB143
:10A5F000036801F01E042343036004E0036801F0D4
:10A600001E04A343036010BD70B502460020002461
:10A610000025204EB24202D21A4B103B01E01D4BE6
:10A62000103B1F4E0E4036B11E2606EAD124166896
:10A6300006EA040502E0566906F0800501F00056BE
:10A640000EB15C6800E01C68144E344004EA010658
:10A6500016B10DB1012000E0002070BD02460D4B87
:10A660009A4202D20748103801E00A48103801F037
:10A6700000531BB1094B0B40C36002E0074B0B407A
:10A6800083607047106002403D000020400F0020B2
:10A6900000003D20106402403F801CF07D0F7D0FC4
:10A6A0003C0F3C0F70B503460C4603E014F8015B09
:10A6B00003F8015B1500A2F10102F7D170BD30B5BE
:10A6C000034601E003F8011B1400A2F10102F9D1D5
:10A6D00030BD10B504467A4951F824104A00794932
:10A6E00051F824000021FFF7EAFF774951F82420B0
:10A6F00074490C3951F824000021FFF7E0FF0121D3
:10A7000070480C30015510BD10B5014600230022E1
:10A7100007E06C4850F8210030F8120000B15B1CD3
:10A72000521C674850F821009042F2D864205843E8
:10A73000634C54F82140B0FBF4F0C0B210BD2DE9D9
:10A74000F04704460F460025A9465E480C30005DE0
:10A7500020B95C4814380168204688471FB94FF07B
:10A76000FF30BDE8F087594850F82400B7FBF0F6F9
:10A77000564850F82400B7FBF0F100FB117000B10F
:10A78000761C4F4850F82400451E20E04D4850F8F4
:10A79000240030F8150010B909F1010901E04FF06B
:10A7A0000009B14512D14FF0000808E0454850F8C3
:10A7B000240005EB080220F8126008F10108B045FA
:10A7C000F4D3424850F824006843CAE76D1E002DB8
:10A7D000DCDA4FF0FF30C4E72DE9F04104460E46C5
:10A7E00038480C30005D38B93648143801682046C6
:10A7F00088470120BDE8F081334850F82400B0427A
:10A8000017D9324850F82400B6FBF0F12D4850F823
:10A81000240030F81120002507E00023294850F8D3
:10A8200024004F1920F817306D1C9542F5DB0020ED
:10A83000E0E70220DEE770B505460C4604B970BDBE
:10A8400020480C3850F82500261A31462846FFF7D4
:10A85000C3FF00BFF3E770B504460E4631462046FD
:10A86000FFF76DFF0546681C08B9002070BD15484C
:10A870000C3850F824002844F8E72DE9F04104464C
:10A880000F46164631462046FFF759FF0546681C1D
:10A8900010B90020BDE8F0810A490C3951F82410A4
:10A8A000481932463946FFF7FDFE39462046FFF784
:10A8B000C2FF04480C3850F824002844EAE700009E
:10A8C000DC1F01085C000020F41F0108E81F0108DC
:10A8D00010B58CB004461E230BAA03A9204600F035
:10A8E000A9FE0090009810B101200CB010BD9DF899
:10A8F0002C00044400200B900EE040489DF82C20D2
:10A9000050F8221003A800F0FDFD00B908E09DF802
:10A910002C00401CC0B20B909DF82C000728ECD3F3
:10A9200000BF9DF82C00072863D2DFE800F0040583
:10A930003C5E6564630000BF31A005F05DFA31A0A4
:10A9400005F05AFA3FA005F057FA4EA005F054FA68
:10A950005CA005F051FA6BA005F04EFA79A005F065
:10A960004BFA86A005F048FA8BA005F045FA90A0B6
:10A9700005F042FA94A005F03FFA99A005F03CFAE0
:10A980009EA005F039FAA4A005F036FAB0A005F0B3
:10A9900033FABDA005F030FAC8A005F02DFAD4A016
:10A9A00005F02AFA9AE216A005F026FAE0A005F0D2
:10A9B00023FA00200B900EE0ED4800689DF82C2053
:10A9C00000EBC2004168EBA005F016FA9DF82C00E0
:10A9D000401CC0B20B90E648007D9DF82C108842C8
:10A9E000EADC07A005F008FA78E205A005F004FA11
:10A9F000C4E171E245E219E2ECE100006C000020E4
:10AA00000D0A00002D2D2D2D2D2D2D2D2D2D2D2D13
:10AA10002D2D2D2D2D2D2D2D2D2D2D2D55534D41E4
:10AA200052542056332E312D2D2D2D2D2D2D2D2DE3
:10AA30002D2D2D2D2D2D2D2D2D2D2D2D2D2D2D2053
:10AA40000D0A00002020202055534D415254CAC702
:10AA5000D3C9414C49454E54454BBFAAB7A2B5C4D2
:10AA6000D2BBB8F6C1E9C7C9B5C4B4AEBFDAB5F751
:10AA7000CAD4BBA5BDBBD7E9BCFE2CCDA8B9FD206F
:10AA80000D0A0000CBFC2CC4E3BFC9D2D4CDA8B9B9
:10AA9000FDB4AEBFDAD6FACAD6B5F7D3C3B3CCD0BD
:10AAA000F2C0EFC3E6B5C4C8CEBACEBAAFCAFD2C69
:10AAB000B2A2D6B4D0D02ED2F2B4CB2CC4E3BFC94C
:10AAC0000D0A0000D2D4CBE6D2E2B8FCB8C4BAAFCB
:10AAD000CAFDB5C4CAE4C8EBB2CECAFD28D6A7B336
:10AAE000D6CAFDD7D62831302F3136BDF8D6C62983
:10AAF000A1A2D7D6B7FBB4AEA1A2BAAFCAFDC8EB2C
:10AB00000D0A0000BFDAB5D8D6B7B5C8D7F7CEAAB8
:10AB1000B2CECAFD292CB5A5B8F6BAAFCAFDD7EE9C
:10AB2000B6E0D6A7B3D63130B8F6CAE4C8EBB2CE99
:10AB3000CAFD2CB2A2D6A7B3D6BAAFCAFDB7B5200C
:10AB40000D0A0000BBD8D6B5CFD4CABE2ED0C2D411
:10AB5000F6B2CECAFDCFD4CABEBDF8D6C6C9E8D6B5
:10AB6000C3B9A6C4DC2CD0C2D4F6BDF8D6C6D7AAC9
:10AB7000BBBBB9A6C4DC2E0D0A000000BCBCCAF5E4
:10AB8000D6A7B3D63A7777772E6F70656E65647601
:10AB90002E636F6D0D0A000055534D415254D3D0B2
:10ABA00037B8F6CFB5CDB3C3FCC1EE3A0D0A0000FD
:10ABB0003F3A202020202020BBF1C8A1B0EFD6FAD8
:10ABC000D0C5CFA20D0A000068656C703A20202025
:10ABD000BBF1C8A1B0EFD6FAD0C5CFA20D0A0000D4
:10ABE0006C6973743A202020BFC9D3C3B5C4BAAF0F
:10ABF000CAFDC1D0B1ED0D0A0A00000069643A2017
:10AC000020202020BFC9D3C3BAAFCAFDB5C4494470
:10AC1000C1D0B1ED0D0A0A006865783A20202020E5
:10AC2000B2CECAFD3136BDF8D6C6CFD4CABE2CBA14
:10AC3000F3B8FABFD5B8F12BCAFDD7D6BCB4D6B499
:10AC4000D0D0BDF8D6C6D7AABBBB0D0A0A000000FB
:10AC50006465633A20202020B2CECAFD3130BDF8B1
:10AC6000D6C6CFD4CABE2CBAF3B8FABFD5B8F12B2A
:10AC7000CAFDD7D6BCB4D6B4D0D0BDF8D6C6D7AAF4
:10AC8000BBBB0D0A0A00000072756E74696D653AEF
:10AC9000312CBFAAC6F4BAAFCAFDD4CBD0D0BCC643
:10ACA000CAB13B302CB9D8B1D5BAAFCAFDD4CBD0DC
:10ACB000D0BCC6CAB13B0D0A0A000000C7EBB0B455
:10ACC000D5D5B3CCD0F2B1E0D0B4B8F1CABDCAE4A6
:10ACD000C8EBBAAFCAFDC3FBBCB0B2CECAFDB2A2CC
:10ACE000D2D4BBD8B3B5BCFCBDE1CAF82E0D0A0066
:10ACF0002D2D2D2D2D2D2D2D2D2D2D2D2D2D2D2D84
:10AD00002D2D2D2D2D2D2D2D2D2D414C49454E54C4
:10AD1000454B2D2D2D2D2D2D2D2D2D2D2D2D2D2D2D
:10AD20002D2D2D2D2D2D2D2D2D2D2D200D0A0000FD
:10AD30002D2D2D2D2D2D2D2D2D2D2D2D2D2D2D2D43
:10AD40002D2D2D2D2D2D2D2D2DBAAFCAFDC7E5B5DD
:10AD5000A52D2D2D2D2D2D2D2D2D2D2D2D2D2D2DAB
:10AD60002D2D2D2D2D2D2D2D2D2D2D2D200D0A0090
:10AD70006001002025730D0A00000000EEA005F020
:10AD80003BF800200B901AE0FB4909689DF82C2045
:10AD900001EBC20101AB02AA486803A900F070FCF4
:10ADA000F54800689DF82C1050F8312003A9F3A055
:10ADB00005F022F89DF82C00401CC0B20B90EE4824
:10ADC000007D9DF82C108842DEDCAFF2CC3005F01F
:10ADD00013F883E0AFF2D83005F00EF80BAA03A900
:10ADE000204600F029FD9DF82C00C8B9694603A84B
:10ADF00000F0BBFB0B909DF82C0020B9E4A000995B
:10AE000004F0FAFF0EE09DF82C00042801D0022087
:10AE10006BE5E2A004F0F0FF0120D749C87501E01E
:10AE2000022062E5DCA004F0E7FF57E0DAA004F0BE
:10AE3000E3FF0BAA03A9204600F0FEFC9DF82C00BE
:10AE4000C8B9694603A800F090FB0B909DF82C0050
:10AE500020B9D7A0009904F0CFFF0EE09DF82C0098
:10AE6000042801D0022040E5D4A004F0C5FF002052
:10AE7000C149C87501E0022037E5C7A004F0BCFF56
:10AE80002CE0C5A004F0B8FF0BAA03A9204600F0EF
:10AE9000D3FC9DF82C00C8B9694603A800F065FBF7
:10AEA0000B909DF82C0078B9B349009881F8EC001C
:10AEB000084690F8EC0018B1C5A004F09DFF07E02B
:10AEC000CAA004F099FF03E002200EE502200CE581
:10AED000B1A004F091FF01E0012006E500BF0020D1
:10AEE00003E510B50121C848FEF7EAFD4FF6FF71F2
:10AEF000C548FEF77BF90021C348FEF775F900202D
:10AF00009D49C1F8F00010BD10B50121BE48FEF703
:10AF1000CEFD012808D19848D0F8F0004FF6FF7117
:10AF200008449549C1F8F000B748FEF761F9924925
:10AF3000D1F8F01008449049C1F8F0000846D0F864
:10AF4000F00010BD10B50121AF48FEF7BCFD01288F
:10AF50000AD18949086980470021AB48FEF744F9C6
:10AF60006421A948FEF742F90121A748FEF7BCFD7C
:10AF700010BD7FB504460D4601210420FDF709FDF3
:10AF8000ADF800500020ADF802000194ADF80800C3
:10AF900069469D48FEF7DFF8012211469A48FEF700
:10AFA0007BFD01219848FEF75FF91E208DF80C000B
:10AFB00003208DF80D008DF80E0001208DF80F0094
:10AFC00003A8FCF72AFE7FBD10B5044604EBC400BD
:10AFD00000EB04100122C2EB800081B24FF47A70C2
:10AFE000FFF7C7FF01206449C87510BD30B595B0A3
:10AFF000054613AB12AA09A9284600F041FB0446F6
:10B0000014B1204615B030BD0020149026E05A49F6
:10B0100009689DF8502001EBC20113AB11AA4868E2
:10B0200001A900F02DFB04460CB12046EAE709A96E
:10B0300001A800F067FA60B99DF844009DF8481037
:10B04000884201DD0220DDE79DF850004A498875FD
:10B050000AE09DF85000401CC0B214904648007DA4
:10B060009DF850108842D2DC00BF4348007D9DF817
:10B070005010884201D10420C4E714A9284600F0EA
:10B080004CFC04460CB12046BCE79DF850003A4900
:10B0900048750020B6E72DE9F0419AB03648847D26
:10B0A000007DA04202DC1AB0BDE8F0813249096897
:10B0B00001EBC40106AB07AA486808A900F0E0FA52
:10B0C00008A952A004F098FE0026B9E02A48008B97
:10B0D0000121B1400840D8B122214EA004F08CFEDD
:10B0E000304600F00DFC24492431471839464AA067
:10B0F00004F082FE222147A004F07EFE304600F0DC
:10B10000FFFB1D492431084410A941F826008DE0B9
:10B11000304600F0F5FB18492431085810A941F8D1
:10B1200026001548C07D30B910A850F826103BA065
:10B1300004F062FE7AE073E02D2D2D2D2D2D2D2DA6
:10B140002D2D2D2D2D2D2D2D2D2D2D2D2D2D2D2D2F
:10B150002DBAAFCAFD204944202D2D2D2D2D2D2D8A
:10B160002D2D2D2D2D2D2D2D2D2D2D2D2D2D2D2D0F
:10B170002D2D2D2D200D0A00600100202573206942
:10B18000642069733A0D0A3058253038580D0A008A
:10B190004845583A305825580D0A00003136BDF858
:10B1A000D6C6B2CECAFDCFD4CABE210D0A00000059
:10B1B0004445433A256C750D0A0000003130BDF856
:10B1C000D6C6B2CECAFDCFD4CABE210D0A00000039
:10B1D00052756E2054696D652043616C63756C61B6
:10B1E00074696F6E204F4E0D0A00000052756E207C
:10B1F00054696D652043616C63756C6174696F6E31
:10B20000204F46460D0A0000000800400D0A257335
:10B21000280000002563000025730000256C7500E0
:10B2200010A850F8261095A004F0E6FD9DF81C002B
:10B23000401EB04202D093A004F0DEFD701CC6B2E6
:10B240009DF81C008642FFF641AF8FA004F0D4FDAC
:10B25000FFF747FE8D48407D0B280DD2DFE800F058
:10B26000060D151E27323F4E5F7287008749096819
:10B2700051F834008047054690E0844A126852F83D
:10B28000341010988847054688E0804B1B6853F8B7
:10B290003420DDE91001904705467FE07B4F3F6891
:10B2A00057F8343010A807C89847054676E0DFF80D
:10B2B000DCC1DCF800C05CF8347010A80FC8B847D7
:10B2C00005466BE01498DFF8C4C10090DCF800C0BC
:10B2D0005CF8347010A80FC8B84705465EE0DDE999
:10B2E0001401DFF8A8C1CDE90001DCF800C05CF86A
:10B2F000347010A80FC8B84705464FE0DDE91412B6
:10B300001698DFF888C1CDE900120290DCF800C081
:10B310005CF8347010A80FC8B84705463EE0DDE978
:10B320001423DDE91610DFF864C1CDE90023CDE96F
:10B330000210DCF800C05CF8347010A80FC8B847E1
:10B3400005462BE0DDE91523DDE91710CDE90123E2
:10B35000CDE903101498DFF834C10090DCF800C088
:10B360005CF8347010A80FC8B847054616E0DDE950
:10B370001623DDE91810CDE90223CDE90410DDE93B
:10B380001401DFF808C1CDE90001DCF800C05CF869
:10B39000347010A80FC8B847054600BF00BFFFF7BC
:10B3A000B3FD9DF8180001280CD13848C07D20B9A4
:10B3B000294637A004F020FD07E0294636A004F016
:10B3C0001BFD02E033A004F017FD304890F8EC00BC
:10B3D00088B12E48D0F8F0000A21B0FBF1F201FB51
:10B3E00012072A48D0F8F000B0FBF1F83A4641467F
:10B3F0002CA004F001FD00BF55E670B5314800886F
:10B4000000F40040002833D02E48057800202E4953
:10B4100048551E4881682C48884704461CB91B497A
:10B42000C868804721E02848FFF752FA0546012DF9
:10B4300000D02C46CCB1012C06D0022C08D0032C15
:10B440000AD0042C10D10BE020A004F0D5FC0BE0B6
:10B4500021A004F0D1FC07E022A004F0CDFC03E021
:10B4600023A004F0C9FC00BF00BF002015490880DC
:10B4700070BD014608687047016070473058255814
:10B48000000000002C0000002900000060010020E6
:10B490003D256C753B0D0A003D305825583B0D0A83
:10B4A0000000000046756E6374696F6E2052756E01
:10B4B0002054696D653A25642E2531646D730D0A3B
:10B4C000000000003400002088160020BAAFCAFD3A
:10B4D000B4EDCEF3210D0A00B2CECAFDB4EDCEF329
:10B4E000210D0A00B2CECAFDCCABB6E0210D0A0098
:10B4F000CEB4D5D2B5BDC6A5C5E4B5C4BAAFCAFDF4
:10B50000210D0A0002460AE010780B78984201D01B
:10B5100001207047107800B902E0521C491CF3E783
:10B5200000BF0020F5E706E002780A70027802B951
:10B5300002E0401C491CF7E700BF704701460020AD
:10B5400005E00A7802B903E0421CD0B2491CF8E7D2
:10B5500000BF704710B50246012000E050430B00C9
:10B56000A1F10104E1B2F9D110BD2DE9F043074684
:10B570000E4600254FF00A083C46002030601FE0D0
:10B580002078392802DC207830280ADA207846280A
:10B5900002DC2078412804DA2078582809D1012DCE
:10B5A00007D12078412801DB4FF01008681CC5B294
:10B5B00005E0207800B904E00120BDE8F083641CB8
:10B5C000DEE700BF3C46B8F1100F0FD1032D01DAC2
:10B5D0000220F2E72078302806D16078582803D17D
:10B5E000A41CA81EC5B204E00320E6E70DB90420A0
:10B5F000E3E71BE00DB1681EC5B22078392806DCF0
:10B600002078302803DB2078A0F1300902E0207890
:10B61000A0F1370929464046FFF79CFF316809FB36
:10B6200000103060641C207800B900E0E2E700BF41
:10B630000020C2E710B50446002010700BE020780F
:10B640000870641C491C1078401C107010789842D7
:10B6500001DB012010BD2078202802D020780028AE
:10B66000EDD10020087000BFF4E70146491C00E05E
:10B67000491C0878202801D10029F9D108787047A1
:10B680002DE9FF4F85B080468946002700200490B1
:10B690000390012002904FF0000B002544461DE06E
:10B6A0002078202816D005F07F00052812DA0DB981
:10B6B00045F0800505F07F00042803D120782A2872
:10B6C00000D00EE0207805F07F010DF80100681C25
:10B6D000C5B202E0852D00D103E0641C207800286B
:10B6E000DED100BF8DB1002005F07F010DF8010013
:10B6F000CBA16846FFF706FF18B900210898017032
:10B7000002E001210898017000254FF0000A44462C
:10B7100014E0641C0AF1010000F0FF0A20782028E0
:10B7200002D020782A2809D12046FFF79EFF06463E
:10B73000282E03D02A2E01D0CDF810A0207828285A
:10B7400002D020780028E4D14446049810B104982F
:10B75000401C04444FF0000A002654E0207810B941
:10B760004FF0010A50E02078282803D116B9781C40
:10B77000C7B213E02078292808D13EB917B1781E46
:10B78000C7B201E04FF0010A47B93DE02078222816
:10B7900004D10EB9012000E00020064647B9207808
:10B7A00020282FD0207889F8000009F1010929E02C
:10B7B00020782C2804D101200290681CC5B214E026
:10B7C0002078202811D0207828280ED04DB9BBF140
:10B7D000050F06DA20780DF80B000BF1010000F0E0
:10B7E000FF0B0298401CC0B20290012F0AD10298B0
:10B7F000022807D10298401CC0B202900398401C56
:10B80000C0B20390641CA9E700BF0398012809D1C6
:10B8100000200DF80B0082A16846FFF773FE08B9FF
:10B8200000200390079903980870002089F8000011
:10B83000504609B0BDE8F08FF0B50346154600202C
:10B8400000220026002455E01F782C2F01D104B9D6
:10B8500001221F78292F01D01F780FB904B94AE0BF
:10B86000002E34D11F78302F02DB1F78392F11DDE5
:10B870001F78612F02DB1F78662F0BDD1F78412FA9
:10B8800002DB1F78462F05DD1F78582F02D01F7866
:10B89000782F0CD102B12EE01F78612F03DB1F78C7
:10B8A000203F0F7001E01F780F70491C1FE01F78C8
:10B8B000222F04D102B11EE00126012417E01F78D7
:10B8C000202F14D01F782C2F11D0FF2613E01F78C3
:10B8D000222F00D1002402B10DE044B11F785C2F6B
:10B8E00002D15B1C471CF8B21F780F70491C471C23
:10B8F000F8B25B1CA8E700BF00270F702E70F0BDE8
:10B9000002460020002105E0474B5B5C0344D8B2AF
:10B910004B1CD9B29142F7DB70472DE9F043B5B02B
:10B9200005460F460024002604E000213E488155CC
:10B93000701CC6B20A2EF8DB06E06D1C287818B918
:10B94000012035B0BDE8F08328782828F5D16D1C9A
:10B9500061E034AA69462846FFF76EFF0646354483
:10B960009DF8D00020B1012827D0FF284CD149E014
:10B970009DF8000000B333A96846FFF7F6FD0646C0
:10B980000EB10220DDE72046FFF7BAFF26490A3153
:10B99000339A0A50A1F12400008B0121A140884371
:10B9A00021491A39088304211F480155601CC4B27B
:10B9B0000A2C01DD0320C4E726E06846FFF7BEFD40
:10B9C000401C00F0FF082046FFF79AFF16490A3195
:10B9D00000EB010949466846FFF7A5FD12481A38F1
:10B9E000018B0120A040014388B20F491A39088316
:10B9F0000D4800F80480601CC4B20A2C01DD03204D
:10BA00009FE701E002209CE700BF2878292801D0A9
:10BA1000287800B900E09CE700BF3C70002090E768
:10BA2000766F6964000000007A01002070B504465A
:10BA3000002514B1012C0BD103E0FAF7C3FC054635
:10BA400008E0F9F777FD4FF4A0406A49088001E06B
:10BA5000012500BF00BF0DB1012070BD0020FCE733
:10BA60000146002070472DE9F04107460E46154675
:10BA70001C464FF0000814B90420BDE8F08117B14E
:10BA8000012F16D106E0E2B229463046FBF7FCFC56
:10BA9000804611E009E069024FF400723046F9F780
:10BAA000B6FD6D1C06F50076641E002CF3D1A04691
:10BAB00002E04FF0010800BF00BFB8F1000F01D154
:10BAC0000020DAE70120D8E72DE9F04107460E46CD
:10BAD00015461C464FF0000814B90420BDE8F0815B
:10BAE00017B1012F16D106E0E2B229463046FBF726
:10BAF00029FD804611E009E069024FF400723046EA
:10BB0000F9F721FE6D1C06F50076641E002CF3D1BA
:10BB1000A04602E04FF0010800BF00BFB8F1000FDF
:10BB200001D10020DAE70120D8E72DE9F0470646E9
:10BB30008946154646BBB9F1000F09D0B9F1010F8E
:10BB400013D0B9F1020F05D0B9F1030F19D106E0F6
:10BB5000002418E04FF400702860002413E0264809
:10BB6000B0F85000288000240DE023484FF4007204
:10BB70000023D0E91271384604F019F92860002436
:10BB800001E0042400BF22E0012E1FD1B9F1000F13
:10BB900009D0B9F1010F11D0B9F1020F05D0B9F1F7
:10BBA000030F10D106E000240FE04FF4007028804E
:10BBB00000240AE008202880002406E00D480088C0
:10BBC0002860002401E0042400BF00E00124204696
:10BBD000BDE8F0870020704710B5044621460020DC
:10BBE000FEF739FE10BD10B5044621460020FEF7D1
:10BBF00022FE10BD540200203014002070B5034610
:10BC00000C4603E014F8015B03F8015B1500A2F198
:10BC10000102F7D170BD30B5034601E003F8011B06
:10BC20001400A2F10102F9D130BDF0B503461C4663
:10BC30000D46002000BF1600A2F1010207D014F843
:10BC4000017B15F801CBA7EB0C063000F3D0F0BD5B
:10BC5000024600E0521C107810B110788842F9D1E9
:10BC60001078704770B504462079F8B1E56A6078BD
:10BC700001232A4604F13001FFF726FF08B1012015
:10BC800070BD00202071206A281AA16988420DD257
:10BC9000E67809E0A0690544607801232A4604F1AA
:10BCA0003001FFF711FF761E022EF3D20020E7E7E6
:10BCB00070B504460D46E06AA84210D02046FFF752
:10BCC000D1FF08B1012070BD607801232A4604F13C
:10BCD0003001FFF7C8FE08B10120F4E7E56200205B
:10BCE000F1E770B504462046FFF7BCFF0546002D7E
:10BCF00059D1207803284FD1607901284CD14202D4
:10BD0000002104F13000FFF786FF552184F82E1240
:10BD1000AA2184F82F12522084F8300052213120B9
:10BD200001556121322001554121332001557221F5
:10BD300084F8141284F81512412184F81612612136
:10BD400084F81712217C84F81812208A010A84F8DA
:10BD500019122069010C84F81A122069010E84F866
:10BD60001B12217B84F81C12A089010A84F81D1281
:10BD7000E068010C84F81E12E068010E84F81F12BE
:10BD8000E069401CE0626078012304F13001E26A5E
:10BD9000FFF79AFE00206071607800221146FFF7DD
:10BDA000C4FE00B10125284670BD0246891E5069B7
:10BDB000801E884201D8002070479378906A01FB6A
:10BDC0000300F9E72DE9F04105460C46022C02D3A9
:10BDD0006869A04202D80120BDE8F08128780128D6
:10BDE00004D002282CD003285AD13DE0274607EB87
:10BDF0005707286A00EB57212846FFF759FF00B183
:10BE000050E0C7F3080105F1300010F801807F1CF5
:10BE1000286A00EB57212846FFF74AFF00B141E0AE
:10BE2000C7F3080105F13000405C48EA002804F03F
:10BE3000010010B14FEA1810CEE7C8F30B00CBE7B2
:10BE4000286A00EB14212846FFF732FF00B129E0F1
:10BE500040F2FF1000EA440105F130000E1830787E
:10BE6000717840EA0120B7E7286A00EBD411284630
:10BE7000FFF71EFF00B115E040F2FF1000EA840159
:10BE800005F130000E18F0780006B17840EA014064
:10BE9000717840EA01203178084320F070409BE738
:10BEA000012099E700BF4FF0FF3095E72DE9F047FB
:10BEB00005460E461746022E02D36869B04202D8E4
:10BEC0004FF002088AE02878012804D0022841D0E7
:10BED00003287DD154E0B14609EB5909286A00EBEB
:10BEE00059212846FFF7E4FE8046B8F1000F00D044
:10BEF00071E0C9F3080105F130000C1806F00100EB
:10BF000020B1F9B2207861F31F1000E038462070AC
:10BF100009F1010901202871286A00EB59212846FE
:10BF2000FFF7C6FE8046B8F1000F00D053E0C9F31A
:10BF3000080105F130000C1806F0010010B1C7F33C
:10BF4000071005E0207800F0F000C7F30321084354
:10BF5000207040E0286A00EB16212846FFF7A8FE73
:10BF60008046B8F1000F00D035E040F2FF1000EA43
:10BF7000460105F130000C182770380A60702AE07D
:10BF8000286A00EBD6112846FFF792FE8046B8F1EA
:10BF9000000F00D01FE040F2FF1000EA860105F11B
:10BFA00030000C18E0780006A17840EA0140617882
:10BFB00040EA01202178084300F0704007432770D1
:10BFC000380A6070380CA070380EE07003E0FFE7AC
:10BFD0004FF0020800BF00BF012028714046BDE8B5
:10BFE000F0872DE9F04104460E46022E02D3606927
:10BFF000B04201D8022727E0002721E03146204641
:10C00000FFF7E0FE054605B91DE0012D01D102272D
:10C0100019E0681C08B9012715E0002231462046C6
:10C02000FFF744FF074607B10DE02069401C30B11F
:10C030002069401C2061607940F0010060712E464B
:10C040006069B042DAD800BF3846BDE8F0812DE91A
:10C05000F04704468946B9F1000F06D1E76817B1E9
:10C060006069B84215D8012713E049462046FFF71A
:10C07000A9FE0646022E02D20120BDE8F087701C00
:10C0800008B93046F9E76069B04201D93046F4E7B3
:10C090004F463D4600BF6D1C6069A84204D802258A
:10C0A000BD4201D90020E8E729462046FFF78AFE75
:10C0B000064606B909E0701C08B1012E01D13046D0
:10C0C000DBE7BD42E7D10020D7E700BF6FF0704249
:10C0D00029462046FFF7EAFE8046B8F1000F08D156
:10C0E000B9F1000F05D02A4649462046FFF7DEFE8B
:10C0F0008046B8F1000F0BD1E5602069401C78B193
:10C100002069401E2061607940F00100607107E005
:10C11000B8F1010F02D14FF0FF3000E001200546D9
:10C120002846AAE770B503460D46586A021D680AFC
:10C130001E68B678B0FBF6F400BF02CA09B9002049
:10C1400070BD8C4200D202E0641A121DF5E700BFF8
:10C1500010682044F4E72DE9F04104460E46E680DD
:10C16000A568012D03D020684069A84202D80220AA
:10C17000BDE8F0812DB920680078032801D120683E
:10C18000456A45B920680089B04201D80220EFE72E
:10C190002068476A1EE0206880784FEA001812E0A5
:10C1A00029462068FFF70EFE0546681C08B90120E5
:10C1B000DEE7022D03D320684069A84201D802209F
:10C1C000D6E7A6EB08064645EAD229462068FFF7DF
:10C1D000ECFD0746E5600FB90220C9E707EB161032
:10C1E00020612068303006F00F0100EB41106061E3
:10C1F0000020BDE72DE9F04104468846E088461C52
:10C20000B0B208B1206910B90420BDE8F08106F091
:10C210000F0000286CD12069401C2061E06828B91B
:10C2200020680089B04263D80420EEE72068807857
:10C23000401E00EA161000285AD1E1682068FFF776
:10C24000C1FD0546012D01D80220DEE7681C08B9B2
:10C250000120DAE720684069A84243D8B8F1000F0E
:10C2600001D10420D1E7E1682068FFF7F0FE054620
:10C270000DB90720C9E7012D01D10220C5E7681CCF
:10C2800008B90120C1E72068FFF7ECFC08B10120E4
:10C29000BBE7216801F130004FF400720021FFF785
:10C2A000BAFC29462068FFF780FD2168C862002794
:10C2B0000EE00120216808712068FFF7D3FC08B167
:10C2C0000120A2E72068C06A401C2168C8627F1C68
:10C2D00020688078B842ECD82068C06AC01B21680A
:10C2E000C86200BFE56029462068FFF75EFD206157
:10C2F000E6802068303006F00F0100EB41106061ED
:10C30000002082E72DE9F04104460E460021204638
:10C31000FFF721FF0546EDB9002700BF216920681E
:10C32000FFF7C6FC054605B113E060690078E52813
:10C3300002D06069007820B9781C0746B04201D16C
:10C3400007E0002701212046FFF754FF0546002D96
:10C35000E4D000BF042D00D107252846BDE8F081B8
:10C3600010B502468C7ECB7E44EA03201378032B63
:10C3700005D10C7D4B7D44EA032340EA034010BD08
:10C3800081760B0AC3760A0C02750B0E4375704753
:10C390002DE9F04705460C46207820F04000401E6D
:10C3A00000EB800101EBC00600274FF0010800BF41
:10C3B000FE48C05D205CFD49C95D2144497840EAE2
:10C3C0000129B8F1000F10D0484603F0E2F9804689
:10C3D000FF2E07D23146761C35F8110003F0D9F94B
:10C3E000404508D00020BDE8F0874FF6FF7081453A
:10C3F00001D00020F7E7781C07460D28D8D3207815
:10C4000000F0400038B1B8F1000F04D035F8160044
:10C4100008B10020E7E70120E5E7F0B5034608781A
:10C4200000F03F00401E00EB800707EBC002002534
:10C43000012600BFDD48405D085CDC4F7F5D0F4496
:10C440007F7840EA07244EB1FF2A01D30020F0BDD7
:10C4500026461046521C23F8104005E04FF6FF70A8
:10C46000844201D00020F2E7681C05460D28E1D384
:10C47000087800F0400030B1FF2A01D30020E6E741
:10C48000002023F812000120E1E7F0B504461D4624
:10C490004D730F27CF7200270F738F76BC4681F83C
:10C4A0001BC0571E07EB870C0CEBC706002738464E
:10C4B0003B4600BF4FF6FF77B84203D03746761CA5
:10C4C00034F81700DFF8E4C21CF803C001F80C00D0
:10C4D0000712DFF8D8C21CF803C08C448CF8017036
:10C4E00008B94FF6FF705F1C3B460D2FE2D34FF6A5
:10C4F000FF77B84202D034F816700FB942F040020C
:10C500000A70F0BD2DE9FC4707468A4690461E4654
:10C510000B2251463846FFF771FB052E18D93046DD
:10C5200010E038F8021B00250AE00A4660F35F02BB
:10C530001046491000F480320AB19D4A50406D1CEB
:10C54000102DF2D3B8F80020002AEAD1064600BF29
:10C55000072500BF06F00F0000F13009B9F1390FCF
:10C5600003DD09F1070000F0FF0928466D1E0DF8F4
:10C5700000903609002EEDD17E200DF80500002434
:10C580000BE0385D812807DB385DFE2804DC681E7F
:10C59000A04200D106E0641C641CAC4202D2385DAB
:10C5A0002028EED100BF00BF082D04D228466D1C04
:10C5B0001DF8001000E020212046641C3954082C8E
:10C5C000F2D3BDE8FC8730B5014600200B2200BF46
:10C5D000431003EBC01411F8015B6319D8B2531E6A
:10C5E0001A00F5D130BD2DE9F04704460021204660
:10C5F000FFF7B1FD074617B13846BDE8F0874FF0A9
:10C60000FF09CA4600BF21692068FFF751FB0746B2
:10C6100007B154E065692E780EB904274FE0E87A37
:10C6200000F03F08E52E05D008F0080028B1B8F169
:10C630000F0F02D04FF0FF093AE0B8F10F0F1CD1F5
:10C64000E069A0B306F0400030B195F80DA026F0E7
:10C650004006B146E08820844E450AD1687B5045AB
:10C6600007D12946E069FFF793FE10B1A9F1010057
:10C6700000E0FF2000F0FF091AE0B9F1000F05D13A
:10C680002846FFF7A0FF504500D118E04FF0FF0902
:10C690004FF6FF702084A069C07A00F0010030B925
:10C6A0000B222846A169FFF7C0FA00B907E0FFE7AF
:10C6B00000212046FFF79EFD0746002FA3D000BFB4
:10C6C00038469AE72DE9F05F04468A464FF0FF09A5
:10C6D000CB4604274EE021692068FFF7E9FA0746B8
:10C6E00007B14AE0666935780DB9042745E0F07A6C
:10C6F00000F03F08E52D09D02E2D07D0B8F1080F26
:10C7000001D1012000E00020504502D04FF0FF0988
:10C7100029E0B8F10F0F1AD105F0400030B196F8BA
:10C720000DB025F04005A946E08820844D450AD18A
:10C73000707B584507D13146E069FFF76EFE10B1B6
:10C74000A9F1010000E0FF2000F0FF090BE0B9F1C2
:10C75000000F04D13046FFF736FF584502D04FF6A0
:10C76000FF70208409E000212046FFF743FD0746C3
:10C7700007B102E020690028ADD100BF0FB1002051
:10C7800020613846BDE8F09F2DE9FE4F0446D4F8FD
:10C790001880D4F81C900C2241466846FFF72EFA08
:10C7A00000BF9DF80B0000F0010003E0002001082D
:10C7B0002110010020B3002088F80B00E061012661
:10C7C0000CE033464A4669464046FFF79BFE20464A
:10C7D000FFF709FF054605B102E0761C642EF0D391
:10C7E00000BF642E02D10720BDE8FE8F042D01D0CA
:10C7F0002846F9E79DF80B0088F80B00C4F81C9058
:10C800009DF80B0000F0020060B1002600E0761CED
:10C8100039F816000028FAD106F119000D21B0FBF5
:10C82000F1F700E0012739462046FFF76BFD05468A
:10C8300045BB781E070025D0E088C11B2046FFF7C6
:10C840008AFC0546F5B9A069FFF7BDFE824600BF28
:10C8500021692068FFF72CFA054605B111E0FAB20C
:10C8600053466169E069FFF710FE012021680871F5
:10C8700000212046FFF7BEFC054615B9781E0700CB
:10C88000E6D100BFC5B921692068FFF711FA054656
:10C8900095B9202200216069FFF7BDF90B22D4E988
:10C8A0000501FFF7ABF9A069C07A00F018006169D3
:10C8B0000873012021680871284695E770B5044681
:10C8C000E688208C4FF6FF72904201D1304600E09E
:10C8D000208C01462046FFF73EFC05460DBB00BFFD
:10C8E00021692068FFF7E4F9054605B115E020222B
:10C8F00000216069FFF78FF9E52061690870012068
:10C9000021680871E088B04200D306E0002120468B
:10C91000FFF770FC0546002DE2D000BF042D00D1CA
:10C920000225284670BD2DE9F04707460C4604F164
:10C9300009063869002843D07869002526E0294691
:10C940006D1C10F80180B8F1200F00D11EE0B8F185
:10C95000050F01D14FF0E508092D02D12E2106F86F
:10C96000011BB8F1410F0EDBB8F15A0F0BDC017B54
:10C97000092D01D3102200E00822114019B108F15D
:10C98000200101F0FF0806F8018B00BF0B2DD6D364
:10C99000C17A2172C17F0A06817F42EA0142417F4A
:10C9A00042EA0121027F11432160027E417E42EA78
:10C9B0000121A180827DC17D42EA0121E18000BF89
:10C9C00000203070A06990B30025A669386958B37B
:10C9D000E06948B3388C4FF6FF71884224D0D7F80D
:10C9E0001CA01BE00021484602F08AFE8146B9F1F6
:10C9F000000F01D1002516E0B9F1FF0F04DD4FEA69
:10CA0000292228466D1C3254E069401EA84201D8F4
:10CA1000002508E028466D1C06F800903AF8021B35
:10CA20005FEA0109DED100BF0020705500BFBDE8FC
:10CA3000F0872DE9F34F83B0814604980068019098
:10CA400002E00198401C0190019800782F28F8D04E
:10CA5000019800785C28F4D0D9F81CA000252F4656
:10CA600000BF38467F1C01990C5C202C03DB2F2C67
:10CA700001D05C2C00D132E0FF2D03D3062005B09D
:10CA8000BDE8F08FE4B2812C13DBE0B2FE2810DCAD
:10CA900038467F1C01990E5C402E01DB7E2E05DDA1
:10CAA000802E01DBFE2E01DD0620E8E706EB0420E8
:10CAB00084B20121204602F023FE04460CB9062070
:10CAC000DDE7802C06DA2146F9A0FFF7C1F808B1AE
:10CAD0000620D4E728466D1C2AF81040C1E700BFA5
:10CAE0000198C11904980160202C01DA042000E0AB
:10CAF0000020804608E0681E3AF81040202C02D042
:10CB00002E2C00D002E06D1E002DF4D100BF0DB917
:10CB10000620B4E700202AF815000B222021D9F8BE
:10CB20001800FFF778F8002700E07F1C3AF817009C
:10CB30002028FAD03AF817002E28F6D00FB148F086
:10CB4000030800E06D1E25B1681E3AF810002E287B
:10CB5000F8D10020064602904FF0080B00BF38467F
:10CB60007F1C3AF8104004B963E0202C03D02E2C2F
:10CB700004D1AF4202D048F00308F0E702985845CC
:10CB800001D2AF4214D1BBF10B0F02D148F0030820
:10CB90004FE0AF4201D048F00308AF4200D948E06F
:10CBA0002F46082002904FF00B0BB006060ED6E77A
:10CBB000802C09DB204602F0ECFD0021009002F001
:10CBC0009FFD044648F00208FF2C11DDABF1010087
:10CBD0000299884204D848F00308CDF808B0BEE7AF
:10CBE0002212D9F818300298411C02911A5419E007
:10CBF00024B12146B1A0FFF72BF818B15F2448F00B
:10CC000003080FE0412C04DB5A2C02DC46F002063C
:10CC100008E0612C06DB7A2C04DC46F00106A4F166
:10CC2000200084B2D9F818300298411C02911C549B
:10CC300095E700BFD9F818000078E52803D1052052
:10CC4000D9F818100870BBF1080F01D1B006060E14
:10CC500006F00C000C2803D006F00300032801D1D5
:10CC600048F0020808F0020058B906F00300012855
:10CC700001D148F0100806F00C00042801D148F05A
:10CC80000808D9F8180080F80B800020F7E62DE995
:10CC9000F3410446019800782F2803D001980078CA
:10CCA0005C2802D10198401C01900020A0600198EE
:10CCB0000078202807D200212046FFF74CFA0546CD
:10CCC0000020606128E000BF01A92046FFF7B1FE07
:10CCD000054605B11FE02046FFF785FC0546A06923
:10CCE000C67A3DB1042D04D100BF06F0040000B99E
:10CCF000052510E006F0040000B10CE06769F87A41
:10CD000000F0100008B9052505E039462068FFF756
:10CD100027FBA060D8E700BF2846BDE8FC8170B5BE
:10CD200002464FF0FF301568E5B1116800E0491C7C
:10CD30000D78202D02D30D783A2DF8D10D783A2DAB
:10CD40000FD1146814F8015BA5F130030A2B07D248
:10CD50008C4205D1022B03D218464D1C2946156082
:10CD600070BD002000BFFBE770B504460D460020F3
:10CD70002071401EE06229462046FEF799FF08B167
:10CD8000032070BD94F82E1294F82F0241EA00207F
:10CD90004AF65521884201D00220F2E794F8690052
:10CDA000010694F8680041EA004194F8670041EAFE
:10CDB000002094F86610084320F07F4041498842E3
:10CDC00001D10020DDE794F88500010694F8840085
:10CDD00041EA004194F8830041EA002094F882106F
:10CDE000084320F07F403749884201D10020C8E73E
:10CDF0000120C6E72DE9F74F88B0002108980160AF
:10CE00000998FFF78CFF07900798002803DA0B209A
:10CE10000BB0BDE8F08F2C49079851F820400CB9B1
:10CE20000C20F5E708980460207878B16078FEF768
:10CE300017FE804608F0010040B90A9820B108F0BA
:10CE4000040008B10A20E3E70020E1E70020207099
:10CE5000079860706078FEF7E9FD804608F00100F1
:10CE600008B10320D4E70A9820B108F0040008B103
:10CE70000A20CDE7002739462046FFF775FF054613
:10CE8000012D01D09DB93BE0002623E004F5F771A8
:10CE900001EB06100179C9B1C17A0A06817A42EA2A
:10CEA0000142417A42EA0121027A11430FE027E070
:10CEB000222A3A3C3E3F7C7F000000002B2C3B3D69
:10CEC0005B5D0000464154005802002000214DF8EF
:10CED0002610761C042ED9D3002606B1761E00BF7C
:10CEE0005DF8267027B139462046FFF73DFF00E088
:10CEF000022005461DB1701C06460428F0D300BF71
:10CF0000032D01D1012083E70DB10D2080E73B20E7
:10CF1000015D94F83C0041EA0020B0F5007F01D0AB
:10CF20000D2075E74620015D94F8470041EA00298D
:10CF3000B9F1000F0ED194F85700010694F856008D
:10CF400041EA004194F8550041EA002094F8541059
:10CF500040EA0109C4F818904020005DE070E078D4
:10CF6000012804D0E078022801D00D2050E7E078B5
:10CF700009FB00F93D20005DA070A07818B1A078F1
:10CF8000411E084008B10D2042E74120015D94F8A0
:10CF9000420041EA00202081207A00F00F0008B111
:10CFA0000D2035E74320015D94F8440041EA002B51
:10CFB000BBF1000F0ED194F85300010694F8520013
:10CFC00041EA004194F8510041EA002094F85010E1
:10CFD00040EA010B3E20015D94F83F0041EA002049
:10CFE0000490049808B90D2012E704984844218958
:10CFF00000EB111006900698834501D20D2007E73B
:10D000000698ABEB0000A178B0FBF1FABAF1000F83
:10D0100001D10D20FCE6012540F6F670824500D3D3
:10D0200002254FF6F670824500D303250AF102006F
:10D030006061E76104983844206206983844A06231
:10D04000032D16D1208908B10D20E1E694F85F0088
:10D05000010694F85E0041EA004194F85D0041EA5F
:10D06000002094F85C1008436062606980000590BD
:10D0700014E0208908B90D20CAE6206A484460629D
:10D08000022D02D16069400007E0207D00F0010020
:10D09000616901EB410100EB51000590A169059820
:10D0A00000F2FF10B1EB502F01D20D20B0E64FF08F
:10D0B000FF302061E06080206071032D5AD194F828
:10D0C000601094F8610041EA0020012852D1791CD7
:10D0D0002046FEF7EDFDE8BB0020607194F82E12AB
:10D0E00094F82F0241EA00204AF65521884241D1A6
:10D0F0003320005D01063220005D41EA004131200D
:10D10000005D41EA002094F830100843FC49884251
:10D1100030D194F81702010694F8160241EA004152
:10D1200094F8150241EA002094F814120843F549D6
:10D1300088421FD194F81B02010694F81A0241EAB2
:10D14000004194F8190241EA002094F818120843AB
:10D15000206100E00EE094F81F02010694F81E0220
:10D1600041EA004194F81D0241EA002094F81C12A3
:10D170000843E0602570E4480088401C80B2E24922
:10D180000880E080002043E670B505462C464CB18F
:10D19000206838B12068007820B12068C088A18854
:10D1A000884201D0092070BD21684878FEF758FCFC
:10D1B00000F0010008B10320F5E70020F3E7F7B520
:10D1C00082B016460398019001A8FFF7A8FD054616
:10D1D000002D02DA0B2005B0F0BDCC4850F82540F8
:10D1E0000CB100202070029810B100200299087044
:10D1F000C649029841F82500029808B1012E01D0D5
:10D200000020E8E7002203A902A8FFF7F3FD074684
:10D210003846E0E72DE9F7478DB0054616461DB9BB
:10D22000092010B0BDE8F0870020286006F01F0636
:10D2300026F001020EA904A8FFF7DCFD0746002F27
:10D2400073D14FF40070FEF7C7FC8146B9F1000FAF
:10D2500001D11120E5E7CDF82C9001A80A9004A88F
:10D260000E99FFF714FD0746099C0FB904B906276C
:10D2700006F01C00002851D04FB1042F03D104A8A0
:10D28000FFF782FA074646F00806099C09E0E07AB3
:10D2900000F0110008B1072703E006F0040000B118
:10D2A0000827002F39D106F00800002835D0FEF7F6
:10D2B00091FC804684F80E804FEA1821E1734FEA12
:10D2C000184121744FEA186161740020E0722077E0
:10D2D00000216177A177E17721460498FFF740F8B4
:10D2E000824600212046FFF74BF80120049908717F
:10D2F000BAF1000F11D00498D0F82C805146049850
:10D30000FEF76FFE074647B9AAF101000499C8600D
:10D3100041460498FEF7CCFC07460FE077B9E07A67
:10D3200000F0100010B1042708E031E006F0020020
:10D3300020B1E07A00F0010000B1072747B906F0FC
:10D34000080008B146F020060498C06AE8612C6223
:10D350004846FEF748FCDFB9AE710020E87121466F
:10D360000498FEF7FDFF2861E07F0106A07F41EAF7
:10D370000041607F41EA0020217F0843E8600020EF
:10D38000A860A8616862049828602868C088A8809E
:10D39000384646E72DE9FF4F83B0044615469A46C6
:10D3A000DDF810B00020CAF800002046FFF7ECFEC0
:10D3B0000290029818B1029807B0BDE8F08FE079AA
:10D3C00008B1E079F8E7A07900F0010008B907207A
:10D3D000F2E7D4E90210401A00900098854200D983
:10D3E000009DB3E02089C0F30800002876D12068B2
:10D3F0008078401EA16800EA512000F0FF09B9F1D1
:10D40000000F1FD1A06810B9206901900CE0606A7C
:10D4100028B12046A168FEF785FE019004E061690D
:10D420002068FEF7CFFC01900198022802D202206A
:10D43000E071C1E70198401C10B90120E071BBE721
:10D440000198606161692068FEF7AFFC064616B975
:10D450000220E071B0E74E444FEA5528B8F1000FC2
:10D4600029D009EB080021688978884203D920680F
:10D470008078A0EB0908216848784346324659462F
:10D48000FEF7F1FA10B10120E07195E7A07900F004
:10D49000400068B1A069801B404509D2A169891B81
:10D4A0000BEB41204FF4007204F12801FEF7A6FBBC
:10D4B0004FEA482740E0A069B04229D0A07900F0A7
:10D4C000400080B121684878012304F12801A26955
:10D4D000FEF7FAFA18B10120E0716DE719E0A079C2
:10D4E00020F04000A071216848780123324604F101
:10D4F0002801FEF7B8FA58B10120E0715CE700009E
:10D500005252614172724161600200205802002053
:10D51000A6612089C0F30800C0F50077AF4200D9AA
:10D520002F462089C0F3080204F1280011183A465A
:10D530005846FEF763FB00BFBB44A0683844A060B8
:10D54000DAF800003844CAF80000ED1B002D7FF423
:10D5500049AF002030E72DE9FF4F83B00446154660
:10D560009B46049801900020CBF800002046FFF76E
:10D570000BFE0290029818B1029807B0BDE8F08F38
:10D58000E07908B1E079F8E7A07900F0020008B985
:10D590000720F2E7A0682844A168884200D200254D
:10D5A000C2E02089C0F3080000286FD1206880788D
:10D5B000401EA16800EA512000F0FF0ABAF1000FF6
:10D5C0002CD1A06858B9D4F81080B8F1000F13D14D
:10D5D00000212068FEF73BFD804620610CE0606A78
:10D5E00028B12046A168FEF79DFD804604E06169F0
:10D5F0002068FEF72CFD8046B8F1000F00D196E0C0
:10D60000B8F1010F02D10220E071B6E708F1010084
:10D6100010B90120E071B0E7C4F81480A07900F0DF
:10D62000400078B121684878012304F12801A269FB
:10D63000FEF74AFA10B10120E0719EE7A07920F0D0
:10D640004000A07161692068FEF7AFFB064616B97D
:10D650000220E07191E756444FEA5529B9F1000FD5
:10D660002BD00AEB090021688978884203D9206809
:10D670008078A0EB0A09216848784B463246019928
:10D68000FEF722FA18B10120E07176E729E0A069DF
:10D69000801B48450ED2A069801B019A02EB4021F5
:10D6A0004FF4007204F12800FEF7A8FAA07920F0E8
:10D6B0004000A0714FEA49272AE0A069B0420FD08C
:10D6C000D4E9020188420BD221684878012332460E
:10D6D00004F12801FEF7C7F910B10120E0714CE711
:10D6E000A6612089C0F30800C0F50077AF4200D9D9
:10D6F0002F462189C1F3080204F1280150183A4647
:10D700000199FEF77BFAA07940F04000A07100BFBC
:10D71000019838440190A0683844A060DBF800000C
:10D720003844CBF80000ED1B002D7FF43AAF00BF6A
:10D73000D4E90201884201D9A068E060A07940F0F4
:10D740002000A071002018E72DE9F0410446204692
:10D75000FFF71AFD0746002F4CD1A07900F02000FA
:10D76000002847D0A07900F0400078B121684878BF
:10D77000012304F12801A269FEF7A6F910B10120E6
:10D78000BDE8F081A07920F04000A071E169206837
:10D79000FEF78EFA0746002F2CD1256AE87A40F072
:10D7A0002000E872207B2877A089010A6977E06869
:10D7B000010CA977E068010EE97728462169FEF798
:10D7C000DFFDFEF707FA0646AE75310AE975310C42
:10D7D0002976310E69760020A8740021E974A079B9
:10D7E00020F02000A0710120216808712068FEF758
:10D7F00078FA07463846C3E770B505462846FFF76E
:10D80000A3FF044634B92846FFF7BEFC04460CB912
:10D8100000202860204670BD2DE9FE4F04460D46CD
:10D820002046FFF7B1FC0290029810B10298BDE8C3
:10D83000FE8FE07908B1E079F9E7606A002871D0DD
:10D84000681C00283BD1D4F8248058F804AB4FF072
:10D85000020926693EB300BF00964FF0000B09F1A4
:10D86000020900BF01960BF1010B31462068FEF75B
:10D87000A9FA0646012E02D80220E071D7E7701CF3
:10D8800010B90120E071D2E70198401C8642E9D02E
:10D89000D14504D848F804BB009848F8040B206828
:10D8A0004069B042D8D8606AC0F80090D14503D82A
:10D8B0000020C8F8000047E01120029044E0E06832
:10D8C000A84200D2E568A560002D3DD0691E204623
:10D8D000FEF728FC606161692068FEF766FA07467A
:10D8E00017B90220E071A2E720688078401E691E07
:10D8F00000EA512007442089C0F3080020B3A06942
:10D90000B84221D0A07900F0400080B12168487869
:10D91000012304F12801A269FEF7D6F818B101200D
:10D92000E07184E711E0A07920F04000A071216847
:10D93000487801233A4604F12801FEF794F810B123
:10D940000120E07173E7A761ABE0E068A84204D270
:10D95000A07900F0020000B9E568D4F808904FF013
:10D960000008C4F80880002D67D02068807847023E
:10D97000B9F1000F11D0681EB0FBF7F1A9F1010059
:10D98000B0FBF7F0814208D3A9F10100791E88436A
:10D99000A060A0682D1A666912E026697EB9002190
:10D9A0002068FEF754FB0646012E02D10220E071EA
:10D9B0003DE7701C10B90120E07138E7266166610F
:10D9C000C6B323E0A07900F0020038B131462068E8
:10D9D000FEF73DFB064636B93D4619E03146206864
:10D9E000FEF7F0F90646701C10B90120E0711EE741
:10D9F000012E03D920684069B04202D80220E071AC
:10DA000015E76661A0683844A060ED1BBD42D9D817
:10DA100000BFA0682844A060C5F3080050B131469B
:10DA20002068FEF7C2F98046B8F1000F03D102204A
:10DA3000E071FCE601E008EB55282089C0F30800FE
:10DA400020B3A069404521D0A07900F0400078B112
:10DA500021684878012304F12801A269FEF734F80F
:10DA600010B10120E071E2E6A07920F04000A07141
:10DA7000216848780123424604F12801FDF7F3FFAD
:10DA800010B10120E071D2E6C4F81880D4E9020197
:10DA9000884205D9A068E060A07940F02000A0711C
:10DAA00000BF0298C3E673B584B0044614B90920D8
:10DAB00006B070BD002205A903A8FFF79BF9054633
:10DAC000002D2FD1039820604FF40070FEF784F8EA
:10DAD00006460EB91120EBE7E661C4F818D02046DF
:10DAE0000599FFF7D4F805463046FEF77CF8B5B93E
:10DAF000606958B16069C07A00F0100028B16169AE
:10DB00000398FEF72DFCA06000E005253DB90398C1
:10DB1000C088A08000212046FEF71DFB0546042D8D
:10DB200000D105250DB1002020602846C0E770B562
:10DB300004462046FFF728FB05460DB9002020606B
:10DB4000284670BDFEB504460F462046FFF71CFB75
:10DB50000546002D2DD12FB900212046FEF7FBFAF6
:10DB6000054626E04FF40070FEF736F806460EB97B
:10DB70001120FEBDE661C4F818D000212046FEF752
:10DB8000A1FD0546042D02D10020206100256DB9BC
:10DB900039462046FEF7C7FE00212046FEF72AFB45
:10DBA0000546042D02D10020206100253046FEF7F5
:10DBB0001AF82846DDE773B58CB00E4600220CA992
:10DBC00003A8FFF717F90546EDB94FF40070FEF70B
:10DBD00003F8044614B911200EB070BD0A94CDF8B4
:10DBE00024D003A80C99FFF752F8054645B90898C8
:10DBF00028B12EB1314603A8FEF795FE00E00625B8
:10DC00002046FDF7F0FF2846E6E72DE9F74F82B002
:10DC10008A46002202A90498FFF7ECF801900498C4
:10DC20000468019800286DD1D4E90410801E814257
:10DC300003D82069CAF8000064E094F800B0002618
:10DC4000BBF1010F1CD1022700BF39462046FEF769
:10DC5000B9F8804608F1010010B9012001900EE0EA
:10DC6000B8F1010F02D10220019008E0B8F1000FD5
:10DC700000D1761C781C074661698842E5D33AE0FA
:10DC80006769206A00904FF00009002500BFB9F1D4
:10DC9000000F0ED10098421C014620460092FEF76C
:10DCA00007F80190019800B124E004F130054FF429
:10DCB0000079BBF1020F09D12878697840EA012088
:10DCC00000B9761CAD1CA9F1020910E0E878000645
:10DCD000A97840EA0140697840EA012029780843A0
:10DCE00020F0704000B9761C2D1DA9F10409781EA2
:10DCF0000700CCD100BF2661607940F0010060715F
:10DD0000CAF80060019805B0BDE8F08F70B5044610
:10DD10002046FFF739FA054645B9E07908B1E579BB
:10DD200004E0A07900F0020000B90725002D47D1DA
:10DD3000D4E90210884241D9A068E060A07940F09F
:10DD40002000A071A06838B921692068FEF749F960
:10DD50000546002020611DE061692068FEF732F869
:10DD600006460025701C00B90125012E00D10225B0
:10DD700085B920684069B0420CD96FF07042616982
:10DD80002068FEF793F8054625B931462068FEF76E
:10DD900028F9054695B9A07900F0400070B12168D6
:10DDA0004878012304F12801A269FDF78DFE08B12E
:10DDB000012503E0A07920F04000A07105B1E571D4
:10DDC000284670BDF1B596B0012216A90DA8FFF73F
:10DDD00011F80446002C54D14FF40070FDF7FCFEFE
:10DDE000074617B9112017B0F0BD149701A813907A
:10DDF0000DA81699FEF74BFF044600BF002C3DD13D
:10DE0000129E0EB9062404E0F07A00F0010000B181
:10DE1000072431460D98FEF7A3FA0546ECB9F07ACF
:10DE200000F01000C8B1022D01D2022415E0242216
:10DE30000DA904A8FDF7E2FE0695022104A8FEF74D
:10DE40008AF904464CB9002104A8FEF73BFC0446BD
:10DE500004B90724042C00D100247CB90DA8FEF7D6
:10DE60002DFD044654B925B129460D98FEF7B9F8A1
:10DE700004461CB90D98FDF734FF04463846FDF7FB
:10DE8000B2FE2046AFE72DE9F14F8CB0FDF7A2FEC0
:10DE9000064601220CA903A8FEF7ACFF0546002D9B
:10DEA0007BD14FF40070FDF797FE8046B8F1000F6C
:10DEB00003D111200DB0BDE8F08FCDF82880CDF84A
:10DEC00024D003A80C99FEF7E2FE054605B9082503
:10DED00000BF042D7AD100210398FEF7B8F8074659
:10DEE000002507B90725012F00D10225781C00B9AC
:10DEF00001251DB90398FDF7B5FE0546002D5BD140
:10DF000039460398FDF751FF8246039800F130042B
:10DF10004FF4007200212046FDF77DFE0B222021E8
:10DF20002046FDF778FE2E2020701020E072A675A6
:10DF3000310AE175310C2176310E61763946204681
:10DF4000FEF71EFA2022214604F12000FDF756FEBE
:10DF50002E2084F82100DDF814B0039800780328FF
:10DF600004D10398406A584500D1AB46594604F1A4
:10DF70002000FEF705FA039890F8029018E0039845
:10DF8000C0F82CA00AF1010A012003990871039836
:10DF9000FDF768FE05460DB10DE030E04FF400726C
:10DFA00000212046FDF737FEA9F1010000F0FF092E
:10DFB000B9F1000FE3D100BF1DB903A8FEF7E4FBE0
:10DFC000054625B139460398FEF70BF814E0089C86
:10DFD0001020E072A675310AE175310C2176310E00
:10DFE000617639462046FEF7CBF901200399087186
:10DFF0000398FDF776FE05464046FDF7F4FD2846FA
:10E0000058E72DE9F7418DB08846144601220DA945
:10E0100004A8FEF7EFFE07464FBB4FF40070FDF774
:10E02000DBFD06461EB9112010B0BDE8F0810B964D
:10E0300001A80A9004A80D99FEF729FE074630466C
:10E04000FDF7D1FD00BF97B9099D0DB906270EE078
:10E0500004F0270408EA0400E97AA1430843E872BF
:10E060000120049908710498FDF73BFE07463846E5
:10E07000DAE7F3B58DB00D4601220DA904A8FEF72D
:10E08000B9FE074657BB4FF40070FDF7A5FD0646E5
:10E0900016B911200FB0F0BD0B9601A80A9004A884
:10E0A0000D99FEF7F4FD07463046FDF79CFD00BFD5
:10E0B000A7B9099C0CB9062710E0A879A075E888D3
:10E0C0000112E17528792076A88801126176012075
:10E0D000049908710498FDF704FE07463846D9E70D
:10E0E0002DE9F3419CB001221CA913A8FEF782FE82
:10E0F0000446002C78D113980A904FF40070FDF775
:10E100006BFD07461FB911201EB0BDE8F0811A97BC
:10E1100001A8199013A81C99FEF7B9FD044600BF89
:10E12000002C75D1189808B9042471E0189800F1F2
:10E130000B01152204A8FDF761FD242213A90AA8EA
:10E14000FDF75CFD1DA8FEF7EAFD002805DB0AA827
:10E150001D99FEF79CFD044600E00B2404B9082439
:10E16000042C55D10AA8FEF70FFB0446002C4FD112
:10E170000F9D13220DF1120105F10D00FDF73EFD7B
:10E180009DF8100040F02000E872012013990871FA
:10E190000C991598884231D0E87A00F0100068B3E5
:10E1A00029461398FEF7DCF8804641461398FDF7A0
:10E1B000FCFD06460EB9022420E031461398FDF717
:10E1C00077FD0446139800F15005BCB968782E28F5
:10E1D00014D113980078032807D113990C98496A31
:10E1E000884202D1002001E015E00C980646314635
:10E1F0002846FEF7C5F801201399087144B913A801
:10E20000FEF75CFB04461CB91398FDF76AFD044653
:10E210003846FDF7E8FC204676E72DE9F74189B05E
:10E220000D469046002209A96846FEF7E3FD044624
:10E2300024BB1DB30020029000216846FDF78BFF30
:10E240000446DCB901216846FEF73CFA044684B96D
:10E250000B2228460599FDF7D1FC0B2700BF0020B3
:10E26000E85507B904E0781E0746285C2028F6D058
:10E2700000BF042C02D100202870002444BBB8F158
:10E28000000F25D0009A1046D169FDF711FD044614
:10E29000F4B900980078032801D1432000E027203A
:10E2A0000646009830303044C0780106009830307F
:10E2B0003044807841EA0041009830303044407862
:10E2C00041EA002000993031895D0843C8F8000018
:10E2D00020460CB0BDE8F0812DE9F14F8CB0012251
:10E2E0000CA903A8FEF786FD8146B9F1000F03D003
:10E2F00048460DB0BDE8F08F00208DF800000027E3
:10E3000000E07F1C0C98C05D0028FAD100E07F1E61
:10E3100027B1781E0C99085C2028F8D0002F5ED019
:10E320000026B04600BF3046761C0C990C5C812C50
:10E3300020DBE0B2FE281DDCB8F10A0F18D2BE4285
:10E3400016D20C98805D402803DB0C98805D7E28F7
:10E3500007DD0C98805D80280ADB0C98805DFE2824
:10E3600006DC3046761C0C99085C40EA042000E08C
:10E37000002084B20121204601F0C2F9834601F059
:10E3800008FA8246002101F0BBF904465CB121463F
:10E39000FEA0FDF75DFC30B9FF2C01DD0A2000E096
:10E3A0000B20404501D80620A3E7FF2C05DD2212F3
:10E3B000404608F101080DF80020E2B2404608F19D
:10E3C00001080DF80020BE42ADD305E020224046F2
:10E3D00008F101080DF80020B8F10B0FF6D300206A
:10E3E0000590002103A8FDF7B6FE8146B9F1000FA4
:10E3F0005BD1012103A8FEF765F98146B9F1000F51
:10E4000021D19DF8000098B10B2269460898FDF7CC
:10E41000F5FBFDF7DFFB054608998D75290A08987D
:10E42000C175290C08980176290E0898417602E0FA
:10E43000E520089908700120039908710398FDF7F9
:10E4400050FC814631E0B9F1040F2ED14FF00009A4
:10E450009DF8000048B3012103A8FDF753FF814652
:10E46000B9F1000F21D1202200210898FDF7D3FB3C
:10E470000B2269460898FDF7C1FB08200899C8726D
:10E48000FDF7A8FB054608998D75290A0898C175FE
:10E49000290C08980176290E0898417601200399E5
:10E4A00008710398FDF71DFC8146484621E72DE9D8
:10E4B000F74F90B0914610A8FEF731FC0F900F98DF
:10E4C000002803DA0B2013B0BDE8F08F1198012863
:10E4D00001DD1320F7E7A9F1010000EA090008B106
:10E4E0001320F0E7AD490F9851F820B0BBF1000FB1
:10E4F00001D10C20E7E700208BF800000F98C0B294
:10E500000C9000200B900C98FDF790FA0190019868
:10E5100000F0010008B10320D5E7019800F00400E5
:10E5200008B10A20CFE700BF04AA01210C98FDF72B
:10E53000FCFA10B90498802801D20120C3E7119891
:10E5400008B1002000E03F2080460498A0EB0800BE
:10E550000490B9F1000F13D14FF4FA610498B0FBA5
:10E56000F1F00A904FF0000A01E00AF1010A8C482C
:10E5700030F81A100A988142F7D88A4830F81A9071
:10E580004FEA5929B9F1000F01D14FF00109B9F152
:10E59000800F01D94FF080090498B0FBF9F70125ED
:10E5A00040F6F670874200D302254FF6F670874298
:10E5B00000D30325032D0AD1082000EB870000F2C9
:10E5C000FF10460A202003900020029011E0012D48
:10E5D00005D107EB4700401C4008C01C01E0780053
:10E5E000001D064606F2FF10460A01200390202077
:10E5F000029003984044079007983044069002998F
:10E6000006980844059005984844A0EB0800049932
:10E61000884201D90E2056E709AA03210C98FDF77C
:10E6200084FA28B9099818B10998B0F5004F01D9B2
:10E6300001200990099905980844401E491E884305
:10E64000099009990598081A0990032D08D109998C
:10E65000039808440390099907980844079001E03B
:10E6600009980644DDE90301081A811B0298081A7B
:10E67000B0FBF9F7022D03D140F6F670874205D3BF
:10E68000032D05D14FF6F670874201D20E201AE70E
:10E69000032D02D10C200D9010E0012D06D104981D
:10E6A000B0F5803F02D201200D9007E00498B0F54C
:10E6B000803F01D2042000E006200D9000BF119899
:10E6C00010B1F0200E9044E04FF4007200210BF1E5
:10E6D0003000FDF7A0FA0BF5F77401206070A07010
:10E6E0000020E0700D982071FE2060710498404475
:10E6F0003F21B0FBF1F0FF21B0FBF1F009903F2189
:10E70000099841EA9000A0710998E0713F202072B9
:10E7100000216172A172E172049820730498010AC9
:10E7200061730498010CA1730498010EE1735521E3
:10E730008BF82E12AA218BF82F12012300220BF145
:10E7400030010C98FDF7C0F908B10120BBE6F820B4
:10E750000E900BF130044FF4007200212046FDF7BB
:10E760005AFA0B2210A12046FDF748FA4FF4007A1E
:10E7700084F80BA04FEA1A21217384F80D900398B6
:10E78000A0730398010AE173012013E0222A2B2CC5
:10E790002E3A3B3C3D3E3F5B5D7C7F0058020020B3
:10E7A0000E20010824200108EBFE904D53444F53E6
:10E7B000352E30002074032D01D1002001E04FF4EC
:10E7C0000070824684F811A04FEA1A21A1740498BF
:10E7D000B0F5803F05D20498E0740498010A2175D1
:10E7E00010E0049884F820000498C0F30721212049
:10E7F00001550498C0F30741222001550498010EE9
:10E80000232001550E9860753F2020760021617607
:10E81000FF20A076E17684F81C804FEA182161770A
:10E820004FEA1841A1774FEA1861E177FDF7D2F975
:10E830000990032D3ED1099884F843000998C0F34C
:10E840000721442001550998C0F30741452001558F
:10E850000998010E4620015584F82460C6F307216B
:10E8600025200155C6F3074126200155310E2720EA
:10E870000155022084F82C0000212D2001552E2066
:10E8800001552F200155012084F830003120015519
:10E89000062084F8320033200155802084F840009F
:10E8A000292084F842001322FEA104F14700FDF75D
:10E8B000A5F91FE0099884F827000998C0F30721FB
:10E8C000282001550998C0F30741292001550998CE
:10E8D000010E2A200155A675310AE175802084F8C1
:10E8E0002400292084F826001322F3A104F12B0030
:10E8F000FDF784F9552084F8FE01AA2140F2FF10AB
:10E9000001550123424621460C98FDF7DDF808B178
:10E910000120D8E5032D06D1012308F10602214686
:10E920000C98FDF7D1F8079808904FF0000A61E0C5
:10E930004FF4007200212046FDF76DF90E98099002
:10E94000032D14D0012D01D1E04801E06FF0FF004C
:10E95000099908430990099820700998000A607085
:10E960000998000CA0700998000EE07019E0099851
:10E9700060F0FF000990099820700998000A607003
:10E980000998000CA0700998000EE070FF2020711B
:10E99000FF216171A171E17120726172A1720F2179
:10E9A000E1720898411C02460123089121460C9807
:10E9B000FDF78AF808B1012085E54FF400720021C7
:10E9C0002046FDF728F9012009900EE00898411C27
:10E9D00002460123089121460C98FDF775F808B10D
:10E9E000012070E50998401C09900998B042EDD3C8
:10E9F0000AF1010ABAF1000F9AD0032D01D148465D
:10EA000000E00298824600BF0898411C024601239C
:10EA1000089121460C98FDF757F808B1012052E5FE
:10EA2000AAF101005FEA000AEED1032D46D152207F
:10EA3000207060706120A0704120E070722084F826
:10EA4000E401722140F2E51001554121401C0155BD
:10EA50006121401C0155781E84F8E801C0F30721AC
:10EA600040F2E9100155781EC0F307414FF4F570EC
:10EA70000155781E010E40F2EB100155022084F87A
:10EA8000EC01002140F2ED100155401C0155401CE5
:10EA90000155552084F8FE01AA2140F2FF100155CE
:10EAA000012308F1010221460C98FDF70DF801231E
:10EAB00008F1070221460C98FDF706F800221146DE
:10EAC0000C98FDF732F808B10120FCE40020FAE4CC
:10EAD0002DE9FC4707468846914600243E4613E050
:10EAE0006B46012201A94846FEF754FC0098012814
:10EAF00000D00DE09DF8045000BF06F8015B641CD7
:10EB00000A2D00D104E000BFA8F10100A042E7DC1B
:10EB100000BF0020307014B13846BDE8FC870020EB
:10EB2000FBE7F8B504460E4600BF6568002D00DA25
:10EB3000F8BD28466D1C04F10C010E543D2D0CDB74
:10EB40006B462A462068FEF706FD0098A84201D1D0
:10EB5000002001E04FF0FF3005466560A068401CD2
:10EB6000A06000BFE4E730B595B004460D460295BD
:10EB7000002003900490214602A8FFF7D2FF0398DB
:10EB800000280DDB01AB05A9DDE90202FEF7E3FC7D
:10EB900030B901990398884202D1049815B030BD6C
:10EBA0004FF0FF30FAE730B595B004460D460295B8
:10EBB00000200390049004E014F8011B02A8FFF762
:10EBC000B0FF20780028F7D1039800280DDB01ABB7
:10EBD00005A9DDE90202FEF7BEFC30B901990398F0
:10EBE000884202D1049815B030BD4FF0FF30FAE7EB
:10EBF0000FB42DE9F04F9BB02498019000200290B3
:10EC0000039026A81A9000BF259810F8014B259074
:10EC100004B924E1252C04D0214601A8FFF781FF87
:10EC2000F2E7002006468146259810F8014B259012
:10EC3000302C05D10126259810F8014B259006E0CF
:10EC40002D2C04D10226259810F8014B259009E0BF
:10EC500009EB890004EB4000A0F13009259810F879
:10EC6000014B2590302C01DB392CF1DD6C2C01D0CF
:10EC70004C2C05D146F00406259810F8014B259040
:10EC800004B9ECE02546612D04DB7A2D02DCA5F108
:10EC90002000C5B24F2D60D01DDC422D5AD0432D2F
:10ECA0004FD015E04E4F204E414D452020202046AC
:10ECB00041543332202020004E4F204E414D4520FC
:10ECC00020202046415420202020200000FFFF006B
:10ECD000442D4CD144E0532D04D0552D41D0582D16
:10ECE00045D141E01A9850F804BB1A904FF0000843
:10ECF00001E008F101081BF808000028F9D106F02E
:10ED0000020048B903E0202101A8FFF70AFF4046AE
:10ED100008F101084845F6D304E01BF8011B01A8DF
:10ED2000FFF7FFFE9BF800000028F6D103E020214A
:10ED300001A8FFF7F6FE404608F101084845F6D362
:10ED400062E71A9810F8042BD1B21A9001A8FFF7C5
:10ED5000E8FE59E7022019900EE0082019900BE018
:10ED600000BF0A20199007E01020199004E0214606
:10ED700001A8FFF7D6FE47E700BF06F0040028B160
:10ED80001A9800681A99091D1A910CE0442D05D1B2
:10ED90001A9800681A99091D1A9104E01A980068D7
:10EDA0001A99091D1A918246442D06D10AF0004095
:10EDB00018B1CAF1000A46F00806002700BF1998EA
:10EDC000BAFBF0F100FB11A0C5B21998BAFBF0FA3A
:10EDD000092D06DD782C01D1272000E007202844EA
:10EDE000C5B205F13000C2B238467F1C14A90A54DE
:10EDF000BAF1000F01D0102FE1D306F0080020B1C6
:10EE00002D2238467F1C14A90A54B84606F001008A
:10EE100008B1302000E02020054603E0294601A883
:10EE2000FFF77FFE06F0020020B9404608F1010816
:10EE30004845F3D300BF781E074614AA115C01A809
:10EE4000FFF76FFE002FF6D103E0294601A8FFF778
:10EE500068FE404608F101084845F6D3D4E600BFF5
:10EE600000201A900298002810DB18AB04A9DDE9F5
:10EE70000102FEF770FB48B918990298884205D143
:10EE800003981BB0BDE8F00F5DF814FB4FF0FF30A6
:10EE9000F7E7000010B54FF40C710020FBF7DBFC26
:10EEA000604908604FF40C710020FBF7D4FC5D4909
:10EEB00048604FF40A710020FBF7CDFC5A49086006
:10EEC0004FF40A710020FBF7C6FC584908604FF464
:10EED00000710020FBF7BFFC5549086051480068ED
:10EEE00068B15048406850B14F48006838B14F4849
:10EEF000006820B10846006808B1002010BD01205C
:10EF0000FCE70146412901DA08467047612903DB25
:10EF1000A1F12000C0B2F8E70846F6E72DE9FC4170
:10EF200005460027002405E0601CC4B2287800B91B
:10EF300002E06D1CFA2CF7DB00BFFA2C02D1FF2097
:10EF4000BDE8FC81002408E06D1E28782E2802D13F
:10EF50006D1C2F4603E0601CC4B2052CF4DB00BF1F
:10EF60003946684601F0D0F8002407E01DF8040097
:10EF7000FFF7C7FF0DF80400601CC4B2042CF5DBDA
:10EF8000002425E000261EE004EB840000EBC40012
:10EF9000284901EB800050F82600007800B914E001
:10EFA00004EB840101EBC401224A02EB810151F818
:10EFB0002600694601F01EF918B946EA0410C0B2ED
:10EFC000BEE7701CC6B20D2EDEDB00BF601CC4B2F3
:10EFD000062CD7DBFF20B3E72DE9FC4707460C469C
:10EFE0001546002000908046814601AA69463846B1
:10EFF000FEF70BFE06468EB901984069801E019906
:10F00000897800FB01F901988078009900FB01F8EC
:10F010004FEA590020604FEA580028603046BDE8AA
:10F02000FC8700009C030020A4030020A80300200C
:10F03000B40300206402002070B504460D46F84970
:10F040002A4608682146FEF7BAF870BD70B5044636
:10F050000D462A462146F3480068FEF7DBF80646CF
:10F06000304670BD10B5EF480068FEF7C5FB0020C4
:10F0700010BD2DE9F047044600260027EAA000F065
:10F08000BBFEB14625E0EE4B4FF40072ED4801683F
:10F09000E4480068FEF77EF9064626B13146EAA04C
:10F0A00000F0AAFE1BE0E6480088384487B200253D
:10F0B00007E0E4480068415DE7A000F09DFE681CA1
:10F0C00085B2DF4800688542F3D309F101001FFAD9
:10F0D00080F9E11704EBD151B9EB612FD3DB00BF0D
:10F0E000E11704EBD1514912A4EB412131B3A04601
:10F0F000E01704EBD0504012A4EB4022D04BD14893
:10F100000168C8480068FEF745F9064626B1314651
:10F11000D2A000F071FE11E0C9480088384487B2DF
:10F12000002507E0C7480068415DCBA000F064FE01
:10F13000681C85B2C24800688542F3D31FB13946C6
:10F14000CBA000F059FED0A000F056FE3046BDE83E
:10F15000F08770B505460E46D0A000F04DFE314652
:10F16000D4A000F049FED84B32462946AD4800688D
:10F17000FEF7F1F9044624B12146D4A000F03CFE8C
:10F1800004E0D1480168D6A000F036FEDAA000F015
:10F1900033FE204670BD10B504462146DB48FEF71D
:10F1A00082FC10BD10B5D948FEF7C1FC10BD70B58A
:10F1B00040F2FF10D649C8610846C1690020FBF73C
:10F1C0004AFBD3498861D148FEF7BCFC044614B918
:10F1D000CF48407A30B9CE4881690020FBF72BFB3D
:10F1E000204670BDCA488069007810B1C84880695F
:10F1F00001E0C74809300546C6A000F0FDFDC34840
:10F200008188C8A000F0F8FDC048C188C8A000F0FF
:10F21000F3FDBE488168CAA000F0EEFDBB48C1689E
:10F22000CBA000F0E9FDB9480169CDA000F0E4FDF4
:10F2300082A000F0E1FD2946CDA000F0DDFDB4483C
:10F240000168D0A000F0D8FDB1488188D2A000F0BC
:10F25000D3FDAF48C188D5A000F0CEFDAC48017AFF
:10F26000D7A000F0C9FD75A000F0C6FDA8488169CF
:10F270000020FBF7E0FA0020B3E770B5054640F246
:10F28000FF10A349C8610846C1690020FBF7E3FAF3
:10F290009F49886129469D48FEF705FC04460CBB42
:10F2A00066A000F0A9FD1BE099499848FEF74AFCCA
:10F2B000044614B99648407A00B912E0944880692F
:10F2C000007810B19248806901E091480930064603
:10F2D0002946C0A000F090FD3146BFA000F08CFD93
:10F2E000E2E700BF8A4881690020FBF7A4FA2046C4
:10F2F00070BD2DE9FC410646002000900024002549
:10F3000001AA69463046FEF780FC0746002F19D156
:10F3100001984069801E0199897800FB01F50198E8
:10F320008078009900FB01F4B5F5A04F05D2620882
:10F330006908ABA000F060FD04E0E20AE90AB2A0AF
:10F3400000F05AFD2046BDE8FC8110B50446214678
:10F3500034480068FEF760FA10BD324800688068E3
:10F36000704730480068C068704710B504462046B2
:10F37000FEF789FD10BD70B504460D4616463246AF
:10F3800029462046FFF793F870BD10B50446204685
:10F39000FEF718FD10BD70B504460D4629462046FF
:10F3A000FEF79EFE70BD30B587B004460020019088
:10F3B00001AA02A92046FEF730FF054655B902AA68
:10F3C00021469BA000F018FD21469FA0019A00F065
:10F3D00013FD03E02946A2A000F00EFD07B030BDEA
:10F3E00070B504462046FEF777FF054625B921464D
:10F3F000A1A000F001FD03E02946A5A000F0FCFC5F
:10F4000070BD70B504460748214602680D48006883
:10F41000FFF75EFB0546287800B970BD48E10000A3
:10F420009C030020A40300200D0A5265616420663D
:10F43000696C6520646174612069733A0D0A00008B
:10F44000AC030020B4030020526561642045727251
:10F450006F723A25640D0A00256300000D0A52659B
:10F460006164204572726F723A25640D0A000000D3
:10F470000D0A5265616465642064617461206C6585
:10F480006E3A25640D0A000052656164206461745F
:10F4900061206F7665720D0A000000000D0A42655A
:10F4A00067696E2057726974652066696C652E2ED7
:10F4B0002E0D0A0057726974652064617461206CB6
:10F4C000656E3A25640D0A00B00300205772697416
:10F4D00065204572726F723A25640D0A00000000C3
:10F4E0005772697465642064617461206C656E3A5A
:10F4F00025640D0A0000000057726974652064617C
:10F500007461206F7665722E0D0A000080C00120A4
:10F5100060C001200D0A2044495220696E666F3A8E
:10F520000D0A00006469722E69643A25640D0A00B0
:10F530006469722E696E6465783A25640D0A00006C
:10F540006469722E73636C7573743A25640D0A00D6
:10F550006469722E636C7573743A25640D0A000039
:10F560006469722E736563743A25640D0A000000A5
:10F5700046696C65204E616D652069733A25730D8F
:10F580000A00000046696C652053697A652069733A
:10F590003A25640D0A00000046696C6520646174B8
:10F5A000612069733A25640D0A00000046696C65A4
:10F5B0002074696D652069733A25640D0A000000A6
:10F5C00046696C6520417474722069733A25640D34
:10F5D0000A00000025732F0025730D0A00000000AB
:10F5E0000D0AB4C5C5CCD7DCC8DDC1BF3A2564203F
:10F5F0004B420D0ABFC9D3C3BFD5BCE43A25642032
:10F600004B420D0A000000000D0AB4C5C5CCD7DC82
:10F61000C8DDC1BF3A2564204D420D0ABFC9D3C31E
:10F62000BFD5BCE43A2564204D420D0A000000001D
:10F630000D0AB4C5C5CC257320B5C4C5CCB7FBCE67
:10F64000AA3A25730D0A0000B4C5C5CC257320B5B0
:10F65000C4D0F2C1D0BAC53A25580D0A0D0A00002F
:10F660000D0ABBF1C8A1CAA7B0DCA3ACB4EDCEF3C0
:10F67000C2EB3A25580D0A000D0AB4C5C5CCC5CC5D
:10F68000B7FBC9E8D6C3B3C9B9A63A25730D0A00BA
:10F690000D0AB4C5C5CCC5CCB7FBC9E8D6C3CAA74B
:10F6A000B0DCA3ACB4EDCEF3C2EB3A25580D0A00A2
:10F6B00029460BA000F0A0FB00BF70BD10B50446AA
:10F6C0000E4801682046FFF74EFAC0B210BD10B5D3
:10F6D00004460A4801682046FFF765FAC0B210BD2B
:10F6E0000D0A54686520537472696E672052656113
:10F6F0006465642049733A25730D0A00A403002051
:10F700002DE9F84F044688464FF0000B802C01DAB3
:10F71000A1463BE0B8F1000F05D02948D0F805001C
:10F720004FEA500B01E04FF0000B2548D0F80500E0
:10F730004FEA500A0120C0EB9A0A002710261CE06D
:10F74000AAEB070007EB50051D48D0F8010000EBBD
:10F75000850000EB0B0104226846F5F758FFBDF861
:10F760000000A04200D10AE0BDF80000A04201DA8A
:10F770002F4600E0AA46701E86B2002EE0D100BFE0
:10F7800016B1BDF8020000E0002081464846BDE801
:10F79000F88F0246002100E0491C0A4830F81100A9
:10F7A00020B1084830F811009042F5D1054830F8F2
:10F7B000110018B1044830F8110070471046FCE7FA
:10F7C000A4C001203A2001081A2201082DE9F043C3
:10F7D0002DED028B83B00746884614461E46DDEDAC
:10F7E0000C8AFF25F8EE680A00EE106AB8EE400AAF
:10F7F00080EE801AB0EE418A9FEDFE0A28EE000AE4
:10F80000B0EE408A00EE105AB8EE400AB4EE480A54
:10F81000F1EE10FA1ED0F8A004EB440909EBD971FF
:10F8200007EB6101CDE9004088B24FF4A073F022EC
:10F830004146F5F71EFDBCEEC80A10EE100AC5B22F
:10F84000642D00DD642503232A4641463846009492
:10F85000F5F757FC002003B0BDEC028BBDE8F08348
:10F860002DE9FF4F83B081469846DDF840A0002087
:10F870000290002783464FF40A71FAF7ECFF044622
:10F880000CB94FF0010B4FF480510020FAF7E3FF61
:10F8900006460EB94FF0010B012241462046FDF706
:10F8A000B9FC05460DB14FF0020BBBF1000F78D14A
:10F8B000BAF1000F09D0BAF1010F12D0BAF1020F5C
:10F8C00021D0BAF1030F42D12FE0CC48CC49C1F886
:10F8D0000100E068C1F805000846D0F80100029078
:10F8E00035E0C748D0F80100C549D1F805100844F3
:10F8F000C349C1F80900E068C1F80D000846D0F816
:10F900000900029023E0BE48D0F80900BC49D1F8B4
:10F910000D100844BA49C1F81100E068C1F815009B
:10F920000846D0F81100029011E0B548D0F8110057
:10F93000B349D1F815100844B149C1F81900E0687D
:10F94000C1F81D000846D0F81900029000BF00BFA2
:10F9500021E001AB4FF4805231462046FDF71AFDFD
:10F96000054605B119E0029839184FF48052304627
:10F97000F5F7E9FEBDF8040007440097E368484640
:10F98000DDE90412FFF722FFBDF80400B0F5805F47
:10F9900001D002E005E0002DDBD000BF2046FDF7DE
:10F9A0002BFF21460020FAF746FF31460020FAF7E8
:10F9B00042FF284607B0BDE8F08F2DE9FF4F83B026
:10F9C000064615460024A046FF24FF208C490870F7
:10F9D00064210020FAF73FFF82464FF48051002057
:10F9E000FAF739FF83464FF40A710020FAF733FF24
:10F9F0000290BBF1000F04D0BAF1000F01D00298C1
:10FA000078B900200299FAF716FF51460020FAF75C
:10FA100012FF59460020FAF70EFF052007B0BDE897
:10FA2000F08F5046069900F06FFB7648016850460B
:10FA300000F08EFB012251460298FDF7EBFB0446D5
:10FA40000CB148F010085046069900F05DFB6E4876
:10FA50000168504600F07CFB012251460298FDF7F8
:10FA6000D9FB04460CB148F020085046069900F036
:10FA70004BFB66480168504600F06AFB0122514684
:10FA80000298FDF7C7FB04460CB148F04008504609
:10FA9000069900F039FB5E480168504600F058FBBB
:10FAA000012251460298FDF7B5FB04460CB148F01F
:10FAB000800800200299FAF7BEFEB8F1000F6FD15E
:10FAC00054A04FF4A073F022CDE9005030460499C1
:10FAD000F5F7CFFB002730E005EB85018900CDE984
:10FAE000007101EBD17106EB610188B240F217336E
:10FAF0002A460499FFF76AFE07F5406001034FF4B8
:10FB000080525846F5F783FD4FF0000908E05BF896
:10FB10002900401C00B106E009F101001FFA80F93C
:10FB2000B9F5806FF3DB00BFB9F5806F03D007F53F
:10FB30004060F5F7E5FD781C87B240F21730874248
:10FB4000CADB59460020FAF776FE37A04FF4A073BF
:10FB5000F022CDE9005030460499F5F78AFB504673
:10FB6000069900F0D1FA27480168504600F0F0FAF3
:10FB7000002005EB85018900CDE9000101EBD17181
:10FB800006EB610188B253462A460499FFF768FEE6
:10FB9000044634B151460020FAF74DFE01203DE7FE
:10FBA000BBE026A04FF4A073F022CDE90050304610
:10FBB0000499F5F75EFB5046069900F0A5FA124845
:10FBC0000168504600F0C4FA012005EB8501890068
:10FBD000CDE9000101EBD17106EB610188B253461A
:10FBE0002A460499FFF73CFE044614B15146002012
:10FBF00030E033E00000C842250000002100C000D2
:10FC0000A4C00120082401080424010800240108DC
:10FC1000FC23010845726173696E67207365637424
:10FC20006F72732E2E2E20005570646174696E679A
:10FC300020554E4947424B2E42494E005570646153
:10FC400074696E672047424B31322E42494E202064
:10FC500000000000FAF7EFFD0220DFE644A04FF4B9
:10FC6000A073F022CDE9005030460499F5F701FB6E
:10FC70005046069900F048FA43480168504600F0A3
:10FC800067FA022005EB85018900CDE9000101EB4F
:10FC9000D17106EB610188B253462A460499FFF7F9
:10FCA000DFFD04462CB151460020FAF7C4FD0320C5
:10FCB000B4E636A04FF4A073F022CDE900503046F0
:10FCC0000499F5F7D6FA5046069900F01DFA354822
:10FCD0000168504600F03CFA032005EB85018900DD
:10FCE000CDE9000101EBD17106EB610188B2534609
:10FCF0002A460499FFF7B4FD04462CB15146002072
:10FD0000FAF799FD042089E6AA20274908702122E4
:10FD10004FF440012448F5F716FD51460020FAF74C
:10FD20008AFD59460020FAF786FD404676E610B572
:10FD30000024F5F7FFFB0FE0601CC4B221224FF452
:10FD400040011948F5F763FC17480078AA2800D14C
:10FD500004E01420F7F776FE0A2CEDDB00BF124812
:10FD60000078AA2801D0012010BD0020FCE7000087
:10FD70005570646174696E672047424B31362E427C
:10FD8000494E2020000000000024010855706461E5
:10FD900074696E672047424B32342E42494E202010
:10FDA00000000000FC230108A4C00120704710B52A
:10FDB0004C1084EA530404D54042C1F1000138BF1D
:10FDC000491E1B4204D55242C3F1000338BF5B1EDB
:10FDD00000F054FA14F0804F04D04042C1F1000109
:10FDE00038BF491E14F0004F04D05242C3F1000343
:10FDF00038BF5B1E10BD00000FB4044910B503AA44
:10FE0000029800F021FB10BC5DF814FB30000020CC
:10FE100070B5044685690068C10601D5302600E04A
:10FE20002026C00707D070BDD4E901213046904795
:10FE3000206A401C20626D1EF6D570BD70B5044668
:10FE400085690078C00707D170BDD4E90121202061
:10FE50009047206A401C20626D1EF6D570BD70B5BB
:10FE60000C460546012A05D02878800600D5EA69A7
:10FE7000002302E0012305E05B1C934202D2E05C18
:10FE80000028F9D1A869E618C01AA861286A1844A0
:10FE900028622846FFF7BCFF04E0D5E9012114F8E9
:10FEA000010B9047B442F8D32846FFF7C7FF70BD57
:10FEB0002DE9F0410646002410687529314616A543
:10FEC00010D0AFF30080002802DA404213A507E00B
:10FED00031688A0701D512A502E0490704D511A5AA
:10FEE000012401E0AFF3008000210A2206F124077B
:10FEF00009E0B0FBF2FCB0FBF2F302FB1C00303077
:10FF000078541846491C0028F3D123462A46304627
:10FF1000BDE8F04100F029BA000000002D0000000B
:10FF20002B0000002000000070B504460D4621465D
:10FF30001068AFF300802188090502D50F4A7A4482
:10FF400002E00E4A7A440E32002104F1240305E057
:10FF500000F00F060009965D5E54491C0028F7D199
:10FF600020780023000704D5702D02D009B10223A8
:10FF700011322046BDE8704000F0F7B9CA240000F5
:10FF80002DE9F05F894604464FF0000ADFF874B1AE
:10FF9000FB44C0F820A02046E1688847002874D0C0
:10FFA000252806D0D4E901219047206A401C206210
:10FFB000F1E700265F462046E1688847202805468D
:10FFC00007DB312D05D2781910F8200C08B1064353
:10FFD000F1E7B00701D526F00406C4F81CA00027FD
:10FFE000C4F818A02A2D09D0284600F0BDFA38B36D
:10FFF00004EB8708303DC8F8185019E059F8041B85
:020000040801F1
:10000000204604EB87029161E1688847012F05468D
:1000100018D1E069002820DA26F020061DE0D8F883
:10002000180000EB800005EB40003038C8F81800DD
:100030002046E1688847054600F096FA0028EED190
:10004000012F0AD02E2D08D12046E16888477F1C59
:100050000546022F46F02006C4DBA069002803DA1B
:10006000404246F00106A061F00701D026F01006DC
:100070006C2D0BD0682D09D04C2D39D06A2D35D080
:10008000742D35D07A2D33D016E038E0E1682F4654
:1000900020468847B842054609D16C2F26D04FF438
:1000A0008060E168064320468847054604E06C2FDF
:1000B0001AD04FF4807006430DB3A5F14100192802
:1000C00002D8203546F400664A4629462046266076
:1000D0004E46F0F7B3F880B101280BD0F61D26F09C
:1000E000070000F1080956E74020E4E78020D8E740
:1000F0000020D6E706F104094DE7284652E7206ABA
:10010000BDE8F09FA024000040EA0103024630B59C
:100110009B0710D14FF0013400E008C208C91D1B35
:100120009D4315EAC41FF8D013F0FF0102F8011B2C
:100130000DD01B0AF8E711F8013B002B02F8013B38
:1001400005D011F8013B002B02F8013BF3D130BD83
:10015000421E12F8013F002BFBD111F8013B002B8E
:1001600002F8013BF9D17047032A40F2308010F0C9
:10017000030C00F0158011F8013BBCF1020F624442
:1001800098BF11F801CB00F8013B38BF11F8013BD3
:10019000A2F1040298BF00F801CB38BF00F8013B80
:1001A00011F0030300F06281083AC0F0088051F8B2
:1001B000043B083A51F804CBA0E80810F5E7121DFB
:1001C0005CBF51F8043B40F8043BAFF30080D2071A
:1001D00024BF11F8013B11F801CB48BF11F8012BE6
:1001E00024BF00F8013B00F801CB48BF00F8012B09
:1001F000704700004FF0013C50F8042B51F8043BCD
:100200009A4221D1A2EB0C03934313EACC1317D1EA
:1002100050F8042B51F8043B9A4215D1A2EB0C0381
:10022000934313EACC130BD150F8042B51F8043B41
:100230009A4209D1A2EB0C03934313EACC13DBD00F
:100240004FF00000704700BFD01A01BAB1FA81F137
:1002500001F0180122FA01F0CB40C1F12001DBB21C
:10026000C0B2C01A2CFA01F3D11A914311EAC3119A
:10027000E6D17047704770477047704753EA020CE9
:1002800000F069802DE9F04B4FF00006002B1FBFF6
:10029000B3FA83F503FA05F424FA05F65E4012BFBB
:1002A0001643B2FA82F502FA05F4C5F120051EBF25
:1002B00022FA05FC44EA0C04203556EA044C4FEAC5
:1002C000144418BF641C4FF000084FF0000990421E
:1002D00071EB030C39D3002919BFB1FA81F701FA88
:1002E00007F6B0FA80F700FA07F6C7F120071EBF3D
:1002F00020FA07FC46EA0C062037B6FBF4FCA7EB15
:100300000507103F07F01F0BCBF120060CFA0BFB83
:100310002CFA06F644BFB3460026202FA4BF5E4643
:100320004FF0000B5BEA060C08BF4FF0010B19EB16
:100330000B09ABFB027C48EB0608C01B06FB02CC9A
:100340000BFB03CC71EB0C01C1E70B4602464146A7
:100350004846BDE8F08B13B54FF000004FF00001A8
:10036000AFF30080BDE81C4070472DE9F0470D4613
:1003700099469246044600F124080168880604D58F
:10038000E06921F01001216000E00120A84201DDB8
:10039000471B00E00027A1697A1902EB0900081A3F
:1003A000A0612078C00602D42046FFF731FD002668
:1003B00008E0D4E901211AF806009047206A401CA1
:1003C000761C20624E45F4DB2078C0060AD5204614
:1003D000FFF71EFD06E0D4E9012130209047206A96
:1003E000401C2062381EA7F10107F4DC07E0D4E9C5
:1003F000012118F805009047206A401C2062281E41
:10040000A5F10105F3DC2046FFF718FD2078000672
:1004100002D50220BDE8F0870120FBE710B5436953
:1004200013B1AFF3008001E0FFF719FD012010BD0B
:10043000127800F124010A7000224A700122EDE7CF
:1004400011684FF0FF32E9E7074B70B50D467B446A
:1004500000F043F80446284600F052F810B14FF07F
:10046000FF3070BD204670BD3976FFFF10B5203AD1
:10047000C0F00B80B1E81850203AA0E81850B1E85D
:100480001850A0E81850BFF4F5AF5FEA027C24BF13
:10049000B1E81850A0E8185044BF18C918C0BDE80A
:1004A00010405FEA827C24BF51F8043B40F8043BD3
:1004B00008BF7047D20728BF31F8023B48BF11F888
:1004C000012B28BF20F8023B48BF00F8012B7047E2
:1004D00001694A1C02610878704700B58FB0CDE908
:1004E00001310021059105497944CDE903101146F8
:1004F0006846FFF745FD0FB000BD0000E5FFFFFFB8
:10050000007B00F080007047754600F029F8AE4689
:1005100005006946534620F00700854618B020B50F
:10052000F7F764FBBDE820404FF000064FF00007EE
:100530004FF000084FF0000B21F00701AC46ACE88B
:10054000C009ACE8C009ACE8C009ACE8C0098D46F8
:1005500070470446AFF300802046EFF78FFE00009F
:1005600000487047C8C0012030380A2801D2012055
:1005700070470020704700004FEA1153A3F58063D5
:10058000D3F11E03A8BFD3F1200C08DB4FF00042CB
:1005900042EAC12252EA505232FA03F0704709424D
:1005A0000BD4102BC4BF0020704703F5787CBCF13E
:1005B000FF3F05D04FF0FF3070474FF0000070470D
:1005C00070B500F0C3F800BF499224800020704746
:1005D000F0E7B0FA80F310FA03F10AD0C3F11D037B
:1005E00003F580634FEA41504FEA035202EBD121F9
:1005F00070474FF000007047DFF848C170B51CEA43
:10060000111E1EBF1CEA13159EEA0C0F95EA0C0F73
:1006100000F06F8081EA030423EA4C134EEAD47E93
:1006200021EA4C1141F4801143F48013AE44A1FB44
:10063000024CA0FB0365AEF17F7E361955EB0C052D
:10064000A1FB034C4CF10003A0FB021C16EB0C06B3
:10065000654153F10003094218BF46F0010613F447
:10066000007F0BD14FEA03314FEA0530340341EAF2
:10067000155140EA16506FF003020AE04FEAC32119
:100680004FEAC520F40241EA555140EA56506FF056
:10069000020202EB2E4201EB025585EACE710AD02E
:1006A0005FEA440C18BF24F0004450F1000041F10F
:1006B000000120EAD47040F2FE7C624500D270BD99
:1006C000A84214BF4FF080444FF04044002E08BFB2
:1006D0000024BEF1806FA8BFA1F1C041BDE8704009
:1006E00080F282804FF0000001F1C04101F0004132
:1006F00070479EEA0C0F0CEA131518BF95EA0C0F11
:1007000006D04FF0000081EA030E0EF0004170BDEC
:1007100000F01CF88900013E00F007B800F009B8AD
:100720004FEA430C5FEA5C5C08D081EA030100F009
:100730005BB84FEA410C5FEA5C5CF6D14FF0000019
:10074000014970470000FF070000F87F0EF1020E1C
:100750002EF0030E5EF8046B364205D4012A43EBFB
:10076000030515F5001F12D8012841EB010C1CF5FB
:10077000001F0CD80ED14FEAD17C15F5001F0CEBF1
:100780004C0C0CF1020C08BF4CEBD37C04E04FF096
:10079000080C01E04FEAD37C0CEB4C0526FA05F679
:1007A00006F00706B6F1040C06D20EEB860CBDE887
:1007B00070404CF0010C6047DFE80CF0090B0202BE
:1007C0004FF000414FF00000A1F5002170BD194627
:1007D0001046012851EB010418BFD4F5001484BF62
:1007E000002001F0004170BD0808A0F500114FEA9B
:1007F000310170474FF04070E1EE100A7047000081
:1008000000000000000000000000000000003F4069
:1008100000000000000000003000400030004000F8
:10082000000009000BC03D000BC03D00090018C0CE
:1008300024407FE0224031800000180024C01B00CB
:100840000D803240018003801C4027401C800740FF
:1008500000401000600000000000000000000000E8
:10086000000000001F802040402000004020204069
:100870001F8000000000090006001F80060009001C
:100880000000040004003F80040004000000001089
:1008900000600000000000000000040004000400EC
:1008A0000400040000000000004000000000000000
:1008B0000000002001C006003800400000001F803A
:1008C0002040204020401F800000000010403FC01A
:1008D00000400000000018C0214022402440184081
:1008E000000010802040244024401B8000000200B3
:1008F0000D0011003FC0014000003C802440244016
:100900002440238000001F80244024403440038082
:1009100000003000200027C03800200000001B80AD
:100920002440244024401B8000001C0022C02240A0
:1009300022401F800000000000000840000000006E
:100940000000000000000460000000000000000043
:1009500004000A001100208040400900090009003D
:1009600009000900000000004040208011000A003A
:1009700004001800200023402400180000001F80FD
:100980002040274029401F400000004007C0390098
:100990000F0001C0004020403FC0244024401B8085
:1009A00000001F8020402040204030800000204078
:1009B0003FC0204020401F80000020403FC0244016
:1009C0002E4030C0000020403FC024402E003000A8
:1009D00000000F00108020402240338002002040A1
:1009E0003FC0040004003FC02040204020403FC0E2
:1009F0002040204000000060202020203FC0200038
:100A0000200020403FC024400B0030C02040204048
:100A10003FC020400040004000C03FC03C0003C039
:100A20003C003FC0000020403FC00C4023003FC0BE
:100A300020001F802040204020401F8000002040D8
:100A40003FC024402400180000001F8021402140A6
:100A500020E01FA0000020403FC02440260019C015
:100A6000004018C024402440224031800000300063
:100A700020403FC020403000000020003F80004068
:100A800000403F80200020003E0001C007003800E9
:100A90002000380007C03C0007C03800000020409C
:100AA00039C0060039C0204000002000384007C08F
:100AB000384020000000304021C02640384020C08F
:100AC0000000000000007FE0402040200000000007
:100AD00070000C0003800040000000004020402017
:100AE0007FE0000000000000200040002000000027
:100AF0000000001000100010001000100010000096
:100B000000004000000000000000000002800540DE
:100B1000054003C0004020003FC004400440038063
:100B20000000000003800440044006400000000074
:100B30000380044024403FC0004000000380054083
:100B4000054003400000000004401FC02440244032
:100B50002000000002E0055005500650042020400F
:100B60003FC00440040003C000400000044027C010
:100B700000400000000000100010041027E00000FA
:100B8000000020403FC00140070004C00440204056
:100B900020403FC000400040000007C0040007C0E4
:100BA000040003C00000044007C00440040003C068
:100BB0000040000003800440044003800000041053
:100BC00007F004500440038000000000038004404C
:100BD000045007F00010044007C002400400040065
:100BE0000000000006400540054004C00000000071
:100BF00004001F8004400040000004000780004003
:100C0000044007C000400400070004C00180060043
:100C10000400060001C0070001C0060000000440F7
:100C200006C0010006C0044000000410071004E0E4
:100C30000180060004000000044005C00640044096
:100C400000000000000004007BE0402000000000E5
:100C500000000000FFF000000000000040207BE0EA
:100C60000400000000004000800040002000200040
:100C70004000000000000000000000000000000034
:100C800000000000000000001FCC000C000000006D
:100C90000000000008003000600008003000600024
:100CA0000000022003FC1E20022003FC1E20022064
:100CB000000000000E1811043FFF10840C780000A3
:100CC00000000F0010840F3800C0077818840078E7
:100CD000000000780F8410C411240E9800E40084F2
:100CE000000808006800700000000000000000001C
:100CF000000000000000000007E018182004400277
:100D00000000000040022004181807E00000000066
:100D100000000240024001800FF0018002400240CA
:100D200000000080008000800FF8008000800080BC
:100D300000000001000D000E000000000000000097
:100D400000000000008000800080008000800080A3
:100D500000800000000C000C0000000000000000FB
:100D60000000000000060018006001800600180066
:100D70002000000007F0080810041004080807F01D
:100D800000000000080408041FFC00040004000028
:100D9000000000000E0C10141024104411840E0CDE
:100DA000000000000C1810041104110412880C70CB
:100DB0000000000000E00320042408241FFC00249D
:100DC000000000001F981084110411041088107096
:100DD0000000000007F00888110411041888007052
:100DE000000000001C00100010FC13001C0010008C
:100DF000000000000E3811441084108411440E3895
:100E0000000000000700088C10441044088807F018
:100E10000000000000000000030C030C00000000B4
:100E200000000000000000010106000000000000BA
:100E30000000000000800140022004100808100497
:100E400000000220022002200220022002200220B4
:100E50000000000010040808041002200140008077
:100E6000000000000E001200100C106C10800F002B
:100E7000000003E00C1813E4142417C4082807D05A
:100E800000000004003C03C41C40074000E4001CB8
:100E9000000410041FFC1104110411040E880070DA
:100EA000000003E00C1810041004100410081C10BB
:100EB000000010041FFC100410041004080807F0C0
:100EC000000010041FFC1104110417C410040818BA
:100ED000000010041FFC1104110017C010000800CE
:100EE000000003E00C181004100410441C780040AB
:100EF000000010041FFC10840080008010841FFC80
:100F000010040000100410041FFC10041004000062
:100F1000000000030001100110011FFE100010006E
:100F2000000010041FFC110403801464181C10043A
:100F3000000010041FFC1004000400040004000C56
:100F4000000010041FFC1F0000FC1F001FFC100409
:100F5000000010041FFC0C04030000E010181FFC2C
:100F6000100007F00808100410041004080807F027
:100F7000000010041FFC10841080108010800F00EF
:100F8000000007F0081810241024101C080A07F2AB
:100F9000000010041FFC1104110011C011300E0CD0
:100FA000000400000E1C11041084108410441C382E
:100FB00000001800100010041FFC1004100018009E
:100FC000000010001FF810040004000410041FF8B3
:100FD000100010001E0011E0001C007013801C00A7
:100FE00010001FC0103C00E01F0000E0103C1FC0BC
:100FF00000001004180C163401C001C01634180C7F
:10100000100410001C00130400FC13041C0010004A
:1010100000000804101C1064108413041C04101831
:1010200000000000000000007FFE4002400240027D
:101030000000000030000C0003800060001C000372
:10104000000000004002400240027FFE000000005D
:101050000000000000002000400040004000200090
:101060000000000100010001000100010001000179
:1010700000010000400040002000000000000000CF
:10108000000000000098012401440144014400FCD8
:10109000000410001FFC0088010401040088007097
:1010A00000000000007000880104010401040088B1
:1010B00000000000007000880104010411081FFCFA
:1010C0000004000000F8014401440144014400C848
:1010D00000000000010401040FFC110411041100C0
:1010E0001800000000D601290129012901C90106C3
:1010F000000010041FFC008401000100010400FC3A
:10110000000400000104190419FC0004000400009C
:1011100000000000000300010101190119FE000098
:10112000000010041FFC0024004001B4010C010465
:1011300000000000100410041FFC00040004000064
:101140000000010401FC0104010001FC0104010094
:1011500000FC010401FC008401000100010400FC0A
:101160000004000000F8010401040104010400F877
:101170000000010101FF00850104010400880070E6
:10118000000000000070008801040104010501FF57
:1011900000010104010401FC00840104010001803C
:1011A0000000000000CC0124012401240124019846
:1011B000000000000100010007F801040104000024
:1011C0000000010001F8000400040004010801FC13
:1011D0000004010001800170000C0010016001801A
:1011E000010001F0010C003001C00030010C01F0E1
:1011F000010000000104018C00740170018C0104E5
:101200000000010101810171000E001801600180E0
:10121000010000000184010C013401440184010C2F
:101220000000000000000000000001003EFC400241
:1012300040020000000000000000FFFF000000006E
:1012400000000000400240023EFC010000000000DF
:10125000000000006000800080004000400020008E
:10126000200000000000000000000000000000005E
:10127000000000000000000000000000000000006E
:10128000000000000000000000000000000000005E
:1012900000000000000F80380FFE380F803800007B
:1012A000000000000000000000000000000000003E
:1012B0000100000600000C000038000031000006AC
:1012C00000000C00003800003000000000000000AA
:1012D000000061800067F807F9800061800061808C
:1012E0000061800061800067F807F980006180007C
:1012F000000000000000000001C0E003E0F0063044
:10130000080418081FFFFE040E080787F00381E099
:1013100000000000000001F000060C0004040806B4
:101320000C7001F9C0000E00003BE000EC1807084B
:1013300008040C180003E00000000001E00007F0C2
:1013400003F818041C0804170807E1D003C0E000E4
:1013500023B0003C0800200800001000000000003E
:10136000000100003100003200001C0000000000FD
:10137000000000000000000000000000000000006D
:10138000000000000000000000000000000000005D
:1013900000007F0001FFC00780F00C00181000045F
:1013A0002000020000000000002000021000040CD9
:1013B00000180780F001FFC0007F0000000000005F
:1013C00000000000000000000000000000004200DB
:1013D000006600006600003C0000180003FFC0002B
:1013E0001800003C0000660000660000420000009B
:1013F00000000800000800000800000800000800C5
:1014000001FFC000080000080000080000080000FC
:101410000800000000000001000031000032000060
:101420001C000000000000000000000000000000A0
:10143000000000000000000000000800000800009C
:10144000080000080000080000080000080000086C
:10145000000008000008000000000000000000007C
:1014600000003800003800003800000000000000D4
:10147000000000000000000000000000000000006C
:101480000000000600001C000070000180000E003B
:1014900000380000C0000700001C00003000000001
:1014A0000000000000007F8001FFE0038070060064
:1014B0001804000804000806001803807001FFE00B
:1014C000007F800000000000000000000100080113
:1014D000000801000803FFF807FFF80000080000FB
:1014E0000800000800000000000000000001C038F3
:1014F00002C05804009804011804021804041806D5
:101500001C1803F81801E0F80000000000000000BB
:101510000001C0E003C0F004000804080804080843
:1015200006180803F41801E7F00001E000000000CD
:101530000000000000000300000D00001100006129
:101540000000810803010807FFF80FFFF8000108F9
:101550000001080000000000000000E007FCD006C9
:101560000808061008061008061008061838060FA6
:10157000F00607C0000000000000000000003F80EF
:1015800001FFE00384300208180410080410080466
:101590001008071810030FF00007C000000000003B
:1015A0000000000003C0000700000600000600F86D
:1015B0000607F806180006E0000700000600000015
:1015C000000000000001E1E003F7F0063410041809
:1015D00008041808040C08040C0806161803F3F095
:1015E00001C1E000000000000000F80003FC30032F
:1015F0000638040208040208040208040410030860
:10160000F001FFC0007F00000000000000000000AB
:10161000000000000000000000007038007038007A
:101620007038000000000000000000000000000012
:101630000000000000000000000000000000301A60
:1016400000301C000000000000000000000000004E
:10165000000000000000000000080000140000224C
:1016600000004100008080010040020020040010C2
:101670000800080000000000000021000021000018
:101680002100002100002100002100002100002194
:101690000000210000210000000000000000000008
:1016A00008000804001002002001004000808000B3
:1016B00041000022000014000008000000000000AB
:1016C0000003C00004C000040000080038080F3800
:1016D0000808380810000C300007E00003C00000C4
:1016E0000000000000003F8000FFE0038070020F58
:1016F0001006708804C088048308047F8802C090A4
:1017000003012000FE400000080000180001F8005E
:101710003E0801C20007020007E20000FE00001FB1
:10172000C80001F800003800000804000807FFF8AE
:1017300007FFF80408080408080408080408080655
:10174000180803F41801E7F00001E00000000000B1
:1017500000003F8001FFE0038070020018040008D1
:101760000400080400080400100600200780C000E0
:10177000000004000807FFF807FFF8040008040051
:101780000804000804001802001003807001FFE044
:10179000007F8000000004000807FFF807FFF8043E
:1017A0000808040808040808040808043E0804009F
:1017B0000806001801006000000004000807FFF898
:1017C00007FFF804080804080004080004080004DF
:1017D0003E0006000006000001800000000000003E
:1017E00000003F8001FFE00380700600180400083D
:1017F0000402080402080203F00783F0000200005C
:10180000020004000807FFF807FFF80408080008B2
:101810000000080000080000080004080807FFF89E
:1018200007FFF8040008000000000000040008049E
:10183000000804000807FFF807FFF8040008040088
:10184000080400080000000000000000000000067E
:101850000000070000010400010400010400030768
:10186000FFFE07FFFC040000040000040000040069
:101870000807FFF807FFF8040C08001800003E00F6
:1018800004C7800503C80600F804003804001800E7
:10189000000804000807FFF807FFF804000800002C
:1018A00008000008000008000008000008000018F8
:1018B00000006000000004000807FFF80780080728
:1018C000FC00007FC00003F80007C000780007801C
:1018D0000807FFF807FFF804000804000807FFF8EE
:1018E00007000803C00000E000003800001E0000F0
:1018F00007000001C00400F007FFF804000000002A
:1019000000007F8001FFE0038070060018040008DB
:1019100004000806001803003001FFE0007F80008B
:10192000000004000807FFF807FFF8040408040497
:1019300000040400040400040400060C0003F80082
:1019400001F000000000000000007F8001FFE003C4
:1019500080700600880400880400C806003C03006C
:101960003E01FFE6007F8400000004000807FFF846
:1019700007FFF8040808040800040C00040F000422
:101980000BC00610F003F03801E00800000800006A
:101990000001E0F803F030063010041808041808BD
:1019A000040C08040C080206180207F00781E00086
:1019B0000000018000060000040000040000040094
:1019C0000807FFF807FFF8040008040000040000FF
:1019D00006000001800004000007FFE007FFF0049C
:1019E00000180000080000080000080000080000BF
:1019F0000804001007FFE0040000040000060000D7
:101A000007E00007FE00041FE00001F800003800B6
:101A100001E0043E0007C0000600000400000400CE
:101A20000007E00007FFC0041FF80007C007F80028
:101A300007FF80043FF80007C004F8000700000417
:101A4000000000000004000806001807C07805F137
:101A5000C8003E00001F800463E80780F8060018F5
:101A600004000800000004000006000007800007D2
:101A7000E008047C08001FF80007F800180804E0DC
:101A80000807000006000004000000000001000834
:101A90000600380400F80403E8040F08047C080575
:101AA000F00807C0080700180400600000000000EC
:101AB000000000000000000000000000003FFFFEEA
:101AC000200002200002200002200002200002006C
:101AD000000000000000000008000007000000C037
:101AE000000038000006000001C000003000000EB9
:101AF00000000100000000000000000020000220A3
:101B000000022000022000022000023FFFFE000031
:101B100000000000000000000000000000000000C5
:101B2000000000080000100000300000200000301D
:101B3000000010000008000000000000000000008D
:101B4000010000010000010000010000010000018F
:101B50000000010000010000010000010000010080
:101B60000001000000000000000000200000200034
:101B70000010000010000000000000000000000045
:101B80000000000000000000000000F00019F80054
:101B90001B18002208002608002408002410003F1B
:101BA000F8001FF800000800001800000004000002
:101BB00007FFF80FFFF000181800100800200800B9
:101BC0002008003018001FF0000FC00000000000C7
:101BD000000007C0001FF000183000200800200897
:101BE000002008003C08001C1000006000000000FD
:101BF00000000000000007C0001FF000381800209F
