Component: ARM Compiler 5.06 update 6 (build 750) Tool: armlink [4d35ed]

==============================================================================

Section Cross References

    startup_stm32f10x_hd.o(RESET) refers to startup_stm32f10x_hd.o(STACK) for __initial_sp
    startup_stm32f10x_hd.o(RESET) refers to startup_stm32f10x_hd.o(.text) for Reset_Handler
    startup_stm32f10x_hd.o(RESET) refers to stm32f10x_it.o(i.NMI_Handler) for NMI_Handler
    startup_stm32f10x_hd.o(RESET) refers to stm32f10x_it.o(i.HardFault_Handler) for HardFault_Handler
    startup_stm32f10x_hd.o(RESET) refers to stm32f10x_it.o(i.MemManage_Handler) for MemManage_Handler
    startup_stm32f10x_hd.o(RESET) refers to stm32f10x_it.o(i.BusFault_Handler) for BusFault_Handler
    startup_stm32f10x_hd.o(RESET) refers to stm32f10x_it.o(i.UsageFault_Handler) for UsageFault_Handler
    startup_stm32f10x_hd.o(RESET) refers to stm32f10x_it.o(i.SVC_Handler) for SVC_Handler
    startup_stm32f10x_hd.o(RESET) refers to stm32f10x_it.o(i.DebugMon_Handler) for DebugMon_Handler
    startup_stm32f10x_hd.o(RESET) refers to stm32f10x_it.o(i.PendSV_Handler) for PendSV_Handler
    startup_stm32f10x_hd.o(RESET) refers to stm32f10x_it.o(i.SysTick_Handler) for SysTick_Handler
    startup_stm32f10x_hd.o(RESET) refers to rtc.o(i.RTC_IRQHandler) for RTC_IRQHandler
    startup_stm32f10x_hd.o(.text) refers to system_stm32f10x.o(i.SystemInit) for SystemInit
    startup_stm32f10x_hd.o(.text) refers to entry.o(.ARM.Collect$$$$00000000) for __main
    main.o(i.DisplayMenu) refers to lcd.o(i.LCD_Clear) for LCD_Clear
    main.o(i.DisplayMenu) refers to lcd.o(i.LCD_ShowString) for LCD_ShowString
    main.o(i.ExecuteFunction) refers to main.o(.data) for s_LED0
    main.o(i.PrintfHelp) refers to printf8.o(i.__0printf$8) for __2printf
==============================================================================

Removing Unused input sections from the image.

    Removing core_cm3.o(.emb_text), (32 bytes).
    Removing startup_stm32f10x_hd.o(HEAP), (512 bytes).
    Removing system_stm32f10x.o(i.SystemCoreClockUpdate), (164 bytes).
    Removing misc.o(i.NVIC_Init), (112 bytes).
    Removing misc.o(i.NVIC_PriorityGroupConfig), (20 bytes).
    Removing misc.o(i.NVIC_SetVectorTable), (20 bytes).
    Removing misc.o(i.NVIC_SystemLPConfig), (32 bytes).
    Removing stm32f10x_adc.o(i.ADC_AnalogWatchdogCmd), (20 bytes).
    Removing stm32f10x_adc.o(i.ADC_AnalogWatchdogSingleChannelConfig), (16 bytes).
    Removing stm32f10x_adc.o(i.ADC_AnalogWatchdogThresholdsConfig), (6 bytes).
    Removing stm32f10x_adc.o(i.ADC_AutoInjectedConvCmd), (22 bytes).
    Removing stm32f10x_adc.o(i.ADC_ClearFlag), (6 bytes).
    Removing stm32f10x_adc.o(i.ADC_ClearITPendingBit), (10 bytes).
    Removing stm32f10x_adc.o(i.ADC_Cmd), (22 bytes).
    Removing stm32f10x_adc.o(i.ADC_DMACmd), (22 bytes).
    Removing stm32f10x_adc.o(i.ADC_DeInit), (92 bytes).
    Removing stm32f10x_adc.o(i.ADC_DiscModeChannelCountConfig), (24 bytes).
    Removing stm32f10x_adc.o(i.ADC_DiscModeCmd), (22 bytes).
==============================================================================

Image Symbol Table

    Local Symbols

    Symbol Name                              Value     Ov Type        Size  Object(Section)

    ../clib/microlib/division.c              0x00000000   Number         0  uldiv.o ABSOLUTE
    ../clib/microlib/division.c              0x00000000   Number         0  uidiv.o ABSOLUTE
    ../clib/microlib/init/entry.s            0x00000000   Number         0  entry10b.o ABSOLUTE
    ../clib/microlib/init/entry.s            0x00000000   Number         0  entry5.o ABSOLUTE
    ../clib/microlib/init/entry.s            0x00000000   Number         0  entry10a.o ABSOLUTE
    ../clib/microlib/init/entry.s            0x00000000   Number         0  entry9b.o ABSOLUTE
    ../clib/microlib/init/entry.s            0x00000000   Number         0  entry7a.o ABSOLUTE
    ../clib/microlib/init/entry.s            0x00000000   Number         0  entry9a.o ABSOLUTE
    ../clib/microlib/init/entry.s            0x00000000   Number         0  entry.o ABSOLUTE
    ../clib/microlib/init/entry.s            0x00000000   Number         0  entry11b.o ABSOLUTE
    ../clib/microlib/init/entry.s            0x00000000   Number         0  entry7b.o ABSOLUTE
    ../clib/microlib/init/entry.s            0x00000000   Number         0  entry11a.o ABSOLUTE
    ../clib/microlib/init/entry.s            0x00000000   Number         0  entry8a.o ABSOLUTE
    ../clib/microlib/init/entry.s            0x00000000   Number         0  entry2.o ABSOLUTE
    ../clib/microlib/init/entry.s            0x00000000   Number         0  entry8b.o ABSOLUTE
    ../clib/microlib/longlong.c              0x00000000   Number         0  llshl.o ABSOLUTE
    ../clib/microlib/longlong.c              0x00000000   Number         0  llushr.o ABSOLUTE
    ../clib/microlib/longlong.c              0x00000000   Number         0  llsshr.o ABSOLUTE
    ../clib/microlib/printf/printf.c         0x00000000   Number         0  printf3.o ABSOLUTE
    ../clib/microlib/printf/printf.c         0x00000000   Number         0  printf8.o ABSOLUTE
    ../clib/microlib/printf/printf.c         0x00000000   Number         0  printfa.o ABSOLUTE
    ../clib/microlib/printf/printf.c         0x00000000   Number         0  printf4.o ABSOLUTE
    ../clib/microlib/printf/printf.c         0x00000000   Number         0  printf0.o ABSOLUTE
    ../clib/microlib/printf/printf.c         0x00000000   Number         0  printf5.o ABSOLUTE
    ../clib/microlib/printf/printf.c         0x00000000   Number         0  printf6.o ABSOLUTE
    ../clib/microlib/printf/printf.c         0x00000000   Number         0  printf7.o ABSOLUTE
    ../clib/microlib/printf/printf.c         0x00000000   Number         0  printf1.o ABSOLUTE
    ../clib/microlib/printf/printf.c         0x00000000   Number         0  printfb.o ABSOLUTE
    ../clib/microlib/printf/printf.c         0x00000000   Number         0  printf2.o ABSOLUTE
    ../clib/microlib/printf/stubs.s          0x00000000   Number         0  stubs.o ABSOLUTE
    ../clib/microlib/stubs.s                 0x00000000   Number         0  iusefp.o ABSOLUTE
    ../clib/microlib/stubs.s                 0x00000000   Number         0  useno.o ABSOLUTE
    ../fplib/microlib/fpadd.c                0x00000000   Number         0  dadd.o ABSOLUTE
    ../fplib/microlib/fpdiv.c                0x00000000   Number         0  ddiv.o ABSOLUTE
    ../fplib/microlib/fpepilogue.c           0x00000000   Number         0  depilogue.o ABSOLUTE
    ../fplib/microlib/fpfix.c                0x00000000   Number         0  dfixul.o ABSOLUTE
    ../fplib/microlib/fpfix.c                0x00000000   Number         0  dfixui.o ABSOLUTE
    ../fplib/microlib/fpflt.c                0x00000000   Number         0  dfltui.o ABSOLUTE
    ../fplib/microlib/fpmul.c                0x00000000   Number         0  dmul.o ABSOLUTE
    ..\CORE\core_cm3.c                       0x00000000   Number         0  core_cm3.o ABSOLUTE
    ..\CORE\startup_stm32f10x_hd.s           0x00000000   Number         0  startup_stm32f10x_hd.o ABSOLUTE
    ..\FWLib\src\misc.c                      0x00000000   Number         0  misc.o ABSOLUTE
    ..\FWLib\src\stm32f10x_adc.c             0x00000000   Number         0  stm32f10x_adc.o ABSOLUTE
    ..\FWLib\src\stm32f10x_bkp.c             0x00000000   Number         0  stm32f10x_bkp.o ABSOLUTE
    ..\FWLib\src\stm32f10x_can.c             0x00000000   Number         0  stm32f10x_can.o ABSOLUTE
    ..\FWLib\src\stm32f10x_cec.c             0x00000000   Number         0  stm32f10x_cec.o ABSOLUTE
    ..\FWLib\src\stm32f10x_crc.c             0x00000000   Number         0  stm32f10x_crc.o ABSOLUTE
    ..\FWLib\src\stm32f10x_dac.c             0x00000000   Number         0  stm32f10x_dac.o ABSOLUTE
    ..\FWLib\src\stm32f10x_dbgmcu.c          0x00000000   Number         0  stm32f10x_dbgmcu.o ABSOLUTE
    ..\FWLib\src\stm32f10x_dma.c             0x00000000   Number         0  stm32f10x_dma.o ABSOLUTE
    ..\FWLib\src\stm32f10x_exti.c            0x00000000   Number         0  stm32f10x_exti.o ABSOLUTE
    ..\FWLib\src\stm32f10x_flash.c           0x00000000   Number         0  stm32f10x_flash.o ABSOLUTE
    ..\FWLib\src\stm32f10x_fsmc.c            0x00000000   Number         0  stm32f10x_fsmc.o ABSOLUTE
    ..\FWLib\src\stm32f10x_gpio.c            0x00000000   Number         0  stm32f10x_gpio.o ABSOLUTE
    ..\FWLib\src\stm32f10x_i2c.c             0x00000000   Number         0  stm32f10x_i2c.o ABSOLUTE
    ..\FWLib\src\stm32f10x_iwdg.c            0x00000000   Number         0  stm32f10x_iwdg.o ABSOLUTE
    ..\FWLib\src\stm32f10x_pwr.c             0x00000000   Number         0  stm32f10x_pwr.o ABSOLUTE
    ..\FWLib\src\stm32f10x_rcc.c             0x00000000   Number         0  stm32f10x_rcc.o ABSOLUTE
    ..\FWLib\src\stm32f10x_rtc.c             0x00000000   Number         0  stm32f10x_rtc.o ABSOLUTE
    ..\FWLib\src\stm32f10x_sdio.c            0x00000000   Number         0  stm32f10x_sdio.o ABSOLUTE
    ..\FWLib\src\stm32f10x_spi.c             0x00000000   Number         0  stm32f10x_spi.o ABSOLUTE
    ..\FWLib\src\stm32f10x_tim.c             0x00000000   Number         0  stm32f10x_tim.o ABSOLUTE
    ..\FWLib\src\stm32f10x_usart.c           0x00000000   Number         0  stm32f10x_usart.o ABSOLUTE
    ..\FWLib\src\stm32f10x_wwdg.c            0x00000000   Number         0  stm32f10x_wwdg.o ABSOLUTE
    ..\HARDWARE\KEY\key.c                    0x00000000   Number         0  key.o ABSOLUTE
    ..\HARDWARE\LCD\lcd.c                    0x00000000   Number         0  lcd.o ABSOLUTE
    ..\HARDWARE\LED\led.c                    0x00000000   Number         0  led.o ABSOLUTE
    ..\HARDWARE\RTC\rtc.c                    0x00000000   Number         0  rtc.o ABSOLUTE
    ..\SYSTEM\delay\delay.c                  0x00000000   Number         0  delay.o ABSOLUTE
    ..\SYSTEM\sys\sys.c                      0x00000000   Number         0  sys.o ABSOLUTE
    ..\SYSTEM\usart\usart.c                  0x00000000   Number         0  usart.o ABSOLUTE
    ..\\CORE\\core_cm3.c                     0x00000000   Number         0  core_cm3.o ABSOLUTE
    cdrcmple.s                               0x00000000   Number         0  cdrcmple.o ABSOLUTE
    dc.s                                     0x00000000   Number         0  dc.o ABSOLUTE
    handlers.s                               0x00000000   Number         0  handlers.o ABSOLUTE
    init.s                                   0x00000000   Number         0  init.o ABSOLUTE
    main.c                                   0x00000000   Number         0  main.o ABSOLUTE
    stm32f10x_it.c                           0x00000000   Number         0  stm32f10x_it.o ABSOLUTE
    system_stm32f10x.c                       0x00000000   Number         0  system_stm32f10x.o ABSOLUTE
    RESET                                    0x08000000   Section      304  startup_stm32f10x_hd.o(RESET)
    .ARM.Collect$$$$00000000                 0x08000130   Section        0  entry.o(.ARM.Collect$$$$00000000)
    .ARM.Collect$$$$00000001                 0x08000130   Section        4  entry2.o(.ARM.Collect$$$$00000001)
    .ARM.Collect$$$$00000004                 0x08000134   Section        4  entry5.o(.ARM.Collect$$$$00000004)
    .ARM.Collect$$$$00000008                 0x08000138   Section        0  entry7b.o(.ARM.Collect$$$$00000008)
    .ARM.Collect$$$$0000000A                 0x08000138   Section        0  entry8b.o(.ARM.Collect$$$$0000000A)
    .ARM.Collect$$$$0000000B                 0x08000138   Section        8  entry9a.o(.ARM.Collect$$$$0000000B)
    .ARM.Collect$$$$0000000D                 0x08000140   Section        0  entry10a.o(.ARM.Collect$$$$0000000D)
    .ARM.Collect$$$$0000000F                 0x08000140   Section        0  entry11a.o(.ARM.Collect$$$$0000000F)
    .ARM.Collect$$$$00002712                 0x08000140   Section        4  entry2.o(.ARM.Collect$$$$00002712)
    __lit__00000000                          0x08000140   Data           4  entry2.o(.ARM.Collect$$$$00002712)
    .text                                    0x08000144   Section       36  startup_stm32f10x_hd.o(.text)
    .text                                    0x08000168   Section        0  dmul.o(.text)
    .text                                    0x0800024c   Section        0  dfltui.o(.text)
    .text                                    0x08000266   Section        0  dfixui.o(.text)
    .text                                    0x08000298   Section        0  uldiv.o(.text)
    .text                                    0x080002fa   Section        0  llushr.o(.text)
    .text                                    0x0800031a   Section        0  depilogue.o(.text)
    .text                                    0x0800031a   Section        0  iusefp.o(.text)
    .text                                    0x080003d4   Section       36  init.o(.text)
    .text                                    0x080003f8   Section        0  llshl.o(.text)
    i.BusFault_Handler                       0x08000416   Section        0  stm32f10x_it.o(i.BusFault_Handler)
    i.DebugMon_Handler                       0x0800041a   Section        0  stm32f10x_it.o(i.DebugMon_Handler)
    i.DisplayMenu                            0x0800041c   Section        0  main.o(i.DisplayMenu)
    i.ExecuteFunction                        0x080005b0   Section        0  main.o(i.ExecuteFunction)
    i.GPIO_Init                              0x08000668   Section        0  stm32f10x_gpio.o(i.GPIO_Init)
    i.GPIO_PinRemapConfig                    0x08000780   Section        0  stm32f10x_gpio.o(i.GPIO_PinRemapConfig)
    i.GPIO_SetBits                           0x08000810   Section        0  stm32f10x_gpio.o(i.GPIO_SetBits)
    i.HardFault_Handler                      0x08000814   Section        0  stm32f10x_it.o(i.HardFault_Handler)
    i.Is_Leap_Year                           0x08000818   Section        0  rtc.o(i.Is_Leap_Year)
    i.KEY_Init                               0x08000854   Section        0  key.o(i.KEY_Init)
    i.KEY_Scan                               0x080008b4   Section        0  key.o(i.KEY_Scan)
    i.LCD_Clear                              0x08000938   Section        0  lcd.o(i.LCD_Clear)
    i.LCD_Display_Dir                        0x080009c0   Section        0  lcd.o(i.LCD_Display_Dir)
    i.LCD_Fast_DrawPoint                     0x08000b80   Section        0  lcd.o(i.LCD_Fast_DrawPoint)
    i.LCD_Init                               0x08000ee4   Section        0  lcd.o(i.LCD_Init)
    i.LCD_RD_DATA                            0x08004a84   Section        0  lcd.o(i.LCD_RD_DATA)
    i.LCD_ReadReg                            0x08004af4   Section        0  lcd.o(i.LCD_ReadReg)
    i.LCD_SSD_BackLightSet                   0x08004b04   Section        0  lcd.o(i.LCD_SSD_BackLightSet)
    i.LCD_Scan_Dir                           0x08004bd8   Section        0  lcd.o(i.LCD_Scan_Dir)
    i.LCD_SetCursor                          0x08005030   Section        0  lcd.o(i.LCD_SetCursor)
    i.LCD_ShowChar                           0x080053ec   Section        0  lcd.o(i.LCD_ShowChar)
    i.LCD_ShowString                         0x08005514   Section        0  lcd.o(i.LCD_ShowString)
    i.LCD_WR_DATAX                           0x0800557c   Section        0  lcd.o(i.LCD_WR_DATAX)
    i.LCD_WR_REG                             0x080055a0   Section        0  lcd.o(i.LCD_WR_REG)
    i.LCD_WriteRAM_Prepare                   0x080055c4   Section        0  lcd.o(i.LCD_WriteRAM_Prepare)
    i.LCD_WriteReg                           0x080055d4   Section        0  lcd.o(i.LCD_WriteReg)
    i.LED_Init                               0x08005604   Section        0  led.o(i.LED_Init)
    i.MemManage_Handler                      0x08005654   Section        0  stm32f10x_it.o(i.MemManage_Handler)
    i.NMI_Handler                            0x08005658   Section        0  stm32f10x_it.o(i.NMI_Handler)
    i.PendSV_Handler                         0x0800565a   Section        0  stm32f10x_it.o(i.PendSV_Handler)
    i.PrintfHelp                             0x0800565c   Section        0  main.o(i.PrintfHelp)
    PrintfHelp                               0x0800565d   Thumb Code    28  main.o(i.PrintfHelp)
    i.PrintfLogo                             0x080056bc   Section        0  main.o(i.PrintfLogo)
    PrintfLogo                               0x080056bd   Thumb Code    78  main.o(i.PrintfLogo)
    i.RCC_APB2PeriphClockCmd                 0x0800584c   Section        0  stm32f10x_rcc.o(i.RCC_APB2PeriphClockCmd)
    i.RCC_GetClocksFreq                      0x0800586c   Section        0  stm32f10x_rcc.o(i.RCC_GetClocksFreq)
    i.RTC_ClearITPendingBit                  0x08005940   Section        0  stm32f10x_rtc.o(i.RTC_ClearITPendingBit)
    i.RTC_Get                                0x08005950   Section        0  rtc.o(i.RTC_Get)
    i.RTC_GetCounter                         0x08005a50   Section        0  stm32f10x_rtc.o(i.RTC_GetCounter)
    i.RTC_GetITStatus                        0x08005a64   Section        0  stm32f10x_rtc.o(i.RTC_GetITStatus)
    i.RTC_Get_Week                           0x08005a88   Section        0  rtc.o(i.RTC_Get_Week)
    i.RTC_IRQHandler                         0x08005b00   Section        0  rtc.o(i.RTC_IRQHandler)
    i.RTC_WaitForLastTask                    0x08005b28   Section        0  stm32f10x_rtc.o(i.RTC_WaitForLastTask)
    i.SVC_Handler                            0x08005b3c   Section        0  stm32f10x_it.o(i.SVC_Handler)
    i.SetSysClock                            0x08005b3e   Section        0  system_stm32f10x.o(i.SetSysClock)
    SetSysClock                              0x08005b3f   Thumb Code     8  system_stm32f10x.o(i.SetSysClock)
    i.SetSysClockTo72                        0x08005b48   Section        0  system_stm32f10x.o(i.SetSysClockTo72)
    SetSysClockTo72                          0x08005b49   Thumb Code   214  system_stm32f10x.o(i.SetSysClockTo72)
    i.SysTick_CLKSourceConfig                0x08005c28   Section        0  misc.o(i.SysTick_CLKSourceConfig)
    i.SysTick_Handler                        0x08005c50   Section        0  stm32f10x_it.o(i.SysTick_Handler)
    i.SystemInit                             0x08005c54   Section        0  system_stm32f10x.o(i.SystemInit)
    i.USART_ClearFlag                        0x08005cb4   Section        0  stm32f10x_usart.o(i.USART_ClearFlag)
    i.USART_Cmd                              0x08005cc6   Section        0  stm32f10x_usart.o(i.USART_Cmd)
    i.USART_GetFlagStatus                    0x08005cde   Section        0  stm32f10x_usart.o(i.USART_GetFlagStatus)
    i.USART_ITConfig                         0x08005cf8   Section        0  stm32f10x_usart.o(i.USART_ITConfig)
    i.USART_Init                             0x08005d44   Section        0  stm32f10x_usart.o(i.USART_Init)
    i.USART_SendData                         0x08005e1c   Section        0  stm32f10x_usart.o(i.USART_SendData)
    i.UsageFault_Handler                     0x08005e24   Section        0  stm32f10x_it.o(i.UsageFault_Handler)
    i.__0printf$8                            0x08005e28   Section        0  printf8.o(i.__0printf$8)
    i.__scatterload_copy                     0x08005e48   Section       14  handlers.o(i.__scatterload_copy)
    i.__scatterload_null                     0x08005e56   Section        2  handlers.o(i.__scatterload_null)
    i.__scatterload_zeroinit                 0x08005e58   Section       14  handlers.o(i.__scatterload_zeroinit)
    i._printf_core                           0x08005e68   Section        0  printf8.o(i._printf_core)
    _printf_core                             0x08005e69   Thumb Code   996  printf8.o(i._printf_core)
    i._printf_post_padding                   0x08006278   Section        0  printf8.o(i._printf_post_padding)
    _printf_post_padding                     0x08006279   Thumb Code    36  printf8.o(i._printf_post_padding)
    i._printf_pre_padding                    0x0800629c   Section        0  printf8.o(i._printf_pre_padding)
    _printf_pre_padding                      0x0800629d   Thumb Code    46  printf8.o(i._printf_pre_padding)
    i.delay_init                             0x080062cc   Section        0  delay.o(i.delay_init)
    i.delay_ms                               0x08006310   Section        0  delay.o(i.delay_ms)
    i.delay_us                               0x0800635c   Section        0  delay.o(i.delay_us)
    i.fputc                                  0x080063a8   Section        0  usart.o(i.fputc)
    i.main                                   0x080063d4   Section        0  main.o(i.main)
    i.uart_init                              0x0800644c   Section        0  usart.o(i.uart_init)
    .constdata                               0x080064d8   Section       24  rtc.o(.constdata)
    .constdata                               0x080064f0   Section     6080  lcd.o(.constdata)
    .data                                    0x20000000   Section        2  main.o(.data)
    s_LED0                                   0x20000000   Data           1  main.o(.data)
    s_LED1                                   0x20000001   Data           1  main.o(.data)
    .data                                    0x20000004   Section       20  system_stm32f10x.o(.data)
    .data                                    0x20000018   Section       20  stm32f10x_rcc.o(.data)
    APBAHBPrescTable                         0x20000018   Data          16  stm32f10x_rcc.o(.data)
    ADCPrescTable                            0x20000028   Data           4  stm32f10x_rcc.o(.data)
    .data                                    0x2000002c   Section        4  delay.o(.data)
    fac_us                                   0x2000002c   Data           1  delay.o(.data)
    fac_ms                                   0x2000002e   Data           2  delay.o(.data)
    .data                                    0x20000030   Section        4  usart.o(.data)
    .data                                    0x20000034   Section        2  rtc.o(.data)
    daycnt                                   0x20000034   Data           2  rtc.o(.data)
    .data                                    0x20000036   Section        4  lcd.o(.data)
    .data                                    0x2000003a   Section        1  key.o(.data)
    key_up                                   0x2000003a   Data           1  key.o(.data)
    .bss                                     0x2000003c   Section       10  rtc.o(.bss)
    .bss                                     0x20000046   Section       14  lcd.o(.bss)
    STACK                                    0x20000058   Section     1024  startup_stm32f10x_hd.o(STACK)

    Global Symbols

    Symbol Name                              Value     Ov Type        Size  Object(Section)

    BuildAttributes$$THM_ISAv4$P$D$K$B$S$PE$A:L22UL41UL21$X:L11$S22US41US21$IEEE1$IW$USESV6$~STKCKD$USESV7$~SHL$OSPACE$ROPI$EBA8$MICROLIB$REQ8$PRES8$EABIv2 0x00000000   Number         0  anon$$obj.o ABSOLUTE
    __ARM_use_no_argv                        0x00000000   Number         0  main.o ABSOLUTE
    __use_no_errno                           0x00000000   Number         0  useno.o ABSOLUTE
    __use_no_exception_handling              0x00000000   Number         0  useno.o ABSOLUTE
    __use_no_fp                              0x00000000   Number         0  useno.o ABSOLUTE
    __use_no_heap                            0x00000000   Number         0  useno.o ABSOLUTE
    __use_no_heap_region                     0x00000000   Number         0  useno.o ABSOLUTE
    __use_no_semihosting                     0x00000000   Number         0  useno.o ABSOLUTE
    __use_no_semihosting_swi                 0x00000000   Number         0  useno.o ABSOLUTE
    __use_no_signal_handling                 0x00000000   Number         0  useno.o ABSOLUTE
    _printf_a                                0x00000000   Number         0  stubs.o ABSOLUTE
    _printf_c                                0x00000000   Number         0  stubs.o ABSOLUTE
    _printf_charcount                        0x00000000   Number         0  stubs.o ABSOLUTE
    _printf_d                                0x00000000   Number         0  stubs.o ABSOLUTE
    _printf_e                                0x00000000   Number         0  stubs.o ABSOLUTE
    _printf_f                                0x00000000   Number         0  stubs.o ABSOLUTE
    _printf_flags                            0x00000000   Number         0  stubs.o ABSOLUTE
    _printf_fp_dec                           0x00000000   Number         0  stubs.o ABSOLUTE
    _printf_fp_hex                           0x00000000   Number         0  stubs.o ABSOLUTE
    _printf_g                                0x00000000   Number         0  stubs.o ABSOLUTE
    _printf_i                                0x00000000   Number         0  stubs.o ABSOLUTE
    _printf_int_dec                          0x00000000   Number         0  stubs.o ABSOLUTE
    _printf_l                                0x00000000   Number         0  stubs.o ABSOLUTE
    _printf_lc                               0x00000000   Number         0  stubs.o ABSOLUTE
    _printf_ll                               0x00000000   Number         0  stubs.o ABSOLUTE
    _printf_lld                              0x00000000   Number         0  stubs.o ABSOLUTE
    _printf_lli                              0x00000000   Number         0  stubs.o ABSOLUTE
    _printf_llo                              0x00000000   Number         0  stubs.o ABSOLUTE
    _printf_llu                              0x00000000   Number         0  stubs.o ABSOLUTE
    _printf_llx                              0x00000000   Number         0  stubs.o ABSOLUTE
    _printf_longlong_dec                     0x00000000   Number         0  stubs.o ABSOLUTE
    _printf_longlong_hex                     0x00000000   Number         0  stubs.o ABSOLUTE
    _printf_longlong_oct                     0x00000000   Number         0  stubs.o ABSOLUTE
    _printf_ls                               0x00000000   Number         0  stubs.o ABSOLUTE
    _printf_mbtowc                           0x00000000   Number         0  stubs.o ABSOLUTE
    _printf_n                                0x00000000   Number         0  stubs.o ABSOLUTE
    _printf_o                                0x00000000   Number         0  stubs.o ABSOLUTE
    _printf_p                                0x00000000   Number         0  stubs.o ABSOLUTE
    _printf_percent                          0x00000000   Number         0  stubs.o ABSOLUTE
    _printf_pre_padding                      0x00000000   Number         0  stubs.o ABSOLUTE
    _printf_return_value                     0x00000000   Number         0  stubs.o ABSOLUTE
    _printf_s                                0x00000000   Number         0  stubs.o ABSOLUTE
    _printf_sizespec                         0x00000000   Number         0  stubs.o ABSOLUTE
    _printf_str                              0x00000000   Number         0  stubs.o ABSOLUTE
    _printf_truncate_signed                  0x00000000   Number         0  stubs.o ABSOLUTE
    _printf_truncate_unsigned                0x00000000   Number         0  stubs.o ABSOLUTE
    _printf_u                                0x00000000   Number         0  stubs.o ABSOLUTE
    _printf_wc                               0x00000000   Number         0  stubs.o ABSOLUTE
    _printf_wctomb                           0x00000000   Number         0  stubs.o ABSOLUTE
    _printf_widthprec                        0x00000000   Number         0  stubs.o ABSOLUTE
    _printf_x                                0x00000000   Number         0  stubs.o ABSOLUTE
    __cpp_initialize__aeabi_                  - Undefined Weak Reference
    __cxa_finalize                            - Undefined Weak Reference
    __decompress                              - Undefined Weak Reference
    _clock_init                               - Undefined Weak Reference
    _microlib_exit                            - Undefined Weak Reference
    __Vectors_Size                           0x00000130   Number         0  startup_stm32f10x_hd.o ABSOLUTE
    __Vectors                                0x08000000   Data           4  startup_stm32f10x_hd.o(RESET)
    __Vectors_End                            0x08000130   Data           0  startup_stm32f10x_hd.o(RESET)
    __main                                   0x08000131   Thumb Code     0  entry.o(.ARM.Collect$$$$00000000)
    _main_stk                                0x08000131   Thumb Code     0  entry2.o(.ARM.Collect$$$$00000001)
    _main_scatterload                        0x08000135   Thumb Code     0  entry5.o(.ARM.Collect$$$$00000004)
    __main_after_scatterload                 0x08000139   Thumb Code     0  entry5.o(.ARM.Collect$$$$00000004)
    _main_clock                              0x08000139   Thumb Code     0  entry7b.o(.ARM.Collect$$$$00000008)
    _main_cpp_init                           0x08000139   Thumb Code     0  entry8b.o(.ARM.Collect$$$$0000000A)
    _main_init                               0x08000139   Thumb Code     0  entry9a.o(.ARM.Collect$$$$0000000B)
    __rt_final_cpp                           0x08000141   Thumb Code     0  entry10a.o(.ARM.Collect$$$$0000000D)
    __rt_final_exit                          0x08000141   Thumb Code     0  entry11a.o(.ARM.Collect$$$$0000000F)
    Reset_Handler                            0x08000145   Thumb Code     8  startup_stm32f10x_hd.o(.text)
    ADC1_2_IRQHandler                        0x0800015f   Thumb Code     0  startup_stm32f10x_hd.o(.text)
    ADC3_IRQHandler                          0x0800015f   Thumb Code     0  startup_stm32f10x_hd.o(.text)
    CAN1_RX1_IRQHandler                      0x0800015f   Thumb Code     0  startup_stm32f10x_hd.o(.text)
    CAN1_SCE_IRQHandler                      0x0800015f   Thumb Code     0  startup_stm32f10x_hd.o(.text)
    DMA1_Channel1_IRQHandler                 0x0800015f   Thumb Code     0  startup_stm32f10x_hd.o(.text)
    DMA1_Channel2_IRQHandler                 0x0800015f   Thumb Code     0  startup_stm32f10x_hd.o(.text)
    DMA1_Channel3_IRQHandler                 0x0800015f   Thumb Code     0  startup_stm32f10x_hd.o(.text)
    DMA1_Channel4_IRQHandler                 0x0800015f   Thumb Code     0  startup_stm32f10x_hd.o(.text)
    DMA1_Channel5_IRQHandler                 0x0800015f   Thumb Code     0  startup_stm32f10x_hd.o(.text)
    DMA1_Channel6_IRQHandler                 0x0800015f   Thumb Code     0  startup_stm32f10x_hd.o(.text)
    DMA1_Channel7_IRQHandler                 0x0800015f   Thumb Code     0  startup_stm32f10x_hd.o(.text)
    DMA2_Channel1_IRQHandler                 0x0800015f   Thumb Code     0  startup_stm32f10x_hd.o(.text)
    DMA2_Channel2_IRQHandler                 0x0800015f   Thumb Code     0  startup_stm32f10x_hd.o(.text)
    DMA2_Channel3_IRQHandler                 0x0800015f   Thumb Code     0  startup_stm32f10x_hd.o(.text)
    DMA2_Channel4_5_IRQHandler               0x0800015f   Thumb Code     0  startup_stm32f10x_hd.o(.text)
    EXTI0_IRQHandler                         0x0800015f   Thumb Code     0  startup_stm32f10x_hd.o(.text)
    EXTI15_10_IRQHandler                     0x0800015f   Thumb Code     0  startup_stm32f10x_hd.o(.text)
    EXTI1_IRQHandler                         0x0800015f   Thumb Code     0  startup_stm32f10x_hd.o(.text)
    EXTI2_IRQHandler                         0x0800015f   Thumb Code     0  startup_stm32f10x_hd.o(.text)
    EXTI3_IRQHandler                         0x0800015f   Thumb Code     0  startup_stm32f10x_hd.o(.text)
    EXTI4_IRQHandler                         0x0800015f   Thumb Code     0  startup_stm32f10x_hd.o(.text)
    EXTI9_5_IRQHandler                       0x0800015f   Thumb Code     0  startup_stm32f10x_hd.o(.text)
    FLASH_IRQHandler                         0x0800015f   Thumb Code     0  startup_stm32f10x_hd.o(.text)
    FSMC_IRQHandler                          0x0800015f   Thumb Code     0  startup_stm32f10x_hd.o(.text)
    I2C1_ER_IRQHandler                       0x0800015f   Thumb Code     0  startup_stm32f10x_hd.o(.text)
    I2C1_EV_IRQHandler                       0x0800015f   Thumb Code     0  startup_stm32f10x_hd.o(.text)
    I2C2_ER_IRQHandler                       0x0800015f   Thumb Code     0  startup_stm32f10x_hd.o(.text)
    I2C2_EV_IRQHandler                       0x0800015f   Thumb Code     0  startup_stm32f10x_hd.o(.text)
    PVD_IRQHandler                           0x0800015f   Thumb Code     0  startup_stm32f10x_hd.o(.text)
    RCC_IRQHandler                           0x0800015f   Thumb Code     0  startup_stm32f10x_hd.o(.text)
    RTCAlarm_IRQHandler                      0x0800015f   Thumb Code     0  startup_stm32f10x_hd.o(.text)
    SDIO_IRQHandler                          0x0800015f   Thumb Code     0  startup_stm32f10x_hd.o(.text)
    SPI1_IRQHandler                          0x0800015f   Thumb Code     0  startup_stm32f10x_hd.o(.text)
    SPI2_IRQHandler                          0x0800015f   Thumb Code     0  startup_stm32f10x_hd.o(.text)
    SPI3_IRQHandler                          0x0800015f   Thumb Code     0  startup_stm32f10x_hd.o(.text)
    TAMPER_IRQHandler                        0x0800015f   Thumb Code     0  startup_stm32f10x_hd.o(.text)
    TIM1_BRK_IRQHandler                      0x0800015f   Thumb Code     0  startup_stm32f10x_hd.o(.text)
    TIM1_CC_IRQHandler                       0x0800015f   Thumb Code     0  startup_stm32f10x_hd.o(.text)
    TIM1_TRG_COM_IRQHandler                  0x0800015f   Thumb Code     0  startup_stm32f10x_hd.o(.text)
    TIM1_UP_IRQHandler                       0x0800015f   Thumb Code     0  startup_stm32f10x_hd.o(.text)
    TIM2_IRQHandler                          0x0800015f   Thumb Code     0  startup_stm32f10x_hd.o(.text)
    TIM3_IRQHandler                          0x0800015f   Thumb Code     0  startup_stm32f10x_hd.o(.text)
    TIM4_IRQHandler                          0x0800015f   Thumb Code     0  startup_stm32f10x_hd.o(.text)
    TIM5_IRQHandler                          0x0800015f   Thumb Code     0  startup_stm32f10x_hd.o(.text)
    TIM6_IRQHandler                          0x0800015f   Thumb Code     0  startup_stm32f10x_hd.o(.text)
    TIM7_IRQHandler                          0x0800015f   Thumb Code     0  startup_stm32f10x_hd.o(.text)
    TIM8_BRK_IRQHandler                      0x0800015f   Thumb Code     0  startup_stm32f10x_hd.o(.text)
    TIM8_CC_IRQHandler                       0x0800015f   Thumb Code     0  startup_stm32f10x_hd.o(.text)
    TIM8_TRG_COM_IRQHandler                  0x0800015f   Thumb Code     0  startup_stm32f10x_hd.o(.text)
    TIM8_UP_IRQHandler                       0x0800015f   Thumb Code     0  startup_stm32f10x_hd.o(.text)
    UART4_IRQHandler                         0x0800015f   Thumb Code     0  startup_stm32f10x_hd.o(.text)
    UART5_IRQHandler                         0x0800015f   Thumb Code     0  startup_stm32f10x_hd.o(.text)
    USART1_IRQHandler                        0x0800015f   Thumb Code     0  startup_stm32f10x_hd.o(.text)
    USART2_IRQHandler                        0x0800015f   Thumb Code     0  startup_stm32f10x_hd.o(.text)
    USART3_IRQHandler                        0x0800015f   Thumb Code     0  startup_stm32f10x_hd.o(.text)
    USBWakeUp_IRQHandler                     0x0800015f   Thumb Code     0  startup_stm32f10x_hd.o(.text)
    USB_HP_CAN1_TX_IRQHandler                0x0800015f   Thumb Code     0  startup_stm32f10x_hd.o(.text)
    USB_LP_CAN1_RX0_IRQHandler               0x0800015f   Thumb Code     0  startup_stm32f10x_hd.o(.text)
    WWDG_IRQHandler                          0x0800015f   Thumb Code     0  startup_stm32f10x_hd.o(.text)
    __aeabi_dmul                             0x08000169   Thumb Code   228  dmul.o(.text)
    __aeabi_ui2d                             0x0800024d   Thumb Code    26  dfltui.o(.text)
    __aeabi_d2uiz                            0x08000267   Thumb Code    50  dfixui.o(.text)
    __aeabi_uldivmod                         0x08000299   Thumb Code    98  uldiv.o(.text)
    __aeabi_llsr                             0x080002fb   Thumb Code    32  llushr.o(.text)
    _ll_ushift_r                             0x080002fb   Thumb Code     0  llushr.o(.text)
    __I$use$fp                               0x0800031b   Thumb Code     0  iusefp.o(.text)
    _double_round                            0x0800031b   Thumb Code    30  depilogue.o(.text)
    _double_epilogue                         0x08000339   Thumb Code   156  depilogue.o(.text)
    __scatterload                            0x080003d5   Thumb Code    28  init.o(.text)
    __scatterload_rt2                        0x080003d5   Thumb Code     0  init.o(.text)
    __aeabi_llsl                             0x080003f9   Thumb Code    30  llshl.o(.text)
    _ll_shift_l                              0x080003f9   Thumb Code     0  llshl.o(.text)
    BusFault_Handler                         0x08000417   Thumb Code     4  stm32f10x_it.o(i.BusFault_Handler)
    DebugMon_Handler                         0x0800041b   Thumb Code     2  stm32f10x_it.o(i.DebugMon_Handler)
    DisplayMenu                              0x0800041d   Thumb Code   352  main.o(i.DisplayMenu)
    ExecuteFunction                          0x080005b1   Thumb Code   168  main.o(i.ExecuteFunction)
    GPIO_Init                                0x08000669   Thumb Code   278  stm32f10x_gpio.o(i.GPIO_Init)
    GPIO_PinRemapConfig                      0x08000781   Thumb Code   138  stm32f10x_gpio.o(i.GPIO_PinRemapConfig)
    GPIO_SetBits                             0x08000811   Thumb Code     4  stm32f10x_gpio.o(i.GPIO_SetBits)
    HardFault_Handler                        0x08000815   Thumb Code     4  stm32f10x_it.o(i.HardFault_Handler)
    Is_Leap_Year                             0x08000819   Thumb Code    58  rtc.o(i.Is_Leap_Year)
    KEY_Init                                 0x08000855   Thumb Code    82  key.o(i.KEY_Init)
    KEY_Scan                                 0x080008b5   Thumb Code   120  key.o(i.KEY_Scan)
    LCD_Clear                                0x08000939   Thumb Code   122  lcd.o(i.LCD_Clear)
    LCD_Display_Dir                          0x080009c1   Thumb Code   444  lcd.o(i.LCD_Display_Dir)
    LCD_Fast_DrawPoint                       0x08000b81   Thumb Code   854  lcd.o(i.LCD_Fast_DrawPoint)
    LCD_Init                                 0x08000ee5   Thumb Code 15264  lcd.o(i.LCD_Init)
    LCD_RD_DATA                              0x08004a85   Thumb Code    98  lcd.o(i.LCD_RD_DATA)
    LCD_ReadReg                              0x08004af5   Thumb Code    16  lcd.o(i.LCD_ReadReg)
    LCD_SSD_BackLightSet                     0x08004b05   Thumb Code   198  lcd.o(i.LCD_SSD_BackLightSet)
    LCD_Scan_Dir                             0x08004bd9   Thumb Code  1112  lcd.o(i.LCD_Scan_Dir)
    LCD_SetCursor                            0x08005031   Thumb Code   944  lcd.o(i.LCD_SetCursor)
    LCD_ShowChar                             0x080053ed   Thumb Code   272  lcd.o(i.LCD_ShowChar)
    LCD_ShowString                           0x08005515   Thumb Code   102  lcd.o(i.LCD_ShowString)
    LCD_WR_DATAX                             0x0800557d   Thumb Code    28  lcd.o(i.LCD_WR_DATAX)
    LCD_WR_REG                               0x080055a1   Thumb Code    28  lcd.o(i.LCD_WR_REG)
    LCD_WriteRAM_Prepare                     0x080055c5   Thumb Code    12  lcd.o(i.LCD_WriteRAM_Prepare)
    LCD_WriteReg                             0x080055d5   Thumb Code    40  lcd.o(i.LCD_WriteReg)
    LED_Init                                 0x08005605   Thumb Code    72  led.o(i.LED_Init)
    MemManage_Handler                        0x08005655   Thumb Code     4  stm32f10x_it.o(i.MemManage_Handler)
    NMI_Handler                              0x08005659   Thumb Code     2  stm32f10x_it.o(i.NMI_Handler)
    PendSV_Handler                           0x0800565b   Thumb Code     2  stm32f10x_it.o(i.PendSV_Handler)
    RCC_APB2PeriphClockCmd                   0x0800584d   Thumb Code    26  stm32f10x_rcc.o(i.RCC_APB2PeriphClockCmd)
    RCC_GetClocksFreq                        0x0800586d   Thumb Code   192  stm32f10x_rcc.o(i.RCC_GetClocksFreq)
    RTC_ClearITPendingBit                    0x08005941   Thumb Code    12  stm32f10x_rtc.o(i.RTC_ClearITPendingBit)
    RTC_Get                                  0x08005951   Thumb Code   240  rtc.o(i.RTC_Get)
    RTC_GetCounter                           0x08005a51   Thumb Code    16  stm32f10x_rtc.o(i.RTC_GetCounter)
    RTC_GetITStatus                          0x08005a65   Thumb Code    32  stm32f10x_rtc.o(i.RTC_GetITStatus)
    RTC_Get_Week                             0x08005a89   Thumb Code   116  rtc.o(i.RTC_Get_Week)
    RTC_IRQHandler                           0x08005b01   Thumb Code    40  rtc.o(i.RTC_IRQHandler)
    RTC_WaitForLastTask                      0x08005b29   Thumb Code    16  stm32f10x_rtc.o(i.RTC_WaitForLastTask)
    SVC_Handler                              0x08005b3d   Thumb Code     2  stm32f10x_it.o(i.SVC_Handler)
    SysTick_CLKSourceConfig                  0x08005c29   Thumb Code    40  misc.o(i.SysTick_CLKSourceConfig)
    SysTick_Handler                          0x08005c51   Thumb Code     2  stm32f10x_it.o(i.SysTick_Handler)
    SystemInit                               0x08005c55   Thumb Code    78  system_stm32f10x.o(i.SystemInit)
    USART_ClearFlag                          0x08005cb5   Thumb Code    18  stm32f10x_usart.o(i.USART_ClearFlag)
    USART_Cmd                                0x08005cc7   Thumb Code    24  stm32f10x_usart.o(i.USART_Cmd)
    USART_GetFlagStatus                      0x08005cdf   Thumb Code    26  stm32f10x_usart.o(i.USART_GetFlagStatus)
    USART_ITConfig                           0x08005cf9   Thumb Code    74  stm32f10x_usart.o(i.USART_ITConfig)
    USART_Init                               0x08005d45   Thumb Code   210  stm32f10x_usart.o(i.USART_Init)
    USART_SendData                           0x08005e1d   Thumb Code     8  stm32f10x_usart.o(i.USART_SendData)
    UsageFault_Handler                       0x08005e25   Thumb Code     4  stm32f10x_it.o(i.UsageFault_Handler)
    __0printf$8                              0x08005e29   Thumb Code    22  printf8.o(i.__0printf$8)
    __1printf$8                              0x08005e29   Thumb Code     0  printf8.o(i.__0printf$8)
    __2printf                                0x08005e29   Thumb Code     0  printf8.o(i.__0printf$8)
    __scatterload_copy                       0x08005e49   Thumb Code    14  handlers.o(i.__scatterload_copy)
    __scatterload_null                       0x08005e57   Thumb Code     2  handlers.o(i.__scatterload_null)
    __scatterload_zeroinit                   0x08005e59   Thumb Code    14  handlers.o(i.__scatterload_zeroinit)
    delay_init                               0x080062cd   Thumb Code    50  delay.o(i.delay_init)
    delay_ms                                 0x08006311   Thumb Code    72  delay.o(i.delay_ms)
    delay_us                                 0x0800635d   Thumb Code    72  delay.o(i.delay_us)
    fputc                                    0x080063a9   Thumb Code    40  usart.o(i.fputc)
    main                                     0x080063d5   Thumb Code   114  main.o(i.main)
    uart_init                                0x0800644d   Thumb Code   130  usart.o(i.uart_init)
    table_week                               0x080064d8   Data          12  rtc.o(.constdata)
    mon_table                                0x080064e4   Data          12  rtc.o(.constdata)
    asc2_1206                                0x080064f0   Data        1140  lcd.o(.constdata)
    asc2_1608                                0x08006964   Data        1520  lcd.o(.constdata)
    asc2_2412                                0x08006f54   Data        3420  lcd.o(.constdata)
    Region$$Table$$Base                      0x08007cb0   Number         0  anon$$obj.o(Region$$Table)
    Region$$Table$$Limit                     0x08007cd0   Number         0  anon$$obj.o(Region$$Table)
    SystemCoreClock                          0x20000004   Data           4  system_stm32f10x.o(.data)
    AHBPrescTable                            0x20000008   Data          16  system_stm32f10x.o(.data)
    __stdout                                 0x20000030   Data           4  usart.o(.data)
    POINT_COLOR                              0x20000036   Data           2  lcd.o(.data)
    BACK_COLOR                               0x20000038   Data           2  lcd.o(.data)
    calendar                                 0x2000003c   Data          10  rtc.o(.bss)
    lcddev                                   0x20000046   Data          14  lcd.o(.bss)
    __initial_sp                             0x20000458   Data           0  startup_stm32f10x_hd.o(STACK)



==============================================================================

Memory Map of the image

  Image Entry point : 0x08000131

  Load Region LR_IROM1 (Base: 0x08000000, Size: 0x00007d0c, Max: 0x00040000, ABSOLUTE)

    Execution Region ER_IROM1 (Exec base: 0x08000000, Load base: 0x08000000, Size: 0x00007cd0, Max: 0x00040000, ABSOLUTE)

    Exec Addr    Load Addr    Size         Type   Attr      Idx    E Section Name        Object

    0x08000000   0x08000000   0x00000130   Data   RO           19    RESET               startup_stm32f10x_hd.o
    0x08000130   0x08000130   0x00000000   Code   RO         3638  * .ARM.Collect$$$$00000000  mc_w.l(entry.o)
    0x08000130   0x08000130   0x00000004   Code   RO         3908    .ARM.Collect$$$$00000001  mc_w.l(entry2.o)
    0x08000134   0x08000134   0x00000004   Code   RO         3911    .ARM.Collect$$$$00000004  mc_w.l(entry5.o)
    0x08000138   0x08000138   0x00000000   Code   RO         3913    .ARM.Collect$$$$00000008  mc_w.l(entry7b.o)
    0x08000138   0x08000138   0x00000000   Code   RO         3915    .ARM.Collect$$$$0000000A  mc_w.l(entry8b.o)
    0x08000138   0x08000138   0x00000008   Code   RO         3916    .ARM.Collect$$$$0000000B  mc_w.l(entry9a.o)
    0x08000140   0x08000140   0x00000000   Code   RO         3918    .ARM.Collect$$$$0000000D  mc_w.l(entry10a.o)
    0x08000140   0x08000140   0x00000000   Code   RO         3920    .ARM.Collect$$$$0000000F  mc_w.l(entry11a.o)
    0x08000140   0x08000140   0x00000004   Code   RO         3909    .ARM.Collect$$$$00002712  mc_w.l(entry2.o)
    0x08000144   0x08000144   0x00000024   Code   RO           20    .text               startup_stm32f10x_hd.o
    0x08000168   0x08000168   0x000000e4   Code   RO         3902    .text               mf_w.l(dmul.o)
    0x0800024c   0x0800024c   0x0000001a   Code   RO         3904    .text               mf_w.l(dfltui.o)
    0x08000266   0x08000266   0x00000032   Code   RO         3906    .text               mf_w.l(dfixui.o)
    0x08000298   0x08000298   0x00000062   Code   RO         3924    .text               mc_w.l(uldiv.o)
    0x080002fa   0x080002fa   0x00000020   Code   RO         3926    .text               mc_w.l(llushr.o)
    0x0800031a   0x0800031a   0x00000000   Code   RO         3928    .text               mc_w.l(iusefp.o)
    0x0800031a   0x0800031a   0x000000ba   Code   RO         3929    .text               mf_w.l(depilogue.o)
    0x080003d4   0x080003d4   0x00000024   Code   RO         3939    .text               mc_w.l(init.o)
    0x080003f8   0x080003f8   0x0000001e   Code   RO         3941    .text               mc_w.l(llshl.o)
    0x08000416   0x08000416   0x00000004   Code   RO          172    i.BusFault_Handler  stm32f10x_it.o
    0x0800041a   0x0800041a   0x00000002   Code   RO          173    i.DebugMon_Handler  stm32f10x_it.o
    0x0800041c   0x0800041c   0x00000194   Code   RO           24    i.DisplayMenu       main.o
    0x080005b0   0x080005b0   0x000000b8   Code   RO           25    i.ExecuteFunction   main.o
    0x08000668   0x08000668   0x00000116   Code   RO         1446    i.GPIO_Init         stm32f10x_gpio.o
    0x0800077e   0x0800077e   0x00000002   PAD
    0x08000780   0x08000780   0x00000090   Code   RO         1448    i.GPIO_PinRemapConfig  stm32f10x_gpio.o
    0x08000810   0x08000810   0x00000004   Code   RO         1454    i.GPIO_SetBits      stm32f10x_gpio.o
    0x08000814   0x08000814   0x00000004   Code   RO          174    i.HardFault_Handler  stm32f10x_it.o
    0x08000818   0x08000818   0x0000003a   Code   RO         3355    i.Is_Leap_Year      rtc.o
    0x08000852   0x08000852   0x00000002   PAD
    0x08000854   0x08000854   0x00000060   Code   RO         3619    i.KEY_Init          key.o
    0x080008b4   0x080008b4   0x00000084   Code   RO         3620    i.KEY_Scan          key.o
    0x08000938   0x08000938   0x00000088   Code   RO         3410    i.LCD_Clear         lcd.o
    0x080009c0   0x080009c0   0x000001c0   Code   RO         3414    i.LCD_Display_Dir   lcd.o
    0x08000b80   0x08000b80   0x00000364   Code   RO         3419    i.LCD_Fast_DrawPoint  lcd.o
    0x08000ee4   0x08000ee4   0x00003ba0   Code   RO         3421    i.LCD_Init          lcd.o
    0x08004a84   0x08004a84   0x00000070   Code   RO         3423    i.LCD_RD_DATA       lcd.o
    0x08004af4   0x08004af4   0x00000010   Code   RO         3425    i.LCD_ReadReg       lcd.o
    0x08004b04   0x08004b04   0x000000d4   Code   RO         3426    i.LCD_SSD_BackLightSet  lcd.o
    0x08004bd8   0x08004bd8   0x00000458   Code   RO         3427    i.LCD_Scan_Dir      lcd.o
    0x08005030   0x08005030   0x000003bc   Code   RO         3428    i.LCD_SetCursor     lcd.o
    0x080053ec   0x080053ec   0x00000128   Code   RO         3430    i.LCD_ShowChar      lcd.o
    0x08005514   0x08005514   0x00000066   Code   RO         3432    i.LCD_ShowString    lcd.o
    0x0800557a   0x0800557a   0x00000002   PAD
    0x0800557c   0x0800557c   0x00000024   Code   RO         3434    i.LCD_WR_DATAX      lcd.o
    0x080055a0   0x080055a0   0x00000024   Code   RO         3435    i.LCD_WR_REG        lcd.o
    0x080055c4   0x080055c4   0x00000010   Code   RO         3437    i.LCD_WriteRAM_Prepare  lcd.o
    0x080055d4   0x080055d4   0x00000030   Code   RO         3438    i.LCD_WriteReg      lcd.o
    0x08005604   0x08005604   0x00000050   Code   RO         3343    i.LED_Init          led.o
    0x08005654   0x08005654   0x00000004   Code   RO          175    i.MemManage_Handler  stm32f10x_it.o
    0x08005658   0x08005658   0x00000002   Code   RO          176    i.NMI_Handler       stm32f10x_it.o
    0x0800565a   0x0800565a   0x00000002   Code   RO          177    i.PendSV_Handler    stm32f10x_it.o
    0x0800565c   0x0800565c   0x00000060   Code   RO           26    i.PrintfHelp        main.o
    0x080056bc   0x080056bc   0x00000190   Code   RO           27    i.PrintfLogo        main.o
    0x0800584c   0x0800584c   0x00000020   Code   RO         1864    i.RCC_APB2PeriphClockCmd  stm32f10x_rcc.o
    0x0800586c   0x0800586c   0x000000d4   Code   RO         1872    i.RCC_GetClocksFreq  stm32f10x_rcc.o
    0x08005940   0x08005940   0x00000010   Code   RO         2061    i.RTC_ClearITPendingBit  stm32f10x_rtc.o
    0x08005950   0x08005950   0x00000100   Code   RO         3356    i.RTC_Get           rtc.o
    0x08005a50   0x08005a50   0x00000014   Code   RO         2064    i.RTC_GetCounter    stm32f10x_rtc.o
    0x08005a64   0x08005a64   0x00000024   Code   RO         2067    i.RTC_GetITStatus   stm32f10x_rtc.o
    0x08005a88   0x08005a88   0x00000078   Code   RO         3357    i.RTC_Get_Week      rtc.o
    0x08005b00   0x08005b00   0x00000028   Code   RO         3358    i.RTC_IRQHandler    rtc.o
    0x08005b28   0x08005b28   0x00000014   Code   RO         2072    i.RTC_WaitForLastTask  stm32f10x_rtc.o
    0x08005b3c   0x08005b3c   0x00000002   Code   RO          178    i.SVC_Handler       stm32f10x_it.o
    0x08005b3e   0x08005b3e   0x00000008   Code   RO          261    i.SetSysClock       system_stm32f10x.o
    0x08005b46   0x08005b46   0x00000002   PAD
    0x08005b48   0x08005b48   0x000000e0   Code   RO          262    i.SetSysClockTo72   system_stm32f10x.o
    0x08005c28   0x08005c28   0x00000028   Code   RO          299    i.SysTick_CLKSourceConfig  misc.o
    0x08005c50   0x08005c50   0x00000002   Code   RO          179    i.SysTick_Handler   stm32f10x_it.o
    0x08005c52   0x08005c52   0x00000002   PAD
    0x08005c54   0x08005c54   0x00000060   Code   RO          264    i.SystemInit        system_stm32f10x.o
    0x08005cb4   0x08005cb4   0x00000012   Code   RO         3028    i.USART_ClearFlag   stm32f10x_usart.o
    0x08005cc6   0x08005cc6   0x00000018   Code   RO         3032    i.USART_Cmd         stm32f10x_usart.o
    0x08005cde   0x08005cde   0x0000001a   Code   RO         3035    i.USART_GetFlagStatus  stm32f10x_usart.o
    0x08005cf8   0x08005cf8   0x0000004a   Code   RO         3038    i.USART_ITConfig    stm32f10x_usart.o
    0x08005d42   0x08005d42   0x00000002   PAD
    0x08005d44   0x08005d44   0x000000d8   Code   RO         3039    i.USART_Init        stm32f10x_usart.o
    0x08005e1c   0x08005e1c   0x00000008   Code   RO         3049    i.USART_SendData    stm32f10x_usart.o
    0x08005e24   0x08005e24   0x00000004   Code   RO          180    i.UsageFault_Handler  stm32f10x_it.o
    0x08005e28   0x08005e28   0x00000020   Code   RO         3848    i.__0printf$8       mc_w.l(printf8.o)
    0x08005e48   0x08005e48   0x0000000e   Code   RO         3947    i.__scatterload_copy  mc_w.l(handlers.o)
    0x08005e56   0x08005e56   0x00000002   Code   RO         3948    i.__scatterload_null  mc_w.l(handlers.o)
    0x08005e58   0x08005e58   0x0000000e   Code   RO         3949    i.__scatterload_zeroinit  mc_w.l(handlers.o)
    0x08005e66   0x08005e66   0x00000002   PAD
    0x08005e68   0x08005e68   0x00000410   Code   RO         3855    i._printf_core      mc_w.l(printf8.o)
    0x08006278   0x08006278   0x00000024   Code   RO         3856    i._printf_post_padding  mc_w.l(printf8.o)
    0x0800629c   0x0800629c   0x0000002e   Code   RO         3857    i._printf_pre_padding  mc_w.l(printf8.o)
    0x080062ca   0x080062ca   0x00000002   PAD
    0x080062cc   0x080062cc   0x00000044   Code   RO         3262    i.delay_init        delay.o
    0x08006310   0x08006310   0x0000004c   Code   RO         3263    i.delay_ms          delay.o
    0x0800635c   0x0800635c   0x0000004c   Code   RO         3265    i.delay_us          delay.o
    0x080063a8   0x080063a8   0x0000002c   Code   RO         3303    i.fputc             usart.o
    0x080063d4   0x080063d4   0x00000078   Code   RO           28    i.main              main.o
    0x0800644c   0x0800644c   0x0000008c   Code   RO         3304    i.uart_init         usart.o
    0x080064d8   0x080064d8   0x00000018   Data   RO         3362    .constdata          rtc.o
    0x080064f0   0x080064f0   0x000017c0   Data   RO         3441    .constdata          lcd.o
    0x08007cb0   0x08007cb0   0x00000020   Data   RO         3945    Region$$Table       anon$$obj.o


    Execution Region RW_IRAM1 (Exec base: 0x20000000, Load base: 0x08007cd0, Size: 0x00000458, Max: 0x0000c000, ABSOLUTE)

    Exec Addr    Load Addr    Size         Type   Attr      Idx    E Section Name        Object

    0x20000000   0x08007cd0   0x00000002   Data   RW           29    .data               main.o
    0x20000002   0x08007cd2   0x00000002   PAD
    0x20000004   0x08007cd4   0x00000014   Data   RW          265    .data               system_stm32f10x.o
    0x20000018   0x08007ce8   0x00000014   Data   RW         1892    .data               stm32f10x_rcc.o
    0x2000002c   0x08007cfc   0x00000004   Data   RW         3266    .data               delay.o
    0x20000030   0x08007d00   0x00000004   Data   RW         3305    .data               usart.o
    0x20000034   0x08007d04   0x00000002   Data   RW         3363    .data               rtc.o
    0x20000036   0x08007d06   0x00000004   Data   RW         3442    .data               lcd.o
    0x2000003a   0x08007d0a   0x00000001   Data   RW         3621    .data               key.o
    0x2000003b   0x08007d0b   0x00000001   PAD
    0x2000003c        -       0x0000000a   Zero   RW         3361    .bss                rtc.o
    0x20000046        -       0x0000000e   Zero   RW         3440    .bss                lcd.o
    0x20000054   0x08007d0b   0x00000004   PAD
    0x20000058        -       0x00000400   Zero   RW           17    STACK               startup_stm32f10x_hd.o


==============================================================================

Image component sizes


      Code (inc. data)   RO Data    RW Data    ZI Data      Debug   Object Name

         0          0          0          0          0       4548   core_cm3.o
       220         26          0          4          0       1771   delay.o
       228         26          0          1          0       1198   key.o
     19658        222       6080          4         14      22976   lcd.o
        80          8          0          0          0        515   led.o
      1204        464          0          2          0     230507   main.o
        40          0          0          0          0        514   misc.o
       474         20         24          2         10       3817   rtc.o
        36          8        304          0       1024        804   startup_stm32f10x_hd.o
       426          6          0          0          0       3417   stm32f10x_gpio.o
        26          0          0          0          0       3842   stm32f10x_it.o
       244         26          0         20          0       3965   stm32f10x_rcc.o
        92         16          0          0          0       2061   stm32f10x_rtc.o
       366          6          0          0          0       5487   stm32f10x_usart.o
       328         28          0         20          0       2277   system_stm32f10x.o
       184         14          0          4          0       3210   usart.o

    ----------------------------------------------------------------------
     23618        870       6440         60       1052     290909   Object Totals
         0          0         32          0          0          0   (incl. Generated)
        12          0          0          3          4          0   (incl. Padding)

    ----------------------------------------------------------------------

      Code (inc. data)   RO Data    RW Data    ZI Data      Debug   Library Member Name

         0          0          0          0          0          0   entry.o
         0          0          0          0          0          0   entry10a.o
         0          0          0          0          0          0   entry11a.o
         8          4          0          0          0          0   entry2.o
         4          0          0          0          0          0   entry5.o
         0          0          0          0          0          0   entry7b.o
         0          0          0          0          0          0   entry8b.o
         8          4          0          0          0          0   entry9a.o
        30          0          0          0          0          0   handlers.o
        36          8          0          0          0         68   init.o
         0          0          0          0          0          0   iusefp.o
        30          0          0          0          0         68   llshl.o
        32          0          0          0          0         68   llushr.o
      1154         54          0          0          0        352   printf8.o
        98          0          0          0          0         92   uldiv.o
       186          0          0          0          0        176   depilogue.o
        50          0          0          0          0         76   dfixui.o
        26          0          0          0          0         76   dfltui.o
       228          0          0          0          0         96   dmul.o

    ----------------------------------------------------------------------
      1894         70          0          0          0       1072   Library Totals
         4          0          0          0          0          0   (incl. Padding)

    ----------------------------------------------------------------------

      Code (inc. data)   RO Data    RW Data    ZI Data      Debug   Library Name

      1400         70          0          0          0        648   mc_w.l
       490          0          0          0          0        424   mf_w.l

    ----------------------------------------------------------------------
      1894         70          0          0          0       1072   Library Totals

    ----------------------------------------------------------------------

==============================================================================


      Code (inc. data)   RO Data    RW Data    ZI Data      Debug   

     25512        940       6440         60       1052     288701   Grand Totals
     25512        940       6440         60       1052     288701   ELF Image Totals
     25512        940       6440         60          0          0   ROM Totals

==============================================================================

    Total RO  Size (Code + RO Data)                31952 (  31.20kB)
    Total RW  Size (RW Data + ZI Data)              1112 (   1.09kB)
    Total ROM Size (Code + RO Data + RW Data)      32012 (  31.26kB)

==============================================================================

